:100000000C9495040C94DC040C94DC040C94DC0437
:100010000C94DC040C94DC040C94DC040C94DC04E0
:100020000C94DC040C94DC040C947B1D0C94B71C25
:100030000C944F2D0C94DC040C94DC040C94DC0424
:100040000C94DC040C94DC040C94DC040C94DC04B0
:100050000C94DC040C94022D0C94DC040C94DC0451
:100060000C94DC040C94DC040C94DC040C94DC0490
:100070000C94DC040C94DC040C94DC040C94DC0480
:100080000C94DC040C94DC040C94DC040C94DC0470
:100090000C94DC040C94DC040C94DC040C94DC0460
:1000A0000C94DC040C94DC040C94DC04E50D010ECF
:1000B000080E400E510E5C0E6C0E7F0EC20EC70E67
:1000C000210F210F210FCF0E570F620F8C0FC00889
:1000D0000A1058109F10A210A7104F11A914B414A1
:1000E000B914BE14C314C814CD14D214D714DC141C
:1000F000E11467156715A015A01502163D173D17E9
:100100003D1720169416A516A516BF1AE61A991CB7
:10011000E61A991C321B551B991C561C661C3B1F6A
:100120003B1F4E1F4E1F441F4E1F4E1F4E1F3B1F97
:100130003B1F491F4E1F4E1F491FFD377A585A005B
:100140000004E6D6B4460200210116000000742F18
:10015000E5A3E008BA02385D003D8889C65436C37D
:10016000174FE4EF0A3F668DD105C145CE66B4E86E
:10017000DF851F2CF59EBB41D912F17F204F73679D
:100180002F9AC243D74C5B65441319B1B3BC75E3D6
:100190004629A966D74C1C5E426C60D242D9519563
:1001A000BCFAC18D306CE69EB06A07247A2A185AD0
:1001B0001E9B96F1D7C773FB08189FE9E151A0F584
:1001C000BBC6642ADE77E3862382C220049FD4A6BE
:1001D00029BD9E7F2A24653C396A42E0B4E0B2F032
:1001E000E3A53B49E7214AD58BC2A4926DE8E977A4
:1001F000E9287FBBF9591258A5D7DA898EB25E86F5
:100200005164DFF07CDF9AFE3A6FAB0686ABB53700
:10021000157AD471F220C3A3E22C35551E4F75FF19
:100220006930DF598A10F4991195BA89E5CE8D1D90
:100230009CA14BFCC7CC2A877A0C49CAA2FE744AFF
:1002400034F9E6110848C0FC49AA1F1C760E2CF6AA
:100250007806B533C6DB3C09F74E6055D9C3AB5EB3
:10026000505EBE825594872D41987240AA937EBD00
:10027000325B7FF063EE61031939C5B8659BE40416
:10028000D372C17114A1762CE14E80B545BB1BD849
:10029000902CDE0A998E73FC6A2426F8F5281B86BA
:1002A000C40C8926B0EE7E51191FB3707D56BD4631
:1002B000F6D5B5754B46EC051DFC5882A9510BCF00
:1002C0008E62BD47D8A29B78CE6FAF61A4874EFEE9
:1002D000B6C955F1992D5EB74774905DE2F3A887D2
:1002E000DEA97EA9756BB2E04F3FA86C2BF2185CBB
:1002F00084AE393011BC88B41E6CF1CC664F0A1B39
:10030000FAA75CB59205D09953A3E27333E3972122
:100310001A3701F0EBB8D4BC71C43737F8A7CE1B3D
:1003200013949E23C25F7D4392E0E7FF3283CBEFBD
:10033000B74EB455BEA4B4F3838FE16777DD8B4B22
:1003400026DAA5DF8D39535392C9A38DC15CF9E537
:10035000EEC6D302A272C66909EEB6E80EE4F12C2D
:1003600009013DE24E6F178911C4D70ED7BD570B57
:1003700073AB7FFC76D1D59F02F83AF5C936B0FD54
:10038000658C11FB9AF7755DC7217C7FFE7B595503
:100390000600AEF9057FEBF52ACB0001D404BB11B2
:1003A0000000F82CED68B1C467FB020000000004F7
:1003B000595A00000000010009000200010003007A
:1003C000020011000300120004001A0005001B00C7
:1003D00006001C0007001D0008002E200005010972
:1003E00002A10185020901A10005091901290515CC
:1003F00000250195057501810295017503810105AF
:1004000001093009311581257F950275088106099A
:10041000381581257F950175088106050C0A38027B
:100420001581257F950175088106C0C005010980E9
:10043000A101850319012AB700150126B70095010E
:1004400075108100C0050C0901A101850419012A5C
:10045000A002150126A002950175108100C006605A
:10046000FF0961A1010962150026FF0095207508AA
:1004700081020963150026FF00952075089102C0CE
:1004800005010906A101050719E029E71500250165
:10049000950875018102950175088101050719000C
:1004A00029FF150026FF009506750881000508192B
:1004B000012905950575019102950175039101C00A
:1004C00009025B00030100A0FA0904000001030116
:1004D00001000921110100012240000705810308E4
:1004E000000A0904010002030000000921110100B3
:1004F00001222200070582032000010705030320D3
:10050000000109040200010300000009211101009B
:10051000012281000705840320000A120100020065
:10052000000008FEFE50580100010203011C037682
:1005300000690061006C003A006600360034006318
:1005400000320062003300630000002C037300617E
:1005500000640065006B006200610072006F00754E
:10056000006400690020006200610072006F006298
:10057000006F007200640000001A037300610064E1
:100580000065006B006200610072006F007500641E
:1005900000690000000403090400000000000000DE
:1005A000000000000000000000000000000000004B
:1005B000000000000000000000000000007E0F00AE
:1005C000D4FFFFFFC700000078000000000000001B
:1005D000002A2B280000000000000000000000009E
:1005E0000000000029000000002C1E3420212224DD
:1005F000342627252E362D3738271E1F202122236B
:100600002425263333362E37381F040506070809FC
:100610000A0B0C0D0E0F10111213141516171819C2
:100620001A1B1C1D2F3130232D3504050607080920
:100630000A0B0C0D0E0F10111213141516171819A2
:100640001A1B1C1D2F3130354CAA00A9004F015038
:100650000101000100010001000100010001000191
:100660000001000100010001000100010001000182
:100670000014001A000800150017001C0018000CD8
:100680000012001300000004611668076409620A82
:10069000000B000D720E740F78337100001D001BEB
:1006A0000006001900050011001000360037003860
:1006B00000A800015302530151280034002A002CE5
:1006C000000251035304532A011E021F022002217B
:1006D0000222022302240225022602270200002908
:1006E00000010001000100010001002D022E022F77
:1006F0000230020000390035020100010001000152
:10070000000100010031023402010001000100017A
:1007100000010001004C0001000351010001000133
:10072000001E001F002000210022002300240025BD
:10073000002600270000005000510052004F002BFF
:100740000001002D002E002F0030000000E00035D9
:1007500000E300E200815F845F825F835F310034E9
:10076000000100010001000351010001000100012E
:10077000000100010001000100C25CC45CC35C0117
:100780000010503A003B003C003D003E000000CB12
:100790005CC55CC75CC95C01003F00400041004291
:1007A0000043000000CC5CC65CC85CCA5C0100442D
:1007B00000450001000100005C0100010001000192
:1007C0000001000100010001000100010001000121
:1007D0000001000100010001000100010001000111
:1007E0000001000100000001000100010001000102
:1007F00000010001000100010001000000010001F2
:1008000000010001000100010001000100010001E0
:1008100000010001000100010001000100010001D0
:1008200000010001000100010000010101010101BE
:100830000101010202020202020202020303030397
:100840000303030304040404040404050505050567
:100850000606060606070707070708080808090925
:1008600009090A0A0A0B0B0B0C0C0C0D0D0D0E0ED0
:100870000E0F0F0F10101111111212131314141563
:100880001516161717181819191A1A1B1B1C1D1DD7
:100890001E1E1F202021222223242425262627282D
:1008A00029292A2B2C2D2D2E2F303132323334355D
:1008B000363738393A3B3C3D3E3F40414243444560
:1008C000464748494A4C4D4E4F505153545556583F
:1008D000595A5B5D5E5F616264656668696B6C6DE9
:1008E0006F7072737577787A7B7D7E80828385875F
:1008F000888A8C8E8F91939596989A9C9EA0A2A39D
:10090000A5A7A9ABADAFB1B3B5B7BABCBEC0C2C4A1
:10091000C6C9CBCDCFD1D4D6D8DBDDDFE2E4E7E961
:10092000EBEEF0F3F5F8FAFDFF0011241FBECFEF58
:10093000DAE0DEBFCDBF04B603FE27C080916C05B0
:1009400090916D05A0916E05B0916F058730904B29
:10095000A740B04BD1F410926C0510926D05109227
:100960006E0510926F0514BE84B7877F84BF0FB6E3
:10097000F894A8958091600088618093600010923F
:1009800060000FBEE0E0F8E3099512E0A0E0B1E0FE
:10099000ECE3FEE602C005900D92AE32B107D9F746
:1009A00025E0AEE2B2E001C01D92AC36B207E1F73D
:1009B0000E94DE040C941C370C940000CF93DF934C
:1009C000CDB7DEB7C754D1090FB6F894DEBF0FBE5E
:1009D000CDBF84B7877F84BF0FB6F894A895809168
:1009E0006000886180936000109260000FBE90E00C
:1009F00080E80FB6F89480936100909361000FBE79
:100A000085B7806885BF85B7806885BF8BE693E230
:100A100090932F0280932E020E943B310E94FB1C78
:100A20000E941A1D8091E20084608093E200789415
:100A3000809166038823A1F01091E9001F709091C6
:100A4000EC00892F817090FD80E8182B1092E9004E
:100A50008091E80083FD0E94D9191F701093E9006E
:100A600082E084BD93E095BD9AEF97BD80936E00C0
:100A70000E942832811102C00E9419320EE111E059
:100A800032E2E32E31E0F32ED8018D918D018F3FBC
:100A900011F00E94B023E016F106B1F702E211E076
:100AA0002DE2E22E21E0F22EF80181918F018F3F9D
:100AB00011F00E94B023E016F106B1F71092330254
:100AC00010923202109244031092430310923502A6
:100AD000109234021092460310924503109237028E
:100AE0001092360210924803109247031092390276
:100AF0001092380210924A03109249030E94612515
:100B0000811102C00E946C2582E090E00E94843630
:100B10008093BE020E945025909331028093300250
:100B20000E949F268FE39CE90197F1F700C0000027
:100B30000E949F268091430380FF08C06FEF7FEFE4
:100B400080E090E00E94C0360E94DE2C83E090E0BE
:100B50000E9484360E94A121809171030E947D2908
:100B600010923B02E4E5F2E084E692E02FEF3FEFE3
:100B7000219331938E179F07D9F70E946125811128
:100B800004C00E946C250E94DC3246E050E06CE11B
:100B900070E08BE693E00E94743680916B038C7F4B
:100BA00011F40E94DC328DE9882E82E0982E4DE30C
:100BB00051E02FE331E09BE9692E92E0792E61E06C
:100BC00070E08614970409F44EC0F901A1919F01C9
:100BD0008A2F82958F7090E0FC01F1A0AF70BA2E41
:100BE0008B0101C0000FAA95EAF7F02FF095FF22C4
:100BF000DC019196FC9291979296AC91A02BFC010E
:100C0000A2A3DA01ED90AD01EE2DE295EF70F0E0D8
:100C1000F1A0BE2DBF70EB2E6B0101C0CC0CBA95BC
:100C2000EAF7DC2CD094FD20F1A2F2A0FC28F2A27D
:100C3000DC0190968C9190E002C095958795BA94CE
:100C4000E2F78170E0A1F0E002C0F595E795EA9443
:100C5000E2F7E0FF02C092E001C090E0892BF301CF
:100C600081933F01AECF0E94DD3440E060E080E040
:100C70000E94611910923A024FEF60E080E00E94FA
:100C8000611980E091E09093E7048093E6048091FD
:100C90006603853009F048C000E112E180916603E7
:100CA000853009F03DC080916603843021F11092B7
:100CB000EA0428E130E040E40FB6F894A8952093C8
:100CC00060000FBE4093600083B7817F846083BF64
:100CD00083B7816083BF7894889583B78E7F83BF05
:100CE0000FB6F894A89580916000886180936000A9
:100CF000109260000FBE80915C03882309F4CECF70
:100D00000E949F26E3E4F3E081919191892B11F0F9
:100D10000C94270F6BE473E06E177F07A9F7BECF23
:100D20000E94A5210E94CB2D0E949F2681110E9426
:100D3000372DE3E4F3E0AFEBB2E0C12CD12C8C2CE7
:100D4000A190B1908D919D918A259B25009709F4E2
:100D500062C110E0EE24E394F12C9C012E213F218E
:100D6000232B09F452C11DAF8EAEAE20BF2081E00F
:100D7000A114B10409F480E08FAF0E94432D81607B
:100D8000782F22969FAF8EAF22974DAD5EAD6FAD9F
:100D900022968FAD22970E94102AF601EE0FFF1FB8
:100DA000E154FD4F80819181E826F926F182E082AD
:100DB000AB2899F08BE08C9DF0018D9DF00D1124F6
:100DC000E05BFE4FE10FF11D80818F3F31F02896EF
:100DD0008FAF28979924939401C0912CE92CF12C82
:100DE00080913B02D701A80FB11D1997ACF188E0A3
:100DF00090E05C01AE18BF08B7016F5F7F4F655C84
:100E00007D4FA5018CE392E00E940C37B701675F2C
:100E10007F4F655C7D4FA50184E492E00E940C3712
:100E2000A501440F551FB701660F771F675E7F4FFF
:100E3000655C7D4F84E592E00E940C37B7016F5EE0
:100E40007F4F655C7D4FA5018CE492E00E940C37DA
:100E500088E0891980933B0280913B0290E02896BC
:100E6000EFAD2897AE2FB0E09D01220F331F24581D
:100E70003E4FAA0FBB1FBD0163587E4F41E0480F94
:100E80009915C0F490E0FC01E55CFD4FD9015C913F
:100E90005183DB015C9151872896BFAD2897B18BB8
:100EA000880F991FFC01E55CFD4F128E118E91E0B9
:100EB000842FE4CF80933B0280916B038C7F803240
:100EC00009F0D1C0AFEFA80D01E0080D5FEF510FA1
:100ED00041E0410F511780F48BE08C9DF0018D9D16
:100EE000F00D1124E559FD4FE50FF11D208130E192
:100EF000230F08F42FEF2083212F30E07BE07C9D2F
:100F0000C0017D9D900D112485599D4FFC01E20F7C
:100F1000F31F7081B0E26B2F760F08F47FEF7083C0
:100F20004B3051F0FC01E40FF11D708180E1682F1E
:100F3000760F08F47FEF7083043009F432C0E02E9E
:100F4000F12C511790F48BE08E9DF0018F9DF00DE8
:100F50001124E559FD4FE50FF11D80819DE0782FAB
:100F6000092F700F08F47FEF7083EBE0EE9DC00156
:100F7000EF9D900D112485599D4FFC01E20FF31F49
:100F8000608170E1670F08F46FEF60834B3049F0C8
:100F9000FC01E40FF11D60817DE0670F08F46FEF45
:100FA0006083A81508F05FC0B0E0511780F48BE0B3
:100FB0008A9FF0018B9FF00D1124E559FD4FE50F3D
:100FC000F11D50816DE0560F08F45FEF50838BE008
:100FD0008A9FF0018B9FF00D1124CF0185599D4F01
:100FE000FC01E20FF31F208130E1230F08F42FEF03
:100FF00020834B30C1F1FC01E40FF11D20813DE065
:10100000230F08F42FEF20832EC01F5FEE0CFF1C70
:101010001B3009F0A2CE1FEFC11AD10A24E0C2167C
:10102000D10409F08CCE8FEF23968FAF23972496AF
:101030008FAF249725961FAE25970E94432D816080
:10104000782F27969FAF8EAF279723964FAD239784
:1010500024965FAD249725966FAD259727968FAD83
:1010600027970E94102A8091640290916502A091B6
:101070006602B09167022FB7F894C090EB04D0904D
:10108000EC04E090ED04F090EE042FBFC81AD90AEA
:10109000EA0AFB0A0E94372D60936402709365028E
:1010A0008093660290936702A0913B02EBE3F2E02B
:1010B0002A2F30E088248A94982CA12CB12C8C18EB
:1010C0009D08AE08BF08A31799F0418D528D2A01E3
:1010D000612C712C84149504A604B70410F42150DB
:1010E00004C04C0D5D1D528F418F3F5F3296EBCF98
:1010F00020933B0230916B03232F237021F0E32ECA
:10110000E694E69401C0E12C209112012130A1F077
:1011100038F0223009F468C0233009F46EC091C061
:1011200010920E01609367037093680380936903C4
:1011300090936A0381E055C090910B01E9120DC0B4
:10114000832F837090E040910A0150E021E08417E2
:10115000950709F420E0822F01C081E0817080931F
:1011600010018091700390910F01981709F48FC6B8
:1011700080930F0140E060E080E00E94D03287C69B
:10118000F0900E01FF0CFF0CFF0CA8E0DA2EDF0C34
:1011900038E23D1510F4F8E2DF2E60916F0366959A
:1011A00080916703909168030E948E33C82EFD14CE
:1011B00008F4EEC681E057E25D1510F40C947A1144
:1011C00090910E019F5F90930E0181113AC082E0D1
:1011D0008093120180911001811133C0E11031C060
:1011E00083E0809312012DC0E0920B01832F837066
:1011F00080930A010E94D531F3CF8091F2048111CE
:101200000E94D4321092F204409167035091680317
:101210006091690370916A032FB7F8948091EB0491
:101220009091EC04A091ED04B091EE042FBF841BCB
:10123000950BA60BB70B4097A105B10510F01092C6
:10124000120109E9E02E02E0F02E07E912E08BE935
:10125000482E82E0582E9DE3692E91E0792E2FE3EF
:10126000C22E21E0D22E5201812C912C34E0232E6B
:10127000312CD5018D915D01E82FEE0FEE0FD601D7
:101280002D916D01A22FA295AF70B0E090968C9138
:1012900090E02F7002C0959587952A95E2F79C0102
:1012A00021703327D3018D913D01A82FA295AF70F6
:1012B000B0E090964C9150E08F7002C055954795E4
:1012C0008A95E2F7CA018170992740FF02C082E047
:1012D00090E0822B932B8E2BF20181932F018F7044
:1012E000E82FF0E0E35DFE4F9081D7018C91890FEC
:1012F0008C93843054F0F80180818F5F808360E0AC
:10130000892D0E94893421E001C020E0D7018C9111
:101310008D3F4CF4F80180818150808361E0892DFC
:101320000E94893421E0D7018C91082E000C990B82
:10133000B1010E94DE36F70181937F01822A9394E6
:101340000F5F1F4FF2E09F1294CF81100E94372D44
:101350008091BC028A3008F0EBC08091BA02909173
:10136000BB020E94282D089708F4E2C004E610E0B2
:1013700025E030E045EB52E064E084E10E940B366A
:10138000892B09F06BC01092BC0286E0E3EAF2E020
:10139000DE01D19601900D928A95E1F786E0FE017B
:1013A000F196DE01D79601900D928A95E1F786E0DD
:1013B000FE01F796AFEAB2E001900D928A95E1F74F
:1013C0009091B9028091B00297FD3EC08E7F8093CC
:1013D000B0028091AD029091AE02009799F545E080
:1013E0006091B5028091B6020E94C9292091AB029A
:1013F0003091AC02281B390B3093AC022093AB0226
:1014000045E06091B7028091B8020E94C9292091FD
:10141000A9023091AA02820F931F9093AA0280938F
:10142000A90269EA72E081EB92E00E94AA296BEAC4
:1014300072E082EB92E00E94AA291092B40210920C
:10144000B30211C0019705C081608093B00284E1AE
:1014500090E09093AE028093AD0205C08091BC02F3
:101460008F5F8093BC0286E0EFEAF2E0DE019B969C
:1014700001900D928A95E1F786E0FE01BB96A3EA02
:10148000B2E001900D928A95E1F73091A50220918A
:10149000A6029091A7028091A80270919F0260918C
:1014A000A0024091A1025091A202F091A402E09109
:1014B0009E02FE1312C0332311F073130EC02223B9
:1014C00011F062130AC0882311F0851306C0992316
:1014D00031F081E0491304C002C081E001C080E026
:1014E00080FF0FC0E091E604F091E704309749F0E7
:1014F00082E08093A3020480F581E02D83EA92E0EC
:1015000009951092A5021092A6021092A7021092BD
:10151000A80286E0E3EAF2E0ADE9B2E001900D92C4
:101520008A95E1F70E94432D9093BB028093BA0203
:101530000E94CB2D9091BD02891721F00E94CB2DE6
:101540008093BD0280916603843009F0A0CB83E0D4
:101550008093E9008091E80082FF99CB8091E800B8
:1015600085FF22C00E94501E81111CC000E210E0C5
:101570009E012F5F3F4F790108C08091F100D70194
:101580008D937D010150110969F08091E80085FD7E
:10159000F4CF8091E8008B778093E8000E94501E82
:1015A000882399F391E001C090E08091E8008B7767
:1015B0008093E800992309F46ACBE0903704F09017
:1015C00038048981E114F10459F08E3F09F039C4DF
:1015D0009A819330A8F19550933008F032C430C00E
:1015E0008B3009F4CFC248F5853009F485C0B8F4D2
:1015F000823009F442C030F4813009F020C41A82EC
:1016000089E0BEC3833009F468C0843009F017C490
:101610004C816B818A810E94F1309D8336C4873072
:1016200009F478C008F473C0883009F4EAC089303E
:1016300009F005C40E94D43204C4803109F4E4C125
:101640008E010F5F1F4F813160F48D3009F47EC130
:1016500008F47AC18E3009F47DC18F3009F4A5C138
:10166000EEC3823109F4D5C108F4D1C1833109F444
:10167000FAC18E3F09F49DC2E2C38A81823009F427
:10168000FDC3833051F0813009F0D9C30E94372D5A
:101690009B838C837D836E83D4C38091330490912C
:1016A0003404892B09F4CDC3809143039091440302
:1016B0009B838C8380914503909146039D838E8309
:1016C00080914703909148039F83888780914903C5
:1016D00090914A0399878A87B4C38A81823009F03E
:1016E000AEC36B817C818D819E810E94F83686E23B
:1016F00090E00E94A236A5C32D813E813227232788
:1017000032274C816B818A810E941D309AC30E94CE
:10171000533097C38A81813421F0823409F43BC06D
:1017200090C34B815C8180916B03982F937041151E
:10173000510539F49111109212018C7F80936B0343
:101740001FC0911102C0109212018C7F81608093A2
:101750006B0322EB33E06AED73E0F9013296859179
:101760009491F901A591B4914A175B0731F02C5F70
:101770003F4F6217730789F780E060E00E94A23252
:101780008D8180936F038E8120E048856F8190E08A
:101790000E94473256C34B815C818D81B3E08B9FA1
:1017A000900111242E3131050CF04BC3DE0111964E
:1017B000FA01EE0FFF1FE40FF51FE553FD4F20E088
:1017C00030E090E02817390708F03BC31396BA01C0
:1017D000620F731F6832710508F033C312966C9163
:1017E0001297608313966C911397618314966C9192
:1017F00014976D3308F06CE362832F5F3F4F33968D
:10180000E1CF8A81823409F442C028F4803451F057
:10181000813471F016C3833409F459C0843409F457
:1018200059C00FC381E08B831C828CE38D8309C375
:1018300080916B03982F9370B1F08695869590E018
:1018400022EB33E06AED73E0F9013296A591B49191
:10185000F901459154918A179B0741F02C5F3F4F46
:101860006217730789F790E080E002C0942F852FFC
:101870009B838C8380916F038D8380916C038E8317
:1018800080916D038F8380916E038887DAC20B810C
:101890001C814EE150E06FEF70E0CE0103960E9494
:1018A000153782EB93E0DE0113962EE1FC014591A2
:1018B00054910417150728F4223018F04D935D93C6
:1018C00022500496E3E08A3D9E0781F7BAC288E27F
:1018D0008B839CC18B8190E0883291050CF0B1C262
:1018E000FC01EE0FFF1FE458FE4F20812B83FC010B
:1018F000EE0FFF1FE05BFE4F25A52C83FC01E45398
:10190000FE4F20812D832FEF2F832E8360E571E022
:1019100040E050E020E030E0FB01E20FF31FE08107
:10192000F0E08E179F0719F44E832F838AC22F5F32
:101930003F4F2B30310581F74F5F5F4F655F7F4F22
:101940004430510539F77DC280E136C281E08A8397
:1019500089EA16C2EA80FB80FE24EF24FE24AC80D4
:10196000B12CFDE1AF16B10408F06BC26801C701EC
:10197000895A9D4F9601201B310B2A153B0508F013
:1019800060C229EAE21621E0F20630F40E948436B1
:10199000D60114968C9302C0F6011482FFEFEF1A61
:1019A000FF0A2FEFC21AD20AE2CF8091330490913E
:1019B0003404892B09F445C2EA80FB80FE24EF241D
:1019C000FE24CC80D12C3DE1C316D10408F039C2ED
:1019D0005801C701895A9D4F9501201B310B2C15C9
:1019E0003D0508F02EC249EAE41641E0F40628F469
:1019F000D50114966C910E94A236BFEFEB1AFB0A38
:101A0000EFEFAE1ABE0AE5CF0E94A52F1AC285E0FD
:101A1000D3C1EA80FB80FE24EF24FE24AC80B12CED
:101A2000FDE1AF16B10408F00CC26801C70187964A
:101A30009601201B310B2A153B0508F002C228EB4A
:101A4000E21621E0F20630F40E948436D6011496A4
:101A50008C9302C0F6011482FFEFEF1AFF0A2FEFFA
:101A6000C21AD20AE3CFEA80FB80FE24EF24FE24D0
:101A7000AC80B12C3DE1A316B10408F0E2C148EB03
:101A8000E41641E0F40608F0DCC188EB91E08E1921
:101A90009F098A159B0508F4D4C1370157E2650EEA
:101AA000711C8091330490913404892B11F06801EA
:101AB00060C0E0FE0FC0C70186960E94843690E0A9
:101AC000982F88272D81822B81159C4531F48FEF2B
:101AD0008D8303C0C12CD12C03C0CC24C394D12C42
:101AE000C7018A0D9B1D450180FF1BC071E0871A4D
:101AF000910855E0452E512C4C0E5D1E480C591C8A
:101B0000C3018A0D9B1D0E948436D2012C9130E0C6
:101B1000322F2227282B21153C4519F48FEFF20193
:101B20008083F801EC0DFD1D2FEFCF01801B910B81
:101B30008815990508F0BBCF848190E0982F8827FD
:101B40003581832B81159C4511F42483258332969E
:101B5000ECCF48EBE41641E0F40628F4D6011496E5
:101B60006C910E94A236BFEFEB1AFB0AEFEFCE1A80
:101B7000DE0AC70187969601201B310B2A153B050B
:101B800040F35FC18091330490913404892B09F4B0
:101B900058C1CE0101960E94AF1EFFEF01EE14E086
:101BA000F15000401040E1F700C000000E94DE2C20
:101BB00048C1EA818E2F90E08E30910508F041C136
:101BC000FC01EA5AFF4F0C94F23688E0E3E1F1E0C1
:101BD000DE01919601900D928A95E1F780E2D8019D
:101BE0001D928A95E9F784E0898388E0FE01B19629
:101BF000DE01159601900D928A95E1F781E08D87BF
:101C000020C188E7898382E08A831B821C8219C1F4
:101C10008C8190E0982F88272B81820F911D092EAF
:101C2000000CAA0BBB0B35E0880F991FAA1FBB1F26
:101C30003A95D1F7AC01BD01405E5F4F6F4F7F4FCA
:101C4000481759076A077B0708F4FBC08837E2E0AA
:101C50009E07A105B10508F0F4C04937F2E05F071F
:101C60006105710520F048E752E060E070E0481B34
:101C7000590BBC01665C7E4FC8010E946B36E1C007
:101C80001B810C8140E0602F812F0E94ED2F9983F2
:101C90008A8341E0602F812F0E94ED2F9B838C83EC
:101CA000D0C02E813F813227232732274D816C817E
:101CB0008B810E94B52FC5C040E250E06FEF70E00D
:101CC000C8010E941537809133048983EA821B8200
:101CD0001C821D8281E0D9C081E090E0909338049D
:101CE0008093370482E390E09093CA028093C90204
:101CF0000E94432D9093C8028093C702A2C0EF2890
:101D0000B9F180914303909144039C013695279546
:101D10008170182F12238091C7029091C8020E94EF
:101D2000282D85369105F0F01123E1F00E94432D16
:101D30009093C8028093C7028091C9029091CA0211
:101D400001979093CA028093C902892B89F410925B
:101D500038041092370481E090E09093340480932B
:101D6000330406C082E390E09093CA028093C902D4
:101D7000809133048983809137048A838091C902DA
:101D80008B835FC010923404109233045AC040E237
:101D900050E06FEF70E0C8010E94153752C08B8190
:101DA000833061F0843061F181114BC080E2D80151
:101DB0001D928A95E9F788E08A8343C06C81CE0141
:101DC00081962AE0FC0111922A95E9F7683060F4C7
:101DD000FAE06F9FB0011124695F7D4F4AE050E047
:101DE0000E94743680E001C08FEF89838AE0FE0193
:101DF000B196DE01129601900D928A95E1F721C00D
:101E00006C818AE0FE013596DE01919601900D927B
:101E10008A95E1F7683070F40AE0609FB001112400
:101E2000695F7D4F4AE050E0CE0181960E94C63640
:101E300080E001C08FEF89830E943B3102C08FEFA9
:101E40008983CE0101960E94AF1E0C94470609BDFE
:101E500019BD09B400FEFDCF8091D8008F7D80931D
:101E6000D8008091E00082608093E0008091E000E3
:101E700081FDFCCF0E94A5210C944E0686E290E0E5
:101E80000E9484361B821C821D828E83DACF8E2DA7
:101E900090E08A30910530F080910E018F5F809341
:101EA0000E0195C9FC01EC59FF4F0C94F23680915C
:101EB0001001882309F41EC240E060E080E00E9427
:101EC000D03218C210910E01110F110F110F08E03E
:101ED000010F093208F008E260916C0370916D0304
:101EE00080916E030E949833F62ED72EC82E1017BD
:101EF00008F020C1E12FF0E0DF01A453BE4F8C9128
:101F000090910F01982331F02C2D4F2D6D2DCF0185
:101F10000E94D2321F5FEBCF10910E01110F110FF3
:101F2000110F08E0010F093208F008E2D0906D03AC
:101F3000F0906E03C0906C03B6018F2D0E94983311
:101F4000B62EA72E982E60916F036C0D7D2D8F2DD0
:101F50000E949833F62ED72EC82E101708F0EAC02C
:101F6000E12FF0E0DF01A453BE4F8C9190910F015F
:101F7000982361F080FF04C02C2D4F2D6D2D03C0E0
:101F8000292D4B2D6A2DCF010E94D2321F5FE5CF44
:101F90000F2D10E0F801E453FE4F908180910F0166
:101FA0008923B1F1F801EE0FFF1FE458FE4F408185
:101FB00050E044565109F801EE0FFF1FE05BFE4F61
:101FC00025A530E020523109449FB001459F700D96
:101FD000700D1124229FC001239F900D900D11249C
:101FE000860F971F0E94343390916D0343E0849FC6
:101FF000B0011124759567956C0D792F80916E0352
:102000000E949833462F282F672FC8010E94D23292
:10201000F394CDC810910E01110F110F110F28E08C
:10202000F22EF10E68E26F1510F498E2F92E60912D
:102030006F03669580916703909168030E948E33C9
:10204000B82E1F1578F5C12ED12CF601E453FE4FA2
:10205000908180910F01892319F1F601EE0FFF1F86
:10206000E05BFE4F25A530E020523109F601EE0F6E
:10207000FF1FE458FE4F408150E0445651096091E3
:102080006C0370916D0380916E030B2D0E9465337C
:102090000E949833462F282F672FC6010E94D23204
:1020A0001F5FCFCF81E077E27F1508F089C822C19A
:1020B00010910E01110F110F110F08E0010F0932DD
:1020C00008F008E2D0906D03F0906E03C0906C03AE
:1020D00060916F0366956695669580916703909110
:1020E00068030E948E330E94EF32805887FD8195ED
:1020F000880F682F2CE0629F612D11246C0D7D2DBF
:102100008F2D0E949833F62ED72EC82E101790F4DC
:10211000E12FF0E0DF01A453BE4F8C9190910F01AD
:10212000982331F02C2D4F2D6D2DCF010E94D232EE
:102130001F5FECCF81E0083208F442C8DBC080E1C9
:1021400093E302C084EC91E30E948C1939C800919A
:102150000E01000F000F000F18E0712E700E8CE2C0
:10216000871510F4BCE27B2E80911001882361F06A
:1021700040E060E080E00E94D0328CE2EBE6F2E0EA
:10218000DF011D928A95E9F780910E01811115C03A
:102190008091690290916A020E94282D21E0893184
:1021A000910508F420E020936802499730F00E94DE
:1021B000432D90936A028093690210E0272C312C02
:1021C000EBE06E2EF5E54F2EAAEA5A2E0215130506
:1021D0000CF05EC04801B3E08B2299246801D594CD
:1021E000C794D594C794689CC001699C900D112434
:1021F000FC01E559FD4FEC0DFD1DF080805B9E4F0D
:10220000FC01EC0DFD1D80818F3F59F1A82EB12CF2
:10221000F501E453FE4F908180910F01892309F16C
:102220003F2D242D321B08F430E070916D03252DD5
:102230004F2D240F08F42FEF40916E0352E0259F9D
:10224000200D11242E5F249F212D1124652D631B49
:10225000822F0E949833462F282F672FC5010E9496
:10226000D23280916802882381F02F2D61E0261BF5
:1022700008F420E0689CC001699C900D11248559E8
:102280009D4FFC01EC0DFD1D20830F5F1F4F9ECF66
:1022900081E07BE2771510F00C94E0082BC0F09001
:1022A0000E01FF0CFF0CFF0C68E0D62EDF0C88E25D
:1022B0008D1510F458E2D52EFD14B0F40F2D10E05A
:1022C000F801EE0FFF1FE00FF11FE553FD4F608196
:1022D000718182810E949833462F282F672FC80171
:1022E0000E94D232F394E8CF81E097E29D1510F07E
:1022F0000C94E00880E00C94E0088F929F92AF92DB
:10230000BF92CF92DF92EF92FF920F931F93CF93E2
:10231000DF9300D000D0CDB7DEB7FC018081918182
:1023200023813481232B31F09F3F31F491E08F3FA3
:1023300019F403C091E001C090E090FDF7C66F0171
:1023400061E0CF010E9413298C01F601828188236C
:1023500009F49AC0980122513F452031310508F017
:102360007BC08FEF93E00E94843681117FC03EEEE8
:10237000F32EF00E07E512E0FF2071F00115F4E0F6
:102380001F0709F473C0C8010E948436811101C07F
:10239000FA940F5F1F4FF0CF19821A821B821C82A2
:1023A000AA24AA9478012FEFE21AF20AC8010E9427
:1023B000843689831A82882309F458C0813009F051
:1023C00046C0480182E0880E911CC7010E948436F5
:1023D0008A83882309F44AC09FEF980F933060F4F2
:1023E000780193E0E90EF11CC4010E9484368B83CE
:1023F00081112DC08701D6CF843011F07401FACF3E
:10240000C4010E948436B82E7801E4E0EE0EF11C7F
:10241000C80103960E948436BB2041F1882331F124
:10242000282F30E021503109A29EA001A39E500D1B
:1024300011248B2D90E00197840F951F0197D0F206
:10244000EFE9FFE03197F1F700C00000F7CFCE01D0
:1024500001960E94B828CECF00319FE5190709F0F8
:1024600030C581E00E9496210E9481198091D90394
:10247000877009F45BC6F6018281882309F456C689
:1024800082E00E94092652C60031FFE51F0711F4C1
:1024900081E005C001312FE5120721F482E00E949E
:1024A0008A21E2CF90914B03911105C090914E0388
:1024B000992309F4B7C098013056211590E23907E5
:1024C00020F0305E2115304140F4F6019581907F77
:1024D00009F4A8C07801FF2401C0780197013054A5
:1024E0002115354108F49EC090914E03923021F59C
:1024F000882369F08091DC03982F927219F0689418
:10250000F1F80FC086FF0DC024E1F22A0AC0C7010E
:1025100095558F3F910511F008F0B4C580E00E94F9
:10252000AA2781E080934E03F0924D03E0924C0382
:102530008FEF80930C019ACF882309F4A3C59130C3
:1025400009F05FC080910C019CE2E916F104D9F416
:10255000882329F00E94E02910920C0187CF8091F6
:102560004C0390914D0395558F3F910509F018F458
:102570000E94D62503C08AE20E944F2310924E0388
:102580000E94062A4FC0EAE2EE16F10421F48150BF
:1025900080930C0126C087FD34C081110BC080914F
:1025A0004C0390914D0395558F3F910509F010F420
:1025B0000E94E02980910C018F5F80930C01FDE265
:1025C000EF16F10471F040F484E0E81AF10894E2A7
:1025D000E916F10480F405C0EDE2EE16E2E0FE0635
:1025E00051F4F6018281882309F44CC58091DC0303
:1025F000811114C065C1F6018281882309F442C5A6
:102600000DC09AE2E916F10489F308F080C5F4E000
:10261000EF1AF10824E2E216F10440F30E94062AC0
:1026200010924E030138FFE51F0779F4F60182810D
:102630008823C1F081E080934B030E94CB2D81FD64
:1026400011C089E30E944F230DC002382FE5120705
:1026500008F0BDC40933110509F03AC4F6018281BE
:10266000811139C1F6019281992309F455C1109263
:102670003B040230FCE51F0708F438C106312CE5A5
:10268000120738F098012A5F3C452930310508F0DF
:102690002DC10E9450259093310280933002003169
:1026A0008CE5180709F4C3C008F041C00830ECE518
:1026B0001E0709F49AC0F0F404302CE5120709F45F
:1026C00087C068F402309CE5190709F477C003302D
:1026D0001C4509F0E5C080913002826076C006306A
:1026E000FCE51F0709F46EC008F07BC08091300242
:1026F00088606BC00C308CE5180709F485C068F45D
:102700000A30ECE51E0709F474C008F079C00E9495
:10271000A52180913002806858C00E302CE5120748
:1027200009F476C008F07FC0809130028BC00B3F67
:102730009CE5190709F44FC018F50331FCE51F07A4
:1027400009F47DC078F401318CE5180709F473C0F1
:1027500002311C4509F0A4C00E94A52180913002DD
:102760008F7733C00531ECE51E0709F472C008F419
:1027700086C00A3F1C4509F093C0809131023EC0DB
:102780000F3F8CE5180709F45FC058F40D3FECE5E6
:102790001E0709F444C008F43FC0809131028260F2
:1027A0002DC001302DE5120709F475C008F45DC095
:1027B00002301D4509F074C060E06EC080913002A7
:1027C000816003C08091300280618093300268C0D4
:1027D0008091300211C08091310282608093310279
:1027E0005FC0809130028062F0CF809130028064BF
:1027F000ECCF8091300288608460E7CF8160EECFBB
:10280000809130028E7FE1CF809130028D7FDDCFCD
:1028100080913002877FD9CF8091310218C080919A
:1028200031028D7FDBCF809130028F7ECECF8091C1
:1028300030028F7DCACF809130028F7BC6CF8091CE
:102840003002877F8B7FC1CF809131028D7F8E7F59
:10285000C5CF8091300282FB222720F991E0922798
:1028600090FB82F990FB83F9B0CF80913102982FD1
:10287000909591708E7F892B90FB81F9AFCF0E944C
:10288000A5218091300287FB222720F991E0922731
:1028900090FB87F99ACF61E08EE090E00E94A2362B
:1028A000609130021091310284E090E00E94A236E3
:1028B000612F82E290E00E94A2360E94A521D6CD2F
:1028C0000138FFE51F0709F4B1CE08F080C30933D2
:1028D000110509F0FDC280913A02882319F0109287
:1028E0003A02C0CE81E080933A02BCCE8091DC03F4
:1028F0000631ECE51E0709F58A7A91E009F490E0CB
:1029000090934F03882311F065E301C069E284E8E6
:1029100093E00E94852D0EC006311C4509F08BC046
:1029200080914F03882309F4F0C365E384E893E0C2
:102930000E94782D0E94BE2799CD8272F801E25C38
:10294000FC45EB30F10508F043C0E259FF4F0C9411
:10295000F23680916B0391E0892780936B0310928C
:1029600012019093F20482CD4BEB52E365EC72E3DB
:102970002CC045EC52E36BEB72E327C04EE852E308
:1029800068E972E322C048E952E36EE872E31DC0D1
:1029900044E752E361E872E318C041E852E364E7B8
:1029A00072E313C04AE552E367E672E30EC047E6FE
:1029B00052E36AE572E309C04CEA51E368EB71E364
:1029C00004C048EB51E36CEA71E30E9441324ECD02
:1029D000992389F10A35EDE51E0741F150F40115FF
:1029E0002CE51207A9F00E3D1C4529F50E946C2527
:1029F0003DCD0B359DE51907D9F00C351D45D9F4B2
:102A00008091310282FB882780F991E0892711C0EB
:102A10000E94A521FFEF24E38CE0F150204080408C
:102A2000E1F700C000000E94DE2C20CD81E001C053
:102A300080E00E94E825F601868197810097B9F42D
:102A4000F601828100811181882349F0C8010E942A
:102A5000E31EF82E682FC8010E94572104C0C80148
:102A60000E942721F82EB8018F2D0E941F310E944D
:102A7000C723F82E192FF601E280058102950F7009
:102A80008091D903877099F0EE2089F0892F807F9B
:102A9000803421F080E28F0D883048F082E00E947F
:102AA00009268091D9038770BB24B3948111B12C7E
:102AB000A12EA2948FE0A8228A2D90E08C3091055F
:102AC00008F0DBC1FC01E758FF4F0C94F236812F70
:102AD000807F1F70882311F01295107FEE20B9F0CF
:102AE000112309F4ACC180E28F0D883010F0F11091
:102AF00006C09091DC03192B1093DC0305C0909164
:102B0000DB03192B1093DB030E94BE2798C18F2D86
:102B10000E945C22112309F4B0C180E28F0D88303D
:102B200010F0F11004C0812F0E94E12506C010951D
:102B30009091DB0319231093DB030E94BE279DC1F4
:102B4000812F807F1F70803211F01295107FFF203F
:102B500021F0F1E0FF1691F13BC0EE20D9F0002307
:102B6000A9F0013031F48091DF03812B0E94AA2764
:102B700084C1053059F40E94D6258091D6031813DC
:102B80001093D603812F0E94522277C18091DF03D8
:102B9000812BF9CF002349F0013069F48091DC03E7
:102BA000812309F46AC10E9426260E94D625812F1E
:102BB0000E944B2262C10530C1F75FC1EE2021F0B7
:102BC000063008F05AC1DECF053008F056C1EFCF0D
:102BD000EE2019F00023B1F232C1002341F329E3C2
:102BE000F21208C08FEF97EEE3E081509040E04092
:102BF000E1F73EC1FFE728E381E0F150204080404B
:102C0000E1F736C1812F86958695837019F0813062
:102C100061F033C1EE2021F08F2D912F937002C00F
:102C200080E090E00E94B52D2EC1EE2021F08F2D86
:102C3000912F937002C080E090E00E949F2D23C1ED
:102C4000812F8370A9F5E1101CC14F2D4295469547
:102C50004770440F440F8F2D8F7090E09C01042E1D
:102C600001C0220F0A94EAF7F4FE08C08FE090E05A
:102C700001C0880F4A95EAF7809501C080E016955B
:102C800016951370123069F088F490916B0511302D
:102C900019F0822B892302C0922B892B0E94A1213B
:102CA000F0C0822B90916B058927F8CF822BF6CF4D
:102CB000EE2019F0812F817001C08695882309F4D8
:102CC000E0C04F2D429546954770440F440F8F2D1D
:102CD0008F7090E09C01042E01C0220F0A94EAF745
:102CE000F4FE08C08FE090E001C0880F4A95EAF733
:102CF000809501C080E0169516951370123059F03A
:102D000078F490917103113019F0822B892309C056
:102D1000922B892B06C0822B90917103892701C0C9
:102D2000822B0E948421ADC01F70EE2039F0812FCC
:102D30000E9496218F2D0E945222A3C08F2D0E94A7
:102D40004B22812F0E948A219CC092EFF91659F1E3
:102D50009F1538F0E0EFFE1659F0F1EFFF16E1F0A5
:102D600069C023EFF21631F184EFF81681F162C0E9
:102D7000EE2071F0053008F080C01F7181E090E016
:102D800001C0880F1A95EAF79091710389271CC03A
:102D9000063008F072C0F1CFEE2039F0812F8F712C
:102DA0000E9496216AC0EE20C9F3812F8F710E9484
:102DB0008A2163C0EE2039F01F7181E001C0880FC5
:102DC0001A95EAF701C080E00E94842156C0EE20E7
:102DD000D1F08091D6030E94E1258091D9038770BC
:102DE000843039F40E940226812F8F710E948A213B
:102DF00066C0053008F063C01F71812F0E949621C4
:102E000063E0812F10C09091DC038091D603892B61
:102E10008093DC03053050F00E9402260E94262693
:102E200064E0812F8F710E94FB2749C081E00E94DE
:102E3000092645C0EE2039F0002309F4AFCF8F2DCD
:102E40000E94B3221AC0002309F4AFCF99E3F9120C
:102E500008C0EFEFF7EE23E0E150F0402040E1F74B
:102E600007C08FE798E3E1E081509040E040E1F750
:102E700000C000008F2D0E945C2288EF8A0D8430F4
:102E800010F40E94CB2DBB20A9F08091D90380FDC6
:102E900011C0F60112828595859585950E9496212F
:102EA000C6010E947D118091D903859585958595F0
:102EB0000E948A2160E0C6010E94132937C1B12C0B
:102EC000E0CF0131EFE51E0709F0ECCA82E0CACA83
:102ED00000388FE5180709F086C0F6018281882343
:102EE00009F4C0CB9AEDA92E93E0B92E2AE0922ED8
:102EF000F5018491882309F45AC0813009F04FC04C
:102F00007501FFEFEF1AFF0AF7018491813049F450
:102F10007501F2E0EF0EF11CF70184910E944F233E
:102F200041C0823049F47501F2E0EF0EF11CF70167
:102F300084910E94B32236C0833049F47501F2E0D7
:102F4000EF0EF11CF70184910E945C222BC08430AB
:102F500049F57501F2E0EF0EF11CF701249180E0D4
:102F600090E030E0205331092A30310570F4989E0A
:102F7000A001999E500D1124C901840F951FFFEFE8
:102F8000EF1AFF0AF7012491ECCF009759F0EFE90F
:102F9000FFE03197F1F700C000000197F6CF0E94E3
:102FA000522875015701FFEFAF1ABF0AA1CF8091D8
:102FB000DF0381FD57CB0E94432D9093DE03809366
:102FC000DD038091DF0382608093DF034BCB033806
:102FD0009FE5190709F460C008F46BC00438FFE5E9
:102FE0001F0709F476C0033F2CE51207A1F406E29F
:102FF00021EE40EE63EF7CE50AC0073DFCE51F07CC
:1030000009F030CB06E221EE41EE67ED7CE5C6012A
:103010000E94322F2BCA043F8CE51807A0F4083D0C
:103020009CE5190731F407E225EE45EE68ED7CE5F5
:10303000EECF093DECE51E0701F708E221E045EE81
:1030400069ED7CE5E4CF053F2CE5120731F406E29B
:1030500021EE42EE65EF7CE5DACF053F8CE51807FF
:1030600030F407E225EE44EE64EF7CE5D0CF063F76
:103070009CE5190709F0F6CA07E225EE46EE66EF71
:103080007CE5C5CF01382FE5120709F4CFCA98F1C6
:103090000338EFE51E0749F4F6018281882309F41D
:1030A000E1CA82E080934E033EC00338FFE51F076C
:1030B00058F4F6018281882309F4D4CA81E0809310
:1030C0004E038DE290E00FC004382FE5120709F09F
:1030D0008ACFF6018281882309F4C4CA81E08093F3
:1030E0004E038DE292E090934D0380934C038FEF5B
:1030F00080930C0118C00933110509F4B3CA0038D4
:103100009FE5190709F4E9CE6ECF69E20FCC8DE295
:10311000E816F10409F46ACA9DE2E91692E0F9069C
:1031200009F07CCA63CAF6019281A1CA0F900F9080
:103130000F900F90DF91CF911F910F91FF90EF9023
:10314000DF90CF90BF90AF909F908F900895809127
:103150005E0387FF11C08091E80082FD05C0809169
:1031600066038111F8CF11C08091E8008B770BC006
:1031700080916603882349F08091E80080FFF8CFB2
:103180008091E8008E778093E8000895982F97301B
:1031900068F59093E900981739F07091EC00209150
:1031A000ED005091F00003C0242F762F50E021FD58
:1031B00002C09F5FECCF3091EB003E7F3093EB007D
:1031C0003091ED003D7F3093ED003091EB003160A8
:1031D0003093EB007093EC002093ED005093F000DF
:1031E0002091EE0027FDE5CF80E008958F70809359
:1031F000E90081E00895209164033091650326176A
:10320000370748F06115710539F42091E8002E77F1
:103210002093E80001C0B901FC0120E061157105AF
:1032200079F1809166038823F1F18530F1F1809185
:10323000E80083FD3CC08091E80082FD2EC08091B3
:10324000E80080FFEBCF2091F3008091F20090E046
:10325000922B6115710551F08830910538F4219158
:103260002093F100615071090196F3CF21E0089796
:1032700009F020E08091E8008E778093E800CECFBF
:103280002111CFCF0AC080916603882361F0853079
:1032900061F08091E80083FD0AC08091E80082FF20
:1032A000F2CF80E0089582E0089583E0089581E000
:1032B0000895BC0184E00C94B42CBC0183E00C9410
:1032C000B42C0F931F93CF93DF9300D000D0CDB7D2
:1032D000DEB789836A834B831C8204E610E024E016
:1032E00030E0AE014F5F5F4F60E084E10E94DE3569
:1032F0000F900F900F900F90DF91CF911F910F9132
:10330000089580917103982F9670963011F488601B
:1033100001C0877F0C948421DF92EF92FF920F937C
:103320001F93CF93DF938C01C0910E01CC0FCC0F74
:10333000CC0FD8E0DC0FD93208F0D8E260916F03EF
:103340006695669521E0620F08F46FEF8091670340
:10335000909168030E948E33D82ECD17F0F4EC2E96
:10336000F12CF701E453FE4F908180910F018923E6
:1033700091F060916C0370916D0380916E032D2D1F
:103380004C2FF80109950E949833462F282F672F5C
:10339000C7010E94D232CF5FE0CF81E0D83208F07F
:1033A00080E0DF91CF911F910F91FF90EF90DF9020
:1033B00008951F93CF93DF93CDB7DEB7AA970FB6CB
:1033C000F894DEBF0FBECDBFEEE5F3E08091F100D3
:1033D000819343E0E636F407C9F780915F038330B9
:1033E00009F462C030F4813071F0823009F49CC07D
:1033F000B3C08A3009F488C08B3009F46DC08930BD
:1034000009F0AAC020C080915E03813A09F0A4C0EF
:103410008091E800877F8093E8008091620390911B
:103420006303892B21F468E083E593E003C060E047
:1034300080E090E070E00E94FB188091E8008B77BC
:103440008093E80089C080915E03813209F084C0D6
:103450008091620390916303009719F0029709F03D
:103460007BC08091E800877F8093E8008091E8002E
:1034700082FD05C0809166038111F8CF6DC0209157
:10348000F3008091F20090E0922B029729F4809152
:10349000F1008B7F813021F48091F1008093520301
:1034A0008091E8008B7754C080915E03813A09F0E7
:1034B00053C08091620390916303892B09F04CC043
:1034C0008091E800877F8093E8008091E80080FF8A
:1034D000FCCF80910D0137C080915E038132E1F510
:1034E0008091620390916303892BB1F58091E8008C
:1034F000877F8093E8000E94A718809160038093E3
:103500000D010E94A52128C080915E03813221F522
:103510008091E800877F8093E8000E94A71880913F
:1035200061038093510318C080915E03813AA1F436
:103530008091E800877F8093E8008091E80080FF19
:10354000FCCF809151038093F1008091E8008E7749
:103550008093E8000E94A7188091E80083FFE9C1EA
:1035600080915E0390915F03492F50E04A305105EE
:1035700008F0DFC1FA01EB57FF4F0C94F2368038A8
:1035800021F0823809F0D5C108C080915B03909189
:103590005C03992389F082600FC0809162038F7071
:1035A000873008F0C6C18093E9008091EB0085FB6D
:1035B000882780F91092E9009091E800977F909316
:1035C000E8008093F1001092F1007CC1282F2D7F3C
:1035D00009F0AFC1882319F0823061F0AAC180914F
:1035E0006003813009F0A5C1933009F080E0809339
:1035F0005C032EC08091600381112AC08091620318
:103600008F702FEF280F263008F093C18093E900C8
:103610002091EB0020FF1CC0933021F48091EB003F
:10362000806214C09091EB0090619093EB0021E0D8
:1036300030E0A90102C0440F551F8A95E2F740937C
:10364000EA001092EA008091EB0088608093EB0022
:103650001092E9008091E800877F8093E8000E9443
:10366000A71867C1811165C1109160031F77809110
:10367000E3008078812B8093E3008091E800877FCE
:103680008093E8000E94A7188091E80080FFFCCF9B
:103690008091E30080688093E300111102C082E012
:1036A00001C083E08093660344C18058823008F0F3
:1036B00040C120916003309161032C3D53E03507F8
:1036C00079F583E08A838AE289834FB7F894DE0133
:1036D000139620E03EE051E2E32FF0E050935700D4
:1036E000E49120FF03C0E295EF703F5FEF708E2FF3
:1036F00090E0EA3010F0C79601C0C0968D939D937C
:103700002F5F243149F74FBF8091E800877F809376
:10371000E8006AE270E0CE0101960E94FB18C0C08A
:103720008091620390916303432F552743305105E5
:10373000B1F068F44130510509F40AC14230510535
:1037400009F0F7C08BE590E0E0ECF4E057C04132BF
:10375000510589F14232510509F43CC0EAC0C90162
:10376000992781309105B9F070F082309105D9F038
:10377000039709F0DEC0EDE2F5E0E4918E2F90E0D2
:10378000EDE2F5E038C0E5E9F5E0E4918E2F90E058
:10379000E5E9F5E030C0E9E7F5E0E4918E2F90E04F
:1037A000E9E7F5E028C0EBE4F5E0E4918E2F90E046
:1037B000EBE4F5E020C08330910508F0BAC0880F33
:1037C000991FFC01E65BFE4F0190F081E02D89E03E
:1037D00090E014C08330910508F0ABC0FC01EE0FFF
:1037E000FF1FEC5BFE4F0190F081E02DDC01AF5B31
:1037F000BE4F8C9190E0009709F49BC02091E800A7
:10380000277F2093E80020916403309165032817F7
:10381000390708F4C90140E0009789F12091660357
:10382000222309F43DC02530D9F12091E80023FD81
:1038300037C02091E80022FD2FC02091E80020FF32
:10384000EBCF4091F3002091F20030E0342B009751
:1038500059F02830310540F444914093F1003196FD
:1038600001972F5F3F4FF3CF41E02830310509F03A
:1038700040E02091E8002E772093E800CDCF411161
:10388000CDCF0AC080916603882351F0853041F086
:103890008091E80083FD04C08091E80082FFF2CFB0
:1038A0008091E8008B778093E80043C0803809F06E
:1038B00040C08091E800877F8093E80080915D039D
:1038C0008093F1008091E8008E77C7CE811131C0DE
:1038D00080916003909161039927029754F580913C
:1038E000E800877F8093E8001091600310935D03E8
:1038F0000E94A718111106C08091E30087FD02C045
:1039000081E001C084E08093660342E061EC81E0E5
:103910000E94C61842E261EC84E00E94C61842E2AE
:1039200061EC82E00E94C61842E260EC83E00E94F3
:10393000C6188091E80083FF10C08091E800877F5F
:103940008093E8008091EB0080628093EB0005C0DB
:1039500082E190E0EBE1F5E051CFAA960FB6F89442
:10396000DEBF0FBECDBFDF91CF911F9108951F9293
:103970000F920FB60F9211242F933F934F935F93A3
:103980006F937F938F939F93AF93BF93CF93DF9367
:10399000EF93FF93C091E900CF708091EC00D82F96
:1039A000D17080FDD0E81092E9008091F000877F0F
:1039B0008093F00078940E94D9191092E9008091C8
:1039C000F00088608093F000CD2BCF70C093E900A9
:1039D000FF91EF91DF91CF91BF91AF919F918F9127
:1039E0007F916F915F914F913F912F910F900FBEFB
:1039F0000F901F901895E8EDF0E080818E7F808316
:103A00001092E2001092DA001092E100A0EEB0E015
:103A10008C9181608C9380818F77808319BCA7ED16
:103A2000B0E08C918E7F8C9380818F7E808310920A
:103A300050030895CF92DF92EF92FF920F931F935E
:103A4000CF93DF93C8EDD0E088818F7E8883E7ED48
:103A5000F0E080818160808384E082BF81E0809398
:103A6000500388818E7F888302EE10E0F801108277
:103A70001092DA0081EEC82ED12CF60110828881D6
:103A80008F77888388818068888388818F7D888309
:103A900019BC1092660310925D0310925C031092A1
:103AA0005B0390EEE92EF12CF70180818B7F808300
:103AB00088818160888342E060E080E00E94C618CF
:103AC000F60180818E7F8083F80180818160808310
:103AD000808188608083F70180818E7F80838881E8
:103AE00080618883DF91CF911F910F91FF90EF90BC
:103AF000DF90CF9008951F920F920FB60F9211246E
:103B00002F933F934F935F936F937F938F939F93E5
:103B1000AF93BF93EF93FF938091E10082FF09C0C1
:103B20008091E20082FF05C08091E1008B7F80934D
:103B3000E1008091DA0080FF2AC08091D80080FFE8
:103B400026C08091DA008E7F8093DA008091D900C0
:103B500080FF18C080E189BD82E189BD09B400FE03
:103B6000FDCF81E0809366038091500381110FC0E7
:103B70000E94FB1C0E941A1D8091E20084608093C9
:103B8000E20005C019BC10926603109250038091A8
:103B9000E10080FF17C08091E20080FF13C0809198
:103BA000E2008E7F8093E2008091E200806180934A
:103BB000E2008091D80080628093D80019BC85E033
:103BC000809366038091E10084FF2EC08091E20023
:103BD00084FF2AC080E189BD82E189BD09B400FE6D
:103BE000FDCF8091D8008F7D8093D8008091E10037
:103BF0008F7E8093E1008091E2008F7E8093E200CF
:103C00008091E20081608093E20080915D038823CF
:103C100011F084E007C08091E30087FD02C081E0DD
:103C200001C083E0809366038091E10083FF27C099
:103C30008091E20083FF23C08091E100877F809321
:103C4000E10082E08093660310925D038091E100C1
:103C50008E7F8093E1008091E2008E7F8093E2006E
:103C60008091E20080618093E20042E060E080E0C9
:103C70000E94C6188091F00088608093F000FF9148
:103C8000EF91BF91AF919F918F917F916F915F91D4
:103C90004F913F912F910F900FBE0F901F9018954D
:103CA0002091E4003091E50095E64091EC00842FEE
:103CB000817040FF23C08091E80080FD1DC080918D
:103CC0006603882399F0853099F08091EB0085FD9B
:103CD00011C04091E4005091E5002417350729F305
:103CE000915011F09A01E1CF84E0089582E00895A7
:103CF00083E0089581E0089580E008954091E80010
:103D000042FFDDCF0895EF92FF920F931F93CF9361
:103D1000DF937C018B010E94501E811119C0E701C5
:103D200001151105A1F08091E80085FD0AC0809180
:103D3000E8008E778093E8000E94501E882381F36C
:103D400007C089918093F10001501109E9CF80E00B
:103D5000DF91CF911F910F91FF90EF900895CF9336
:103D6000209166032430F9F4C091E900CF703091BE
:103D7000EC00232F217030FD20E8C22B22E020939D
:103D8000E9002091E80020FF0BC040E050E060E235
:103D900070E00E94831E8091E8008E778093E80097
:103DA000CF70C093E900CF91089580E090E00E9429
:103DB000B52D80E090E00E949F2D1092DB031092C1
:103DC000DA030C94BE27CF92DF92FF920F931F93DA
:103DD000CF93DF936C010091710380916B05082BE9
:103DE000C7E0D0E010E0C8010C2E02C09595879581
:103DF0000A94E2F780FD04C02197A8F7F12C09C0CE
:103E0000FC2EB6018C2F0E941F310E94C723019700
:103E100099F38F2DDF91CF911F910F91FF90DF903C
:103E2000CF900895CF93DF93EC010E94E31EBE0173
:103E30000E941F310E94C723DF91CF910895FC019A
:103E400086819781009719F00E94C72304C0808162
:103E500091810E94121F292F2F70E92FE295EF7098
:103E60004E2F50E0FA013297EE30F105B8F4E157E9
:103E7000FF4F0C94F236803F99F018F4883E70F4AE
:103E80000FC0843F59F40CC0883E50F0813F31F49C
:103E900007C0822F869586958695089580E00895BF
:103EA00081E008959F92AF92BF92CF92DF92EF92FE
:103EB000FF920F931F93CF93DF93CDB7DEB7659734
:103EC0000FB6F894DEBF0FBECDBF8C0185E0F801C0
:103ED000DE01519601900D928A95E1F7F801E2809A
:103EE00090918C0360918D0340918F0350919003CA
:103EF0004115510531F06F3F31F481E09F3F19F4D6
:103F000003C081E001C080E0F82FF1709F2E80FD9A
:103F10004EC1F80130812181C380D4807CE8A72E76
:103F200073E0B72EF0908E03F601E41BF50BFF2033
:103F300009F4EFC080919103E83CF10508F0AAC0B4
:103F4000482F407F09F05AC062131BC0931319C059
:103F50006091920370919303F80146815781641731
:103F6000750779F4FE2CE1100CC08F70806180938E
:103F70009103C5010E947D1180919103F801858311
:103F800053C1CD2831F02F3F31F481E03F3F19F488
:103F900003C081E001C080E080FD03C081E08E2588
:103FA00002C080E090E0F82FF170FF2E80FF1CC06F
:103FB0008091D50340919403841709F413C190E0D4
:103FC000FC0153E0EE0FFF1F5A95E1F7EB56FC4F53
:103FD0005181251306C05081531303C05281E5124D
:103FE00003C001968770E8CFFE2CEE2009F41CC1B7
:103FF0008091910381608093910358C062130FC038
:1040000093130DC04091920350919303F8012681C0
:1040100037814217530719F4EE2009F4A7C0C801ED
:104020000E941F1F882381F1EE2071F120919103DE
:10403000822F82958F7090E00297A4F080918C037C
:1040400090918D039A8789871B86DD86CC862E8783
:104050008091920390919303988B8F87CE0109965C
:104060000E947D1188E0F801ACE8B3E001900D9268
:104070008A95E1F70E9436260AC06217C9F0C80186
:104080000E941F1F811127C0C8010E947D11FF24BB
:10409000F394CAC0482F407F81F78CE893E00E94D8
:1040A0007D1188E0F50111928A95E9F7F12CBCC0E9
:1040B0009313E5CF4091920350919303F801268129
:1040C000378142175307D9F6E110D9CF8583C8014C
:1040D0000E947D1166C0EE20B9F220919103822FDB
:1040E00082958F7090E002970CF4BCCF80918C0386
:1040F00090918D039A8389831B82DD82CC822E83EB
:10410000809192039091930398878F83CE010196BB
:10411000A7CFE83CF10508F044C0FE2CEE2009F4DE
:10412000B3CF621330C093132EC02091920330910D
:104130009303F801868197812817390721F590911B
:10414000910390FD17C0892F82958F70282F30E042
:104150002115310579F095832F30310541F08F5FBE
:10416000982F9295907F85818F70892B8583C801C8
:104170000E947D1188E0F801ACE8B3E001900D9257
:104180008A95E1F751C0C8010E941F1F81116ACFB3
:1041900080919103816080939103C8010E947D11F9
:1041A00043C088E0F50111928A95E9F73DC0EE2001
:1041B00009F46ACFC8010E941F1FF82E882309F452
:1041C00063CF88E0F801ACE8B3E001900D928A95E6
:1041D000E1F780918C0390918D030E94121F0E9441
:1041E000362622C0398B2A8B89899A890E94121F10
:1041F000292F22952F70223028F49F7039F08111D9
:1042000005C00BC0243028F49F7049F4805E8830CC
:1042100020F0C8010E947D119F2CF92C05C0F801E7
:104220009581907F99F7F9CF8F2D65960FB6F89409
:10423000DEBF0FBECDBFDF91CF911F910F91FF90D9
:10424000EF90DF90CF90BF90AF909F9008959E3FEA
:1042500061F12BE0929F800D1124682F6695669581
:104260006695982F977083E0689FB001112440E015
:1042700050E080E0FB01E40FF51FEE58FC4F208179
:1042800030E0092E02C0369527950A94E2F7217096
:104290003327042E01C0220F0A94EAF7822B4F5FC6
:1042A0005F4F4330510531F7089580E008959E3FF8
:1042B00051F12BE0929F800D1124E82FE695E695B1
:1042C000E695877051E001C0550F8A95EAF783E0C3
:1042D000E89FF0011124EE58FC4F20E030E070E040
:1042E0004081CB01022E02C0969587950A94E2F791
:1042F0008170819584278523842781932F5F3F4F89
:104300002330310569F708950E947D298093710358
:104310000C94D51E21E030E001C0220F8A95EAF707
:1043200020958091710382230C94842121E030E058
:1043300001C0220F8A95EAF780917103822B0C94B9
:10434000842180936B050C94D51E1092DC0386E0CB
:10435000E6E8F3E0DF011D928A95E9F70C94D51E9B
:10436000CF93DF93CDB7DEB760970FB6F894DEBF7B
:104370000FBECDBF29873A874B875C876D877E87C5
:104380008F87988BCE0109960E94521F811151C0D0
:1043900088E0FE013996DE01119601900D928A9512
:1043A000E1F779856A854C855D854115510531F0C8
:1043B0006F3F31F481E07F3F19F403C081E001C019
:1043C00080E080FD36C0A0919403B0E0CD0101965D
:1043D000877099272091D50330E08217930781F1E8
:1043E00079836A835D834C8393E0AA0FBB1F9A9500
:1043F000E1F7AB56BC4F98E0FE01319601900D926B
:104400009A95E1F7809394030E942C2612C028E02D
:10441000829FC00111248B569C4F0E94521F8823FB
:10442000E1F08091D50390E0019687709927809301
:10443000D5038091D503909194038913E8CF0DC0E3
:104440000E94A521109294031092D503ECE8F3E0AA
:1044500088E0DF011D928A95E9F760960FB6F8941F
:10446000DEBF0FBECDBFDF91CF910895882341F00D
:1044700080959091DB0389238093DB030C94BE2706
:104480000895882339F09091DB03892B8093DB0317
:104490000C94BE270895882321F00E94E1250C94F6
:1044A000BE270895882339F09091DC03892B8093EF
:1044B000DC030C94BE270895882309F453C0682FA9
:1044C000823869F40E94CB2D81FF4CC069E384E8F7
:1044D00093E00E94852D0E94BE2769E30EC08338B9
:1044E00091F40E94CB2D80FF3DC063E584E893E00A
:1044F0000E94852D0E94BE2763E584E893E00E9418
:10450000782D0C94BE27843869F40E94CB2D82FF4D
:1045100029C067E484E893E00E94852D0E94BE27AD
:1045200067E4EBCF8CEF860F813A38F380E2860F99
:10453000883048F4677081E001C0880F6A95EAF717
:104540000E94E125DECF8BE5860F833020F480E0EA
:1045500090E00C94B52D685A673120F480E090E02B
:104560000C949F2D0895CF93882309F496C0C82FEB
:104570008238B1F40E94CB2D81FD8FC069E384E8BD
:1045800093E00E94852D0E94BE272FEF81EE94E0DC
:10459000215080409040E1F700C0000069E317C05F
:1045A0008338E1F40E94CB2D80FD77C063E584E879
:1045B00093E00E94852D0E94BE272FEF81EE94E0AC
:1045C000215080409040E1F700C0000063E584E89E
:1045D00093E00E94782DCF910C94BE278438B1F4DB
:1045E0000E94CB2D82FD59C067E484E893E00E94CD
:1045F000852D0E94BE272FEF81EE94E02150804050
:104600009040E1F700C0000067E4E1CF8CEF8C0F31
:10461000813A80F4E6E8F3E08CE893E02191C21758
:10462000A1F18E179F07D1F76C2F84E893E00E94C9
:10463000852DD1CF80E28C0F883068F4C77081E07F
:1046400090E001C0880FCA95EAF79091DC03892BAE
:104650008093DC03C0CFEBE5EC0FE33040F4F0E0F7
:10466000EC50FE4F808190E0CF910C94B52DC85A4C
:10467000C73198F4EC2FF0E0EE0FFF1FE950FE4F2A
:1046800080819181CF910C949F2D6C2F84E893E0D1
:104690000E94782D0E94BE27C7CFCF9108951F9307
:1046A000CF93DF93182F893319F0C9E1D0E002C00E
:1046B000C0E5D0E0812F0E94B3228FE99FE00197EF
:1046C000F1F700C000002197C1F7812FDF91CF9152
:1046D0001F910C945C2280E008959091300292FF2B
:1046E0000DC0282F2871283019F4877F846006C0F8
:1046F000282F2471243011F48B7F886093FF0DC024
:10470000282F2871283119F4877E846106C0282F4C
:104710002471243111F48B7E88612091310220FFB5
:104720000DC0382F3871383019F4877F816006C08A
:10473000382F3171313011F48E7F886021FF0DC028
:10474000282F2871283119F4877E816106C0282F0F
:104750002171213111F48E7E886194FD877E089548
:10476000F894E82FE295EF70F0E031A1282F2F7038
:1047700081E090E001C0880F2A95EAF7982F909584
:10478000932391A392A1892B82A378940895CF9328
:10479000DF938238910569F1B0F48133910509F412
:1047A0006FC048F48932910509F465C08A329105D9
:1047B00009F46BC08AC08533910509F457C0893369
:1047C0009105B9F082C0833E910571F138F4803EC5
:1047D0009105B1F0823E910511F177C0863E9105B9
:1047E000B9F1873E9105C9F1843E910509F06DC08C
:1047F00024C02091300220FD53C021FD51C065C06E
:104800008091300280FD46C08091310280FF48C017
:104810008091300284FD3FC183EE90E03EC18091E3
:10482000300282FF3AC0F4CF8091300282FD35C061
:104830008091310280FD34C0EBCF8091310281FF45
:1048400035C08091300284FD26C187EE90E025C1FD
:104850008091300283FF27C0F4CF8091300283FD26
:1048600022C08091310281FD21C0EBCF80913002C6
:1048700085FD1FC021C08091300285FD1DC019C07B
:104880008091300286FD1BC01DC08091300286FDE4
:1048900019C015C089E390E000C182EE90E0FDC030
:1048A00080EE90E0FAC086EE90E0F7C084EE90E0F3
:1048B000F4C089E290E0F1C085E390E0EEC08AE2C6
:1048C00090E0EBC081E390E0E8C0811532E593070A
:1048D00008F069C0811541E5940728F0982F8827D2
:1048E000816F906ADAC0883E910568F5803E910537
:1048F00008F0D3C0883A9105B8F4853A910548F09C
:10490000855AE82FF0E0EC50FE4F808190E09064F3
:10491000C4C08130910509F4BBC008F4BCC0843028
:10492000910508F4B8C0B9C08F3B910508F0B3C039
:10493000885AE82FF0E0EE0FFF1FE950FE4F80810C
:1049400091819464AAC0811520E59207F0F09C0142
:1049500074E0369527957A95E1F7922F9370482F5A
:10496000437021E030E002C0220F331F4A95E2F786
:104970003C68392B8F70982F9695969540E2949FBE
:10498000C0011124822B932B88C0811530E493073A
:1049900018F09F70906A81C09C013A9521153F41A3
:1049A00008F47BC078C0EC01C11586E5D807E8F5AE
:1049B000C11525E5D20748F08C2F0E946D238F7119
:1049C00090E0982F8827906268C0C11534E5D3071E
:1049D00028F09C2F8827846F906A5FC0AE014370D7
:1049E00055272C2F26952695C115D34578F481E0BF
:1049F00090E002C0880F991F4A95E2F740E2249F99
:104A000090011124822B932B9C6847C081E090E099
:104A100002C0880F991F4A95E2F740E2249F900157
:104A20001124822B932B9A6838C0C1152AE5D2072E
:104A3000F8F4C11539E5D30790F08C2F8F700E94E0
:104A40006D2394E0D695C7959A95E1F7CF70D0E0A5
:104A5000DC2FCC27D0699E01282BC9011EC0C115AF
:104A600048E5D407C0F09C2F8827806F906A15C056
:104A7000CE0190568115904270F48D2F8F710E9457
:104A80006D23282F2F71CE0199279062922B05C09C
:104A900081E090E002C080E090E0DF91CF91089546
:104AA000CF9384E090E00E948436C82F82E290E0A9
:104AB0000E9484362C2F30E0A901582BCA01CF91D7
:104AC000089580E090E00E948C368A3E9E4F11F45B
:104AD0000C94283280E008956AEE7EEF80E090E04A
:104AE0000E94C03660E082E090E00E94A23660E062
:104AF00083E090E00E94A23610926B0560E084E0B3
:104B000090E00E94A23660E082E290E00E94A2362D
:104B100060E085E090E00E94A23660E086E090E0F0
:104B20000E94A2366FEF87E090E00E94A23640E03C
:104B300050E0BA0188E090E00E94B43660E08DE079
:104B400090E00E94A23640E050E0BA0188E190E097
:104B50000E94B43660E087E190E00E94A23640E017
:104B600050E0BA018CE190E00E94B43660E070E061
:104B700080E290E00E94C03640E050E0BA0188E157
:104B800090E00E94B43680E00E94FB310E9419320E
:104B900040E050E0BA018FE090E00E94B43640E07F
:104BA00050E0BA0183E190E00C94B4368091DF03C9
:104BB000882331F01092DF031092DE031092DD03A0
:104BC000089580959091DC0389238093DC030895F8
:104BD000CF93C0913102C2FB992790F9981781F0C9
:104BE00080FBC2F9C09331026091300284E090E012
:104BF0000E94A2366C2F82E290E0CF910C94A236F4
:104C0000CF9108951092D9031092D8031092D70330
:104C100008952091D903809582238093D903982FFA
:104C2000977041F430E0482F082E000C550B2417E4
:104C3000350721F49091310292FF07C08595859543
:104C400085950E948A210C94022608958091D603AE
:104C500081111092D60308958091D5039091940309
:104C6000891719F08F5F8770FBCF08951F93CF933B
:104C7000DF938091910382958F7009F05CC08091E1
:104C80008E03882309F457C08091D50310919403B3
:104C900060918C0370918D03C0918F03D09190032C
:104CA00091E06F3F09F090E0292F811709F443C08C
:104CB000209721F07F3F21F030E003C031E001C0B8
:104CC000322F90E030FD34C0FC0133E0EE0FFF1FC7
:104CD0003A95E1F7DF01AB56BC4F11963C91119725
:104CE000371326C03C91361323C012963C9112977D
:104CF00031111EC013964D915C9114974C1B5D0BA6
:104D0000483C5105A8F4809191038F708061809395
:104D10009103E656FC4F80818F70806180838CE820
:104D200093E00E947D11DF91CF911F910C942C266E
:104D300001968770BACFDF91CF911F9108958F921E
:104D40009F92AF92BF92CF92DF92EF92FF920F931A
:104D50001F93CF93DF93CDB7DEB728970FB6F894A4
:104D6000DEBF0FBECDBFAE014F5F5F4F7A0188E05F
:104D7000DA011D928A95E9F70EE111E06A01AA2491
:104D8000A394B12CF80180818F3F09F44DC0F894B1
:104D9000E82FE295EF70F0E021A18F70A50102C02D
:104DA000440F551F8A95E2F7CA01922F982B91A3C1
:104DB00092A18095892382A3789400C0E2E2F1E079
:104DC00020E030E0812C912C81918F3FC1F0A82F01
:104DD000A295AF70B0E090964C9150E08F70DA01E0
:104DE00002C0B595A7958A95E2F7A0FD08C0C50158
:104DF000022E02C0880F991F0A94E2F702C080E0D9
:104E000090E0882A992A2F5F3F4F2B303105E1F639
:104E1000F80180818F3F11F00E94B023F0EAFA95EB
:104E2000F1F7D6018D929C920F5F1F4FB2E0CB0E2F
:104E3000D11CE1E002321E0709F0A4CF48E050E0A7
:104E4000B70182E392E00E94FF3611E0009709F477
:104E500010E0892B89F088E0F701A2E3B2E001902D
:104E60000D928A95E1F781E08093E2030E94432D41
:104E70009093E1038093E0038091E203882351F152
:104E80008091E0039091E1030E94282D059710F195
:104E900080913202909133029093440380934303B4
:104EA000809134029091350290934603809345039C
:104EB0008091360290913702909348038093470384
:104EC000809138029091390290934A03809349036C
:104ED0001092E20380911101882341F18091E20454
:104EE0009091E304009711F10E94282D20913C0439
:104EF00030913D0428173907C8F49091E00480915F
:104F0000E104981759F00E94832E10923D041092EC
:104F10003C041092E3041092E20408C00E94052EA3
:104F20001092E3041092E2040E94642E812F2896CE
:104F30000FB6F894DEBF0FBECDBFDF91CF911F91AA
:104F40000F91FF90EF90DF90CF90BF90AF909F9028
:104F50008F900895CF939091310292FD0DC0909162
:104F6000DF03981749F0C82F0E94432D9093DE036A
:104F70008093DD03C093DF03CF9108959091DC030C
:104F80008091DB03892B9091DA03892B8093840332
:104F90008091DF03882311F10E94432D2091DD03CE
:104FA0003091DE03821B930B8838934110F00E94EE
:104FB000D625909184038091DF03892B809384030D
:104FC000E6E8F3E097E080E0915029F02191222378
:104FD000D9F38F5FF9CF81110E94D625E091E604C5
:104FE000F091E704309731F00280F381E02D84E8FE
:104FF00093E0099408959091310292FD10C098E0D9
:10500000899F90011124262B2093D9030E94962179
:105010000E94432D9093D8038093D70308950C9456
:105020009621982F92959F7019F0892F24E001C046
:1050300020E0982F9695969511F02E5F892F982F46
:10504000969509F02F5F822F08959C013A952115BE
:105050003F4130F5BC0166277270AC0144275470A3
:105060009C012227387094FF0FC090FF02C080E19E
:1050700001C080E0672B09F08062452B09F0806455
:10508000232B79F080680895892F8170672B09F0B0
:105090008260452B09F08460232B19F08860089505
:1050A00080E00895DF92EF92FF920F931F93CF93CA
:1050B000DF93E82FF0E0E753FA4FD490282F26959E
:1050C0002695269530E0F901E754FA4F0491877050
:1050D00010E0082E02C0159507950A94E2F70170BA
:1050E0001127F901E755FA4FE490F12C082E02C080
:1050F000F594E7940A94E2F791E0E922FF24F9019C
:10510000E756FA4FC491D0E002C0D595C7958A956D
:10511000E2F7C170DD270115110519F081EE0E943B
:10512000B322E114F10419F086EE0E94B3228D2D12
:105130000E944F23EF2819F086EE0E945C22012B7B
:1051400019F081EE0E945C22CD2B51F08CE2DF91B0
:10515000CF911F910F91FF90EF90DF900C944F2310
:10516000DF91CF911F910F91FF90EF90DF90089505
:10517000EF92FF921F93CF93DF93EC011AE08881A7
:10518000882309F44AC0813009F043C08981813005
:1051900041F47E0182E0E80EF11C8A810E944F23D7
:1051A00009C0823049F47E01E2E0EE0EF11C8A81F2
:1051B0000E94B322E7012FC0833041F47E01F2E068
:1051C000EF0EF11C8A810E945C22F4CF843011F032
:1051D000219621C02A81229680E090E030E0205381
:1051E00031092A30310558F4189FA001199F500D3C
:1051F0001124C901840F951F21962881EFCF0097B4
:1052000051F0EFE9FFE03197F1F700C0000001979E
:10521000F6CF0E9452282196B2CFDF91CF911F91F5
:10522000FF90EF9008951F93CF93DF9300D000D0AD
:105230001F92CDB7DEB7FC0186819781009709F5F3
:10524000CF0125E0DE01119601900D922A95E1F73C
:10525000FC01228189819A81222359F0662349F039
:105260000E94E31E182F682F89819A810E9457217E
:1052700003C00E942721182F69817A81812F0E9403
:105280001F310F900F900F900F900F90DF91CF91E3
:105290001F910895CF93DF93EC010E945C22CE0111
:1052A000805E9109089710F0209739F4CE010E9492
:1052B0002528DF91CF910C944B22CE010E94252806
:1052C000DF91CF910C943622CF93DF93EC01805E77
:1052D0009109089710F0209731F4CE010E942528FB
:1052E0000E94522205C0CE010E9425280E94412220
:1052F0008C2FDF91CF910C94B322CF93C82F0E94B3
:1053000011288230C1F028F4882339F0813079F0F7
:1053100004C0833099F08430A9F080913A02882348
:1053200019F040E060E00CC04FEF60E00DC04FEFBF
:1053300060E08AE70AC040E06FEF02C040E060E84A
:105340008FEF03C04FEF6FEF80E00E9461198C2F49
:10535000CF910895DC01FB01808191818038910516
:105360003CF08FE78C93808191818F5791090AC01F
:1053700081382FEF92074CF481E88C9380819181E2
:1053800081589F4F9183808308958C93118210825E
:105390000895681720F4861B682F21E002C0681B5F
:1053A00020E0469FA0011124649FC001659F900DDD
:1053B00011249170222319F09195819591090895F6
:1053C000CF93DF93C0914C03D0914D03CE019555FF
:1053D0008F3F910509F048F48C2FC4FF02C08295DD
:1053E000807FDF91CF910C94AA27CE010E9464297F
:1053F0008FE798E321E0815090402040E1F700C022
:105400000000CE01DF91CF910C944A2910924B03FA
:105410000E94CB2D81FF03C089E30C944F23089594
:105420002F923F924F925F926F927F928F929F92B4
:10543000AF92BF92CF92DF92EF92FF920F931F93A2
:10544000CF93DF93CDB7DEB76A970FB6F894DEBF80
:105450000FBECDBF498B5A8B6B8B7C8B8D8B6111B3
:105460001092DB038E01075F1F4F88E0F801119255
:105470008A95E9F785E0FE017196D80101900D92B9
:105480008A95E1F70E94432D2091D7033091D803EC
:10549000821B930B8838934140F08091D90382FBA3
:1054A000992790F981E0892701C080E080FF03C03F
:1054B00082E00E9409260E94432D2091DD03309155
:1054C000DE03821B930B8838934110F00E94D6258F
:1054D00099858A852C853D85232B31F08F3F31F4CA
:1054E00081E09F3F19F403C081E001C080E080FDAE
:1054F000CAC161E0C8010E9413296C0187EFC81678
:105500008CE5D80639F48B858823B9F081E0809347
:105510001101B9C198EFC9169CE5D90631F48B8504
:10552000882359F00E94752EAEC1E9EFCE16ECE546
:10553000DE0619F48B85811111C000EA14E0712C8C
:10554000A12CB12C88248394912C55245394CE0102
:1055500001969F8B8E8BF7E04F2E49C080911101F1
:105560008823A1F2DFCFC616D70609F097019F5F07
:105570007901292F30E0F901EE0FFF1FE40FF51F2D
:10558000608171816115710571F7FFEFEF16FF06FC
:1055900009F42DC1F8016481611131C0209111011C
:1055A000822F81706B84F80135812681662009F491
:1055B000C6C0882309F4C3C0332321F1940102C07B
:1055C000220F331F9A95E2F721503109F8018681A5
:1055D00090E02817390759F17628FFEFAF1ABF0A74
:1055E000095F1F4F28E0A216B10409F402C1F801B7
:1055F00040815181EE24EA94FE2C90E0BACF20E065
:1056000030E0CECFA40101C0440FEA94EAF7242B86
:10561000268320913C0430913D042233310570F6FD
:1056200022E330E030933D0420933C04C7CF8091C7
:10563000E2049091E304009729F00E94282DC3977B
:1056400008F01EC18091E004F091E104F88FE0E0E1
:10565000F0E0288D821709F460C0282F30E0F901AE
:10566000EE0FFF1FE852FB4F20803180429CF0017B
:10567000439CF00D1124E056FB4FF080E18050E098
:1056800090E040E0EF2DFE2DE40FF11DE40FF11D41
:10569000A081B1811097D1F0F801F081F98FF80164
:1056A000F181FA8F90E0E98DFA8DE90FF11DE90F94
:1056B000F11D608171816115710531F0A617B70781
:1056C00009F451E09F5FEFCF4F5FDCCF5523F9F036
:1056D0009417C8F0429CF001439CF00D1124E05651
:1056E000FB4F3097B1F054820E171F0709F474CFA7
:1056F0009091E00489130DC0C90101968370992728
:105700008093E00406C00115110509F0B9C0E0E07E
:10571000F0E0C901019683709CCF0E171F0709F4B2
:105720005BCF90E0FC01EE0FFF1FE852FB4FB18210
:10573000A0820196837099278093E1044DCF3111A7
:1057400012C0A40102C0440F551F9A95E2F74150C0
:10575000510930E042175307E9F56623E1F1C5012D
:105760000E94D72D37C0822F90E09C012150310933
:10577000282339230E2C02C0959587950A94E2F7C9
:10578000232B31F580FF24C0F80182819381892B7E
:10579000D9F088E0EE89FF8911928A95E9F78EEFBA
:1057A00089838A830E94432D8160582F9D838C8337
:1057B000F801828193818F83988729813A814B8177
:1057C0006D817E810E94B021F801158281E003C0C5
:1057D000817001C080E0940101C0220FEA94EAF7D1
:1057E0002095F801968129232683682EF5CE612C19
:1057F000F3CE8B85882381F1772071F10E94432DB0
:105800009093E3048093E20480913F04883008F091
:1058100044C091E0980F90933F0498E0FE013996C0
:10582000DE01119601900D929A95E1F7ECE08E9FC2
:10583000C0011124805C9B4F28E0FE013196DC0101
:1058400001900D922A95E1F72FEF3FEFFC01318790
:105850002087D386C28621C09091E0048091E10424
:10586000981719F00E94832E08C00E94052E1092EE
:10587000E3041092E2040E94642E772021F00DC010
:10588000F8015482A9CE29853A854B855C856D85C2
:105890007E858F8598890E94B0216A960FB6F8940C
:1058A000DEBF0FBECDBFDF91CF911F910F91FF9053
:1058B000EF90DF90CF90BF90AF909F908F907F90B0
:1058C0006F905F904F903F902F900895809152037A
:1058D000089524E02093E9002FEF3091E800215053
:1058E00035FD06C035ED3A95F1F700002111F5CFF1
:1058F0002091E80025FF0BC040E050E066E070E03A
:105900000E94831E8091E8008E778093E8000895BE
:10591000CF93DF9321E02093E9002FEF3091E8004F
:10592000215035FD06C035ED3A95F1F70000211103
:10593000F5CF2091E80025FF14C0EC0140E050E0D5
:1059400068E070E00E94831E8091E8008E7780936B
:10595000E80088E0FE01A3E5B3E001900D928A958E
:10596000E1F7DF91CF91089590916603943029F586
:105970008093EF047093F1046093F0049093E90036
:105980008FEF9091E800815095FD06C095ED9A95B6
:10599000F1F700008111F5CF8091E80085FF0DC07F
:1059A00040E050E063E070E08FEE94E00E94831EE0
:1059B0008091E8008E778093E800089581E08093DD
:1059C000E00080E28093D8001092C9008FE19EE44D
:1059D0000197F1F700C0000087E090EBDC018093B5
:1059E0006C0590936D05A0936E05B0936F059CE0D8
:1059F00088E10FB6F894A895809360000FBE90934D
:105A00006000FFCF78941F920F920FB60F9211246F
:105A10008F939F93AF93BF938091EB049091EC048D
:105A2000A091ED04B091EE040196A11DB11D8093EB
:105A3000EB049093EC04A093ED04B093EE04BF91BB
:105A4000AF919F918F910F900FBE0F901F9018955F
:105A50009C014FB7F8948091EB049091EC04A091D5
:105A6000ED04B091EE044FBF821B930B08952FB746
:105A7000F8946091EB047091EC048091ED049091A6
:105A8000EE042FBF08952FB7F8948091EB04909106
:105A9000EC04A091ED04B091EE042FBF08951F9285
:105AA0000F920FB60F9211248F939F93AF93BF93D2
:105AB0008091EA04811113C08091EB049091EC0471
:105AC000A091ED04B091EE044196A11DB11D80930B
:105AD000EB049093EC04A093ED04B093EE04BF911B
