:100000000C9465040C94AC040C94AC040C94AC04F7
:100010000C94AC040C94AC040C94AC040C94AC04A0
:100020000C94AC040C94AC040C948E230C94CA2253
:100030000C9470190C94AC040C94AC040C94AC04A7
:100040000C94AC040C94AC040C94AC040C94AC0470
:100050000C94AC040C9423190C94AC040C94AC04D4
:100060000C94AC040C94AC040C94AC040C94AC0450
:100070000C94AC040C94AC040C94AC040C94AC0440
:100080000C94AC040C94AC040C94AC040C94AC0430
:100090000C94AC040C94AC040C94AC040C94AC0420
:1000A0000C94AC040C94AC040C94AC04910BAD0B0C
:1000B000B40BEC0BFD0B080C180C2B0C6E0C730C1A
:1000C000CD0CCD0CCD0C7B0C0B0D160D400D7C0D0D
:1000D000C10D0A0E6C0EBA0E010F040F090FBC0FF2
:1000E0005410BC101C1427142C14311436143B1457
:1000F000401445144A144F145414DA14DA14131526
:1001000013157515B016B016B016931507161816F8
:100110001816D220F920AC22F920AC224521682102
:10012000AC22692279224E254E256125612557256D
:100130006125612561254E254E255C2561256125BA
:100140005C25FD377A585A000004E6D6B446020012
:10015000210116000000742FE5A3E008BA02385D03
:10016000003D8889C65436C3174FE4EF0A3F668DB9
:10017000D105C145CE66B4E8DF851F2CF59EBB4195
:10018000D912F17F204F73672F9AC243D74C5B651A
:10019000441319B1B3BC75E34629A966D74C1C5E5C
:1001A000426C60D242D95195BCFAC18D306CE69E4A
:1001B000B06A07247A2A185A1E9B96F1D7C773FB98
:1001C00008189FE9E151A0F5BBC6642ADE77E386F3
:1001D0002382C220049FD4A629BD9E7F2A24653C89
:1001E000396A42E0B4E0B2F0E3A53B49E7214AD5E1
:1001F0008BC2A4926DE8E977E9287FBBF9591258C0
:10020000A5D7DA898EB25E865164DFF07CDF9AFE74
:100210003A6FAB0686ABB537157AD471F220C3A31B
:10022000E22C35551E4F75FF6930DF598A10F4995D
:100230001195BA89E5CE8D1D9CA14BFCC7CC2A87B0
:100240007A0C49CAA2FE744A34F9E6110848C0FC87
:1002500049AA1F1C760E2CF67806B533C6DB3C097E
:10026000F74E6055D9C3AB5E505EBE825594872D64
:1002700041987240AA937EBD325B7FF063EE6103CA
:100280001939C5B8659BE404D372C17114A1762CE9
:10029000E14E80B545BB1BD8902CDE0A998E73FCCD
:1002A0006A2426F8F5281B86C40C8926B0EE7E51F8
:1002B000191FB3707D56BD46F6D5B5754B46EC0596
:1002C0001DFC5882A9510BCF8E62BD47D8A29B78E6
:1002D000CE6FAF61A4874EFEB6C955F1992D5EB7BA
:1002E0004774905DE2F3A887DEA97EA9756BB2E042
:1002F0004F3FA86C2BF2185C84AE393011BC88B427
:100300001E6CF1CC664F0A1BFAA75CB59205D0991A
:1003100053A3E27333E397211A3701F0EBB8D4BC4F
:1003200071C43737F8A7CE1B13949E23C25F7D4359
:1003300092E0E7FF3283CBEFB74EB455BEA4B4F3DF
:10034000838FE16777DD8B4B26DAA5DF8D39535339
:1003500092C9A38DC15CF9E5EEC6D302A272C6694B
:1003600009EEB6E80EE4F12C09013DE24E6F178963
:1003700011C4D70ED7BD570B73AB7FFC76D1D59F79
:1003800002F83AF5C936B0FD658C11FB9AF7755D38
:10039000C7217C7FFE7B59550600AEF9057FEBF542
:1003A0002ACB0001D404BB110000F82CED68B1C4C5
:1003B00067FB020000000004595A00000000010021
:1003C0000D0002000100030002000400030005000C
:1003D000040011000500120006001A0007001B00AF
:1003E00008001C0009001D000A001E000B00200070
:1003F0000C002E200014001A000800150017001C25
:100400000018000C001200130000000461166807B9
:100410006409620A000B000D720E740F78337100CC
:10042000001D001B00060019000500110010003619
:100430000037003800A8000153025301512800344E
:10044000002A002C000251035304532A011E021FEC
:100450000220022102220223022402250226022770
:100460000200002900010001000100010001002D2F
:10047000022E022F02300200003900350201000175
:1004800000010001000100010031023402010001FD
:100490000001000100010001004C000100035101B6
:1004A00000010001001E001F002000210022002387
:1004B00000240025002600270000005000510052B3
:1004C000004F002B0001002D002E002F00300000F7
:1004D00000E0003500E300E200815F845F825F831B
:1004E0005F310034000100010001000351010001EF
:1004F00000010001000100010001000100C25CC414
:100500005CC35C010010503A003B003C003D003EE3
:10051000000000CB5CC55CC75CC95C01003F0040CB
:10052000004100420043000000CC5CC65CC85CCACD
:100530005C01004400450001000100005C01000175
:1005400000010001000100010001000100010001A3
:100550000001000100010001000100010001000193
:100560000001000100010001000000010001000184
:100570000001000100010001000100010001000074
:100580000001000100010001000100010001000163
:100590000001000100010001000100010001000153
:1005A0000001000100010001000100010005010936
:1005B00080A101850319012AB700150126B700950E
:1005C0000175108100C0050C0901A1018504190104
:1005D0002AA002150126A002950175108100C0060F
:1005E00060FF0961A1010962150026FF00952075D1
:1005F0000881020963150026FF0095207508910205
:10060000C005010906A101050719E029E715002524
:100610000195087501810295017508810105071989
:100620000029FF150026FF009506750881000508C2
:10063000190129059505750191029501750391012F
:10064000C009025B00030100A0FA090400000103D5
:100650000101000921110100012240000705810369
:1006600008000A0904010002030000000921110129
:100670000001222200070582032000010705030371
:1006800020000109040200010300000009211101FA
:1006900000012232000705840320000A1201000233
:1006A00000000008FEFE50580100010203011C0377
:1006B0007600690061006C003A0066003600340084
:1006C0006300320062003300630000002C037300FB
:1006D0006100640065006B006200610072006F00E1
:1006E00075006400690020006200610072006F0004
:1006F00062006F007200640000001A037300610062
:10070000640065006B006200610072006F0075009C
:1007100064006900000004030904000000000000F8
:1007200000000000000000000000000000000000C9
:1007300000000000000000000000000000007E0F2C
:1007400000D4FFFFFFC70000007800000000000099
:1007500000002A2B2800000000000000000000001C
:10076000000000000029000000002C1E342021227F
:1007700024342627252E362D3738271E1F202122E8
:10078000232425263333362E37381F040506070861
:10079000090A0B0C0D0E0F10111213141516171851
:1007A000191A1B1C1D2F3130232D3504050607088F
:1007B000090A0B0C0D0E0F10111213141516171831
:1007C000191A1B1C1D2F3130354C0001010101018C
:1007D00001010101020202020202020202030303FA
:1007E00003030303030404040404040405050505CA
:1007F000050606060606070707070708080808098A
:100800000909090A0A0A0B0B0B0C0C0C0D0D0D0E35
:100810000E0E0F0F0F1010111111121213131414CA
:10082000151516161717181819191A1A1B1B1C1D3F
:100830001D1E1E1F20202122222324242526262798
:100840002829292A2B2C2D2D2E2F303132323334CA
:1008500035363738393A3B3C3D3E3F4041424344D0
:1008600045464748494A4C4D4E4F505153545556B2
:1008700058595A5B5D5E5F616264656668696B6C5E
:100880006D6F7072737577787A7B7D7E80828385D9
:1008900087888A8C8E8F91939596989A9C9EA0A219
:1008A000A3A5A7A9ABADAFB1B3B5B7BABCBEC0C223
:1008B000C4C6C9CBCDCFD1D4D6D8DBDDDFE2E4E7E7
:1008C000E9EBEEF0F3F5F8FAFDFF11241FBECFEFD0
:1008D000DAE0DEBFCDBF04B603FE27C080915E051F
:1008E00090915F05A0916005B09161058730904BB4
:1008F000A740B04BD1F410925E0510925F051092A4
:1009000060051092610514BE84B7877F84BF0FB65F
:10091000F894A8958091600088618093600010929F
:1009200060000FBEE0E0F8E3099512E0A0E0B1E05E
:10093000EAEAF8E602C005900D92AE31B107D9F7A8
:1009400025E0AEE1B2E001C01D92AE35B207E1F79D
:100950000E94AE040C9453340C940000CF93DF93A8
:10096000CDB7DEB7E6970FB6F894DEBF0FBECDBFAA
:1009700084B7877F84BF0FB6F894A89580916000F4
:10098000886180936000109260000FBE90E080E864
:100990000FB6F89480936100909361000FBE85B705
:1009A000806885BF85B7806885BF8CE799E29093A2
:1009B0001F0280931E020E944C1D0E940E230E9463
:1009C0002D238091E20084608093E20078948091EE
:1009D000E0048823A1F01091E9001F709091EC00D1
:1009E000892F817090FD80E8182B1092E90080918A
:1009F000E80083FD0E94EC1F1F701093E90082E065
:100A000084BD93E095BD9AEF97BD80936E000E94E0
:100A1000D21D811102C00E94C31D02E211E056E204
:100A2000E52E51E0F52ED8018D918D018F3F11F00B
:100A30000E94C129E016F106B1F706E211E041E398
:100A4000E42E41E0F42EF80181918F018F3F11F0E7
:100A50000E94C129E016F106B1F71092230210920C
:100A6000220210923803109237031092250210923E
:100A7000240210923A031092390310922702109226
:100A8000260210923C0310923B031092290210920E
:100A9000280210923E0310923D030E947D2C81118A
:100AA00002C00E94882C82E090E00E94583380931C
:100AB000B2020E946C2C90932102809320020E942B
:100AC000D8298FE39CE90197F1F700C000000E944C
:100AD000D8298091370380FF08C06FEF7FEF80E057
:100AE00090E00E9494330E94FF1883E090E00E94FF
:100AF00058330E94B22710928802E1EAF2E081EBBB
:100B000092E02FEF3FEF219331938E179F07D9F794
:100B100010922B02E4E4F2E084E592E02FEF3FEF45
:100B2000219331938E179F07D9F70E947D2C811155
:100B300004C00E94882C0E94981E46E050E06CE1A0
:100B400070E085EE94E00E9448338091E5048C7F4C
:100B500011F40E94981E10922A0284E091E0909372
:100B6000BF048093BE048091E004853009F048C042
:100B700030E4F32E00E112E18091E004853009F0C9
:100B80003BC08091E004843019F11092C204A8E1C6
:100B9000B0E00FB6F894A895A09360000FBEF09255
:100BA000600083B7817F846083BF83B7816083BF28
:100BB0007894889583B78E7F83BF0FB6F894A895F5
:100BC00080916000886180936000109260000FBE89
:100BD0008091D604882309F4CFCF0E94D829E7E377
:100BE000F3E081919191892B09F0DCC62FE333E08A
:100BF0002E173F07B1F7C0CF0E94B6270E94EC190D
:100C00000E94D82981110E945819E7E3F3E0A3EB71
:100C1000B2E0C12CD12C0C2DA190B1908D919D9161
:100C20008A259B25009709F451C110E0EE24E39436
:100C3000F12C9C012E213F21232B09F441C11BA73C
:100C40000CA7AE20BF2081E0A114B10409F480E01C
:100C50008DA70E9464198160782F9FA78EA74BA54E
:100C60005CA56DA58FA50E94472FF601EE0FFF1F13
:100C7000ED54FD4F80819181E826F926F182E082D2
:100C8000AB2849F0AE014F5F5F4F612F802F0E946C
:100C90007E1E982E01C0912CE92CF12C80912B0204
:100CA000B701680F711D693071056CF188E090E043
:100CB0005C01AE18BF08B701645D7D4FA5018CE2F1
:100CC00092E00E944334B7016C5C7D4FA50184E340
:100CD00092E00E944334A501440F551FB701660FEF
:100CE000771F6C5B7D4F84E492E00E944334B70130
:100CF000645C7D4FA5018CE392E00E94433488E060
:100D0000891980932B02F0902B02CE0101965C0191
:100D100060E0862F8F0D961649F190E0D5017D9108
:100D20005D01272F30E0DC01A55DBD4FA901440F17
:100D3000551F44595E4FFA01408111964C9311970B
:100D4000220F331F205C3E4FF90125A519962C93E5
:100D5000199751967C93880F991FDC01A55DBD4FB3
:100D60005A961C921E9259976F5FD3CF80932B0295
:100D70008091E5048C7F883209F0C0C0AFEFA00FEE
:100D8000FF24F394F00E3FEF310F21E0210F3117D4
:100D900080F48BE08C9DF0018D9DF00D1124E45AC0
:100DA000FD4FE30FF11D408150E1450F08F44FEF77
:100DB0004083412F50E07BE07C9DC0017D9D900DE4
:100DC0001124845A9D4FFC01E40FF51F7081B0E29D
:100DD0006B2F760F08F47FEF70832B3051F0FC01FE
:100DE000E20FF11D708180E1682F760F08F47FEF2C
:100DF000708374E0F71609F431C0EF2CF12C311731
:100E000088F48BE08E9DF0018F9DF00D1124E45A43
:100E1000FD4FE30FF11D80819DE0BC01670F08F4D9
:100E20006FEF6083EBE0EE9DC001EF9D900D11240C
:100E3000845A9D4FFC01E40FF51F608170E1670F3C
:100E400008F46FEF60832B3049F0FC01E20FF11DD5
:100E500060817DE0670F08F46FEF6083A01708F0F2
:100E60004DC0B0E0311780F48BE08A9FF0018B9F7A
:100E7000F00D1124E45AFD4FE30FF11D30816DE0B8
:100E8000360F08F43FEF30838BE08A9FF0018B9F91
:100E9000F00D1124E45AFD4FDF01A40FB51F3C9162
:100EA00040E1340F08F43FEF3C932B3039F1E20F6F
:100EB000F11D20813DE0230F08F42FEF20831EC099
:100EC0001F5FEE0CFF1C1B3009F0B3CE8FEFC81A6A
:100ED000D80A94E0C916D10409F09DCE8FEF88ABF3
:100EE00089AB1AAA0E9464198160782F9CAB8BABE6
:100EF00048A959A96AA98CA90E94472F8091540238
:100F000090915502A0915602B09157022FB7F894D4
:100F1000C090C304D090C404E090C504F090C6040F
:100F20002FBFC81AD90AEA0AFB0A0E94581960930F
:100F30005402709355028093560290935702A091E9
:100F40002B02EBE2F2E02A2F30E088248A94982CDE
:100F5000A12CB12C8C189D08AE08BF08A31799F0DE
:100F6000418D528D2A01612C712C84149504A604A4
:100F7000B70410F4215004C04C0D5D1D528F418FF9
:100F80003F5F3296EBCF20932B023091E504232F65
:100F9000237021F0B32EB694B69401C0B12C2091E9
:100FA00011012130E1F030F02230E9F1233009F471
:100FB00046C069C0109214016093E1047093E2048A
:100FC0008093E3049093E40489E2EBE2F2E0A8E882
:100FD000B2E001900D928A95E1F781E02DC09091E9
:100FE0000F01B9120DC0832F837090E040910E0164
:100FF00050E021E08417950709F420E0822F01C01A
:1010000081E08170809316018091EA04909115012E
:10101000981709F4E6C48093150140E060E080E091
:101020000E947A1EDEC4B0920F01832F83708093DA
:101030000E010E948B1883E08093110124C08091DF
:10104000440381110E94901E109244034091E104D8
:101050005091E2046091E3047091E4042FB7F89496
:101060008091C3049091C404A091C504B091C604BA
:101070002FBF841B950BA60BB70B4097A105B1059D
:1010800010F0109211010E94EC199091B102891791
:1010900021F00E94EC198093B1028091E004843029
:1010A00009F061CD83E08093E9008091E80082FF40
:1010B0005ACD8091E80085FF23C00E9463248111EE
:1010C0001DC000E2E02EF12C8E010F5F1F4F09C002
:1010D0008091F100F80181938F01F1E0EF1AF1089E
:1010E00069F08091E80085FDF3CF8091E8008B776F
:1010F0008093E8000E946324882399F391E001C063
:1011000090E08091E8008B778093E800992309F4C0
:101110002ACDE0900F04F09010048981E114F104CD
:1011200059F08E3F09F039C49A819330A8F1955057
:10113000933008F032C430C08B3009F4CFC248F588
:10114000853009F485C0B8F4823009F442C030F427
:10115000813009F020C41A8289E0BEC3833009F4CB
:1011600068C0843009F017C44C816B818A810E9469
:101170000B1D9D8334C4873009F478C008F473C014
:10118000883009F4EAC0893009F005C40E94901E35
:1011900004C4803109F4E4C18E010F5F1F4F813117
:1011A00060F48D3009F47EC108F47AC18E3009F400
:1011B0007DC18F3009F4A5C1EEC3823109F4D5C1D8
:1011C00008F4D1C1833109F4FAC18E3F09F49DC2FC
:1011D000E2C38A81823009F4FBC3833051F081304D
:1011E00009F0D9C30E9458199B838C837D836E8339
:1011F000D4C380910D0490910E04892B09F4CDC3C2
:1012000080913703909138039B838C8380913903BD
:1012100090913A039D838E8380913B0390913C0390
:101220009F83888780913D0390913E0399878A87A9
:10123000B4C38A81823009F0AEC36B817C818D8119
:101240009E810E942F3486E290E00E947633A5C3EF
:101250002D813E813227232732274C816B818A8161
:101260000E943E1C9AC30E94741C97C38A818134D9
:1012700021F0823409F43BC090C34B815C818091A2
:10128000E504982F93704115510539F4911110928E
:1012900011018C7F8093E5041FC0911102C0109250
:1012A00011018C7F81608093E5042AEB33E062EFCB
:1012B00073E0F901329685919491F901A591B49169
:1012C0004A175B0731F02C5F3F4F6217730789F7AE
:1012D00080E060E00E944C1E8D818093E9048E8145
:1012E00020E048856F8190E00E94F11D56C34B813C
:1012F0005C818D8163E0869F900111242E31310540
:101300000CF04BC3DE011196FA01EE0FFF1FE40F44
:10131000F51FE154FD4F20E030E090E02817390739
:1013200008F03BC31396BA01620F731F6832710550
:1013300008F033C312966C911297608313966C91E8
:101340001397618314966C9114976D3308F06CE3D6
:1013500062832F5F3F4F3396E1CF8A81823409F455
:1013600042C028F4803451F0813471F016C38334C4
:1013700009F459C0843409F459C00FC381E08B8348
:101380001C828CE38D8309C38091E504982F9370B0
:10139000B1F08695869590E02AEB33E062EF73E03A
:1013A000F9013296A591B491F901459154918A17AA
:1013B0009B0741F02C5F3F4F6217730789F790E05E
:1013C00080E002C0942F852F9B838C838091E90459
:1013D0008D838091E6048E838091E7048F838091D2
:1013E000E8048887DAC20B811C814EE150E06FEF80
:1013F00070E0CE0103960E944C348AEB93E0DE014C
:1014000013962EE1FC01459154910417150728F419
:10141000223018F04D935D932250049673E0823F82
:10142000970781F7BAC288E28B839CC18B8190E0D9
:10143000883291050CF0B1C2FC01EE0FFF1FE45998
:10144000FE4F20812B83FC01EE0FFF1FE05CFE4F5F
:1014500025A52C83FC01E454FE4F20812D832FEF22
:101460002F832E8360E471E040E050E020E030E024
:10147000FB01E20FF31FE081F0E08E179F0719F4E4
:101480004E832F838AC22F5F3F4F2B30310581F768
:101490004F5F5F4F655F7F4F4430510539F77DC225
:1014A00080E136C281E08A8389EA16C2EA80FB8045
:1014B000FE24EF24FE24AC80B12C8DE1A816B104EB
:1014C00008F06BC26801C701895A9D4F9601201B25
:1014D000310B2A153B0508F060C2A9EAEA16A1E023
:1014E000FA0628F40E945833F601848303C0D6011B
:1014F00014961C92BFEFEB1AFB0AEFEFCE1ADE0A2E
:10150000E2CF80910D0490910E04892B09F445C21D
:10151000EA80FB80FE24EF24FE24CC80D12CFDE168
:10152000CF16D10408F039C25801C701895A9D4F1E
:101530009501201B310B2C153D0508F02EC229EA20
:10154000E21621E0F20628F4D50114966C910E946F
:101550007633BFEFEB1AFB0AEFEFAE1ABE0AE5CF08
:101560000E94C61B1AC285E0D3C1EA80FB80FE241C
:10157000EF24FE24AC80B12CFDE1AF16B10408F0DD
:101580000CC26801C70187969601201B310B2A15F2
:101590003B0508F002C228EBE21621E0F20630F427
:1015A0000E945833D60114968C9302C0F60114821F
:1015B000FFEFEF1AFF0A2FEFC21AD20AE3CFEA8039
:1015C000FB80FE24EF24FE24AC80B12C3DE1A31669
:1015D000B10408F0E2C148EBE41641E0F40608F07B
:1015E000DCC188EB91E08E199F098A159B0508F4F0
:1015F000D4C1370167E2660E711C80910D04909191
:101600000E04892B11F0680160C0E0FE0FC0C70115
:1016100086960E94583390E0982F88272D81822B40
:1016200081159C4531F48FEF8D8303C0C12CD12CE3
:1016300003C0CC24C394D12CC5018E0D9F1D450140
:1016400080FF1BC081E0881A910855E0452E512C7F
:101650004C0E5D1E480C591CC3018A0D9B1D0E9437
:101660005833D2012C9130E0322F2227282B21151C
:101670003C4519F48FEFF2018083F801EC0DFD1D5C
:101680002FEFCF01801B910B8815990508F0BBCF78
:10169000848190E0982F88273581832B81159C4584
:1016A00011F4248325833296ECCF48EBE41641E015
:1016B000F40628F4D60114966C910E947633BFEF9D
:1016C000EB1AFB0AEFEFCE1ADE0AC70187969601E6
:1016D000201B310B2A153B0540F35FC180910D049F
:1016E00090910E04892B09F458C1CE0101960E94F5
:1016F000C224FFEF21EE34E0F15020403040E1F70A
:1017000000C000000E94FF1848C1EA818E2F90E0BF
:101710008E30910508F041C1FC01EA5AFF4F0C944C
:10172000293488E0E7E1F1E0DE01919601900D9225
:101730008A95E1F780E2D8011D928A95E9F784E065
:10174000898388E0FE01B196DE01159601900D9225
:101750008A95E1F781E08D8720C188E7898382E05F
:101760008A831B821C8219C18C8190E0982F882764
:101770002B81820F911D092E000CAA0BBB0B35E0AB
:10178000880F991FAA1FBB1F3A95D1F7AC01BD0165
:10179000405E5F4F6F4F7F4F481759076A077B07BF
:1017A00008F4FBC08837E2E09E07A105B10508F008
:1017B000F4C04937F2E05F076105710520F048E7A2
:1017C00052E060E070E0481B590BBC016E5B7E4F3D
:1017D000C8010E943F33E1C01B810C8140E0602FB3
:1017E000812F0E940E1C99838A8341E0602F812FF4
:1017F0000E940E1C9B838C83D0C02E813F81322798
:10180000232732274D816C818B810E94D61BC5C056
:1018100040E250E06FEF70E0C8010E944C348091CC
:101820000D048983EA821B821C821D8281E0D7C05D
:1018300081E090E09093100480930F0482E390E0A5
:101840009093BE028093BD020E9464199093BC02E3
:101850008093BB02A2C0EF28B9F180913703909129
:1018600038039C01369527958170182F122380919B
:10187000BB029091BC020E94491985369105F0F097
:101880001123E1F00E9464199093BC028093BB0283
:101890008091BD029091BE0201979093BE02809309
:1018A000BD02892B89F41092100410920F0481E07C
:1018B00090E090930E0480930D0406C082E390E0C4
:1018C0009093BE028093BD0280910D048983809124
:1018D0000F048A838091BD028B835FC010920E0437
:1018E00010920D045AC040E250E06FEF70E0C80162
:1018F0000E944C3452C08B81833061F0843061F19E
:1019000081114BC080E2D8011D928A95E9F788E0E9
:101910008A8343C06C81CE0181962AE0FC0111923A
:101920002A95E9F7683060F4FAE06F9FB00111245E
:10193000695F7D4F4AE050E00E94483380E001C07B
:101940008FEF89838AE0FE01B196DE011296019045
:101950000D928A95E1F721C06C818AE0FE013596EF
:10196000DE01919601900D928A95E1F7683070F44E
:101970002AE0629FB0011124695F7D4F4AE050E088
:10198000CE0181960E949A3380E001C08FEF898357
:101990000E944C1D02C08FEF8983CE0101960E94E8
:1019A000C224E1C809BD19BD09B400FEFDCF809174
:1019B000D8008F7D8093D8008091E0008260809372
:1019C000E0008091E00081FDFCCF0E94B627D4C8E2
:1019D00086E290E00E9458331B821C821D828E8317
:1019E000DCCF8B2D90E08E30910580F0809114013A
:1019F0008F5F8093140182E0809311018091160122
:101A0000811141CBBB2009F416CB3DCBFC01EC5935
:101A1000FF4F0C94293480911601882309F4D5C313
:101A200040E060E080E00E947A1ECFC31091140174
:101A3000110F110F110F08E0010F093208F008E231
:101A40006091E6047091E7048091E8040E945332AB
:101A5000F62EE72ED82E101708F0CEC1E12FF0E0B9
:101A6000DF01A454BE4F8C9190911501982331F061
:101A70002D2D4F2D6E2DCF010E947C1E1F5FEBCFB1
:101A800010911401110F110F110F08E0010F09320D
:101A900008F008E2E090E704F090E804D090E60453
:101AA0006D2D7E2D8F2D0E945332C62EA72E982E7F
:101AB0006091E9046D0D7E2D8F2D0E945332F62E1C
:101AC000E72ED82E101708F097C1812F90E0FC0167
:101AD000E454FE4F308120911501232359F030FF4B
:101AE00004C02D2D4F2D6E2D03C0292D4C2D6A2D98
:101AF0000E947C1E1F5FE6CFF0901401FF0CFF0CCC
:101B0000FF0CF8E0EF2EEF0CA8E2AE1510F4E8E2BF
:101B1000EE2EC090E704A090E8042091E90470E460
:101B2000D72E3D2D329F312D1124D32EFE1418F5C2
:101B30000F2D10E0F801E454FE4F908180911501C3
:101B40008923B9F0F801EE0FFF1FE05CFE4F85A579
:101B500082958F706091E6048D9D600D11247C2D1F
:101B60008A2D0E945332462F282F672FC8010E94CA
:101B70007C1EF394DBCF81E047E24E1508F026C3CC
:101B800024C3F0901401FF0CFF0CFF0C58E0E52E6D
:101B9000EF0C68E26E1510F448E2E42EC090E70402
:101BA000A090E8042091E90430E4D32E7D2D729FAB
:101BB000712D1124D72EFE1438F50F2D10E0F801E9
:101BC000E454FE4F9081809115018923D9F0F801EA
:101BD000EE0FFF1FE459FE4F6081D69EB001112425
:101BE00095E0759567959A95E1F78091E604680F01
:101BF0007C2D8A2D0E945332462F282F672FC80133
:101C00000E947C1EF394D7CF81E097E29E1508F0E6
:101C1000DDC2DBC2F0901401FF0CFF0CFF0C08E0EA
:101C2000E02EEF0CA8E2AE1510F418E2E12E609160
:101C3000E90466958091E1049091E2040E944932A2
:101C4000D82EFE1408F042C00F2D10E0F801E45425
:101C5000FE4F9081809115018923B1F1F801EE0FBB
:101C6000FF1FE459FE4F408150E044565109F801EE
:101C7000EE0FFF1FE05CFE4F25A530E0205231093A
:101C8000449FB001459F700D700D1124229FC0012B
:101C9000239F900D900D1124860F971F0E941832DC
:101CA0009091E704B3E08B9FB0011124759567957F
:101CB0006D0D792F8091E8040E945332462F282F12
:101CC000672FC8010E947C1EF394BBCF81E0E7E23E
:101CD000EE1508F07BC279C210911401110F110F9B
:101CE000110F68E0D62ED10EF8E2FD1510F458E27F
:101CF000D52E6091E90466958091E1049091E2040B
:101D00000E944932C82E1D1578F5E12EF12CF701FD
:101D1000E454FE4F908180911501892319F1F70158
:101D2000EE0FFF1FE05CFE4F25A530E02052310989
:101D3000F701EE0FFF1FE459FE4F408150E044567B
:101D400051096091E6047091E7048091E8040C2D3C
:101D50000E94B11E0E945332462F282F672FC701C1
:101D60000E947C1E1F5FCFCF81E027E22D1508F077
:101D70002DC22BC210911401110F110F110F08E089
:101D8000010F093208F008E2E090E704F090E8045F
:101D9000D090E6046091E904669566956695809119
:101DA000E1049091E2040E9449320E94F731805888
:101DB00087FD8195880F682F2CE0629F612D11248B
:101DC0006D0D7E2D8F2D0E945332F62EE72ED82ECC
:101DD000101790F4E12FF0E0DF01A454BE4F8C9176
:101DE00090911501982331F02D2D4F2D6E2DCF019F
:101DF0000E947C1E1F5FECCF81E0083208F4E6C130
:101E0000E4C181EB98E102C08EE498E10E949F1F3B
:101E1000DDC100911401000F000F000F38E0300FFA
:101E20003DAB3D3210F04CE24DAB80911601882362
:101E300061F040E060E080E00E947A1E8CE2ECE518
:101E4000F2E0DF011D928A95E9F78091140181117A
:101E500015C08091590290915A020E94491921E0BF
:101E60008931910508F420E020935802499730F019
:101E70000E94641990935A028093590210E0BDA900
:101E80008B2E912CBBE0AB2EFE0131963F018AEAEE
:101E9000C82E081519050CF069C02801F3E04F227F
:101EA000552418013594279435942794A49CF00167
:101EB000A59CF00D1124E45AFD4FE20DF31DD080D6
:101EC000A301622D842D0E947E1E8EAB73018E2D88
:101ED0008619EEA98E1708F032C0D701EC91F0E018
:101EE000E454FE4F908180911501892321F13D2D0D
:101EF00025E5321B08F430E07091E7042C2D4D2DC0
:101F0000240F08F42FEF4091E80462E0269F200D93
:101F100011242E5F249F212D11246C2D631B822FF1
:101F20000E945332462FD7019C91282F672F892F6B
:101F300090E00E947C1EBFEFEB1AFB0AC8CF809195
:101F40005802882381F02D2D31E0231B08F420E076
:101F5000A49CC001A59C900D1124845A9D4FFC01A6
:101F6000E20DF31D20830F5F1F4F93CF81E04DA93A
:101F70004C3208F42BC129C180911601882371F0DD
:101F800040E060E080E00E947A1E8CE2ECE5F2E046
:101F9000DF011D928A95E9F710925B027CE5E72E3E
:101FA00072E0F72E912C88248A94E0EC7E2EFFE2DA
:101FB000CF2ED12C8701A12CA1100CC080915B02E7
:101FC000811108C00E942F33853595401CF4F7011C
:101FD000808206C0D8018C9181508E3F08F48C938A
:101FE000AE014F5F5F4F692D8A2D0E947E1E8823B0
:101FF00011F1F80140813981413D70F050E0405DC0
:102000005109749EC001759E900D1124B6010E9465
:102010001534262F4FEF0BC0FFEF4F9FC001112447
:1020200060ED70E00E941534462F20E060E0832FC1
:1020300090E00E947C1EA394055F1F4F24E0A21233
:10204000BBCF93943FEFE31AF30A4BE09412B2CF65
:1020500080915B028F5F8D3118F480935B02B5C075
:1020600010925B0222E732E083E04EEFACE5B2E093
:10207000F9019BE0833041F491965C9191975F3F29
:1020800019F491964C93919750815F3F11F44083DE
:1020900053879150319611969111ECCF81502B506E
:1020A00031098111E3CF91C0D0901401DD0CDD0C1A
:1020B000DD0C68E0C62ECD0C68E26C1510F458E219
:1020C000C52E2091E90431E0230F08F42FEF30E012
:1020D00040E050E06FEF7FEF80E090E00E94B2338D
:1020E0008901AA24A394DC1408F041C0ED2CF12C42
:1020F000F701E454FE4F9081809115018923A9F1E5
:1021000090918802915097FD15C0292F092E000C3F
:10211000330BF901E857FD4F8189D812F3CF220F15
:10212000331FF901E857FD4F218D328D20173107FC
:1021300048F701C098016091E9047A2D670F08F40F
:102140006FEFC9010E944932AC016091E6047091C1
:10215000E7048091E8040E94AB1E0E945332462F90
:10216000282F672FC7010E947C1ED394BCCF81E02B
:1021700097E29C1558F529C0F0901401FF0CFF0C54
:10218000FF0C28E0E22EEF0CA8E2AE1510F498E266
:10219000E92EFE14B0F40F2D10E0F801EE0FFF1F32
:1021A000E00FF11FE154FD4F6081718182810E9437
:1021B0005332462F282F672FC8010E947C1EF394AC
:1021C000E8CF81E0B7E2BE1508F480E090911401F9
:1021D0009F5F90931401882309F40DCC0C9443085D
:1021E0008F929F92AF92BF92CF92DF92EF92FF9227
:1021F0000F931F93CF93DF9300D000D0CDB7DEB7FE
:10220000FC018081918123813481232B31F09F3F18
:1022100031F491E08F3F19F403C091E001C090E0E8
:1022200090FDF7C66F0161E0CF010E94102F8C0175
:10223000F6018281882309F49AC0980122513F4512
:102240002031310508F07BC08FEF93E00E945833B6
:1022500081117FC03EEEF32EF00E07E512E0FF2065
:1022600071F00115F4E01F0709F473C0C8010E9462
:102270005833811101C0FA940F5F1F4FF0CF1982BC
:102280001A821B821C82AA24AA9478012FEFE21AD8
:10229000F20AC8010E94583389831A82882309F4FC
:1022A00058C0813009F046C0480182E0880E911C78
:1022B000C7010E9458338A83882309F44AC09FEFDC
:1022C000980F933060F4780193E0E90EF11CC4019B
:1022D0000E9458338B8381112DC08701D6CF843063
:1022E00011F07401FACFC4010E945833B82E78015E
:1022F000E4E0EE0EF11CC80103960E945833BB20A7
:1023000041F1882331F1282F30E021503109A29E7C
:10231000A001A39E500D11248B2D90E00197840FF6
:10232000951F0197D0F2EFE9FFE03197F1F700C078
:102330000000F7CFCE0101960E94B52ECECF00311E
:102340009FE5190709F030C581E00E94A7270E9488
:10235000941F80915305877009F45BC6F601828152
:10236000882309F456C682E00E94762D52C60031B9
:10237000FFE51F0711F481E005C001312FE51207C9
:1023800021F482E00E949B27E2CF90913F039111BC
:1023900005C090914203992309F4B7C098013056C3
:1023A000211590E2390720F0305E2115304140F4CC
:1023B000F6019581907F09F4A8C07801FF2401C03F
:1023C0007801970130542115354108F49EC0909151
:1023D0004203923021F5882369F080915605982FA9
:1023E000927219F06894F1F80FC086FF0DC024E1D5
:1023F000F22A0AC0C70195558F3F910511F008F0E8
:10240000B4C580E00E94FD2C81E080934203F092ED
:102410004103E09240038FEF809310019ACF88230D
:1024200009F4A3C5913009F05FC0809110019CE2CE
:10243000E916F104D9F4882329F00E949D31109205
:10244000100187CF809140039091410395558F3FB4
:10245000910509F018F40E94F22C03C08AE20E9450
:102460006029109242030E94ED314FC0EAE2EE165D
:10247000F10421F481508093100126C087FD34C0FF
:1024800081110BC0809140039091410395558F3F7E
:10249000910509F010F40E949D31809110018F5F29
:1024A00080931001FDE2EF16F10471F040F484E036
:1024B000E81AF10894E2E916F10480F405C0EDE2AF
:1024C000EE16E2E0FE0651F4F6018281882309F45B
:1024D0004CC580915605811114C065C1F6018281F9
:1024E000882309F442C50DC09AE2E916F10489F384
:1024F00008F080C5F4E0EF1AF10824E2E216F104D6
:1025000040F30E94ED31109242030138FFE51F07AE
:1025100079F4F60182818823C1F081E080933F0342
:102520000E94EC1981FD11C089E30E9460290DC051
:1025300002382FE5120708F0BDC40933110509F070
:102540003AC4F6018281811139C1F6019281992341
:1025500009F455C1109213040230FCE51F0708F47A
:1025600038C106312CE5120738F098012A5F3C4546
:102570002930310508F02DC10E946C2C9093210266
:102580008093200200318CE5180709F4C3C008F0DD
:1025900041C00830ECE51E0709F49AC0F0F404309D
:1025A0002CE5120709F487C068F402309CE519078E
:1025B00009F477C003301C4509F0E5C08091200282
:1025C000826076C00630FCE51F0709F46EC008F093
:1025D0007BC08091200288606BC00C308CE51807AE
:1025E00009F485C068F40A30ECE51E0709F474C0EC
:1025F00008F079C00E94B62780912002806858C0F8
:102600000E302CE5120709F476C008F07FC08091E7
:1026100020028BC00B3F9CE5190709F44FC018F549
:102620000331FCE51F0709F47DC078F401318CE526
:10263000180709F473C002311C4509F0A4C00E94B8
:10264000B627809120028F7733C00531ECE51E0755
:1026500009F472C008F486C00A3F1C4509F093C013
:10266000809121023EC00F3F8CE5180709F45FC03E
:1026700058F40D3FECE51E0709F444C008F43FC0D0
:102680008091210282602DC001302DE5120709F4EE
:1026900075C008F45DC002301D4509F074C060E0EB
:1026A0006EC080912002816003C080912002806111
:1026B0008093200268C08091200211C08091210285
:1026C0008260809321025FC0809120028062F0CFFF
:1026D000809120028064ECCF809120028860846029
:1026E000E7CF8160EECF809120028E7FE1CF809195
:1026F00020028D7FDDCF80912002877FD9CF80910E
:10270000210218C0809121028D7FDBCF80912002B1
:102710008F7ECECF809120028F7DCACF8091200204
:102720008F7BC6CF80912002877F8B7FC1CF809126
:1027300021028D7F8E7FC5CF8091200282FB2227D0
:1027400020F991E0922790FB82F990FB83F9B0CFBA
:1027500080912102982F909591708E7F892B90FB0C
:1027600081F9AFCF0E94B6278091200287FB2227F4
:1027700020F991E0922790FB87F99ACF61E08EE0F3
:1027800090E00E947633609120021091210284E053
:1027900090E00E947633612F82E290E00E947633CF
:1027A0000E94B627D6CD0138FFE51F0709F4B1CE48
:1027B00008F080C30933110509F0FDC280912A0297
:1027C000882319F010922A02C0CE81E080932A0259
:1027D000BCCE809156050631ECE51E0709F58A7AD4
:1027E00091E009F490E090934303882311F065E3AE
:1027F00001C069E28EEF94E00E94A6190EC0063176
:102800001C4509F08BC080914303882309F4F0C371
:1028100065E38EEF94E00E9499190E94182D99CDDE
:102820008272F801E25CFC45EB30F10508F043C030
:10283000EE58FF4F0C9429348091E50491E08927EC
:102840008093E504109211019093440382CD45E6F4
:102850005EE16FE67EE12CC04FE65EE165E67EE17B
:1028600027C048E35EE162E47EE122C042E45EE12B
:1028700068E37EE11DC04EE15EE16BE27EE118C0DF
:102880004BE25EE16EE17EE113C044E05EE161E1B6
:102890007EE10EC041E15EE164E07EE109C046E315
:1028A00058E162E478E104C042E458E166E378E18B
:1028B0000E94EB1D4ECD992389F10A35EDE51E07E7
:1028C00041F150F401152CE51207A9F00E3D1C450D
:1028D00029F50E94882C3DCD0B359DE51907D9F0CF
:1028E0000C351D45D9F48091210282FB882780F99F
:1028F00091E0892711C00E94B627FFEF24E38CE006
:10290000F15020408040E1F700C000000E94FF1815
:1029100020CD81E001C080E00E94552DF601868126
:1029200097810097B9F4F601828100811181882393
:1029300049F0C8010E94F624F82E682FC8010E94B1
:102940006A2704C0C8010E943A27F82EB8018F2DCB
:102950000E94391D0E94E32AF82E192FF601E28009
:10296000058102950F7080915305877099F0EE20D4
:1029700089F0892F807F803421F080E28F0D8830AC
:1029800048F082E00E94762D809153058770BB2429
:10299000B3948111B12CA12EA2948FE0A8228A2D8C
:1029A00090E08C30910508F0DBC1FC01E358FF4F4B
:1029B0000C942934812F807F1F70882311F0129589
:1029C000107FEE20B9F0112309F4ACC180E28F0D25
:1029D000883010F0F11006C090915605192B109315
:1029E000560505C090915505192B109355050E9469
:1029F000182D98C18F2D0E946D28112309F4B0C1A4
:102A000080E28F0D883010F0F11004C0812F0E94F9
:102A1000112D06C010959091550519231093550559
:102A20000E94182D9DC1812F807F1F70803211F070
:102A30001295107FFF2021F0F1E0FF1691F13BC0CD
:102A4000EE20D9F00023A9F0013031F4809159052E
:102A5000812B0E94FD2C84C1053059F40E94F22C78
:102A600080915005181310935005812F0E94632800
:102A700077C180915905812BF9CF002349F00130AE
:102A800069F480915605812309F46AC10E94A92D39
:102A90000E94F22C812F0E945C2862C10530C1F790
:102AA0005FC1EE2021F0063008F05AC1DECF0530BC
:102AB00008F056C1EFCFEE2019F00023B1F232C179
:102AC000002341F329E3F21208C08FEF97EEE3E011
:102AD00081509040E040E1F73EC1FFE728E381E00C
:102AE000F15020408040E1F736C1812F86958695D0
:102AF000837019F0813061F033C1EE2021F08F2D09
:102B0000912F937002C080E090E00E94D6192EC1F0
:102B1000EE2021F08F2D912F937002C080E090E085
:102B20000E94C01923C1812F8370A9F5E1101CC137
:102B30004F2D429546954770440F440F8F2D8F704F
:102B400090E09C01042E01C0220F0A94EAF7F4FEE3
:102B500008C08FE090E001C0880F4A95EAF78095A1
:102B600001C080E0169516951370123069F088F454
:102B700090915A05113019F0822B892302C0922BB3
:102B8000892B0E94B227F0C0822B90915A05892789
:102B9000F8CF822BF6CFEE2019F0812F817001C083
:102BA0008695882309F4E0C04F2D429546954770DD
:102BB000440F440F8F2D8F7090E09C01042E01C0B4
:102BC000220F0A94EAF7F4FE08C08FE090E001C0FB
:102BD000880F4A95EAF7809501C080E01695169512
:102BE0001370123059F078F49091EB04113019F011
:102BF000822B892309C0922B892B06C0822B9091AE
:102C0000EB04892701C0822B0E949727ADC01F705B
:102C1000EE2039F0812F0E94A7278F2D0E94632874
:102C2000A3C08F2D0E945C28812F0E949B279CC0EF
:102C300092EFF91659F19F1538F0E0EFFE1659F0B2
:102C4000F1EFFF16E1F069C023EFF21631F184EFE6
:102C5000F81681F162C0EE2071F0053008F080C0F6
:102C60001F7181E090E001C0880F1A95EAF79091FA
:102C7000EB0489271CC0063008F072C0F1CFEE20AB
:102C800039F0812F8F710E94A7276AC0EE20C9F307
:102C9000812F8F710E949B2763C0EE2039F01F7136
:102CA00081E001C0880F1A95EAF701C080E00E9418
:102CB000972756C0EE20D1F0809150050E94112D2B
:102CC000809153058770843039F40E946F2D812FD5
:102CD0008F710E949B2766C0053008F063C01F718A
:102CE000812F0E94A72763E0812F10C09091560585
:102CF00080915005892B80935605053050F00E9435
:102D00006F2D0E94A92D64E0812F8F710E94932D59
:102D100049C081E00E94762D45C0EE2039F00023A5
:102D200009F4AFCF8F2D0E94C4281AC0002309F4E4
:102D3000AFCF99E3F91208C0EFEFF7EE23E0E150CF
:102D4000F0402040E1F707C08FE798E3E1E08150D1
:102D50009040E040E1F700C000008F2D0E946D28F8
:102D600088EF8A0D843010F40E94EC19BB20A9F082
:102D70008091530580FD11C0F601128285958595DD
:102D800085950E94A727C6010E94F01080915305E7
:102D90008595859585950E949B2760E0C6010E94D8
:102DA000102F37C1B12CE0CF0131EFE51E0709F03C
:102DB000ECCA82E0CACA00388FE5180709F086C05D
:102DC000F6018281882309F4C0CB92EFA92E93E00B
:102DD000B92E2AE0922EF5018491882309F45AC075
:102DE000813009F04FC07501FFEFEF1AFF0AF701BC
:102DF0008491813049F47501F2E0EF0EF11CF70186
:102E000084910E94602941C0823049F47501F2E04A
:102E1000EF0EF11CF70184910E94C42836C0833064
:102E200049F47501F2E0EF0EF11CF70184910E9464
:102E30006D282BC0843049F57501F2E0EF0EF11CCE
:102E4000F701249180E090E030E0205331092A30EE
:102E5000310570F4989EA001999E500D1124C9016E
:102E6000840F951FFFEFEF1AFF0AF7012491ECCFB3
:102E7000009759F0EFE9FFE03197F1F700C000004B
:102E80000197F6CF0E944F2E75015701FFEFAF1A41
:102E9000BF0AA1CF8091590581FD57CB0E946419CB
:102EA00090935805809357058091590582608093CF
:102EB00059054BCB03389FE5190709F460C008F4A6
:102EC0006BC00438FFE51F0709F476C0033F2CE50B
:102ED0001207A1F406E221EE40EE63EF7CE50AC0A2
:102EE000073DFCE51F0709F030CB06E221EE41EE7D
:102EF00067ED7CE5C6010E94531B2BCA043F8CE59D
:102F00001807A0F4083D9CE5190731F407E225EE07
:102F100045EE68ED7CE5EECF093DECE51E0701F7D7
:102F200008E221E045EE69ED7CE5E4CF053F2CE5C4
:102F3000120731F406E221EE42EE65EF7CE5DACFCE
:102F4000053F8CE5180730F407E225EE44EE64EF08
:102F50007CE5D0CF063F9CE5190709F0F6CA07E2E9
:102F600025EE46EE66EF7CE5C5CF01382FE512076A
:102F700009F4CFCA98F10338EFE51E0749F4F601CA
:102F80008281882309F4E1CA82E0809342033EC033
:102F90000338FFE51F0758F4F6018281882309F4FE
:102FA000D4CA81E0809342038DE290E00FC00438E0
:102FB0002FE5120709F08ACFF6018281882309F4F0
:102FC000C4CA81E0809342038DE292E09093410372
:102FD000809340038FEF8093100118C009331105CF
:102FE00009F4B3CA00389FE5190709F4E9CE6ECF9A
:102FF00069E20FCC8DE2E816F10409F46ACA9DE299
:10300000E91692E0F90609F07CCA63CAF6019281DA
:10301000A1CA0F900F900F900F90DF91CF911F9149
:103020000F91FF90EF90DF90CF90BF90AF909F9067
:103030008F90089508958091CC040895E5E4F3E01D
:1030400093E0ED3BF90729F0818360834283339657
:10305000F7CF0895FC01EE0FFF1F8E0F9F1FFC019D
:10306000EB5BFC4F6183408322830895E5EEF4E03F
:10307000248130E1231B08F420E0248381E0809345
:1030800044030895E5EEF4E0248130E1230F08F4D1
:103090002FEF248381E0809344030895E42FF0E030
:1030A000EE0FFF1FE459FE4F9081921B97FD919503
:1030B000292F38E1239F212D1124620F0895CF93EA
:1030C000DF9321E02093E9002FEF3091E8002150B9
:1030D00035FD06C035ED3A95F1F700002111F5CF29
:1030E0002091E80025FF14C0EC0140E050E068E0CA
:1030F00070E00E9496248091E8008E778093E8002B
:1031000088E0FE01ADECB4E001900D928A95E1F704
:10311000DF91CF910895809A81B38E7F91B39160B2
:103120002FB7F894E5E4F3E033E0ED3BF30789F0E3
:10313000319148E091BB000000C037FF81BB330FE5
:10314000000000C000C000C081BB00C04A9591F7DC
:10315000EBCF2FBF8FE594E00197F1F700C000009F
:1031600008950F931F93CF93DF93D62F072F182F18
:10317000C42F822F0E94F731EC2FF0E0EE0FFF1FDB
:10318000E459FE4F90819058890F87FD8195880FF3
:10319000682F2CE0629F612D11246D0F702F812FFD
:1031A000DF91CF911F910F9108959091E004943099
:1031B00029F58093C7047093C9046093C804909361
:1031C000E9008FEF9091E800815095FD06C095EDE4
:1031D0009A95F1F700008111F5CF8091E80085FF05
:1031E0000DC040E050E063E070E087EC94E00E94A6
:1031F00096248091E8008E778093E800089581E01E
:103200008093E00080E28093D8001092C9008FE1A3
:103210009EE40197F1F700C0000087E090EBDC012D
:1032200080935E0590935F05A0936005B093610560
:103230009CE088E10FB6F894A895809360000FBEDB
:1032400090936000FFCF78941F920F920FB60F9269
:1032500011248F939F93AF93BF938091C304909158
:10326000C404A091C504B091C6040196A11DB11D6E
:103270008093C3049093C404A093C504B093C60480
:10328000BF91AF919F918F910F900FBE0F901F90A4
:1032900018959C014FB7F8948091C3049091C40491
:1032A000A091C504B091C6044FBF821B930B089533
:1032B0002FB7F8946091C3047091C4048091C50441
:1032C0009091C6042FBF08952FB7F8948091C3043E
:1032D0009091C404A091C504B091C6042FBF089575
:1032E0001F920F920FB60F9211248F939F93AF935B
:1032F000BF938091C204811113C08091C304909147
:10330000C404A091C504B091C6044196A11DB11D8D
:103310008093C3049093C404A093C504B093C604DF
:10332000BF91AF919F918F910F900FBE0F901F9003
:1033300018959C012A5F3F4FFC014281461301C052
:103340001282019682179307B9F708959C01FC0138
:1033500032969FEF80E04191461789F09F3F19F424
:10336000411101C0982F8F5F8630A9F79F3F39F038
:10337000F901E90FF11D97FDFA956283089508950B
:103380002091C0043091C1042817390771F090933F
:10339000C1048093C004E091BE04F091BF04309753
:1033A00021F00084F185E02D099408952091BC045A
:1033B0003091BD042817390771F09093BD048093B4
:1033C000BC04E091BE04F091BF04309721F0068068
:1033D000F781E02D09940895E091BE04F091BF04B7
:1033E000309721F00190F081E02D099480E008955C
:1033F000BC014091B8048091B904942F981729F129
:10340000292F30E0F901EE0FFF1FE055FB4F01902F
:10341000F081E02DE617F70799F487E0869FF00129
:10342000879FF00D1124E858FB4F81E084839413AB
:103430000CC02F5F3F4F237033272093B8040895AB
:103440002F5F3F4F922F9370D9CF08950F931F9303
:10345000CF93DF9380911704882309F451C0C09162
:1034600016041CE080911704C81708F045C001E05D
:103470000C0F00931604D0E01C9FF0011D9FF00D6F
:103480001124E85EFB4F9081818123813481232BBD
:1034900031F08F3F31F481E09F3F19F403C081E0A8
:1034A00001C080E080FD26C01C9FD0011D9FB00D93
:1034B0001124A85EBB4F16968D919C911797892B6E
:1034C00031F418968D919C911997019651F42081B1
:1034D00031814281538164817581868197810E9407
:1034E000C1271C9FF0011D9FF00D1124E85EFB4FCA
:1034F00014821382C02FB6CF1092170410921604B4
:10350000DF91CF911F910F910895109215041092A1
:103510001404E8E7F4E08581811102C01482168268
:10352000379684E0E03BF807B1F708951092BB04AA
:103530001092BA04109212018091B9048093B804D9
:103540000E94851A0C94261A3F924F925F926F92B6
:103550007F928F929F92AF92BF92CF92DF92EF9223
:10356000FF920F931F93CF93DF93C091B80497E01E
:10357000892E01E010E02CE0322E3EEF932E442401
:1035800043948091B904C81709F478C0D0E0FE01D3
:10359000EE0FFF1FE055FB4F80819181889ED00187
:1035A000899EB00D1124A858BB4F14962C911497E6
:1035B000211161C050901704E8E1F4E020E030E010
:1035C000712C5D01251508F054C0E284F384D50107
:1035D000CD90DC906FEF7FEF612C462D50E0DA014B
:1035E000AA0FBB1FAC0DBD1D0D90BC91A02D109757
:1035F00031F0EA16FB0609F4BA016394EECF6F3F8F
:10360000BFEF7B0791F1D80102C0AA0FBB1F6A95DB
:10361000E2F77A2AB80102C0660F771F6A94E2F7D0
:10362000AB0141505109672D70E046175707D9F497
:10363000329EF001339EF00D1124E85EFB4F889E10
:10364000D001899EB00D1124A858BB4F12962D9120
:103650003C9113973783268390829182918780874C
:1036600015964C9206C0148213822F5F3F4F3C96F2
:10367000A9CF0E94F8192196C37083CF0E94261A01
:10368000DF91CF911F910F91FF90EF90DF90CF903E
:10369000BF90AF909F908F907F906F905F904F9072
:1036A0003F900C94851A0F931F93CF93DF93C42FF1
:1036B000D22FFC0182818823C9F0409313040E9419
:1036C0006419909312048093110480E28C0F883067
:1036D00008F057C0C77081E001C0880FCA95EAF7AB
:1036E000DF91CF911F910F910C9463288091130467
:1036F000481330C080911104909112040E9449191E
:10370000883C910538F510E21D0FCD17B9F080E225
:103710008C0F883040F4C77081E001C0880FCA95D3
:10372000EAF70E945C28183028F581E09D2F9770F9
:1037300001C0880F9A95EAF70E946328802F0E94A3
:1037400060291830F0F4D77081E001C0880FDA9555
:10375000EAF70AC080E28C0F883098F4C77081E0E5
:1037600001C0880FCA95EAF7DF91CF911F910F91A1
:103770000C945C28802FDF91CF911F910F910C94B6
:103780006029DF91CF911F910F910895CF93DF931F
:10379000C7E5D2E060E0CE010E9476332196C115E4
:1037A00084E0D807B9F7DF91CF9108950F931F9365
:1037B000CF93DF93853068F5623058F5423048F595
:1037C00021159CE5390731F4E0910D04F0910E04C8
:1037D000EF2BF9F08901282F34E0639FC0011124F9
:1037E00038E0239F800D911D1124840F911D840FBB
:1037F000911DEC01C152DE4F612FCE010E94763344
:10380000602FCE010196DF91CF911F910F910C9403
:103810007633DF91CF911F910F9108950F931F93EE
:10382000CF93DF93853018F5623008F54230F8F415
:10383000282F34E0639FC001112438E0239F800DBE
:10384000911D1124840F911D840F911DEC01C15213
:10385000DE4FCE010E94583390E0182F0027CE0192
:1038600001960E9458339801282BC90102C080E0BC
:1038700090E0DF91CF911F910F9108950F931F93C7
:10388000CF93DF93853058F5643048F54B3038F5E9
:1038900021159CE5390731F4E0910D04F0910E04F7
:1038A000EF2BE9F08901C42FD0E0CC0FDD1F96E1AA
:1038B000699FC00DD11D112498E5899FC00DD11DB0
:1038C0001124612FCE0187960E947633602FCE019E
:1038D0008896DF91CF911F910F910C947633DF91F1
:1038E000CF911F910F9108956F927F928F929F9227
:1038F000AF92BF92CF92DF92EF92FF920F931F93FE
:10390000CF93DF93CDB7DEB72A970FB6F894DEBF1B
:103910000FBECDBFA0900D04B0900E0481E090E0EA
:1039200090930E0480930D04C12CD12C712C612C2A
:10393000E12CF12C00E010E046018E0C9F1CF801F8
:10394000EE0FFF1FE80DF91DEB50FC4F2591349150
:10395000402F662D872D0E943E1C0F5F1F4F0B309E
:10396000110569F786E1E80EF11C639494E0691291
:10397000E1CF21E030E040E060E0872D0E94D61BDF
:1039800021E030E041E060E0872D0E94D61B21E07D
:1039900030E040E061E0872D0E94D61B21E030E05E
:1039A00041E061E0872D0E94D61B7394E8E5CE0EBE
:1039B000D11CF5E07F12BBCFCE0101967C018AE0DD
:1039C000F70111928A95E9F707E012E04AE050E02A
:1039D000B801C7010E949A33065F1F4F0735F2E016
:1039E0001F07A1F7B0920E04A0920D042A960FB6FD
:1039F000F894DEBF0FBECDBFDF91CF911F910F9125
:103A0000FF90EF90DF90CF90BF90AF909F908F90FE
:103A10007F906F9008950F931F93CF93DF9385301E
:103A200008F56430F8F44B30E8F4C42FD0E0CC0F44
:103A3000DD1F26E1629FC00DD11D112438E5839F53
:103A4000C00DD11D1124CE0187960E94583390E0FD
:103A5000182F0027CE0188960E9458339801282BF2
:103A6000C90102C080E090E0DF91CF911F910F91DA
:103A70000895462F20910F0430911004232B49F410
:103A8000853038F4743028F46B3018F4672F0C94B8
:103A90000B1D80E090E00895CF92DF92EF92FF92AD
:103AA0000F931F93CF93DF93CDB7DEB72A970FB64F
:103AB000F894DEBF0FBECDBF80E5EDEBF3E0DF0194
:103AC0001D928A95E9F788E3E8E7F4E0DF011D92AB
:103AD0008A95E9F78DEBC82E83E0D82E7F0107E0A9
:103AE00012E0F701D182C0824AE050E0B801CE0175
:103AF00001960E94483388E0FE013196D60101907C
:103B00000D928A95E1F789859A85D70113969C9342
:103B10008E931297BAE0CB0ED11CE7E0EE0EF11CAB
:103B2000065F1F4F0735F2E01F07D9F62A960FB63A
:103B3000F894DEBF0FBECDBFDF91CF911F910F91E3
:103B4000FF90EF90DF90CF900895CF93C82F811111
:103B500002C06FEF01C06BE083E290E00E94763319
:103B6000C11102C06FEF01C061E384E290E00E94E6
:103B70007633C11102C06FEF01C068EF85E290E0BB
:103B8000CF910C94763380E00E94A51D60E086E220
:103B900090E00E9476330E94741C0E94C61B81E054
:103BA0000C94A51D83E290E00E9458338B3081F481
:103BB00084E290E00E945833813351F485E290E032
:103BC0000E94583391E0883F09F090E0892F01C0AE
:103BD00080E081700895882311F0FA0101C0FB0193
:103BE00009949091E504937071F08093E6046093DA
:103BF000E7044D3308F04CE34093E804809144031C
:103C0000282B209344030895E5EEF4E0438120E15E
:103C1000421B08F440E0818121E0628190E00C9435
:103C2000F11DE5EEF4E0438120E1420F08F44FEF8F
:103C3000818121E0628190E00C94F11DE5EEF4E0D9
:103C4000628120E1621B08F460E0818121E0438110
:103C500090E00C94F11DE5EEF4E0628120E1620F4A
:103C600008F46FEF818121E0438190E00C94F11D15
:103C7000E5EEF4E0818190E021E0438162810897E4
:103C80000C94F11DE5EEF4E0818190E021E04381A8
:103C9000628108960C94F11D9091E5049370A1F057
:103CA000811102C0946007C08E3010F0946303C08D
:103CB000880F880F982B9093E50410921101809142
:103CC0004403682B6093440308958091E50486952E
:103CD0008695815009F48DE061E00C944C1E809132
:103CE000E504869586958F5F8E3008F081E061E06F
:103CF0000C944C1E0C941E180C942A182BE0829FD6
:103D0000C0011124FC01E05CFE4FE60FF11D808133
:103D10008F3F21F0FA01808381E0089580E00895CB
:103D200046E050E06CE170E085EE94E00C94663380
:103D3000E5EEF4E085E0808380911F019091200101
:103D4000A091210181839283A3838FE784838FEFE6
:103D500085830C94901E22E8241B08F420E0620F57
:103D600008950F93CF93DF93D72FC82F47FD419529
:103D7000E2E3F0E0CF01841B910947FD9395889F12
:103D8000B001899F700D700D1124229FC001239FE7
:103D9000900D900D1124860F971F0E941832682FE6
:103DA000660F860F682F600F7D2F8C2FDF91CF91CC
:103DB0000F9108958091D80487FF11C08091E80089
:103DC00082FD05C08091E0048111F8CF11C080917F
:103DD000E8008B770BC08091E004882349F0809144
:103DE000E80080FFF8CF8091E8008E778093E800AC
:103DF0000895982F973068F59093E900981739F057
:103E00007091EC002091ED005091F00003C0242F40
:103E1000762F50E021FD02C09F5FECCF3091EB0088
:103E20003E7F3093EB003091ED003D7F3093ED000D
:103E30003091EB0031603093EB007093EC002093F5
:103E4000ED005093F0002091EE0027FDE5CF80E0DB
:103E500008958F708093E90081E008952091DE0439
:103E60003091DF042617370748F06115710539F4E2
:103E70002091E8002E772093E80001C0B901FC01F1
:103E800020E06115710579F18091E0048823F1F15A
:103E90008530F1F18091E80083FD3CC08091E8001D
:103EA00082FD2EC08091E80080FFEBCF2091F300CF
:103EB0008091F20090E0922B6115710551F08830ED
:103EC000910538F421912093F10061507109019618
:103ED000F3CF21E0089709F020E08091E8008E7789
:103EE0008093E800CECF2111CFCF0AC08091E004AB
:103EF000882361F0853061F08091E80083FD0AC07D
:103F00008091E80082FFF2CF80E0089582E008957A
:103F100083E0089581E00895BC0184E00C94D518F5
:103F2000BC0183E00C94D5188091EB04982F967017
:103F3000963011F4886001C0877F0C949727DF9238
:103F4000EF92FF920F931F93CF93DF938C01C09159
:103F50001401CC0FCC0FCC0FD8E0DC0FD93208F015
:103F6000D8E26091E9046695669521E0620F08F455
:103F70006FEF8091E1049091E2040E944932D82EC3
:103F8000CD17F0F4EC2EF12CF701E454FE4F9081A4
:103F900080911501892391F06091E6047091E70406
:103FA0008091E8042D2D4C2FF80109950E94533281
:103FB000462F282F672FC7010E947C1ECF5FE0CFBE
:103FC00081E0D83208F080E0DF91CF911F910F910E
:103FD000FF90EF90DF9008951F93CF93DF93CDB7BD
:103FE000DEB7AA970FB6F894DEBF0FBECDBFE8EDDF
:103FF000F4E08091F100819344E0E03EF407C9F7DA
:104000008091D904833009F462C030F4813071F0BA
:10401000823009F49CC0B3C08A3009F488C08B3068
:1040200009F46DC0893009F0AAC020C08091D8047D
:10403000813A09F0A4C08091E800877F8093E8006E
:104040008091DC049091DD04892B21F468E08DECF3
:1040500094E003C060E080E090E070E00E942E1FDA
:104060008091E8008B778093E80089C08091D80424
:10407000813209F084C08091DC049091DD040097C6
:1040800019F0029709F07BC08091E800877F809348
:10409000E8008091E80082FD05C08091E004811174
:1040A000F8CF6DC02091F3008091F20090E0922B48
:1040B000029729F48091F1008B7F813021F4809167
:1040C000F1008093CC048091E8008B7754C08091FC
:1040D000D804813A09F053C08091DC049091DD044A
:1040E000892B09F04CC08091E800877F8093E8001D
:1040F0008091E80080FFFCCF8091130137C0809150
:10410000D8048132E1F58091DC049091DD04892BA3
:10411000B1F58091E800877F8093E8000E94DA1E65
:104120008091DA04809313010E94B62728C0809101
:10413000D804813221F58091E800877F8093E800E0
:104140000E94DA1E8091DB048093CB0418C080911A
:10415000D804813AA1F48091E800877F8093E80039
:104160008091E80080FFFCCF8091CB048093F10028
:104170008091E8008E778093E8000E94DA1E80919B
:10418000E80083FFE9C18091D8049091D904492FB8
:1041900050E04A30510508F0DFC1FA01E757FF4F00
:1041A0000C942934803821F0823809F0D5C108C038
:1041B0008091D5049091D604992389F082600FC034
:1041C0008091DC048F70873008F0C6C18093E900CD
:1041D0008091EB0085FB882780F91092E90090918F
:1041E000E800977F9093E8008093F1001092F1002F
:1041F0007CC1282F2D7F09F0AFC1882319F08230B0
:1042000061F0AAC18091DA04813009F0A5C1933030
:1042100009F080E08093D6042EC08091DA048111E9
:104220002AC08091DC048F702FEF280F263008F011
:1042300093C18093E9002091EB0020FF1CC09330D4
:1042400021F48091EB00806214C09091EB009061AA
:104250009093EB0021E030E0A90102C0440F551F0C
:104260008A95E2F74093EA001092EA008091EB0011
:1042700088608093EB001092E9008091E800877FCE
:104280008093E8000E94DA1E67C1811165C1109118
:10429000DA041F778091E3008078812B8093E3001C
:1042A0008091E800877F8093E8000E94DA1E809169
:1042B000E80080FFFCCF8091E30080688093E300FA
:1042C000111102C082E001C083E08093E00444C188
:1042D0008058823008F040C12091DA043091DB042C
:1042E0002C3D53E0350779F583E08A838AE28983A0
:1042F0004FB7F894DE01139620E03EE051E2E32F41
:10430000F0E050935700E49120FF03C0E295EF7076
:104310003F5FEF708E2F90E0EA3010F0C79601C03B
:10432000C0968D939D932F5F243149F74FBF8091A5
:10433000E800877F8093E8006AE270E0CE01019692
:104340000E942E1FC0C08091DC049091DD04432F99
:10435000552743305105B1F068F44130510509F457
:104360000AC14230510509F0F7C08BE590E0E1E465
:10437000F6E057C04132510589F14232510509F446
:104380003CC0EAC0C901992781309105B9F070F0AD
:1043900082309105D9F0039709F0DEC0EEEAF6E02D
:1043A000E4918E2F90E0EEEAF6E038C0E6E1F7E027
:1043B000E4918E2F90E0E6E1F7E030C0EAEFF6E01E
:1043C000E4918E2F90E0EAEFF6E028C0ECECF6E006
:1043D000E4918E2F90E0ECECF6E020C08330910564
:1043E00008F0BAC0880F991FFC01E65CFE4F0190EF
:1043F000F081E02D89E090E014C08330910508F051
:10440000ABC0FC01EE0FFF1FEC5CFE4F0190F08192
:10441000E02DDC01AF5CBE4F8C9190E0009709F479
:104420009BC02091E800277F2093E8002091DE04C4
:104430003091DF042817390708F4C90140E00097DC
:1044400089F12091E004222309F43DC02530D9F1FF
:104450002091E80023FD37C02091E80022FD2FC005
:104460002091E80020FFEBCF4091F3002091F20073
:1044700030E0342B009759F02830310540F4449156
:104480004093F100319601972F5F3F4FF3CF41E00A
:104490002830310509F040E02091E8002E77209384
:1044A000E800CDCF4111CDCF0AC08091E004882330
:1044B00051F0853041F08091E80083FD04C0809187
:1044C000E80082FFF2CF8091E8008B778093E800CC
:1044D00043C0803809F040C08091E800877F809316
:1044E000E8008091D7048093F1008091E8008E77F6
:1044F000C7CE811131C08091DA049091DB049927F5
:10450000029754F58091E800877F8093E80010912E
:10451000DA041093D7040E94DA1E111106C08091AC
:10452000E30087FD02C081E001C084E08093E004E5
:1045300042E061EC81E00E94F91E42E261EC84E01D
:104540000E94F91E42E261EC82E00E94F91E42E202
:1045500060EC83E00E94F91E8091E80083FF10C0A8
:104560008091E800877F8093E8008091EB00806273
:104570008093EB0005C082E190E0ECE9F6E051CFDA
:10458000AA960FB6F894DEBF0FBECDBFDF91CF91D4
:104590001F9108951F920F920FB60F9211242F931F
:1045A0003F934F935F936F937F938F939F93AF93BB
:1045B000BF93CF93DF93EF93FF93C091E900CF7048
:1045C0008091EC00D82FD17080FDD0E81092E900E6
:1045D0008091F000877F8093F00078940E94EC1F18
:1045E0001092E9008091F00088608093F000CD2B5C
:1045F000CF70C093E900FF91EF91DF91CF91BF9110
:10460000AF919F918F917F916F915F914F913F916A
:104610002F910F900FBE0F901F901895E8EDF0E0CE
:1046200080818E7F80831092E2001092DA001092D7
:10463000E100A0EEB0E08C9181608C9380818F7757
:10464000808319BCA7EDB0E08C918E7F8C93808124
:104650008F7E80831092CA040895CF92DF92EF92EA
:10466000FF920F931F93CF93DF93C8EDD0E0888123
:104670008F7E8883E7EDF0E080818160808384E035
:1046800082BF81E08093CA0488818E7F888302EE96
:1046900010E0F80110821092DA0081EEC82ED12CC1
:1046A000F601108288818F7788838881806888836B
:1046B00088818F7D888319BC1092E0041092D70402
:1046C0001092D6041092D50490EEE92EF12CF70149
:1046D00080818B7F808388818160888342E060E075
:1046E00080E00E94F91EF60180818E7F8083F801B0
:1046F000808181608083808188608083F7018081F0
:104700008E7F8083888180618883DF91CF911F9124
:104710000F91FF90EF90DF90CF9008951F920F922E
:104720000FB60F9211242F933F934F935F936F9384
:104730007F938F939F93AF93BF93EF93FF9380915A
:10474000E10082FF09C08091E20082FF05C08091F4
:10475000E1008B7F8093E1008091DA0080FF2AC026
:104760008091D80080FF26C08091DA008E7F8093F0
:10477000DA008091D90080FF18C080E189BD82E114
:1047800089BD09B400FEFDCF81E08093E0048091F3
:10479000CA0481110FC00E940E230E942D23809114
:1047A000E20084608093E20005C019BC1092E0042E
:1047B0001092CA048091E10080FF17C08091E2004E
:1047C00080FF13C08091E2008E7F8093E200809191
:1047D000E20080618093E2008091D8008062809343
:1047E000D80019BC85E08093E0048091E10084FF4B
:1047F0002EC08091E20084FF2AC080E189BD82E161
:1048000089BD09B400FEFDCF8091D8008F7D8093D3
:10481000D8008091E1008F7E8093E1008091E200DA
:104820008F7E8093E2008091E20081608093E200BD
:104830008091D704882311F084E007C08091E300C1
:1048400087FD02C081E001C083E08093E004809195
:10485000E10083FF27C08091E20083FF23C08091A5
:10486000E100877F8093E10082E08093E004109272
:10487000D7048091E1008E7F8093E1008091E20077
:104880008E7F8093E2008091E20080618093E2005D
:1048900042E060E080E00E94F91E8091F0008860B4
:1048A0008093F000FF91EF91BF91AF919F918F9115
:1048B0007F916F915F914F913F912F910F900FBE1C
:1048C0000F901F9018952091E4003091E50095E637
:1048D0004091EC00842F817040FF23C08091E8005C
:1048E00080FD1DC08091E004882399F0853099F007
:1048F0008091EB0085FD11C04091E4005091E500EE
:104900002417350729F3915011F09A01E1CF84E083
:10491000089582E0089583E0089581E0089580E09D
:1049200008954091E80042FFDDCF0895EF92FF9295
:104930000F931F93CF93DF937C018B010E9463241D
:10494000811119C0E70101151105A1F08091E8005E
:1049500085FD0AC08091E8008E778093E8000E9470
:104960006324882381F307C089918093F10001506B
:104970001109E9CF80E0DF91CF911F910F91FF9056
:10498000EF900895CF932091E0042430F9F4C09182
:10499000E900CF703091EC00232F217030FD20E82A
:1049A000C22B22E02093E9002091E80020FF0BC0F9
:1049B00040E050E060E270E00E9496248091E800C0
:1049C0008E778093E800CF70C093E900CF9108956F
:1049D00080E090E00E94D61980E090E00E94C0192B
:1049E00010925505109254050C94182DCF92DF9219
:1049F000FF920F931F93CF93DF936C010091EB0411
:104A000080915A05082BC7E0D0E010E0C8010C2EB9
:104A100002C0959587950A94E2F780FD04C021971E
:104A2000A8F7F12C09C0FC2EB6018C2F0E94391D6D
:104A30000E94E32A019799F38F2DDF91CF911F9167
:104A40000F91FF90DF90CF900895CF93DF93EC010B
:104A50000E94F624BE010E94391D0E94E32ADF91C4
:104A6000CF910895FC0186819781009719F00E94EB
:104A7000E32A04C0808191810E942525292F2F706F
:104A8000E92FE295EF704E2F50E0FA013297EE30A9
:104A9000F105B8F4ED56FF4F0C942934803F99F09E
:104AA00018F4883E70F40FC0843F59F40CC0883E5F
:104AB00050F0813F31F407C0822F86958695869508
:104AC000089580E0089581E008959F92AF92BF928B
:104AD000CF92DF92EF92FF920F931F93CF93DF93CA
:104AE000CDB7DEB765970FB6F894DEBF0FBECDBF6A
:104AF0008C0185E0F801DE01519601900D928A95B6
:104B0000E1F7F801E2809091060560910705409178
:104B1000090550910A054115510531F06F3F31F4F7
:104B200081E09F3F19F403C081E001C080E0F82FCD
:104B3000F1709F2E80FD4EC1F80130812181C3802C
:104B4000D48076E0A72E75E0B72EF0900805F60128
:104B5000E41BF50BFF2009F4EFC080910B05E83C46
:104B6000F10508F0AAC0482F407F09F05AC062132F
:104B70001BC0931319C060910C0570910D05F801CD
:104B8000468157816417750779F4FE2CE1100CC03B
:104B90008F70806180930B05C5010E94F010809199
:104BA0000B05F801858353C1CD2831F02F3F31F437
:104BB00081E03F3F19F403C081E001C080E080FD47
:104BC00003C081E08E2502C080E090E0F82FF170F4
:104BD000FF2E80FF1CC080914F0540910E05841769
:104BE00009F413C190E0FC0153E0EE0FFF1F5A954A
:104BF000E1F7E15FFA4F5181251306C0508153134D
:104C000003C05281E51203C001968770E8CFFE2CE5
:104C1000EE2009F41CC180910B05816080930B0587
:104C200058C062130FC093130DC040910C055091F2
:104C30000D05F801268137814217530719F4EE203C
:104C400009F4A7C0C8010E943225882381F1EE2013
:104C500071F120910B05822F82958F7090E0029761
:104C6000A4F080910605909107059A8789871B8695
:104C7000DD86CC862E8780910C0590910D05988B52
:104C80008F87CE0109960E94F01088E0F801A6E017
:104C9000B5E001900D928A95E1F70E94B92D0AC006
:104CA0006217C9F0C8010E943225811127C0C801CE
:104CB0000E94F010FF24F394CAC0482F407F81F770
:104CC00086E095E00E94F01088E0F50111928A9547
:104CD000E9F7F12CBCC09313E5CF40910C0550913E
:104CE0000D05F8012681378142175307D9F6E110E7
:104CF000D9CF8583C8010E94F01066C0EE20B9F2BA
:104D000020910B05822F82958F7090E002970CF412
:104D1000BCCF80910605909107059A8389831B82F9
:104D2000DD82CC822E8380910C0590910D059887B1
:104D30008F83CE010196A7CFE83CF10508F044C06F
:104D4000FE2CEE2009F4B3CF621330C093132EC0B3
:104D500020910C0530910D05F80186819781281767
:104D6000390721F590910B0590FD17C0892F829589
:104D70008F70282F30E02115310579F095832F3081
:104D8000310541F08F5F982F9295907F85818F70CC
:104D9000892B8583C8010E94F01088E0F801A6E005
:104DA000B5E001900D928A95E1F751C0C8010E94CB
:104DB000322581116ACF80910B05816080930B05AC
:104DC000C8010E94F01043C088E0F50111928A9555
:104DD000E9F73DC0EE2009F46ACFC8010E943225F0
:104DE000F82E882309F463CF88E0F801A6E0B5E047
:104DF00001900D928A95E1F7809106059091070543
:104E00000E9425250E94B92D22C0398B2A8B8989C1
:104E10009A890E942525292F22952F70223028F467
:104E20009F7039F0811105C00BC0243028F49F70A9
:104E300049F4805E883020F0C8010E94F0109F2C59
:104E4000F92C05C0F8019581907F99F7F9CF8F2D46
:104E500065960FB6F894DEBF0FBECDBFDF91CF9140
:104E60001F910F91FF90EF90DF90CF90BF90AF9088
:104E70009F9008959E3F61F12BE0929F800D112439
:104E8000682F669566956695982F977083E0689F62
:104E9000B001112440E050E080E0FB01E40FF51F79
:104EA000E451FB4F208130E0092E02C03695279552
:104EB0000A94E2F721703327042E01C0220F0A94CE
:104EC000EAF7822B4F5F5F4F4330510531F708956A
:104ED00080E008959E3F51F12BE0929F800D1124B8
:104EE000E82FE695E695E695877051E001C0550FED
:104EF0008A95EAF783E0E89FF0011124E451FB4F23
:104F000020E030E070E04081CB01022E02C0969597
:104F100087950A94E2F781708195842785238427F9
:104F200081932F5F3F4F2330310569F708958093B8
:104F3000EB040C94E82421E030E001C0220F8A95B4
:104F4000EAF720958091EB0482230C94972721E0C7
:104F500030E001C0220F8A95EAF78091EB04822BA2
:104F60000C94972780935A050C94E82410925605C8
:104F700086E0E0E0F5E0DF011D928A95E9F70C9408
:104F8000E824CF93DF93CDB7DEB760970FB6F894E0
:104F9000DEBF0FBECDBF29873A874B875C876D8701
:104FA0007E878F87988BCE0109960E946525811197
:104FB00051C088E0FE013996DE01119601900D92F4
:104FC0008A95E1F779856A854C855D85411551059E
:104FD00031F06F3F31F481E07F3F19F403C081E08D
:104FE00001C080E080FD36C0A0910E05B0E0CD018B
:104FF00001968770992720914F0530E0821793071B
:1050000081F179836A835D834C8393E0AA0FBB1F90
:105010009A95E1F7A15FBA4F98E0FE0131960190B1
:105020000D929A95E1F780930E050E94AF2D12C064
:1050300028E0829FC0011124815F9A4F0E9465255C
:105040008823E1F080914F0590E0019687709927C1
:1050500080934F0580914F0590910E058913E8CFFD
:105060000DC00E94B62710920E0510924F05E6E083
:10507000F5E088E0DF011D928A95E9F760960FB6AA
:10508000F894DEBF0FBECDBFDF91CF910895882386
:1050900041F08095909155058923809355050C9496
:1050A000182D0895882339F090915505892B809308
:1050B00055050C94182D0895882321F00E94112D78
:1050C0000C94182D0895882339F090915605892B5A
:1050D000809356050C94182D0895882309F453C025
:1050E000682F823869F40E94EC1981FF4CC069E393
:1050F0008EEF94E00E94A6190E94182D69E30EC05D
:10510000833891F40E94EC1980FF3DC063E58EEF77
:1051100094E00E94A6190E94182D63E58EEF94E09A
:105120000E9499190C94182D843869F40E94EC1986
:1051300082FF29C067E48EEF94E00E94A6190E94C6
:10514000182D67E4EBCF8CEF860F813A38F380E2BD
:10515000860F883048F4677081E001C0880F6A9537
:10516000EAF70E94112DDECF8BE5860F833020F405
:1051700080E090E00C94D619685A673120F480E002
:1051800090E00C94C0190895CF93882309F496C039
:10519000C82F8238B1F40E94EC1981FD8FC069E3F9
:1051A0008EEF94E00E94A6190E94182D2FEF81EE39
:1051B00094E0215080409040E1F700C0000069E396
:1051C00017C08338E1F40E94EC1980FD77C063E5D5
:1051D0008EEF94E00E94A6190E94182D2FEF81EE09
:1051E00094E0215080409040E1F700C0000063E56A
:1051F0008EEF94E00E949919CF910C94182D843869
:10520000B1F40E94EC1982FD59C067E48EEF94E07E
:105210000E94A6190E94182D2FEF81EE94E02150D4
:1052200080409040E1F700C0000067E4E1CF8CEFE0
:105230008C0F813A80F4E0E0F5E086E095E0219182
:10524000C217A1F18E179F07D1F76C2F8EEF94E054
:105250000E94A619D1CF80E28C0F883068F4C77005
:1052600081E090E001C0880FCA95EAF79091560559
:10527000892B80935605C0CFEBE5EC0FE33040F46B
:10528000F0E0EC51FE4F808190E0CF910C94D61964
:10529000C85AC73198F4EC2FF0E0EE0FFF1FE95128
:1052A000FE4F80819181CF910C94C0196C2F8EEFAD
:1052B00094E00E9499190E94182DC7CFCF910895AC
:1052C0001F93CF93DF93182F893319F0C9E1D0E0F2
:1052D00002C0C0E5D0E0812F0E94C4288FE99FE082
:1052E0000197F1F700C000002197C1F7812FDF91EE
:1052F000CF911F910C946D2880E008959091200229
:1053000092FF0DC0282F2871283019F4877F846000
:1053100006C0282F2471243011F48B7F886093FFFE
:105320000DC0282F2871283119F4877E846106C0AA
:10533000282F2471243111F48B7E88612091210261
:1053400020FF0DC0382F3871383019F4877F816005
:1053500006C0382F3171313011F48E7F886021FF03
:105360000DC0282F2871283119F4877E816106C06D
:10537000282F2171213111F48E7E886194FD877E62
:105380000895F894E82FE295EF70F0E031A1282F0E
:105390002F7081E090E001C0880F2A95EAF7982FDE
:1053A0009095932391A392A1892B82A37894089539
:1053B0008F929F92AF92BF92CF92DF92EF92FF9225
:1053C0000F931F93CF93DF93CDB7DEB728970FB618
:1053D000F894DEBF0FBECDBFAE014F5F5F4F7A01C5
:1053E00088E0DA011D928A95E9F702E211E06A018C
:1053F000AA24A394B12CF80180818F3F09F44DC0F9
:10540000F894E82FE295EF70F0E021A18F70A501EC
:1054100002C0440F551F8A95E2F7CA01922F982BBC
:1054200091A392A18095892382A3789400C0E6E29B
:10543000F1E020E030E0812C912C81918F3FC1F090
:10544000A82FA295AF70B0E090964C9150E08F706D
:10545000DA0102C0B595A7958A95E2F7A0FD08C0CC
:10546000C501022E02C0880F991F0A94E2F702C0FC
:1054700080E090E0882A992A2F5F3F4F2B3031053A
:10548000E1F6F80180818F3F11F00E94C129F0EA16
:10549000FA95F1F7D6018D929C920F5F1F4FB2E003
:1054A000CB0ED11CE1E006321E0709F0A4CF48E084
:1054B00050E0B70182E292E00E94363411E000979A
:1054C00009F410E0892B89F088E0F701A2E2B2E04C
:1054D00001900D928A95E1F781E080935D050E942D
:1054E000641990935C0580935B0580915D0588232A
:1054F00051F180915B0590915C050E9449190597D7
:1055000010F18091220290912302909338038093AE
:105510003703809124029091250290933A0380935F
:105520003903809126029091270290933C03809347
:105530003B03809128029091290290933E0380932F
:105540003D0310925D0580911201882341F1809105
:10555000BA049091BB04009711F10E94491920915F
:1055600014043091150428173907C8F49091B80431
:105570008091B904981759F00E94A41A109215044A
:10558000109214041092BB041092BA0408C00E9436
:10559000261A1092BB041092BA040E94851A812F19
:1055A00028960FB6F894DEBF0FBECDBFDF91CF9126
:1055B0001F910F91FF90EF90DF90CF90BF90AF9031
:1055C0009F908F900895CF93DF938238910569F172
:1055D000B0F48133910509F46FC048F48932910524
:1055E00009F465C08A32910509F46BC08AC085331D
:1055F000910509F457C089339105B9F082C0833E03
:10560000910571F138F4803E9105B1F0823E91052B
:1056100011F177C0863E9105B9F1873E9105C9F138
:10562000843E910509F06DC024C02091200220FD28
:1056300053C021FD51C065C08091200280FD46C04D
:105640008091210280FF48C08091200284FD3FC1EB
:1056500083EE90E03EC18091200282FF3AC0F4CFF9
:105660008091200282FD35C08091210280FD34C0EE
:10567000EBCF8091210281FF35C08091200284FD13
:1056800026C187EE90E025C18091200283FF27C0CC
:10569000F4CF8091200283FD22C08091210281FD00
:1056A00021C0EBCF8091200285FD1FC021C08091D9
:1056B000200285FD1DC019C08091200286FD1BC0FF
:1056C0001DC08091200286FD19C015C089E390E0BD
:1056D00000C182EE90E0FDC080EE90E0FAC086EE60
:1056E00090E0F7C084EE90E0F4C089E290E0F1C071
:1056F00085E390E0EEC08AE290E0EBC081E390E0C9
:10570000E8C0811532E5930708F069C0811541E5CD
:10571000940728F0982F8827816F906ADAC0883E16
:10572000910568F5803E910508F0D3C0883A91054F
:10573000B8F4853A910548F0855AE82FF0E0EC512D
:10574000FE4F808190E09064C4C08130910509F4DF
:10575000BBC008F4BCC08430910508F4B8C0B9C01F
:105760008F3B910508F0B3C0885AE82FF0E0EE0FA8
:10577000FF1FE951FE4F808191819464AAC0811579
:1057800020E59207F0F09C0174E0369527957A9514
:10579000E1F7922F9370482F437021E030E002C070
:1057A000220F331F4A95E2F73C68392B8F70982FF0
:1057B0009695969540E2949FC0011124822B932BDD
:1057C00088C0811530E4930718F09F70906A81C0FB
:1057D0009C013A9521153F4108F47BC078C0EC014B
:1057E000C11586E5D807E8F5C11525E5D20748F0CB
:1057F0008C2F0E947E298F7190E0982F88279062CD
:1058000068C0C11534E5D30728F09C2F8827846F22
:10581000906A5FC0AE01437055272C2F26952695C0
:10582000C115D34578F481E090E002C0880F991F3C
:105830004A95E2F740E2249F90011124822B932B9A
:105840009C6847C081E090E002C0880F991F4A958C
:10585000E2F740E2249F90011124822B932B9A6857
:1058600038C0C1152AE5D207F8F4C11539E5D307C8
:1058700090F08C2F8F700E947E2994E0D695C7956A
:105880009A95E1F7CF70D0E0DC2FCC27D0699E014C
:10589000282BC9011EC0C11548E5D407C0F09C2FB4
:1058A0008827806F906A15C0CE019056811590426E
:1058B00070F48D2F8F710E947E29282F2F71CE01B9
:1058C00099279062922B05C081E090E002C080E0B1
:1058D00090E0DF91CF910895CF9384E090E00E9413
:1058E0005833C82F82E290E00E9458332C2F30E0CA
:1058F000A901582BCA01CF91089580E090E00E9441
:1059000060338A3E9E4F11F40C94D21D80E00895BE
:105910006AEE7EEF80E090E00E94943360E082E0E7
:1059200090E00E94763360E083E090E00E9476335E
:1059300010925A0560E084E090E00E94763360E0C7
:1059400082E290E00E94763360E085E090E00E9481
:10595000763360E086E090E00E9476336FEF87E078
:1059600090E00E94763340E050E0BA0188E090E099
:105970000E94883360E08DE090E00E94763340E042
:1059800050E0BA0188E190E00E94883360E087E14E
:1059900090E00E94763340E050E0BA018CE190E064
:1059A0000E94883360E070E080E290E00E949433CF
:1059B00040E050E0BA0188E190E00E94883380E046
:1059C0000E94A51D0E94C31D40E050E0BA018FE077
:1059D00090E00E94883340E050E0BA0183E190E01B
:1059E0000C94883380915905882331F01092590521
:1059F00010925805109257050895CF939091210267
:105A000092FD0DC090915905981749F0C82F0E943A
:105A100064199093580580935705C0935905CF9109
:105A20000895809590915605892380935605089591
:105A30009091560580915505892B90915405892B9D
:105A40008093FE0480915905882311F10E94641906
:105A50002091570530915805821B930B883893414C
:105A600010F00E94F22C9091FE0480915905892B30
:105A70008093FE04E0E0F5E097E080E0915029F0AB
:105A800021912223D9F38F5FF9CF81110E94F22C4B
:105A9000E091BE04F091BF04309731F00280F381B1
:105AA000E02D8EEF94E009940895CF93C0912102E8
:105AB000C2FB992790F9981781F080FBC2F9C09337
:105AC00021026091200284E090E00E9476336C2FE6
:105AD00082E290E0CF910C947633CF9108951092AA
