:100000000C94D7040C941E050C941E050C941E052C
:100010000C941E050C941E050C941E050C941E05D4
:100020000C941E050C941E050C942B170C9467164B
:100030000C94411E0C941E050C941E050C941E0578
:100040000C941E050C941E050C941E050C941E05A4
:100050000C941E050C9407190C941E050C941E0597
:100060000C941E050C941E050C941E050C941E0584
:100070000C941E050C941E050C941E050C941E0574
:100080000C941E050C941E050C941E050C941E0564
:100090000C941E050C941E050C941E050C941E0554
:1000A0000C941E050C941E050C941E054C08730838
:1000B00078087D08820887088C08910896089B08B4
:1000C000A008260926095F095F09C109FC0AFC0A84
:1000D000FC0ADF09530A640A640A6D1183118A114C
:1000E000C211D311DE11EF11021245124A12A412ED
:1000F000A412A41252126F1496144916961449169B
:10010000E2140515491606161616AE19AE19C119D0
:10011000C119B719C119C119C119AE19AE19BC1944
:10012000C119C119BC192E200000047F3F1F643281
:1001300014643214783C1E1E140A05FD377A585A8E
:10014000000004E6D6B44602002101160000007447
:100150002FE5A3E008C1023E5D003D8889C6543604
:10016000C3174FE4EF0A3F668DD105C152178BD3F9
:1001700046CB52E4EC954BB123C8125A02224DDD16
:100180001F698C16D9EF45F663D31EB962E990A5B5
:10019000DEAFF6BD5DE5A97C5978FAA26B0C735110
:1001A00028BDCBC80F1011DF54EC7A78C585B42276
:1001B000AF257346DBA3E7CFF6BCA26DFA873B8D74
:1001C00044BD90D32AFFC33E741636CCA02CE50C58
:1001D0006D60F1267D543C6634873A0183364BF5D9
:1001E000DCB4A11C9FF200B12CDA3FDDF57CFC9160
:1001F000C96664ABF48D3B32942C22706E35CF0609
:10020000E7F954289FF32FAF48E8B47E5CFB01E583
:100210005AB01FADCB6D45E7AD5A08D93CE762C86F
:10022000361DC4E0996926BEDF20B2CD4C6E39F48C
:100230006F2C699ABA16BCEAD5956971642D72EB78
:100240002FDA0FF4C86FC92D9D701896D0746969A4
:1002500085373D179BEE43976F4529FC81C8940372
:100260001A4282AF8A28568855C075CF441AC66193
:10027000563DC489E6E2B114CD2073FAF993C0D794
:10028000BEB728B3F0868E21E84C687327DBFC28C4
:10029000B81EBB74299D78B8606D3B6AADE35541CB
:1002A000B7548877F09EA3329F102995CF82A482FD
:1002B0009649D25BD65439809D426C65491AE14D0E
:1002C000AC2B4C9CCB7CAA27735A3792281A104926
:1002D000FDB3BD1FD0943262E5B9454AEF53AD2E50
:1002E0006E67991ED69A3A4419FBE8921D83FB1259
:1002F000317F6E67B78EAA3F172C81E537552EF6F2
:1003000056913C5ACE8492305FC3B74656AFB3FC89
:10031000718447F4CC104C01D48368C4CF877794A0
:100320004F468DDD8950A9D237392940A6D8E0CF74
:100330001C41E35E00CA7B8A9D59710C72544F4781
:1003400019AC0464E914E02575C2D8EFC5E304A331
:100350001C7499381875A5D418FD6F4CB6C745F1B3
:1003600000E910CBC248832B7413608E473719798C
:10037000BED8A5FF1A5BADA850AEDF064DD9BC4A6A
:100380005FF794ACBEC53FA141850D3FB3EFF0369A
:10039000ADF1661F3A49BC4C0000005A861A49501C
:1003A0001E6BF50001DA04C21100009EA2D044B118
:1003B000C467FB020000000004595A05010980A12E
:1003C00001850319012AB700150126B700950175AB
:1003D000108100C0050C0901A101850419012AA0A2
:1003E00002150126A002950175108100C00660FF6C
:1003F0000961A1010962150026FF00952075088199
:10040000020963150026FF00952075089102C005BA
:10041000010906A101050719E029E7150025019545
:1004200008750181029501750881010507190029E8
:10043000FF150026FF0095067508810005081901C3
:100440002905950575019102950175039101C00972
:10045000025B00030100A0FA09040000010301018E
:100460000009211101000122400007058103080055
:100470000A09040100020300000009211101000122
:100480002222000705820320000107050303200044
:10049000010904020001030000000921110100010B
:1004A0002232000705840320000A12010002000026
:1004B0000008FEFE51580100010203011C037600F2
:1004C000690061006C003A00660036003400630089
:1004D000320062003300630000003A0373006100E1
:1004E000640065006B006200610072006F007500BF
:1004F0006400690020006200610072006F00620009
:100500006F00720064005F00620079006F006D0090
:100510006300750000001A03730061006400650049
:100520006B006200610072006F007500640069007A
:100530000000040309042223252628292A2C2D2F14
:100540003032333536383A3B3D3E404243454749E9
:100550004A4C4E5051535557595A5C5E606264661E
:1005600068696B6D6F71737577797B7D7F8183852A
:1005700087898A8C8E90929496989A9C9E9FA1A32C
:10058000A5A7A8AAACAEAFB1B3B4B6B8B9BBBCBE50
:10059000BFC1C2C3C5C6C7C9CACBCCCDCED0D1D2CC
:1005A000D2D3D4D5D6D7D7D8D9D9DADADBDBDBDCCE
:1005B000DCDCDCDCDDDDDDDDDCDCDCDCDCDBDBDB7A
:1005C000DADAD9D9D8D7D7D6D5D4D3D2D2D1D0CEDA
:1005D000CDCCCBCAC9C7C6C5C3C2C1BFBEBCBBB9DF
:1005E000B8B6B4B3B1AFAEACAAA8A7A5A3A19F9E5D
:1005F0009C9A98969492908E8C8A89878583817F25
:100600007D7B79777573716F6D6B69686664626005
:100610005E5C5A5957555351504E4C4A49474543D1
:1006200042403E3D3B3A3836353332302F2D2C2A6E
:1006300029282625232214001A0008001500170077
:100640001C0018000C00120004611668076409629F
:100650000A000B000D720E740F781D001B000600BF
:100660001900050011001000360037000153025335
:100670000151280034002A002C00025103530000CD
:10068000000000002A0034001300337138000453C6
:100690001E021F022002210222022302240225023E
:1006A00026022900010001000100010001002D02C5
:1006B0002E022F0239003502010001000100010065
:1006C00001000100310201000100010001000100F0
:1006D0004C000100035101000000000000004C002C
:1006E000010027023002340201001E001F0020001A
:1006F0002100220023002400250026005000510084
:1007000052004F002B0001002D002E002F00E000B2
:100710003500E300E200815F845F825F835F310028
:10072000010001000351010001000100010001006E
:10073000010000000000000001000100270030005F
:1007400034000100C25CC45CC35C010010503A007C
:100750003B003C003D00CB5CC55CC75CC95C010054
:100760003F00400041004200CC5CC65CC85CCA5CF3
:1007700001004400450001000100010001000100EA
:100780000100010001000100010001000000000063
:100790000000010001003E004300005C0100010078
:1007A0000100010001000100010001000100010041
:1007B0000100010001000100010001000100010031
:1007C0000100010001000100010001000100010021
:1007D0000100010001000100010001000100010011
:1007E0000100010001000000000000000100010004
:1007F00001000100010001000000000000000000F5
:1008000000000000000000000000000000000000E8
:100810000000000000000000000000007E0F00D477
:10082000FFFFFFC70000007800000000000000008C
:100830002A2B28000000000000000000000000003B
:1008400000000029000000002C1E34202122243446
:100850002627252E362D3738271E1F202122232418
:1008600025263333362E37381F0405060708090AB4
:100870000B0C0D0E0F101112131415161718191A50
:100880001B1C1D2F3130232D350405060708090ACE
:100890000B0C0D0E0F101112131415161718191A30
:1008A0001B1C1D2F3130354C0001010101010101DC
:1008B0000101020202020202020202030303030315
:1008C00003030304040404040404050505050506E4
:1008D00006060606070707070708080808090909A2
:1008E000090A0A0A0B0B0B0C0C0C0D0D0D0E0E0E4B
:1008F0000F0F0F10101111111212131314141515DC
:1009000016161717181819191A1A1B1B1C1D1D1E4D
:100910001E1F2020212222232424252626272829A1
:10092000292A2B2C2D2D2E2F3031323233343536CF
:100930003738393A3B3C3D3E3F40414243444546CF
:100940004748494A4C4D4E4F5051535455565859AB
:100950005A5B5D5E5F616264656668696B6C6D6F52
:100960007072737577787A7B7D7E808283858788C5
:100970008A8C8E8F91939596989A9C9EA0A2A3A5FF
:10098000A7A9ABADAFB1B3B5B7BABCBEC0C2C4C600
:10099000C9CBCDCFD1D4D6D8DBDDDFE2E4E7E9EBBC
:1009A000EEF0F3F5F8FAFDFFFFAA7F5540001124A1
:1009B0001FBECFEFDAE0DEBFCDBF04B603FE27C017
:1009C0008091E6039091E703A091E803B091E903D9
:1009D0008730904BA740B04BD1F41092E6031092B1
:1009E000E7031092E8031092E90314BE84B7877FEF
:1009F00084BF0FB6F894A8958091600088618093B9
:100A00006000109260000FBEE0E0F8E3099511E08D
:100A1000A0E0B1E0E4E9F1E602C005900D92A6394C
:100A2000B107D9F723E0A6E9B1E001C01D92A63EC7
:100A3000B207E1F70E94660C0C94C8300C940000D9
:100A40008F929F92AF92BF92CF92DF92EF92FF92DE
:100A50000F931F93CF93DF9300D000D0CDB7DEB7B5
:100A6000FC018081918123813481232B31F09F3FD0
:100A700031F491E08F3F19F403C091E001C090E0A0
:100A800090FD13C76F0161E0CF010E94612A8C01C4
:100A9000F6018281882309F49AC0980122513F45CA
:100AA0002031310508F07BC08FEF93E00E94B52F15
:100AB00081117FC03EEEF32EF00E01E612E0FF2022
:100AC00071F00115F4E01F0709F473C0C8010E941A
:100AD000B52F811101C0FA940F5F1F4FF0CF19821B
:100AE0001A821B821C82AA24AA9478012FEFE21A90
:100AF000F20AC8010E94B52F89831A82882309F45B
:100B000058C0813009F046C0480182E0880E911C2F
:100B1000C7010E94B52F8A83882309F44AC09FEF3A
:100B2000980F933060F4780193E0E90EF11CC40152
:100B30000E94B52F8B8381112DC08701D6CF8430C1
:100B400011F07401FACFC4010E94B52FB82E7801BC
:100B5000E4E0EE0EF11CC80103960E94B52FBB2005
:100B600041F1882331F1282F30E021503109A29E34
:100B7000A001A39E500D11248B2D90E00197840FAE
:100B8000951F0197D0F2EFE9FFE03197F1F700C030
:100B90000000F7CFCE0101960E94062ACECF003189
:100BA0009FE5190709F04CC581E00E94071C0E94CF
:100BB0007E138091DB03877009F477C6F60182818A
:100BC000882309F472C682E00E94C7286EC60031ED
:100BD000FFE51F0711F481E005C001312FE5120781
:100BE00021F482E00E94FB1BE2CF909198019111C9
:100BF00005C090919B01992309F4B7C09801305624
:100C0000211590E2390720F0305E2115304140F483
:100C1000F6019581907F09F4A8C07801FF2401C0F6
:100C20007801970130542115354108F49EC0909108
:100C30009B01923021F5882369F08091DE03982F83
:100C4000927219F06894F1F80FC086FF0DC024E18C
:100C5000F22A0AC0C70195558F3F910511F008F09F
:100C6000D0C580E00E944E2881E080939B01F092E5
:100C70009A01E09299018FEF809300019ACF882327
:100C800009F4BFC5913009F05FC0809100019CE27A
:100C9000E916F104D9F4882329F00E94EE2C109271
:100CA000000187CF8091990190919A0195558F3FCE
:100CB000910509F018F40E94432803C08AE20E94BB
:100CC000C01D10929B010E943E2D4FC0EAE2EE161D
:100CD000F10421F481508093000126C087FD34C0C7
:100CE00081110BC08091990190919A0195558F3F88
:100CF000910509F010F40E94EE2C809100018F5FA5
:100D000080930001FDE2EF16F10471F040F484E0FD
:100D1000E81AF10894E2E916F10480F405C0EDE266
:100D2000EE16E2E0FE0651F4F6018281882309F412
:100D300068C58091DE03811114C065C1F60182810E
:100D4000882309F45EC50DC09AE2E916F10489F31F
:100D500008F09CC5F4E0EF1AF10824E2E216F10471
:100D600040F30E943E2D10929B010138FFE51F07C2
:100D700079F4F60182818823C1F081E080939801A3
:100D80000E94BD1E81FD11C089E30E94C01D0DC0DF
:100D900002382FE5120708F0D9C40933110509F00C
:100DA00056C4F6018281811139C1F60192819923DD
:100DB00009F455C11092D6020230FCE51F0708F471
:100DC00038C106312CE5120738F098012A5F3C45FE
:100DD0002930310508F02DC10E94BD2790939E0156
:100DE00080939D0100318CE5180709F4C3C008F019
:100DF00041C00830ECE51E0709F49AC0F0F4043055
:100E00002CE5120709F487C068F402309CE5190745
:100E100009F477C003301C4509F0E5C080919D01BD
:100E2000826076C00630FCE51F0709F46EC008F04A
:100E30007BC080919D0188606BC00C308CE51807E9
:100E400009F485C068F40A30ECE51E0709F474C0A3
:100E500008F079C00E94161C80919D01806858C0DE
:100E60000E302CE5120709F476C008F07FC080919F
:100E70009D018BC00B3F9CE5190709F44FC018F585
:100E80000331FCE51F0709F47DC078F401318CE5DE
:100E9000180709F473C002311C4509F0A4C00E9470
:100EA000161C80919D018F7733C00531ECE51E073C
:100EB00009F472C008F486C00A3F1C4509F093C0CB
:100EC00080919E013EC00F3F8CE5180709F45FC07A
:100ED00058F40D3FECE51E0709F444C008F43FC088
:100EE00080919E0182602DC001302DE5120709F42A
:100EF00075C008F45DC002301D4509F074C060E0A3
:100F00006EC080919D01816003C080919D018061D0
:100F100080939D0168C080919D0111C080919E01C8
:100F2000826080939E015FC080919D018062F0CFBE
:100F300080919D018064ECCF80919D0188608460E8
:100F4000E7CF8160EECF80919D018E7FE1CF8091D0
:100F50009D018D7FDDCF80919D01877FD9CF8091CD
:100F60009E0118C080919E018D7FDBCF80919D01F5
:100F70008F7ECECF80919D018F7DCACF80919D01C4
:100F80008F7BC6CF80919D01877F8B7FC1CF809162
:100F90009E018D7F8E7FC5CF80919D0182FB222790
:100FA00020F991E0922790FB82F990FB83F9B0CF72
:100FB00080919E01982F909591708E7F892B90FB48
:100FC00081F9AFCF0E94161C80919D0187FB2227DB
:100FD00020F991E0922790FB87F99ACF61E08EE0AB
:100FE00090E00E94C92F60919D0110919E0184E0C4
:100FF00090E00E94C92F612F82E290E00E94C92FE9
:101000000E94161CD6CD0138FFE51F0709F4B1CEAA
:1010100008F09CC30933110509F019C38091AA0196
:10102000882319F01092AA01C0CE81E08093AA0112
:10103000BCCE8091DE030631ECE51E0709F58A7A05
:1010400091E009F490E090939C01882311F065E30E
:1010500001C069E286E893E00E94771E0EC0063167
:101060001C4509F0A7C080919C01882309F40CC499
:1010700065E386E893E00E946A1E0E94692899CD84
:101080008272F801E25CFC45EB30F10508F05FC0CC
:10109000EA5AFF4F0C945D308091030280FF1BC021
:1010A0008E7F80930302609103027091040280910D
:1010B0000502909106020E94732D1092FF01EFEF3E
:1010C000F0E722E0E150F0402040E1F700C00000EE
:1010D0000E94D8226ECD81608093030261E08695E4
:1010E0000E944E2F66CD49E85FE262E97FE22CC0A4
:1010F00042E95FE269E87FE227C04CE35FE265E432
:101100007FE222C045E45FE26CE37FE21DC044E27F
:101110005FE260E37FE218C040E35FE264E27FE207
:1011200013C04CE05FE268E17FE20EC048E15FE29D
:101130006CE07FE209C045E85DE266E97DE204C05B
:1011400046E95DE265E87DE20E94BC2232CD99234A
:1011500089F10A358DE5180741F150F40115ECE5E8
:101160001E07A9F00E3D1C4529F50E94D92721CD67
:101170000B352DE51207D9F00C351D45D9F48091BA
:101180009E0182FB882780F991E0892711C00E9487
:10119000161C9FEFE4E3FCE09150E040F040E1F7E3
:1011A00000C000000E94E31804CD81E001C080E08F
:1011B0000E94A628F601868197810097B9F4F6016E
:1011C000828100811181882349F0C8010E9456194B
:1011D000F82E682FC8010E94CA1B04C0C8010E94D3
:1011E0009A1BF82EB8018F2D0E940A220E943426E5
:1011F000F82E192FF601E280058102950F7080917B
:10120000DB03877099F0EE2089F0892F807F80348E
:1012100021F080E28F0D883048F082E00E94C728DC
:101220008091DB038770BB24B3948111B12CA12E74
:10123000A2948FE0A8228A2D90E08C30910508F0CE
:10124000DBC1FC01EF59FF4F0C945D30812F807F93
:101250001F70882311F01295107FEE20B9F0112332
:1012600009F4ACC180E28F0D883010F0F11006C097
:101270009091DE03192B1093DE0305C09091DD03DE
:10128000192B1093DD030E94692898C18F2D0E94AD
:10129000CD1C112309F4B0C180E28F0D883010F00D
:1012A000F11004C0812F0E94622806C01095909111
:1012B000DD0319231093DD030E9469289DC1812F4E
:1012C000807F1F70803211F01295107FFF2021F077
:1012D000F1E0FF1691F13BC0EE20D9F00023A9F018
:1012E000013031F48091E103812B0E944E2884C1AA
:1012F000053059F40E9443288091D80318131093A5
:10130000D803812F0E94C31C77C18091E103812BF8
:10131000F9CF002349F0013069F48091DE03812385
:1013200009F46AC10E94FA280E944328812F0E9472
:10133000BC1C62C10530C1F75FC1EE2021F0063050
:1013400008F05AC1DECF053008F056C1EFCFEE20CD
:1013500019F00023B1F232C1002341F329E3F21264
:1013600008C08FEF97EEE3E081509040E040E1F756
:101370003EC1FFE728E381E0F15020408040E1F7E3
:1013800036C1812F86958695837019F0813061F082
:1013900033C1EE2021F08F2D912F937002C080E099
:1013A00090E00E94A71E2EC1EE2021F08F2D912FDC
:1013B000937002C080E090E00E94911E23C1812FB3
:1013C0008370A9F5E1101CC14F2D429546954770D9
:1013D000440F440F8F2D8F7090E09C01042E01C0AC
:1013E000220F0A94EAF7F4FE08C08FE090E001C0F3
:1013F000880F4A95EAF7809501C080E0169516950A
:101400001370123069F088F49091E203113019F0F2
:10141000822B892302C0922B892B0E94121CF0C0C0
:10142000822B9091E2038927F8CF822BF6CFEE2012
:1014300019F0812F817001C08695882309F4E0C0DE
:101440004F2D429546954770440F440F8F2D8F7056
:1014500090E09C01042E01C0220F0A94EAF7F4FEEA
:1014600008C08FE090E001C0880F4A95EAF78095A8
:1014700001C080E0169516951370123059F078F47B
:101480009091E501113019F0822B892309C0922B2C
:10149000892B06C0822B9091E501892701C0822B00
:1014A0000E94F71BADC01F70EE2039F0812F0E9403
:1014B000071C8F2D0E94C31CA3C08F2D0E94BC1C33
:1014C000812F0E94FB1B9CC092EFF91659F19F15CA
:1014D00038F0E0EFFE1659F0F1EFFF16E1F069C0C9
:1014E00023EFF21631F184EFF81681F162C0EE209D
:1014F00071F0053008F080C01F7181E090E001C0FC
:10150000880F1A95EAF79091E50189271CC00630EB
:1015100008F072C0F1CFEE2039F0812F8F710E9458
:10152000071C6AC0EE20C9F3812F8F710E94FB1B3C
:1015300063C0EE2039F01F7181E001C0880F1A9559
:10154000EAF701C080E00E94F71B56C0EE20D1F000
:101550008091D8030E9462288091DB0387708430D9
:1015600039F40E94C028812F8F710E94FB1B66C036
:10157000053008F063C01F71812F0E94071C63E0D3
:10158000812F10C09091DE038091D803892B809326
:10159000DE03053050F00E94C0280E94FA2864E063
:1015A000812F8F710E94E42849C081E00E94C728E2
:1015B00045C0EE2039F0002309F4AFCF8F2D0E94F3
:1015C000241D1AC0002309F4AFCF99E3F91208C013
:1015D000EFEFF7EE23E0E150F0402040E1F707C0E5
:1015E0008FE798E3E1E081509040E040E1F700C0F0
:1015F00000008F2D0E94CD1C88EF8A0D843010F4DE
:101600000E94BD1EBB20A9F08091DB0380FD11C0AC
:10161000F60112828595859585950E94071CC60165
:101620000E9420058091DB038595859585950E9414
:10163000FB1B60E0C6010E94612A37C1B12CE0CFDC
:101640000131EFE51E0709F0D0CA82E0AECA0038CA
:101650008FE5180709F086C0F6018281882309F416
:10166000A4CB96E2A92E91E0B92E2AE0922EF501A4
:101670008491882309F45AC0813009F04FC0750164
:10168000FFEFEF1AFF0AF7018491813049F47501E9
:10169000F2E0EF0EF11CF70184910E94C01D41C0E1
:1016A000823049F47501F2E0EF0EF11CF7018491EC
:1016B0000E94241D36C0833049F47501F2E0EF0E1C
:1016C000F11CF70184910E94CD1C2BC0843049F598
:1016D0007501F2E0EF0EF11CF701249180E090E03B
:1016E00030E0205331092A30310570F4989EA00172
:1016F000999E500D1124C901840F951FFFEFEF1A19
:10170000FF0AF7012491ECCF009759F0EFE9FFE0D1
:101710003197F1F700C000000197F6CF0E94A02991
:1017200075015701FFEFAF1ABF0AA1CF8091E10306
:1017300081FD3BCB0E943C199093E0038093DF0333
:101740008091E10382608093E1032FCB03389FE512
:10175000190709F460C008F46BC00438FFE51F07DF
:1017600009F476C0033F2CE51207A1F406E221EE4E
:1017700040EE63EF7CE50AC0073DFCE51F0709F07A
:1017800014CB06E221EE41EE67ED7CE5C6010E9436
:1017900024200FCA043F8CE51807A0F4083D9CE5FF
:1017A000190731F407E225EE45EE68ED7CE5EECF52
:1017B000093DECE51E0701F708E221E045EE69ED81
:1017C0007CE5E4CF053F2CE5120731F406E221EE7B
:1017D00042EE65EF7CE5DACF053F8CE5180730F483
:1017E00007E225EE44EE64EF7CE5D0CF063F9CE5B2
:1017F000190709F0DACA07E225EE46EE66EF7CE546
:10180000C5CF01382FE5120709F4B3CA98F10338A0
:10181000EFE51E0749F4F6018281882309F4C5CA61
:1018200082E080939B013EC00338FFE51F0758F418
:10183000F6018281882309F4B8CA81E080939B0174
:101840008DE290E00FC004382FE5120709F08ACF2F
:10185000F6018281882309F4A8CA81E080939B0164
:101860008DE292E090939A01809399018FEF80939B
:10187000000118C00933110509F497CA00389FE523
:10188000190709F4E9CE6ECF69E2F3CB8DE2E816D1
:10189000F10409F44ECA9DE2E91692E0F90609F056
:1018A00060CA47CAF601928185CA0F900F900F90C7
:1018B0000F90DF91CF911F910F91FF90EF90DF90EC
:1018C000CF90BF90AF909F908F900895CF93DF936C
:1018D000CDB7DEB7E4970FB6F894DEBF0FBECDBF2D
:1018E00084B7877F84BF0FB6F894A8958091600075
:1018F000886180936000109260000FBE90E080E8E5
:101900000FB6F89480936100909361000FBE85B785
:10191000806885BF85B7806885BF85EC94E2909329
:101920009701809396010E941D220E94AB160E948F
:10193000CA168091E20084608093E20078948091DE
:10194000E4018823A1F01091E9001F709091EC0050
:10195000892F817090FD80E8182B1092E90080910A
:10196000E80083FD0E9489131F701093E90082E054
:1019700084BD93E095BD9AEF97BD80936E000E9461
:10198000A322811102C00E94942203E211E078E2B6
:10199000E72E71E0F72EF80181918F018F3F11F052
:1019A0000E940A25E016F106B1F708E211E061E3B2
:1019B000E62E61E0F62EF80181918F018F3F11F044
:1019C0000E940A25E016F106B1F7EFE9F1E0ADEB70
:1019D000B1E0119211921D921D9221E0E93AF207B5
:1019E000C1F70E94CE27811102C00E94D92782E050
:1019F00090E00E94B52F8093AE010E94BD27909386
:101A00009E0180939D010E9421258FE39CE901970F
:101A1000F1F700C000000E9421258091BD0180FFE8
:101A200008C06FEF7FEF80E090E00E94E72F0E94F8
:101A3000E31883E090E00E94B52F0E94121C809171
:101A4000A901811133C00E94CE27811104C00E94D8
:101A5000D9270E94A72D88E090E00E94BD2F6093B7
:101A600003027093040280930502909306026E7F36
:101A700071F40E94A72D88E090E00E94BD2F609332
:101A800003027093040280930502909306020E9461
:101A9000592D1092FF018091030280FF04C060E085
:101AA00086950E944E2F81E08093A9011092AA0191
:101AB00081E091E0909382038093810358E1252E89
:101AC000312C8091E401853009F073C000E112E10E
:101AD0008091E401853009F057C08091E4018430A1
:101AE00009F43FC01092FF018091AC01811117C031
:101AF00091E09093AC0180910302982F91709093A4
:101B0000AB018E7F80930302EFEFF0E722E0E1501C
:101B1000F0402040E1F700C000000E94D82210925F
:101B2000850330E40FB6F894A895209260000FBEAC
:101B30003093600083B7817F846083BF83B7816007
:101B400083BF7894889583B78E7F83BF0FB6F89450
:101B5000A895809160008861809360001092600079
:101B60000FBE8091DA01882309F4B2CF0E942125AB
:101B7000EDEBF1E081919191892B09F0EAC481E0CC
:101B8000E73CF807B9F7A4CF0E94161C0E94BD1EBF
:101B90001092AC018091AB01882349F0809103023F
:101BA00081608093030260E086950E944E2F0E9420
:101BB000C2220E942125882359F08FB7F8944091C2
:101BC000C7015091C8016091C9017091CA018FBFCE
:101BD000AFEAB1E0EDEBF1E000E010E0702F219111
:101BE00031918D919D9182279327009779F160E043
:101BF000EE24E394F12CAC014E215F21452B09F139
:101C00006BA77CA72E213F2181E0232B09F480E0E4
:101C10008DA70E943C198160782F9FA78EA74BA5A6
:101C20005CA56DA58FA50E94982A000F111FF801D1
:101C3000E155FE4F80819181E826F926F182E0820C
:101C40001AC06F5FEE0CFF1C6930A9F60F5F1F4FC3
:101C50000530110519F68FEF88AB89AB1AAA0E94DF
:101C60003C198160782F9CAB8BAB48A959A96AA914
:101C70008CA90E94982A8091FF01882309F493C0BF
:101C80008091FE01E0910302E695E81BE093FA01E2
:101C9000823059F4F0E0E95CFE4FE4910E2F10E041
:101CA0005DE2E52E5EE1F52E59C0863059F4F0E094
:101CB000EC5CFE4FE4910E2F10E04DE1E42E4EE17E
:101CC000F42E4CC0893061F4E695F0E0EF5CFE4FF5
:101CD000E4910E2F10E038E9E32E34E2F32E3EC0FB
:101CE0008F3061F4E695F0E0E25DFE4FE4910E2F57
:101CF00010E028E2E22E24E2F22E30C0853159F4C1
:101D0000F0E0E55DFE4FE4910E2F10E097EDE92E37
:101D100093E2F92E23C08831A1F0833249F4E9E23D
:101D2000F1E0059114918DEDE82E8DE1F82E16C0AD
:101D3000843271F000ED17E0BCEDEB2EBDE1FB2E1F
:101D40000DC008E210E0ABE4EA2EA3E2FA2E06C0D2
:101D500004EF11E0FEE0EF2EF3E2FF2E8091FB0195
:101D6000882361F01092FB010E943C199093F901C5
:101D70008093F8011092FD011092FC010E943C1921
:101D8000E091F801F091F9018E1B9F0B8F3F9F4767
:101D900050F40E0F1F1F1093F9010093F80188EF04
:101DA00091E0F70109950E94BD1E9091AD01891740
:101DB00021F00E94BD1E8093AD018091E40184302A
:101DC00009F07FCE83E08093E9008091E80082FFF4
:101DD00078CE8091E80085FF22C00E940018811112
:101DE0001CC000E210E09E012F5F3F4F790108C048
:101DF0008091F100F70181937F010150110969F091
:101E00008091E80085FDF4CF8091E8008B77809386
:101E1000E8000E940018882399F391E001C090E047
:101E20008091E8008B778093E800992309F449CEEC
:101E3000E090D202F090D3028981E114F10459F0CC
:101E40008E3F09F081C39A819330E0F19550933031
:101E500008F07AC337C08B3009F41CC280F5853096
:101E600009F48EC0B0F4823009F449C030F48130F6
:101E700009F068C31A8289E006C3833009F46FC091
:101E8000843009F05FC34C816B818A810E94DC2120
:101E900075C0873009F482C008F47DC0883009F429
:101EA000BFC0893009F04EC36091030270910402F3
:101EB00080910502909106020E94732D45C38031E6
:101EC00009F42CC18E010F5F1F4F813160F48D30FA
:101ED00009F4C8C008F4C4C08E3009F4C7C08F30FC
:101EE00009F4EEC02FC3823109F41DC108F419C1F1
:101EF000833109F441C18E3F09F4E3C123C38A81D0
:101F0000823009F43CC3833089F0813009F01AC370
:101F10002FB7F8948091C7019091C801A091C90191
:101F2000B091CA012FBFBB83AC8328C08091D0027F
:101F30009091D102892B09F407C3FE013196CE019D
:101F40000B96ADEBB1E02C9111963C911197129646
:101F5000328323833296E817F907A9F7F5C28A81FD
:101F6000823009F0EFC26B817C818D819E810E945D
:101F7000633086E290E00E94C92FE6C29D8306C3CB
:101F80002D813E813227232732274C816B818A8124
:101F90000E940F21D9C20E944521D6C28A81813870
:101FA000B1F050F4803809F0CFC220E04B8160914D
:101FB00005028091040231C0823859F1833809F05A
:101FC000C3C220E0409106026C818B8126C060E094
:101FD0008B810E944E2F9B8180910302911111C031
:101FE0008E7F809303021092FF01FFEF20E732E023
:101FF000F15020403040E1F700C000000E94D8229C
:10200000A3C281608093030260E086950E944E2FF8
:102010009BC28B818093070297C20E946A2E94C252
:102020008A81813891F030F4803809F08DC2809136
:10203000060229C2823889F0833809F085C280916E
:1020400004028B8380910502ACC18091030280FF62
:1020500002C0869518C280E016C28091070213C2A2
:1020600080E12DC281E08A838FE90DC2EA80FB8086
:10207000FE24EF24FE24AC80B12C9DE1A916B1040E
:1020800008F062C26801C7018F599D4F9601201B5D
:10209000310B2A153B0508F057C2EFE9EE16E1E0D7
:1020A000FE0628F40E94B52FF601848302C0F601D3
:1020B0001482FFEFEF1AFF0A2FEFC21AD20AE3CF02
:1020C0008091D0029091D102892B09F43DC2EA801F
:1020D000FB80FE24EF24FE24CC80D12C3DE1C316EE
:1020E000D10408F031C25801C7018F599D4F9501A5
:1020F000201B310B2C153D0508F026C2EFE9EE162A
:10210000E1E0FE0620F4F50164810E94C92FFFEF93
:10211000EF1AFF0A2FEFA21AB20AE6CF0E94972009
:1021200013C285E0CCC1EA80FB80FE24EF24FE24AC
:10213000AC80B12C3DE1A316B10408F005C26801E2
:10214000C70187969601201B310B2A153B0508F025
:10215000FBC1E2ECEE16E1E0FE0628F40E94B52F8A
:10216000F601848302C0F6011482FFEFEF1AFF0A22
:102170002FEFC21AD20AE4CFEA80FB80FE24EF24BC
:10218000FE24AC80B12C3DE1A316B10408F0DCC103
:1021900082ECE81681E0F80608F0D6C182EC91E006
:1021A0008E199F098A159B0508F4CEC1370197E265
:1021B000690E711C8091D0029091D102892B11F08F
:1021C00068015FC0E0FE0FC0C70186960E94B52F70
:1021D00090E0982F88272D81822B81159C4531F422
:1021E0008FEF8D8303C0C12CD12C03C0CC24C394AA
:1021F000D12CC5018E0D9F1D450180FF1BC0F1E054
:102200008F1A910855E0452E512C4C0E5D1E480C3E
:10221000591CC3018A0D9B1D0E94B52FF20120811C
:1022200030E0322F2227282B21153C4519F48FEF5F
:10223000F2018083F801EC0DFD1D2FEFCF01801B13
:10224000910B8815990508F0BBCF848190E0982FF9
:1022500088273581832B81159C4511F424832583A0
:102260003296ECCFE2ECEE16E1E0FE0620F4F60149
:1022700064810E94C92FFFEFEF1AFF0A2FEFC21AE5
:10228000D20AC70187969601201B310B2A153B0500
:1022900048F35AC18091D0029091D102892B09F460
:1022A00053C1CE0101960E945F183FEF81EE94E08A
:1022B000315080409040E1F700C000000E94E318D8
:1022C00043C1EA818E2F90E08E30910508F03CC129
:1022D000FC01E359FF4F0C945D3088E0EBE1F1E045
:1022E000DE01919601900D928A95E1F780E2F80166
:1022F00011928A95E9F784E0898388E0FE01B1961E
:10230000DE011596FBC080E8898382E08A831B8208
:102310001C821AC18C8190E0982F88272B81820F14
:10232000911D092E000CAA0BBB0B35E0880F991FDD
:10233000AA1FBB1F3A95D1F7AC01BD01405E5F4FAC
:102340006F4F7F4F481759076A077B0708F4FCC097
:102350008038F2E09F07A105B10508F0F5C04138CB
:1023600022E052076105710520F040E852E060E08C
:1023700070E0481B590BBC01655C7E4FC8010E9490
:102380009C2FE2C01B810C8140E0602F812F0E94B6
:10239000DF2099838A8341E0602F812F0E94DF2014
:1023A0009B838C83D1C02E813F8132272327322704
:1023B0004D816C818B810E94A720C6C040E250E015
:1023C0006FEF70E0C8010E94C1308091D002898314
:1023D000EA821B821C821D8231E03E83B5C081E00F
:1023E00090E09093D3028093D20282E390E09093A6
:1023F000BC018093BB010E943C199093BA01809369
:10240000B901A2C0EF28B9F18091BD019091BE0140
:102410009C01369527958170182F12238091B90160
:102420009091BA010E942D1985369105F0F0112383
:10243000E1F00E943C199093BA018093B901809118
:10244000BB019091BC0101979093BC018093BB01AB
:10245000892B89F41092D3021092D20281E090E08D
:102460009093D1028093D00206C082E390E09093D3
:10247000BC018093BB018091D00289838091D202FC
:102480008A838091BB018B835FC01092D10210922E
:10249000D0025AC040E250E06FEF70E0C8010E94E5
:1024A000C13052C08B81833061F0843061F1811181
:1024B0004BC080E2F80111928A95E9F788E08A839F
:1024C00043C06C81CE0181962AE0FC0111922A95CD
:1024D000E9F7683060F4FAE06F9FB00111246F5E95
:1024E0007D4F4AE050E00E94A52F80E001C08FEFB1
:1024F00089838AE0FE01B196DE01129601900D9269
:102500008A95E1F721C06C818AE0FE013596DE01F3
:10251000919601900D928A95E1F7683070F42AE067
:10252000629FB00111246F5E7D4F4AE050E0CE0102
:1025300081960E94ED2F80E001C08FEF89830E9479
:102540001D2202C08FEF8983CE0101960E945F1881
:10255000B8CA09BD19BD09B400FEFDCF8091D800ED
:102560008F7D8093D8008091E00082608093E000AE
:102570008091E00081FDFCCF0E94161CA9CA86E272
:1025800090E00E94B52F1B821C821D828E83DCCFBF
:102590008091DC0187FF11C08091E80082FD05C0B9
:1025A0008091E4018111F8CF11C08091E8008B7710
:1025B0000BC08091E401882349F08091E80080FFFE
:1025C000F8CF8091E8008E778093E8000895982FE7
:1025D000973068F59093E900981739F07091EC0006
:1025E0002091ED005091F00003C0242F762F50E091
:1025F00021FD02C09F5FECCF3091EB003E7F309316
:10260000EB003091ED003D7F3093ED003091EB0019
:1026100031603093EB007093EC002093ED00509309
:10262000F0002091EE0027FDE5CF80E008958F7047
:102630008093E90081E008952091E2013091E30167
:102640002617370748F06115710539F42091E80025
:102650002E772093E80001C0B901FC0120E061154C
:10266000710579F18091E4018823F1F18530F1F170
:102670008091E80083FD3CC08091E80082FD2EC07F
:102680008091E80080FFEBCF2091F3008091F20071
:1026900090E0922B6115710551F08830910538F466
:1026A00021912093F100615071090196F3CF21E04F
:1026B000089709F020E08091E8008E778093E80089
:1026C000CECF2111CFCF0AC08091E401882361F0E1
:1026D000853061F08091E80083FD0AC08091E800B8
:1026E00082FFF2CF80E0089582E0089583E00895AC
:1026F00081E0089508958091D00108958091E501C9
:10270000982F9670963011F4886001C0877F0C94E2
:10271000F71B1F93CF93DF93CDB7DEB7AA970FB602
:10272000F894DEBF0FBECDBFECEDF1E08091F1007B
:10273000819341E0E43EF407C9F78091DD018330E5
:1027400009F462C030F4813071F0823009F49CC029
:10275000B3C08A3009F488C08B3009F46DC0893069
:1027600009F0AAC020C08091DC01813A09F0A4C020
:102770008091E800877F8093E8008091E00190914C
:10278000E101892B21F468E081ED91E003C060E074
:1027900080E090E070E00E941C138091E8008B774D
:1027A0008093E80089C08091DC01813209F084C007
:1027B0008091E0019091E101009719F0029709F0F2
:1027C0007BC08091E800877F8093E8008091E800DB
:1027D00082FD05C08091E4018111F8CF6DC0209188
:1027E000F3008091F20090E0922B029729F48091FF
:1027F000F1008B7F813021F48091F1008093D00132
:102800008091E8008B7754C08091DC01813A09F017
:1028100053C08091E0019091E101892B09F04CC0F7
:102820008091E800877F8093E8008091E80080FF36
:10283000FCCF80910B0137C08091DC018132E1F542
:102840008091E0019091E101892BB1F58091E80040
:10285000877F8093E8000E94C8128091DE018093F8
:102860000B010E94161C28C08091DC01813221F5E9
:102870008091E800877F8093E8000E94C8128091D1
:10288000DF018093CF0118C08091DC01813AA1F46F
:102890008091E800877F8093E8008091E80080FFC6
:1028A000FCCF8091CF018093F1008091E8008E777A
:1028B0008093E8000E94C8128091E80083FFE9C17C
:1028C0008091DC019091DD01492F50E04A305105A3
:1028D00008F0DFC1FA01E558FF4F0C945D308038F5
:1028E00021F0823809F0D5C108C08091D9019091BA
:1028F000DA01992389F082600FC08091E0018F7026
:10290000873008F0C6C18093E9008091EB0085FB19
:10291000882780F91092E9009091E800977F9093C2
:10292000E8008093F1001092F1007CC1282F2D7FE8
:1029300009F0AFC1882319F0823061F0AAC18091FB
:10294000DE01813009F0A5C1933009F080E0809369
:10295000DA012EC08091DE0181112AC08091E00150
:102960008F702FEF280F263008F093C18093E90075
:102970002091EB0020FF1CC0933021F48091EB00EC
:10298000806214C09091EB0090619093EB0021E085
:1029900030E0A90102C0440F551F8A95E2F7409329
:1029A000EA001092EA008091EB0088608093EB00CF
:1029B0001092E9008091E800877F8093E8000E94F0
:1029C000C81267C1811165C11091DE011F77809126
:1029D000E3008078812B8093E3008091E800877F7B
:1029E0008093E8000E94C8128091E80080FFFCCF2D
:1029F0008091E30080688093E300111102C082E0BF
:102A000001C083E08093E40144C18058823008F023
:102A100040C12091DE013091DF012C3D53E03507AC
:102A200079F583E08A838AE289834FB7F894DE01DF
:102A3000139620E03EE051E2E32FF0E05093570080
:102A4000E49120FF03C0E295EF703F5FEF708E2F9F
:102A500090E0EA3010F0C79601C0C0968D939D9328
:102A60002F5F243149F74FBF8091E800877F809323
:102A7000E8006AE270E0CE0101960E941C13C0C01B
:102A80008091E0019091E101432F5527433051059A
:102A9000B1F068F44130510509F40AC142305105E2
:102AA00009F0F7C08BE590E0EFE4F4E057C0413265
:102AB000510589F14232510509F43CC0EAC0C9010F
:102AC000992781309105B9F070F082309105D9F0E5
:102AD000039709F0DEC0ECEBF4E0E4918E2F90E078
:102AE000ECEBF4E038C0E2E3F5E0E4918E2F90E007
:102AF000E2E3F5E030C0E6E1F5E0E4918E2F90E00E
:102B0000E6E1F5E028C0EAEDF4E0E4918E2F90E0F4
:102B1000EAEDF4E020C08330910508F0BAC0880FD8
:102B2000991FFC01E65CFE4F0190F081E02D89E0E9
:102B300090E014C08330910508F0ABC0FC01EE0FAB
:102B4000FF1FEC5CFE4F0190F081E02DDC01AF5CDB
:102B5000BE4F8C9190E0009709F49BC02091E80053
:102B6000277F2093E8002091E2013091E3012817AC
:102B7000390708F4C90140E0009789F12091E40188
:102B8000222309F43DC02530D9F12091E80023FD2E
:102B900037C02091E80022FD2FC02091E80020FFDF
:102BA000EBCF4091F3002091F20030E0342B0097FE
:102BB00059F02830310540F444914093F1003196AA
:102BC00001972F5F3F4FF3CF41E02830310509F0E7
:102BD00040E02091E8002E772093E800CDCF41110E
:102BE000CDCF0AC08091E401882351F0853041F0B7
:102BF0008091E80083FD04C08091E80082FFF2CF5D
:102C00008091E8008B778093E80043C0803809F01A
:102C100040C08091E800877F8093E8008091DB01CD
:102C20008093F1008091E8008E77C7CE811131C08A
:102C30008091DE019091DF019927029754F58091F0
:102C4000E800877F8093E8001091DE011093DB019C
:102C50000E94C812111106C08091E30087FD02C0D6
:102C600081E001C084E08093E40142E061EC81E016
:102C70000E94E71242E261EC84E00E94E71242E225
:102C800061EC82E00E94E71242E260EC83E00E9485
:102C9000E7128091E80083FF10C08091E800877FF1
:102CA0008093E8008091EB0080628093EB0005C088
:102CB00082E190E0EAEAF4E051CFAA960FB6F894E8
:102CC000DEBF0FBECDBFDF91CF911F9108951F9240
:102CD0000F920FB60F9211242F933F934F935F9350
:102CE0006F937F938F939F93AF93BF93CF93DF9314
:102CF000EF93FF93C091E900CF708091EC00D82F43
:102D0000D17080FDD0E81092E9008091F000877FBB
:102D10008093F00078940E9489131092E9008091CA
:102D2000F00088608093F000CD2BCF70C093E90055
:102D3000FF91EF91DF91CF91BF91AF919F918F91D3
:102D40007F916F915F914F913F912F910F900FBEA7
:102D50000F901F901895E8EDF0E080818E7F8083C2
:102D60001092E2001092DA001092E100A0EEB0E0C2
:102D70008C9181608C9380818F77808319BCA7EDC3
:102D8000B0E08C918E7F8C9380818F7E80831092B7
:102D9000CE010895CF92DF92EF92FF920F931F938F
:102DA000CF93DF93C8EDD0E088818F7E8883E7EDF5
:102DB000F0E080818160808384E082BF81E0809345
:102DC000CE0188818E7F888302EE10E0F8011082A8
:102DD0001092DA0081EEC82ED12CF6011082888183
:102DE0008F77888388818068888388818F7D8883B6
:102DF00019BC1092E4011092DB011092DA011092DA
:102E0000D90190EEE92EF12CF70180818B7F808330
:102E100088818160888342E060E080E00E94E71260
:102E2000F60180818E7F8083F801808181608083BC
:102E3000808188608083F70180818E7F8083888194
:102E400080618883DF91CF911F910F91FF90EF9068
:102E5000DF90CF9008951F920F920FB60F9211241A
:102E60002F933F934F935F936F937F938F939F9392
:102E7000AF93BF93EF93FF938091E10082FF09C06E
:102E80008091E20082FF05C08091E1008B7F8093FA
:102E9000E1008091DA0080FF2AC08091D80080FF95
:102EA00026C08091DA008E7F8093DA008091D9006D
:102EB00080FF18C080E189BD82E189BD09B400FEB0
:102EC000FDCF81E08093E4018091CE0181110FC09C
:102ED0000E94AB160E94CA168091E2008460809323
:102EE000E20005C019BC1092E4011092CE0180915D
:102EF000E10080FF17C08091E20080FF13C0809145
:102F0000E2008E7F8093E2008091E20080618093F6
:102F1000E2008091D80080628093D80019BC85E0DF
:102F20008093E4018091E10084FF2EC08091E20053
:102F300084FF2AC080E189BD82E189BD09B400FE19
:102F4000FDCF8091D8008F7D8093D8008091E100E3
:102F50008F7E8093E1008091E2008F7E8093E2007B
:102F60008091E20081608093E2008091DB01882300
:102F700011F084E007C08091E30087FD02C081E08A
:102F800001C083E08093E4018091E10083FF27C0CA
:102F90008091E20083FF23C08091E100877F8093CE
:102FA000E10082E08093E4011092DB018091E10076
:102FB0008E7F8093E1008091E2008E7F8093E2001B
:102FC0008091E20080618093E20042E060E080E076
:102FD0000E94E7128091F00088608093F000FF91DA
:102FE000EF91BF91AF919F918F917F916F915F9181
:102FF0004F913F912F910F900FBE0F901F901895FA
:103000002091E4003091E50095E64091EC00842F9A
:10301000817040FF23C08091E80080FD1DC0809139
:10302000E401882399F0853099F08091EB0085FDCB
:1030300011C04091E4005091E5002417350729F3B1
:10304000915011F09A01E1CF84E0089582E0089553
:1030500083E0089581E0089580E008954091E800BC
:1030600042FFDDCF0895EF92FF920F931F93CF930E
:10307000DF937C018B010E940018811119C0E701C8
:1030800001151105A1F08091E80085FD0AC080912D
:10309000E8008E778093E8000E940018882381F36F
:1030A00007C089918093F10001501109E9CF80E0B8
:1030B000DF91CF911F910F91FF90EF900895CF93E3
:1030C0002091E4012430F9F4C091E900CF703091EF
:1030D000EC00232F217030FD20E8C22B22E020934A
:1030E000E9002091E80020FF0BC040E050E060E2E2
:1030F00070E00E9433188091E8008E778093E8009A
:10310000CF70C093E900CF9108959091E40194307D
:1031100029F58093CB017093CD016093CC019093FE
:10312000E9008FEF9091E800815095FD06C095ED84
:103130009A95F1F700008111F5CF8091E80085FFA5
:103140000DC040E050E063E070E08BEC91E00E9445
:1031500033188091E8008E778093E8000895BC01D1
:1031600084E00C948518BC0183E00C948518CF93FF
:10317000DF9321E02093E9002FEF3091E800215008
:1031800035FD06C035ED3A95F1F700002111F5CF78
:103190002091E80025FF14C0EC0140E050E068E019
:1031A00070E00E9433188091E8008E778093E800E9
:1031B00088E0FE01A1EDB1E001900D928A95E1F762
:1031C000DF91CF91089581E08093E00080E28093C9
:1031D000D8001092C9008FE19EE40197F1F700C07A
:1031E000000087E090EBDC018093E6039093E70317
:1031F000A093E803B093E9039CE088E10FB6F8944C
:10320000A895809360000FBE90936000FFCF7894E4
:103210001F920F920FB60F9211248F939F93AF932B
:10322000BF938091C7019091C801A091C901B0914D
:10323000CA010196A11DB11D8093C7019093C801D9
:10324000A093C901B093CA01BF91AF919F918F9193
:103250000F900FBE0F901F9018959C014FB7F894D8
:103260008091C7019091C801A091C901B091CA0194
:103270004FBF821B930B08952FB7F8948091C7011D
:103280009091C801A091C901B091CA012FBF0895C2
:1032900080E090E00E94A71E80E090E00E94911ED6
:1032A0001092DD031092DC030C946928CF92DF9218
:1032B000FF920F931F93CF93DF936C010091E50171
:1032C0008091E203082BC7E0D0E010E0C8010C2E8B
:1032D00002C0959587950A94E2F780FD04C0219776
:1032E000A8F7F12C09C0FC2EB6018C2F0E940A22EF
:1032F0000E943426019799F38F2DDF91CF911F9172
:103300000F91FF90DF90CF900895CF93DF93EC0162
:103310000E945619BE010E940A220E943426DF91A3
:10332000CF910895FC0186819781009719F00E9442
:10333000342604C0808191810E948519292F2F7025
:10334000E92FE295EF704E2F50E0FA013297EE3000
:10335000F105B8F4EB57FF4F0C945D30803F99F0C6
:1033600018F4883E70F40FC0843F59F40CC0883EB6
:1033700050F0813F31F407C0822F8695869586955F
:10338000089580E0089581E008959F92AF92BF92E2
:10339000CF92DF92EF92FF920F931F93CF93DF9321
:1033A000CDB7DEB765970FB6F894DEBF0FBECDBFC1
:1033B0008C0185E0F801DE01519601900D928A950D
:1033C000E1F7F801E28090918E0360918F034091C4
:1033D0009103509192034115510531F06F3F31F443
:1033E00081E09F3F19F403C081E001C080E0F82F25
:1033F000F1709F2E80FD4EC1F80130812181C38084
:10340000D4807EE8A72E73E0B72EF0909003F601EB
:10341000E41BF50BFF2009F4EFC080919303E83C17
:10342000F10508F0AAC0482F407F09F05AC0621386
:103430001BC0931319C06091940370919503F80118
:10344000468157816417750779F4FE2CE1100CC092
:103450008F70806180939303C5010E942005809145
:103460009303F801858353C1CD2831F02F3F31F408
:1034700081E03F3F19F403C081E001C080E080FD9E
:1034800003C081E08E2502C080E090E0F82FF1704B
:10349000FF2E80FF1CC08091D703409196038417B4
:1034A00009F413C190E0FC0153E0EE0FFF1F5A95A1
:1034B000E1F7E956FC4F5181251306C050815313A3
:1034C00003C05281E51203C001968770E8CFFE2C3D
:1034D000EE2009F41CC180919303816080939303D3
:1034E00058C062130FC093130DC0409194035091C4
:1034F0009503F801268137814217530719F4EE200E
:1035000009F4A7C0C8010E949219882381F1EE2016
:1035100071F120919303822F82958F7090E0029732
:10352000A4F080918E0390918F039A8789871B86E0
:10353000DD86CC862E878091940390919503988B9D
:103540008F87CE0109960E94200588E0F801AEE839
:10355000B3E001900D928A95E1F70E940A290AC012
:103560006217C9F0C8010E949219811127C0C801D1
:103570000E942005FF24F394CAC0482F407F81F7A2
:103580008EE893E00E94200588E0F50111928A956B
:10359000E9F7F12CBCC09313E5CF4091940350910F
:1035A0009503F8012681378142175307D9F6E110B8
:1035B000D9CF8583C8010E94200566C0EE20B9F2EC
:1035C00020919303822F82958F7090E002970CF4E4
:1035D000BCCF80918E0390918F039A8389831B8245
:1035E000DD82CC822E8380919403909195039887FD
:1035F0008F83CE010196A7CFE83CF10508F044C0C7
:10360000FE2CEE2009F4B3CF621330C093132EC00A
:103610002091940330919503F801868197812817B2
:10362000390721F59091930390FD17C0892F82955A
:103630008F70282F30E02115310579F095832F30D8
:10364000310541F08F5F982F9295907F85818F7023
:10365000892B8583C8010E94200588E0F801AEE827
:10366000B3E001900D928A95E1F751C0C8010E9424
:10367000921981116ACF80919303816080939303A3
:10368000C8010E94200543C088E0F50111928A9587
:10369000E9F73DC0EE2009F46ACFC8010E949219F3
:1036A000F82E882309F463CF88E0F801AEE8B3E090
:1036B00001900D928A95E1F780918E0390918F038E
:1036C0000E9485190E940A2922C0398B2A8B898978
:1036D0009A890E948519292F22952F70223028F46B
:1036E0009F7039F0811105C00BC0243028F49F7001
:1036F00049F4805E883020F0C8010E9420059F2C8C
:10370000F92C05C0F8019581907F99F7F9CF8F2D9D
:1037100065960FB6F894DEBF0FBECDBFDF91CF9197
:103720001F910F91FF90EF90DF90CF90BF90AF90DF
:103730009F9008959E3F61F129E0929F800D112492
:10374000682F669566956695982F977083E0689FB9
:10375000B001112440E050E080E0FB01E40FF51FD0
:10376000EA51FE4F208130E0092E02C036952795A0
:103770000A94E2F721703327042E01C0220F0A9425
:10378000EAF7822B4F5F5F4F4330510531F70895C1
:1037900080E008959E3F51F129E0929F800D112411
:1037A000E82FE695E695E695877051E001C0550F44
:1037B0008A95EAF783E0E89FF0011124EA51FE4F71
:1037C00020E030E070E04081CB01022E02C09695EF
:1037D00087950A94E2F78170819584278523842751
:1037E00081932F5F3F4F2330310569F70895809310
:1037F000E5010C94481921E030E001C0220F8A95C0
:10380000EAF720958091E50182230C94F71B21E0D3
:1038100030E001C0220F8A95EAF78091E501822B02
:103820000C94F71B8093E2030C9448191092DE036A
:1038300086E0E8E8F3E0DF011D928A95E9F70C9451
:103840004819CF93DF93CDB7DEB760970FB6F894E2
:10385000DEBF0FBECDBF29873A874B875C876D8758
:103860007E878F87988BCE0109960E94C51981119A
:1038700051C088E0FE013996DE01119601900D924B
:103880008A95E1F779856A854C855D8541155105F5
:1038900031F06F3F31F481E07F3F19F403C081E0E4
:1038A00001C080E080FD36C0A0919603B0E0CD015C
:1038B0000196877099272091D70330E082179307EC
:1038C00081F179836A835D834C8393E0AA0FBB1FE8
:1038D0009A95E1F7A956BC4F98E0FE013196019008
:1038E0000D929A95E1F7809396030E94002912C0E9
:1038F00028E0829FC001112489569C4F0E94C5195F
:103900008823E1F08091D70390E001968770992792
:103910008093D7038091D703909196038913E8CFC2
:103920000DC00E94161C109296031092D703EEE869
:10393000F3E088E0DF011D928A95E9F760960FB603
:10394000F894DEBF0FBECDBFDF91CF9108958823DD
:1039500041F080959091DD0389238093DD030C94E1
:1039600069280895882339F09091DD03892B80938D
:10397000DD030C9469280895882321F00E946228B1
:103980000C9469280895882339F09091DE03892BDF
:103990008093DE030C9469280895882309F453C0AA
:1039A000682F823869F40E94BD1E81FF4CC069E314
:1039B00086E893E00E94771E0E94692869E30EC0A2
:1039C000833891F40E94BD1E80FF3DC063E586E808
:1039D00093E00E94771E0E94692863E586E893E0E1
:1039E0000E946A1E0C946928843869F40E94BD1EE6
:1039F00082FF29C067E486E893E00E94771E0E9458
:103A0000692867E4EBCF8CEF860F813A38F380E2C8
:103A1000860F883048F4677081E001C0880F6A958E
:103A2000EAF70E946228DECF8BE5860F833020F410
:103A300080E090E00C94A71E685A673120F480E083
:103A400090E00C94911E0895CF93882309F496C0BA
:103A5000C82F8238B1F40E94BD1E81FD8FC069E37A
:103A600086E893E00E94771E0E9469282FEF81EE7E
:103A700094E0215080409040E1F700C0000069E3ED
:103A800017C08338E1F40E94BD1E80FD77C063E556
:103A900086E893E00E94771E0E9469282FEF81EE4E
:103AA00094E0215080409040E1F700C0000063E5C1
:103AB00086E893E00E946A1ECF910C9469288438AE
:103AC000B1F40E94BD1E82FD59C067E486E893E010
:103AD0000E94771E0E9469282FEF81EE94E021500A
:103AE00080409040E1F700C0000067E4E1CF8CEF38
:103AF0008C0F813A80F4E8E8F3E08EE893E02191BE
:103B0000C217A1F18E179F07D1F76C2F86E893E0BB
:103B10000E94771ED1CF80E28C0F883068F4C77086
:103B200081E090E001C0880FCA95EAF79091DE032A
:103B3000892B8093DE03C0CFEBE5EC0FE33040F43C
:103B4000F0E0E05CFE4F808190E0CF910C94A71EE6
:103B5000C85AC73198F4EC2FF0E0EE0FFF1FED5B71
:103B6000FE4F80819181CF910C94911E6C2F86E83D
:103B700093E00E946A1E0E946928C7CFCF910895E2
:103B80001F93CF93DF93182F893319F0C9E1D0E049
:103B900002C0C0E5D0E0812F0E94241D8FE99FE084
:103BA0000197F1F700C000002197C1F7812FDF9145
:103BB000CF911F910C94CD1C08950F931F93CF9319
:103BC000DF9300D01F92CDB7DEB78C018091020247
:103BD00081110AC09E012F5F3F4F4CE36FEF0E949F
:103BE000B72D8A8180930202F8018481813051F0DF
:103BF00028F0823061F4409102020AC080910202F2
:103C000040E007C06091020240E080E003C040E075
:103C100080E060E00E94482DF801848190E00196E8
:103C200063E070E00E94273084830F900F900F9024
:103C3000DF91CF911F910F910895CF93DF93EC0106
:103C4000E3E0F2E0438162818C810E944D2E8C8101
:103C50008F5F8C83DF91CF910895CF93DF93EC0139
:103C6000EC81F0E0EA5CFA4F4491E3E0F2E062813B
:103C700081810E944D2E8C818F5F8C83DF91CF914B
:103C800008951F920F920FB60F9211248F939F9356
:103C9000AF93BF9380918503811113C08091C701B9
:103CA0009091C801A091C901B091CA014196A11D8E
:103CB000B11D8093C7019093C801A093C901B0932F
:103CC000CA01BF91AF919F918F910F900FBE0F903E
:103CD0001F9018959C012A5F3F4FFC0142814613BB
:103CE00001C01282019682179307B9F708959C01CB
:103CF000FC0132969FEF80E04191461789F09F3F8B
:103D000019F4411101C0982F8F5F8630A9F79F3FAA
:103D100039F0F901E90FF11D97FDFA9562830895D5
:103D2000089520918303309184032817390771F097
:103D30009093840380938303E0918103F091820345
:103D4000309721F00084F185E02D099408952091A9
:103D50007F03309180032817390771F09093800317
:103D600080937F03E0918103F0918203309721F0EB
:103D70000680F781E02D09940895E0918103F09188
:103D80008203309721F00190F081E02D099480E0CA
:103D90000895BC0140917B0380917C03942F981778
:103DA00029F1292F30E0F901EE0FFF1FED58FC4FEC
:103DB0000190F081E02DE617F70799F487E0869FE0
:103DC000F001879FF00D1124E55CFC4F81E08483B6
:103DD00094130CC02F5F3F4F2370332720937B0336
:103DE00008952F5F3F4F922F9370D9CF08950F936F
:103DF0001F93CF93DF938091DA02882309F451C097
:103E0000C091D9021CE08091DA02C81708F045C0C1
:103E100001E00C0F0093D902D0E01C9FF0011D9F20
:103E2000F00D1124E552FD4F908181812381348171
:103E3000232B31F08F3F31F481E09F3F19F403C011
:103E400081E001C080E080FD26C01C9FD0011D9F45
:103E5000B00D1124A552BD4F16968D919C911797C8
:103E6000892B31F418968D919C911997019651F4F4
:103E7000208131814281538164817581868197815E
:103E80000E94211C1C9FF0011D9FF00D1124E55282
:103E9000FD4F14821382C02FB6CF1092DA02109217
:103EA000D902DF91CF911F910F9108951092D802FE
:103EB0001092D702EBE3F3E08581811102C01482F6
:103EC0001682379683E0E337F807B1F7089510922A
:103ED0007E0310927D0310921A0180917C038093DF
:103EE0007B030E94561F0C94F71E3F924F925F92E5
:103EF0006F927F928F929F92AF92BF92CF92DF92FA
:103F0000EF92FF920F931F93CF93DF93C0917B03A8
:103F100097E0892E01E010E02CE0322E3EEF932E48
:103F20004424439480917C03C81709F478C0D0E0FE
:103F3000FE01EE0FFF1FED58FC4F80819181889E9E
:103F4000D001899EB00D1124A55CBC4F14962C9114
:103F50001497211161C05090DA02EBEDF2E020E0FD
:103F600030E0712C5D01251508F054C0E284F38423
:103F7000D501CD90DC906FEF7FEF612C462D50E0A6
:103F8000DA01AA0FBB1FAC0DBD1D0D90BC91A02D79
:103F9000109731F0EA16FB0609F4BA016394EECFEC
:103FA0006F3FBFEF7B0791F1D80102C0AA0FBB1F83
:103FB0006A95E2F77A2AB80102C0660F771F6A9401
:103FC000E2F7AB0141505109672D70E046175707E2
:103FD000D9F4329EF001339EF00D1124E552FD4FCD
:103FE000889ED001899EB00D1124A55CBC4F12960D
:103FF0002D913C91139737832683908291829187EC
:10400000808715964C9206C0148213822F5F3F4F13
:104010003C96A9CF0E94C91E2196C37083CF0E94EF
:10402000F71EDF91CF911F910F91FF90EF90DF90DE
:10403000CF90BF90AF909F908F907F906F905F9048
:104040004F903F900C94561F0F931F93CF93DF9385
:10405000C42FD22FFC0182818823C9F04093D6025D
:104060000E943C199093D5028093D40280E28C0F79
:10407000883008F057C0C77081E001C0880FCA952A
:10408000EAF7DF91CF911F910F910C94C31C80919F
:10409000D602481330C08091D4029091D5020E947C
:1040A0002D19883C910538F510E21D0FCD17B9F098
:1040B00080E28C0F883040F4C77081E001C0880F27
:1040C000CA95EAF70E94BC1C183028F581E09D2FA4
:1040D000977001C0880F9A95EAF70E94C31C802F41
:1040E0000E94C01D1830F0F4D77081E001C0880F25
:1040F000DA95EAF70AC080E28C0F883098F4C7702E
:1041000081E001C0880FCA95EAF7DF91CF911F9136
:104110000F910C94BC1C802FDF91CF911F910F91B8
:104120000C94C01DDF91CF911F910F910895CF93F3
:10413000DF93C1E6D2E060E0CE010E94C92F219654
:10414000C11584E0D807B9F7DF91CF9108950F9397
:104150001F93CF93DF93853068F5623058F5423076
:1041600048F521159CE5390731F4E091D002F09132
:10417000D102EF2BF9F08901282F34E0639FC001B1
:10418000112438E0239F800D911D1124840F911D6F
:10419000840F911DEC01C751DE4F612FCE010E94AB
:1041A000C92F602FCE010196DF91CF911F910F9102
:1041B0000C94C92FDF91CF911F910F9108950F9308
:1041C0001F93CF93DF93853018F5623008F54230A6
:1041D000F8F4282F34E0639FC001112438E0239FB6
:1041E000800D911D1124840F911D840F911DEC01F0
:1041F000C751DE4FCE010E94B52F90E0182F002747
:10420000CE0101960E94B52F9801282BC90102C04A
:1042100080E090E0DF91CF911F910F9108950F936F
:104220001F93CF93DF93853058F5653048F54930BB
:1042300038F521159CE5390731F4E091D002F09171
:10424000D102EF2BE9F08901C42FD0E0CC0FDD1FA4
:1042500092E1699FC00DD11D11249AE5899FC00D7F
:10426000D11D1124612FCE0187960E94C92F602F86
:10427000CE018896DF91CF911F910F910C94C92F99
:10428000DF91CF911F910F9108956F927F928F923E
:104290009F92AF92BF92CF92DF92EF92FF920F93D5
:1042A0001F93CF93DF93CDB7DEB72A970FB6F8945D
:1042B000DEBF0FBECDBFA090D002B090D10281E092
:1042C00090E09093D1028093D002C12CD12C712C1C
:1042D000612CE12CF12C00E010E046018E0C9F1CBB
:1042E000F801EE0FFF1FE80DF91DEA5CF94F25916B
:1042F0003491402F662D872D0E940F210F5F1F4F95
:104300000930110569F782E1E80EF11C639495E02C
:104310006912E1CF21E030E040E060E0872D0E94AB
:10432000A72021E030E041E060E0872D0E94A72037
:1043300021E030E040E061E0872D0E94A72021E0ED
:1043400030E041E061E0872D0E94A7207394EAE508
:10435000CE0ED11CF5E07F12BBCFCE0101967C01C1
:104360008AE0F70111928A95E9F701E112E04AE04B
:1043700050E0B801C7010E94ED2F065F1F4F0136C4
:10438000F2E01F07A1F7B092D102A092D0022A96C4
:104390000FB6F894DEBF0FBECDBFDF91CF911F9156
:1043A0000F91FF90EF90DF90CF90BF90AF909F90D4
:1043B0008F907F906F9008950F931F93CF93DF930B
:1043C000853008F56530F8F44930E8F4C42FD0E0C2
:1043D000CC0FDD1F22E1629FC00DD11D11243AE5F3
:1043E000839FC00DD11D1124CE0187960E94B52F49
:1043F00090E0182F0027CE0188960E94B52F9801D3
:10440000282BC90102C080E090E0DF91CF911F917D
:104410000F910895462F2091D2023091D302232B81
:1044200049F4853038F4753028F4693018F4672F72
:104430000C94DC2180E090E00895CF92DF92EF921F
:10444000FF920F931F93CF93DF93CDB7DEB72A97D9
:104450000FB6F894DEBF0FBECDBF80E5E0E8F2E016
:10446000DF011D928A95E9F788E3EBE3F3E0DF01D2
:104470001D928A95E9F780E8C82E82E0D82E7F0148
:1044800001E112E0F701D182C0824AE050E0B801B8
:10449000CE0101960E94A52F88E0FE013196D6013B
:1044A00001900D928A95E1F789859A85D701139637
:1044B0009C938E931297BAE0CB0ED11CE7E0EE0EE0
:1044C000F11C065F1F4F0136F2E01F07D9F62A964E
:1044D0000FB6F894DEBF0FBECDBFDF91CF911F9115
:1044E0000F91FF90EF90DF90CF900895CF93C82F5A
:1044F000811102C06FEF01C06BE583E290E00E9482
:10450000C92FC11102C06FEF01C06CE384E290E0DB
:104510000E94C92FC11102C06FEF01C068EB85E294
:1045200090E0CF910C94C92F80E00E94762260E049
:1045300086E290E00E94C92F0E9445210E949720A8
:1045400081E00C94762283E290E00E94B52F8B35B7
:1045500081F484E290E00E94B52F8C3351F485E21F
:1045600090E00E94B52F91E0883B09F090E0892F00
:1045700001C080E081700895882311F0FA0101C024
:10458000FB01099460910302669570E04BE050E0F6
:104590008CE091E00E94A730892B19F481E0809390
:1045A000FF010E943C199093F9018093F80108954E
:1045B0008091030280FF0AC0539A8BB1877F9BB121
:1045C00098602FB7F894E8E0F2E00BC0E8E0F2E082
:1045D000118210821282339632E0E038F307C1F77D
:1045E000EBCF32E0E038F30789F0319148E09BB936
:1045F000000000C037FF8BB9330F000000C000C0BF
:1046000000C08BB900C04A9591F7EBCF2FBF8FE563
:1046100094E00197F1F700C000000895EF92FF9237
:104620000F931F93CF93DF938C01C8E0D2E0E12C6E
:10463000F12CF8018481F4E1EF16F1041CF48823D5
:1046400051F002C0811107C0409106024D3308F0BD
:104650004CE39E0102C09E0140E060910502809102
:1046600004020E94B72D8FEFE81AF80A239698E209
:10467000E916F104F1F60E94D822F801848190E055
:104680000196817099278483DF91CF911F910F91BB
:10469000FF90EF9008958F929F92AF92BF92CF922A
:1046A000DF92EF92FF920F931F93CF93DF93EC0172
:1046B0004C81042F10E09801D8010E9472309B01B8
:1046C000AC010E9488306B017C01E0E2F0E0E01B6D
:1046D000F10BA5E5B0E09B01AC010E9488304B01D5
:1046E0005C019F01DF010E946A309B01AC010E94C6
:1046F00093309B01AC012C0D3D1D4E1D5F1DC5016E
:10470000B4010E943B30822FF22E99E2921728F0DA
:1047100093E0299F900111240DC025E530E0281B6E
:104720003109C901880F991F280F391F37FF02C0AF
:104730002F5F3F4F35952795122F109598E0C92E82
:1047400092E0D92E00E085E5E82EEF1801FD02C0C9
:104750008E2D01C08F2D412F1D3308F04CE39601A3
:10476000609105020E94B72D0F5F83E0C80ED11C37
:10477000083261F70E94D8228C81811102C091E039
:1047800003C0803219F49FEF9093190190911901A1
:10479000890F8C83DF91CF911F910F91FF90EF9044
:1047A000DF90CF90BF90AF909F908F9008950F9320
:1047B0001F93CF93DF93C8E0D2E0FE0111821082F5
:1047C0001282339682E0E038F807C1F700E010E08B
:1047D00080910102082E000C990B08171907ACF004
:1047E00080911801082E000C990B801791076CF02E
:1047F000409106024D3308F04CE39E0160910502A2
:10480000809104020E94B72D03C0198218821A8277
:104810000F5F1F4F239608321105D1F60E94D82250
:104820008091170190910102980F909301022091BD
:104830001801280F20931801121614F497321CF057
:10484000819580931701DF91CF911F910F9108956A
:10485000BF92CF92DF92EF92FF920F931F93CF936D
:10486000DF93FC01828180FF03C0DD24DA9402C063
:10487000DD24D39408E012E0C0E0D0E028E2B22EBC
:10488000F80111821082128294E0E92EF12CC12CE1
:10489000809100028C0D89322CF06B2D0E94053026
:1048A000892F02C087FD885D082E000C990BC81760
:1048B000D907A9F4809106028E9DA0018F9D500D0D
:1048C000112455954795559547954D3308F04CE380
:1048D000980160910502809104020E94B72DCD0CD1
:1048E000F1E0EF1AF108A1F621960D5F1F4FC832D3
:1048F000D10531F60E94D8228091000291E0D912B0
:1049000006C0811102C087E207C0815005C090E057
:104910000196BE010E94273080930002DF91CF9163
:104920001F910F91FF90EF90DF90CF90BF9008956F
:10493000EF92FF921F93CF93DF93EC0188E0E82E74
:1049400082E0F82E10E0409106024D3308F04CE36F
:104950008C81970160910502810F0E94B72D1A5F2B
:1049600083E0E80EF11C103F71F70E94D8229A8173
:104970008C8190FF02C08F5F01C081508C83DF91DA
:10498000CF911F91FF90EF90089580E0089590914E
:104990009D0192FF0DC0282F2871283019F4877FC0
:1049A000846006C0282F2471243011F48B7F886026
:1049B00093FF0DC0282F2871283119F4877E846158
:1049C00006C0282F2471243111F48B7E8861209138
:1049D0009E0120FF0DC0382F3871383019F4877FC1
:1049E000816006C0382F3171313011F48E7F8860BC
:1049F00021FF0DC0282F2871283119F4877E81618D
:104A000006C0282F2171213111F48E7E886194FD1A
:104A1000877E0895F894E82FE295EF70F0E031A1D9
:104A2000282F2F7081E090E001C0880F2A95EAF7C7
:104A3000982F9095932391A392A1892B82A3789488
:104A400008958F929F92AF92BF92CF92DF92EF9292
:104A5000FF920F931F93CF93DF93CDB7DEB72A97C3
:104A60000FB6F894DEBF0FBECDBFAE014F5F5F4FF4
:104A70007A018AE0DA011D928A95E9F703E211E0F2
:104A80006A01AA24A394B12CF80180818F3F09F414
:104A90004DC0F894E82FE295EF70F0E021A18F70FF
:104AA000A50102C0440F551F8A95E2F7CA01922F53
:104AB000982B91A392A18095892382A3789400C01A
:104AC000E8E2F1E020E030E0812C912C81918F3FF1
:104AD000C1F0A82FA295AF70B0E090964C9150E035
:104AE0008F70DA0102C0B595A7958A95E2F7A0FD0F
:104AF00008C0C501022E02C0880F991F0A94E2F770
:104B000002C080E090E0882A992A2F5F3F4F293029
:104B10003105E1F6F80180818F3F11F00E940A25EE
:104B2000F0EAFA95F1F7D6018D929C920F5F1F4F34
:104B3000B2E0CB0ED11CE1E008321E0709F0A4CF91
:104B40004AE050E0B7018FE991E00E94B43011E0F3
:104B5000009709F410E0892B89F08AE0F701AFE9AA
:104B6000B1E001900D928A95E1F781E08093E50331
:104B70000E943C199093E4038093E3038091E50342
:104B8000882391F18091E3039091E4030E942D1911
:104B9000059750F180919F019091A0019093BE01E3
:104BA0008093BD018091A1019091A2019093C001D9
:104BB0008093BF018091A3019091A4019093C201C1
:104BC0008093C1018091A5019091A6019093C401A9
:104BD0008093C3018091A7019091A8019093C60191
:104BE0008093C5011092E50380911A01882341F159
:104BF00080917D0390917E03009711F10E942D1901
:104C00002091D7023091D80228173907C8F4909123
:104C10007B0380917C03981759F00E94751F1092B6
:104C2000D8021092D70210927E0310927D0308C022
:104C30000E94F71E10927E0310927D030E94561F61
:104C4000812F2A960FB6F894DEBF0FBECDBFDF913D
:104C5000CF911F910F91FF90EF90DF90CF90BF9079
:104C6000AF909F908F900895CF93DF9382389105F6
:104C700069F1B0F48133910509F46FC048F48932C9
:104C8000910509F465C08A32910509F46BC08AC0A8
:104C90008533910509F457C089339105B9F082C075
:104CA000833E910571F138F4803E9105B1F0823E6A
:104CB000910511F177C0863E9105B9F1873E9105C6
:104CC000C9F1843E910509F06DC024C020919D0179
:104CD00020FD53C021FD51C065C080919D0180FD24
:104CE00046C080919E0180FF48C080919D0184FD57
:104CF0003FC183EE90E03EC180919D0182FF3AC0AA
:104D0000F4CF80919D0182FD35C080919E0180FD90
:104D100034C0EBCF80919E0181FF35C080919D0111
:104D200084FD26C187EE90E025C180919D0183FF1F
:104D300027C0F4CF80919D0183FD22C080919E0108
:104D400081FD21C0EBCF80919D0185FD1FC021C059
:104D500080919D0185FD1DC019C080919D0186FD3A
:104D60001BC01DC080919D0186FD19C015C089E33F
:104D700090E000C182EE90E0FDC080EE90E0FAC0CD
:104D800086EE90E0F7C084EE90E0F4C089E290E017
:104D9000F1C085E390E0EEC08AE290E0EBC081E3F1
:104DA00090E0E8C0811532E5930708F069C08115ED
:104DB00041E5940728F0982F8827816F906ADAC020
:104DC000883E910568F5803E910508F0D3C0883A89
:104DD0009105B8F4853A910548F0855AE82FF0E03E
:104DE000E05CFE4F808190E09064C4C0813091050A
:104DF00009F4BBC008F4BCC08430910508F4B8C005
:104E0000B9C08F3B910508F0B3C0885AE82FF0E095
:104E1000EE0FFF1FED5BFE4F808191819464AAC06D
:104E2000811520E59207F0F09C0174E036952795F6
:104E30007A95E1F7922F9370482F437021E030E08C
:104E400002C0220F331F4A95E2F73C68392B8F705E
:104E5000982F9695969540E2949FC0011124822B3D
:104E6000932B88C0811530E4930718F09F70906AE7
:104E700081C09C013A9521153F4108F47BC078C060
:104E8000EC01C11586E5D807E8F5C11525E5D2077F
:104E900048F08C2F0E94C7248F7190E0982F8827AC
:104EA000906268C0C11534E5D30728F09C2F88278D
:104EB000846F906A5FC0AE01437055272C2F2695F2
:104EC0002695C115D34578F481E090E002C0880FA3
:104ED000991F4A95E2F740E2249F90011124822B0A
:104EE000932B9C6847C081E090E002C0880F991F17
:104EF0004A95E2F740E2249F90011124822B932BE4
:104F00009A6838C0C1152AE5D207F8F4C11539E509
:104F1000D30790F08C2F8F700E94C72494E0D69511
:104F2000C7959A95E1F7CF70D0E0DC2FCC27D069F8
:104F30009E01282BC9011EC0C11548E5D407C0F049
:104F40009C2F8827806F906A15C0CE0190568115DE
:104F5000904270F48D2F8F710E94C724282F2F71DB
:104F6000CE0199279062922B05C081E090E002C0AB
:104F700080E090E0DF91CF910895CF9384E090E0BE
:104F80000E94B52FC82F82E290E00E94B52F2C2FEF
:104F900030E0A901582BCA01CF91089580E090E03C
:104FA0000E94C32F8A3E9E4F11F40C94A32280E0EE
:104FB00008956AEE7EEF80E090E00E94E72F60E0C7
:104FC00082E090E00E94C92F60E083E090E00E94C0
:104FD000C92F1092E20360E084E090E00E94C92FA4
:104FE00060E082E290E00E94C92F60E085E090E0FE
:104FF0000E94C92F60E086E090E00E94C92F6FEF09
:1050000087E090E00E94C92F40E050E0BA0188E0BC
:1050100090E00E94DB2F60E08DE090E00E94C92FBD
:1050200040E050E0BA0188E190E00E94DB2F60E0B0
:1050300087E190E00E94C92F40E050E0BA018CE186
:1050400090E00E94DB2F60E070E080E290E00E9440
:10505000E72F40E050E0BA0188E190E00E94DB2FAA
:1050600080E00E9476220E94942240E050E0BA0143
:105070008FE090E00E94DB2F40E050E0BA0183E136
:1050800090E00C94DB2F8091E103882331F01092A3
:10509000E1031092E0031092DF030895CF93909103
:1050A0009E0192FD0DC09091E103981749F0C82F21
:1050B0000E943C199093E0038093DF03C093E103C7
:1050C000CF91089580959091DE0389238093DE032C
:1050D00008959091DE038091DD03892B9091DC038C
:1050E000892B809386038091E103882311F10E942C
:1050F0003C192091DF033091E003821B930B883829
:10510000934110F00E944328909186038091E1031F
:10511000892B80938603E8E8F3E097E080E09150E4
:1051200029F021912223D9F38F5FF9CF81110E94B9
:105130004328E0918103F0918203309731F002809F
:10514000F381E02D86E893E009940895CF93C09110
:105150009E01C2FB992790F9981781F080FBC2F954
:10516000C0939E0160919D0184E090E00E94C92F50
:105170006C2F82E290E0CF910C94C92FCF910895CB
:105180001092DB031092DA031092D9030895209154
:10519000DB03809582238093DB03982F977041F483
:1051A00030E0482F082E000C550B2417350721F44A
:1051B00090919E0192FF07C08595859585950E94E7
:1051C000FB1B0C94C028089590919E0192FD10C085
:1051D00098E0899F90011124262B2093DB030E94E5
:1051E000071C0E943C199093DA038093D903089519
:1051F0000C94071C8091D80381111092D803089554
:105200008091D70390919603891719F08F5F87706B
:10521000FBCF08951F93CF93DF93809193038295E3
:105220008F7009F05CC080919003882309F457C007
:105230008091D7031091960360918E0370918F0334
:10524000C0919103D091920391E06F3F09F090E0FB
:10525000292F811709F443C0209721F07F3F21F0C7
:1052600030E003C031E001C0322F90E030FD34C0A7
:10527000FC0133E0EE0FFF1F3A95E1F7DF01A9567D
:10528000BC4F11963C911197371326C03C913613B1
:1052900023C012963C91129731111EC013964D9166
:1052A0005C9114974C1B5D0B483C5105A8F4809110
:1052B00093038F70806180939303E456FC4F808149
:1052C0008F70806180838EE893E00E942005DF91DB
:1052D000CF911F910C94002901968770BACFDF916E
:1052E000CF911F9108959C013A9521153F4130F5CA
:1052F000BC0166277270AC01442754709C012227C0
:10530000387094FF0FC090FF02C080E101C080E0C0
:10531000672B09F08062452B09F08064232B79F01C
:1053200080680895892F8170672B09F08260452B72
:1053300009F08460232B19F08860089580E00895B7
:10534000DF92EF92FF920F931F93CF93DF93E82F9B
:10535000F0E0E85DF74FD490282F26952695269506
:1053600030E0F901E85EF74F0491877010E0082EF5
:1053700002C0159507950A94E2F701701127F9010B
:10538000E85FF74FE490F12C082E02C0F594E79403
:105390000A94E2F791E0E922FF24F901E850F84F7E
:1053A000C491D0E002C0D595C7958A95E2F7C17047
:1053B000DD270115110519F081EE0E94241DE1146D
:1053C000F10419F086EE0E94241D8D2D0E94C01D4F
:1053D000EF2819F086EE0E94CD1C012B19F081EE0A
:1053E0000E94CD1CCD2B51F08CE2DF91CF911F910B
:1053F0000F91FF90EF90DF900C94C01DDF91CF9143
:105400001F910F91FF90EF90DF900895EF92FF9220
:105410001F93CF93DF93EC011AE08881882309F46E
:105420004AC0813009F043C08981813041F47E0156
:1054300082E0E80EF11C8A810E94C01D09C0823002
:1054400049F47E01E2E0EE0EF11C8A810E94241DE7
:10545000E7012FC0833041F47E01F2E0EF0EF11C32
:105460008A810E94CD1CF4CF843011F0219621C096
:105470002A81229680E090E030E0205331092A30E2
:10548000310558F4189FA001199F500D1124C9012E
:10549000840F951F21962881EFCF009751F0EFE9F7
:1054A000FFE03197F1F700C000000197F6CF0E94AE
:1054B000A0292196B2CFDF91CF911F91FF90EF905D
:1054C00008951F93CF93DF9300D000D01F92CDB7E4
:1054D000DEB7FC0186819781009709F5CF0125E0B1
:1054E000DE01119601900D922A95E1F7FC012281CF
:1054F00089819A81222359F0662349F00E94561926
:10550000182F682F89819A810E94CA1B03C00E94AC
:105510009A1B182F69817A81812F0E940A220F908D
:105520000F900F900F900F90DF91CF911F910895E2
:105530002F923F924F925F926F927F928F929F92A3
:10554000AF92BF92CF92DF92EF92FF920F931F9391
:10555000CF93DF93CDB7DEB76A970FB6F894DEBF6F
:105560000FBECDBF498B5A8B6B8B7C8B8D8B6111A2
:105570001092DD038E01075F1F4F88E0F801119242
:105580008A95E9F785E0FE017196D80101900D92A8
:105590008A95E1F70E943C192091D9033091DA03F2
:1055A000821B930B8838934140F08091DB0382FB90
:1055B000992790F981E0892701C080E080FF03C02E
:1055C00082E00E94C7280E943C192091DF0330919D
:1055D000E003821B930B8838934110F00E9443280C
:1055E00099858A852C853D85232B31F08F3F31F4B9
:1055F00081E09F3F19F403C081E001C080E080FD9D
:10560000CAC161E0C8010E94612A6C0187EFC81617
:105610008CE5D80639F48B858823B9F081E0809336
:105620001A01B9C198EFC9169CE5D90631F48B85EA
:10563000882359F00E94671FAEC1E9EFCE16ECE552
:10564000DE0619F48B85811111C00BE313E0712C78
:10565000A12CB12C88248394912C55245394CE01F1
:1056600001969F8B8E8BF7E04F2E49C080911A01D7
:105670008823A1F2DFCFC616D70609F097019F5FF6
:105680007901292F30E0F901EE0FFF1FE40FF51F1C
:10569000608171816115710571F7FFEFEF16FF06EB
:1056A00009F42DC1F8016481611131C020911A0102
:1056B000822F81706B84F80135812681662009F480
:1056C000C6C0882309F4C3C0332321F1940102C06A
:1056D000220F331F9A95E2F721503109F801868194
:1056E00090E02817390759F17628FFEFAF1ABF0A63
:1056F000095F1F4F28E0A216B10409F402C1F801A6
:1057000040815181EE24EA94FE2C90E0BACF20E053
:1057100030E0CECFA40101C0440FEA94EAF7242B75
:1057200026832091D7023091D8022233310570F6BA
:1057300022E330E03093D8022093D702C7CF809184
:105740007D0390917E03009729F00E942D19C39745
:1057500008F01EC180917B03F0917C03F88FE0E09C
:10576000F0E0288D821709F460C0282F30E0F9019D
:10577000EE0FFF1FED58FC4F20803180429CF0015E
:10578000439CF00D1124E55CFC4FF080E18050E07B
:1057900090E040E0EF2DFE2DE40FF11DE40FF11D30
:1057A000A081B1811097D1F0F801F081F98FF80153
:1057B000F181FA8F90E0E98DFA8DE90FF11DE90F83
:1057C000F11D608171816115710531F0A617B70770
:1057D00009F451E09F5FEFCF4F5FDCCF5523F9F025
:1057E0009417C8F0429CF001439CF00D1124E55C35
:1057F000FC4F3097B1F054820E171F0709F474CF95
:1058000090917B0389130DC0C9010196837099277C
:1058100080937B0306C00115110509F0B9C0E0E0D3
:10582000F0E0C901019683709CCF0E171F0709F4A1
:105830005BCF90E0FC01EE0FFF1FED58FC4FB182F3
:10584000A08201968370992780937C034DCF3111FC
:1058500012C0A40102C0440F551F9A95E2F74150AF
:10586000510930E042175307E9F56623E1F1C5011C
:105870000E94C91E37C0822F90E09C01215031093F
:10588000282339230E2C02C0959587950A94E2F7B8
:10589000232B31F580FF24C0F80182819381892B6D
:1058A000D9F088E0EE89FF8911928A95E9F78EEFA9
:1058B00089838A830E943C198160582F9D838C8341
:1058C000F801828193818F83988729813A814B8166
:1058D0006D817E810E94211CF801158281E003C048
:1058E000817001C080E0940101C0220FEA94EAF7C0
:1058F0002095F801968129232683682EF5CE612C08
:10590000F3CE8B85882381F1772071F10E943C19B9
:1059100090937E0380937D038091DA02883008F0B3
:1059200044C091E0980F9093DA0298E0FE01399616
:10593000DE01119601900D929A95E1F7ECE08E9FB1
:10594000C001112485529D4F28E0FE013196DC01F3
:1059500001900D922A95E1F72FEF3FEFFC0131877F
:105960002087D386C28621C090917B0380917C03DF
:10597000981719F00E94751F08C00E94F71E109218
:105980007E0310927D030E94561F772021F00DC0E8
:10599000F8015482A9CE29853A854B855C856D85B1
:1059A0007E858F8598890E94211C6A960FB6F8948F
:1059B000DEBF0FBECDBFDF91CF911F910F91FF9042
:1059C000EF90DF90CF90BF90AF909F908F907F909F
:1059D0006F905F904F903F902F9008950F931F937B
:1059E000CF93DF93C0919901D0919A01CE01955543
:1059F0008F3F910509F058F48C2FC4FF02C08295A7
:105A0000807FDF91CF911F910F910C944E288E01D2
:105A1000005E1109CE010830110510F0209729F41D
:105A20000E9473290E94C31C04C00E9473290E9413
:105A3000B21C8C2F0E94241D8FE798E321E0815037
:105A400090402040E1F700C000008C2F0E94CD1C48
:105A5000CE010830110510F0CD2B41F40E947329BE
:105A6000DF91CF911F910F910C94BC1C0E94732960
:105A7000DF91CF911F910F910C94A71C1092980168
:105A80000E94BD1E81FF03C089E30C94C01D0895D0
:105A90009091030290FF0CC0E8E0F2E08183608304
:105AA0004283339692E0E038F907C1F70C94D8228C
:105AB000089580910302282F269530E021153105A5
:105AC00019F48170826005C02532310524F081709F
:105AD000886480930302809106028D3318F08CE372
