:100000000C9475040C94BC040C94BC040C94BC04B7
:100010000C94BC040C94BC040C94BC040C94BC0460
:100020000C94BC040C94BC040C947F230C94BB2251
:100030000C9461190C94BC040C94BC040C94BC0486
:100040000C94BC040C94BC040C94BC040C94BC0430
:100050000C94BC040C9414190C94BC040C94BC04B3
:100060000C94BC040C94BC040C94BC040C94BC0410
:100070000C94BC040C94BC040C94BC040C94BC0400
:100080000C94BC040C94BC040C94BC040C94BC04F0
:100090000C94BC040C94BC040C94BC040C94BC04E0
:1000A0000C94BC040C94BC040C94BC04870BA30BF0
:1000B000AA0BE20BF30BFE0B0E0C210C640C690C6B
:1000C000C30CC30CC30C710C010D0C0D360D720D5D
:1000D000B70D000E620EB00EF70EFA0EFF0EAD0F4A
:1000E0004510AD100D1418141D14221427142C14CF
:1000F000311436143B1440144514CB14CB1404159E
:1001000004156615A116A116A1168415F815091671
:100110000916C320EA209D22EA209D22362159217A
:100120009D225A226A223F253F25522552254825E5
:100130005225522552253F253F254D255225522532
:100140004D25FD377A585A000004E6D6B446020021
:10015000210116000000742FE5A3E008C1023E5DF6
:10016000003D8889C65436C3174FE4EF0A3F668DB9
:10017000D105C152178BD346CB52E4EC954BB1233A
:10018000C8125A02224DDD1F698C16D9EF45F6635D
:10019000D31EB962E990A5DEAFF6BD5DE5A97C5935
:1001A00078FAA26B0C735128BDCBC80F1011DF5425
:1001B000EC7A78C585B422AF257346DBA3E7CFF68A
:1001C000BCA26DFA873B8D44BD90D32AFFC33E7419
:1001D0001636CCA02CE50C6D60F1267D543C6634BF
:1001E000873A0183364BF5DCB4A11C9FF200B12C99
:1001F000DA3FDDF57CFC91C96664ABF48D3B32944B
:100200002C22706E35CF06E7F954289FF32FAF48A4
:10021000E8B47E5CFB01E55AB01FADCB6D45E7ADA0
:100220005A08D93CE762C8361DC4E0996926BEDF8A
:1002300020B2CD4C6E39F46F2C699ABA16BCEAD54F
:10024000956971642D72EB2FDA0FF4C86FC92D9D7B
:10025000701896D074696985373D179BEE43976F88
:100260004529FC81C894031A4282AF8A28568855D2
:10027000C075CF441AC661563DC489E6E2B114CDBB
:100280002073FAF993C0D7BEB728B3F0868E21E861
:100290004C687327DBFC28B81EBB74299D78B860B6
:1002A0006D3B6AADE35541B7548877F09EA3329F0A
:1002B000102995CF82A4829649D25BD65439809D6D
:1002C000426C65491AE14DAC2B4C9CCB7CAA277340
:1002D0005A3792281A1049FDB3BD1FD0943262E5F7
:1002E000B9454AEF53AD2E6E67991ED69A3A441916
:1002F000FBE8921D83FB12317F6E67B78EAA3F1712
:100300002C81E537552EF656913C5ACE8492305FBB
:10031000C3B74656AFB3FC718447F4CC104C01D43C
:100320008368C4CF8777944F468DDD8950A9D23733
:10033000392940A6D8E0CF1C41E35E00CA7B8A9DE4
:1003400059710C72544F4719AC0464E914E02575D7
:10035000C2D8EFC5E304A31C7499381875A5D41846
:10036000FD6F4CB6C745F100E910CBC248832B7432
:1003700013608E47371979BED8A5FF1A5BADA85018
:10038000AEDF064DD9BC4A5FF794ACBEC53FA14174
:10039000850D3FB3EFF036ADF1661F3A49BC4C0016
:1003A00000005A861A49501E6BF50001DA04C2118A
:1003B00000009EA2D044B1C467FB0200000000040C
:1003C000595A0000000001000D0002000100030066
:1003D00002000400030005000400110005001200E3
:1003E00006001A0007001B0008001C0009001D0081
:1003F0000A001E000B0020000C002E200014001A22
:10040000000800150017001C0018000C0012000462
:10041000611668076409620A000B000D720E740F02
:10042000781D001B000600190005001100100036A1
:10043000003700015302530151280034002A002CD8
:1004400000025103530000000000002A0034001392
:10045000003371380004531E021F022002210222C1
:1004600002230224022502260229000100010001C4
:1004700000010001002D022E022F02390035020179
:100480000001000100010001000100310201000132
:10049000000100010001004C0001000351010000B7
:1004A00000000000004C000100270230023402016D
:1004B000001E001F00200021002200230024002530
:1004C0000026005000510052004F002B0001002D6B
:1004D000002E002F00E0003500E300E200815F8481
:1004E0005F825F835F310001000100035101000161
:1004F00000010001000100010000000000000001F7
:100500000001002700300034000100C25CC45CC35D
:100510005C010010503A003B003C003D00CB5CC544
:100520005CC75CC95C01003F00400041004200CC58
:100530005CC65CC85CCA5C01004400450001000167
:1005400000010001000100010001000100010001A3
:10055000000100000000000000010001003E004317
:1005600000005C0100010001000100010001000128
:100570000001000100010001000100010001000173
:100580000001000100010001000100010001000163
:100590000001000100010001000100010001000153
:1005A0000001000100010001000100010000000045
:1005B0000000000100010001000100010001000530
:1005C000010980A101850319012AB700150126B789
:1005D00000950175108100C0050C0901A101850479
:1005E00019012AA002150126A002950175108100AB
:1005F000C00660FF0961A1010962150026FF009590
:1006000020750881020963150026FF0095207508F2
:100610009102C005010906A101050719E029E715A6
:100620000025019508750181029501750881010574
:1006300007190029FF150026FF009506750881009F
:1006400005081901290595057501910295017503A4
:100650009101C009025B00030100A0FA0904000037
:1006600001030101000921110100012240000705D9
:10067000810308000A0904010002030000000921A7
:100680001101000122220007058203200001070555
:1006900003032000010904020001030000000921F6
:1006A000110100012232000705840320000A120113
:1006B000000200000008FEFE515801000102030183
:1006C0001C037600690061006C003A006600360089
:1006D00034006300320062003300630000003A031C
:1006E00073006100640065006B00620061007200CD
:1006F0006F007500640069002000620061007200F4
:100700006F0062006F00720064005F006200790099
:100710006F006D006300750000001A037300610034
:10072000640065006B006200610072006F0075007C
:1007300064006900000004030904000000000000D8
:1007400000000000000000000000000000000000A9
:1007500000000000000000000000000000007E0F0C
:1007600000D4FFFFFFC70000007800000000000079
:1007700000002A2B280000000000000000000000FC
:10078000000000000029000000002C1E342021225F
:1007900024342627252E362D3738271E1F202122C8
:1007A000232425263333362E37381F040506070841
:1007B000090A0B0C0D0E0F10111213141516171831
:1007C000191A1B1C1D2F3130232D3504050607086F
:1007D000090A0B0C0D0E0F10111213141516171811
:1007E000191A1B1C1D2F3130354C0001010101016C
:1007F00001010101020202020202020202030303DA
:1008000003030303030404040404040405050505A9
:100810000506060606060707070707080808080969
:100820000909090A0A0A0B0B0B0C0C0C0D0D0D0E15
:100830000E0E0F0F0F1010111111121213131414AA
:10084000151516161717181819191A1A1B1B1C1D1F
:100850001D1E1E1F20202122222324242526262778
:100860002829292A2B2C2D2D2E2F303132323334AA
:1008700035363738393A3B3C3D3E3F4041424344B0
:1008800045464748494A4C4D4E4F50515354555692
:1008900058595A5B5D5E5F616264656668696B6C3E
:1008A0006D6F7072737577787A7B7D7E80828385B9
:1008B00087888A8C8E8F91939596989A9C9EA0A2F9
:1008C000A3A5A7A9ABADAFB1B3B5B7BABCBEC0C203
:1008D000C4C6C9CBCDCFD1D4D6D8DBDDDFE2E4E7C7
:1008E000E9EBEEF0F3F5F8FAFDFF11241FBECFEFB0
:1008F000DAE0DEBFCDBF04B603FE27C080916505F8
:1009000090916605A0916705B09168058730904B7E
:10091000A740B04BD1F41092650510926605109275
:1009200067051092680514BE84B7877F84BF0FB631
:10093000F894A8958091600088618093600010927F
:1009400060000FBEE0E0F8E3099512E0A0E0B1E03E
:10095000E4ECF8E602C005900D92AE31B107D9F78C
:1009600025E0AEE1B2E001C01D92A536B207E1F785
:100970000E94BE040C9460340C940000CF93DF936B
:10098000CDB7DEB7E5970FB6F894DEBF0FBECDBF8B
:1009900084B7877F84BF0FB6F894A89580916000D4
:1009A000886180936000109260000FBE90E080E844
:1009B0000FB6F89480936100909361000FBE85B7E5
:1009C000806885BF85B7806885BF8DE699E2909382
:1009D0001F0280931E020E943D1D0E94FF220E9462
:1009E0001E238091E20084608093E20078948091DD
:1009F000E7048823A1F01091E9001F709091EC00AA
:100A0000892F817090FD80E8182B1092E900809169
:100A1000E80083FD0E94DD1F1F701093E90082E053
:100A200084BD93E095BD9AEF97BD80936E000E94C0
:100A3000C31D811102C00E94B41D02E211E057E201
:100A4000E52E51E0F52ED8018D918D018F3F11F0EB
:100A50000E94B229E016F106B1F707E211E040E387
:100A6000E42E41E0F42EF80181918F018F3F11F0C7
:100A70000E94B229E016F106B1F7E2E2F2E08CE260
:100A800092E0ACE3B3E0119211921D921D928E1789
:100A90009F07C9F70E94762C811102C00E94812C09
:100AA00082E090E00E9451338093B5020E94652C51
:100AB00090932102809320020E94C9298FE39CE930
:100AC0000197F1F700C000000E94C92980913C0302
:100AD00080FF08C06FEF7FEF80E090E00E948D33D1
:100AE0000E94F01883E090E00E9451330E94A327F7
:100AF00010928B02E4EAF2E084EB92E02FEF3FEFFA
:100B0000219331938E179F07D9F710922D02E6E4B7
:100B1000F2E086E592E02FEF3FEF219331938E17BD
:100B20009F07D9F70E94762C811104C00E94812C66
:100B30000E94891E46E050E06CE170E08CEE94E08B
:100B40000E9441338091EC048C7F11F40E94891E35
:100B500010922C0284E091E09093C6048093C50427
:100B60008091E704853009F048C030E4F32E00E1BD
:100B700012E18091E704853009F03BC08091E704E1
:100B8000843019F11092C904A8E1B0E00FB6F894CE
:100B9000A895A09360000FBEF092600083B7817F9C
:100BA000846083BF83B7816083BF7894889583B75F
:100BB0008E7F83BF0FB6F894A895809160008861FE
:100BC00080936000109260000FBE8091DD04882346
:100BD00009F4CFCF0E94C929ECE3F3E08191919110
:100BE000892B09F0D5C626E433E02E173F07B1F76D
:100BF000C0CF0E94A7270E94DD190E94C929811138
:100C00000E944919A6EBB2E0ECE3F3E0C12CD12C31
:100C10000C2DA190B1908D919D918A259B250097D7
:100C200009F451C110E0EE24E394F12C9C012E2133
:100C30003F21232B09F441C11BA70CA7AE20BF20E5
:100C400081E0A114B10409F480E08DA70E94551938
:100C50008160782F9FA78EA74BA55CA56DA58FA55A
:100C60000E94402FF601EE0FFF1FEA54FD4F8081D6
:100C70009181E826F926F182E082AB2849F0AE01A5
:100C80004F5F5F4F612F802F0E946F1E982E01C013
:100C9000912CE92CF12C80912D02B701680F711D68
:100CA000693071056CF188E090E05C01AE18BF0816
:100CB000B701625D7D4FA5018EE292E00E94503443
:100CC000B7016A5C7D4FA50186E392E00E94503433
:100CD000A501440F551FB701660F771F6A5B7D4F53
:100CE00086E492E00E945034B701625C7D4FA5011A
:100CF0008EE392E00E94503488E0891980932D029F
:100D0000F0902D02CE0101965C0160E0862F8F0DE0
:100D1000961649F190E0D5017D915D01272F30E0D5
:100D2000DC01A35DBD4FA901440F551F415C5E4F1F
:100D3000FA0145A511964C931197220F331F2359A1
:100D40003E4FF901208119962C93199751967C9367
:100D5000880F991FDC01A35DBD4F5A961C921E920D
:100D600059976F5FD3CF80932D028091EC048C7FD5
:100D7000883209F0C0C0AFEFA00FFF24F394F00E4B
:100D80003FEF310F21E0210F311780F489E08C9D76
:100D9000F0018D9DF00D1124E25AFD4FE30FF11D7E
:100DA000408150E1450F08F44FEF4083412F50E060
:100DB00079E07C9DC0017D9D900D1124825A9D4F4C
:100DC000FC01E40FF51F7081B0E26B2F760F08F481
:100DD0007FEF7083293051F0FC01E20FF11D70812B
:100DE00080E1682F760F08F47FEF708375E0F716C7
:100DF00009F431C0EF2CF12C311788F489E08E9D75
:100E0000F0018F9DF00D1124E25AFD4FE30FF11D0B
:100E100080819DE0BC01670F08F46FEF6083E9E01B
:100E2000EE9DC001EF9D900D1124825A9D4FFC0153
:100E3000E40FF51F608170E1670F08F46FEF6083C6
:100E4000293049F0FC01E20FF11D60817DE0670F60
:100E500008F46FEF6083A01708F04DC0B0E03117C1
:100E600080F489E08A9FF0018B9FF00D1124E25AF3
:100E7000FD4FE30FF11D30816DE0360F08F43FEFB9
:100E8000308389E08A9FF0018B9FF00D1124E25A94
:100E9000FD4FDF01A40FB51F3C9140E1340F08F472
:100EA0003FEF3C93293039F1E20FF11D20813DE005
:100EB000230F08F42FEF20831EC01F5FEE0CFF1CD2
:100EC000193009F0B3CE8FEFC81AD80A95E0C916C9
:100ED000D10409F09DCE8FEF88AB89AB1AAA0E948E
:100EE00055198160782F9CAB8BAB48A959A96AA989
:100EF0008CA90E94402F8091560290915702A09198
:100F00005802B09159022FB7F894C090CA04D090FB
:100F1000CB04E090CC04F090CD042FBFC81AD90ABE
:100F2000EA0AFB0A0E94491960935602709357021D
:100F30008093580290935902A0912D02EDE2F2E0C5
:100F40002A2F30E088248A94982CA12CB12C8C185C
:100F50009D08AE08BF08A31799F0418D528D2A0154
:100F6000612C712C84149504A604B70410F421504C
:100F700004C04C0D5D1D528F418F3F5F3296EBCF09
:100F800020932D023091EC04232F237021F0B32EF7
:100F9000B694B69401C0B12C209111012130E1F03A
:100FA00030F02230E9F1233009F446C069C01092D4
:100FB00014016093E8047093E9048093EA04909329
:100FC000EB0489E2EDE2F2E0ABE8B2E001900D92D1
:100FD0008A95E1F781E02DC090910F01B9120DC003
:100FE000832F837090E040910E0150E021E0841740
:100FF000950709F420E0822F01C081E08170809381
:1010000016018091F10490911501981709F4DFC43D
:101010008093150140E060E080E00E946B1ED7C421
:10102000B0920F01832F837080930E010E947C1871
:1010300083E08093110124C080914B0381110E94B1
:10104000811E10924B034091E8045091E904609195
:10105000EA047091EB042FB7F8948091CA04909140
:10106000CB04A091CC04B091CD042FBF841B950B71
:10107000A60BB70B4097A105B10510F01092110116
:101080000E94DD199091B402891721F00E94DD19A8
:101090008093B4028091E704843009F061CD83E04D
:1010A0008093E9008091E80082FF5ACD8091E800AA
:1010B00085FF23C00E94542481111DC000E2E02E50
:1010C000F12C8E010F5F1F4F09C08091F100F801D4
:1010D00081938F01F1E0EF1AF10869F08091E80047
:1010E00085FDF3CF8091E8008B778093E8000E9424
:1010F0005424882399F391E001C090E08091E800A6
:101100008B778093E800992309F42ACDE0901604A8
:10111000F09017048981E114F10459F08E3F09F031
:1011200032C49A819330A8F19550933008F02BC4C3
:1011300030C08B3009F4C8C248F5853009F47EC050
:10114000B8F4823009F442C030F4813009F019C497
:101150001A8289E0B7C3833009F461C0843009F092
:1011600010C44C816B818A810E94FC1C9D832DC41C
:10117000873009F471C008F46CC0883009F4E2C00B
:10118000893009F0FEC30E94811EFDC3803109F43D
:10119000DDC18E010F5F1F4F813160F48D3009F486
:1011A00077C108F473C18E3009F476C18F3009F429
:1011B0009EC1E7C3823109F4CEC108F4CAC18331AC
:1011C00009F4F3C18E3F09F496C2DBC38A818230F1
:1011D00009F4F4C3833051F0813009F0D2C30E9486
:1011E00049199B838C837D836E83CDC380911404C6
:1011F00090911504892B09F4C6C3FE013196CE01E6
:101200000B96ACE3B3E02C9111963C91119712969A
:101210003283238332968E179F07A9F7B4C38A813E
:10122000823009F0AEC36B817C818D819E810E94EA
:101230003C3486E290E00E946F33A5C32D813E814D
:101240003227232732274C816B818A810E942F1CF1
:101250009AC30E94651C97C38A81813421F082342D
:1012600009F43AC090C34B815C818091EC04982FC3
:1012700093704115510539F49111109211018C7F31
:101280008093EC041EC0911102C0109211018C7F5A
:1012900081608093EC0422EC33E0F9013296859171
:1012A0009491F901659174914617570739F02C5FB5
:1012B0003F4F63E02A3F360781F780E060E00E94FD
:1012C0003D1E8D818093F0048E8120E048856F81E2
:1012D00090E00E94E21D57C34B815C818D8173E0D9
:1012E000879F900111242E3131050CF04CC3DE0193
:1012F0001196FA01EE0FFF1FE40FF51FEC53FD4F9F
:1013000020E030E090E02817390708F03CC313963E
:10131000B901640F751F6832710508F034C3129665
:101320006C911297608313966C9113976183149656
:101330006C9114976D3308F06CE362832F5F3F4F1D
:101340003396E1CF8A81823409F442C028F4803494
:1013500051F0813471F017C3833409F45AC08434D6
:1013600009F45AC010C381E08B831C828CE38D8307
:101370000AC38091EC04982F9370B1F086958695FE
:1013800090E022EC33E06AEF73E0F9013296A59128
:10139000B491F901459154918A179B0741F02C5F54
:1013A0003F4F6217730789F790E080E002C0942FE7
:1013B000852F9B838C838091F0048D838091ED0435
:1013C0008E838091EE048F838091EF048887DBC247
:1013D0000B811C814EE150E06FEF70E0CE0103966F
:1013E0000E94593482EC93E04AEF53E0DE011396F9
:1013F0006EE1FC01259134910217130728F4623045
:1014000018F02D933D93625004964817590789F7B9
:10141000BAC288E28B839CC18B8190E088329105AF
:101420000CF0B1C2FC01EE0FFF1FE15CFE4F25A5E1
:101430002B83FC01EE0FFF1FE359FE4F20812C830D
:10144000FC01E454FE4F20812D832FEF2F832E8348
:101450006FE371E040E050E020E030E0FB01E20F9C
:10146000F31FE081F0E08E179F0719F44E832F835E
:101470008AC22F5F3F4F2930310581F74F5F5F4FA1
:10148000675F7F4F4530510539F77DC280E136C235
:1014900081E08A838FE916C2EA80FB80FE24EF2474
:1014A000FE24AC80B12C8DE1A816B10408F06BC20B
:1014B0006801C7018F599D4F9601201B310B2A15DA
:1014C0003B0508F060C2AFE9EA16A1E0FA0628F48D
:1014D0000E945133F601848303C0D60114961C92F6
:1014E000BFEFEB1AFB0AEFEFCE1ADE0AE2CF8091D4
:1014F000140490911504892B09F445C2EA80FB80FD
:10150000FE24EF24FE24CC80D12CFDE1CF16D104A3
:1015100008F039C25801C7018F599D4F9501201B12
:10152000310B2C153D0508F02EC22FE9E21621E003
:10153000F20628F4D50114966C910E946F33BFEF28
:10154000EB1AFB0AEFEFAE1ABE0AE5CF0E94B71BFB
:101550001AC285E0D3C1EA80FB80FE24EF24FE247A
:10156000AC80B12CFDE1AF16B10408F00CC26801EB
:10157000C70187969601201B310B2A153B0508F001
:1015800002C222ECE21621E0F20630F40E9451334E
:10159000D60114968C9302C0F6011482FFEFEF1A65
:1015A000FF0A2FEFC21AD20AE3CFEA80FB80FE24A3
:1015B000EF24FE24AC80B12C3DE1A316B10408F069
:1015C000E2C142ECE41641E0F40608F0DCC182EC32
:1015D00091E08E199F098A159B0508F4D4C1370143
:1015E00067E2660E711C8091140490911504892B9A
:1015F00011F0680160C0E0FE0FC0C70186960E942E
:10160000513390E0982F88272D81822B81159C459E
:1016100031F48FEF8D8303C0C12CD12C03C0CC24B7
:10162000C394D12CC5018E0D9F1D450180FF1BC0A9
:1016300081E0881A910855E0452E512C4C0E5D1E14
:10164000480C591CC3018A0D9B1D0E945133D201C5
:101650002C9130E0322F2227282B21153C4519F4FC
:101660008FEFF2018083F801EC0DFD1D2FEFCF010C
:10167000801B910B8815990508F0BBCF848190E001
:10168000982F88273581832B81159C4511F424835D
:1016900025833296ECCF42ECE41641E0F40628F4C0
:1016A000D60114966C910E946F33BFEFEB1AFB0AC0
:1016B000EFEFCE1ADE0AC70187969601201B310B89
:1016C0002A153B0540F35FC18091140490911504E5
:1016D000892B09F458C1CE0101960E94B324FFEF73
:1016E00021EE34E0F15020403040E1F700C000002E
:1016F0000E94F01848C1EA818E2F90E08E3091054B
:1017000008F041C1FC01EA5AFF4F0C94363488E0DE
:10171000E7E1F1E0DE01919601900D928A95E1F703
:1017200080E2D8011D928A95E9F784E0898388E0F8
:10173000FE01B196DE01159601900D928A95E1F7B2
:1017400081E08D8720C180E8898382E08A831B82C3
:101750001C8219C18C8190E0982F88272B81820FE1
:10176000911D092E000CAA0BBB0B35E0880F991FA9
:10177000AA1FBB1F3A95D1F7AC01BD01405E5F4F78
:101780006F4F7F4F481759076A077B0708F4FBC064
:101790008038E2E09E07A105B10508F0F4C04138A9
:1017A000F2E05F076105710520F040E852E060E07B
:1017B00070E0481B590BBC016E5B7E4FC8010E9454
:1017C0003833E1C01B810C8140E0602F812F0E94E3
:1017D000FF1B99838A8341E0602F812F0E94FF1BAA
:1017E0009B838C83D0C02E813F81322723273227D1
:1017F0004D816C818B810E94C71BC5C040E250E0C7
:101800006FEF70E0C8010E945934809114048983FD
:10181000EA821B821C821D8281E0D7C081E090E0B9
:10182000909317048093160482E390E09093C30290
:101830008093C2020E9455199093C1028093C00206
:10184000A2C0EF28B9F180913C0390913D039C0127
:10185000369527958170182F12238091C0029091A0
:10186000C1020E943A1985369105F0F01123E1F08A
:101870000E9455199093C1028093C0028091C202C8
:101880009091C30201979093C3028093C202892B67
:1018900089F4109217041092160481E090E090935E
:1018A00015048093140406C082E390E09093C30271
:1018B0008093C202809114048983809116048A83E4
:1018C0008091C2028B835FC01092150410921404A1
:1018D0005AC040E250E06FEF70E0C8010E945934F6
:1018E00052C08B81833061F0843061F181114BC033
:1018F00080E2D8011D928A95E9F788E08A8343C087
:101900006C81CE0181962AE0FC0111922A95E9F7BB
:10191000683060F4FAE06F9FB00111246F5E7D4F74
:101920004AE050E00E94413380E001C08FEF89839C
:101930008AE0FE01B196DE01129601900D928A9521
:10194000E1F721C06C818AE0FE013596DE019196B7
:1019500001900D928A95E1F7683070F42AE0629F59
:10196000B00111246F5E7D4F4AE050E0CE018196B8
:101970000E94933380E001C08FEF89830E943D1D58
:1019800002C08FEF8983CE0101960E94B324E8C87C
:1019900009BD19BD09B400FEFDCF8091D8008F7D2F
:1019A0008093D8008091E00082608093E000809175
:1019B000E00081FDFCCF0E94A727DBC886E290E013
:1019C0000E9451331B821C821D828E83DCCF8B2DA3
:1019D00090E08E30910580F0809114018F5F8093AC
:1019E000140182E08093110180911601811148CB8E
:1019F000BB2009F41DCB44CBFC01EC59FF4F0C94E8
:101A0000363480911601882309F4D0C340E060E0A9
:101A100080E00E946B1ECAC310911401110F110FB8
:101A2000110F08E0010F093208F008E26091ED049F
:101A30007091EE048091EF040E944C32F62EE72E56
:101A4000D82E101708F0CEC1E12FF0E0DF01A4542A
:101A5000BE4F8C9190911501982331F02D2D4F2D73
:101A60006E2DCF010E946D1E1F5FEBCF10911401F0
:101A7000110F110F110F08E0010F093208F008E2F1
:101A8000E090EE04F090EF04D090ED046D2D7E2DEB
:101A90008F2D0E944C32C62EA72E982E6091F004F6
:101AA0006D0D7E2D8F2D0E944C32F62EE72ED82EF6
:101AB000101708F097C1812F90E0FC01E454FE4F0D
:101AC000308120911501232359F030FF04C02D2DC2
:101AD0004F2D6E2D03C0292D4C2D6A2D0E946D1E99
:101AE0001F5FE6CFF0901401FF0CFF0CFF0C38E0F5
:101AF000E32EEF0CA8E2AE1510F428E2E22EC0901F
:101B0000EE04A090EF042091F00490E4D92E3D2D36
:101B1000329F312D1124D32EFE1418F50F2D10E015
:101B2000F801E454FE4F9081809115018923B9F0AA
:101B3000F801EE0FFF1FE359FE4F808182958F70F1
:101B40006091ED048D9D600D11247C2D8A2D0E94E5
:101B50004C32462F282F672FC8010E946D1EF39428
:101B6000DBCF81E047E24E1508F021C31FC3F090A0
:101B70001401FF0CFF0CFF0CB8E0EB2EEF0C68E239
:101B80006E1510F4A8E2EA2EC090EE04A090EF04C7
:101B90002091F004F0E4DF2E7D2D729F712D112431
:101BA000D72EFE1438F50F2D10E0F801E454FE4F47
:101BB0009081809115018923D9F0F801EE0FFF1F64
:101BC000E15CFE4F65A5D69EB0011124E5E0759558
:101BD0006795EA95E1F78091ED04680F7C2D8A2DD9
:101BE0000E944C32462F282F672FC8010E946D1E7D
:101BF000F394D7CF81E097E29E1508F0D8C2D6C201
:101C0000F0901401FF0CFF0CFF0C68E0E62EEF0CC7
:101C1000A8E2AE1510F458E2E52E6091F004669546
:101C20008091E8049091E9040E944232D82EFE147B
:101C300008F042C00F2D10E0F801E454FE4F9081EF
:101C4000809115018923B1F1F801EE0FFF1FE15CCE
:101C5000FE4F45A550E044565109F801EE0FFF1F15
:101C6000E359FE4F208130E020523109449FB001FA
:101C7000459F700D700D1124229FC001239F900D70
:101C8000900D1124860F971F0E9411329091EE043F
:101C9000B3E08B9FB0011124759567956D0D792F79
:101CA0008091EF040E944C32462F282F672FC801E5
:101CB0000E946D1EF394BBCF81E0E7E2EE1508F0C1
:101CC00076C274C210911401110F110F110F98E018
:101CD000D92ED10EF8E2FD1510F488E2D82E6091CD
:101CE000F00466958091E8049091E9040E944232E4
:101CF000C82E1D1578F5E12EF12CF701E454FE4FA6
:101D0000908180911501892319F1F701EE0FFF1FD2
:101D1000E359FE4F208130E020523109F701EE0FE8
:101D2000FF1FE15CFE4F45A550E04456510960910C
:101D3000ED047091EE048091EF040C2D0E94A21E20
:101D40000E944C32462F282F672FC7010E946D1E1C
:101D50001F5FCFCF81E027E22D1508F028C226C2F1
:101D600010911401110F110F110F08E0010F09322A
:101D700008F008E2E090EE04F090EF04D090ED045B
:101D80006091F0046695669566958091E80490915F
:101D9000E9040E9442320E94F031805887FD81950B
:101DA000880F682F2CE0629F612D11246D0D7E2D10
:101DB0008F2D0E944C32F62EE72ED82E101790F45D
:101DC000E12FF0E0DF01A454BE4F8C9190911501FA
:101DD000982331F02D2D4F2D6E2DCF010E946D1EB9
:101DE0001F5FECCF81E0083208F4E1C1DFC182EA75
:101DF00098E102C08FE398E10E94901FD8C1009142
:101E00001401000F000F000F38E0300F3DAB3E32E1
:101E100010F04DE24DAB80911601882361F040E057
:101E200060E080E00E946B1E8DE2EEE5F2E0DF01F3
:101E30001D928A95E9F780911401811115C0809156
:101E40005B0290915C020E943A1921E08931910570
:101E500008F420E020935A02499730F00E94551967
:101E600090935C0280935B0210E0BDA98B2E912CB5
:101E7000FE0131961F01AAEA7A2E081519050CF009
:101E800066C0C80165E070E00E9422342B016C013D
:101E900029E0289FF001299FF00D1124E25AFD4FFF
:101EA000E60FF71FA080A1010E946F1E682E71012E
:101EB0008E2D8219861508F032C0D701EC91F0E022
:101EC000E454FE4F908180911501892321F13A2D30
:101ED00025E5321B08F430E07091EE04272D4A2DE1
:101EE000240F08F42FEF4091EF0462E0269F200DAD
:101EF00011242E5F249F212D1124672D631B822F17
:101F00000E944C32462FD7019C91282F672F892F92
:101F100090E00E946D1EBFEFEB1AFB0AC9CF8091C3
:101F20005A02882389F02A2D31E0231B08F420E08F
:101F300049E04C9DC0014D9D900D1124825A9D4F4A
:101F4000FC01E40DF51D20830F5F1F4F96CF81E04C
:101F50006DA96D3208F42BC129C180911601882327
:101F600071F040E060E080E00E946B1E8DE2EEE5E3
:101F7000F2E0DF011D928A95E9F710925D027EE59D
:101F8000E72E72E0F72E912C88248A94E0EC7E2EC6
:101F9000FFE2CF2ED12C8701A12CA1100CC0809183
:101FA0005D02811108C00E942833853595401CF4DC
:101FB000F701808206C0D8018C9181508E3F08F4D1
:101FC0008C93AE014F5F5F4F692D8A2D0E946F1E6B
:101FD000882311F1F80140813981413D70F050E0D2
:101FE000405D5109749EC001759E900D1124B6018B
:101FF0000E940E34262F4FEF0BC0FFEF4F9FC00102
:10200000112460ED70E00E940E34462F20E060E065
:10201000832F90E00E946D1EA394075F1F4F25E061
:10202000A212BBCF93943FEFE31AF30A49E0941254
:10203000B2CF80915D028F5F8D3118F480935D0285
:10204000B5C010925D0229E732E084E04EEFAEE5C4
:10205000B2E0F90199E0843041F494965C91949750
:102060005F3F19F494964C93949750815F3F11F41D
:10207000408351879150319611969111ECCF815048
:10208000295031098111E3CF91C0D0901401DD0CAA
:10209000DD0CDD0C68E0C62ECD0C68E26C1510F48A
:1020A00058E2C52E2091F00431E0230F08F42FEF01
:1020B00030E040E050E06FEF7FEF80E090E00E9482
:1020C000AB338901AA24A394DC1408F041C0ED2CA1
:1020D000F12CF701E454FE4F908180911501892382
:1020E000A9F190918B02915097FD15C0292F092ECF
:1020F000000C330BF901E557FD4F8189D812F3CF5E
:10210000220F331FF901E557FD4F218D328D201726
:10211000310748F701C098016091F0047A2D670FEC
:1021200008F46FEFC9010E944232AC016091ED04E6
:102130007091EE048091EF040E949C1E0E944C322C
:10214000462F282F672FC7010E946D1ED394BCCF46
:1021500081E097E29C1558F529C0F0901401FF0C1E
:10216000FF0CFF0C28E0E22EEF0CA8E2AE1510F4F5
:1021700098E2E92EFE14B0F40F2D10E0F801EE0FF6
:10218000FF1FE00FF11FEC53FD4F608171818281D1
:102190000E944C32462F282F672FC8010E946D1EC7
:1021A000F394E8CF81E0B7E2BE1508F480E09091A7
:1021B00014019F5F90931401882309F412CC0C94AE
:1021C00040088F929F92AF92BF92CF92DF92EF9290
:1021D000FF920F931F93CF93DF9300D000D0CDB722
:1021E000DEB7FC018081918123813481232B31F082
:1021F0009F3F31F491E08F3F19F403C091E001C09B
:1022000090E090FDF7C66F0161E0CF010E94092FB9
:102210008C01F6018281882309F49AC09801225129
:102220003F452031310508F07BC08FEF93E00E94DD
:10223000513381117FC03EEEF32EF00E01E612E025
:10224000FF2071F00115F4E01F0709F473C0C80105
:102250000E945133811101C0FA940F5F1F4FF0CFDC
:1022600019821A821B821C82AA24AA9478012FEF59
:10227000E21AF20AC8010E94513389831A82882324
:1022800009F458C0813009F046C0480182E0880E48
:10229000911CC7010E9451338A83882309F44AC0E4
:1022A0009FEF980F933060F4780193E0E90EF11CF2
:1022B000C4010E9451338B8381112DC08701D6CF79
:1022C000843011F07401FACFC4010E945133B82E4A
:1022D0007801E4E0EE0EF11CC80103960E94513330
:1022E000BB2041F1882331F1282F30E02150310902
:1022F000A29EA001A39E500D11248B2D90E001976A
:10230000840F951F0197D0F2EFE9FFE03197F1F7C5
:1023100000C00000F7CFCE0101960E94AE2ECECFB6
:1023200000319FE5190709F030C581E00E94982728
:102330000E94851F80915A05877009F45BC6F601DB
:102340008281882309F456C682E00E946F2D52C60E
:102350000031FFE51F0711F481E005C001312FE5D1
:10236000120721F482E00E948C27E2CF909146036D
:10237000911105C090914903992309F4B7C09801C0
:102380003056211590E2390720F0305E211530419A
:1023900040F4F6019581907F09F4A8C07801FF24EC
:1023A00001C07801970130542115354108F49EC0D1
:1023B00090914903923021F5882369F080915D0561
:1023C000982F927219F06894F1F80FC086FF0DC033
:1023D00024E1F22A0AC0C70195558F3F910511F0FB
:1023E00008F0B4C580E00E94F62C81E08093490398
:1023F000F0924803E09247038FEF809310019ACF49
:10240000882309F4A3C5913009F05FC080911001C1
:102410009CE2E916F104D9F4882329F00E94963150
:102420001092100187CF80914703909148039555F2
:102430008F3F910509F018F40E94EB2C03C08AE24B
:102440000E945129109249030E94E6314FC0EAE2EE
:10245000EE16F10421F481508093100126C087FD0F
:1024600034C081110BC0809147039091480395556A
:102470008F3F910509F010F40E9496318091100170
:102480008F5F80931001FDE2EF16F10471F040F4CC
:1024900084E0E81AF10894E2E916F10480F405C03A
:1024A000EDE2EE16E2E0FE0651F4F60182818823A9
:1024B00009F44CC580915D05811114C065C1F60118
:1024C0008281882309F442C50DC09AE2E916F1041D
:1024D00089F308F080C5F4E0EF1AF10824E2E2166F
:1024E000F10440F30E94E631109249030138FFE500
:1024F0001F0779F4F60182818823C1F081E080937F
:1025000046030E94DD1981FD11C089E30E94512913
:102510000DC002382FE5120708F0BDC409331105BC
:1025200009F03AC4F6018281811139C1F601928124
:10253000992309F455C110921A040230FCE51F07D3
:1025400008F438C106312CE5120738F098012A5FEB
:102550003C452930310508F02DC10E94652C90932F
:1025600021028093200200318CE5180709F4C3C0D2
:1025700008F041C00830ECE51E0709F49AC0F0F4F9
:1025800004302CE5120709F487C068F402309CE59A
:10259000190709F477C003301C4509F0E5C08091A4
:1025A0002002826076C00630FCE51F0709F46EC089
:1025B00008F07BC08091200288606BC00C308CE5F5
:1025C000180709F485C068F40A30ECE51E0709F421
:1025D00074C008F079C00E94A7278091200280680B
:1025E00058C00E302CE5120709F476C008F07FC001
:1025F000809120028BC00B3F9CE5190709F44FC066
:1026000018F50331FCE51F0709F47DC078F40131AA
:102610008CE5180709F473C002311C4509F0A4C009
:102620000E94A727809120028F7733C00531ECE507
:102630001E0709F472C008F486C00A3F1C4509F061
:1026400093C0809121023EC00F3F8CE5180709F42A
:102650005FC058F40D3FECE51E0709F444C008F4D0
:102660003FC08091210282602DC001302DE512070C
:1026700009F475C008F45DC002301D4509F074C04E
:1026800060E06EC080912002816003C080912002D2
:1026900080618093200268C08091200211C08091E7
:1026A00021028260809321025FC0809120028062BB
:1026B000F0CF809120028064ECCF8091200288606E
:1026C0008460E7CF8160EECF809120028E7FE1CFE2
:1026D000809120028D7FDDCF80912002877FD9CF2E
:1026E0008091210218C0809121028D7FDBCF8091E3
:1026F00020028F7ECECF809120028F7DCACF809125
:1027000020028F7BC6CF80912002877F8B7FC1CF35
:10271000809121028D7F8E7FC5CF8091200282FB28
:10272000222720F991E0922790FB82F990FB83F910
:10273000B0CF80912102982F909591708E7F892B38
:1027400090FB81F9AFCF0E94A7278091200287FBE1
:10275000222720F991E0922790FB87F99ACF61E038
:102760008EE090E00E946F33609120021091210270
:1027700084E090E00E946F33612F82E290E00E943B
:102780006F330E94A727D6CD0138FFE51F0709F454
:10279000B1CE08F080C30933110509F0FDC2809164
:1027A0002C02882319F010922C02C0CE81E0809375
:1027B0002C02BCCE80915D050631ECE51E0709F5C3
:1027C0008A7A91E009F490E090934A03882311F00B
:1027D00065E301C069E285E095E00E9497190EC0AB
:1027E00006311C4509F08BC080914A03882309F407
:1027F000F0C365E385E095E00E948A190E94112DDF
:1028000099CD8272F801E25CFC45EB30F10508F0ED
:1028100043C0EE58FF4F0C9436348091EC0491E0A5
:1028200089278093EC041092110190934B0382CD81
:1028300046E55EE160E67EE12CC040E65EE166E5ED
:102840007EE127C049E25EE163E37EE122C043E32B
:102850005EE169E27EE11DC04FE05EE16CE17EE198
:1028600018C04CE15EE16FE07EE113C045EF5DE131
:1028700062E07EE10EC042E05EE165EF7DE109C00D
:1028800047E258E163E378E104C043E358E167E2DB
:1028900078E10E94DC1D4ECD992389F10A35EDE5E2
:1028A0001E0741F150F401152CE51207A9F00E3D69
:1028B0001C4529F50E94812C3DCD0B359DE519075E
:1028C000D9F00C351D45D9F48091210282FB88276F
:1028D00080F991E0892711C00E94A727FFEF24E328
:1028E0008CE0F15020408040E1F700C000000E94E1
:1028F000F01820CD81E001C080E00E944E2DF6014D
:10290000868197810097B9F4F60182810081118157
:10291000882349F0C8010E94E724F82E682FC801D7
:102920000E945B2704C0C8010E942B27F82EB80123
:102930008F2D0E942A1D0E94DC2AF82E192FF601E5
:10294000E280058102950F7080915A05877099F099
:10295000EE2089F0892F807F803421F080E28F0D76
:10296000883048F082E00E946F2D80915A05877070
:10297000BB24B3948111B12CA12EA2948FE0A82284
:102980008A2D90E08C30910508F0DBC1FC01E35802
:10299000FF4F0C943634812F807F1F70882311F0F5
:1029A0001295107FEE20B9F0112309F4ACC180E23A
:1029B0008F0D883010F0F11006C090915D05192B35
:1029C00010935D0505C090915C05192B10935C0573
:1029D0000E94112D98C18F2D0E945E28112309F4A9
:1029E000B0C180E28F0D883010F0F11004C0812F4B
:1029F0000E940A2D06C0109590915C051923109332
:102A00005C050E94112D9DC1812F807F1F70803237
:102A100011F01295107FFF2021F0F1E0FF1691F1E7
:102A20003BC0EE20D9F00023A9F0013031F48091B1
:102A30006005812B0E94F62C84C1053059F40E9458
:102A4000EB2C80915705181310935705812F0E9486
:102A5000542877C180916005812BF9CF002349F07C
:102A6000013069F480915D05812309F46AC10E94F7
:102A7000A22D0E94EB2C812F0E944D2862C10530AF
:102A8000C1F75FC1EE2021F0063008F05AC1DECF59
:102A9000053008F056C1EFCFEE2019F00023B1F257
:102AA00032C1002341F329E3F21208C08FEF97EE01
:102AB000E3E081509040E040E1F73EC1FFE728E3CA
:102AC00081E0F15020408040E1F736C1812F8695AA
:102AD0008695837019F0813061F033C1EE2021F0CA
:102AE0008F2D912F937002C080E090E00E94C71953
:102AF0002EC1EE2021F08F2D912F937002C080E027
:102B000090E00E94B11923C1812F8370A9F5E110D3
:102B10001CC14F2D429546954770440F440F8F2D91
:102B20008F7090E09C01042E01C0220F0A94EAF7F6
:102B3000F4FE08C08FE090E001C0880F4A95EAF7E4
:102B4000809501C080E0169516951370123069F0DB
:102B500088F490916105113019F0822B892302C00D
:102B6000922B892B0E94A327F0C0822B90916105A4
:102B70008927F8CF822BF6CFEE2019F0812F8170B4
:102B800001C08695882309F4E0C04F2D42954695F3
:102B90004770440F440F8F2D8F7090E09C01042EDE
:102BA00001C0220F0A94EAF7F4FE08C08FE090E01B
:102BB00001C0880F4A95EAF7809501C080E016951C
:102BC00016951370123059F078F49091F204113088
:102BD00019F0822B892309C0922B892B06C0822BE6
:102BE0009091F204892701C0822B0E948827ADC0F2
:102BF0001F70EE2039F0812F0E9498278F2D0E94A0
:102C00005428A3C08F2D0E944D28812F0E948C270D
:102C10009CC092EFF91659F19F1538F0E0EFFE16BF
:102C200059F0F1EFFF16E1F069C023EFF21631F130
:102C300084EFF81681F162C0EE2071F0053008F0E3
:102C400080C01F7181E090E001C0880F1A95EAF7FB
:102C50009091F20489271CC0063008F072C0F1CFB1
:102C6000EE2039F0812F8F710E9498276AC0EE20E4
:102C7000C9F3812F8F710E948C2763C0EE2039F039
:102C80001F7181E001C0880F1A95EAF701C080E04A
:102C90000E94882756C0EE20D1F0809157050E94EF
:102CA0000A2D80915A058770843039F40E94682D6E
:102CB000812F8F710E948C2766C0053008F063C099
:102CC0001F71812F0E94982763E0812F10C090917F
:102CD0005D0580915705892B80935D05053050F087
:102CE0000E94682D0E94A22D64E0812F8F710E94A6
:102CF0008C2D49C081E00E946F2D45C0EE2039F037
:102D0000002309F4AFCF8F2D0E94B5281AC00023ED
:102D100009F4AFCF99E3F91208C0EFEFF7EE23E023
:102D2000E150F0402040E1F707C08FE798E3E1E091
:102D300081509040E040E1F700C000008F2D0E94DC
:102D40005E2888EF8A0D843010F40E94DD19BB20C4
:102D5000A9F080915A0580FD11C0F6011282859577
:102D6000859585950E949827C6010E94E110809163
:102D70005A058595859585950E948C2760E0C6014A
:102D80000E94092F37C1B12CE0CF0131EFE51E07BA
:102D900009F0ECCA82E0CACA00388FE5180709F0CA
:102DA00086C0F6018281882309F4C0CB9AEFA92E50
:102DB00093E0B92E2AE0922EF5018491882309F43C
:102DC0005AC0813009F04FC07501FFEFEF1AFF0ABA
:102DD000F7018491813049F47501F2E0EF0EF11CA6
:102DE000F70184910E94512941C0823049F4750154
:102DF000F2E0EF0EF11CF70184910E94B52836C075
:102E0000833049F47501F2E0EF0EF11CF701849173
:102E10000E945E282BC0843049F57501F2E0EF0E68
:102E2000F11CF701249180E090E030E0205331095B
:102E30002A30310570F4989EA001999E500D1124FE
:102E4000C901840F951FFFEFEF1AFF0AF7012491C4
:102E5000ECCF009759F0EFE9FFE03197F1F700C0B0
:102E600000000197F6CF0E94482E75015701FFEF31
:102E7000AF1ABF0AA1CF8091600581FD57CB0E9498
:102E8000551990935F0580935E058091600582607F
:102E9000809360054BCB03389FE5190709F460C0A8
:102EA00008F46BC00438FFE51F0709F476C0033F40
:102EB0002CE51207A1F406E221EE40EE63EF7CE57B
:102EC0000AC0073DFCE51F0709F030CB06E221EE02
:102ED00041EE67ED7CE5C6010E94441B2BCA043F0E
:102EE0008CE51807A0F4083D9CE5190731F407E2CA
:102EF00025EE45EE68ED7CE5EECF093DECE51E07DD
:102F000001F708E221E045EE69ED7CE5E4CF053FFD
:102F10002CE5120731F406E221EE42EE65EF7CE586
:102F2000DACF053F8CE5180730F407E225EE44EED2
:102F300064EF7CE5D0CF063F9CE5190709F0F6CA9F
:102F400007E225EE46EE66EF7CE5C5CF01382FE5BA
:102F5000120709F4CFCA98F10338EFE51E0749F4C8
:102F6000F6018281882309F4E1CA82E08093490353
:102F70003EC00338FFE51F0758F4F601828188231D
:102F800009F4D4CA81E0809349038DE290E00FC038
:102F900004382FE5120709F08ACFF60182818823D1
:102FA00009F4C4CA81E0809349038DE292E09093D2
:102FB0004803809347038FEF8093100118C00933B3
:102FC000110509F4B3CA00389FE5190709F4E9CEE1
:102FD0006ECF69E20FCC8DE2E816F10409F46ACAFB
:102FE0009DE2E91692E0F90609F07CCA63CAF6018F
:102FF0009281A1CA0F900F900F900F90DF91CF9107
:103000001F910F91FF90EF90DF90CF90BF90AF9006
:103010009F908F90089508958091D3040895ECE4D3
:10302000F3E093E0E43CF90729F081836083428375
:103030003396F7CF0895FC01EE0FFF1F8E0F9F1FF1
:10304000FC01E45BFC4F6183408322830895ECEE36
:10305000F4E0248130E1231B08F420E0248381E0A4
:1030600080934B030895ECEEF4E0248130E1230FCC
:1030700008F42FEF248381E080934B030895E42F1D
:10308000F0E0EE0FFF1FE15CFE4F95A5921B97FD50
:103090009195292F38E1239F212D1124620F089546
:1030A000CF93DF9321E02093E9002FEF3091E800E8
:1030B000215035FD06C035ED3A95F1F7000021119C
:1030C000F5CF2091E80025FF14C0EC0140E050E06E
:1030D00068E070E00E9487248091E8008E778093FA
:1030E000E80088E0FE01A4EDB4E001900D928A951D
:1030F000E1F7DF91CF910895539A8BB1877F9BB110
:1031000098602FB7F894ECE4F3E033E0E43CF30785
:1031100089F0319148E09BB9000000C037FF8BB9BE
:10312000330F000000C000C000C08BB900C04A953A
:1031300091F7EBCF2FBF8FE594E00197F1F700C037
:10314000000008950F931F93CF93DF93D62F072F7F
:10315000182FC42F822F0E94F031EC2FF0E0EE0FD9
:10316000FF1FE15CFE4F95A59058890F87FD819563
:10317000880F682F2CE0629F612D11246D0F702F36
:10318000812FDF91CF911F910F9108959091E704C6
:10319000943029F58093CE047093D0046093CF04CB
:1031A0009093E9008FEF9091E800815095FD06C063
:1031B00095ED9A95F1F700008111F5CF8091E80027
:1031C00085FF0DC040E050E063E070E08EEC94E0DD
:1031D0000E9487248091E8008E778093E80008950C
:1031E00081E08093E00080E28093D8001092C900D3
:1031F0008FE19EE40197F1F700C0000087E090EBBB
:10320000DC018093650590936605A0936705B093F4
:1032100068059CE088E10FB6F894A895809360005B
:103220000FBE90936000FFCF78941F920F920FB65D
:103230000F9211248F939F93AF93BF938091CA04F1
:103240009091CB04A091CC04B091CD040196A11D26
:10325000B11D8093CA049093CB04A093CC04B09387
:10326000CD04BF91AF919F918F910F900FBE0F90A2
:103270001F9018959C014FB7F8948091CA049091C3
:10328000CB04A091CC04B091CD044FBF821B930B13
:1032900008952FB7F8946091CA047091CB0480917F
:1032A000CC049091CD042FBF08952FB7F89480914E
:1032B000CA049091CB04A091CC04B091CD042FBF4F
:1032C00008951F920F920FB60F9211248F939F9320
:1032D000AF93BF938091C904811113C08091CA0438
:1032E0009091CB04A091CC04B091CD044196A11D46
:1032F000B11D8093CA049093CB04A093CC04B093E7
:10330000CD04BF91AF919F918F910F900FBE0F9001
:103310001F9018959C012A5F3F4FFC014281461384
:1033200001C01282019682179307B9F708959C0194
:10333000FC0132969FEF80E04191461789F09F3F54
:1033400019F4411101C0982F8F5F8630A9F79F3F74
:1033500039F0F901E90FF11D97FDFA95628308959F
:1033600008952091C7043091C8042817390771F0D7
:103370009093C8048093C704E091C504F091C604FB
:10338000309721F00084F185E02D09940895209173
:10339000C3043091C4042817390771F09093C40412
:1033A0008093C304E091C504F091C604309721F0E6
:1033B0000680F781E02D09940895E091C504F0910D
:1033C000C604309721F00190F081E02D099480E04F
:1033D0000895BC014091BF048091C004942F9817B8
:1033E00029F1292F30E0F901EE0FFF1FE954FB4FBF
:1033F0000190F081E02DE617F70799F487E0869FAA
:10340000F001879FF00D1124E158FB4F81E0848388
:1034100094130CC02F5F3F4F237033272093BF04BA
:1034200008952F5F3F4F922F9370D9CF08950F9338
:103430001F93CF93DF9380911E04882309F451C01A
:10344000C0911D041CE080911E04C81708F045C0FF
:1034500001E00C0F00931D04D0E01C9FF0011D9FA4
:10346000F00D1124E15EFB4F908181812381348135
:10347000232B31F08F3F31F481E09F3F19F403C0DB
:1034800081E001C080E080FD26C01C9FD0011D9F0F
:10349000B00D1124A15EBB4F16968D919C9117978C
:1034A000892B31F418968D919C911997019651F4BE
:1034B0002081318142815381648175818681978128
:1034C0000E94B2271C9FF0011D9FF00D1124E15EA8
:1034D000FB4F14821382C02FB6CF10921E0410929D
:1034E0001D04DF91CF911F910F91089510921C043C
:1034F00010921B04EFE7F4E08581811102C0148271
:103500001682379684E0E73BF807B1F708951092EA
:10351000C2041092C104109212018091C0048093E1
:10352000BF040E94761A0C94171A3F924F925F9232
:103530006F927F928F929F92AF92BF92CF92DF92C3
:10354000EF92FF920F931F93CF93DF93C091BF042D
:1035500097E0892E01E010E02CE0322E3EEF932E12
:10356000442443948091C004C81709F478C0D0E083
:10357000FE01EE0FFF1FE954FB4F80819181889E71
:10358000D001899EB00D1124A158BB4F14962C91E7
:103590001497211161C050901E04EFE1F4E020E087
:1035A00030E0712C5D01251508F054C0E284F384ED
:1035B000D501CD90DC906FEF7FEF612C462D50E070
:1035C000DA01AA0FBB1FAC0DBD1D0D90BC91A02D43
:1035D000109731F0EA16FB0609F4BA016394EECFB6
:1035E0006F3FBFEF7B0791F1D80102C0AA0FBB1F4D
:1035F0006A95E2F77A2AB80102C0660F771F6A94CB
:10360000E2F7AB0141505109672D70E046175707AB
:10361000D9F4329EF001339EF00D1124E15EFB4F90
:10362000889ED001899EB00D1124A158BB4F1296DF
:103630002D913C91139737832683908291829187B5
:10364000808715964C9206C0148213822F5F3F4FDD
:103650003C96A9CF0E94E9192196C37083CF0E949E
:10366000171ADF91CF911F910F91FF90EF90DF908C
:10367000CF90BF90AF909F908F907F906F905F9012
:103680004F903F900C94761A0F931F93CF93DF9334
:10369000C42FD22FFC0182818823C9F040931A04E1
:1036A0000E945519909319048093180480E28C0F9E
:1036B000883008F057C0C77081E001C0880FCA95F4
:1036C000EAF7DF91CF911F910F910C9454288091CC
:1036D0001A04481330C080911804909119040E9474
:1036E0003A19883C910538F510E21D0FCD17B9F055
:1036F00080E28C0F883040F4C77081E001C0880FF1
:10370000CA95EAF70E944D28183028F581E09D2FD0
:10371000977001C0880F9A95EAF70E945428802F6D
:103720000E9451291830F0F4D77081E001C0880F51
:10373000DA95EAF70AC080E28C0F883098F4C770F7
:1037400081E001C0880FCA95EAF7DF91CF911F9100
:103750000F910C944D28802FDF91CF911F910F91E5
:103760000C945129DF91CF911F910F910895CF9320
:10377000DF93C1E6D2E060E0CE010E946F33219674
:10378000C11584E0D807B9F7DF91CF9108950F9361
:103790001F93CF93DF93853068F5623058F5423040
:1037A00048F521159CE5390731F4E0911404F091B6
:1037B0001504EF2BF9F08901282F34E0639FC00135
:1037C000112438E0239F800D911D1124840F911D39
:1037D000840F911DEC01C751DE4F612FCE010E9475
:1037E0006F33602FCE010196DF91CF911F910F9122
:1037F0000C946F33DF91CF911F910F9108950F9328
:103800001F93CF93DF93853018F5623008F542306F
:10381000F8F4282F34E0639FC001112438E0239F7F
:10382000800D911D1124840F911D840F911DEC01B9
:10383000C751DE4FCE010E94513390E0182F002770
:10384000CE0101960E9451339801282BC90102C074
:1038500080E090E0DF91CF911F910F9108950F9339
:103860001F93CF93DF93853058F5653048F5493085
:1038700038F521159CE5390731F4E0911404F091F5
:103880001504EF2BE9F08901C42FD0E0CC0FDD1F28
:1038900092E1699FC00DD11D11249AE5899FC00D49
:1038A000D11D1124612FCE0187960E946F33602FA6
:1038B000CE018896DF91CF911F910F910C946F33B9
:1038C000DF91CF911F910F9108956F927F928F9208
:1038D0009F92AF92BF92CF92DF92EF92FF920F939F
:1038E0001F93CF93DF93CDB7DEB72A970FB6F89427
:1038F000DEBF0FBECDBFA0901404B090150481E0D0
:1039000090E09093150480931404C12CD12C712C59
:10391000612CE12CF12C00E010E046018E0C9F1C84
:10392000F801EE0FFF1FE80DF91DE350FC4F259144
:103930003491402F662D872D0E942F1C0F5F1F4F43
:103940000930110569F782E1E80EF11C639495E0F6
:103950006912E1CF21E030E040E060E0872D0E9475
:10396000C71B21E030E041E060E0872D0E94C71BCB
:1039700021E030E040E061E0872D0E94C71B21E09C
:1039800030E041E061E0872D0E94C71B7394EAE5B7
:10399000CE0ED11CF5E07F12BBCFCE0101967C018B
:1039A0008AE0F70111928A95E9F701E112E04AE015
:1039B00050E0B801C7010E949333065F1F4F0136E4
:1039C000F2E01F07A1F7B0921504A09214042A9602
:1039D0000FB6F894DEBF0FBECDBFDF91CF911F9120
:1039E0000F91FF90EF90DF90CF90BF90AF909F909E
:1039F0008F907F906F9008950F931F93CF93DF93D5
:103A0000853008F56530F8F44930E8F4C42FD0E08B
:103A1000CC0FDD1F22E1629FC00DD11D11243AE5BC
:103A2000839FC00DD11D1124CE0187960E94513372
:103A300090E0182F0027CE0188960E9451339801FC
:103A4000282BC90102C080E090E0DF91CF911F9147
:103A50000F910895462F2091160430911704232BBF
:103A600049F4853038F4753028F4693018F4672F3C
:103A70000C94FC1C80E090E00895CF92DF92EF92CE
:103A8000FF920F931F93CF93DF93CDB7DEB72A97A3
:103A90000FB6F894DEBF0FBECDBF80E5E4ECF3E0D7
:103AA000DF011D928A95E9F788E3EFE7F4E0DF0193
:103AB0001D928A95E9F784ECC82E83E0D82E7F0109
:103AC00001E112E0F701D182C0824AE050E0B80182
:103AD000CE0101960E94413388E0FE013196D60165
:103AE00001900D928A95E1F789859A85D701139601
:103AF0009C938E931297BAE0CB0ED11CE7E0EE0EAA
:103B0000F11C065F1F4F0136F2E01F07D9F62A9617
:103B10000FB6F894DEBF0FBECDBFDF91CF911F91DE
:103B20000F91FF90EF90DF90CF900895CF93C82F23
:103B3000811102C06FEF01C06CE883E290E00E9447
:103B40006F33C11102C06FEF01C06DE184E290E0FC
:103B50000E946F33C11102C06FEF01C061E385E2C3
:103B600090E0CF910C946F3380E00E94961D60E04E
:103B700086E290E00E946F330E94651C0E94B71B92
:103B800081E00C94961D83E290E00E9451338C38C2
:103B900081F484E290E00E9451338D3151F485E24A
:103BA00090E00E94513391E0813309F090E0892F39
:103BB00001C080E081700895882311F0FA0101C0EE
:103BC000FB0109949091EC04937071F08093ED04E3
:103BD0006093EE044D3308F04CE34093EF04809182
:103BE0004B03282B20934B030895ECEEF4E0438124
:103BF00020E1421B08F440E0818121E0628190E0F5
:103C00000C94E21DECEEF4E0438120E1420F08F455
:103C10004FEF818121E0628190E00C94E21DECEE97
:103C2000F4E0628120E1621B08F460E0818121E020
:103C3000438190E00C94E21DECEEF4E0628120E11F
:103C4000620F08F46FEF818121E0438190E00C94D2
:103C5000E21DECEEF4E0818190E021E0438162819D
:103C600008970C94E21DECEEF4E0818190E021E0F5
:103C70004381628108960C94E21D9091EC0493704C
:103C8000A1F0811102C0946007C08E3010F09463DF
:103C900003C0880F880F982B9093EC0410921101A9
:103CA00080914B03682B60934B0308958091EC0443
:103CB00086958695815009F48DE061E00C943D1E57
:103CC0008091EC04869586958F5F8E3008F081E0B8
:103CD00061E00C943D1E0C940F180C941B1829E005
:103CE000829FC0011124FC01E15CFE4FE60FF11D33
:103CF00080818F3F21F0FA01808381E0089580E088
:103D0000089546E050E06CE170E08CEE94E00C9495
:103D10005F33ECEEF4E085E0808380911F019091A9
:103D20002001A091210181839283A3838FE7848363
:103D30008FEF85830C94811E22E8241B08F420E079
:103D4000620F08950F93CF93DF93D72FC82F47FDAE
:103D50004195E2E3F0E0CF01841B910947FD939583
:103D6000889FB001899F700D700D1124229FC001A2
:103D7000239F900D900D1124860F971F0E941132E2
:103D8000682F660F860F682F600F7D2F8C2FDF91B5
:103D9000CF910F9108958091DF0487FF11C080912A
:103DA000E80082FD05C08091E7048111F8CF11C0C1
:103DB0008091E8008B770BC08091E704882349F05D
:103DC0008091E80080FFF8CF8091E8008E778093A3
:103DD000E8000895982F973068F59093E9009817B8
:103DE00039F07091EC002091ED005091F00003C08B
:103DF000242F762F50E021FD02C09F5FECCF309141
:103E0000EB003E7F3093EB003091ED003D7F30932F
:103E1000ED003091EB0031603093EB007093EC00DB
:103E20002093ED005093F0002091EE0027FDE5CFA8
:103E300080E008958F708093E90081E008952091DB
:103E4000E5043091E6042617370748F0611571053F
:103E500039F42091E8002E772093E80001C0B901E1
:103E6000FC0120E06115710579F18091E704882358
:103E7000F1F18530F1F18091E80083FD3CC0809143
:103E8000E80082FD2EC08091E80080FFEBCF2091FA
:103E9000F3008091F20090E0922B6115710551F0D2
:103EA0008830910538F421912093F1006150710917
:103EB0000196F3CF21E0089709F020E08091E80017
:103EC0008E778093E800CECF2111CFCF0AC08091AA
:103ED000E704882361F0853061F08091E80083FD7C
:103EE0000AC08091E80082FFF2CF80E0089582E06E
:103EF000089583E0089581E00895BC0184E00C9466
:103F0000C618BC0183E00C94C6188091F204982F67
:103F10009670963011F4886001C0877F0C948827D2
:103F2000DF92EF92FF920F931F93CF93DF938C0159
:103F3000C0911401CC0FCC0FCC0FD8E0DC0FD932DC
:103F400008F0D8E26091F0046695669521E0620F72
:103F500008F46FEF8091E8049091E9040E944232E6
:103F6000D82ECD17F0F4EC2EF12CF701E454FE4FCF
:103F7000908180911501892391F06091ED047091F9
:103F8000EE048091EF042D2D4C2FF80109950E942D
:103F90004C32462F282F672FC7010E946D1ECF5F1E
:103FA000E0CF81E0D83208F080E0DF91CF911F911F
:103FB0000F91FF90EF90DF9008951F93CF93DF93C1
:103FC000CDB7DEB7AA970FB6F894DEBF0FBECDBF50
:103FD000EFEDF4E08091F100819344E0E73EF407D7
:103FE000C9F78091E004833009F462C030F4813075
:103FF00071F0823009F49CC0B3C08A3009F488C0E3
:104000008B3009F46DC0893009F0AAC020C08091BE
:10401000DF04813A09F0A4C08091E800877F809393
:10402000E8008091E3049091E404892B21F468E096
:1040300084ED94E003C060E080E090E070E00E94D6
:104040001F1F8091E8008B778093E80089C08091E2
:10405000DF04813209F084C08091E3049091E4048C
:10406000009719F0029709F07BC08091E800877FE4
:104070008093E8008091E80082FD05C08091E7040C
:104080008111F8CF6DC02091F3008091F20090E093
:10409000922B029729F48091F1008B7F813021F4DB
:1040A0008091F1008093D3048091E8008B7754C015
:1040B0008091DF04813A09F053C08091E30490912C
:1040C000E404892B09F04CC08091E800877F80933D
:1040D000E8008091E80080FFFCCF8091130137C099
:1040E0008091DF048132E1F58091E3049091E40452
:1040F000892BB1F58091E800877F8093E8000E94CA
:10410000CB1E8091E104809313010E94A72728C051
:104110008091DF04813221F58091E800877F8093D0
:10412000E8000E94CB1E8091E2048093D20418C064
:104130008091DF04813AA1F48091E800877F809329
:10414000E8008091E80080FFFCCF8091D20480934A
:10415000F1008091E8008E778093E8000E94CB1EEA
:104160008091E80083FFE9C18091DF049091E00431
:10417000492F50E04A30510508F0DFC1FA01E757F6
:10418000FF4F0C943634803821F0823809F0D5C1C5
:1041900008C08091DC049091DD04992389F082604D
:1041A0000FC08091E3048F70873008F0C6C1809300
:1041B000E9008091EB0085FB882780F91092E900E7
:1041C0009091E800977F9093E8008093F10010921F
:1041D000F1007CC1282F2D7F09F0AFC1882319F091
:1041E000823061F0AAC18091E104813009F0A5C15B
:1041F000933009F080E08093DD042EC08091E104CB
:1042000081112AC08091E3048F702FEF280F263090
:1042100008F093C18093E9002091EB0020FF1CC0BF
:10422000933021F48091EB00806214C09091EB00F8
:1042300090619093EB0021E030E0A90102C0440FAF
:10424000551F8A95E2F74093EA001092EA008091A8
:10425000EB0088608093EB001092E9008091E80009
:10426000877F8093E8000E94CB1E67C1811165C1E2
:104270001091E1041F778091E3008078812B809377
:10428000E3008091E800877F8093E8000E94CB1EC6
:104290008091E80080FFFCCF8091E30080688093EC
:1042A000E300111102C082E001C083E08093E704C3
:1042B00044C18058823008F040C12091E10430911F
:1042C000E2042C3D53E0350779F583E08A838AE2E6
:1042D00089834FB7F894DE01139620E03EE051E267
:1042E000E32FF0E050935700E49120FF03C0E295E4
:1042F000EF703F5FEF708E2F90E0EA3010F0C796BE
:1043000001C0C0968D939D932F5F243149F74FBF15
:104310008091E800877F8093E8006AE270E0CE0138
:1043200001960E941F1FC0C08091E3049091E40495
:10433000432F552743305105B1F068F44130510502
:1043400009F40AC14230510509F0F7C08BE590E04D
:10435000E3E5F6E057C04132510589F1423251059B
:1043600009F43CC0EAC0C901992781309105B9F030
:1043700070F082309105D9F0039709F0DEC0E0ECCF
:10438000F6E0E4918E2F90E0E0ECF6E038C0E6E352
:10439000F7E0E4918E2F90E0E6E3F7E030C0EAE149
:1043A000F7E0E4918E2F90E0EAE1F7E028C0EEED2F
:1043B000F6E0E4918E2F90E0EEEDF6E020C0833041
:1043C000910508F0BAC0880F991FFC01E75CFE4F09
:1043D0000190F081E02D89E090E014C083309105D8
:1043E00008F0ABC0FC01EE0FFF1FED5CFE4F01902B
:1043F000F081E02DDC01A05DBE4F8C9190E0009734
:1044000009F49BC02091E800277F2093E8002091C9
:10441000E5043091E6042817390708F4C90140E0A3
:10442000009789F12091E704222309F43DC025304B
:10443000D9F12091E80023FD37C02091E80022FD4A
:104440002FC02091E80020FFEBCF4091F300209196
:10445000F20030E0342B009759F02830310540F459
:1044600044914093F100319601972F5F3F4FF3CF76
:1044700041E02830310509F040E02091E8002E7736
:104480002093E800CDCF4111CDCF0AC08091E70441
:10449000882351F0853041F08091E80083FD04C00D
:1044A0008091E80082FFF2CF8091E8008B778093C3
:1044B000E80043C0803809F040C08091E800877F61
:1044C0008093E8008091DE048093F1008091E80001
:1044D0008E77C7CE811131C08091E1049091E204C2
:1044E0009927029754F58091E800877F8093E80030
:1044F0001091E1041093DE040E94CB1E111106C03E
:104500008091E30087FD02C081E001C084E08093D8
:10451000E70442E061EC81E00E94EA1E42E261ECC5
:1045200084E00E94EA1E42E261EC82E00E94EA1E00
:1045300042E260EC83E00E94EA1E8091E80083FF83
:1045400010C08091E800877F8093E8008091EB00A5
:1045500080628093EB0005C082E190E0EEEAF6E035
:1045600051CFAA960FB6F894DEBF0FBECDBFDF9134
:10457000CF911F9108951F920F920FB60F921124A1
:104580002F933F934F935F936F937F938F939F935B
:10459000AF93BF93CF93DF93EF93FF93C091E90065
:1045A000CF708091EC00D82FD17080FDD0E81092B0
:1045B000E9008091F000877F8093F00078940E945A
:1045C000DD1F1092E9008091F00088608093F00078
:1045D000CD2BCF70C093E900FF91EF91DF91CF9188
:1045E000BF91AF919F918F917F916F915F914F910B
:1045F0003F912F910F900FBE0F901F901895E8EDEF
:10460000F0E080818E7F80831092E2001092DA00C9
:104610001092E100A0EEB0E08C9181608C938081DB
:104620008F77808319BCA7EDB0E08C918E7F8C933F
:1046300080818F7E80831092D1040895CF92DF9283
:10464000EF92FF920F931F93CF93DF93C8EDD0E0CB
:1046500088818F7E8883E7EDF0E0808181608083B0
:1046600084E082BF81E08093D10488818E7F88833B
:1046700002EE10E0F80110821092DA0081EEC82EEE
:10468000D12CF601108288818F7788838881806899
:10469000888388818F7D888319BC1092E7041092EB
:1046A000DE041092DD041092DC0490EEE92EF12C71
:1046B000F70180818B7F808388818160888342E0DD
:1046C00060E080E00E94EA1EF60180818E7F808398
:1046D000F801808181608083808188608083F70118
:1046E00080818E7F8083888180618883DF91CF91F4
:1046F0001F910F91FF90EF90DF90CF9008951F9240
:104700000F920FB60F9211242F933F934F935F9305
:104710006F937F938F939F93AF93BF93EF93FF9389
:104720008091E10082FF09C08091E20082FF05C014
:104730008091E1008B7F8093E1008091DA0080FF1F
:104740002AC08091D80080FF26C08091DA008E7F39
:104750008093DA008091D90080FF18C080E189BD84
:1047600082E189BD09B400FEFDCF81E08093E704BA
:104770008091D10481110FC00E94FF220E941E234C
:104780008091E20084608093E20005C019BC109221
:10479000E7041092D1048091E10080FF17C080915E
:1047A000E20080FF13C08091E2008E7F8093E200E0
:1047B0008091E20080618093E2008091D800806265
:1047C0008093D80019BC85E08093E7048091E100D4
:1047D00084FF2EC08091E20084FF2AC080E189BD61
:1047E00082E189BD09B400FEFDCF8091D8008F7DA4
:1047F0008093D8008091E1008F7E8093E1008091CA
:10480000E2008F7E8093E2008091E20081608093DD
:10481000E2008091DE04882311F084E007C08091DB
:10482000E30087FD02C081E001C083E08093E704DC
:104830008091E10083FF27C08091E20083FF23C0C5
:104840008091E100877F8093E10082E08093E7041C
:104850001092DE048091E1008E7F8093E1008091D0
:10486000E2008E7F8093E2008091E200806180937D
:10487000E20042E060E080E00E94EA1E8091F000E9
:1048800088608093F000FF91EF91BF91AF919F916D
:104890008F917F916F915F914F913F912F910F90E9
:1048A0000FBE0F901F9018952091E4003091E50005
:1048B00095E64091EC00842F817040FF23C08091E9
:1048C000E80080FD1DC08091E704882399F08530C1
:1048D00099F08091EB0085FD11C04091E40050916A
:1048E000E5002417350729F3915011F09A01E1CF23
:1048F00084E0089582E0089583E0089581E00895BA
:1049000080E008954091E80042FFDDCF0895EF92E6
:10491000FF920F931F93CF93DF937C018B010E9433
:104920005424811119C0E70101151105A1F08091EE
:10493000E80085FD0AC08091E8008E778093E8004A
:104940000E945424882381F307C089918093F10049
:1049500001501109E9CF80E0DF91CF911F910F91B4
:10496000FF90EF900895CF932091E7042430F9F45D
:10497000C091E900CF703091EC00232F217030FD01
:1049800020E8C22B22E02093E9002091E80020FFDC
:104990000BC040E050E060E270E00E94872480910C
:1049A000E8008E778093E800CF70C093E900CF9144
:1049B000089580E090E00E94C71980E090E00E9496
:1049C000B11910925C0510925B050C94112DCF92D9
:1049D000DF92FF920F931F93CF93DF936C010091AF
:1049E000F20480916105082BC7E0D0E010E0C80117
:1049F0000C2E02C0959587950A94E2F780FD04C0BD
:104A00002197A8F7F12C09C0FC2EB6018C2F0E942B
:104A10002A1D0E94DC2A019799F38F2DDF91CF91F7
:104A20001F910F91FF90DF90CF900895CF93DF9368
:104A3000EC010E94E724BE010E942A1D0E94DC2A8C
:104A4000DF91CF910895FC0186819781009719F03D
:104A50000E94DC2A04C0808191810E941625292FA2
:104A60002F70E92FE295EF704E2F50E0FA01329748
:104A7000EE30F105B8F4ED56FF4F0C943634803F1C
:104A800099F018F4883E70F40FC0843F59F40CC0BC
:104A9000883E50F0813F31F407C0822F869586957D
:104AA0008695089580E0089581E008959F92AF92E1
:104AB000BF92CF92DF92EF92FF920F931F93CF930B
:104AC000DF93CDB7DEB765970FB6F894DEBF0FBEA4
:104AD000CDBF8C0185E0F801DE01519601900D9269
:104AE0008A95E1F7F801E28090910D0560910E053D
:104AF00040911005509111054115510531F06F3F5E
:104B000031F481E09F3F19F403C081E001C080E0EF
:104B1000F82FF1709F2E80FD4EC1F8013081218168
:104B2000C380D4807DE0A72E75E0B72EF0900F05EE
:104B3000F601E41BF50BFF2009F4EFC0809112058C
:104B4000E83CF10508F0AAC0482F407F09F05AC0A0
:104B500062131BC0931319C0609113057091140563
:104B6000F801468157816417750779F4FE2CE1102E
:104B70000CC08F70806180931205C5010E94E11006
:104B800080911205F801858353C1CD2831F02F3F64
:104B900031F481E03F3F19F403C081E001C080E0BF
:104BA00080FD03C081E08E2502C080E090E0F82FF8
:104BB000F170FF2E80FF1CC08091560540911505B5
:104BC000841709F413C190E0FC0153E0EE0FFF1FBE
:104BD0005A95E1F7EA5EFA4F5181251306C05081DC
:104BE000531303C05281E51203C001968770E8CFCA
:104BF000FE2CEE2009F41CC1809112058160809387
:104C0000120558C062130FC093130DC040911305D5
:104C100050911405F801268137814217530719F482
:104C2000EE2009F4A7C0C8010E942325882381F142
:104C3000EE2071F120911205822F82958F7090E005
:104C40000297A4F080910D0590910E059A878987AF
:104C50001B86DD86CC862E878091130590911405E6
:104C6000988B8F87CE0109960E94E11088E0F801A9
:104C7000ADE0B5E001900D928A95E1F70E94B22D6A
:104C80000AC06217C9F0C8010E942325811127C0FC
:104C9000C8010E94E110FF24F394CAC0482F407F4E
:104CA00081F78DE095E00E94E11088E0F501119216
:104CB0008A95E9F7F12CBCC09313E5CF4091130519
:104CC00050911405F8012681378142175307D9F610
:104CD000E110D9CF8583C8010E94E11066C0EE20A3
:104CE000B9F220911205822F82958F7090E0029781
:104CF0000CF4BCCF80910D0590910E059A838983A9
:104D00001B82DD82CC822E83809113059091140545
:104D100098878F83CE010196A7CFE83CF10508F074
:104D200044C0FE2CEE2009F4B3CF621330C09313BD
:104D30002EC02091130530911405F80186819781CA
:104D40002817390721F59091120590FD17C0892F7A
:104D500082958F70282F30E02115310579F09583E9
:104D60002F30310541F08F5F982F9295907F85818C
:104D70008F70892B8583C8010E94E11088E0F801BB
:104D8000ADE0B5E001900D928A95E1F751C0C80100
:104D90000E94232581116ACF809112058160809342
:104DA0001205C8010E94E11043C088E0F50111928C
:104DB0008A95E9F73DC0EE2009F46ACFC8010E9448
:104DC0002325F82E882309F463CF88E0F801ADE0AD
:104DD000B5E001900D928A95E1F780910D059091D3
:104DE0000E050E9416250E94B22D22C0398B2A8BF7
:104DF00089899A890E941625292F22952F702230A1
:104E000028F49F7039F0811105C00BC0243028F4BC
:104E10009F7049F4805E883020F0C8010E94E11044
:104E20009F2CF92C05C0F8019581907F99F7F9CF57
:104E30008F2D65960FB6F894DEBF0FBECDBFDF9104
:104E4000CF911F910F91FF90EF90DF90CF90BF9087
:104E5000AF909F9008959E3F61F129E0929F800D51
:104E60001124682F669566956695982F977083E054
:104E7000689FB001112440E050E080E0FB01E40FA6
:104E8000F51FED50FB4F208130E0092E02C0369512
:104E900027950A94E2F721703327042E01C0220FD0
:104EA0000A94EAF7822B4F5F5F4F4330510531F789
:104EB000089580E008959E3F51F129E0929F800D72
:104EC0001124E82FE695E695E695877051E001C03C
:104ED000550F8A95EAF783E0E89FF0011124ED5021
:104EE000FB4F20E030E070E04081CB01022E02C099
:104EF000969587950A94E2F781708195842785239A
:104F0000842781932F5F3F4F2330310569F7089540
:104F10008093F2040C94D92421E030E001C0220FE8
:104F20008A95EAF720958091F20482230C948827D1
:104F300021E030E001C0220F8A95EAF78091F20467
:104F4000822B0C948827809361050C94D9241092AD
:104F50005D0586E0E7E0F5E0DF011D928A95E9F75F
:104F60000C94D924CF93DF93CDB7DEB760970FB6FB
:104F7000F894DEBF0FBECDBF29873A874B875C8789
:104F80006D877E878F87988BCE0109960E94562564
:104F9000811151C088E0FE013996DE011196019021
:104FA0000D928A95E1F779856A854C855D85411575
:104FB000510531F06F3F31F481E07F3F19F403C0B8
:104FC00081E001C080E080FD36C0A0911505B0E011
:104FD000CD010196877099272091560530E0821700
:104FE000930781F179836A835D834C8393E0AA0FF1
:104FF000BB1F9A95E1F7AA5EBA4F98E0FE01319681
:1050000001900D929A95E1F7809315050E94A82DC5
:1050100012C028E0829FC00111248A5E9A4F0E942C
:1050200056258823E1F08091560590E0019687701F
:1050300099278093560580915605909115058913FF
:10504000E8CF0DC00E94A7271092150510925605B3
:10505000EDE0F5E088E0DF011D928A95E9F76096C2
:105060000FB6F894DEBF0FBECDBFDF91CF9108958C
:10507000882341F0809590915C05892380935C059D
:105080000C94112D0895882339F090915C05892B9B
:1050900080935C050C94112D0895882321F00E94C3
:1050A0000A2D0C94112D0895882339F090915D05F7
:1050B000892B80935D050C94112D0895882309F4A4
:1050C00053C0682F823869F40E94DD1981FF4CC0FB
:1050D00069E385E095E00E9497190E94112D69E32C
:1050E0000EC0833891F40E94DD1980FF3DC063E556
:1050F00085E095E00E9497190E94112D63E585E0F7
:1051000095E00E948A190C94112D843869F40E944C
:10511000DD1982FF29C067E485E095E00E949719B8
:105120000E94112D67E4EBCF8CEF860F813A38F3A4
:1051300080E2860F883048F4677081E001C0880FF4
:105140006A95EAF70E940A2DDECF8BE5860F833041
:1051500020F480E090E00C94C719685A673120F47D
:1051600080E090E00C94B1190895CF93882309F45E
:1051700096C0C82F8238B1F40E94DD1981FD8FC01E
:1051800069E385E095E00E9497190E94112D2FEFA9
:1051900081EE94E0215080409040E1F700C0000093
:1051A00069E317C08338E1F40E94DD1980FD77C000
:1051B00063E585E095E00E9497190E94112D2FEF7D
:1051C00081EE94E0215080409040E1F700C0000063
:1051D00063E585E095E00E948A19CF910C94112D2A
:1051E0008438B1F40E94DD1982FD59C067E485E07E
:1051F00095E00E9497190E94112D2FEF81EE94E007
:10520000215080409040E1F700C0000067E4E1CF0A
:105210008CEF8C0F813A80F4E7E0F5E08DE095E0CB
:105220002191C217A1F18E179F07D1F76C2F85E04E
:1052300095E00E949719D1CF80E28C0F883068F4F6
:10524000C77081E090E001C0880FCA95EAF790919D
:105250005D05892B80935D05C0CFEBE5EC0FE33056
:1052600040F4F0E0EC51FE4F808190E0CF910C943F
:10527000C719C85AC73198F4EC2FF0E0EE0FFF1FA2
:10528000E951FE4F80819181CF910C94B1196C2F1F
:1052900085E095E00E948A190E94112DC7CFCF9119
:1052A00008951F93CF93DF93182F893319F0C9E125
:1052B000D0E002C0C0E5D0E0812F0E94B5288FE980
:1052C0009FE00197F1F700C000002197C1F7812FFF
:1052D000DF91CF911F910C945E2880E0089590910A
:1052E000200292FF0DC0282F2871283019F4877FE3
:1052F000846006C0282F2471243011F48B7F8860CD
:1053000093FF0DC0282F2871283119F4877E8461FE
:1053100006C0282F2471243111F48B7E88612091DE
:10532000210220FF0DC0382F3871383019F4877FE3
:10533000816006C0382F3171313011F48E7F886062
:1053400021FF0DC0282F2871283119F4877E816133
:1053500006C0282F2171213111F48E7E886194FDC1
:10536000877E0895F894E82FE295EF70F0E031A180
:10537000282F2F7081E090E001C0880F2A95EAF76E
:10538000982F9095932391A392A1892B82A378942F
:1053900008958F929F92AF92BF92CF92DF92EF9239
:1053A000FF920F931F93CF93DF93CDB7DEB72A976A
:1053B0000FB6F894DEBF0FBECDBFAE014F5F5F4F9B
:1053C0007A018AE0DA011D928A95E9F702E211E09A
:1053D0006A01AA24A394B12CF80180818F3F09F4BB
:1053E0004DC0F894E82FE295EF70F0E021A18F70A6
:1053F000A50102C0440F551F8A95E2F7CA01922FFA
:10540000982B91A392A18095892382A3789400C0C0
:10541000E7E2F1E020E030E0812C912C81918F3F98
:10542000C1F0A82FA295AF70B0E090964C9150E0DB
:105430008F70DA0102C0B595A7958A95E2F7A0FDB5
:1054400008C0C501022E02C0880F991F0A94E2F716
:1054500002C080E090E0882A992A2F5F3F4F2930D0
:105460003105E1F6F80180818F3F11F00E94B229E9
:10547000F0EAFA95F1F7D6018D929C920F5F1F4FDB
:10548000B2E0CB0ED11CE1E007321E0709F0A4CF39
:105490004AE050E0B70182E292E00E94433411E01A
:1054A000009709F410E0892B89F08AE0F701A2E265
:1054B000B2E001900D928A95E1F781E08093640556
:1054C0000E9455199093630580936205809164054D
:1054D000882391F180916205909163050E943A19A9
:1054E000059750F1809122029091230290933D0301
:1054F00080933C03809124029091250290933F0376
:1055000080933E038091260290912702909341035D
:105510008093400380912802909129029093430345
:105520008093420380912A0290912B02909345032D
:10553000809344031092640580911201882341F105
:105540008091C1049091C204009711F10E943A1910
:1055500020911B0430911C0428173907C8F490913E
:10556000BF048091C004981759F00E94951A1092B8
:105570001C0410921B041092C2041092C10408C0B3
:105580000E94171A1092C2041092C1040E94761A47
:10559000812F2A960FB6F894DEBF0FBECDBFDF91E4
:1055A000CF911F910F91FF90EF90DF90CF90BF9020
:1055B000AF909F908F900895CF93DF93823891059D
:1055C00069F1B0F48133910509F46FC048F4893270
:1055D000910509F465C08A32910509F46BC08AC04F
:1055E0008533910509F457C089339105B9F082C01C
:1055F000833E910571F138F4803E9105B1F0823E11
:10560000910511F177C0863E9105B9F1873E91056C
:10561000C9F1843E910509F06DC024C0209120029B
:1056200020FD53C021FD51C065C08091200280FD46
:1056300046C08091210280FF48C08091200284FDF5
:105640003FC183EE90E03EC18091200282FF3AC0CC
:10565000F4CF8091200282FD35C08091210280FD2F
:1056600034C0EBCF8091210281FF35C080912002B0
:1056700084FD26C187EE90E025C18091200283FF42
:1056800027C0F4CF8091200283FD22C080912102A7
:1056900081FD21C0EBCF8091200285FD1FC021C07C
:1056A0008091200285FD1DC019C08091200286FDD9
:1056B0001BC01DC08091200286FD19C015C089E362
:1056C00090E000C182EE90E0FDC080EE90E0FAC074
:1056D00086EE90E0F7C084EE90E0F4C089E290E0BE
:1056E000F1C085E390E0EEC08AE290E0EBC081E398
:1056F00090E0E8C0811532E5930708F069C0811594
:1057000041E5940728F0982F8827816F906ADAC0C6
:10571000883E910568F5803E910508F0D3C0883A2F
:105720009105B8F4853A910548F0855AE82FF0E0E4
:10573000EC51FE4F808190E09064C4C081309105AF
:1057400009F4BBC008F4BCC08430910508F4B8C0AB
:10575000B9C08F3B910508F0B3C0885AE82FF0E03C
:10576000EE0FFF1FE951FE4F808191819464AAC022
:10577000811520E59207F0F09C0174E0369527959D
:105780007A95E1F7922F9370482F437021E030E033
:1057900002C0220F331F4A95E2F73C68392B8F7005
:1057A000982F9695969540E2949FC0011124822BE4
:1057B000932B88C0811530E4930718F09F70906A8E
:1057C00081C09C013A9521153F4108F47BC078C007
:1057D000EC01C11586E5D807E8F5C11525E5D20726
:1057E00048F08C2F0E946F298F7190E0982F8827A6
:1057F000906268C0C11534E5D30728F09C2F882734
:10580000846F906A5FC0AE01437055272C2F269598
:105810002695C115D34578F481E090E002C0880F49
:10582000991F4A95E2F740E2249F90011124822BB0
:10583000932B9C6847C081E090E002C0880F991FBD
:105840004A95E2F740E2249F90011124822B932B8A
:105850009A6838C0C1152AE5D207F8F4C11539E5B0
:10586000D30790F08C2F8F700E946F2994E0D6950B
:10587000C7959A95E1F7CF70D0E0DC2FCC27D0699F
:105880009E01282BC9011EC0C11548E5D407C0F0F0
:105890009C2F8827806F906A15C0CE019056811585
:1058A000904270F48D2F8F710E946F29282F2F71D5
:1058B000CE0199279062922B05C081E090E002C052
:1058C00080E090E0DF91CF910895CF9384E090E065
:1058D0000E945133C82F82E290E00E9451332C2F56
:1058E00030E0A901582BCA01CF91089580E090E0E3
:1058F0000E9459338A3E9E4F11F40C94C31D80E0E0
:1059000008956AEE7EEF80E090E00E948D3360E0C3
:1059100082E090E00E946F3360E083E090E00E94BC
:105920006F331092610560E084E090E00E946F3375
:1059300060E082E290E00E946F3360E085E090E0FA
:105940000E946F3360E086E090E00E946F336FEF5B
:1059500087E090E00E946F3340E050E0BA0188E0B9
:1059600090E00E94813360E08DE090E00E946F3310
:1059700040E050E0BA0188E190E00E94813360E0AD
:1059800087E190E00E946F3340E050E0BA018CE183
:1059900090E00E94813360E070E080E290E00E943D
:1059A0008D3340E050E0BA0188E190E00E948133FD
:1059B00080E00E94961D0E94B41D40E050E0BA01B4
:1059C0008FE090E00E94813340E050E0BA0183E133
:1059D00090E00C94813380916005882331F010921F
:1059E000600510925F0510925E050895CF93909127
:1059F000210292FD0DC090916005981749F0C82FC3
:105A00000E94551990935F0580935E05C0936005D1
:105A1000CF910895809590915D05892380935D05D0
:105A2000089590915D0580915C05892B90915B05AF
:105A3000892B8093050580916005882311F10E94D0
:105A4000551920915E0530915F05821B930B8838B4
:105A5000934110F00E94EB2C909105058091600518
:105A6000892B80930505E7E0F5E097E080E0915011
:105A700029F021912223D9F38F5FF9CF81110E9460
:105A8000EB2CE091C504F091C604309731F0028010
:105A9000F381E02D85E095E009940895CF93C091BE
:105AA0002102C2FB992790F9981781F080FBC2F977
:105AB000C09321026091200284E090E00E946F3345
:105AC0006C2F82E290E0CF910C946F33CF910895C8
:105AD00010925A0510925905109258050895209178
