:100000000C94A5040C94EC040C94EC040C94EC04F7
:100010000C94EC040C94EC040C94EC040C94EC04A0
:100020000C94EC040C94EC040C94761D0C94B21C0F
:100030000C94522D0C94EC040C94EC040C94EC04F1
:100040000C94EC040C94EC040C94EC040C94EC0470
:100050000C94EC040C94052D0C94EC040C94EC041E
:100060000C94EC040C94EC040C94EC040C94EC0450
:100070000C94EC040C94EC040C94EC040C94EC0440
:100080000C94EC040C94EC040C94EC040C94EC0430
:100090000C94EC040C94EC040C94EC040C94EC0420
:1000A0000C94EC040C94EC040C94EC04DA0DF60DB6
:1000B000FD0D350E460E510E610E740EB70EBC0EC0
:1000C000160F160F160FC40E4C0F570F810FBC08DA
:1000D000FF0F4D10941097109C104A11A414AF14E8
:1000E000B414B914BE14C314C814CD14D214D71444
:1000F000DC14621562159B159B15FD153817381712
:1001000038171B168F16A016A016BA1AE11A941CDF
:10011000E11A941C2D1B501B941C511C611C361F92
:10012000361F491F491F3F1F491F491F491F361FBF
:10013000361F441F491F491F441FFD377A585A0074
:100140000004E6D6B4460200210116000000742F18
:10015000E5A3E008C1023E5D003D8889C65436C370
:10016000174FE4EF0A3F668DD105C152178BD34676
:10017000CB52E4EC954BB123C8125A02224DDD1F3D
:10018000698C16D9EF45F663D31EB962E990A5DEF6
:10019000AFF6BD5DE5A97C5978FAA26B0C735128C6
:1001A000BDCBC80F1011DF54EC7A78C585B422AFEF
:1001B000257346DBA3E7CFF6BCA26DFA873B8D44DF
:1001C000BD90D32AFFC33E741636CCA02CE50C6D2F
:1001D00060F1267D543C6634873A0183364BF5DC6A
:1001E000B4A11C9FF200B12CDA3FDDF57CFC91C973
:1001F0006664ABF48D3B32942C22706E35CF06E7EB
:10020000F954289FF32FAF48E8B47E5CFB01E55A10
:10021000B01FADCB6D45E7AD5A08D93CE762C83693
:100220001DC4E0996926BEDF20B2CD4C6E39F46F53
:100230002C699ABA16BCEAD5956971642D72EB2FB8
:10024000DA0FF4C86FC92D9D701896D0746969854E
:10025000373D179BEE43976F4529FC81C894031ADD
:100260004282AF8A28568855C075CF441AC6615657
:100270003DC489E6E2B114CD2073FAF993C0D7BE2C
:10028000B728B3F0868E21E84C687327DBFC28B8CA
:100290001EBB74299D78B8606D3B6AADE35541B7CC
:1002A000548877F09EA3329F102995CF82A482961E
:1002B00049D25BD65439809D426C65491AE14DACF8
:1002C0002B4C9CCB7CAA27735A3792281A1049FDD5
:1002D000B3BD1FD0943262E5B9454AEF53AD2E6EDF
:1002E00067991ED69A3A4419FBE8921D83FB123196
:1002F0007F6E67B78EAA3F172C81E537552EF656CD
:10030000913C5ACE8492305FC3B74656AFB3FC716E
:100310008447F4CC104C01D48368C4CF8777944FC2
:10032000468DDD8950A9D237392940A6D8E0CF1CA7
:1003300041E35E00CA7B8A9D59710C72544F471984
:10034000AC0464E914E02575C2D8EFC5E304A31C2E
:100350007499381875A5D418FD6F4CB6C745F100CF
:10036000E910CBC248832B7413608E47371979BECE
:10037000D8A5FF1A5BADA850AEDF064DD9BC4A5FC9
:10038000F794ACBEC53FA141850D3FB3EFF036AD4C
:10039000F1661F3A49BC4C0000005A861A49501EAB
:1003A0006BF50001DA04C21100009EA2D044B1C472
:1003B00067FB020000000004595A00000000010021
:1003C00009000200010003000200110003001200F6
:1003D00004001A0005001B0006001C0007001D0099
:1003E00008002E200005010902A10185020901A1D2
:1003F00000050919012905150025019505750181DB
:100400000295017503810105010930093115812526
:100410007F95027508810609381581257F9501753C
:10042000088106050C0A38021581257F950175089B
:100430008106C0C005010980A101850319012AB701
:1004400000150126B700950175108100C0050C0943
:1004500001A101850419012AA002150126A0029517
:100460000175108100C00660FF0961A101096215D4
:100470000026FF009520750881020963150026FFFC
:1004800000952075089102C005010906A101050724
:1004900019E029E7150025019508750181029501EC
:1004A000750881010507190029FF150026FF009531
:1004B0000675088100050819012905950575019142
:1004C00002950175039101C009025B00030100A0C0
:1004D000FA090400000103010100092111010001D2
:1004E0002240000705810308000A090401000203F5
:1004F00000000009211101000122220007058203EA
:100500002000010705030320000109040200010384
:100510000000000921110100012281000705840368
:1005200020000A1201000200000008FEFE515801DE
:1005300000010203011C037600690061006C003AAF
:10054000006600360034006300320062003300634E
:100550000000003A0373006100640065006B0062F4
:1005600000610072006F0075006400690020006285
:1005700000610072006F0062006F00720064005F33
:1005800000620079006F006D006300750000001AC2
:100590000373006100640065006B0062006100721B
:1005A000006F007500640069000000040309040086
:1005B000000000000000000000000000000000003B
:1005C000000000000000000000000000000000002B
:1005D0000000007E0F00D4FFFFFFC700000078007E
:1005E000000000000000002A2B280000000000008E
:1005F0000000000000000000000029000000002CA6
:100600001E3420212224342627252E362D37382744
:100610001E1F202122232425263333362E37381F50
:100620000405060708090A0B0C0D0E0F1011121312
:100630001415161718191A1B1C1D2F3130232D35B0
:100640000405060708090A0B0C0D0E0F10111213F2
:100650001415161718191A1B1C1D2F3130354CAAEA
:1006600000A9004F0150010100010001000100013B
:100670000001000100010001000100010001000172
:100680000001000100010014001A00080015001705
:10069000001C0018000C00120004611668076409B1
:1006A000620A000B000D720E740F781D001B00060D
:1006B0000019000500110010003600370001530238
:1006C000530151280034002A002C0002510353002A
:1006D00000000000002A00340013003371380004C9
:1006E000531E021F0220022102220223022402259D
:1006F0000226022900010001000100010001002D75
:10070000022E022F02390035020100010001000112
:10071000000100010031020100010001000100019F
:10072000004C000100035101000000000000004CDB
:1007300000010027023002340201001E001F0020C9
:100740000021002200230024002500260050005133
:100750000052004F002B0001002D002E002F00E062
:10076000003500E300E200815F845F825F835F31D8
:10077000000100010003510100010001000100011E
:10078000000100000000000000010001002700300F
:100790000034000100C25CC45CC35C010010503A2C
:1007A000003B003C003D00CB5CC55CC75CC95C0104
:1007B000003F00400041004200CC5CC65CC85CCAFF
:1007C0005C0100440045000100010001000100013E
:1007D0000001000100010001000100010000000013
:1007E000000000010001003E004300005C01000128
:1007F00000010001000100010001000100010001F1
:1008000000010001000100010001000100010001E0
:1008100000010001000100010001000100010001D0
:1008200000010001000100010001000100010001C0
:1008300000010001000100000000000000010001B3
:10084000000100010001000100000101010101019E
:100850000101010202020202020202020303030377
:100860000303030304040404040404050505050547
:100870000606060606070707070708080808090905
:1008800009090A0A0A0B0B0B0C0C0C0D0D0D0E0EB0
:100890000E0F0F0F10101111111212131314141543
:1008A0001516161717181819191A1A1B1B1C1D1DB7
:1008B0001E1E1F202021222223242425262627280D
:1008C00029292A2B2C2D2D2E2F303132323334353D
:1008D000363738393A3B3C3D3E3F40414243444540
:1008E000464748494A4C4D4E4F505153545556581F
:1008F000595A5B5D5E5F616264656668696B6C6DC9
:100900006F7072737577787A7B7D7E80828385873E
:10091000888A8C8E8F91939596989A9C9EA0A2A37C
:10092000A5A7A9ABADAFB1B3B5B7BABCBEC0C2C481
:10093000C6C9CBCDCFD1D4D6D8DBDDDFE2E4E7E941
:10094000EBEEF0F3F5F8FAFDFF0011241FBECFEF38
:10095000DAE0DEBFCDBF04B603FE27C08091730589
:1009600090917405A0917505B09176058730904BF4
:10097000A740B04BD1F410927305109274051092F9
:1009800075051092760514BE84B7877F84BF0FB6B5
:10099000F894A8958091600088618093600010921F
:1009A00060000FBEE0E0F8E3099512E0A0E0B1E0DE
:1009B000E2E4FEE602C005900D92AE32B107D9F72F
:1009C00025E0AEE2B2E001C01D92A337B207E1F725
:1009D0000E94EE040C941F370C940000CF93DF9319
:1009E000CDB7DEB7C854D1090FB6F894DEBF0FBE3D
:1009F000CDBF84B7877F84BF0FB6F894A895809148
:100A00006000886180936000109260000FBE90E0EB
:100A100080E80FB6F89480936100909361000FBE58
:100A200085B7806885BF85B7806885BF86E693E215
:100A300090932F0280932E020E943E310E94F61C5A
:100A40000E94151D8091E20084608093E2007894FA
:100A500080916D038823A1F01091E9001F7090919F
:100A6000EC00892F817090FD80E8182B1092E9002E
:100A70008091E80083FD0E94D4191F701093E90053
:100A800082E084BD93E095BD9AEF97BD80936E00A0
:100A90000E942B32811102C00E941C320EE111E033
:100AA00033E2E32E31E0F32ED8018D918D018F3F9B
:100AB00011F00E94AB23E016F106B1F703E211E05A
:100AC0002CE2E22E21E0F22EF80181918F018F3F7E
:100AD00011F00E94AB23E016F106B1F7E2E3F2E079
:100AE0008CE392E0A8E4B3E0119211921D921D9262
:100AF0008E179F07C9F70E945C25811102C00E94D2
:100B0000672582E090E00E9487368093C1020E94B0
:100B10004B2590933102809330020E949A268FE3F6
:100B20009CE90197F1F700C000000E949A2680918D
:100B3000480380FF08C06FEF7FEF80E090E00E94E5
:100B4000C3360E94E12C83E090E00E9487360E9429
:100B50009C21809178030E94802910923D02E6E555
:100B6000F2E08FEF9FEF81939193A2E0E636FA07D0
:100B7000D1F70E945C25811104C00E9467250E9464
:100B8000DF3246E050E06CE170E082E793E00E94E3
:100B90007736809172038C7F11F40E94DF3280EAF5
:100BA000882E82E0982E4CE351E02EE331E09EE95E
:100BB000692E92E0792E61E070E08614970409F4C2
:100BC0004EC0F901A1919F018A2F82958F7090E00C
:100BD000FC01F1A0AF70BA2E8B0101C0000FAA95E5
:100BE000EAF7F02FF095FF22DC019196FC929197A5
:100BF0009296AC91A02BFC01A2A3DA01ED90AD017D
:100C0000EE2DE295EF70F0E0F1A0BE2DBF70EB2E5F
:100C10006B0101C0CC0CBA95EAF7DC2CD094FD2016
:100C2000F1A2F2A0FC28F2A2DC0190968C9190E057
:100C300002C095958795BA94E2F78170E0A1F0E043
:100C400002C0F595E795EA94E2F7E0FF02C092E072
:100C500001C090E0892BF30181933F01AECF0E9448
:100C6000E03440E060E080E00E945C1910923C02B9
:100C70004FEF60E080E00E945C1980E091E090938B
:100C8000EE048093ED0480916D03853009F048C037
:100C900000E112E180916D03853009F03DC0809143
:100CA0006D03843021F11092F10428E130E040E43A
:100CB0000FB6F894A895209360000FBE4093600093
:100CC00083B7817F846083BF83B7816083BF78945B
:100CD000889583B78E7F83BF0FB6F894A8958091CF
:100CE0006000886180936000109260000FBE809168
:100CF0006303882309F4CECF0E949A26E8E4F3E048
:100D000081919191892B11F00C941C0F62E573E095
:100D10006E177F07A9F7BECF0E94A0210E94CE2D9B
:100D20000E949A2681110E943A2DA2ECB2E0E8E4DA
:100D3000F3E0C12CD12C8C2CA190B1908D919D9180
:100D40008A259B25009709F462C110E0EE24E39404
:100D5000F12C9C012E213F21232B09F452C11DAF00
:100D60008EAEAE20BF2081E0A114B10409F480E072
:100D70008FAF0E94462D8160782F22969FAF8EAF55
:100D800022974DAD5EAD6FAD22968FAD22970E943A
:100D9000132AF601EE0FFF1FEE53FD4F8081918164
:100DA000E826F926F182E082AB2899F089E08C9D53
:100DB000F0018D9DF00D1124E15BFE4FE10FF11D5F
:100DC00080818F3F31F029968FAF29979924939492
:100DD00001C0912CE92CF12C80913D02D701A80F84
:100DE000B11D1997ACF188E090E05C01AE18BF0826
:100DF000B7016F5F7F4F635C7D4FA5018EE392E08B
:100E00000E940F37B701675F7F4F635C7D4FA5017D
:100E100086E492E00E940F37A501440F551FB701E9
:100E2000660F771F675E7F4F635C7D4F86E592E0BC
:100E30000E940F37B7016F5E7F4F635C7D4FA50146
:100E40008EE492E00E940F3788E0891980933D027A
:100E500080913D0290E02996EFAD2997AE2FB0E04A
:100E60009D01220F331F24583E4FAA0FBB1FBD0107
:100E700063587E4F41E0480F9915C0F490E0FC01A3
:100E8000E35CFD4FD9015C915183DB015C9151879B
:100E90002996BFAD2997B18B880F991FFC01E35CA0
:100EA000FD4F128E118E91E0842FE4CF80933D028E
:100EB000809172038C7F803209F0D1C0AFEFA80D12
:100EC00001E0080D5FEF510F41E0410F511780F431
:100ED00089E08C9DF0018D9DF00D1124E359FD4FAB
:100EE000E50FF11D208130E1230F08F42FEF20835F
:100EF000212F30E079E07C9DC0017D9D900D112473
:100F000083599D4FFC01E20FF31F7081B0E26B2FFC
:100F1000760F08F47FEF7083493051F0FC01E40F45
:100F2000F11D708180E1682F760F08F47FEF7083E8
:100F3000053009F432C0E02EF12C511790F489E00D
:100F40008E9DF0018F9DF00D1124E359FD4FE50FAB
:100F5000F11D80819DE0782F092F700F08F47FEF3D
:100F60007083E9E0EE9DC001EF9D900D112483593F
:100F70009D4FFC01E20FF31F608170E1670F08F4E1
:100F80006FEF6083493049F0FC01E40FF11D60818F
:100F90007DE0670F08F46FEF6083A81508F05FC06D
:100FA000B0E0511780F489E08A9FF0018B9FF00D2B
:100FB0001124E359FD4FE50FF11D50816DE0560FEF
:100FC00008F45FEF508389E08A9FF0018B9FF00D5A
:100FD0001124CF0183599D4FFC01E20FF31F2081A3
:100FE00030E1230F08F42FEF20834930C1F1FC01D9
:100FF000E40FF11D20813DE0230F08F42FEF208343
:101000002EC01F5FEE0CFF1C193009F0A2CE1FEF9F
:10101000C11AD10A25E0C216D10409F08CCE8FEF97
:1010200023968FAF239724968FAF249725961FAED4
:1010300025970E94462D8160782F27969FAF8EAF0F
:10104000279723964FAD239724965FAD2497259637
:101050006FAD259727968FAD27970E94132A809111
:10106000660290916702A0916802B09169022FB761
:10107000F894C090F204D090F304E090F404F0905F
:10108000F5042FBFC81AD90AEA0AFB0A0E943A2DB2
:10109000609366027093670280936802909369027E
:1010A000A0913D02EDE3F2E02A2F30E088248A94FB
:1010B000982CA12CB12C8C189D08AE08BF08A31742
:1010C00099F0418D528D2A01612C712C8414950464
:1010D000A604B70410F4215004C04C0D5D1D528FBE
:1010E000418F3F5F3296EBCF20933D0230917203E8
:1010F000232F237021F0E32EE694E69401C0E12C27
:10110000209112012130A1F038F0223009F468C09A
:10111000233009F46EC091C010920E0160936E03EB
:1011200070936F03809370039093710381E055C0B7
:1011300090910B01E9120DC0832F837090E04091D4
:101140000A0150E021E08417950709F420E0822F7E
:1011500001C081E0817080931001809177039091AC
:101160000F01981709F488C680930F0140E060E0F2
:1011700080E00E94D33280C6F0900E01FF0CFF0C7D
:10118000FF0C58E0D52EDF0C38E23D1510F448E294
:10119000D42E60917603669580916E0390916F03D3
:1011A0000E949133C82EFD1408F4E7C681E057E28F
:1011B0005D1510F40C94751190910E019F5F909342
:1011C0000E0181113AC082E08093120180911001DA
:1011D000811133C0E11031C083E0809312012DC032
:1011E000E0920B01832F837080930A010E94D83113
:1011F000F3CF8091F90481110E94D7321092F90443
:1012000040916E0350916F03609170037091710370
:101210002FB7F8948091F2049091F304A091F40414
:10122000B091F5042FBF841B950BA60BB70B40970D
:10123000A105B10510F0109212010CE9E02E02E0B8
:10124000F02E0AE912E08EE9C82E82E0D82E9CE347
:10125000692E91E0792E2EE3822E21E0922E560106
:10126000212C312C32E0432E512CD5018D915D0182
:10127000E82FEE0FEE0FD4012D914D01A22FA29574
:10128000AF70B0E090968C9190E02F7002C0959571
:1012900087952A95E2F79C0121703327D3018D9120
:1012A0003D01A82FA295AF70B0E090964C9150E010
:1012B0008F7002C0559547958A95E2F7CA018170F3
:1012C000992740FF02C082E090E0822B932B8E2B67
:1012D000F60181936F018F70E82FF0E0E45DFE4F1F
:1012E0009081D7018C91890F8C93823054F0F80152
:1012F00080818F5F808360E0832D0E948C3421E0A9
:1013000001C020E0D7018C918F3F4CF4F80180811F
:101310008150808361E0832D0E948C3421E0D701CD
:101320008C91082E000C990BB2010E94E136F70156
:1013300081937F01222A33940F5F1F4FF2E03F1207
:1013400094CF21100E943A2D8091BF028A3008F07C
:10135000EBC08091BD029091BE020E942B2D089798
:1013600008F4E2C004E610E025E030E048EB52E08B
:1013700064E084E10E940E36892B09F06BC0109264
:10138000BF0286E0E6EAF2E0DE01D19601900D921E
:101390008A95E1F786E0FE01F196DE01D79601908D
:1013A0000D928A95E1F786E0FE01F796A2EBB2E096
:1013B00001900D928A95E1F79091BC028091B30261
:1013C00097FD3EC08E7F8093B3028091B0029091D2
:1013D000B102009799F545E06091B8028091B90299
:1013E0000E94CC292091AE023091AF02281B390B0C
:1013F0003093AF022093AE0245E06091BA02809133
:10140000BB020E94CC292091AC023091AD02820F28
:10141000931F9093AD028093AC026CEA72E084EB70
:1014200092E00E94AD296EEA72E085EB92E00E94A4
:10143000AD291092B7021092B60211C0019705C0F3
:1014400081608093B30284E190E09093B102809335
:10145000B00205C08091BF028F5F8093BF0286E01B
:10146000E2EBF2E0DE019B9601900D928A95E1F7A6
:1014700086E0FE01BB96A6EAB2E001900D928A9545
:10148000E1F73091A8022091A9029091AA028091DF
:10149000AB027091A2026091A3024091A40250910C
:1014A000A502F091A102E091A702FE1312C033231E
:1014B00011F037130EC0222311F062130AC08823E3
:1014C00011F0581306C0992331F081E0491304C08C
:1014D00002C081E001C080E080FF0FC0E091ED0418
:1014E000F091EE04309749F082E08093A6020480E8
:1014F000F581E02D86EA92E009951092A8021092FB
:10150000A9021092AA021092AB0286E0E6EAF2E08B
:10151000A0EAB2E001900D928A95E1F70E94462D73
:101520009093BE028093BD020E94CE2D9091C00286
:10153000891721F00E94CE2D8093C00280916D0307
:10154000843009F0A0CB83E08093E9008091E8002B
:1015500082FF99CB8091E80085FF22C00E944B1E3C
:1015600081111CC000E210E09E012F5F3F4F790106
:1015700008C08091F100D7018D937D0101501109C0
:1015800069F08091E80085FDF4CF8091E8008B77C9
:101590008093E8000E944B1E882399F391E001C0DC
:1015A00090E08091E8008B778093E800992309F41C
:1015B0006ACBE0903E04F0903F048981E114F1048D
:1015C00059F08E3F09F032C49A819330A8F19550BA
:1015D000933008F02BC430C08B3009F4C8C248F5F2
:1015E000853009F47EC0B8F4823009F442C030F48A
:1015F000813009F019C41A8289E0B7C3833009F435
:1016000061C0843009F010C44C816B818A810E94D2
:10161000F4309D832FC4873009F471C008F46CC086
:10162000883009F4E3C0893009F0FEC30E94D73244
:10163000FDC3803109F4DDC18E010F5F1F4F813181
:1016400060F48D3009F477C108F473C18E3009F469
:1016500076C18F3009F49EC1E7C3823109F4CEC14F
:1016600008F4CAC1833109F4F3C18E3F09F496C26C
:10167000DBC38A81823009F4F6C3833051F08130B4
:1016800009F0D2C30E943A2D9B838C837D836E83A5
:10169000CDC380913A0490913B04892B09F4C6C3D1
:1016A000FE013196CE010B96A8E4B3E02C91119681
:1016B0003C9111971296328323833296E817F907EB
:1016C000A9F7B4C38A81823009F0AEC36B817C81F3
:1016D0008D819E810E94FB3686E290E00E94A536B5
:1016E000A5C32D813E813227232732274C816B8170
:1016F0008A810E9420309AC30E94563097C38A8103
:10170000813421F0823409F43BC090C34B815C8169
:1017100080917203982F93704115510539F49111FE
:10172000109212018C7F809372031FC0911102C02E
:10173000109212018C7F8160809372032AEB33E058
:1017400062EE73E0F901329685919491F901A591C9
:10175000B4914A175B0731F02C5F3F4F6217730754
:1017600089F780E060E00E94A5328D818093760346
:101770008E8120E048856F8190E00E944A3256C3F6
:101780004B815C818D81B3E08B9F900111242E31C0
:1017900031050CF04BC3DE011196FA01EE0FFF1F6D
:1017A000E40FF51FE053FD4F20E030E090E02817F4
:1017B000390708F03BC31396BA01620F731F6832F2
:1017C000710508F033C312966C91129760831396DB
:1017D0006C911397618314966C9114976D3308F094
:1017E0006CE362832F5F3F4F3396E1CF8A8182346F
:1017F00009F442C028F4803451F0813471F016C3EA
:10180000833409F459C0843409F459C00FC381E00A
:101810008B831C828CE38D8309C380917203982F84
:101820009370B1F08695869590E02AEB33E062EEF6
:1018300073E0F9013296A591B491F9014591549163
:101840008A179B0741F02C5F3F4F6217730789F798
:1018500090E080E002C0942F852F9B838C83809141
:1018600076038D83809173038E83809174038F83BD
:10187000809175038887DAC20B811C814EE150E0AC
:101880006FEF70E0CE0103960E9418378AEB93E069
:10189000DE0113962EE1FC014591549104171507C2
:1018A00028F4223018F04D935D9322500496E3E023
:1018B000823E9E0781F7BAC288E28B839CC18B81EE
:1018C00090E0883291050CF0B1C2FC01EE0FFF1FD1
:1018D000E15BFE4F25A52B83FC01EE0FFF1FE358B4
:1018E000FE4F20812C83FC01E453FE4F20812D8389
:1018F0002FEF2F832E836FE471E040E050E020E073
:1019000030E0FB01E20FF31FE081F0E08E179F074C
:1019100019F44E832F838AC22F5F3F4F2930310540
:1019200081F74F5F5F4F675F7F4F4530510539F754
:101930007DC280E136C281E08A838FE916C2EA80E7
:10194000FB80FE24EF24FE24AC80B12CFDE1AF1619
:10195000B10408F06BC26801C7018F599D4F960111
:10196000201B310B2A153B0508F060C22FE9E21657
:1019700021E0F20630F40E948736D60114968C934B
:1019800002C0F6011482FFEFEF1AFF0A2FEFC21A0E
:10199000D20AE2CF80913A0490913B04892B09F45A
:1019A00045C2EA80FB80FE24EF24FE24CC80D12CAB
:1019B0003DE1C316D10408F039C25801C7018F595F
:1019C0009D4F9501201B310B2C153D0508F02EC2B3
:1019D0004FE9E41641E0F40628F4D50114966C9121
:1019E0000E94A536BFEFEB1AFB0AEFEFAE1ABE0A54
:1019F000E5CF0E94A82F1AC285E0D3C1EA80FB8000
:101A0000FE24EF24FE24AC80B12CFDE1AF16B1041E
:101A100008F00CC26801C70187969601201B310BA4
:101A20002A153B0508F002C222ECE21621E0F2067C
:101A300030F40E948736D60114968C9302C0F601CA
:101A40001482FFEFEF1AFF0A2FEFC21AD20AE3CF78
:101A5000EA80FB80FE24EF24FE24AC80B12C3DE123
:101A6000A316B10408F0E2C142ECE41641E0F4062A
:101A700008F0DCC182EC91E08E199F098A159B0564
:101A800008F4D4C1370157E2650E711C80913A0405
:101A900090913B04892B11F0680160C0E0FE0FC0FB
:101AA000C70186960E94873690E0982F88272D815F
:101AB000822B81159C4531F48FEF8D8303C0C12C9F
:101AC000D12C03C0CC24C394D12CC5018E0D9F1DF5
:101AD000450180FF1BC071E0871A910855E0452E33
:101AE000512C4C0E5D1E480C591CC3018A0D9B1DC8
:101AF0000E948736D2012C9130E0322F2227282BEA
:101B000021153C4519F48FEFF2018083F801EC0DAB
:101B1000FD1D2FEFCF01801B910B8815990508F053
:101B2000BBCF848190E0982F88273581832B811546
:101B30009C4511F4248325833296ECCF42ECE416C5
:101B400041E0F40628F4D60114966C910E94A53663
:101B5000BFEFEB1AFB0AEFEFCE1ADE0AC70187963A
:101B60009601201B310B2A153B0540F35FC1809184
:101B70003A0490913B04892B09F458C1CE01019697
:101B80000E94AA1EFFEF01EE14E0F1500040104049
:101B9000E1F700C000000E94E12C48C1EA818E2FCD
:101BA00090E08E30910508F041C1FC01EA5AFF4FE8
:101BB0000C94F53688E0E3E1F1E0DE0191960190C6
:101BC0000D928A95E1F780E2D8011D928A95E9F796
:101BD00084E0898388E0FE01B196DE0115960190CC
:101BE0000D928A95E1F781E08D8720C180E8898395
:101BF00082E08A831B821C8219C18C8190E0982F1D
:101C000088272B81820F911D092E000CAA0BBB0B7C
:101C100035E0880F991FAA1FBB1F3A95D1F7AC0179
:101C2000BD01405E5F4F6F4F7F4F481759076A07EE
:101C30007B0708F4FBC08038E2E09E07A105B105F0
:101C400008F0F4C04138F2E05F076105710520F04B
:101C500040E852E060E070E0481B590BBC01665C54
:101C60007E4FC8010E946E36E1C01B810C8140E0AE
:101C7000602F812F0E94F02F99838A8341E0602F8B
:101C8000812F0E94F02F9B838C83D0C02E813F81B7
:101C90003227232732274D816C818B810E94B82FF8
:101CA000C5C040E250E06FEF70E0C8010E941837F5
:101CB00080913A048983EA821B821C821D8281E022
:101CC000D9C081E090E090933F0480933E0482E38A
:101CD00090E09093CF028093CE020E94462D909385
:101CE000CD028093CC02A2C0EF28B9F180914803C5
:101CF000909149039C01369527958170182F1223E6
:101D00008091CC029091CD020E942B2D85369105B9
:101D1000F0F01123E1F00E94462D9093CD028093C4
:101D2000CC028091CE029091CF0201979093CF0286
:101D30008093CE02892B89F410923F0410923E04C6
:101D400081E090E090933B0480933A0406C082E3E4
:101D500090E09093CF028093CE0280913A048983E1
:101D600080913E048A838091CE028B835FC0109263
:101D70003B0410923A045AC040E250E06FEF70E02A
:101D8000C8010E94183752C08B81833061F08430C3
:101D900061F181114BC080E2D8011D928A95E9F76B
:101DA00088E08A8343C06C81CE0181962AE0FC01E1
:101DB00011922A95E9F7683060F4FAE06F9FB0015C
:101DC00011246F5E7D4F4AE050E00E94773680E03C
:101DD00001C08FEF89838AE0FE01B196DE01129681
:101DE00001900D928A95E1F721C06C818AE0FE0195
:101DF0003596DE01919601900D928A95E1F7683053
:101E000070F40AE0609FB00111246F5E7D4F4AE0DC
:101E100050E0CE0181960E94C93680E001C08FEF6C
:101E200089830E943E3102C08FEF8983CE010196E3
:101E30000E94AA1E0C94430609BD19BD09B400FEF8
:101E4000FDCF8091D8008F7D8093D8008091E000F5
:101E500082608093E0008091E00081FDFCCF0E94D1
:101E6000A0210C944A0686E290E00E9487361B82ED
:101E70001C821D828E83DACF8E2D90E08A309105F0
:101E800030F080910E018F5F80930E019CC9FC01A0
:101E9000EC59FF4F0C94F53680911001882309F41A
:101EA00024C240E060E080E00E94D3321EC2109164
:101EB0000E01110F110F110F08E0010F093208F088
:101EC00008E26091730370917403809175030E941E
:101ED0009B33F62ED72EC82E101708F020C1E12F05
:101EE000F0E0DF01A453BE4F8C9190910F01982335
:101EF00031F02C2D4F2D6D2DCF010E94D5321F5F5B
:101F0000EBCF10910E01110F110F110F08E0010F0F
:101F1000093208F008E2D0907403F0907503C09085
:101F20007303B6018F2D0E949B33B62EA72E982ED9
:101F3000609176036C0D7D2D8F2D0E949B33F62EC4
:101F4000D72EC82E101708F0EAC0E12FF0E0DF010D
:101F5000A453BE4F8C9190910F01982361F080FFA4
:101F600004C02C2D4F2D6D2D03C0292D4B2D6A2D16
:101F7000CF010E94D5321F5FE5CF0F2D10E0F80191
:101F8000E453FE4F908180910F018923B1F1F80154
:101F9000EE0FFF1FE15BFE4F45A550E0445651098F
:101FA000F801EE0FFF1FE358FE4F208130E0205272
:101FB0003109449FB001459F700D700D1124229F7F
:101FC000C001239F900D900D1124860F971F0E9432
:101FD00037339091740343E0849FB00111247595C9
:101FE00067956C0D792F809175030E949B33462F66
:101FF000282F672FC8010E94D532F394D4C81091BE
:102000000E01110F110F110F88E0F82EF10E68E28A
:102010006F1510F408E2F02E6091760366958091BA
:102020006E0390916F030E949133B82E1F1578F5BF
:10203000C12ED12CF601E453FE4F908180910F0107
:10204000892319F1F601EE0FFF1FE358FE4F20819F
:1020500030E020523109F601EE0FFF1FE15BFE4F29
:1020600045A550E044565109609173037091740383
:10207000809175030B2D0E9468330E949B33462F7D
:10208000282F672FC6010E94D5321F5FCFCF81E076
:1020900077E27F1508F090C828C110910E01110F4A
:1020A000110F110F08E0010F093208F008E2D0907B
:1020B0007403F0907503C090730360917603669586
:1020C0006695669580916E0390916F030E9491339F
:1020D0000E94F232805887FD8195880F682F2CE08E
:1020E000629F612D11246C0D7D2D8F2D0E949B33DD
:1020F000F62ED72EC82E101790F4E12FF0E0DF0156
:10210000A453BE4F8C9190910F01982331F02C2D48
:102110004F2D6D2DCF010E94D5321F5FECCF81E096
:10212000083208F449C8E1C083E193E302C087ECB8
:1021300091E30E94871940C800910E01000F000F23
:10214000000F18E0100F28961FAF28971E3220F0BE
:102150001DE228961FAF289780911001882361F017
:1021600040E060E080E00E94D3328DE2EDE6F2E0F4
:10217000DF011D928A95E9F780910E01811115C04A
:1021800080916B0290916C020E942B2D21E089318D
:10219000910508F420E020936A02499730F00E94EC
:1021A000462D90936C0280936B0210E02896BFAD91
:1021B00028972B2E312C75E0472E512CE9E06E2EFE
:1021C000FAEA7F2E021513050CF05BC0C801B201BC
:1021D0000E94E1366B014C01689CC001699C900D26
:1021E0001124FC01E359FD4FE60FF71FF080815BDE
:1021F0009E4FFC01E60FF71F80818F3F59F1A82EFB
:10220000B12CF501E453FE4F908180910F01892399
:1022100009F13F2D25E5321B08F430E0709174037D
:10222000272D4F2D240F08F42FEF4091750352E016
:10223000259F200D11242E5F249F212D1124672D11
:10224000631B822F0E949B33462F282F672FC501C7
:102250000E94D53280916A02882381F02F2D61E09F
:10226000261B08F420E0689CC001699C900D112495
:1022700083599D4FFC01EC0DFD1D20830F5F1F4F07
:10228000A1CF81E028960FAD28970D3210F40C9461
:10229000DC082BC0F0900E01FF0CFF0CFF0C68E077
:1022A000D62EDF0C18E21D1510F458E2D52EFD14C1
:1022B000B0F40F2D10E0F801EE0FFF1FE00FF11F3B
:1022C000E053FD4F6081718182810E949B33462FD4
:1022D000282F672FC8010E94D532F394E8CF81E000
:1022E00027E22D1510F00C94DC0880E00C94DC083B
:1022F0008F929F92AF92BF92CF92DF92EF92FF9216
:102300000F931F93CF93DF9300D000D0CDB7DEB7EC
:10231000FC018081918123813481232B31F09F3F07
:1023200031F491E08F3F19F403C091E001C090E0D7
:1023300090FDF7C66F0161E0CF010E9416298C0164
:10234000F6018281882309F49AC0980122513F4501
:102350002031310508F07BC08FEF93E00E94873673
:1023600081117FC03EEEF32EF00E01E612E0FF2059
:1023700071F00115F4E01F0709F473C0C8010E9451
:102380008736811101C0FA940F5F1F4FF0CF198279
:102390001A821B821C82AA24AA9478012FEFE21AC7
:1023A000F20AC8010E94873689831A82882309F4B9
:1023B00058C0813009F046C0480182E0880E911C67
:1023C000C7010E9487368A83882309F44AC09FEF99
:1023D000980F933060F4780193E0E90EF11CC4018A
:1023E0000E9487368B8381112DC08701D6CF843020
:1023F00011F07401FACFC4010E948736B82E78011B
:10240000E4E0EE0EF11CC80103960E948736BB2063
:1024100041F1882331F1282F30E021503109A29E6B
:10242000A001A39E500D11248B2D90E00197840FE5
:10243000951F0197D0F2EFE9FFE03197F1F700C067
:102440000000F7CFCE0101960E94BB28CECF00310D
:102450009FE5190709F030C581E00E9491210E9493
:102460007C198091E003877009F45BC6F6018281D4
:10247000882309F456C682E00E94042652C6003121
:10248000FFE51F0711F481E005C001312FE51207B8
:1024900021F482E00E948521E2CF909152039111B4
:1024A00005C090915503992309F4B7C0980130569F
:1024B000211590E2390720F0305E2115304140F4BB
:1024C000F6019581907F09F4A8C07801FF2401C02E
:1024D0007801970130542115354108F49EC0909140
:1024E0005503923021F5882369F08091E303982FFA
:1024F000927219F06894F1F80FC086FF0DC024E1C4
:10250000F22A0AC0C70195558F3F910511F008F0D6
:10251000B4C580E00E94AD2781E080935503F0921E
:102520005403E09253038FEF80930C019ACF8823DA
:1025300009F4A3C5913009F05FC080910C019CE2C1
:10254000E916F104D9F4882329F00E94E3291092B6
:102550000C0187CF809153039091540395558F3F81
:10256000910509F018F40E94D12503C08AE20E9467
:102570004A23109255030E94092A4FC0EAE2EE1640
:10258000F10421F4815080930C0126C087FD34C0F2
:1025900081110BC0809153039091540395558F3F47
:1025A000910509F010F40E94E32980910C018F5FDE
:1025B00080930C01FDE2EF16F10471F040F484E029
:1025C000E81AF10894E2E916F10480F405C0EDE29E
:1025D000EE16E2E0FE0651F4F6018281882309F44A
:1025E0004CC58091E303811114C065C1F60182815D
:1025F000882309F442C50DC09AE2E916F10489F373
:1026000008F080C5F4E0EF1AF10824E2E216F104C4
:1026100040F30E94092A109255030138FFE51F0775
:1026200079F4F60182818823C1F081E0809352031E
:102630000E94CE2D81FD11C089E30E944A230DC066
:1026400002382FE5120708F0BDC40933110509F05F
:102650003AC4F6018281811139C1F6019281992330
:1026600009F455C1109242040230FCE51F0708F43A
:1026700038C106312CE5120738F098012A5F3C4535
:102680002930310508F02DC10E944B25909331026D
:102690008093300200318CE5180709F4C3C008F0BC
:1026A00041C00830ECE51E0709F49AC0F0F404308C
:1026B0002CE5120709F487C068F402309CE519077D
:1026C00009F477C003301C4509F0E5C08091300261
:1026D000826076C00630FCE51F0709F46EC008F082
:1026E0007BC08091300288606BC00C308CE518078D
:1026F00009F485C068F40A30ECE51E0709F474C0DB
:1027000008F079C00E94A02180913002806858C0F2
:102710000E302CE5120709F476C008F07FC08091D6
:1027200030028BC00B3F9CE5190709F44FC018F528
:102730000331FCE51F0709F47DC078F401318CE515
:10274000180709F473C002311C4509F0A4C00E94A7
:10275000A021809130028F7733C00531ECE51E0750
:1027600009F472C008F486C00A3F1C4509F093C002
:10277000809131023EC00F3F8CE5180709F45FC01D
:1027800058F40D3FECE51E0709F444C008F43FC0BF
:102790008091310282602DC001302DE5120709F4CD
:1027A00075C008F45DC002301D4509F074C060E0DA
:1027B0006EC080913002816003C0809130028061E0
:1027C0008093300268C08091300211C08091310244
:1027D0008260809331025FC0809130028062F0CFCE
:1027E000809130028064ECCF8091300288608460F8
:1027F000E7CF8160EECF809130028E7FE1CF809174
:1028000030028D7FDDCF80913002877FD9CF8091DC
:10281000310218C0809131028D7FDBCF8091300270
:102820008F7ECECF809130028F7DCACF80913002D3
:102830008F7BC6CF80913002877F8B7FC1CF809105
:1028400031028D7F8E7FC5CF8091300282FB22279F
:1028500020F991E0922790FB82F990FB83F9B0CFA9
:1028600080913102982F909591708E7F892B90FBEB
:1028700081F9AFCF0E94A0218091300287FB2227EF
:1028800020F991E0922790FB87F99ACF61E08EE0E2
:1028900090E00E94A536609130021091310284E0F0
:1028A00090E00E94A536612F82E290E00E94A5365A
:1028B0000E94A021D6CD0138FFE51F0709F4B1CE53
:1028C00008F080C30933110509F0FDC280913C0274
:1028D000882319F010923C02C0CE81E080933C0224
:1028E000BCCE8091E3030631ECE51E0709F58A7A38
:1028F00091E009F490E090935603882311F065E38A
:1029000001C069E28BE893E00E94882D0EC0063179
:102910001C4509F08BC080915603882309F4F0C34D
:1029200065E38BE893E00E947B2D0E94C12799CD3F
:102930008272F801E25CFC45EB30F10508F043C01F
:10294000E259FF4F0C94F5368091720391E089278C
:1029500080937203109212019093F90482CD4EEB92
:1029600052E368EC72E32CC048EC52E36EEB72E386
:1029700027C041E952E36BE972E322C04BE952E31D
:1029800061E972E31DC047E752E364E872E318C0EF
:1029900044E852E367E772E313C04DE552E36AE6A9
:1029A00072E30EC04AE652E36DE572E309C04FEAF6
:1029B00051E36BEB71E304C04BEB51E36FEA71E35E
:1029C0000E9444324ECD992389F10A35EDE51E0768
:1029D00041F150F401152CE51207A9F00E3D1C45FC
:1029E00029F50E9467253DCD0B359DE51907D9F0E6
:1029F0000C351D45D9F48091310282FB882780F97E
:102A000091E0892711C00E94A021FFEF24E38CE010
:102A1000F15020408040E1F700C000000E94E12C0E
:102A200020CD81E001C080E00E94E325F60186818F
:102A300097810097B9F4F601828100811181882382
:102A400049F0C8010E94DE1EF82E682FC8010E94BE
:102A5000522104C0C8010E942221F82EB8018F2DF6
:102A60000E9422310E94C223F82E192FF601E28023
:102A7000058102950F708091E003877099F0EE2038
:102A800089F0892F807F803421F080E28F0D88309B
:102A900048F082E00E9404268091E0038770BB2406
:102AA000B3948111B12CA12EA2948FE0A8228A2D7B
:102AB00090E08C30910508F0DBC1FC01E758FF4F36
:102AC0000C94F536812F807F1F70882311F01295AA
:102AD000107FEE20B9F0112309F4ACC180E28F0D14
:102AE000883010F0F11006C09091E303192B109379
:102AF000E30305C09091E203192B1093E2030E94B7
:102B0000C12798C18F2D0E945722112309F4B0C10B
:102B100080E28F0D883010F0F11004C0812F0E94E8
:102B2000DC2506C010959091E20319231093E2036F
:102B30000E94C1279DC1812F807F1F70803211F0BC
:102B40001295107FFF2021F0F1E0FF1691F13BC0BC
:102B5000EE20D9F00023A9F0013031F48091E60392
:102B6000812B0E94AD2784C1053059F40E94D125E4
:102B70008091DD0318131093DD03812F0E944D22F5
:102B800077C18091E603812BF9CF002349F0013012
:102B900069F48091E303812309F46AC10E9421262C
:102BA0000E94D125812F0E94462262C10530C1F7C3
:102BB0005FC1EE2021F0063008F05AC1DECF0530AB
:102BC00008F056C1EFCFEE2019F00023B1F232C168
:102BD000002341F329E3F21208C08FEF97EEE3E000
:102BE00081509040E040E1F73EC1FFE728E381E0FB
:102BF000F15020408040E1F736C1812F86958695BF
:102C0000837019F0813061F033C1EE2021F08F2DF7
:102C1000912F937002C080E090E00E94B82D2EC1E9
:102C2000EE2021F08F2D912F937002C080E090E074
:102C30000E94A22D23C1812F8370A9F5E1101CC130
:102C40004F2D429546954770440F440F8F2D8F703E
:102C500090E09C01042E01C0220F0A94EAF7F4FED2
:102C600008C08FE090E001C0880F4A95EAF7809590
:102C700001C080E0169516951370123069F088F443
:102C800090917205113019F0822B892302C0922B8A
:102C9000892B0E949C21F0C0822B9091720589277C
:102CA000F8CF822BF6CFEE2019F0812F817001C072
:102CB0008695882309F4E0C04F2D429546954770CC
:102CC000440F440F8F2D8F7090E09C01042E01C0A3
:102CD000220F0A94EAF7F4FE08C08FE090E001C0EA
:102CE000880F4A95EAF7809501C080E01695169501
:102CF0001370123059F078F490917803113019F074
:102D0000822B892309C0922B892B06C0822B90919C
:102D10007803892701C0822B0E947F21ADC01F70DC
:102D2000EE2039F0812F0E9491218F2D0E944D229B
:102D3000A3C08F2D0E944622812F0E9485219CC016
:102D400092EFF91659F19F1538F0E0EFFE1659F0A1
:102D5000F1EFFF16E1F069C023EFF21631F184EFD5
:102D6000F81681F162C0EE2071F0053008F080C0E5
:102D70001F7181E090E001C0880F1A95EAF79091E9
:102D8000780389271CC0063008F072C0F1CFEE200E
:102D900039F0812F8F710E9491216AC0EE20C9F312
:102DA000812F8F710E94852163C0EE2039F01F7141
:102DB00081E001C0880F1A95EAF701C080E00E9407
:102DC0007F2156C0EE20D1F08091DD030E94DC25EA
:102DD0008091E0038770843039F40E94FD25812FB3
:102DE0008F710E94852166C0053008F063C01F7195
:102DF000812F0E94912163E0812F10C09091E30305
:102E00008091DD03892B8093E303053050F00E940D
:102E1000FD250E94212664E0812F8F710E94FE27EC
:102E200049C081E00E94042645C0EE2039F000230D
:102E300009F4AFCF8F2D0E94AE221AC0002309F4EF
:102E4000AFCF99E3F91208C0EFEFF7EE23E0E150BE
:102E5000F0402040E1F707C08FE798E3E1E08150C0
:102E60009040E040E1F700C000008F2D0E94572203
:102E700088EF8A0D843010F40E94CE2DBB20A9F07B
:102E80008091E00380FD11C0F60112828595859541
:102E900085950E949121C6010E9478118091E003DE
:102EA0008595859585950E94852160E0C6010E94E3
:102EB000162937C1B12CE0CF0131EFE51E0709F02B
:102EC000ECCA82E0CACA00388FE5180709F086C04C
:102ED000F6018281882309F4C0CB92EEA92E93E0FB
:102EE000B92E2AE0922EF5018491882309F45AC064
:102EF000813009F04FC07501FFEFEF1AFF0AF701AB
:102F00008491813049F47501F2E0EF0EF11CF70174
:102F100084910E944A2341C0823049F47501F2E055
:102F2000EF0EF11CF70184910E94AE2236C083306F
:102F300049F47501F2E0EF0EF11CF70184910E9453
:102F400057222BC0843049F57501F2E0EF0EF11CD9
:102F5000F701249180E090E030E0205331092A30DD
:102F6000310570F4989EA001999E500D1124C9015D
:102F7000840F951FFFEFEF1AFF0AF7012491ECCFA2
:102F8000009759F0EFE9FFE03197F1F700C000003A
:102F90000197F6CF0E94552875015701FFEFAF1A30
:102FA000BF0AA1CF8091E60381FD57CB0E94462D39
:102FB0009093E5038093E4038091E603826080931D
:102FC000E6034BCB03389FE5190709F460C008F40A
:102FD0006BC00438FFE51F0709F476C0033F2CE5FA
:102FE0001207A1F406E221EE40EE63EF7CE50AC091
:102FF000073DFCE51F0709F030CB06E221EE41EE6C
:1030000067ED7CE5C6010E94352F2BCA043F8CE595
:103010001807A0F4083D9CE5190731F407E225EEF6
:1030200045EE68ED7CE5EECF093DECE51E0701F7C6
:1030300008E221E045EE69ED7CE5E4CF053F2CE5B3
:10304000120731F406E221EE42EE65EF7CE5DACFBD
:10305000053F8CE5180730F407E225EE44EE64EFF7
:103060007CE5D0CF063F9CE5190709F0F6CA07E2D8
:1030700025EE46EE66EF7CE5C5CF01382FE5120759
:1030800009F4CFCA98F10338EFE51E0749F4F601B9
:103090008281882309F4E1CA82E0809355033EC00F
:1030A0000338FFE51F0758F4F6018281882309F4ED
:1030B000D4CA81E0809355038DE290E00FC00438BC
:1030C0002FE5120709F08ACFF6018281882309F4DF
:1030D000C4CA81E0809355038DE292E0909354033B
:1030E000809353038FEF80930C0118C009331105AF
:1030F00009F4B3CA00389FE5190709F4E9CE6ECF89
:1031000069E20FCC8DE2E816F10409F46ACA9DE287
:10311000E91692E0F90609F07CCA63CAF6019281C9
:10312000A1CA0F900F900F900F90DF91CF911F9138
:103130000F91FF90EF90DF90CF90BF90AF909F9056
:103140008F9008958091650387FF11C08091E800FA
:1031500082FD05C080916D038111F8CF11C080916F
:10316000E8008B770BC080916D03882349F0809134
:10317000E80080FFF8CF8091E8008E778093E80028
:103180000895982F973068F59093E900981739F0D3
:103190007091EC002091ED005091F00003C0242FBD
:1031A000762F50E021FD02C09F5FECCF3091EB0005
:1031B0003E7F3093EB003091ED003D7F3093ED008A
:1031C0003091EB0031603093EB007093EC00209372
:1031D000ED005093F0002091EE0027FDE5CF80E058
:1031E00008958F708093E90081E0089520916B032A
:1031F00030916C032617370748F06115710539F4D3
:103200002091E8002E772093E80001C0B901FC016D
:1032100020E06115710579F180916D038823F1F14A
:103220008530F1F18091E80083FD3CC08091E80099
:1032300082FD2EC08091E80080FFEBCF2091F3004B
:103240008091F20090E0922B6115710551F0883069
:10325000910538F421912093F10061507109019694
:10326000F3CF21E0089709F020E08091E8008E7705
:103270008093E800CECF2111CFCF0AC080916D039B
:10328000882361F0853061F08091E80083FD0AC0F9
:103290008091E80082FFF2CF80E0089582E00895F7
:1032A00083E0089581E00895BC0184E00C94B72C7C
:1032B000BC0183E00C94B72C0F931F93CF93DF9343
:1032C00000D000D0CDB7DEB789836A834B831C82E0
:1032D00004E610E024E030E0AE014F5F5F4F60E0B5
:1032E00084E10E94E1350F900F900F900F90DF91D5
:1032F000CF911F910F91089580917803982F967028
:10330000963011F4886001C0877F0C947F21DF9292
:10331000EF92FF920F931F93CF93DF938C01C09195
:103320000E01CC0FCC0FCC0FD8E0DC0FD93208F057
:10333000D8E2609176036695669521E0620F08F405
:103340006FEF80916E0390916F030E949133D82E9E
:10335000CD17F0F4EC2EF12CF701E453FE4F9081E1
:1033600080910F01892391F0609173037091740330
:10337000809175032D2D4C2FF80109950E949B33E8
:10338000462F282F672FC7010E94D532CF5FE0CF8D
:1033900081E0D83208F080E0DF91CF911F910F914A
:1033A000FF90EF90DF9008951F93CF93DF93CDB7F9
:1033B000DEB7AA970FB6F894DEBF0FBECDBFE5E625
:1033C000F3E08091F100819343E0ED36F407C9F713
:1033D00080916603833009F462C030F4813071F06B
:1033E000823009F49CC0B3C08A3009F488C08B30A5
:1033F00009F46DC0893009F0AAC020C0809165032E
:10340000813A09F0A4C08091E800877F8093E800AA
:103410008091690390916A03892B21F468E08AE521
:1034200093E003C060E080E090E070E00E94F61856
:103430008091E8008B778093E80089C080916503D4
:10344000813209F084C08091690390916A030097EA
:1034500019F0029709F07BC08091E800877F809384
:10346000E8008091E80082FD05C080916D03811124
:10347000F8CF6DC02091F3008091F20090E0922B84
:10348000029729F48091F1008B7F813021F48091A3
:10349000F100809359038091E8008B7754C08091AC
:1034A0006503813A09F053C08091690390916A03E2
:1034B000892B09F04CC08091E800877F8093E80059
:1034C0008091E80080FFFCCF80910D0137C0809192
:1034D00065038132E1F58091690390916A03892B3C
:1034E000B1F58091E800877F8093E8000E94A218E0
:1034F0008091670380930D010E94A02128C08091D4
:103500006503813221F58091E800877F8093E80090
:103510000E94A218809168038093580318C080917C
:103520006503813AA1F48091E800877F8093E800E9
:103530008091E80080FFFCCF809158038093F100D8
:103540008091E8008E778093E8000E94A218809115
:10355000E80083FFE9C18091650390916603492FDC
:1035600050E04A30510508F0DFC1FA01EB57FF4F38
:103570000C94F536803821F0823809F0D5C108C0A6
:103580008091620390916303992389F082600FC058
:10359000809169038F70873008F0C6C18093E9007D
:1035A0008091EB0085FB882780F91092E9009091CB
:1035B000E800977F9093E8008093F1001092F1006B
:1035C0007CC1282F2D7F09F0AFC1882319F08230EC
:1035D00061F0AAC180916703813009F0A5C19330E1
:1035E00009F080E0809363032EC08091670381110E
:1035F0002AC0809169038F702FEF280F263008F0C2
:1036000093C18093E9002091EB0020FF1CC0933010
:1036100021F48091EB00806214C09091EB009061E6
:103620009093EB0021E030E0A90102C0440F551F48
:103630008A95E2F74093EA001092EA008091EB004D
:1036400088608093EB001092E9008091E800877F0A
:103650008093E8000E94A21867C1811165C1109192
:1036600067031F778091E3008078812B8093E300CC
:103670008091E800877F8093E8000E94A2188091E3
:10368000E80080FFFCCF8091E30080688093E30036
:10369000111102C082E001C083E080936D0344C138
:1036A0008058823008F040C1209167033091680350
:1036B0002C3D53E0350779F583E08A838AE28983DC
:1036C0004FB7F894DE01139620E03EE051E2E32F7D
:1036D000F0E050935700E49120FF03C0E295EF70B3
:1036E0003F5FEF708E2F90E0EA3010F0C79601C078
:1036F000C0968D939D932F5F243149F74FBF8091E2
:10370000E800877F8093E8006AE270E0CE010196CE
:103710000E94F618C0C08091690390916A03432FFC
:10372000552743305105B1F068F44130510509F493
:103730000AC14230510509F0F7C08BE590E0E8EC92
:10374000F4E057C04132510589F14232510509F484
:103750003CC0EAC0C901992781309105B9F070F0E9
:1037600082309105D9F0039709F0DEC0E5E3F5E07A
:10377000E4918E2F90E0E5E3F5E038C0EBEAF5E068
:10378000E4918E2F90E0EBEAF5E030C0EFE8F5E051
:10379000E4918E2F90E0EFE8F5E028C0E3E5F5E056
:1037A000E4918E2F90E0E3E5F5E020C083309105B1
:1037B00008F0BAC0880F991FFC01E75BFE4F01902B
:1037C000F081E02D89E090E014C08330910508F08D
:1037D000ABC0FC01EE0FFF1FED5BFE4F0190F081CF
:1037E000E02DDC01A05CBE4F8C9190E0009709F4C5
:1037F0009BC02091E800277F2093E80020916B0375
:1038000030916C032817390708F4C90140E000978C
:1038100089F120916D03222309F43DC02530D9F1AF
:103820002091E80023FD37C02091E80022FD2FC041
:103830002091E80020FFEBCF4091F3002091F200AF
:1038400030E0342B009759F02830310540F4449192
:103850004093F100319601972F5F3F4FF3CF41E046
:103860002830310509F040E02091E8002E772093C0
:10387000E800CDCF4111CDCF0AC080916D038823E0
:1038800051F0853041F08091E80083FD04C08091C3
:10389000E80082FFF2CF8091E8008B778093E80008
:1038A00043C0803809F040C08091E800877F809352
:1038B000E800809164038093F1008091E8008E77A6
:1038C000C7CE811131C08091670390916803992719
:1038D000029754F58091E800877F8093E80010916B
:1038E0006703109364030E94A218111106C080910F
:1038F000E30087FD02C081E001C084E080936D0396
:1039000042E061EC81E00E94C11842E261EC84E097
:103910000E94C11842E261EC82E00E94C11842E2BA
:1039200060EC83E00E94C1188091E80083FF10C022
:103930008091E800877F8093E8008091EB008062AF
:103940008093EB0005C082E190E0E3E2F5E051CF27
:10395000AA960FB6F894DEBF0FBECDBFDF91CF9110
:103960001F9108951F920F920FB60F9211242F935B
:103970003F934F935F936F937F938F939F93AF93F7
:10398000BF93CF93DF93EF93FF93C091E900CF7084
:103990008091EC00D82FD17080FDD0E81092E90022
:1039A0008091F000877F8093F00078940E94D41972
:1039B0001092E9008091F00088608093F000CD2B98
:1039C000CF70C093E900FF91EF91DF91CF91BF914C
:1039D000AF919F918F917F916F915F914F913F91A7
:1039E0002F910F900FBE0F901F901895E8EDF0E00B
:1039F00080818E7F80831092E2001092DA00109214
:103A0000E100A0EEB0E08C9181608C9380818F7793
:103A1000808319BCA7EDB0E08C918E7F8C93808160
:103A20008F7E8083109257030895CF92DF92EF929A
:103A3000FF920F931F93CF93DF93C8EDD0E088815F
:103A40008F7E8883E7EDF0E080818160808384E071
:103A500082BF81E08093570388818E7F888302EE46
:103A600010E0F80110821092DA0081EEC82ED12CFD
:103A7000F601108288818F778883888180688883A7
:103A800088818F7D888319BC10926D031092640326
:103A9000109263031092620390EEE92EF12CF7016D
:103AA00080818B7F808388818160888342E060E0B1
:103AB00080E00E94C118F60180818E7F8083F8012A
:103AC000808181608083808188608083F70180812C
:103AD0008E7F8083888180618883DF91CF911F9161
:103AE0000F91FF90EF90DF90CF9008951F920F926B
:103AF0000FB60F9211242F933F934F935F936F93C1
:103B00007F938F939F93AF93BF93EF93FF93809196
:103B1000E10082FF09C08091E20082FF05C0809130
:103B2000E1008B7F8093E1008091DA0080FF2AC062
:103B30008091D80080FF26C08091DA008E7F80932C
:103B4000DA008091D90080FF18C080E189BD82E150
:103B500089BD09B400FEFDCF81E080936D038091A3
:103B6000570381110FC00E94F61C0E94151D809101
:103B7000E20084608093E20005C019BC10926D03DE
:103B8000109257038091E10080FF17C08091E200FE
:103B900080FF13C08091E2008E7F8093E2008091CD
:103BA000E20080618093E2008091D800806280937F
:103BB000D80019BC85E080936D038091E10084FFFB
:103BC0002EC08091E20084FF2AC080E189BD82E19D
:103BD00089BD09B400FEFDCF8091D8008F7D809310
:103BE000D8008091E1008F7E8093E1008091E20017
:103BF0008F7E8093E2008091E20081608093E200FA
:103C000080916403882311F084E007C08091E30071
:103C100087FD02C081E001C083E080936D03809145
:103C2000E10083FF27C08091E20083FF23C08091E1
:103C3000E100877F8093E10082E080936D03109222
:103C400064038091E1008E7F8093E1008091E20027
:103C50008E7F8093E2008091E20080618093E20099
:103C600042E060E080E00E94C1188091F00088602E
:103C70008093F000FF91EF91BF91AF919F918F9151
:103C80007F916F915F914F913F912F910F900FBE58
:103C90000F901F9018952091E4003091E50095E673
:103CA0004091EC00842F817040FF23C08091E80098
:103CB00080FD1DC080916D03882399F0853099F0B7
:103CC0008091EB0085FD11C04091E4005091E5002A
:103CD0002417350729F3915011F09A01E1CF84E0C0
:103CE000089582E0089583E0089581E0089580E0DA
:103CF00008954091E80042FFDDCF0895EF92FF92D2
:103D00000F931F93CF93DF937C018B010E944B1E77
:103D1000811119C0E70101151105A1F08091E8009A
:103D200085FD0AC08091E8008E778093E8000E94AC
:103D30004B1E882381F307C089918093F1000150C5
:103D40001109E9CF80E0DF91CF911F910F91FF9092
:103D5000EF900895CF9320916D032430F9F4C09132
:103D6000E900CF703091EC00232F217030FD20E866
:103D7000C22B22E02093E9002091E80020FF0BC035
:103D800040E050E060E270E00E947E1E8091E8001A
:103D90008E778093E800CF70C093E900CF910895AB
:103DA00080E090E00E94B82D80E090E00E94A22D7B
:103DB0001092E2031092E1030C94C127CF92DF929C
:103DC000FF920F931F93CF93DF936C0100917803C1
:103DD00080917205082BC7E0D0E010E0C8010C2EDE
:103DE00002C0959587950A94E2F780FD04C021975B
:103DF000A8F7F12C09C0FC2EB6018C2F0E942231AD
:103E00000E94C223019799F38F2DDF91CF911F91CB
:103E10000F91FF90DF90CF900895CF93DF93EC0147
:103E20000E94DE1EBE010E9422310E94C223DF9149
:103E3000CF910895FC0186819781009719F00E9427
:103E4000C22304C0808191810E940D1F292F2F70F1
:103E5000E92FE295EF704E2F50E0FA013297EE30E5
:103E6000F105B8F4E157FF4F0C94F536803F99F017
:103E700018F4883E70F40FC0843F59F40CC0883E9B
:103E800050F0813F31F407C0822F86958695869544
:103E9000089580E0089581E008959F92AF92BF92C7
:103EA000CF92DF92EF92FF920F931F93CF93DF9306
:103EB000CDB7DEB765970FB6F894DEBF0FBECDBFA6
:103EC0008C0185E0F801DE01519601900D928A95F2
:103ED000E1F7F801E280909193036091940340919F
:103EE0009603509197034115510531F06F3F31F41E
:103EF00081E09F3F19F403C081E001C080E0F82F0A
:103F0000F1709F2E80FD4EC1F80130812181C38068
:103F1000D48073E9A72E73E0B72EF0909503F601D5
:103F2000E41BF50BFF2009F4EFC080919803E83CF7
:103F3000F10508F0AAC0482F407F09F05AC062136B
:103F40001BC0931319C06091990370919A03F801F3
:103F5000468157816417750779F4FE2CE1100CC077
:103F60008F70806180939803C5010E9478118091C1
:103F70009803F801858353C1CD2831F02F3F31F4E8
:103F800081E03F3F19F403C081E001C080E080FD83
:103F900003C081E08E2502C080E090E0F82FF17030
:103FA000FF2E80FF1CC08091DC0340919B0384178F
:103FB00009F413C190E0FC0153E0EE0FFF1F5A9586
:103FC000E1F7E456FC4F5181251306C0508153138D
:103FD00003C05281E51203C001968770E8CFFE2C22
:103FE000EE2009F41CC180919803816080939803AE
:103FF00058C062130FC093130DC0409199035091A4
:104000009A03F801268137814217530719F4EE20ED
:1040100009F4A7C0C8010E941A1F882381F1EE206D
:1040200071F120919803822F82958F7090E0029712
:10403000A4F080919303909194039A8789871B86BB
:10404000DD86CC862E878091990390919A03988B78
:104050008F87CE0109960E94781188E0F801A3E9C4
:10406000B3E001900D928A95E1F70E9431260AC0D3
:104070006217C9F0C8010E941A1F811127C0C80128
:104080000E947811FF24F394CAC0482F407F81F723
:1040900083E993E00E94781188E0F50111928A95F6
:1040A000E9F7F12CBCC09313E5CF409199035091EF
:1040B0009A03F8012681378142175307D9F6E11098
:1040C000D9CF8583C8010E94781166C0EE20B9F26D
:1040D00020919803822F82958F7090E002970CF4C4
:1040E000BCCF80919303909194039A8389831B8220
:1040F000DD82CC822E838091990390919A039887D8
:104100008F83CE010196A7CFE83CF10508F044C0AB
:10411000FE2CEE2009F4B3CF621330C093132EC0EF
:104120002091990330919A03F8018681978128178D
:10413000390721F59091980390FD17C0892F82953A
:104140008F70282F30E02115310579F095832F30BD
:10415000310541F08F5F982F9295907F85818F7008
:10416000892B8583C8010E94781188E0F801A3E9B2
:10417000B3E001900D928A95E1F751C0C8010E9409
:104180001A1F81116ACF80919803816080939803F0
:10419000C8010E94781143C088E0F50111928A9508
:1041A000E9F73DC0EE2009F46ACFC8010E941A1F4A
:1041B000F82E882309F463CF88E0F801A3E9B3E07F
:1041C00001900D928A95E1F7809193039091940369
:1041D0000E940D1F0E94312622C0398B2A8B8989AB
:1041E0009A890E940D1F292F22952F70223028F4C2
:1041F0009F7039F0811105C00BC0243028F49F70E6
:1042000049F4805E883020F0C8010E9478119F2C0C
:10421000F92C05C0F8019581907F99F7F9CF8F2D82
:1042200065960FB6F894DEBF0FBECDBFDF91CF917C
:104230001F910F91FF90EF90DF90CF90BF90AF90C4
:104240009F9008959E3F61F129E0929F800D112477
:10425000682F669566956695982F977083E0689F9E
:10426000B001112440E050E080E0FB01E40FF51FB5
:10427000E758FC4F208130E0092E02C03695279583
:104280000A94E2F721703327042E01C0220F0A940A
:10429000EAF7822B4F5F5F4F4330510531F70895A6
:1042A00080E008959E3F51F129E0929F800D1124F6
:1042B000E82FE695E695E695877051E001C0550F29
:1042C0008A95EAF783E0E89FF0011124E758FC4F54
:1042D00020E030E070E04081CB01022E02C09695D4
:1042E00087950A94E2F78170819584278523842736
:1042F00081932F5F3F4F2330310569F708950E9466
:104300008029809378030C94D01E21E030E001C016
:10431000220F8A95EAF720958091780382230C94E6
:104320007F2121E030E001C0220F8A95EAF78091D9
:104330007803822B0C947F21809372050C94D01EFD
:104340001092E30386E0EDE8F3E0DF011D928A9529
:10435000E9F70C94D01ECF93DF93CDB7DEB760970B
:104360000FB6F894DEBF0FBECDBF29873A874B87C3
:104370005C876D877E878F87988BCE0109960E9418
:104380004D1F811151C088E0FE013996DE01119662
:1043900001900D928A95E1F779856A854C855D8556
:1043A0004115510531F06F3F31F481E07F3F19F441
:1043B00003C081E001C080E080FD36C0A0919B0376
:1043C000B0E0CD010196877099272091DC0330E0A1
:1043D0008217930781F179836A835D834C8393E02D
:1043E000AA0FBB1F9A95E1F7A456BC4F98E0FE01B7
:1043F000319601900D929A95E1F780939B030E946C
:10440000272612C028E0829FC001112484569C4FA9
:104410000E944D1F8823E1F08091DC0390E001961B
:10442000877099278093DC038091DC0390919B0334
:104430008913E8CF0DC00E94A02110929B03109217
:10444000DC03E3E9F3E088E0DF011D928A95E9F7F8
:1044500060960FB6F894DEBF0FBECDBFDF91CF914F
:104460000895882341F080959091E20389238093F9
:10447000E2030C94C1270895882339F09091E20358
:10448000892B8093E2030C94C1270895882321F09F
:104490000E94DC250C94C1270895882339F090915F
:1044A000E303892B8093E3030C94C12708958823A9
:1044B00009F453C0682F823869F40E94CE2D81FF21
:1044C0004CC069E38BE893E00E94882D0E94C127CD
:1044D00069E30EC0833891F40E94CE2D80FF3DC069
:1044E00063E58BE893E00E94882D0E94C12763E575
:1044F0008BE893E00E947B2D0C94C127843869F4EB
:104500000E94CE2D82FF29C067E48BE893E00E94D1
:10451000882D0E94C12767E4EBCF8CEF860F813A8C
:1045200038F380E2860F883048F4677081E001C07C
:10453000880F6A95EAF70E94DC25DECF8BE5860FAF
:10454000833020F480E090E00C94B82D685A6731F5
:1045500020F480E090E00C94A22D0895CF9388235E
:1045600009F496C0C82F8238B1F40E94CE2D81FD87
:104570008FC069E38BE893E00E94882D0E94C127D9
:104580002FEF81EE94E0215080409040E1F700C091
:10459000000069E317C08338E1F40E94CE2D80FD4E
:1045A00077C063E58BE893E00E94882D0E94C127C5
:1045B0002FEF81EE94E0215080409040E1F700C061
:1045C000000063E58BE893E00E947B2DCF910C9473
:1045D000C1278438B1F40E94CE2D82FD59C067E412
:1045E0008BE893E00E94882D0E94C1272FEF81EE77
:1045F00094E0215080409040E1F700C0000067E463
:10460000E1CF8CEF8C0F813A80F4EDE8F3E083E9A1
:1046100093E02191C217A1F18E179F07D1F76C2F5C
:104620008BE893E00E94882DD1CF80E28C0F8830F8
:1046300068F4C77081E090E001C0880FCA95EAF77E
:104640009091E303892B8093E303C0CFEBE5EC0F5C
:10465000E33040F4F0E0EC50FE4F808190E0CF91E9
:104660000C94B82DC85AC73198F4EC2FF0E0EE0F37
:10467000FF1FE950FE4F80819181CF910C94A22DB4
:104680006C2F8BE893E00E947B2D0E94C127C7CF3F
:10469000CF9108951F93CF93DF93182F893319F08B
:1046A000C9E1D0E002C0C0E5D0E0812F0E94AE2277
:1046B0008FE99FE00197F1F700C000002197C1F753
:1046C000812FDF91CF911F910C94572280E00895A4
:1046D0009091300292FF0DC0282F2871283019F4D4
:1046E000877F846006C0282F2471243011F48B7FCB
:1046F000886093FF0DC0282F2871283119F4877E18
:10470000846106C0282F2471243111F48B7E8861C6
:104710002091310220FF0DC0382F3871383019F444
:10472000877F816006C0382F3171313011F48E7F60
:10473000886021FF0DC0282F2871283119F4877E49
:10474000816106C0282F2171213111F48E7E88618C
:1047500094FD877E0895F894E82FE295EF70F0E0DD
:1047600031A1282F2F7081E090E001C0880F2A9599
:10477000EAF7982F9095932391A392A1892B82A376
:1047800078940895CF93DF938238910569F1B0F45E
:104790008133910509F46FC048F48932910509F419
:1047A00065C08A32910509F46BC08AC085339105D2
:1047B00009F457C089339105B9F082C0833E910551
:1047C00071F138F4803E9105B1F0823E910511F10E
:1047D00077C0863E9105B9F1873E9105C9F1843EC7
:1047E000910509F06DC024C02091300220FD53C016
:1047F00021FD51C065C08091300280FD46C080918E
:10480000310280FF48C08091300284FD3FC183EEB9
:1048100090E03EC18091300282FF3AC0F4CF809197
:10482000300282FD35C08091310280FD34C0EBCF73
:104830008091310281FF35C08091300284FD26C114
:1048400087EE90E025C18091300283FF27C0F4CF2E
:104850008091300283FD22C08091310281FD21C010
:10486000EBCF8091300285FD1FC021C080913002C6
:1048700085FD1DC019C08091300286FD1BC01DC082
:104880008091300286FD19C015C089E390E000C117
:1048900082EE90E0FDC080EE90E0FAC086EE90E0FF
:1048A000F7C084EE90E0F4C089E290E0F1C085E3C7
:1048B00090E0EEC08AE290E0EBC081E390E0E8C0D7
:1048C000811532E5930708F069C0811541E5940729
:1048D00028F0982F8827816F906ADAC0883E91056A
:1048E00068F5803E910508F0D3C0883A9105B8F488
:1048F000853A910548F0855AE82FF0E0EC50FE4FDC
:10490000808190E09064C4C08130910509F4BBC0FF
:1049100008F4BCC08430910508F4B8C0B9C08F3B1E
:10492000910508F0B3C0885AE82FF0E0EE0FFF1FA2
:10493000E950FE4F808191819464AAC0811520E5E1
:104940009207F0F09C0174E0369527957A95E1F78F
:10495000922F9370482F437021E030E002C0220F65
:10496000331F4A95E2F73C68392B8F70982F969544
:10497000969540E2949FC0011124822B932B88C00E
:10498000811530E4930718F09F70906A81C09C01F4
:104990003A9521153F4108F47BC078C0EC01C11560
:1049A00086E5D807E8F5C11525E5D20748F08C2F34
:1049B0000E9468238F7190E0982F8827906268C0CA
:1049C000C11534E5D30728F09C2F8827846F906A9F
:1049D0005FC0AE01437055272C2F26952695C11533
:1049E000D34578F481E090E002C0880F991F4A9582
:1049F000E2F740E2249F90011124822B932B9C68C4
:104A000047C081E090E002C0880F991F4A95E2F705
:104A100040E2249F90011124822B932B9A6838C086
:104A2000C1152AE5D207F8F4C11539E5D30790F08E
:104A30008C2F8F700E94682394E0D695C7959A9525
:104A4000E1F7CF70D0E0DC2FCC27D0699E01282B76
:104A5000C9011EC0C11548E5D407C0F09C2F8827A6
:104A6000806F906A15C0CE0190568115904270F407
:104A70008D2F8F710E946823282F2F71CE019927C7
:104A80009062922B05C081E090E002C080E090E04F
:104A9000DF91CF910895CF9384E090E00E94873614
:104AA000C82F82E290E00E9487362C2F30E0A901C7
:104AB000582BCA01CF91089580E090E00E948F3674
:104AC0008A3E9E4F11F40C942B3280E008956AEEDA
:104AD0007EEF80E090E00E94C33660E082E090E0EC
:104AE0000E94A53660E083E090E00E94A536109217
:104AF000720560E084E090E00E94A53660E082E20A
:104B000090E00E94A53660E085E090E00E94A53626
:104B100060E086E090E00E94A5366FEF87E090E0CD
:104B20000E94A53640E050E0BA0188E090E00E9483
:104B3000B73660E08DE090E00E94A53640E050E09E
:104B4000BA0188E190E00E94B73660E087E190E02A
:104B50000E94A53640E050E0BA018CE190E00E944E
:104B6000B73660E070E080E290E00E94C33640E03B
:104B700050E0BA0188E190E00E94B73680E00E94E0
:104B8000FE310E941C3240E050E0BA018FE090E01C
:104B90000E94B73640E050E0BA0183E190E00C9407
:104BA000B7368091E603882331F01092E603109225
:104BB000E5031092E403089580959091E30389231F
:104BC0008093E3030895CF93C0913102C2FB9927EC
:104BD00090F9981781F080FBC2F9C093310260917F
:104BE000300284E090E00E94A5366C2F82E290E0D3
:104BF000CF910C94A536CF9108951092E0031092B6
:104C0000DF031092DE0308952091E0038095822354
:104C10008093E003982F977041F430E0482F082EDE
:104C2000000C550B2417350721F49091310292FFA7
:104C300007C08595859585950E9485210C94FD2555
:104C400008958091DD0381111092DD030895809114
:104C5000DC0390919B03891719F08F5F8770FBCF5E
:104C600008951F93CF93DF938091980382958F705F
:104C700009F05CC080919503882309F457C08091A6
:104C8000DC0310919B036091930370919403C09196
:104C90009603D091970391E06F3F09F090E0292FA0
:104CA000811709F443C0209721F07F3F21F030E0C5
:104CB00003C031E001C0322F90E030FD34C0FC0170
:104CC00033E0EE0FFF1F3A95E1F7DF01A456BC4F2A
:104CD00011963C911197371326C03C91361323C08F
:104CE00012963C91129731111EC013964D915C9112
:104CF00014974C1B5D0B483C5105A8F48091980318
:104D00008F70806180939803EF55FC4F80818F7086
:104D10008061808383E993E00E947811DF91CF91D5
:104D20001F910C94272601968770BACFDF91CF91FF
:104D30001F9108958F929F92AF92BF92CF92DF9270
:104D4000EF92FF920F931F93CF93DF93CDB7DEB710
:104D50002A970FB6F894DEBF0FBECDBFAE014F5FEE
:104D60005F4F7A018AE0DA011D928A95E9F70EE138
:104D700011E06A01AA24A394B12CF80180818F3F2D
:104D800009F44DC0F894E82FE295EF70F0E021A10E
:104D90008F70A50102C0440F551F8A95E2F7CA0122
:104DA000922F982B91A392A18095892382A3789426
:104DB00000C0E3E2F1E020E030E0812C912C819111
:104DC0008F3FC1F0A82FA295AF70B0E090964C91A4
:104DD00050E08F70DA0102C0B595A7958A95E2F789
:104DE000A0FD08C0C501022E02C0880F991F0A94B9
:104DF000E2F702C080E090E0882A992A2F5F3F4FB7
:104E000029303105E1F6F80180818F3F11F00E94D1
:104E1000AB23F0EAFA95F1F7D6018D929C920F5FE1
:104E20001F4FB2E0CB0ED11CE1E003321E0709F0A8
:104E3000A4CF4AE050E0B70182E392E00E9402373B
:104E400011E0009709F410E0892B89F08AE0F7015E
:104E5000A2E3B2E001900D928A95E1F781E08093A0
:104E6000E9030E94462D9093E8038093E703809125
:104E7000E903882391F18091E7039091E8030E9470
:104E80002B2D059750F1809132029091330290932F
:104E900049038093480380913402909135029093A6
:104EA0004B0380934A03809136029091370290938E
:104EB0004D0380934C038091380290913902909376
:104EC0004F0380934E0380913A0290913B0290935E
:104ED0005103809350031092E903809111018823BC
:104EE00041F18091E9049091EA04009711F10E9448
:104EF0002B2D209143043091440428173907C8F41E
:104F00009091E7048091E804981759F00E94862E4A
:104F100010924404109243041092EA041092E9049F
:104F200008C00E94082E1092EA041092E9040E9420
:104F3000672E812F2A960FB6F894DEBF0FBECDBF25
:104F4000DF91CF911F910F91FF90EF90DF90CF9065
:104F5000BF90AF909F908F900895CF939091310222
:104F600092FD0DC09091E603981749F0C82F0E945A
:104F7000462D9093E5038093E403C093E603CF911D
:104F800008959091E3038091E203892B9091E103CE
:104F9000892B80938B038091E603882311F10E9473
:104FA000462D2091E4033091E503821B930B883852
:104FB000934110F00E94D12590918B038091E603DC
:104FC000892B80938B03EDE8F3E097E080E091502C
:104FD00029F021912223D9F38F5FF9CF81110E940B
:104FE000D125E091ED04F091EE04309731F002808C
:104FF000F381E02D8BE893E00994089590913102BC
:1050000092FD10C098E0899F90011124262B2093D7
:10501000E0030E9491210E94462D9093DF0380932C
:10502000DE0308950C949121982F92959F7019F0AA
:10503000892F24E001C020E0982F9695969511F0D5
:105040002E5F892F982F969509F02F5F822F089554
:105050009C013A9521153F4130F5BC0166277270DD
:10506000AC01442754709C012227387094FF0FC074
:1050700090FF02C080E101C080E0672B09F08062F0
:10508000452B09F08064232B79F080680895892FDF
:105090008170672B09F08260452B09F08460232B17
:1050A00019F08860089580E00895DF92EF92FF92F2
:1050B0000F931F93CF93DF93E82FF0E0E152FA4F65
:1050C000D490282F26952695269530E0F901E153B6
:1050D000FA4F0491877010E0082E02C015950795CD
:1050E0000A94E2F701701127F901E154FA4FE490B4
:1050F000F12C082E02C0F594E7940A94E2F791E0AF
:10510000E922FF24F901E155FA4FC491D0E002C031
:10511000D595C7958A95E2F7C170DD270115110570
:1051200019F081EE0E94AE22E114F10419F086EE2E
:105130000E94AE228D2D0E944A23EF2819F086EEA0
:105140000E945722012B19F081EE0E945722CD2B8D
:1051500051F08CE2DF91CF911F910F91FF90EF9072
:10516000DF900C944A23DF91CF911F910F91FF9014
:10517000EF90DF900895EF92FF921F93CF93DF930C
:10518000EC011AE08881882309F44AC0813009F0D3
:1051900043C08981813041F47E0182E0E80EF11C38
:1051A0008A810E944A2309C0823049F47E01E2E0EC
:1051B000EE0EF11C8A810E94AE22E7012FC08330DF
:1051C00041F47E01F2E0EF0EF11C8A810E94572229
:1051D000F4CF843011F0219621C02A81229680E0FC
:1051E00090E030E0205331092A30310558F4189FFF
:1051F000A001199F500D1124C901840F951F2196FC
:105200002881EFCF009751F0EFE9FFE03197F1F7F8
:1052100000C000000197F6CF0E9455282196B2CF1A
:10522000DF91CF911F91FF90EF9008951F93CF933F
:10523000DF9300D000D01F92CDB7DEB7FC0186818E
:105240009781009709F5CF0125E0DE0111960190C5
:105250000D922A95E1F7FC01228189819A8122230E
:1052600059F0662349F00E94DE1E182F682F8981AD
:105270009A810E94522103C00E942221182F698125
:105280007A81812F0E9422310F900F900F900F9002
:105290000F90DF91CF911F910895CF93DF93EC0191
:1052A0000E945722CE01805E9109089710F0209746
:1052B00039F4CE010E942828DF91CF910C94462228
:1052C000CE010E942828DF91CF910C943122CF93F8
:1052D000DF93EC01805E9109089710F0209731F47C
:1052E000CE010E9428280E944D2205C0CE010E94B6
:1052F00028280E943C228C2FDF91CF910C94AE2263
:10530000CF93C82F0E9414288230C1F028F488233C
:1053100039F0813079F004C0833099F08430A9F0FD
:1053200080913C02882319F040E060E00CC04FEF10
:1053300060E00DC04FEF60E08AE70AC040E06FEF29
:1053400002C040E060E88FEF03C04FEF6FEF80E0F6
:105350000E945C198C2FCF910895DC01FB018081A4
:105360009181803891053CF08FE78C938081918109
:105370008F5791090AC081382FEF92074CF481E8CA
:105380008C938081918181589F4F91838083089570
:105390008C93118210820895681720F4861B682F61
:1053A00021E002C0681B20E0469FA0011124649FF9
:1053B000C001659F900D11249170222319F09195E1
:1053C000819591090895CF93DF93C0915303D091B4
:1053D0005403CE0195558F3F910509F048F48C2F69
:1053E000C4FF02C08295807FDF91CF910C94AD27DE
:1053F000CE010E9467298FE798E321E08150904019
:105400002040E1F700C00000CE01DF91CF910C9465
:105410004D29109252030E94CE2D81FF03C089E3D3
:105420000C944A2308952F923F924F925F926F926D
:105430007F928F929F92AF92BF92CF92DF92EF9224
:10544000FF920F931F93CF93DF93CDB7DEB76A9789
:105450000FB6F894DEBF0FBECDBF498B5A8B6B8B56
:105460007C8B8D8B61111092E2038E01075F1F4FC1
:1054700088E0F80111928A95E9F785E0FE017196BE
:10548000D80101900D928A95E1F70E94462D209156
:10549000DE033091DF03821B930B8838934140F089
:1054A0008091E00382FB992790F981E0892701C070
:1054B00080E080FF03C082E00E9404260E94462D07
:1054C0002091E4033091E503821B930B88389341CC
:1054D00010F00E94D12599858A852C853D85232B46
:1054E00031F08F3F31F481E09F3F19F403C081E038
:1054F00001C080E080FDCAC161E0C8010E94162998
:105500006C0187EFC8168CE5D80639F48B858823A3
:10551000B9F081E080931101B9C198EFC9169CE5FB
:10552000D90631F48B85882359F00E94782EAEC1BC
:10553000E9EFCE16ECE5DE0619F48B85811111C07A
:1055400007EA14E0712CA12CB12C88248394912CAF
:1055500055245394CE0101969F8B8E8BF7E04F2EEE
:1055600049C0809111018823A1F2DFCFC616D7066A
:1055700009F097019F5F7901292F30E0F901EE0FC3
:10558000FF1FE40FF51F608171816115710571F7CF
:10559000FFEFEF16FF0609F42DC1F80164816111D8
:1055A00031C020911101822F81706B84F801358107
:1055B0002681662009F4C6C0882309F4C3C03323BA
:1055C00021F1940102C0220F331F9A95E2F7215076
:1055D0003109F801868190E02817390759F17628BA
:1055E000FFEFAF1ABF0A095F1F4F28E0A216B104F0
:1055F00009F402C1F80140815181EE24EA94FE2CA5
:1056000090E0BACF20E030E0CECFA40101C0440F3B
:10561000EA94EAF7242B2683209143043091440432
:105620002233310570F622E330E0309344042093B6
:105630004304C7CF8091E9049091EA04009729F0D0
:105640000E942B2DC39708F01EC18091E704F091B2
:10565000E804F88FE0E0F0E0288D821709F460C0DC
:10566000282F30E0F901EE0FFF1FE152FB4F2080A1
:105670003180429CF001439CF00D1124E955FB4F11
:10568000F080E18050E090E040E0EF2DFE2DE40F4F
:10569000F11DE40FF11DA081B1811097D1F0F80147
:1056A000F081F98FF801F181FA8F90E0E98DFA8DA0
:1056B000E90FF11DE90FF11D60817181611571051F
:1056C00031F0A617B70709F451E09F5FEFCF4F5FA6
:1056D000DCCF5523F9F09417C8F0429CF001439CAD
:1056E000F00D1124E955FB4F3097B1F054820E179D
:1056F0001F0709F474CF9091E70489130DC0C90105
:105700000196837099278093E70406C0011511055F
:1057100009F0B9C0E0E0F0E0C901019683709CCFC8
:105720000E171F0709F45BCF90E0FC01EE0FFF1F7F
:10573000E152FB4FB182A08201968370992780933A
:10574000E8044DCF311112C0A40102C0440F551F0F
:105750009A95E2F74150510930E042175307E9F5B5
:105760006623E1F1C5010E94DA2D37C0822F90E057
:105770009C0121503109282339230E2C02C0959514
:1057800087950A94E2F7232B31F580FF24C0F801B6
:1057900082819381892BD9F088E0EE89FF8911926B
:1057A0008A95E9F78EEF89838A830E94462D81606E
:1057B000582F9D838C83F801828193818F839887F2
:1057C00029813A814B816D817E810E94AB21F80154
:1057D000158281E003C0817001C080E0940101C0A6
:1057E000220FEA94EAF72095F8019681292326836F
:1057F000682EF5CE612CF3CE8B85882381F177203E
:1058000071F10E94462D9093EA048093E9048091FF
:105810004604883008F044C091E0980F9093460405
:1058200098E0FE013996DE01119601900D929A954D
:10583000E1F7ECE08E9FC0011124895B9B4F28E0CB
:10584000FE013196DC0101900D922A95E1F72FEFD0
:105850003FEFFC0131872087D386C28621C090911B
:10586000E7048091E804981719F00E94862E08C07A
:105870000E94082E1092EA041092E9040E94672EFA
:10588000772021F00DC0F8015482A9CE29853A85F0
:105890004B855C856D857E858F8598890E94AB21BF
:1058A0006A960FB6F894DEBF0FBECDBFDF91CF91E1
:1058B0001F910F91FF90EF90DF90CF90BF90AF902E
:1058C0009F908F907F906F905F904F903F902F9020
:1058D000089580915903089524E02093E9002FEF63
:1058E0003091E800215035FD06C035ED3A95F1F7CD
:1058F00000002111F5CF2091E80025FF0BC040E00A
:1059000050E066E070E00E947E1E8091E8008E7795
:105910008093E8000895CF93DF9321E02093E9007E
:105920002FEF3091E800215035FD06C035ED3A9556
:10593000F1F700002111F5CF2091E80025FF14C0F8
:10594000EC0140E050E068E070E00E947E1E809133
:10595000E8008E778093E80088E0FE01AAE5B3E0D6
:1059600001900D928A95E1F7DF91CF910895909182
:105970006D03943029F58093F6047093F8046093D6
:10598000F7049093E9008FEF9091E800815095FD26
:1059900006C095ED9A95F1F700008111F5CF809141
:1059A000E80085FF0DC040E050E063E070E086EF66
:1059B00094E00E947E1E8091E8008E778093E8003C
:1059C000089581E08093E00080E28093D8001092F7
:1059D000C9008FE19EE40197F1F700C0000087E065
:1059E00090EBDC018093730590937405A09375058B
:1059F000B09376059CE088E10FB6F894A895809363
:105A000060000FBE90936000FFCF78941F920F92BA
:105A10000FB60F9211248F939F93AF93BF938091F2
:105A2000F2049091F304A091F404B091F50401966E
:105A3000A11DB11D8093F2049093F304A093F4048C
:105A4000B093F504BF91AF919F918F910F900FBECE
:105A50000F901F9018959C014FB7F8948091F20415
:105A60009091F304A091F404B091F5044FBF821B10
:105A7000930B08952FB7F8946091F2047091F3049A
:105A80008091F4049091F5042FBF08952FB7F894F6
:105A90008091F2049091F304A091F404B091F50484
:105AA0002FBF08951F920F920FB60F9211248F935C
:105AB0009F93AF93BF938091F104811113C08091A4
:105AC000F2049091F304A091F404B091F50441968E
:105AD000A11DB11D8093F2049093F304A093F404EC
