:100000000C9489040C94D0040C94D0040C94D00467
:100010000C94D0040C94D0040C94D0040C94D00410
:100020000C94D0040C94D0040C94D7240C94132476
:100030000C94841A0C94D0040C94D0040C94D00426
:100040000C94D0040C94D0040C94D0040C94D004E0
:100050000C94D0040C94D6190C94D0040C94D004B5
:100060000C94D0040C94D0040C94D0040C94D004C0
:100070000C94D0040C94D0040C94D0040C94D004B0
:100080000C94D0040C94D0040C94D0040C94D004A0
:100090000C94D0040C94D0040C94D0040C94D00490
:1000A0000C94D0040C94D0040C94D004B10CCD0C5E
:1000B000D40C0C0D1D0D280D380D4B0D8E0D930D10
:1000C000ED0DED0DED0D9B0D230E2E0E580E80083F
:1000D000B70E000F5C0FAA0FF10FF40FF90FA81065
:1000E0004011AA1104150F15141519151E15231505
:1000F00028152D15321537153C15C215C215FB15DF
:10010000FB155D169817981798177B16EF160017B2
:1001100000171B224222F5234222F5238E22B12210
:10012000F523B223C22397269726AA26AA26A0261D
:10013000AA26AA26AA2697269726A526AA26AA266A
:10014000A526FD377A585A000004E6D6B4460200C8
:10015000210116000000742FE5A3E008C1023E5DF6
:10016000003D8889C65436C3174FE4EF0A3F668DB9
:10017000D105C152178BD346CB52E4EC954BB1233A
:10018000C8125A02224DDD1F698C16D9EF45F6635D
:10019000D31EB962E990A5DEAFF6BD5DE5A97C5935
:1001A00078FAA26B0C735128BDCBC80F1011DF5425
:1001B000EC7A78C585B422AF257346DBA3E7CFF68A
:1001C000BCA26DFA873B8D44BD90D32AFFC33E7419
:1001D0001636CCA02CE50C6D60F1267D543C6634BF
:1001E000873A0183364BF5DCB4A11C9FF200B12C99
:1001F000DA3FDDF57CFC91C96664ABF48D3B32944B
:100200002C22706E35CF06E7F954289FF32FAF48A4
:10021000E8B47E5CFB01E55AB01FADCB6D45E7ADA0
:100220005A08D93CE762C8361DC4E0996926BEDF8A
:1002300020B2CD4C6E39F46F2C699ABA16BCEAD54F
:10024000956971642D72EB2FDA0FF4C86FC92D9D7B
:10025000701896D074696985373D179BEE43976F88
:100260004529FC81C894031A4282AF8A28568855D2
:10027000C075CF441AC661563DC489E6E2B114CDBB
:100280002073FAF993C0D7BEB728B3F0868E21E861
:100290004C687327DBFC28B81EBB74299D78B860B6
:1002A0006D3B6AADE35541B7548877F09EA3329F0A
:1002B000102995CF82A4829649D25BD65439809D6D
:1002C000426C65491AE14DAC2B4C9CCB7CAA277340
:1002D0005A3792281A1049FDB3BD1FD0943262E5F7
:1002E000B9454AEF53AD2E6E67991ED69A3A441916
:1002F000FBE8921D83FB12317F6E67B78EAA3F1712
:100300002C81E537552EF656913C5ACE8492305FBB
:10031000C3B74656AFB3FC718447F4CC104C01D43C
:100320008368C4CF8777944F468DDD8950A9D23733
:10033000392940A6D8E0CF1C41E35E00CA7B8A9DE4
:1003400059710C72544F4719AC0464E914E02575D7
:10035000C2D8EFC5E304A31C7499381875A5D41846
:10036000FD6F4CB6C745F100E910CBC248832B7432
:1003700013608E47371979BED8A5FF1A5BADA85018
:10038000AEDF064DD9BC4A5FF794ACBEC53FA14174
:10039000850D3FB3EFF036ADF1661F3A49BC4C0016
:1003A00000005A861A49501E6BF50001DA04C2118A
:1003B00000009EA2D044B1C467FB0200000000040C
:1003C000595A0000000001000D0002000100030066
:1003D00002000400030005000400110005001200E3
:1003E00006001A0007001B0008001C0009001D0081
:1003F0000A001E000B0020000C002E2000AA00A9FD
:10040000004F015001010001000100010001000145
:1004100000010001000100010001000100010001D4
:10042000000100010014001A000800150017001C4C
:100430000018000C00120004611668076409620AC3
:10044000000B000D720E740F781D001B00060019C2
:10045000000500110010003600370001530253015F
:1004600051280034002A002C0002510353000000E0
:100470000000002A00340013003371380004531EBA
:10048000021F022002210222022302240225022648
:10049000022900010001000100010001002D022ECF
:1004A000022F0239003502010001000100010001A4
:1004B0000001003102010001000100010001004CB7
:1004C000000100035101000000000000004C000189
:1004D0000027023002340201001E001F002000210C
:1004E0000022002300240025002600500051005265
:1004F000004F002B0001002D002E002F00E00035E2
:1005000000E300E200815F845F825F835F3100016E
:100510000001000351010001000100010001000180
:10052000000000000000000100010027003000343E
:10053000000100C25CC45CC35C010010503A003B87
:10054000003C003D00CB5CC55CC75CC95C01003F62
:1005500000400041004200CC5CC65CC85CCA5C0143
:1005600000440045000100010001000100010001FC
:100570000001000100010001000100000000000076
:1005800000010001003E004300005C010001000189
:100590000001000100010001000100010001000153
:1005A0000001000100010001000100010001000143
:1005B0000001000100010001000100010001000133
:1005C0000001000100010001000100010001000123
:1005D0000001000100000000000000010001000116
:1005E0000001000100010005010980A10185031936
:1005F000012AB700150126B700950175108100C0CA
:10060000050C0901A101850419012AA00215012682
:10061000A002950175108100C00660FF0961A1016B
:100620000962150026FF00952075088102096315EF
:100630000026FF00952075089102C005010906A15A
:1006400001050719E029E7150025019508750181C5
:10065000029501750881010507190029FF1500267B
:10066000FF00950675088100050819012905950503
:1006700075019102950175039101C009025B0003A8
:100680000100A0FA09040000010301010009211181
:100690000100012240000705810308000A09040146
:1006A00000020300000009211101000122220007BD
:1006B000058203200001070503032000010904024D
:1006C000000103000000092111010001223200078E
:1006D00005840320000A1201000200000008FEFE4B
:1006E00051580100010203011C03760069006100FA
:1006F0006C003A006600360034006300320062008D
:100700003300630000003A03730061006400650079
:100710006B006200610072006F0075006400690088
:1007200020006200610072006F0062006F007200C2
:1007300064005F00620079006F006D006300750067
:1007400000001A0373006100640065006B00620022
:10075000610072006F00750064006900000004030E
:10076000090400000000000000000000000000007C
:100770000000000000000000000000000000000079
:100780000000000000007E0F00D4FFFFFFC7000044
:10079000007800000000000000002A2B2800000064
:1007A0000000000000000000000000000029000020
:1007B00000002C1E3420212224342627252E362DFD
:1007C0003738271E1F202122232425263333362E97
:1007D00037381F0405060708090A0B0C0D0E0F1009
:1007E0001112131415161718191A1B1C1D2F31304E
:1007F000232D350405060708090A0B0C0D0E0F10F2
:100800001112131415161718191A1B1C1D2F31302D
:10081000354C000101010101010101010202020246
:10082000020202020203030303030303030404049A
:100830000404040405050505050606060606070763
:1008400007070708080808090909090A0A0A0B0B1B
:100850000B0C0C0C0D0D0D0E0E0E0F0F0F101011BA
:100860001111121213131414151516161717181840
:1008700019191A1A1B1B1C1D1D1E1E1F20202122A8
:1008800022232424252626272829292A2B2C2D2DEE
:100890002E2F30313232333435363738393A3B3C0B
:1008A0003D3E3F404142434445464748494A4C4DFE
:1008B0004E4F50515354555658595A5B5D5E5F61C7
:1008C0006264656668696B6C6D6F7072737577785A
:1008D0007A7B7D7E8082838587888A8C8E8F9193B8
:1008E0009596989A9C9EA0A2A3A5A7A9ABADAFB1DF
:1008F000B3B5B7BABCBEC0C2C4C6C9CBCDCFD1D4C4
:10090000D6D8DBDDDFE2E4E7E9EBEEF0F3F5F8FA69
:10091000FDFF11241FBECFEFDAE0DEBFCDBF04B66E
:1009200003FE27C08091810590918205A0918305E7
:10093000B09184058730904BA740B04BD1F4109212
:10094000810510928205109283051092840514BED1
:1009500084B7877F84BF0FB6F894A8958091600014
:10096000886180936000109260000FBEE0E0F8E3C1
:10097000099512E0A0E0B1E0EEE4FCE602C00590CB
:100980000D92A233B107D9F725E0A2E3B2E001C08E
:100990001D92A138B207E1F70E94D2040C942536CB
:1009A0000C940000CF93DF93CDB7DEB7E5970FB679
:1009B000F894DEBF0FBECDBF84B7877F84BF0FB66C
:1009C000F894A895809160008861809360001092EF
:1009D00060000FBE90E080E80FB6F894809361004D
:1009E000909361000FBE85B7806885BF85B780682A
:1009F00085BF85EC9AE290933302809332020E9485
:100A0000701E0E9457240E9476248091E200846028
:100A10008093E2007894809104058823A1F01091DE
:100A2000E9001F709091EC00892F817090FD80E8A3
:100A3000182B1092E9008091E80083FD0E94352177
:100A40001F701093E90082E084BD93E095BD9AEF9A
:100A500097BD80936E000E944A1F811102C00E94C0
:100A60003B1F02E211E077E2E72E71E0F72ED8019A
:100A70008D918D018F3F11F00E940A2BE016F10637
:100A8000B1F707E211E0F80181918F018F3F11F07A
:100A90000E940A2BF1E000331F07A9F7E6E3F2E01A
:100AA00080E492E0A6E5B3E0119211921D921D92AE
:100AB0008E179F07C9F70E94CE2D811102C00E9498
:100AC000D92D82E090E00E9416358093CF020E94DB
:100AD000BD2D90933502809334020E94212B8FE329
:100AE0009CE90197F1F700C000000E94212B809142
:100AF000560380FF08C06FEF7FEF80E090E00E9418
:100B000052350E94B21983E090E00E9416350E948F
:100B1000FB2810929F02E8EBF2E088EC92E02FEFC6
:100B20003FEF219331938E179F07D9F7109241021F
:100B3000EAE5F2E08FEF9FEF81939193A2E0EA362E
:100B4000FA07D1F70E94CE2D811104C00E94D92D41
:100B50000E94102046E050E06CE170E089E095E0F2
:100B60000E940635809109058C7F11F40E941020A7
:100B70004EEC842E42E0942E40E451E022E431E039
:100B80006CEC662E62E0762E61E070E086149704CD
:100B900009F44EC0F901A1919F018A2F82958F70AF
:100BA00090E0FC01F1A0AF70DA2E8B0101C0000FC4
:100BB000AA95EAF7F02FF095FF22DC019196FC92BE
:100BC00091979296AC91A02BFC01A2A3DA01ED9033
:100BD000AD01EE2DE295EF70F0E0F1A0BE2DBF70FB
:100BE000EB2E5B0101C0AA0CBA95EAF7CA2CC0949F
:100BF000FC20F1A2F2A0FA28F2A2DC0190968C91DE
:100C000090E002C095958795DA94E2F78170E0A1B3
:100C1000F0E002C0F595E795EA94E2F7E0FF02C044
:100C200092E001C090E0892BF30181933F01AECFA8
:100C30001092400284E091E09093E3048093E204F8
:100C400080910405853009F048C030E4F32E00E1BE
:100C500012E180910405853009F03BC080910405C4
:100C6000843019F11092E60428E130E00FB6F894D0
:100C7000A895209360000FBEF092600083B7817F3B
:100C8000846083BF83B7816083BF7894889583B77E
:100C90008E7F83BF0FB6F894A8958091600088611D
:100CA00080936000109260000FBE8091FA04882348
:100CB00009F4CFCF0E94212BE6E5F3E081919191D9
:100CC000892B09F090C760E673E06E177F07B1F7D4
:100CD000C0CF0E94FF280E94001B0E94212B81117F
:100CE0000E940B1AA0EDB2E0E6E5F3E0C12CD12C96
:100CF0000C2DA190B1908D919D918A259B250097F7
:100D000009F450C110E0EE24E394F12C9C012E2153
:100D10003F21232B09F440C11BA70CA7AE20BF2005
:100D200081E0A114B10409F480E08DA70E94171A94
:100D30008160782F9FA78EA74BA55CA56DA58FA579
:100D40000E949830F601EE0FFF1FE053FD4F8081A7
:100D50009181E826F926F182E082AB2849F0AE01C4
:100D60004F5F5F4F612F802F0E94F61F982E01C0AA
:100D7000912CE92CF12C80914102D701A80FB11DD3
:100D800019976CF188E090E05C01AE18BF08B701DC
:100D90006E5B7D4FA50182E492E00E941536B7019B
:100DA000665B7D4FA5018AE492E00E941536A5019D
:100DB000440F551FB701660F771F665A7D4F8AE5AE
:100DC00092E00E941536B7016E5A7D4FA50182E56B
:100DD00092E00E94153688E0891980934102F090D4
:100DE0004102FE0131965F0160E0862F8F0D96165D
:100DF00049F190E0D5017D915D01272F30E0DC01C4
:100E0000AF5BBD4FA901440F551F4D5A5E4FFA010C
:100E100045A511964C931197220F331F2F573E4F24
:100E2000F901208119962C93199751967C93880F7C
:100E3000991FDC01AF5BBD4F5A961C921E925997C9
:100E40006F5FD3CF80934102809109058C7F8832F8
:100E500009F0C0C0AFEFA00FFF24F394F00E3FEFF6
:100E6000310F21E0210F311780F489E08C9DF001D2
:100E70008D9DF00D1124EE58FD4FE30FF11D4081C3
:100E800050E1450F08F44FEF4083412F50E079E0E7
:100E90007C9DC0017D9D900D11248E589D4FFC01BD
:100EA000E40FF51F7081B0E26B2F760F08F47FEF2F
:100EB0007083293051F0FC01E20FF11D708180E157
:100EC000682F760F08F47FEF708375E0F71609F44A
:100ED00031C0EF2CF12C311788F489E08E9DF001A0
:100EE0008F9DF00D1124EE58FD4FE30FF11D808111
:100EF0009DE0BC01670F08F46FEF6083E9E0EE9DB1
:100F0000C001EF9D900D11248E589D4FFC01E40F00
:100F1000F51F608170E1670F08F46FEF608329307F
:100F200049F0FC01E20FF11D60817DE0670F08F4DC
:100F30006FEF6083A01708F04DC0B0E0311780F468
:100F400089E08A9FF0018B9FF00D1124EE58FD4F30
:100F5000E30FF11D30816DE0360F08F43FEF308371
:100F600089E08A9FF0018B9FF00D1124EE58FD4F10
:100F7000DF01A40FB51F3C9140E1340F08F43FEFAF
:100F80003C93293039F1E20FF11D20813DE0230F20
:100F900008F42FEF20831EC01F5FEE0CFF1C1930DA
:100FA00009F0B4CE8FEFC81AD80A95E0C916D1045B
:100FB00009F09ECE8FEF88AB89AB1AAA0E94171A50
:100FC0008160782F9CAB8BAB48A959A96AA98CA9E1
:100FD0000E94983080916A0290916B02A0916C02FD
:100FE000B0916D022FB7F894C090E704D090E80458
:100FF000E090E904F090EA042FBFC81AD90AEA0A7F
:10100000FB0A0E940B1A60936A0270936B02809332
:101010006C0290936D02A0914102E1E4F2E02A2F6C
:1010200030E088248A94982CA12CB12C8C189D082F
:10103000AE08BF08A31799F0418D528D2A01612C8B
:10104000712C84149504A604B70410F4215004C034
:101050004C0D5D1D528F418F3F5F3296EBCF209339
:10106000410230910905232F237021F0B32EB6944D
:10107000B69401C0B12C209111012130E9F038F073
:10108000223009F474C0233009F47AC09DC0109254
:1010900014016093050570930605809307059093EE
:1010A000080589E2E1E4F2E0AFE9B2E001900D92D7
:1010B0008A95E1F781E058C090910F01B9120DC0F7
:1010C000832F837090E040910E0150E021E084175F
:1010D000950709F420E0822F01C081E081708093A0
:1010E000160180910E0590911501981709F49BC582
:1010F0008093150140E060E080E00E94F21F93C5FC
:10110000F0901401FF0CFF0CFF0CF8E0EF2EEF0C39
:10111000A8E2AE1510F4E8E2EE2EC0900B05A09008
:101120000C0520910D0570E4D72E1D2D129F112D59
:101130001124D12EFE1408F4F7C581E027E22E1504
:1011400010F40C94D511909114019F5F90931401A9
:1011500081113AC082E080931101809116018111C2
:1011600033C0B11031C083E0809311012DC0B09223
:101170000F01832F837080930E010E946219F3CFB9
:101180008091650381110E940820109265034091AF
:1011900005055091060560910705709108052FB768
:1011A000F8948091E7049091E804A091E904B0914B
:1011B000EA042FBF841B950BA60BB70B4097A10524
:1011C000B10510F0109211018AECE82E82E0F82EA1
:1011D00008EC12E09CEC692E92E0792E20E4C22EFD
:1011E00021E0D22E32E4832E31E0932E5301212CC4
:1011F000312C42E0442E512CF50181915F01E82F02
:10120000EE0FEE0FD4012D914D01A22FA295AF70DC
:10121000B0E090968C9190E02F7002C095958795E4
:101220002A95E2F79C0121703327D6018D916D013B
:10123000A82FA295AF70B0E090964C9150E08F70BF
:1012400002C0559547958A95E2F7CA0181709927A2
:1012500040FF02C082E090E0822B932B8E2BF301A3
:1012600081933F018F70E82FF0E0E05DFE4F9081A9
:10127000D7018C91890F8C93823054F0F8018081D2
:101280008F5F808360E0832D0E94C91E21E001C032
:1012900020E0D7018C918F3F4CF4F8018081815080
:1012A000808361E0832D0E94C91E21E0D7018C91CB
:1012B000082E000C990BB2010E94E735F7018193CB
:1012C0007F01222A33940F5F1F4FF2E03F1294CF29
:1012D00021100E940B1A0E94001B9091CE028917C8
:1012E00021F00E94001B8093CE028091040584307F
:1012F00009F0A6CC83E08093E9008091E80082FFAA
:101300009FCC8091E80085FF23C00E94AC2581110D
:101310001DC000E2E02EF12C8E010F5F1F4F09C0AF
:101320008091F100D8018D938D01B1E0EB1AF108A5
:1013300069F08091E80085FDF3CF8091E8008B771C
:101340008093E8000E94AC25882399F391E001C0C6
:1013500090E08091E8008B778093E800992309F46E
:101360006FCCE0903304F09034048981E114F104EF
:1013700059F08E3F09F031C49A819330A8F195500D
:10138000933008F02AC430C08B3009F4C7C248F546
:10139000853009F47EC0B8F4823009F442C030F4DC
:1013A000813009F018C41A8289E0B6C3833009F489
:1013B00061C0843009F00FC44C816B818A810E9426
:1013C000261E9D832EC4873009F471C008F46CC0BA
:1013D000883009F4E2C0893009F0FDC30E9408207A
:1013E000FCC3803109F4DCC18E010F5F1F4F8131D6
:1013F00060F48D3009F476C108F472C18E3009F4BE
:1014000075C18F3009F49DC1E6C3823109F4CDC1A5
:1014100008F4C9C1833109F4F2C18E3F09F495C2C1
:10142000DAC38A81823009F4F5C3833051F0813008
:1014300009F0D1C30E940B1A9B838C837D836E833A
:10144000CCC380912F0490913004892B09F4C5C33B
:10145000FE013196CE010B96A6E5B3E02C911196D4
:101460003C91119712963283238332968E179F07F1
:10147000A9F7B3C38A81823009F0ADC36B817C8147
:101480008D819E810E94013686E290E00E94343573
:10149000A4C32D813E813227232732274C816B81C3
:1014A0008A810E94521D99C30E94881D96C38A8119
:1014B000813421F0823409F43AC08FC34B815C81BE
:1014C00080910905982F93704115510539F49111B8
:1014D000109211018C7F809309051EC0911102C0EA
:1014E000109211018C7F81608093090522EC33E01A
:1014F000F901329685919491F9016591749146179D
:10150000570739F02C5F3F4FE3E02A3F3E0781F752
:1015100080E060E00E94C41F8D8180930D058E8164
:1015200020E048856F8190E00E94691F56C34B817F
:101530005C818D81F3E08F9F900111242E31310564
:101540000CF04BC3DE011196FA01EE0FFF1FE40F02
:10155000F51FE252FD4F20E030E090E028173907F8
:1015600008F03BC31396BA01620F731F683271050E
:1015700008F033C312966C911297608313966C91A6
:101580001397618314966C9114976D3308F06CE394
:1015900062832F5F3F4F3396E1CF8A81823409F413
:1015A00042C028F4803451F0813471F016C3833482
:1015B00009F459C0843409F459C00FC381E08B8306
:1015C0001C828CE38D8309C380910905982F937049
:1015D000B1F08695869590E022EC33E06AEF73E0F7
:1015E000F9013296A591B491F901459154918A1768
:1015F0009B0741F02C5F3F4F6217730789F790E01C
:1016000080E002C0942F852F9B838C8380910D05F1
:101610008D8380910A058E8380910B058F83809145
:101620000C058887DAC20B811C814EE150E06FEF18
:1016300070E0CE0103960E941E3682EC93E0DE013C
:1016400013962EE1FC01459154910417150728F4D7
:10165000223018F04D935D932250049633E08A3F78
:10166000930781F7BAC288E28B839CC18B8190E09B
:10167000883291050CF0B1C2FC01EE0FFF1FED5A4C
:10168000FE4F25A52B83FC01EE0FFF1FEF57FE4FEA
:1016900020812C83FC01E053FE4F20812D832FEF0E
:1016A0002F832E8363E571E040E050E020E030E0DE
:1016B000FB01E20FF31FE081F0E08E179F0719F4A2
:1016C0004E832F838AC22F5F3F4F2930310581F728
:1016D0004F5F5F4F675F7F4F4530510539F77DC2E0
:1016E00080E136C281E08A838FE916C2EA80FB80FE
:1016F000FE24EF24FE24AC80B12C4DE1A416B104ED
:1017000008F06BC26801C7018F599D4F9601201BDD
:10171000310B2A153B0508F060C26FE9E61661E05F
:10172000F60630F40E941635D60114968C9302C04A
:10173000F6011482FFEFEF1AFF0A2FEFC21AD20A46
:10174000E2CF80912F0490913004892B09F445C297
:10175000EA80FB80FE24EF24FE24CC80D12C3DE1E6
:10176000C316D10408F039C25801C7018F599D4FE3
:101770009501201B310B2C153D0508F02EC24FE9B9
:10178000E41641E0F40628F4D50114966C910E9409
:101790003435BFEFEB1AFB0AEFEFAE1ABE0AE5CF06
:1017A0000E94DA1C1AC285E0D3C1EA80FB80FE24C5
:1017B000EF24FE24AC80B12CFDE1AF16B10408F09B
:1017C0000CC26801C70187969601201B310B2A15B0
:1017D0003B0508F002C222ECE21621E0F20630F4EA
:1017E0000E941635D60114968C9302C0F60114821D
:1017F000FFEFEF1AFF0A2FEFC21AD20AE3CFEA80F7
:10180000FB80FE24EF24FE24AC80B12C3DE1A31626
:10181000B10408F0E2C142ECE41641E0F40608F03D
:10182000DCC182EC91E08E199F098A159B0508F4B2
:10183000D4C1370167E2660E711C80912F0490912C
:101840003004892B11F0680160C0E0FE0FC0C701B1
:1018500086960E94163590E0982F88272D81822B3E
:1018600081159C4531F48FEF8D8303C0C12CD12CA1
:1018700003C0CC24C394D12CC7018A0D9B1D450104
:1018800080FF1BC081E0881A910855E0452E512C3D
:101890004C0E5D1E480C591CC3018A0D9B1D0E94F5
:1018A0001635D2012C9130E0322F2227282B21151A
:1018B0003C4519F48FEFF2018083F801EC0DFD1D1A
:1018C0002FEFCF01801B910B8815990508F0BBCF36
:1018D000848190E0982F88273581832B81159C4542
:1018E00011F4248325833296ECCF42ECE41641E0D8
:1018F000F40628F4D60114966C910E943435BFEF9B
:10190000EB1AFB0AEFEFCE1ADE0AC70187969601A3
:10191000201B310B2A153B0540F35FC180912F043A
:1019200090913004892B09F458C1CE0101960E9490
:101930000B26FFEF11EE24E0F15010402040E1F7BC
:1019400000C000000E94B21948C1EA818E2F90E0C9
:101950008E30910508F041C1FC01EA5AFF4F0C940A
:10196000FB3588E0E7E1F1E0DE01919601900D9210
:101970008A95E1F780E2D8011D928A95E9F784E023
:10198000898388E0FE01B196DE01159601900D92E3
:101990008A95E1F781E08D8720C180E8898382E024
:1019A0008A831B821C8219C18C8190E0982F882722
:1019B0002B81820F911D092E000CAA0BBB0B35E069
:1019C000880F991FAA1FBB1F3A95D1F7AC01BD0123
:1019D000405E5F4F6F4F7F4F481759076A077B077D
:1019E00008F4FBC08038E2E09E07A105B10508F0CD
:1019F000F4C04138F2E05F076105710520F040E86E
:101A000052E060E070E0481B590BBC016E5B7E4FFA
:101A1000C8010E94FD34E1C01B810C8140E0602FB1
:101A2000812F0E94221D99838A8341E0602F812F9C
:101A30000E94221D9B838C83D0C02E813F81322740
:101A4000232732274D816C818B810E94EA1CC5C0FF
:101A500040E250E06FEF70E0C8010E941E368091B6
:101A60002F048983EA821B821C821D8281E0D9C0F7
:101A700081E090E0909334048093330482E390E01B
:101A80009093DD028093DC020E94171A9093DB0290
:101A90008093DA02A2C0EF28B9F1809156039091A9
:101AA00057039C01369527958170182F122380913A
:101AB000DA029091DB020E94FC1985369105F0F064
:101AC0001123E1F00E94171A9093DB028093DA024F
:101AD0008091DC029091DD0201979093DD0280936A
:101AE000DC02892B89F4109234041092330481E0D3
:101AF00090E09093300480932F0406C082E390E03E
:101B00009093DD028093DC0280912F048983809181
:101B100033048A838091DC028B835FC0109230048F
:101B200010922F045AC040E250E06FEF70E0C801FD
:101B30000E941E3652C08B81833061F0843061F187
:101B400081114BC080E2D8011D928A95E9F788E0A7
:101B50008A8343C06C81CE0181962AE0FC011192F8
:101B60002A95E9F7683060F4FAE06F9FB00111241C
:101B70006F5E7D4F4AE050E00E94063580E001C074
:101B80008FEF89838AE0FE01B196DE011296019003
:101B90000D928A95E1F721C06C818AE0FE013596AD
:101BA000DE01919601900D928A95E1F7683070F40C
:101BB0001AE0619FB00111246F5E7D4F4AE050E052
:101BC000CE0181960E94583580E001C08FEF898355
:101BD0000E94701E02C08FEF8983CE0101960E9481
:101BE0000B260C94200609BD19BD09B400FEFDCFDB
:101BF0008091D8008F7D8093D8008091E000826032
:101C00008093E0008091E00081FDFCCF0E94FF28DE
:101C10000C94290686E290E00E9416351B821C82F5
:101C20001D828E83DACF8B2D90E08E30910530F0BF
:101C3000809114018F5F809314018CCAFC01EC59D0
:101C4000FF4F0C94FB3580911601882309F4ADC336
:101C500040E060E080E00E94F21FA7C310911401F1
:101C6000110F110F110F08E0010F093208F008E2FF
:101C700060910A0570910B0580910C050E9411344A
:101C8000F62EE72ED82E101708F0A6C1E12FF0E0AF
:101C9000DF01A053BE4F8C9190911501982331F034
:101CA0002D2D4F2D6E2DCF010E94F41F1F5FEBCF06
:101CB00010911401110F110F110F08E0010F0932DB
:101CC00008F008E2E0900B05F0900C05D0900A05B2
:101CD0006D2D7E2D8F2D0E941134C62EA72E982E8D
:101CE00060910D056D0D7E2D8F2D0E941134F62E05
:101CF000E72ED82E101708F06FC1812F90E0FC015D
:101D0000E053FE4F308120911501232359F030FF1D
:101D100004C02D2D4F2D6E2D03C0292D4C2D6A2D65
:101D20000E94F41F1F5FE6CF0F2D10E0F801E05373
:101D3000FE4F9081809115018923B9F0F801EE0FD3
:101D4000FF1FEF57FE4F808182958F7060910A05CB
:101D50008D9D600D11247C2D8A2D0E941134462FFB
:101D6000282F672FC8010E94F41FF394E3C9F09055
:101D70001401FF0CFF0CFF0C58E0E52EEF0C38E2CD
:101D80003E1510F448E2E42EC0900B05A0900C051F
:101D900020910D0530E4D32E4D2D429F412D11246D
:101DA000D42EFE1438F50F2D10E0F801E053FE4F4D
:101DB0009081809115018923D9F0F801EE0FFF1F62
:101DC000ED5AFE4F65A5D69EB001112495E075959C
:101DD00067959A95E1F780910A05680F7C2D8A2D09
:101DE0000E941134462F282F672FC8010E94F41F2C
:101DF000F394D7CF81E067E26E1508F0A4C9D5C28D
:101E0000F0901401FF0CFF0CFF0C08E0E02EEF0C2B
:101E100078E27E1510F418E2E12E60910D056695CA
:101E200080910505909106050E940734D82EFE1476
:101E300008F0B5C20F2D10E0F801E053FE4F90817D
:101E4000809115018923B1F1F801EE0FFF1FED5AC2
:101E5000FE4F45A550E044565109F801EE0FFF1F13
:101E6000EF57FE4F208130E020523109449FB001EE
:101E7000459F700D700D1124229FC001239F900D6E
:101E8000900D1124860F971F0E94AD3390910B0582
:101E9000A3E08A9FB0011124759567956D0D792F88
:101EA00080910C050E941134462F282F672FC801FE
:101EB0000E94F41FF394BBCF10911401110F110F66
:101EC000110F68E0D62ED10EE8E2ED1510F458E2BD
:101ED000D52E60910D0566958091050590910605BA
:101EE0000E940734C82E1D1578F5E12EF12CF7015C
:101EF000E053FE4F908180911501892319F1F7017C
:101F0000EE0FFF1FEF57FE4F208130E020523109C6
:101F1000F701EE0FFF1FED5AFE4F45A550E0445666
:101F2000510960910A0570910B0580910C050C2DEB
:101F30000E94DE330E941134462F282F672FC701DD
:101F40000E94F41F1F5FCFCF81E0F7E2FD1508F07C
:101F5000FAC82BC210911401110F110F110F08E0D4
:101F6000010F093208F008E2E0900B05F0900C0533
:101F7000D0900A0560910D056695669566958091ED
:101F80000505909106050E9407340E946833805829
:101F900087FD8195880F682F2CE0629F612D1124A9
:101FA0006D0D7E2D8F2D0E941134F62EE72ED82E2A
:101FB000101790F4E12FF0E0DF01A053BE4F8C9199
:101FC00090911501982331F02D2D4F2D6E2DCF01BD
:101FD0000E94F41F1F5FECCF81E0083208F4B3C801
:101FE000E4C189E893E302C081E593E30E94E8201D
:101FF000AAC800911401000F000F000F18E0100F85
:102000001DAB1E3210F01DE21DAB8091160188231E
:1020100061F040E060E080E00E94F21F8DE2E2E7C4
:10202000F2E0DF011D928A95E9F780911401811198
:1020300015C080916F02909170020E94FC1921E0FE
:102040008931910508F420E020936E02499730F021
:102050000E94171A9093700280936F0210E0BDA93E
:102060002B2E312CFE0131964F018AEA782E021573
:1020700013050CF066C0C80165E070E00E94E7350A
:102080002B016C0129E0289FF001299FF00D1124FC
:10209000EE58FD4FE60FF71FA080A4010E94F61F27
:1020A000682E74018E2D8819861508F032C0D7016C
:1020B000EC91F0E0E053FE4F90818091150189236F
:1020C00021F13A2D25E5321B08F430E070910B0523
:1020D000272D4A2D240F08F42FEF40910C0562E0C4
:1020E000269F200D11242E5F249F212D1124672D62
:1020F000631B822F0E941134462FD7019C91282FF9
:10210000672F892F90E00E94F41FBFEFEB1AFB0AA4
:10211000C9CF80916E02882389F02A2D31E0231BDC
:1021200008F420E049E04C9DC0014D9D900D112424
:102130008E589D4FFC01E40DF51D20830F5F1F4F4E
:1021400096CF81E01DA91D3210F40C94A3082DC177
:1021500080911601882371F040E060E080E00E94E9
:10216000F21F8DE2E2E7F2E0DF011D928A95E9F7C6
:1021700010927102B2E7EB2EB2E0FB2E912C882474
:102180008A9410EC712E0FE2C02ED12C8701A12C65
:10219000A1100CC080917102811108C00E94ED3421
:1021A000853595401CF4F701808206C0D8018C91DA
:1021B00081508E3F08F48C93AE014F5F5F4F692DC5
:1021C0008A2D0E94F61F882311F1F8014081398180
:1021D000413D70F050E0405D5109749EC001759E14
:1021E000900D1124B6010E94D335262F4FEF0BC05E
:1021F000FFEF4F9FC001112460ED70E00E94D335C6
:10220000462F20E060E0832F90E00E94F41FA3940B
:10221000075F1F4F25E0A212BBCF93943FEFE31A55
:10222000F30A49E09412B2CF809171028F5F8D3131
:1022300018F480937102B9C0109271022DE832E057
:1022400084E04EEFA2E7B2E0F90199E0843041F476
:1022500094965C9194975F3F19F494964C9394975D
:1022600050815F3F11F44083518791503196119610
:102270009111ECCF8150295031098111E3CF95C0E4
:10228000D0901401DD0CDD0CDD0CA8E0CA2ECD0CC5
:1022900068E26C1510F4F8E2CF2E20910D0531E0C4
:1022A000230F08F42FEF30E040E050E06FEF7FEFB6
:1022B00080E090E00E9470358901AA24A394DC1488
:1022C00008F041C0ED2CF12CF701E053FE4F908156
:1022D000809115018923A9F190919F02915097FD5A
:1022E00015C0292F092E000C330BF901E156FD4FC3
:1022F0008189D812F3CF220F331FF901E156FD4F28
:10230000218D328D2017310748F701C09801609167
:102310000D057A2D670F08F46FEFC9010E9407348D
:10232000AC0160910A0570910B0580910C050E942B
:1023300062330E941134462F282F672FC7010E9455
:10234000F41FD394BCCF81E097E29C1510F00C945D
:10235000A3082BC0F0901401FF0CFF0CFF0C78E0D9
:10236000E72EEF0CA8E2AE1510F468E2E62EFE149C
:10237000B0F40F2D10E0F801EE0FFF1FE00FF11F7A
:10238000E252FD4F6081718182810E941134462F9B
:10239000282F672FC8010E94F41FF394E8CF81E033
:1023A000B7E2BE1510F00C94A30880E00C94A308CB
:1023B0008F929F92AF92BF92CF92DF92EF92FF9255
:1023C0000F931F93CF93DF9300D000D0CDB7DEB72C
:1023D000FC018081918123813481232B31F09F3F47
:1023E00031F491E08F3F19F403C091E001C090E017
:1023F00090FDF7C66F0161E0CF010E9461308C0152
:10240000F6018281882309F49AC0980122513F4540
:102410002031310508F07BC08FEF93E00E94163524
:1024200081117FC03EEEF32EF00E01E612E0FF2098
:1024300071F00115F4E01F0709F473C0C8010E9490
:102440001635811101C0FA940F5F1F4FF0CF19822A
:102450001A821B821C82AA24AA9478012FEFE21A06
:10246000F20AC8010E94163589831A82882309F46A
:1024700058C0813009F046C0480182E0880E911CA6
:10248000C7010E9416358A83882309F44AC09FEF4A
:10249000980F933060F4780193E0E90EF11CC401C9
:1024A0000E9416358B8381112DC08701D6CF8430D1
:1024B00011F07401FACFC4010E941635B82E7801CC
:1024C000E4E0EE0EF11CC80103960E941635BB2015
:1024D00041F1882331F1282F30E021503109A29EAB
:1024E000A001A39E500D11248B2D90E00197840F25
:1024F000951F0197D0F2EFE9FFE03197F1F700C0A7
:102500000000F7CFCE0101960E940630CECF0031F9
:102510009FE5190709F030C581E00E94F0280E946C
:10252000DD2080917705877009F45BC6F601828112
:10253000882309F456C682E00E94C72E52C6003195
:10254000FFE51F0711F481E005C001312FE51207F7
:1025500021F482E00E94E428E2CF9091600391117F
:1025600005C090916303992309F4B7C098013056D0
:10257000211590E2390720F0305E2115304140F4FA
:10258000F6019581907F09F4A8C07801FF2401C06D
:102590007801970130542115354108F49EC090917F
:1025A0006303923021F5882369F080917A05982F92
:1025B000927219F06894F1F80FC086FF0DC024E103
:1025C000F22A0AC0C70195558F3F910511F008F016
:1025D000B4C580E00E944E2E81E080936303F092A8
:1025E0006203E09261038FEF809310019ACF8823FA
:1025F00009F4A3C5913009F05FC0809110019CE2FD
:10260000E916F104D9F4882329F00E9421331092AD
:10261000100187CF809161039091620395558F3FA0
:10262000910509F018F40E94432E03C08AE20E942B
:10263000A92A109263030E9447334FC0EAE2EE16C4
:10264000F10421F481508093100126C087FD34C02D
:1026500081110BC0809161039091620395558F3F6A
:10266000910509F010F40E942133809110018F5FD1
:1026700080931001FDE2EF16F10471F040F484E064
:10268000E81AF10894E2E916F10480F405C0EDE2DD
:10269000EE16E2E0FE0651F4F6018281882309F489
:1026A0004CC580917A05811114C065C1F601828103
:1026B000882309F442C50DC09AE2E916F10489F3B2
:1026C00008F080C5F4E0EF1AF10824E2E216F10404
:1026D00040F30E944733109263030138FFE51F0760
:1026E00079F4F60182818823C1F081E08093600350
:1026F0000E94001B81FD11C089E30E94A92A0DC020
:1027000002382FE5120708F0BDC40933110509F09E
:102710003AC4F6018281811139C1F601928199236F
:1027200009F455C1109237040230FCE51F0708F484
:1027300038C106312CE5120738F098012A5F3C4574
:102740002930310508F02DC10E94BD2D909335022E
:102750008093340200318CE5180709F4C3C008F0F7
:1027600041C00830ECE51E0709F49AC0F0F40430CB
:102770002CE5120709F487C068F402309CE51907BC
:1027800009F477C003301C4509F0E5C0809134029C
:10279000826076C00630FCE51F0709F46EC008F0C1
:1027A0007BC08091340288606BC00C308CE51807C8
:1027B00009F485C068F40A30ECE51E0709F474C01A
:1027C00008F079C00E94FF2880913402806858C0C8
:1027D0000E302CE5120709F476C008F07FC0809116
:1027E00034028BC00B3F9CE5190709F44FC018F564
:1027F0000331FCE51F0709F47DC078F401318CE555
:10280000180709F473C002311C4509F0A4C00E94E6
:10281000FF28809134028F7733C00531ECE51E0725
:1028200009F472C008F486C00A3F1C4509F093C041
:10283000809135023EC00F3F8CE5180709F45FC058
:1028400058F40D3FECE51E0709F444C008F43FC0FE
:102850008091350282602DC001302DE5120709F408
:1028600075C008F45DC002301D4509F074C060E019
:102870006EC080913402816003C080913402806117
:102880008093340268C08091340211C08091350277
:102890008260809335025FC0809134028062F0CF05
:1028A000809134028064ECCF80913402886084602F
:1028B000E7CF8160EECF809134028E7FE1CF8091AF
:1028C00034028D7FDDCF80913402877FD9CF809114
:1028D000350218C0809135028D7FDBCF80913402A4
:1028E0008F7ECECF809134028F7DCACF809134020B
:1028F0008F7BC6CF80913402877F8B7FC1CF809141
:1029000035028D7F8E7FC5CF8091340282FB2227D6
:1029100020F991E0922790FB82F990FB83F9B0CFE8
:1029200080913502982F909591708E7F892B90FB26
:1029300081F9AFCF0E94FF288091340287FB2227C4
:1029400020F991E0922790FB87F99ACF61E08EE021
:1029500090E00E943435609134021091350284E099
:1029600090E00E943435612F82E290E00E9434357D
:102970000E94FF28D6CD0138FFE51F0709F4B1CE2C
:1029800008F080C30933110509F0FDC280914002AF
:10299000882319F010924002C0CE81E0809340025B
:1029A000BCCE80917A050631ECE51E0709F58A7ADE
:1029B00091E009F490E090936403882311F065E3BB
:1029C00001C069E282E295E00E94BA1A0EC00631A7
:1029D0001C4509F08BC080916403882309F4F0C37F
:1029E00065E382E295E00E94AD1A0E94692E99CDBE
:1029F0008272F801E25CFC45EB30F10508F043C05F
:102A0000EE58FF4F0C94FB358091090591E0892722
:102A100080930905109211019093650382CD4DEDCD
:102A20005FE167EE7FE12CC047EE5FE16DED7FE196
:102A300027C040EB5FE16AEB7FE122C04AEB5FE138
:102A400060EB7FE11DC046E95FE163EA7FE118C00A
:102A500043EA5FE166E97FE113C04CE75FE169E8C3
:102A60007FE10EC049E85FE16CE77FE109C04EE11C
:102A700059E16AE279E104C04AE259E16EE179E1A3
:102A80000E94631F4ECD992389F10A35EDE51E079B
:102A900041F150F401152CE51207A9F00E3D1C453B
:102AA00029F50E94D92D3DCD0B359DE51907D9F0AB
:102AB0000C351D45D9F48091350282FB882780F9B9
:102AC00091E0892711C00E94FF28FFEF24E38CE0EA
:102AD000F15020408040E1F700C000000E94B21990
:102AE00020CD81E001C080E00E94A62EF601868103
:102AF00097810097B9F4F6018281008111818823C2
:102B000049F0C8010E943F26F82E682FC8010E9494
:102B1000B32804C0C8010E948328F82EB8018F2D65
:102B20000E94541E0E94342CF82E192FF601E280C8
:102B3000058102950F7080917705877099F0EE20DE
:102B400089F0892F807F803421F080E28F0D8830DA
:102B500048F082E00E94C72E809177058770BB24E1
:102B6000B3948111B12CA12EA2948FE0A8228A2DBA
:102B700090E08C30910508F0DBC1FC01E358FF4F79
:102B80000C94FB35812F807F1F70882311F01295E4
:102B9000107FEE20B9F0112309F4ACC180E28F0D53
:102BA000883010F0F11006C090917A05192B10931F
:102BB0007A0505C090917905192B109379050E942B
:102BC000692E98C18F2D0E94B629112309F4B0C136
:102BD00080E28F0D883010F0F11004C0812F0E9428
:102BE000622E06C0109590917905192310937905EE
:102BF0000E94692E9DC1812F807F1F70803211F04D
:102C00001295107FFF2021F0F1E0FF1691F13BC0FB
:102C1000EE20D9F00023A9F0013031F480917D0538
:102C2000812B0E944E2E84C1053059F40E94432E00
:102C300080917405181310937405812F0E94AC299C
:102C400077C180917D05812BF9CF002349F00130B8
:102C500069F480917A05812309F46AC10E94FA2EF1
:102C60000E94432E812F0E94A52962C10530C1F721
:102C70005FC1EE2021F0063008F05AC1DECF0530EA
:102C800008F056C1EFCFEE2019F00023B1F232C1A7
:102C9000002341F329E3F21208C08FEF97EEE3E03F
:102CA00081509040E040E1F73EC1FFE728E381E03A
:102CB000F15020408040E1F736C1812F86958695FE
:102CC000837019F0813061F033C1EE2021F08F2D37
:102CD000912F937002C080E090E00E94EA1A2EC10A
:102CE000EE2021F08F2D912F937002C080E090E0B4
:102CF0000E94D41A23C1812F8370A9F5E1101CC151
:102D00004F2D429546954770440F440F8F2D8F707D
:102D100090E09C01042E01C0220F0A94EAF7F4FE11
:102D200008C08FE090E001C0880F4A95EAF78095CF
:102D300001C080E0169516951370123069F088F482
:102D40009091DE03113019F0822B892302C0922B5F
:102D5000892B0E94FB28F0C0822B9091DE038927EB
:102D6000F8CF822BF6CFEE2019F0812F817001C0B1
:102D70008695882309F4E0C04F2D4295469547700B
:102D8000440F440F8F2D8F7090E09C01042E01C0E2
:102D9000220F0A94EAF7F4FE08C08FE090E001C029
:102DA000880F4A95EAF7809501C080E01695169540
:102DB0001370123059F078F490910F05113019F01A
:102DC000822B892309C0922B892B06C0822B9091DC
:102DD0000F05892701C0822B0E94E028ADC01F701B
:102DE000EE2039F0812F0E94F0288F2D0E94AC290F
:102DF000A3C08F2D0E94A529812F0E94E4289CC08A
:102E000092EFF91659F19F1538F0E0EFFE1659F0E0
:102E1000F1EFFF16E1F069C023EFF21631F184EF14
:102E2000F81681F162C0EE2071F0053008F080C024
:102E30001F7181E090E001C0880F1A95EAF7909128
:102E40000F0589271CC0063008F072C0F1CFEE20B4
:102E500039F0812F8F710E94F0286AC0EE20C9F3EB
:102E6000812F8F710E94E42863C0EE2039F01F711A
:102E700081E001C0880F1A95EAF701C080E00E9446
:102E8000E02856C0EE20D1F0809174050E94622E99
:102E9000809177058770843039F40E94C02E812F8D
:102EA0008F710E94E42866C0053008F063C01F716E
:102EB000812F0E94F02863E0812F10C090917A0545
:102EC00080917405892B80937A05053050F00E941B
:102ED000C02E0E94FA2E64E0812F8F710E94E42E92
:102EE00049C081E00E94C72E45C0EE2039F0002382
:102EF00009F4AFCF8F2D0E940D2A1AC0002309F4C8
:102F0000AFCF99E3F91208C0EFEFF7EE23E0E150FD
:102F1000F0402040E1F707C08FE798E3E1E08150FF
:102F20009040E040E1F700C000008F2D0E94B629DC
:102F300088EF8A0D843010F40E94001BBB20A9F09A
:102F40008091770580FD11C0F601128285958595E7
:102F500085950E94F028C6010E94D81180917705BE
:102F60008595859585950E94E42860E0C6010E94BC
:102F7000613037C1B12CE0CF0131EFE51E0709F018
:102F8000ECCA82E0CACA00388FE5180709F086C08B
:102F9000F6018281882309F4C0CB9AEFA92E93E031
:102FA000B92E2AE0922EF5018491882309F45AC0A3
:102FB000813009F04FC07501FFEFEF1AFF0AF701EA
:102FC0008491813049F47501F2E0EF0EF11CF701B4
:102FD00084910E94A92A41C0823049F47501F2E02F
:102FE000EF0EF11CF70184910E940D2A36C0833048
:102FF00049F47501F2E0EF0EF11CF70184910E9493
:10300000B6292BC0843049F57501F2E0EF0EF11CB2
:10301000F701249180E090E030E0205331092A301C
:10302000310570F4989EA001999E500D1124C9019C
:10303000840F951FFFEFEF1AFF0AF7012491ECCFE1
:10304000009759F0EFE9FFE03197F1F700C0000079
:103050000197F6CF0E94A02F75015701FFEFAF1A1D
:10306000BF0AA1CF80917D0581FD57CB0E94171A21
:1030700090937C0580937B0580917D058260809391
:103080007D054BCB03389FE5190709F460C008F4B0
:103090006BC00438FFE51F0709F476C0033F2CE539
:1030A0001207A1F406E221EE40EE63EF7CE50AC0D0
:1030B000073DFCE51F0709F030CB06E221EE41EEAB
:1030C00067ED7CE5C6010E94671C2BCA043F8CE5B6
:1030D0001807A0F4083D9CE5190731F407E225EE36
:1030E00045EE68ED7CE5EECF093DECE51E0701F706
:1030F00008E221E045EE69ED7CE5E4CF053F2CE5F3
:10310000120731F406E221EE42EE65EF7CE5DACFFC
:10311000053F8CE5180730F407E225EE44EE64EF36
:103120007CE5D0CF063F9CE5190709F0F6CA07E217
:1031300025EE46EE66EF7CE5C5CF01382FE5120798
:1031400009F4CFCA98F10338EFE51E0749F4F601F8
:103150008281882309F4E1CA82E0809363033EC040
:103160000338FFE51F0758F4F6018281882309F42C
:10317000D4CA81E0809363038DE290E00FC00438ED
:103180002FE5120709F08ACFF6018281882309F41E
:10319000C4CA81E0809363038DE292E0909362035E
:1031A000809361038FEF8093100118C009331105DC
:1031B00009F4B3CA00389FE5190709F4E9CE6ECFC8
:1031C00069E20FCC8DE2E816F10409F46ACA9DE2C7
:1031D000E91692E0F90609F07CCA63CAF601928109
:1031E000A1CA0F900F900F900F90DF91CF911F9178
:1031F0000F91FF90EF90DF90CF90BF90AF909F9096
:103200008F90089508958091F0040895E6E6F3E024
:1032100093E0EE3DF90729F0818360834283339682
:10322000F7CF0895FC01EE0FFF1F8E0F9F1FFC01CB
:10323000EA59FC4F6183408322830895E9E0F5E079
:10324000248130E1231B08F420E0248381E0809373
:1032500065030895E9E0F5E0248130E1230F08F4E7
:103260002FEF248381E0809365030895CF93DF934C
:1032700021E02093E9002FEF3091E800215035FD47
:1032800006C035ED3A95F1F700002111F5CF2091F8
:10329000E80025FF14C0EC0140E050E068E070E079
:1032A0000E94DF258091E8008E778093E80088E017
:1032B000FE01A1EFB4E001900D928A95E1F7DF9154
:1032C000CF910895539A8BB1877F9BB198602FB7A8
:1032D000F894E6E6F3E033E0EE3DF30789F0319150
:1032E00048E09BB9000000C037FF8BB9330F0000E6
:1032F00000C000C000C08BB900C04A9591F7EBCF69
:103300002FBF8FE594E00197F1F700C0000008950A
:1033100090910405943029F58093EB047093ED04AB
:103320006093EC049093E9008FEF9091E800815056
:1033300095FD06C095ED9A95F1F700008111F5CF46
:103340008091E80085FF0DC040E050E063E070E050
:103350008BEE94E00E94DF258091E8008E778093C9
:10336000E800089581E08093E00080E28093D80037
:103370001092C9008FE19EE40197F1F700C00000B0
:1033800087E090EBDC018093810590938205A09308
:103390008305B09384059CE088E10FB6F894A89566
:1033A000809360000FBE90936000FFCF78941F92CF
:1033B0000F920FB60F9211248F939F93AF93BF93E9
:1033C0008091E7049091E804A091E904B091EA04A7
:1033D0000196A11DB11D8093E7049093E804A0938A
:1033E000E904B093EA04BF91AF919F918F910F9040
:1033F0000FBE0F901F9018959C014FB7F8948091C5
:10340000E7049091E804A091E904B091EA044FBF69
:10341000821B930B08952FB7F8946091E704709185
:10342000E8048091E9049091EA042FBF08952FB732
:10343000F8948091E7049091E804A091E904B09198
:10344000EA042FBF0895CF93DF9300D000D01F92DE
:10345000CDB7DEB79093320480933104811520E21A
:10346000920748F40F900F900F900F900F90DF91FC
:10347000CF910C94EE328EEF89838A831B820E9457
:10348000171A8160782F9D838C8349815A816B81C3
:103490008D810E9498300F900F900F900F900F9099
:1034A000DF91CF910895CF93DF9300D000D01F928A
:1034B000CDB7DEB79093320480933104811520E2BA
:1034C000920748F40F900F900F900F900F90DF919C
:1034D000CF910C9408338EEF89838A8381E08B83AC
:1034E0000E94171A8160782F9D838C8349815A81AD
:1034F0006B818D810E9498300F900F900F900F90EC
:103500000F90DF91CF9108951F920F920FB60F92F7
:1035100011248F939F93AF93BF938091E604811101
:1035200013C08091E7049091E804A091E904B09160
:10353000EA044196A11DB11D8093E7049093E8042D
:10354000A093E904B093EA04BF91AF919F918F914A
:103550000F900FBE0F901F9018959C012A5F3F4F50
:10356000FC014281461301C0128201968217930723
:10357000B9F708959C01FC0132969FEF80E04191DC
:10358000461789F09F3F19F4411101C0982F8F5FB2
:103590008630A9F79F3F39F0F901E90FF11D97FD3A
:1035A000FA956283089508952091E4043091E5042A
:1035B0002817390771F09093E5048093E404E091B3
:1035C000E204F091E304309721F00084F185E02DCE
:1035D000099408952091E0043091E10428173907F7
:1035E00071F09093E1048093E004E091E204F091A3
:1035F000E304309721F00680F781E02D09940895C7
:10360000E091E204F091E304309721F00190F08121
:10361000E02D099480E00895BC014091DC04809184
:10362000DD04942F981729F1292F30E0F901EE0FCE
:10363000FF1FEC52FB4F0190F081E02DE617F707DA
:1036400099F487E0869FF001879FF00D1124E456DE
:10365000FB4F81E0848394130CC02F5F3F4F237096
:1036600033272093DC0408952F5F3F4F922F9370F0
:10367000D9CF08950F931F93CF93DF9380913B048D
:10368000882309F451C0C0913A041CE080913B04A6
:10369000C81708F045C001E00C0F00933A04D0E0D1
:1036A0001C9FF0011D9FF00D1124E45CFB4F9081E5
:1036B000818123813481232B31F08F3F31F481E0EC
:1036C0009F3F19F403C081E001C080E080FD26C067
:1036D0001C9FD0011D9FB00D1124A45CBB4F1696FA
:1036E0008D919C911797892B31F418968D919C910F
:1036F0001997019651F4208131814281538164816F
:103700007581868197810E940A291C9FF0011D9F67
:10371000F00D1124E45CFB4F14821382C02FB6CF4E
:1037200010923B0410923A04DF91CF911F910F91B8
:1037300008951092390410923804ECE9F4E0858180
:10374000811102C014821682379684E0E43DF807A6
:10375000B1F708951092DF041092DE041092120166
:103760008091DD048093DC040E94991B0C943A1B29
:103770003F924F925F926F927F928F929F92AF9201
:10378000BF92CF92DF92EF92FF920F931F93CF934E
:10379000DF93C091DC0497E0892E01E010E02CE07B
:1037A000322E3EEF932E442443948091DD04C817BB
:1037B00009F478C0D0E0FE01EE0FFF1FEC52FB4F82
:1037C00080819181889ED001899EB00D1124A456DC
:1037D000BB4F14962C911497211161C050903B045B
:1037E000ECE3F4E020E030E0712C5D01251508F0F9
:1037F00054C0E284F384D501CD90DC906FEF7FEF6D
:10380000612C462D50E0DA01AA0FBB1FAC0DBD1D87
:103810000D90BC91A02D109731F0EA16FB0609F42B
:10382000BA016394EECF6F3FBFEF7B0791F1D801F0
:1038300002C0AA0FBB1F6A95E2F77A2AB80102C03C
:10384000660F771F6A94E2F7AB0141505109672D6B
:1038500070E046175707D9F4329EF001339EF00D01
:103860001124E45CFB4F889ED001899EB00D112489
:10387000A456BB4F12962D913C9113973783268304
:10388000908291829187808715964C9206C014820F
:1038900013822F5F3F4F3C96A9CF0E940C1B2196AD
:1038A000C37083CF0E943A1BDF91CF911F910F917C
:1038B000FF90EF90DF90CF90BF90AF909F908F9050
:1038C0007F906F905F904F903F900C94991B0F9357
:1038D0001F93CF93DF93C42FD22FFC0182818823C3
:1038E000C9F0409337040E94171A909336048093CE
:1038F000350480E28C0F883008F057C0C77081E033
:1039000001C0880FCA95EAF7DF91CF911F910F91FF
:103910000C94AC2980913704481330C08091350451
:10392000909136040E94FC19883C910538F510E20C
:103930001D0FCD17B9F080E28C0F883040F4C770AE
:1039400081E001C0880FCA95EAF70E94A5291830C6
:1039500028F581E09D2F977001C0880F9A95EAF7AE
:103960000E94AC29802F0E94A92A1830F0F4D77049
:1039700081E001C0880FDA95EAF70AC080E28C0F77
:10398000883098F4C77081E001C0880FCA95EAF7C3
:10399000DF91CF911F910F910C94A529802FDF917A
:1039A000CF911F910F910C94A92ADF91CF911F9174
:1039B0000F910895CF93DF93C1E6D2E060E0CE018E
:1039C0000E9434352196C11584E0D807B9F7DF91FC
:1039D000CF9108950F931F93CF93DF93853068F5B0
:1039E000623058F5423048F521159CE5390731F42D
:1039F000E0912F04F0913004EF2BF9F08901282F8A
:103A000034E0639FC001112438E0239F800D911D95
:103A10001124840F911D840F911DEC01C751DE4FBD
:103A2000612FCE010E943435602FCE010196DF91C7
:103A3000CF911F910F910C943435DF91CF911F914D
:103A40000F9108950F931F93CF93DF93853018F54F
:103A5000623008F54230F8F4282F34E0639FC0014B
:103A6000112438E0239F800D911D1124840F911D96
:103A7000840F911DEC01C751DE4FCE010E94163517
:103A800090E0182F0027CE0101960E94163598016C
:103A9000282BC90102C080E090E0DF91CF911F91F7
:103AA0000F9108950F931F93CF93DF93853058F5AF
:103AB000653048F5493038F521159CE5390731F472
:103AC000E0912F04F0913004EF2BE9F08901C42F2D
:103AD000D0E0CC0FDD1F92E1699FC00DD11D1124F4
:103AE0009AE5899FC00DD11D1124612FCE018796C3
:103AF0000E943435602FCE018896DF91CF911F91BF
:103B00000F910C943435DF91CF911F910F9108954F
:103B10004F925F926F927F928F929F92AF92BF92DD
:103B2000CF92DF92EF92FF920F931F93CF93DF9389
:103B3000CDB7DEB72A970FB6F894DEBF0FBECDBF64
:103B400060902F047090300481E090E090933004F6
:103B500080932F049DEFC92E93E0D92EA12CB12C78
:103B6000512C412CE12CF12C00E010E047018A0C93
:103B70009B1CF801EE0FFF1FE80DF91DEB5DFB4FDD
:103B800025913491402F642D852D0E94521D0F5F89
:103B90001F4F0930110569F782E1E80EF11C4394CB
:103BA00095E04912E1CF760110E0F70125913491BB
:103BB00040E0612F852D0E94EA1CF7013296259185
:103BC000349141E0612F852D0E94EA1CE4E0EE0E65
:103BD000F11C1F5F123049F7F8E0CF0ED11C53944F
:103BE0008AE5A80EB11C95E05912BBCFFE013196B3
:103BF0007F018AE011928A95E9F701E112E04AE03B
:103C000050E0B801C7010E945835065F1F4F0136CA
:103C1000F2E01F07A1F77092300460922F042A96F9
:103C20000FB6F894DEBF0FBECDBFDF91CF911F91CD
:103C30000F91FF90EF90DF90CF90BF90AF909F904B
:103C40008F907F906F905F904F9008950F931F9388
:103C5000CF93DF93853008F56530F8F44930E8F408
:103C6000C42FD0E0CC0FDD1F22E1629FC00DD11D1B
:103C700011243AE5839FC00DD11D1124CE018796F2
:103C80000E94163590E0182F0027CE0188960E94DA
:103C900016359801282BC90102C080E090E0DF9121
:103CA000CF911F910F910895462F209133043091A9
:103CB0003404232B91F47E3F39F46E3F71F48091EC
:103CC0003104909132040895853038F4753028F429
:103CD000693018F4672F0C94261E80E090E0089558
:103CE000CF92DF92EF92FF920F931F93CF93DF93C8
:103CF000CDB7DEB72A970FB6F894DEBF0FBECDBFA3
:103D000080E5EFEDF3E0DF011D928A95E9F788E3A6
:103D1000ECE9F4E0DF011D928A95E9F78FEDC82EFA
:103D200083E0D82E7F0101E112E0F701D182C08249
:103D30004AE050E0B801CE0101960E94063588E0C5
:103D4000FE013196D60101900D928A95E1F78985A1
:103D50009A85D70113969C938E931297BAE0CB0E57
:103D6000D11CE7E0EE0EF11C065F1F4F0136F2E0BA
:103D70001F07D9F62A960FB6F894DEBF0FBECDBF47
:103D8000DF91CF911F910F91FF90EF90DF90CF9037
:103D90000895AF92BF92CF92DF92EF92FF920F936E
:103DA0001F93CF93DF93B82EA62EC0900F0580915E
:103DB000DE03C82AC7E0D0E0D12CE12CF12CD701DA
:103DC000C6010C2E04C0B695A795979587950A94C1
:103DD000D2F780FF13C04A2D6B2D8C2F0E94221D1D
:103DE0008C018130910551F00E94531A8FE39CE9B8
:103DF0000197F1F700C00000C80111C02197F8F643
:103E00004A2D6B2D80E00E94221DEC010E94531A66
:103E10008FE39CE90197F1F700C00000CE010E94FA
:103E2000231A81E0DF91CF911F910F91FF90EF90C6
:103E3000DF90CF90BF90AF900895CF93C82F81119E
:103E400002C06FEF01C063EB83E290E00E94343563
:103E5000C11102C06FEF01C067E484E290E00E94EC
:103E60003435C11102C06FEF01C061EC85E290E012
:103E7000CF910C94343580E00E941D1F60E086E2F3
:103E800090E00E9434350E94881D0E94DA1C81E077
:103E90000C941D1F83E290E00E941635833B81F451
:103EA00084E290E00E941635873451F485E290E078
:103EB0000E94163591E0813C09F090E0892F01C005
:103EC00080E081700895882311F0FA0101C0FB01A0
:103ED000099490910905937071F080930A0560939D
:103EE0000B054D3308F04CE340930C0580916503BE
:103EF000282B209365030895E9E0F5E0438120E154
:103F0000421B08F440E0818121E0628190E00C9442
:103F1000691FE9E0F5E0438120E1420F08F44FEF2B
:103F2000818121E0628190E00C94691FE9E0F5E075
:103F3000628120E1621B08F460E0818121E043811D
:103F400090E00C94691FE9E0F5E0628120E1620FE6
:103F500008F46FEF818121E0438190E00C94691FA8
:103F6000E9E0F5E0818190E021E0438162810897FA
:103F70000C94691FE9E0F5E0818190E021E0438144
:103F8000628108960C94691F909109059370A1F0C5
:103F9000811102C0946007C08E3010F0946303C09A
:103FA000880F880F982B909309051092110180912A
:103FB0006503682B609365030895809109058695D4
:103FC0008695815009F48DE061E00C94C41F8091C6
:103FD0000905869586958F5F8E3008F081E061E057
:103FE0000C94C41F0C9406190C94121929E0829F9A
:103FF000C0011124FC01ED5AFE4FE60FF11D808136
:104000008F3F21F0FA01808381E0089580E00895D8
:1040100046E050E06CE170E089E095E00C942435D6
:10402000E9E0F5E085E0808380911F019091200117
:10403000A091210181839283A3838FE784838FEFF3
:1040400085830C9408208091FC0487FF11C0809127
:10405000E80082FD05C0809104058111F8CF11C0F0
:104060008091E8008B770BC080910405882349F08C
:104070008091E80080FFF8CF8091E8008E778093F0
:10408000E8000895982F973068F59093E900981705
:1040900039F07091EC002091ED005091F00003C0D8
:1040A000242F762F50E021FD02C09F5FECCF30918E
:1040B000EB003E7F3093EB003091ED003D7F30937D
:1040C000ED003091EB0031603093EB007093EC0029
:1040D0002093ED005093F0002091EE0027FDE5CFF6
:1040E00080E008958F708093E90081E00895209129
:1040F0000205309103052617370748F06115710551
:1041000039F42091E8002E772093E80001C0B9012E
:10411000FC0120E06115710579F180910405882387
:10412000F1F18530F1F18091E80083FD3CC0809190
:10413000E80082FD2EC08091E80080FFEBCF209147
:10414000F3008091F20090E0922B6115710551F01F
:104150008830910538F421912093F1006150710964
:104160000196F3CF21E0089709F020E08091E80064
:104170008E778093E800CECF2111CFCF0AC08091F7
:104180000405882361F0853061F08091E80083FDAB
:104190000AC08091E80082FFF2CF80E0089582E0BB
:1041A000089583E0089581E00895BC0184E00C94B3
:1041B0008819BC0183E00C94881980910F05982F11
:1041C0009670963011F4886001C0877F0C94E028C7
:1041D000DF92EF92FF920F931F93CF93DF938C01A7
:1041E000C0911401CC0FCC0FCC0FD8E0DC0FD9322A
:1041F00008F0D8E260910D056695669521E0620FA2
:1042000008F46FEF80910505909106050E94073430
:10421000D82ECD17F0F4EC2EF12CF701E053FE4F21
:10422000908180911501892391F060910A05709128
:104230000B0580910C052D2D4C2FF80109950E943E
:104240001134462F282F672FC7010E94F41FCF5F1C
:10425000E0CF81E0D83208F080E0DF91CF911F916C
:104260000F91FF90EF90DF9008951F93CF93DF930E
:10427000CDB7DEB7AA970FB6F894DEBF0FBECDBF9D
:10428000ECEFF4E08091F100819345E0E430F40735
:10429000C9F78091FD04833009F462C030F48130A5
:1042A00071F0823009F49CC0B3C08A3009F488C030
:1042B0008B3009F46DC0893009F0AAC020C080910C
:1042C000FC04813A09F0A4C08091E800877F8093C4
:1042D000E8008091000590910105892B21F468E0A8
:1042E00081EF94E003C060E080E090E070E00E9425
:1042F00077208091E8008B778093E80089C08091D7
:10430000FC04813209F084C0809100059091010580
:10431000009719F0029709F07BC08091E800877F31
:104320008093E8008091E80082FD05C0809104053B
:104330008111F8CF6DC02091F3008091F20090E0E0
:10434000922B029729F48091F1008B7F813021F428
:104350008091F1008093F0048091E8008B7754C045
:104360008091FC04813A09F053C08091000590913E
:104370000105892B09F04CC08091E800877F80936C
:10438000E8008091E80080FFFCCF8091130137C0E6
:104390008091FC048132E1F5809100059091010546
:1043A000892BB1F58091E800877F8093E8000E9417
:1043B00023208091FE04809313010E94FF2828C0CF
:1043C0008091FC04813221F58091E800877F809301
:1043D000E8000E9423208091FF048093EF0418C01E
:1043E0008091FC04813AA1F48091E800877F80935A
:1043F000E8008091E80080FFFCCF8091EF0480937B
:10440000F1008091E8008E778093E8000E942320DD
:104410008091E80083FFE9C18091FC049091FD0444
:10442000492F50E04A30510508F0DFC1FA01E75743
:10443000FF4F0C94FB35803821F0823809F0D5C14C
:1044400008C08091F9049091FA04992389F0826060
:104450000FC0809100058F70873008F0C6C180932F
:10446000E9008091EB0085FB882780F91092E90034
:104470009091E800977F9093E8008093F10010926C
:10448000F1007CC1282F2D7F09F0AFC1882319F0DE
:10449000823061F0AAC18091FE04813009F0A5C18B
:1044A000933009F080E08093FA042EC08091FE04DE
:1044B00081112AC0809100058F702FEF280F2630C0
:1044C00008F093C18093E9002091EB0020FF1CC00D
:1044D000933021F48091EB00806214C09091EB0046
:1044E00090619093EB0021E030E0A90102C0440FFD
:1044F000551F8A95E2F74093EA001092EA008091F6
:10450000EB0088608093EB001092E9008091E80056
:10451000877F8093E8000E94232067C1811165C1D5
:104520001091FE041F778091E3008078812B8093A7
:10453000E3008091E800877F8093E8000E942320B9
:104540008091E80080FFFCCF8091E3008068809339
:10455000E300111102C082E001C083E080930405F2
:1045600044C18058823008F040C12091FE0430914F
:10457000FF042C3D53E0350779F583E08A838AE216
:1045800089834FB7F894DE01139620E03EE051E2B4
:10459000E32FF0E050935700E49120FF03C0E29531
:1045A000EF703F5FEF708E2F90E0EA3010F0C7960B
:1045B00001C0C0968D939D932F5F243149F74FBF63
:1045C0008091E800877F8093E8006AE270E0CE0186
:1045D00001960E947720C0C080910005909101054E
:1045E000432F552743305105B1F068F44130510550
:1045F00009F40AC14230510509F0F7C08BE590E09B
:10460000EBE7F6E057C04132510589F142325105DE
:1046100009F43CC0EAC0C901992781309105B9F07D
:1046200070F082309105D9F0039709F0DEC0E8EE12
:10463000F6E0E4918E2F90E0E8EEF6E038C0EEE58B
:10464000F7E0E4918E2F90E0EEE5F7E030C0E2E491
:10465000F7E0E4918E2F90E0E2E4F7E028C0E6E096
:10466000F7E0E4918E2F90E0E6E0F7E020C08330A1
:10467000910508F0BAC0880F991FFC01E35BFE4F5B
:104680000190F081E02D89E090E014C08330910525
:1046900008F0ABC0FC01EE0FFF1FE95BFE4F01907D
:1046A000F081E02DDC01AC5BBE4F8C9190E0009777
:1046B00009F49BC02091E800277F2093E800209117
:1046C0000205309103052817390708F4C90140E0B5
:1046D000009789F120910405222309F43DC025307B
:1046E000D9F12091E80023FD37C02091E80022FD98
:1046F0002FC02091E80020FFEBCF4091F3002091E4
:10470000F20030E0342B009759F02830310540F4A6
:1047100044914093F100319601972F5F3F4FF3CFC3
:1047200041E02830310509F040E02091E8002E7783
:104730002093E800CDCF4111CDCF0AC08091040570
:10474000882351F0853041F08091E80083FD04C05A
:104750008091E80082FFF2CF8091E8008B77809310
:10476000E80043C0803809F040C08091E800877FAE
:104770008093E8008091FB048093F1008091E80031
:104780008E77C7CE811131C08091FE049091FF04D5
:104790009927029754F58091E800877F8093E8007D
:1047A0001091FE041093FB040E942320111106C0F7
:1047B0008091E30087FD02C081E001C084E0809326
:1047C000040542E061EC81E00E94422042E261EC9B
:1047D00084E00E94422042E261EC82E00E9442209A
:1047E00042E260EC83E00E9442208091E80083FF77
:1047F00010C08091E800877F8093E8008091EB00F3
:1048000080628093EB0005C082E190E0E6EDF6E087
:1048100051CFAA960FB6F894DEBF0FBECDBFDF9181
:10482000CF911F9108951F920F920FB60F921124EE
:104830002F933F934F935F936F937F938F939F93A8
:10484000AF93BF93CF93DF93EF93FF93C091E900B2
:10485000CF708091EC00D82FD17080FDD0E81092FD
:10486000E9008091F000877F8093F00078940E94A7
:1048700035211092E9008091F00088608093F0006B
:10488000CD2BCF70C093E900FF91EF91DF91CF91D5
:10489000BF91AF919F918F917F916F915F914F9158
:1048A0003F912F910F900FBE0F901F901895E8ED3C
:1048B000F0E080818E7F80831092E2001092DA0017
:1048C0001092E100A0EEB0E08C9181608C93808129
:1048D0008F77808319BCA7EDB0E08C918E7F8C938D
:1048E00080818F7E80831092EE040895CF92DF92B4
:1048F000EF92FF920F931F93CF93DF93C8EDD0E019
:1049000088818F7E8883E7EDF0E0808181608083FD
:1049100084E082BF81E08093EE0488818E7F88836B
:1049200002EE10E0F80110821092DA0081EEC82E3B
:10493000D12CF601108288818F77888388818068E6
:10494000888388818F7D888319BC1092040510921A
:10495000FB041092FA041092F90490EEE92EF12C67
:10496000F70180818B7F808388818160888342E02A
:1049700060E080E00E944220F60180818E7F80838B
:10498000F801808181608083808188608083F70165
:1049900080818E7F8083888180618883DF91CF9141
:1049A0001F910F91FF90EF90DF90CF9008951F928D
:1049B0000F920FB60F9211242F933F934F935F9353
:1049C0006F937F938F939F93AF93BF93EF93FF93D7
:1049D0008091E10082FF09C08091E20082FF05C062
:1049E0008091E1008B7F8093E1008091DA0080FF6D
:1049F0002AC08091D80080FF26C08091DA008E7F87
:104A00008093DA008091D90080FF18C080E189BDD1
:104A100082E189BD09B400FEFDCF81E080930405E9
:104A20008091EE0481110FC00E9457240E947624C9
:104A30008091E20084608093E20005C019BC10926E
:104A400004051092EE048091E10080FF17C0809170
:104A5000E20080FF13C08091E2008E7F8093E2002D
:104A60008091E20080618093E2008091D8008062B2
:104A70008093D80019BC85E0809304058091E10003
:104A800084FF2EC08091E20084FF2AC080E189BDAE
:104A900082E189BD09B400FEFDCF8091D8008F7DF1
:104AA0008093D8008091E1008F7E8093E100809117
:104AB000E2008F7E8093E2008091E200816080932B
:104AC000E2008091FB04882311F084E007C080910C
:104AD000E30087FD02C081E001C083E0809304050C
:104AE0008091E10083FF27C08091E20083FF23C013
:104AF0008091E100877F8093E10082E0809304054C
:104B00001092FB048091E1008E7F8093E100809100
:104B1000E2008E7F8093E2008091E20080618093CA
:104B2000E20042E060E080E00E9442208091F000DC
:104B300088608093F000FF91EF91BF91AF919F91BA
:104B40008F917F916F915F914F913F912F910F9036
:104B50000FBE0F901F9018952091E4003091E50052
:104B600095E64091EC00842F817040FF23C0809136
:104B7000E80080FD1DC080910405882399F08530F0
:104B800099F08091EB0085FD11C04091E4005091B7
:104B9000E5002417350729F3915011F09A01E1CF70
:104BA00084E0089582E0089583E0089581E0089507
:104BB00080E008954091E80042FFDDCF0895EF9234
:104BC000FF920F931F93CF93DF937C018B010E9481
:104BD000AC25811119C0E70101151105A1F08091E3
:104BE000E80085FD0AC08091E8008E778093E80098
:104BF0000E94AC25882381F307C089918093F1003E
:104C000001501109E9CF80E0DF91CF911F910F9101
:104C1000FF90EF900895CF93209104052430F9F48C
:104C2000C091E900CF703091EC00232F217030FD4E
:104C300020E8C22B22E02093E9002091E80020FF29
:104C40000BC040E050E060E270E00E94DF25809100
:104C5000E8008E778093E800CF70C093E900CF9191
:104C6000089580E090E00E94EA1A80E090E00E94BF
:104C7000D41A10927905109278050C94692ECF926F
:104C8000DF92FF920F931F93CF93DF936C010091FC
:104C90000F058091DE03082BC7E0D0E010E0C801CB
:104CA0000C2E02C0959587950A94E2F780FD04C00A
:104CB0002197A8F7F12C09C0FC2EB6018C2F0E9479
:104CC000541E0E94342C019799F38F2DDF91CF91C0
:104CD0001F910F91FF90DF90CF900895CF93DF93B6
:104CE000EC010E943F26BE010E94541E0E94342CFB
:104CF000DF91CF910895FC0186819781009719F08B
:104D00000E94342C04C0808191810E946E26292F3C
:104D10002F70E92FE295EF704E2F50E0FA01329795
:104D2000EE30F105B8F4ED56FF4F0C94FB35803FA3
:104D300099F018F4883E70F40FC0843F59F40CC009
:104D4000883E50F0813F31F407C0822F86958695CA
:104D50008695089580E0089581E008959F92AF922E
:104D6000BF92CF92DF92EF92FF920F931F93CF9358
:104D7000DF93CDB7DEB765970FB6F894DEBF0FBEF1
:104D8000CDBF8C0185E0F801DE01519601900D92B6
:104D90008A95E1F7F801E28090912A0560912B0550
:104DA00040912D0550912E054115510531F06F3F71
:104DB00031F481E09F3F19F403C081E001C080E03D
:104DC000F82FF1709F2E80FD4EC1F80130812181B6
:104DD000C380D4807AE2A72E75E0B72EF0902C0520
:104DE000F601E41BF50BFF2009F4EFC080912F05BD
:104DF000E83CF10508F0AAC0482F407F09F05AC0EE
:104E000062131BC0931319C0609130057091310576
:104E1000F801468157816417750779F4FE2CE1107B
:104E20000CC08F70806180932F05C5010E94D8113E
:104E300080912F05F801858353C1CD2831F02F3F94
:104E400031F481E03F3F19F403C081E001C080E00C
:104E500080FD03C081E08E2502C080E090E0F82F45
:104E6000F170FF2E80FF1CC08091730540913205C8
:104E7000841709F413C190E0FC0153E0EE0FFF1F0B
:104E80005A95E1F7ED5CFA4F5181251306C0508128
:104E9000531303C05281E51203C001968770E8CF17
:104EA000FE2CEE2009F41CC180912F0581608093B7
:104EB0002F0558C062130FC093130DC040913005E9
:104EC00050913105F801268137814217530719F4B3
:104ED000EE2009F4A7C0C8010E947B26882381F137
:104EE000EE2071F120912F05822F82958F7090E036
:104EF0000297A4F080912A0590912B059A878987C3
:104F00001B86DD86CC862E878091300590913105F9
:104F1000988B8F87CE0109960E94D81188E0F801FE
:104F2000AAE2B5E001900D928A95E1F70E940A2F5E
:104F30000AC06217C9F0C8010E947B26811127C0F0
:104F4000C8010E94D811FF24F394CAC0482F407FA3
:104F500081F78AE295E00E94D81188E0F50111926C
:104F60008A95E9F7F12CBCC09313E5CF4091300549
:104F700050913105F8012681378142175307D9F640
:104F8000E110D9CF8583C8010E94D81166C0EE20F8
:104F9000B9F220912F05822F82958F7090E00297B1
:104FA0000CF4BCCF80912A0590912B059A838983BC
:104FB0001B82DD82CC822E83809130059091310559
:104FC00098878F83CE010196A7CFE83CF10508F0C2
:104FD00044C0FE2CEE2009F4B3CF621330C093130B
:104FE0002EC02091300530913105F80186819781DE
:104FF0002817390721F590912F0590FD17C0892FAB
:1050000082958F70282F30E02115310579F0958336
:105010002F30310541F08F5F982F9295907F8581D9
:105020008F70892B8583C8010E94D81188E0F80110
:10503000AAE2B5E001900D928A95E1F751C0C8014E
:105040000E947B2681116ACF80912F058160809319
:105050002F05C8010E94D81143C088E0F5011192C4
:105060008A95E9F73DC0EE2009F46ACFC8010E9495
:105070007B26F82E882309F463CF88E0F801AAE2A2
:10508000B5E001900D928A95E1F780912A05909103
:105090002B050E946E260E940A2F22C0398B2A8B74
:1050A00089899A890E946E26292F22952F70223095
:1050B00028F49F7039F0811105C00BC0243028F40A
:1050C0009F7049F4805E883020F0C8010E94D8119A
:1050D0009F2CF92C05C0F8019581907F99F7F9CFA5
:1050E0008F2D65960FB6F894DEBF0FBECDBFDF9152
:1050F000CF911F910F91FF90EF90DF90CF90BF90D5
:10510000AF909F9008959E3F61F129E0929F800D9E
:105110001124682F669566956695982F977083E0A1
:10512000689FB001112440E050E080E0FB01E40FF3
:10513000F51FE05FFA4F208130E0092E02C036955E
:1051400027950A94E2F721703327042E01C0220F1D
:105150000A94EAF7822B4F5F5F4F4330510531F7D6
:10516000089580E008959E3F51F129E0929F800DBF
:105170001124E82FE695E695E695877051E001C089
:10518000550F8A95EAF783E0E89FF0011124E05F6C
:10519000FA4F20E030E070E04081CB01022E02C0E7
:1051A000969587950A94E2F78170819584278523E7
:1051B000842781932F5F3F4F2330310569F708958E
:1051C00080930F050C94312621E030E001C0220FBE
:1051D0008A95EAF7209580910F0582230C94E028A8
:1051E00021E030E001C0220F8A95EAF780910F0597
:1051F000822B0C94E0288093DE030C9431261092CD
:105200007A0586E0E4E2F5E0DF011D928A95E9F790
:105210000C943126CF93DF93CDB7DEB760970FB6EE
:10522000F894DEBF0FBECDBF29873A874B875C87D6
:105230006D877E878F87988BCE0109960E94AE2658
:10524000811151C088E0FE013996DE01119601906E
:105250000D928A95E1F779856A854C855D854115C2
:10526000510531F06F3F31F481E07F3F19F403C005
:1052700081E001C080E080FD36C0A0913205B0E041
:10528000CD010196877099272091730530E0821730
:10529000930781F179836A835D834C8393E0AA0F3E
:1052A000BB1F9A95E1F7AD5CBA4F98E0FE013196CD
:1052B00001900D929A95E1F7809332050E94002F9C
:1052C00012C028E0829FC00111248D5C9A4F0E9479
:1052D000AE268823E1F08091730590E001968770F7
:1052E00099278093730580917305909132058913F6
:1052F000E8CF0DC00E94FF2810923205109273056E
:10530000EAE2F5E088E0DF011D928A95E9F7609610
:105310000FB6F894DEBF0FBECDBFDF91CF910895D9
:10532000882341F0809590917905892380937905B0
:105330000C94692E0895882339F090917905892B72
:10534000809379050C94692E0895882321F00E949A
:10535000622E0C94692E0895882339F090917A0575
:10536000892B80937A050C94692E0895882309F47B
:1053700053C0682F823869F40E94001B81FF4CC023
:1053800069E382E295E00E94BA1A0E94692E69E3FD
:105390000EC0833891F40E94001B80FF3DC063E57E
:1053A00082E295E00E94BA1A0E94692E63E582E2C9
:1053B00095E00E94AD1A0C94692E843869F40E941D
:1053C000001B82FF29C067E482E295E00E94BA1ABE
:1053D0000E94692E67E4EBCF8CEF860F813A38F399
:1053E00080E2860F883048F4677081E001C0880F42
:1053F0006A95EAF70E94622EDECF8BE5860F833036
:1054000020F480E090E00C94EA1A685A673120F4A6
:1054100080E090E00C94D41A0895CF93882309F487
:1054200096C0C82F8238B1F40E94001B81FD8FC046
:1054300069E382E295E00E94BA1A0E94692E2FEF7A
:1054400081EE94E0215080409040E1F700C00000E0
:1054500069E317C08338E1F40E94001B80FD77C028
:1054600063E582E295E00E94BA1A0E94692E2FEF4E
:1054700081EE94E0215080409040E1F700C00000B0
:1054800063E582E295E00E94AD1ACF910C94692EFB
:105490008438B1F40E94001B82FD59C067E482E2A7
:1054A00095E00E94BA1A0E94692E2FEF81EE94E0D7
:1054B000215080409040E1F700C0000067E4E1CF58
:1054C0008CEF8C0F813A80F4E4E2F5E08AE295E01B
:1054D0002191C217A1F18E179F07D1F76C2F82E29D
:1054E00095E00E94BA1AD1CF80E28C0F883068F420
:1054F000C77081E090E001C0880FCA95EAF79091EB
:105500007A05892B80937A05C0CFEBE5EC0FE33069
:1055100040F4F0E0E850FE4F808190E0CF910C9491
:10552000EA1AC85AC73198F4EC2FF0E0EE0FFF1FCB
:10553000E550FE4F80819181CF910C94D41A6C2F4D
:1055400082E295E00E94AD1A0E94692EC7CFCF91EA
:1055500008951F93CF93DF93182F893319F0C9E172
:10556000D0E002C0C0E5D0E0812F0E940D2A8FE973
:105570009FE00197F1F700C000002197C1F7812F4C
:10558000DF91CF911F910C94B62980E008959091FE
:10559000340292FF0DC0282F2871283019F4877F1C
:1055A000846006C0282F2471243011F48B7F88601A
:1055B00093FF0DC0282F2871283119F4877E84614C
:1055C00006C0282F2471243111F48B7E886120912C
:1055D000350220FF0DC0382F3871383019F4877F1D
:1055E000816006C0382F3171313011F48E7F8860B0
:1055F00021FF0DC0282F2871283119F4877E816181
:1056000006C0282F2171213111F48E7E886194FD0E
:10561000877E0895F894E82FE295EF70F0E031A1CD
:10562000282F2F7081E090E001C0880F2A95EAF7BB
:10563000982F9095932391A392A1892B82A378947C
:1056400008958F929F92AF92BF92CF92DF92EF9286
:10565000FF920F931F93CF93DF93CDB7DEB72A97B7
:105660000FB6F894DEBF0FBECDBFAE014F5F5F4FE8
:105670007A018AE0DA011D928A95E9F702E211E0E7
:105680006A01AA24A394B12CF80180818F3F09F408
:105690004DC0F894E82FE295EF70F0E021A18F70F3
:1056A000A50102C0440F551F8A95E2F7CA01922F47
:1056B000982B91A392A18095892382A3789400C00E
:1056C000E7E2F1E020E030E0812C912C81918F3FE6
:1056D000C1F0A82FA295AF70B0E090964C9150E029
:1056E0008F70DA0102C0B595A7958A95E2F7A0FD03
:1056F00008C0C501022E02C0880F991F0A94E2F764
:1057000002C080E090E0882A992A2F5F3F4F29301D
:105710003105E1F6F80180818F3F11F00E940A2BDC
:10572000F0EAFA95F1F7D6018D929C920F5F1F4F28
:10573000B2E0CB0ED11CE1E007321E0709F0A4CF86
:105740004AE050E0B70186E392E00E94083611E09B
:10575000009709F410E0892B89F08AE0F701A6E3AD
:10576000B2E001900D928A95E1F781E08093800587
:105770000E94171A90937F0580937E058091800583
:10578000882391F180917E0590917F050E94FC19FC
:10579000059750F18091360290913702909357030C
:1057A0008093560380913802909139029093590367
:1057B0008093580380913A0290913B0290935B034F
:1057C00080935A0380913C0290913D0290935D0337
:1057D00080935C0380913E0290913F0290935F031F
:1057E00080935E031092800580911201882341F11D
:1057F0008091DE049091DF04009711F10E94FC1962
:10580000209138043091390428173907C8F4909151
:10581000DC048091DD04981759F00E94B81B1092A7
:105820003904109238041092DF041092DE0408C08C
:105830000E943A1B1092DF041092DE040E94991B12
:10584000812F2A960FB6F894DEBF0FBECDBFDF9131
:10585000CF911F910F91FF90EF90DF90CF90BF906D
:10586000AF909F908F900895CF93DF9382389105EA
:1058700069F1B0F48133910509F46FC048F48932BD
:10588000910509F465C08A32910509F46BC08AC09C
:105890008533910509F457C089339105B9F082C069
:1058A000833E910571F138F4803E9105B1F0823E5E
:1058B000910511F177C0863E9105B9F1873E9105BA
:1058C000C9F1843E910509F06DC024C020913402D5
:1058D00020FD53C021FD51C065C08091340280FD80
:1058E00046C08091350280FF48C08091340284FD1B
:1058F0003FC183EE90E03EC18091340282FF3AC006
:10590000F4CF8091340282FD35C08091350280FD54
:1059100034C0EBCF8091350281FF35C080913402D5
:1059200084FD26C187EE90E025C18091340283FF7B
:1059300027C0F4CF8091340283FD22C080913502CC
:1059400081FD21C0EBCF8091340285FD1FC021C0B5
:105950008091340285FD1DC019C08091340286FDFE
:105960001BC01DC08091340286FD19C015C089E39B
:1059700090E000C182EE90E0FDC080EE90E0FAC0C1
:1059800086EE90E0F7C084EE90E0F4C089E290E00B
:10599000F1C085E390E0EEC08AE290E0EBC081E3E5
:1059A00090E0E8C0811532E5930708F069C08115E1
:1059B00041E5940728F0982F8827816F906ADAC014
:1059C000883E910568F5803E910508F0D3C0883A7D
:1059D0009105B8F4853A910548F0855AE82FF0E032
:1059E000E850FE4F808190E09064C4C08130910502
:1059F00009F4BBC008F4BCC08430910508F4B8C0F9
:105A0000B9C08F3B910508F0B3C0885AE82FF0E089
:105A1000EE0FFF1FE550FE4F808191819464AAC074
:105A2000811520E59207F0F09C0174E036952795EA
:105A30007A95E1F7922F9370482F437021E030E080
:105A400002C0220F331F4A95E2F73C68392B8F7052
:105A5000982F9695969540E2949FC0011124822B31
:105A6000932B88C0811530E4930718F09F70906ADB
:105A700081C09C013A9521153F4108F47BC078C054
:105A8000EC01C11586E5D807E8F5C11525E5D20773
:105A900048F08C2F0E94C72A8F7190E0982F88279A
:105AA000906268C0C11534E5D30728F09C2F882781
:105AB000846F906A5FC0AE01437055272C2F2695E6
:105AC0002695C115D34578F481E090E002C0880F97
:105AD000991F4A95E2F740E2249F90011124822BFE
