:100000000C9478040C94BF040C94BF040C94BF04AB
:100010000C94BF040C94BF040C94BF040C94BF0454
:100020000C94BF040C94BF040C945E1B0C949A1A9D
:100030000C949D260C94BF040C94BF040C94BF0434
:100040000C94BF040C94BF040C94BF040C94BF0424
:100050000C94BF040C9450260C94BF040C94BF0461
:100060000C94BF040C94BF040C94BF040C94BF0404
:100070000C94BF040C94BF040C94BF040C94BF04F4
:100080000C94BF040C94BF040C94BF040C94BF04E4
:100090000C94BF040C94BF040C94BF040C94BF04D4
:1000A0000C94BF040C94BF040C94BF04A70CC30CA5
:1000B000CA0C020D130D1E0D2E0D410D840D890D60
:1000C000E30DE30DE30D910D230E2E0E580E940E4D
:1000D000D70E1E0F800FCE0F151018101D10BF1059
:1000E0005F145F14981498140915441644164416A6
:1000F00027159B15AC15AC15A218C9187C1AC91880
:100100007C1A151938197C1A391A491A1E1D1E1D18
:10011000311D311D271D311D311D311D1E1D1E1D9F
:100120002C1D311D311D2C1DFD377A585A0000043D
:10013000E6D6B4460200210116000000742FE5A3A4
:10014000E008B702345D003D8889C65436C3174FB6
:10015000E4EF0A3F668DD105C145CE66B4E8DF8580
:100160001F2CF59EBB41D912F17F204F73672F9A48
:10017000C243D74C5B65441319B1B3BC75E3462940
:10018000A966D74C1C5E426C60D242D95195BCFA2C
:10019000C18D306CE69EB06A07247A2A185A1E97E1
:1001A000B8B8BD867F7AF01870DA96B443ED587A05
:1001B000EC6A0B878BEDFA95780E765F4E2AA533A5
:1001C0008B5DD40D26AF083CC7D5E70FE2EA1912C4
:1001D0000D3CC71BA71FAC2689FF7AEF27CA33EB5C
:1001E0001C21F25EB5CB1694238A31ED1D7BF3E41E
:1001F000F3548C444210856E2AE1D8EA96D8984090
:100200000115CDB6D67011324DF096860BC39DEB1D
:10021000D6EBC17DAFBDAD937EE94F54E7243D538E
:100220003F0F2C6F7B8345B464F988D54290A72A91
:10023000ABDFDBE297962B7037BC3656183392F85B
:10024000CE549EBC27539E6FF8F4E693F45C490AA3
:10025000F54C0E5C5CBEC160E9ADCA7D60575124AF
:1002600074DA670F0BD857EA73654DAC39168211F3
:10027000082B47836CB2DC0CA2C097DFD23AFBECB0
:10028000B019794F0559222BB7610C74AB05C8D052
:10029000FE6A8831BFEBC1628675671CDAB08CD903
:1002A0006563969F05BE616DC4EA9EC5159B85AFCB
:1002B0009B7BEAC86D2FD079CB89B50A018C60464B
:1002C0000BD37FA52855C199979A1386EFCA8B78CF
:1002D000BC897A627DE6A1457AEE310AC52F0737DF
:1002E00087707068CDE23F421674B43A45E9062D36
:1002F0000BE0838014FF4310DE7EDE9EE8200409BD
:10030000179C4A2D520C009FCBCA5CB848D94F6D40
:10031000A3B910890D5191671ED18338F520AB6FB9
:1003200028675354D4A8ED0AC1A91D859D29878249
:10033000115CD69778124E9376D3DF4D2D4F778C84
:1003400099955E5840D46967E94FEC2E64D54F1FEC
:10035000B4D999C31328B5D8177646799AC95921C3
:10036000DD823E6EFF837F088F6C0C64A22E553DAC
:1003700007F961D05DD7D178A5411E00F205D97B80
:1003800082CB68AF0001D004B811000000C1C9E100
:10039000B1C467FB020000000004595A00000000CD
:1003A00001000B0002000100030002000400030032
:1003B0000500040011000500120006001A000700E5
:1003C0001B0008001C0009001D000A0005010902AD
:1003D000A10185020901A1000509190129051500DE
:1003E00025019505750181029501750381010501BE
:1003F000093009311581257F950275088106093874
:100400001581257F950175088106050C0A380215AE
:1004100081257F950175088106C0C005010980A16D
:1004200001850319012AB700150126B7009501754A
:10043000108100C0050C0901A101850419012AA041
:1004400002150126A002950175108100C00660FF0B
:100450000961A1010962150026FF00952075088138
:10046000020963150026FF00952075089102C0055A
:10047000010906A101050719E029E71500250195E5
:100480000875018102950175088101050719002988
:10049000FF150026FF009506750881000508190163
:1004A0002905950575019102950175039101C00912
:1004B000025B00030100A0FA09040000010301012E
:1004C00000092111010001224000070581030800F5
:1004D0000A090401000203000000092111010001C2
:1004E00022220007058203200001070503032000E4
:1004F00001090402000103000000092111010001AB
:100500002281000705840320000A12010002000076
:100510000008FEFE50580100010203011C03760092
:10052000690061006C003A00660036003400630028
:10053000320062003300630000002C03730061008E
:10054000640065006B006200610072006F0075005E
:100550006400690020006200610072006F006200A8
:100560006F007200640000001A03730061006400F1
:1005700065006B006200610072006F00750064002E
:10058000690000000403090414001A0008001500A3
:1005900017001C0018000C0012001300000004617A
:1005A0001668076409620A000B000D720E740F785A
:1005B000337100001D001B0006001900050011002A
:1005C0001000360037003800A800015302530151D3
:1005D000280034002A002C000251035304532A013E
:1005E0001E021F02200221022202230224022502EF
:1005F000260227020000290001000100010001007D
:1006000001002D022E022F023002000039003502B7
:10061000010001000100010001000100310234026B
:100620000100010001000100010001004C00010077
:1006300003510100010001001E001F0020002100E5
:10064000220023002400250026002700000050007F
:10065000510052004F002B0001002D002E002F00F2
:1006600030000000E0003500E300E200010001007E
:1006700001000100310034000100010001000351BC
:100680000100010001000100010001000100010062
:10069000C25CC45CC35C010010503A003B003C00EB
:1006A0003D003E000000CB5CC55CC75CC95C01003E
:1006B0003F0040004100420043000000CC5CC65CAB
:1006C000C85CCA5C01004400450001000100005CF8
:1006D0000100010001000100010001000100010012
:1006E0000100010001000100010001000100010002
:1006F00001000100010001000100010000000100F3
:1007000001000100010001000100010001000100E1
:1007100001000000010001000100010001000100D2
:1007200001000100010001000100010001000100C1
:1007300001000100010001000100010001000100B1
:1007400000000000000000000000000000000000A9
:100750000000000000000000000000000000000099
:10076000000000007E0F00D4FFFFFFC700000078EC
:1007700000000000000000002A2B280000000000FC
:100780000000000000000000000000290000000040
:100790002C1E3420212224342627252E362D3738AE
:1007A000271E1F202122232425263333362E3738B7
:1007B0001F0405060708090A0B0C0D0E0F10111275
:1007C000131415161718191A1B1C1D2F3130232D41
:1007D000350405060708090A0B0C0D0E0F1011123F
:1007E000131415161718191A1B1C1D2F3130354CF0
:1007F00000010101010101010101020202020202E4
:1008000002020203030303030303030404040404B6
:10081000040405050505050606060606070707077D
:100820000708080808090909090A0A0A0B0B0B0C32
:100830000C0C0D0D0D0E0E0E0F0F0F1010111111CF
:100840001212131314141515161617171818191950
:100850001A1A1B1B1C1D1D1E1E1F202021222223B5
:100860002424252626272829292A2B2C2D2D2E2FF6
:1008700030313232333435363738393A3B3C3D3E0D
:100880003F404142434445464748494A4C4D4E4FFC
:1008900050515354555658595A5B5D5E5F616264BE
:1008A000656668696B6C6D6F7072737577787A7B4B
:1008B0007D7E8082838587888A8C8E8F91939596A2
:1008C000989A9C9EA0A2A3A5A7A9ABADAFB1B3B5C2
:1008D000B7BABCBEC0C2C4C6C9CBCDCFD1D4D6D89E
:1008E000DBDDDFE2E4E7E9EBEEF0F3F5F8FAFDFF3C
:1008F00011241FBECFEFDAE0DEBFCDBF04B603FE8A
:1009000027C080914A0590914B05A0914C05B0916C
:100910004D058730904BA740B04BD1F410924A055B
:1009200010924B0510924C0510924D0514BE84B7E1
:10093000877F84BF0FB6F894A89580916000886186
:1009400080936000109260000FBEE0E0F8E309952C
:1009500012E0A0E0B1E0E4E8F6E602C005900D92F6
:10096000A831B107D9F725E0A8E1B2E001C01D9296
:10097000AA34B207E1F70E94C1040C9440330C94EE
:100980000000CF93DF93CDB7DEB7C654D1090FB6C1
:10099000F894DEBF0FBECDBF84B7877F84BF0FB68C
:1009A000F894A8958091600088618093600010920F
:1009B00060000FBE90E080E80FB6F894809361006D
:1009C000909361000FBE85B7806885BF85B780684A
:1009D00085BF82E291E290931902809318020E94EF
:1009E000792A0E94DE1A0E94FD1A8091E20084603A
:1009F0008093E2007894809146038823A1F01091BF
:100A0000E9001F709091EC00892F817090FD80E8C3
:100A1000182B1092E9008091E80083FD0E94BC171A
:100A20001F701093E90082E084BD93E095BD9AEFBA
:100A300097BD80936E000E94152F811102C00E9405
:100A4000062F0DE111E061E2E62E61E0F62ED801FD
:100A50008D918D018F3F11F00E946721E016F10604
:100A6000B1F701E211E05CE2E52E51E0F52EF8016C
:100A700081918F018F3F11F00E946721E016F106EE
:100A8000B1F710921D0210921C02109228031092CE
:100A9000270310921F0210921E0210922A03109236
:100AA0002903109221021092200210922C0310921E
:100AB0002B03109223021092220210922E03109206
:100AC0002D030E941823811102C00E94232382E07B
:100AD00090E00E94BC328093A2020E940723909370
:100AE0001B0280931A020E9456248FE39CE901970F
:100AF000F1F700C000000E9456248091270380FF78
:100B000008C06FEF7FEF80E090E00E94F8320E9413
:100B10002C2683E090E00E94BC320E946D1F8091E1
:100B200051030E94D02B10922502EEE3F2E08EE4F6
:100B300092E02FEF3FEF219331938E179F07D9F764
:100B40000E941823811104C00E9423230E94C92FF0
:100B500046E050E06CE170E08BE493E00E94AC3240
:100B600080914B038C7F11F40E94C92F0E94153194
:100B700040E060E080E00E944417109224024FEFB2
:100B800060E080E00E94441780E091E09093C6040A
:100B90008093C50440E4342E80914603853009F0EB
:100BA00047C000E112E180914603853009F03CC066
:100BB00080914603843019F11092C904A8E1B0E095
:100BC0000FB6F894A895A09360000FBE3092600015
:100BD00083B7817F846083BF83B7816083BF78944C
:100BE000889583B78E7F83BF0FB6F894A8958091C0
:100BF0006000886180936000109260000FBE809159
:100C00003C03882309F4CFCF0E945624E7E2F3E0A7
:100C100081919191892B11F00C94E90D2FE233E031
:100C20002E173F07A9F7BFCF0E94711F0E941927F7
:100C30000E94562481110E948526E7E2F3E0A3EA90
:100C4000B2E0C12CD12C8C2CA190B1908D919D91B2
:100C50008A259B25009709F45BC110E0EE24E394FC
:100C6000F12C9C012E213F21232B09F44BC11DAFF8
:100C70008EAEAE20BF2081E0A114B10409F480E063
:100C80008FAF0E9491268160782F22969FAF8EAF02
:100C900022974DAD5EAD6FAD22968FAD22970E942B
:100CA0002B2CF601EE0FFF1FED55FD4F808191813A
:100CB000E826F926F182E082AB2889F08BE08C9D52
:100CC000F0018D9DF00D1124E55CFE4FE10FF11D4B
:100CD00080818F3F21F0282E9924939401C0912C7C
:100CE000E92CF12C80912502B701680F711D693044
:100CF0007105ACF188E090E05C01AE18BF08B70167
:100D00006F5F7F4F6B5D7D4FA50186E292E00E9491
:100D10003033B701675F7F4F6B5D7D4FA5018EE27A
:100D200092E00E943033A501440F551FB701660FB2
:100D3000771F675E7F4F6B5D7D4F8EE392E00E9471
:100D40003033B7016F5E7F4F6B5D7D4FA50186E34A
:100D500092E00E94303388E08919809325028091C7
:100D6000250290E0A22DB0E09D01220F331F2959EA
:100D70003E4FAA0FBB1FBD0168597E4F41E0480F8F
:100D80009915A8F490E0FC01EB5DFD4FD9015C9151
:100D90005183DB015C915187218A880F991FFC01E7
:100DA000EB5DFD4F128E118E91E0842FE7CF809383
:100DB000250280914B038C7F883209F0D1C0AFEFC0
:100DC000A80D01E0080D3FEF310F21E0210F311791
:100DD00080F48BE08C9DF0018D9DF00D1124EB5A79
:100DE000FD4FE30FF11D408150E1450F08F44FEF37
:100DF0004083412F50E07BE07C9DC0017D9D900DA4
:100E000011248B5A9D4FFC01E40FF51F7081B0E255
:100E10006B2F760F08F47FEF70832B3051F0FC01BD
:100E2000E20FF11D708180E1682F760F08F47FEFEB
:100E30007083043009F432C0E02EF12C311790F4A5
:100E40008BE08E9DF0018F9DF00D1124EB5AFD4F2C
:100E5000E30FF11D80819DE0782F092F700F08F4BA
:100E60007FEF7083EBE0EE9DC001EF9D900D1124AC
:100E70008B5A9D4FFC01E40FF51F608170E1670FF5
:100E800008F46FEF60832B3049F0FC01E20FF11D95
:100E900060817DE0670F08F46FEF6083A81508F0AC
:100EA0005FC0B0E0311780F48BE08A9FF0018B9F28
:100EB000F00D1124EB5AFD4FE30FF11D30816DE071
:100EC000360F08F43FEF30838BE08A9FF0018B9F51
:100ED000F00D1124CF018B5A9D4FFC01E40FF51F3B
:100EE000308140E1340F08F43FEF30832B30C1F103
:100EF000FC01E20FF11D20813DE0230F08F42FEFEC
:100F000020832EC01F5FEE0CFF1C1B3009F0A9CE02
:100F10002FEFC21AD20A34E0C316D10409F093CEDF
:100F20008FEF23968FAF239724968FAF2497259624
:100F30001FAE25970E9491268160782F27969FAF3C
:100F40008EAF279723964FAD239724965FAD2497B6
:100F500025966FAD259727968FAD27970E942B2C4E
:100F600080914E0290914F02A0915002B091510297
:100F70002FB7F894C090CA04D090CB04E090CC0472
:100F8000F090CD042FBFC81AD90AEA0AFB0A0E94C2
:100F9000852660934E0270934F0280935002909387
:100FA0005102A0912502E5E2F2E02A2F30E08824E8
:100FB0008A94982CA12CB12C8C189D08AE08BF08DF
:100FC000A31799F0418D528D2A01612C712C841444
:100FD0009504A604B70410F4215004C04C0D5D1D07
:100FE000528F418F3F5F3296EBCF20932502309195
:100FF0004B03232F237021F0E32EE694E69401C0E7
:10100000E12C20911101213091F028F0223099F14A
:101010002330E9F160C010920D0160934703709393
:1010200048038093490390934A0381E02DC0909137
:101030000B01E9120DC0832F837090E040910A01EB
:1010400050E021E08417950709F420E0822F01C0C9
:1010500081E0817080930F018091500390910E0187
:10106000981709F4D6C580930E0140E060E080E057
:101070000E94BD2FCEC5E0920B01832F8370809319
:101080000A010E94C22E83E08093110124C0809146
:10109000D10481110E94C12F1092D10440914703C5
:1010A000509148036091490370914A032FB7F89417
:1010B0008091CA049091CB04A091CC04B091CD044E
:1010C0002FBF841B950BA60BB70B4097A105B1054D
:1010D00010F0109211018091A0028A3008F0EBC04C
:1010E00080919E0290919F020E947626089708F4B4
:1010F000E2C004E610E025E030E049E952E064E0B7
:1011000084E10E944332892B09F06BC01092A00247
:1011100086E0E7E8F2E0DE01D19601900D928A9533
:10112000E1F786E0FE01F196DE01D79601900D927F
:101130008A95E1F786E0FE01F796A3E9B2E0019017
:101140000D928A95E1F790919D028091940297FD0E
:101150003EC08E7F80939402809191029091920282
:10116000009799F545E06091990280919A020E945A
:10117000142C20918F0230919002281B390B309350
:10118000900220938F0245E060919B0280919C0227
:101190000E94142C20918D0230918E02820F931F99
:1011A00090938E0280938D026DE872E085E992E063
:1011B0000E94F52B6FE872E086E992E00E94F52B21
:1011C000109298021092970211C0019705C0816099
:1011D0008093940284E190E0909392028093910234
:1011E00005C08091A0028F5F8093A00286E0E3E9B2
:1011F000F2E0DE019B9601900D928A95E1F786E080
:10120000FE01BB96A7E8B2E001900D928A95E1F746
:101210003091890220918A0290918B0280918C02F8
:101220007091830260918402409185025091860200
:10123000F0918202E0918802FE1312C0332311F074
:1012400037130EC0222311F026130AC0882311F091
:10125000851306C0992331F081E0491304C002C010
:1012600081E001C080E080FF0FC0E091C504F091F3
:10127000C604309749F082E0809387020480F581AC
:10128000E02D87E892E009951092890210928A0277
:1012900010928B0210928C0286E0E7E8F2E0A1E85F
:1012A000B2E001900D928A95E1F70E949126909309
:1012B0009F0280939E020E9419279091A102891794
:1012C00021F00E9419278093A10280914603843067
:1012D00009F062CC83E08093E9008091E80082FF0E
:1012E0005BCC8091E80085FF21C00E94331C8111F6
:1012F0001BC000E210E0FE0131967F0108C0809122
:10130000F100D7018D937D010150110969F08091A1
:10131000E80085FDF4CF8091E8008B778093E800AA
:101320000E94331C882399F391E001C090E08091E2
:10133000E8008B778093E800992309F42DCCE090A6
:101340001604F09017048981E114F10459F08E3FDE
:1013500009F039C49A819330A8F19550933008F080
:1013600032C430C08B3009F4CFC248F5853009F45F
:1013700085C0B8F4823009F442C030F4813009F0FD
:1013800020C41A8289E0BEC3833009F468C0843067
:1013900009F017C44C816B818A810E94382A9D8391
:1013A00036C4873009F478C008F473C0883009F473
:1013B000EAC0893009F005C40E94C12F04C48031FD
:1013C00009F4E4C18E010F5F1F4F813160F48D304D
:1013D00009F47EC108F47AC18E3009F47DC18F30E2
:1013E00009F4A5C1EEC3823109F4D5C108F4D1C115
:1013F000833109F4FAC18E3F09F49DC2E2C38A81A8
:10140000823009F4FDC3833051F0813009F0D9C333
:101410000E9485269B838C837D836E83D4C38091B9
:10142000140490911504892B09F4CDC380912703EE
:10143000909128039B838C838091290390912A03A8
:101440009D838E8380912B0390912C039F838887AB
:1014500080912D0390912E0399878A87B4C38A8146
:10146000823009F0AEC36B817C818D819E810E94A8
:101470001C3386E290E00E94DA32A5C32D813E81C2
:101480003227232732274C816B818A810E946B2966
:101490009AC30E94A12997C38A81813421F08234A2
:1014A00009F43BC090C34B815C8180914B03982F22
:1014B00093704115510539F49111109211018C7FEF
:1014C00080934B031FC0911102C0109211018C7FB9
:1014D000816080934B032CE933E06CEC73E0F901FD
:1014E000329685919491F901A591B4914A175B07C1
:1014F00031F02C5F3F4F6217730789F780E060E09F
:101500000E948F2F8D8180934F038E8120E048852C
:101510006F8190E00E94342F56C34B815C818D8196
:10152000B3E08B9F900111242E3131050CF04BC399
:10153000DE011196FA01EE0FFF1FE40FF51FE155D2
:10154000FD4F20E030E090E02817390708F03BC35A
:101550001396B901640F751F6832710508F033C323
:1015600012966C911297608313966C911397618316
:1015700014966C9114976D3308F06CE362832F5FBF
:101580003F4F3396E1CF8A81823409F442C028F478
:10159000803451F0813471F016C3833409F459C09A
:1015A000843409F459C00FC381E08B831C828CE31F
:1015B0008D8309C380914B03982F9370B1F086956A
:1015C000869590E02CE933E06CEC73E0F9013296FB
:1015D000A591B491F901459154918A179B0741F067
:1015E0002C5F3F4F6217730789F790E080E002C0DD
:1015F000942F852F9B838C8380914F038D838091C3
:101600004C038E8380914D038F8380914E03888796
:10161000DAC20B811C814EE150E06FEF70E0CE0129
:1016200003960E9439338CE993E0DE0113962EE194
:10163000FC01459154910417150728F4223018F045
:101640004D935D9322500496E3E08C3C9E0781F716
:10165000BAC288E28B839CC18B8190E0883291056D
:101660000CF0B1C2FC01EE0FFF1FE959FE4F2081C3
:101670002B83FC01EE0FFF1FE55CFE4F25A52C839D
:10168000FC01E954FE4F20812D832FEF2F832E8301
:101690006BE371E040E050E020E030E0FB01E20F5E
:1016A000F31FE081F0E08E179F0719F44E832F831C
:1016B0008AC22F5F3F4F2B30310581F74F5F5F4F5D
:1016C000655F7F4F4430510539F77DC280E136C2F6
:1016D00081E08A8389EA16C2EA80FB80FE24EF2437
:1016E000FE24AC80B12CFDE1AF16B10408F06BC252
:1016F0006801C701895A9D4F9601201B310B2A159D
:101700003B0508F060C229EAE21621E0F20630F457
:101710000E94BC32D60114968C9302C0F60114824A
:10172000FFEFEF1AFF0A2FEFC21AD20AE2CF809121
:10173000140490911504892B09F445C2EA80FB80BA
:10174000FE24EF24FE24CC80D12C3DE1C316D1042D
:1017500008F039C25801C701895A9D4F9501201BD5
:10176000310B2C153D0508F02EC249EAE41641E084
:10177000F40628F4D50114966C910E94DA32BFEF7A
:10178000EB1AFB0AEFEFAE1ABE0AE5CF0E94F32870
:101790001AC285E0D3C1EA80FB80FE24EF24FE2438
:1017A000AC80B12CFDE1AF16B10408F00CC26801A9
:1017B000C70187969601201B310B2A153B0508F0BF
:1017C00002C228EBE21621E0F20630F40E94BC329D
:1017D000D60114968C9302C0F6011482FFEFEF1A23
:1017E000FF0A2FEFC21AD20AE3CFEA80FB80FE2461
:1017F000EF24FE24AC80B12C3DE1A316B10408F027
:10180000E2C148EBE41641E0F40608F0DCC188EBE5
:1018100091E08E199F098A159B0508F4D4C1370100
:1018200067E2660E711C8091140490911504892B57
:1018300011F0680160C0E0FE0FC0C70186960E94EB
:10184000BC3290E0982F88272D81822B81159C45F2
:1018500031F48FEF8D8303C0C12CD12C03C0CC2475
:10186000C394D12CC5018E0D9F1D450180FF1BC067
:1018700081E0881A910855E0452E512C4C0E5D1ED2
:10188000480C591CC3018A0D9B1D0E94BC32D20119
:101890002C9130E0322F2227282B21153C4519F4BA
:1018A0008FEFF2018083F801EC0DFD1D2FEFCF01CA
:1018B000801B910B8815990508F0BBCF848190E0BF
:1018C000982F88273581832B81159C4511F424831B
:1018D00025833296ECCF48EBE41641E0F40628F479
:1018E000D60114966C910E94DA32BFEFEB1AFB0A14
:1018F000EFEFCE1ADE0AC70187969601201B310B47
:101900002A153B0540F35FC18091140490911504A2
:10191000892B09F458C1CE0101960E94921CFFEF59
:1019200001EE24E0F15000402040E1F700C000004B
:101930000E942C2648C1EA818E2F90E08E309105BE
:1019400008F041C1FC01EA5AFF4F0C94163388E0BD
:10195000E2E1F1E0DE01919601900D928A95E1F7C6
:1019600080E2D8011D928A95E9F784E0898388E0B6
:10197000FE01B196DE01159601900D928A95E1F770
:1019800081E08D8720C184E7898382E08A831B827E
:101990001C8219C18C8190E0982F88272B81820F9F
:1019A000911D092E000CAA0BBB0B35E0880F991F67
:1019B000AA1FBB1F3A95D1F7AC01BD01405E5F4F36
:1019C0006F4F7F4F481759076A077B0708F4FBC022
:1019D0008437E2E09E07A105B10508F0F4C0453761
:1019E000F2E05F076105710520F044E752E060E036
:1019F00070E0481B590BBC01685D7E4FC8010E9416
:101A0000A332E1C01B810C8140E0602F812F0E9436
:101A10003B2999838A8341E0602F812F0E943B29D3
:101A20009B838C83D0C02E813F813227232732278E
:101A30004D816C818B810E940329C5C040E250E03A
:101A40006FEF70E0C8010E943933809114048983DC
:101A5000EA821B821C821D8281E0D9C081E090E075
:101A6000909317048093160482E390E09093AE0263
:101A70008093AD020E9491269093AC028093AB02BA
:101A8000A2C0EF28B9F180912703909128039C010F
:101A9000369527958170182F12238091AB02909173
:101AA000AC020E94762685369105F0F01123E1F014
:101AB0000E9491269093AC028093AB028091AD027C
:101AC0009091AE0201979093AE028093AD02892B64
:101AD00089F4109217041092160481E090E090931C
:101AE00015048093140406C082E390E09093AE0244
:101AF0008093AD02809114048983809116048A83B7
:101B00008091AD028B835FC0109215041092140473
:101B10005AC040E250E06FEF70E0C8010E943933D4
:101B200052C08B81833061F0843061F181114BC0F0
:101B300080E2D8011D928A95E9F788E08A8343C044
:101B40006C81CE0181962AE0FC0111922A95E9F779
:101B5000683060F4FAE06F9FB0011124695F7D4F37
:101B60004AE050E00E94AC3280E001C08FEF8983F0
:101B70008AE0FE01B196DE01129601900D928A95DF
:101B8000E1F721C06C818AE0FE013596DE01919675
:101B900001900D928A95E1F7683070F40AE0609F39
:101BA000B0011124695F7D4F4AE050E0CE0181967B
:101BB0000E94FE3280E001C08FEF89830E94792A63
:101BC00002C08FEF8983CE0101960E94921C0C9473
:101BD000CC0509BD19BD09B400FEFDCF8091D80028
:101BE0008F7D8093D8008091E00082608093E00038
:101BF0008091E00081FDFCCF0E94711F0C94D30501
:101C000086E290E00E94BC321B821C821D828E8381
:101C1000DACF8E2D90E08C30910580F080910D010F
:101C20008F5F80930D0182E08093110180910F01FD
:101C3000811151CAEE2009F426CA4DCAFC01EC59A3
:101C4000FF4F0C94163380910F01882309F4C0C212
:101C500040E060E080E00E94BD2FBAC210910D010B
:101C6000110F110F110F08E0010F093208F008E2FF
:101C700060914C0370914D0380914E030E9485301A
:101C8000F62ED72EC82E101708F0CAC1E12FF0E0AB
:101C9000DF01A954BE4F8C9190910E01982331F031
:101CA0002C2D4F2D6D2DCF010E94BF2F1F5FEBCF2D
:101CB00010910D01110F110F110F08E0010F0932E2
:101CC00008F008E2D0904D03F0904E03C0904C0312
:101CD000B6018F2D0E948530B62EA72E982E6091CA
:101CE0004F036C0D7D2D8F2D0E948530F62ED72E43
:101CF000C82E101708F094C1E12FF0E0DF01A954BD
:101D0000BE4F8C9190910E01982361F080FF04C02A
:101D10002C2D4F2D6D2D03C0292D4B2D6A2DCF015C
:101D20000E94BF2F1F5FE5CFF0900D01FF0CFF0C4D
:101D3000FF0C08E0D02EDF0C48E24D1510F418E23D
:101D4000D12EB0904D03A0904E0320914F03632DF0
:101D5000629F612D1124C62EFD1418F50F2D10E081
:101D6000F801E954FE4F908180910E018923B9F06A
:101D7000F801EE0FFF1FE55CFE4F85A582958F7081
:101D800060914C038C9D600D11247B2D8A2D0E9447
:101D90008530462F282F672FC8010E94BF2FF3944C
:101DA000DBCF81E077E27D1508F013C211C2F0901D
:101DB0000D01FF0CFF0CFF0CA8E0DA2EDF0C88E20F
:101DC0008D1510F4F8E2DF2EB0904D03A0904E0375
:101DD00020914F03032D029F012D1124C02EFD14CD
:101DE00038F50F2D10E0F801E954FE4F90818091F5
:101DF0000E018923D9F0F801EE0FFF1FE959FE4FBC
:101E00006081C69EB0011124E5E075956795EA955D
:101E1000E1F780914C03680F7B2D8A2D0E9485305D
:101E2000462F282F672FC8010E94BF2FF394D7CFCA
:101E300081E027E22D1508F0CCC1CAC1F0900D0158
:101E4000FF0CFF0CFF0C48E0D42EDF0C38E23D15F0
:101E500010F438E2D32E60914F03669580914703CA
:101E6000909148030E947B30C82EFD1408F042C0B8
:101E70000F2D10E0F801E954FE4F908180910E0182
:101E80008923B1F1F801EE0FFF1FE959FE4F4081A0
:101E900050E044565109F801EE0FFF1FE55CFE4F7C
:101EA00025A530E020523109449FB001459F700DB7
:101EB000700D1124229FC001239F900D900D1124BD
:101EC000860F971F0E94213090914D0343E0849F1D
:101ED000B0011124759567956C0D792F80914E0393
:101EE0000E948530462F282F672FC8010E94BF2FE0
:101EF000F394BBCF81E067E26D1508F06AC168C159
:101F000010910D01110F110F110F08E0F02EF10EBD
:101F100078E27F1510F4B8E2FB2E60914F036695CE
:101F200080914703909148030E947B30B82E1F1583
:101F300078F5C12ED12CF601E954FE4F90818091A5
:101F40000E01892319F1F601EE0FFF1FE55CFE4F2C
:101F500025A530E020523109F601EE0FFF1FE959A7
:101F6000FE4F408150E04456510960914C037091FE
:101F70004D0380914E030B2D0E9452300E948530FC
:101F8000462F282F672FC6010E94BF2F1F5FCFCF7C
:101F900081E097E29F1508F01CC11AC110910D0154
:101FA000110F110F110F08E0010F093208F008E2BC
:101FB000D0904D03F0904E03C0904C0360914F03BE
:101FC00066956695669580914703909148030E94B7
:101FD0007B300E94DC2F805887FD8195880F682F09
:101FE0002CE0629F612D11246C0D7D2D8F2D0E94A0
:101FF0008530F62ED72EC82E101790F4E12FF0E082
:10200000DF01A954BE4F8C9190910E01982331F0BD
:102010002C2D4F2D6D2DCF010E94BF2F1F5FECCFB8
:1020200081E0083208F4D5C0D3C08DEF9FE202C032
:1020300081EB9EE20E946F17CCC000910D01000F52
:10204000000F000F68E0962E900EACE2A91510F478
:102050005CE2952E80910F01882361F040E060E002
:1020600080E00E94BD2F8CE2E5E5F2E0DF011D92E9
:102070008A95E9F780910D01811115C08091530275
:10208000909154020E94762621E08931910508F44E
:1020900020E020935202499730F00E9491269093BD
:1020A00054028093530210E0492C512C4BE0842EB3
:1020B000041515050CF05EC03801B3E06B227724DF
:1020C0006801D594C794D594C794869CC001879C19
:1020D000900D1124FC01EB5AFD4FEC0DFD1DF0801D
:1020E000855C9E4FFC01EC0DFD1D80818F3F59F1F9
:1020F000A82EB12CF501E954FE4F908180910E017C
:10210000892309F13F2D25E5321B08F430E0709159
:102110004D032AEA4F2D240F08F42FEF40914E0370
:1021200062E0269F200D11242E5F249F212D112473
:102130006AEA631B822F0E948530462F282F672F63
:10214000C5010E94BF2F80915202882381F02F2D5C
:1021500071E0271B08F420E0869CC001879C900D4D
:1021600011248B5A9D4FFC01EC0DFD1D20830F5F48
:102170001F4F9ECF81E09BE2991558F529C0F09042
:102180000D01FF0CFF0CFF0C28E0D22EDF0CA8E2A3
:10219000AD1510F498E2D92EFD14B0F40F2D10E017
:1021A000F801EE0FFF1FE00FF11FE155FD4F6081B9
:1021B000718182810E948530462F282F672FC801A8
:1021C0000E94BF2FF394E8CF81E0B7E2BD1508F479
:1021D00080E090910D019F5F90930D01882309F499
:1021E00022CD0C946B088F929F92AF92BF92CF92A8
:1021F000DF92EF92FF920F931F93CF93DF9300D064
:1022000000D0CDB7DEB7FC0180819181238134817C
:10221000232B31F09F3F31F491E08F3F19F403C03D
:1022200091E001C090E090FD64C57F0161E0CF01C5
:102230000E94992B8C01F7019281992309F482C0A5
:10224000980122513F452031310508F041C58FEFFB
:1022500093E00E94BC3281117EC09EEED92ED00E3A
:1022600007E512E0DD2071F00115F4E01F0709F425
:1022700072C0C8010E94BC32811101C0DA940F5FA4
:102280001F4FF0CF19821A821B821C82AA24AA94A3
:1022900068012FEFC21AD20AC8010E94BC3289839A
:1022A0001A82882309F457C0813009F046C04801DA
:1022B00082E0880E911CC6010E94BC328A8388236A
:1022C00009F449C09FEF980F933060F4680193E0E0
:1022D000C90ED11CC4010E94BC328B8381112DC058
:1022E0008601D6CF843011F06401FACFC4010E9478
:1022F000BC32B82E6801E4E0CE0ED11CC8010396B2
:102300000E94BC32BB2039F1882329F1282F30E00C
:1023100021503109A29EA001A39E500D11248B2DA6
:1023200090E00197840F951F0197D0F2EFE9FFE04D
:102330003197F1F700C00000F7CFCE0101960E945F
:10234000E62ACECF0031FFE51F0799F481E00E9415
:10235000561F0E9464178091B903877009F4C9C49D
:10236000F7018281882309F4C4C482E00E94C0235B
:10237000C0C401312FE5120711F482E0E8CF093320
:10238000110571F4992309F494C1809124028823E2
:1023900019F0109224024EC081E0809324024AC0BA
:1023A000033F2CE5120759F190F4083DECE51E07B8
:1023B000E9F0093DFCE51F07A1F1073D2CE51207F7
:1023C000B1F506E221EE41EE67ED7CE514C0053F74
:1023D0008CE5180701F1C8F0063FFCE51F0739F549
:1023E00007E225EE46EE66EF7CE505C007E225EE46
:1023F00045EE68ED7CE5C7010E948028ACCF06E27F
:1024000021EE40EE63EF7CE5F6CF07E225EE44EEE9
:1024100064EF7CE5F0CF06E221EE42EE65EF7CE56D
:10242000EACF08E221E045EE69ED7CE5E4CF9923AF
:1024300009F43FC110921A0402302CE5120708F487
:1024400022C106318CE5180738F098012A5F3C4517
:102450002930310508F017C10E94072390931B0211
:1024600080931A0200319CE5190709F4C3C008F0F3
:1024700041C00830FCE51F0709F49AC0F0F40430AD
:102480008CE5180709F487C068F40230ECE51E07F4
:1024900009F477C003301C4509F0E5C080911A02A9
:1024A000826076C006302CE5120709F46EC008F091
:1024B0007BC080911A0288606BC00C309CE51907C4
:1024C00009F485C068F40A30FCE51F0709F474C0FC
:1024D00008F079C00E94711F80911A02806858C06C
:1024E0000E308CE5180709F476C008F07FC08091A3
:1024F0001A028BC00B3FECE51E0709F44FC018F51C
:1025000003312CE5120709F47DC078F401319CE514
:10251000190709F473C002311C4509F0A4C00E94D8
:10252000711F80911A028F7733C00531FCE51F07B8
:1025300009F472C008F486C00A3F1C4509F093C034
:1025400080911B023EC00F3F9CE5190709F45FC054
:1025500058F40D3FFCE51F0709F444C008F43FC0E0
:1025600080911B0282602DC001308DE5180709F4AF
:1025700075C008F45DC002301D4509F074C060E00C
:102580006EC080911A02816003C080911A0280613E
:1025900080931A0268C080911A0211C080911B02B8
:1025A000826080931B025FC080911A028062F0CF2C
:1025B00080911A028064ECCF80911A028860846056
:1025C000E7CF8160EECF80911A028E7FE1CF8091BC
:1025D0001A028D7FDDCF80911A02877FD9CF80913B
:1025E0001B0218C080911B028D7FDBCF80911A02E5
:1025F0008F7ECECF80911A028F7DCACF80911A0232
:102600008F7BC6CF80911A02877F8B7FC1CF80914D
:102610001B028D7F8E7FC5CF80911A0282FB2227FD
:1026200020F991E0922790FB82F990FB83F9B0CFDB
:1026300080911B02982F909591708E7F892B90FB33
:1026400081F9AFCF0E94711F80911A0287FB222768
:1026500020F991E0922790FB87F99ACF61E08EE014
:1026600090E00E94DA3260911A0210911B0284E01D
:1026700090E00E94DA32612F82E290E00E94DA322A
:102680000E94711F68CE8091BC030631FCE51F07D4
:1026900009F58A7A91E009F490E090932F0388235A
:1026A00011F065E301C069E284E693E00E94D3265D
:1026B0000EC006311C4509F0B6C080912F03882357
:1026C00009F415C365E384E693E00E94C6260E94E0
:1026D000612541CE8272093CFCE51F0709F45AC00E
:1026E00028F5053CECE51E0709F445C0A8F4033CB9
:1026F0002CE51207B1F1D0F5023CFCE51F0709F00B
:102700005FC080914B0391E0892780934B03109227
:1027100011019093D1041FCE073C2CE5120781F1E3
:10272000A0F545E85FE26BE77FE242C00D3CECE5D7
:102730001E0709F440C050F40B3C2CE5120779F158
:1027400098F544E55FE267E47FE232C0063DECE5E0
:102750001E0708F400CE0D35FDE51F0709F4FBCD7B
:102760002FC048EA5FE262EB7FE222C042EB5FE209
:1027700068EA7FE21DC04BE75FE265E87FE218C0D0
:1027800041E65FE26EE67FE213C04EE65FE261E69D
:102790007FE20EC047E45FE264E57FE209C049E9F9
:1027A0005EE265EA7EE204C045EA5EE269E97EE255
:1027B0000E942E2FD0CD61E081E00E948F2FCBCDE3
:1027C000992389F10A352DE5120741F150F40115DD
:1027D0009CE51907A9F00E3D1C4529F50E9423230D
:1027E000BACD0B35FDE51F07D9F00C351D45D9F4E1
:1027F00080911B0282FB882780F991E0892711C014
:102800000E94711F8FEF94E3ECE081509040E04014
:10281000E1F700C000000E942C269DCD81E001C0A0
:1028200080E00E949F23F701868197810097B9F489
:10283000F701828100811181882349F0C8010E943B
:10284000C61CD82E682FC8010E94231F04C0C801CF
:102850000E94F31ED82EB8018D2D0E94662A0E9478
:102860007E21D82E192FF701A280058102950F70C5
:102870008091B903877099F0AA2089F0892F807F11
:10288000803421F080E28D0D883048F082E00E9493
:10289000C0238091B9038770CC24C3948111C12CCB
:1028A000B12EB2948FE0B8228B2D90E08C30910540
:1028B00008F0EAC1FC01E059FF4F0C941633812F58
:1028C000807F1F70882311F01295107FAA20B9F025
:1028D000112309F4BBC180E28D0D883010F0D110B6
:1028E00006C09091BC03192B1093BC0305C09091B6
:1028F000BB03192B1093BB030E946125A7C18D2D2B
:102900000E941320112309F4BFC180E28D0D88308D
:1029100010F0D11004C0812F0E94982306C010959A
:102920009091BB0319231093BB030E946125ACC196
:10293000812F807F1F70803211F01295107FDD2073
:1029400029F0F1E0DF1609F43FC048C0AA2041F1A8
:10295000002301F1013099F480911B0282FD94C1A2
:102960008091BF03182B181709F48EC10E9491267D
:102970009093BE038093BD031093BF0385C10530C0
:1029800049F40E948D238091B603181759F11093D2
:10299000B60328C08091BF03812B0E94092074C117
:1029A000002349F0013069F48091BC03812309F4CC
:1029B0006BC10E94DD230E948D23812F0E94022083
:1029C00063C10530C1F760C1AA2021F0063008F0CC
:1029D0005BC108C0053008F057C1EFCFAA2021F035
:1029E000011134C1812FD9CF002339F329E3D21249
:1029F00008C08FEF97EEE3E081509040E040E1F7B0
:102A00003EC1FFE728E381E0F15020408040E1F73C
:102A100036C1812F86958695837019F0813061F0DB
:102A200033C1AA2021F08D2D912F937002C080E038
:102A300090E00E9403272EC1AA2021F08D2D912F16
:102A4000937002C080E090E00E94ED2623C1812FA8
:102A50008370A9F5A1101CC14D2D42954695477074
:102A6000440F440F8D2D8F7090E09C01042E01C007
:102A7000220F0A94EAF7D4FE08C08FE090E001C06C
:102A8000880F4A95EAF7809501C080E01695169563
:102A90001370123069F088F49091C003113019F06E
:102AA000822B892302C0922B892B0E946D1FF0C0BC
:102AB000822B9091C0038927F8CF822BF6CFAA20D2
:102AC00019F0812F817001C08695882309F4E0C038
:102AD0004D2D429546954770440F440F8D2D8F70B4
:102AE00090E09C01042E01C0220F0A94EAF7D4FE64
:102AF00008C08FE090E001C0880F4A95EAF7809502
:102B000001C080E0169516951370123059F078F4D4
:102B100090915103113019F0822B892309C0922B17
:102B2000892B06C0822B90915103892701C0822BEB
:102B30000E94501FADC01F70AA2039F0812F0E9443
:102B4000621F8D2D0E940920A3C08D2D0E9402209E
:102B5000812F0E94561F9CC092EFD91659F19D15E6
:102B600038F0E0EFDE1659F0F1EFDF16E1F069C062
:102B700023EFD21631F184EFD81681F162C0AA207A
:102B800071F0053008F080C01F7181E090E001C055
:102B9000880F1A95EAF79091510389271CC00630D7
:102BA00008F072C0F1CFAA2039F0812F8F710E94F6
:102BB000621F6AC0AA20C9F3812F8F710E94561F1D
:102BC00063C0AA2039F01F7181E001C0880F1A95F7
:102BD000EAF701C080E00E94501F56C0AA20D1F041
:102BE0008091B6030E9498238091B9038770843046
:102BF00039F40E94B923812F8F710E94561F66C03D
:102C0000053008F063C01F71812F0E94621F63E0CE
:102C1000812F10C09091BC038091B603892B8093C3
:102C2000BC03053050F00E94B9230E94DD2364E00C
:102C3000812F8F710E949E2549C081E00E94C02390
:102C400045C0AA2039F0002309F4AFCF8D2D0E9492
:102C50006A201AC0002309F4AFCF99E3D91208C043
:102C6000EFEFF7EE23E0E150F0402040E1F707C03E
:102C70008FE798E3E1E081509040E040E1F700C049
:102C800000008D2D0E94132088EF8B0D843010F4EE
:102C90000E941927CC20A9F08091B90380FD11C0B2
:102CA000F70112828595859585950E94621FC7015F
:102CB0000E94F3108091B9038595859585950E94B2
:102CC000561F60E0C7010E94992B13C0C12CE0CFB2
:102CD00000318FE5180711F481E006C00131EFE5FE
:102CE0001E0709F04CCB82E00E94621F32CB69E2E2
:102CF000EACC0F900F900F900F90DF91CF911F9122
:102D00000F91FF90EF90DF90CF90BF90AF909F908A
:102D10008F90089580913E0387FF11C08091E80055
:102D200082FD05C0809146038111F8CF11C08091CA
:102D3000E8008B770BC080914603882349F080918F
:102D4000E80080FFF8CF8091E8008E778093E8005C
:102D50000895982F973068F59093E900981739F007
:102D60007091EC002091ED005091F00003C0242FF1
:102D7000762F50E021FD02C09F5FECCF3091EB0039
:102D80003E7F3093EB003091ED003D7F3093ED00BE
:102D90003091EB0031603093EB007093EC002093A6
:102DA000ED005093F0002091EE0027FDE5CF80E08C
:102DB00008958F708093E90081E008952091440385
:102DC000309145032617370748F06115710539F42E
:102DD0002091E8002E772093E80001C0B901FC01A2
:102DE00020E06115710579F1809146038823F1F1A6
:102DF0008530F1F18091E80083FD3CC08091E800CE
:102E000082FD2EC08091E80080FFEBCF2091F3007F
:102E10008091F20090E0922B6115710551F088309D
:102E2000910538F421912093F100615071090196C8
:102E3000F3CF21E0089709F020E08091E8008E7739
:102E40008093E800CECF2111CFCF0AC080914603F6
:102E5000882361F0853061F08091E80083FD0AC02D
:102E60008091E80082FFF2CF80E0089582E008952B
:102E700083E0089581E00895BC0184E00C9402266B
:102E8000BC0183E00C9402260F931F93CF93DF9332
:102E900000D000D0CDB7DEB789836A834B831C8214
:102EA00004E610E024E030E0AE014F5F5F4F60E0E9
:102EB00084E10E9416320F900F900F900F90DF91D7
:102EC000CF911F910F91089580915103982F967083
:102ED000963011F4886001C0877F0C94501FDF92F8
:102EE000EF92FF920F931F93CF93DF938C01C091CA
:102EF0000D01CC0FCC0FCC0FD8E0DC0FD93208F08D
:102F0000D8E260914F036695669521E0620F08F460
:102F10006FEF80914703909148030E947B30D82E39
:102F2000CD17F0F4EC2EF12CF701E954FE4F90810F
:102F300080910E01892391F060914C0370914D03B3
:102F400080914E032D2D4C2FF80109950E9485305C
:102F5000462F282F672FC7010E94BF2FCF5FE0CFDA
:102F600081E0D83208F080E0DF91CF911F910F917E
:102F7000FF90EF90DF9008951F93CF93DF93CDB72D
:102F8000DEB7AA970FB6F894DEBF0FBECDBFEEE353
:102F9000F3E08091F100819343E0E634F407C9F750
:102FA00080913F03833009F462C030F4813071F0C6
:102FB000823009F49CC0B3C08A3009F488C08B30D9
:102FC00009F46DC0893009F0AAC020C080913E0389
:102FD000813A09F0A4C08091E800877F8093E800DF
:102FE0008091420390914303892B21F468E083E3AD
:102FF00093E003C060E080E090E070E00E94DE16A5
:103000008091E8008B778093E80089C080913E032F
:10301000813209F084C0809142039091430300976C
:1030200019F0029709F07BC08091E800877F8093B8
:10303000E8008091E80082FD05C08091460381117F
:10304000F8CF6DC02091F3008091F20090E0922BB8
:10305000029729F48091F1008B7F813021F48091D7
:10306000F100809332038091E8008B7754C0809107
:103070003E03813A09F053C080914203909143038B
:10308000892B09F04CC08091E800877F8093E8008D
:103090008091E80080FFFCCF80910C0137C08091C7
:1030A0003E038132E1F58091420390914303892BE5
:1030B000B1F58091E800877F8093E8000E948A162E
:1030C0008091400380930C010E94711F28C0809161
:1030D0003E03813221F58091E800877F8093E800EC
:1030E0000E948A16809141038093310318C0809119
:1030F0003E03813AA1F48091E800877F8093E80045
:103100008091E80080FFFCCF809131038093F10033
:103110008091E8008E778093E8000E948A16809163
:10312000E80083FFE9C180913E0390913F03492F5E
:1031300050E04A30510508F0DFC1FA01E458FF4F72
:103140000C941633803821F0823809F0D5C108C0BC
:1031500080913B0390913C03992389F082600FC0DA
:10316000809142038F70873008F0C6C18093E900D8
:103170008091EB0085FB882780F91092E9009091FF
:10318000E800977F9093E8008093F1001092F1009F
:103190007CC1282F2D7F09F0AFC1882319F0823020
:1031A00061F0AAC180914003813009F0A5C193303C
:1031B00009F080E080933C032EC080914003811190
:1031C0002AC0809142038F702FEF280F263008F01D
:1031D00093C18093E9002091EB0020FF1CC0933045
:1031E00021F48091EB00806214C09091EB0090611B
:1031F0009093EB0021E030E0A90102C0440F551F7D
:103200008A95E2F74093EA001092EA008091EB0081
:1032100088608093EB001092E9008091E800877F3E
:103220008093E8000E948A1667C1811165C11091E0
:1032300040031F778091E3008078812B8093E30027
:103240008091E800877F8093E8000E948A16809131
:10325000E80080FFFCCF8091E30080688093E3006A
:10326000111102C082E001C083E08093460344C193
:103270008058823008F040C12091400330914103D2
:103280002C3D53E0350779F583E08A838AE2898310
:103290004FB7F894DE01139620E03EE051E2E32FB1
:1032A000F0E050935700E49120FF03C0E295EF70E7
:1032B0003F5FEF708E2F90E0EA3010F0C79601C0AC
:1032C000C0968D939D932F5F243149F74FBF809116
:1032D000E800877F8093E8006AE270E0CE01019603
:1032E0000E94DE16C0C08091420390914303432F99
:1032F000552743305105B1F068F44130510509F4C8
:103300000AC14230510509F0F7C08BE590E0EFEAC1
:10331000F4E057C04132510589F14232510509F4B8
:103320003CC0EAC0C901992781309105B9F070F01D
:1033300082309105D9F0039709F0DEC0ECE1F5E0A9
:10334000E4918E2F90E0ECE1F5E038C0E4E8F5E0A0
:10335000E4918E2F90E0E4E8F5E030C0E8E6F5E097
:10336000E4918E2F90E0E8E6F5E028C0EAE3F5E08E
:10337000E4918E2F90E0EAE3F5E020C083309105E0
:1033800008F0BAC0880F991FFC01EB5CFE4F01905A
:10339000F081E02D89E090E014C08330910508F0C1
:1033A000ABC0FC01EE0FFF1FE15DFE4F0190F0810D
:1033B000E02DDC01A45DBE4F8C9190E0009709F4F4
:1033C0009BC02091E800277F2093E80020914403D0
:1033D000309145032817390708F4C90140E00097E8
:1033E00089F120914603222309F43DC02530D9F10B
:1033F0002091E80023FD37C02091E80022FD2FC076
:103400002091E80020FFEBCF4091F3002091F200E3
:1034100030E0342B009759F02830310540F44491C6
:103420004093F100319601972F5F3F4FF3CF41E07A
:103430002830310509F040E02091E8002E772093F4
:10344000E800CDCF4111CDCF0AC08091460388233B
:1034500051F0853041F08091E80083FD04C08091F7
:10346000E80082FFF2CF8091E8008B778093E8003C
:1034700043C0803809F040C08091E800877F809386
:10348000E80080913D038093F1008091E8008E7701
:10349000C7CE811131C0809140039091410399279B
:1034A000029754F58091E800877F8093E80010919F
:1034B000400310933D030E948A16111106C08091AB
:1034C000E30087FD02C081E001C084E080934603F1
:1034D00042E061EC81E00E94A91642E261EC84E0E6
:1034E0000E94A91642E261EC82E00E94A91642E223
:1034F00060EC83E00E94A9168091E80083FF10C071
:103500008091E800877F8093E8008091EB008062E3
:103510008093EB0005C082E190E0EAE0F5E051CF56
:10352000AA960FB6F894DEBF0FBECDBFDF91CF9144
:103530001F9108951F920F920FB60F9211242F938F
:103540003F934F935F936F937F938F939F93AF932B
:10355000BF93CF93DF93EF93FF93C091E900CF70B8
:103560008091EC00D82FD17080FDD0E81092E90056
:103570008091F000877F8093F00078940E94BC17C0
:103580001092E9008091F00088608093F000CD2BCC
:10359000CF70C093E900FF91EF91DF91CF91BF9180
:1035A000AF919F918F917F916F915F914F913F91DB
:1035B0002F910F900FBE0F901F901895E8EDF0E03F
:1035C00080818E7F80831092E2001092DA00109248
:1035D000E100A0EEB0E08C9181608C9380818F77C8
:1035E000808319BCA7EDB0E08C918E7F8C93808195
:1035F0008F7E8083109230030895CF92DF92EF92F6
:10360000FF920F931F93CF93DF93C8EDD0E0888193
:103610008F7E8883E7EDF0E080818160808384E0A5
:1036200082BF81E08093300388818E7F888302EEA1
:1036300010E0F80110821092DA0081EEC82ED12C31
:10364000F601108288818F778883888180688883DB
:1036500088818F7D888319BC1092460310923D03A8
:1036600010923C0310923B0390EEE92EF12CF701EF
:1036700080818B7F808388818160888342E060E0E5
:1036800080E00E94A916F60180818E7F8083F80178
:10369000808181608083808188608083F701808160
:1036A0008E7F8083888180618883DF91CF911F9195
:1036B0000F91FF90EF90DF90CF9008951F920F929F
:1036C0000FB60F9211242F933F934F935F936F93F5
:1036D0007F938F939F93AF93BF93EF93FF938091CB
:1036E000E10082FF09C08091E20082FF05C0809165
:1036F000E1008B7F8093E1008091DA0080FF2AC097
:103700008091D80080FF26C08091DA008E7F809360
:10371000DA008091D90080FF18C080E189BD82E184
:1037200089BD09B400FEFDCF81E0809346038091FE
:10373000300381110FC00E94DE1A0E94FD1A809191
:10374000E20084608093E20005C019BC1092460339
:10375000109230038091E10080FF17C08091E20059
:1037600080FF13C08091E2008E7F8093E200809101
:10377000E20080618093E2008091D80080628093B3
:10378000D80019BC85E0809346038091E10084FF56
:103790002EC08091E20084FF2AC080E189BD82E1D1
:1037A00089BD09B400FEFDCF8091D8008F7D809344
:1037B000D8008091E1008F7E8093E1008091E2004B
:1037C0008F7E8093E2008091E20081608093E2002E
:1037D00080913D03882311F084E007C08091E300CD
:1037E00087FD02C081E001C083E0809346038091A1
:1037F000E10083FF27C08091E20083FF23C0809116
:10380000E100877F8093E10082E08093460310927D
:103810003D038091E1008E7F8093E1008091E20082
:103820008E7F8093E2008091E20080618093E200CD
:1038300042E060E080E00E94A9168091F00088607C
:103840008093F000FF91EF91BF91AF919F918F9185
:103850007F916F915F914F913F912F910F900FBE8C
:103860000F901F9018952091E4003091E50095E6A7
:103870004091EC00842F817040FF23C08091E800CC
:1038800080FD1DC080914603882399F0853099F012
:103890008091EB0085FD11C04091E4005091E5005E
:1038A0002417350729F3915011F09A01E1CF84E0F4
:1038B000089582E0089583E0089581E0089580E00E
:1038C00008954091E80042FFDDCF0895EF92FF9206
:1038D0000F931F93CF93DF937C018B010E94331CC6
:1038E000811119C0E70101151105A1F08091E800CF
:1038F00085FD0AC08091E8008E778093E8000E94E1
:10390000331C882381F307C089918093F100015013
:103910001109E9CF80E0DF91CF911F910F91FF90C6
:10392000EF900895CF93209146032430F9F4C0918D
:10393000E900CF703091EC00232F217030FD20E89A
:10394000C22B22E02093E9002091E80020FF0BC069
:1039500040E050E060E270E00E94661C8091E80068
:103960008E778093E800CF70C093E900CF910895DF
:1039700080E090E00E94032780E090E00E94ED2626
:103980001092BB031092BA030C946125CF92DF9280
:10399000FF920F931F93CF93DF936C01009151031C
:1039A0008091C003082BC7E0D0E010E0C8010C2EC6
:1039B00002C0959587950A94E2F780FD04C021978F
:1039C000A8F7F12C09C0FC2EB6018C2F0E94662AA4
:1039D0000E947E21019799F38F2DDF91CF911F9146
:1039E0000F91FF90DF90CF900895CF93DF93EC017C
:1039F0000E94C61CBE010E94662A0E947E21DF91A1
:103A0000CF910895FC0186819781009719F00E945B
:103A10007E2104C0808191810E94F51C292F2F7086
:103A2000E92FE295EF704E2F50E0FA013297EE3019
:103A3000F105B8F4EA57FF4F0C941633803F99F024
:103A400018F4883E70F40FC0843F59F40CC0883ECF
:103A500050F0813F31F407C0822F86958695869578
:103A6000089580E0089581E008959F92AF92BF92FB
:103A7000CF92DF92EF92FF920F931F93CF93DF933A
:103A8000CDB7DEB765970FB6F894DEBF0FBECDBFDA
:103A90008C0185E0F801DE01519601900D928A9526
:103AA000E1F7F801E28090916C0360916D03409121
:103AB0006F03509170034115510531F06F3F31F4A0
:103AC00081E09F3F19F403C081E001C080E0F82F3E
:103AD000F1709F2E80FD37C1F80130812181C380B4
:103AE000D4807CE6A72E73E0B72EF0906E03F6012B
:103AF000E41BF50BFF2009F4F5C080917103E83C4D
:103B0000F10508F0B0C0482F407F09F05AC0621399
:103B10001BC0931319C06091720370917303F80175
:103B2000468157816417750779F4FE2CE1100CC0AB
:103B30008F70806180937103C5010E94F3108091A2
:103B40007103F80185833CC1CD2831F02F3F31F45A
:103B500081E03F3F19F403C081E001C080E080FDB7
:103B600003C081E08E2502C080E090E0F82FF17064
:103B7000FF2E80FF1CC08091B50340917403841711
:103B800009F4FCC090E0FC0153E0EE0FFF1F5A95D2
:103B9000E1F7EB58FC4F5181251306C050815313B8
:103BA00003C05281E51203C001968770E8CFFE2C56
:103BB000EE2009F405C18091710381608093710347
:103BC0005EC0621315C0931313C0409172035091ED
:103BD0007303F801268137814217530749F4E11036
:103BE00007C08583C8010E94F31088E0F80190C0E7
:103BF000C8010E94021D882381F1EE2071F12091FD
:103C00007103822F82958F7090E00297A4F08091CB
:103C10006C0390916D039A8789871B86DD86CC861D
:103C20002E878091720390917303988B8F87CE01BA
:103C300009960E94F31088E0F801ACE6B3E0019029
:103C40000D928A95E1F70E94ED230AC06217C9F030
:103C5000C8010E94021D811127C0C8010E94F310F3
:103C6000FF24F394ADC0482F407F81F78CE693E0AA
:103C70000E94F31088E0F50111928A95E9F7F12C82
:103C80009FC09313E5CF4091720350917303F801E5
:103C90002681378142175307D9F6E110D9CF8583A2
:103CA000C8010E94F31049C0EE20B9F220917103BF
:103CB000822F82958F7090E002970CF4BCCF809198
:103CC0006C0390916D039A8389831B82DD82CC8281
:103CD0002E83809172039091730398878F83CE0116
:103CE0000196A7CFE83CF10540F5FE2CEE2009F443
:103CF000B4CF621314C0931312C020917203309199
:103D00007303F801868197812817390741F488E009
:103D1000ACE6B3E001900D928A95E1F751C0C8017D
:103D20000E94021D811187CF809171038160809371
:103D30007103C8010E94F31043C088E0F50111929D
:103D40008A95E9F73DC0EE2009F487CFC8010E94AB
:103D5000021DF82E882309F480CF88E0F801ACE634
:103D6000B3E001900D928A95E1F780916C039091F8
:103D70006D030E94F51C0E94ED2322C0398B2A8B13
:103D800089899A890E94F51C292F22952F7022304B
:103D900028F49F7039F0811105C00BC0243028F43D
:103DA0009F7049F4805E883020F0C8010E94F310B3
:103DB0009F2CF92C05C0F8019581907F99F7F9CFD8
:103DC0008F2D65960FB6F894DEBF0FBECDBFDF9185
:103DD000CF911F910F91FF90EF90DF90CF90BF9008
:103DE000AF909F9008959E3F61F12BE0929F800DD0
:103DF0001124682F669566956695982F977083E0D5
:103E0000689FB001112440E050E080E0FB01E40F26
:103E1000F51FEE5AFC4F208130E0092E02C0369586
:103E200027950A94E2F721703327042E01C0220F50
:103E30000A94EAF7822B4F5F5F4F4330510531F709
:103E4000089580E008959E3F51F12BE0929F800DF0
:103E50001124E82FE695E695E695877051E001C0BC
:103E6000550F8A95EAF783E0E89FF0011124EE5A96
:103E7000FC4F20E030E070E04081CB01022E02C018
:103E8000969587950A94E2F781708195842785231A
:103E9000842781932F5F3F4F2330310569F70895C1
:103EA0000E94D02B809351030C94B81C21E030E089
:103EB00001C0220F8A95EAF7209580915103822351
:103EC0000C94501F21E030E001C0220F8A95EAF7E0
:103ED00080915103822B0C94501F8093C0030C944B
:103EE000B81C1092BC0386E0E6E6F3E0DF011D9209
:103EF0008A95E9F70C94B81CCF93DF93CDB7DEB762
:103F000060970FB6F894DEBF0FBECDBF29873A8702
:103F10004B875C876D877E878F87988BCE0109964C
:103F20000E94351D811151C088E0FE013996DE01E5
:103F3000119601900D928A95E1F779856A854C85F5
:103F40005D854115510531F06F3F31F481E07F3FD0
:103F500019F403C081E001C080E080FD36C0A0916B
:103F60007403B0E0CD010196877099272091B503C5
:103F700030E08217930781F179836A835D834C83F4
:103F800093E0AA0FBB1F9A95E1F7AB58BC4F98E09E
:103F9000FE01319601900D929A95E1F7809374039A
:103FA0000E94E32312C028E0829FC00111248B5895
:103FB0009C4F0E94351D8823E1F08091B50390E06D
:103FC0000196877099278093B5038091B5039091EE
:103FD00074038913E8CF0DC00E94711F10927403FF
:103FE0001092B503ECE6F3E088E0DF011D928A95BC
:103FF000E9F760960FB6F894DEBF0FBECDBFDF9134
:10400000CF910895882321F00E9498230C94612574
:104010000895882339F09091BC03892B8093BC03C9
:104020000C9461250895882309F453C0682F8238C1
:1040300069F40E94192781FF4CC069E384E693E08C
:104040000E94D3260E94612569E30EC0833891F453
:104050000E94192780FF3DC063E584E693E00E943B
:10406000D3260E94612563E584E693E00E94C6267C
:104070000C946125843869F40E94192782FF29C0B5
:1040800067E484E693E00E94D3260E94612567E4FA
:10409000EBCF8CEF860F813A38F380E2860F8830C1
:1040A00048F4677081E001C0880F6A95EAF70E94C2
:1040B0009823DECF8BE5860F833020F480E090E0FC
:1040C0000C940327685A673120F480E090E00C9448
:1040D000ED260895CF93882309F496C0C82F82381F
:1040E000B1F40E94192781FD8FC069E384E693E053
:1040F0000E94D3260E9461252FEF81EE94E021508B
:1041000080409040E1F700C0000069E317C08338A9
:10411000E1F40E94192780FD77C063E584E693E00F
:104120000E94D3260E9461252FEF81EE94E021505A
:1041300080409040E1F700C0000063E584E693E032
:104140000E94C626CF910C9461258438B1F40E9458
:10415000192782FD59C067E484E693E00E94D326C4
:104160000E9461252FEF81EE94E021508040904025
:10417000E1F700C0000067E4E1CF8CEF8C0F813ADB
:1041800080F4E6E6F3E08CE693E02191C217A1F11A
:104190008E179F07D1F76C2F84E693E00E94D326F9
:1041A000D1CF80E28C0F883068F4C77081E090E056
:1041B00001C0880FCA95EAF79091BC03892B8093C0
:1041C000BC03C0CFEBE5EC0FE33040F4F0E0E1528C
:1041D000FE4F808190E0CF910C940327C85AC731DD
:1041E00098F4EC2FF0E0EE0FFF1FEE51FE4F8081B0
:1041F0009181CF910C94ED266C2F84E693E00E9480
:10420000C6260E946125C7CFCF9108951F93CF93F3
:10421000DF93182F893319F0C9E1D0E002C0C0E55F
:10422000D0E0812F0E946A208FE99FE00197F1F78B
:1042300000C000002197C1F7812FDF91CF911F911E
:104240000C94132080E0089590911A0292FF0DC003
:10425000282F2871283019F4877F846006C0282F02
:104260002471243011F48B7F886093FF0DC0282FB8
:104270002871283119F4877E846106C0282F2471A3
:10428000243111F48B7E886120911B0220FF0DC028
:10429000382F3871383019F4877F816006C0382F85
:1042A0003171313011F48E7F886021FF0DC0282FCD
:1042B0002871283119F4877E816106C0282F217169
:1042C000213111F48E7E886194FD877E0895F894E3
:1042D000E82FE295EF70F0E031A1282F2F7081E0F8
:1042E00090E001C0880F2A95EAF7982F90959323C4
:1042F00091A392A1892B82A378940895CF93DF9301
:104300008238910569F1B0F48133910509F46FC0E9
:1043100048F48932910509F465C08A32910509F49F
:104320006BC08AC08533910509F457C08933910564
:10433000B9F082C0833E910571F138F4803E910559
:10434000B1F0823E910511F177C0863E9105B9F139
:10435000873E9105C9F1843E910509F06DC024C0E6
:1043600020911A0220FD53C021FD51C065C08091EB
:104370001A0280FD46C080911B0280FF48C08091D8
:104380001A0284FD3FC183EE90E03EC180911A0283
:1043900082FF3AC0F4CF80911A0282FD35C080912D
:1043A0001B0280FD34C0EBCF80911B0281FF35C022
:1043B00080911A0284FD26C187EE90E025C180918C
:1043C0001A0283FF27C0F4CF80911A0283FD22C016
:1043D00080911B0281FD21C0EBCF80911A0285FDE7
:1043E0001FC021C080911A0285FD1DC019C0809197
:1043F0001A0286FD1BC01DC080911A0286FD19C0DD
:1044000015C089E390E000C182EE90E0FDC080EE2F
:1044100090E0FAC086EE90E0F7C084EE90E0F4C041
:1044200089E290E0F1C085E390E0EEC08AE290E09E
:10443000EBC081E390E0E8C0811532E5930708F016
:1044400069C0811541E5940728F0982F8827816F6E
:10445000906ADAC0883E910568F5803E910508F0C3
:10446000D3C0883A9105B8F4853A910548F0855A49
:10447000E82FF0E0E152FE4F808190E09064C4C0EC
:104480008130910509F4BBC008F4BCC084309105AB
:1044900008F4B8C0B9C08F3B910508F0B3C0885A82
:1044A000E82FF0E0EE0FFF1FEE51FE4F808191816B
:1044B0009464AAC0811520E59207F0F09C0174E095
:1044C000369527957A95E1F7922F9370482F437090
:1044D00021E030E002C0220F331F4A95E2F73C682A
:1044E000392B8F70982F9695969540E2949FC00136
:1044F0001124822B932B88C0811530E4930718F088
:104500009F70906A81C09C013A9521153F4108F443
:104510007BC078C0EC01C11586E5D807E8F5C11568
:1045200025E5D20748F08C2F0E9424218F7190E05E
:10453000982F8827906268C0C11534E5D30728F00A
:104540009C2F8827846F906A5FC0AE014370552707
:104550002C2F26952695C115D34578F481E090E05F
:1045600002C0880F991F4A95E2F740E2249F90010C
:104570001124822B932B9C6847C081E090E002C0FD
:10458000880F991F4A95E2F740E2249F9001112479
:10459000822B932B9A6838C0C1152AE5D207F8F40C
:1045A000C11539E5D30790F08C2F8F700E9424211C
:1045B00094E0D695C7959A95E1F7CF70D0E0DC2FBF
:1045C000CC27D0699E01282BC9011EC0C11548E522
:1045D000D407C0F09C2F8827806F906A15C0CE0149
:1045E00090568115904270F48D2F8F710E94242176
:1045F000282F2F71CE0199279062922B05C081E060
:1046000090E002C080E090E0DF91CF910895CF93D9
:1046100084E090E00E94BC32C82F82E290E00E94C9
:10462000BC322C2F30E0A901582BCA01CF9108953C
:1046300080E090E00E94C4328A3E9E4F11F40C94B8
:10464000152F80E008956AEE7EEF80E090E00E94F2
:10465000F83260E082E090E00E94DA3260E083E0CD
:1046600090E00E94DA321092C00360E084E090E0B3
:104670000E94DA3260E082E290E00E94DA3260E08A
:1046800085E090E00E94DA3260E086E090E00E94EF
:10469000DA326FEF87E090E00E94DA3240E050E0DB
:1046A000BA0188E090E00E94EC3260E08DE090E09A
:1046B0000E94DA3240E050E0BA0188E190E00E94C6
:1046C000EC3260E087E190E00E94DA3240E050E0B6
:1046D000BA018CE190E00E94EC3260E070E080E290
:1046E00090E00E94F83240E050E0BA0188E190E0AA
:1046F0000E94EC3280E00E94E82E0E94062F40E0EB
:1047000050E0BA018FE090E00E94EC3240E050E0CF
:10471000BA0183E190E00C94EC328091BF038823CE
:1047200031F01092BF031092BE031092BD030895A2
:1047300080959091BC0389238093BC030895CF9307
:10474000C0911B02C2FB992790F9981781F080FB5A
:10475000C2F9C0931B0260911A0284E090E00E94AB
:10476000DA326C2F82E290E0CF910C94DA32CF9162
:1047700008951092B9031092B8031092B7030895E8
:104780002091B903809582238093B903982F977065
:1047900041F430E0482F082E000C550B2417350744
:1047A00021F490911B0292FF07C085958595859510
:1047B0000E94561F0C94B92308958091B60381116D
:1047C0001092B60308958091B503909174038917F0
:1047D00019F08F5F8770FBCF08951F93CF93DF93FE
:1047E0008091710382958F7009F05CC080916E0397
:1047F000882309F457C08091B50310917403609128
:104800006C0370916D03C0916F03D091700391E0C0
:104810006F3F09F090E0292F811709F443C02097DA
:1048200021F07F3F21F030E003C031E001C0322FA2
:1048300090E030FD34C0FC0133E0EE0FFF1F3A95ED
:10484000E1F7DF01AB58BC4F11963C91119737133C
:1048500026C03C91361323C012963C911297311119
:104860001EC013964D915C9114974C1B5D0B483CF8
:104870005105A8F4809171038F708061809371035A
:10488000E658FC4F80818F70806180838CE693E0D6
:104890000E94F310DF91CF911F910C94E3230196B6
:1048A0008770BACFDF91CF911F9108958F929F9219
:1048B000AF92BF92CF92DF92EF92FF920F931F932E
:1048C000CF93DF93CDB7DEB728970FB6F894DEBF4E
:1048D0000FBECDBFAE014F5F5F4F7A0188E0DA01B6
:1048E0001D928A95E9F70DE111E06A01AA24A394CB
:1048F000B12CF80180818F3F09F44DC0F894E82F66
:10490000E295EF70F0E021A18F70A50102C0440F85
:10491000551F8A95E2F7CA01922F982B91A392A175
:104920008095892382A3789400C0E1E2F1E020E041
:1049300030E0812C912C81918F3FC1F0A82FA2955E
:10494000AF70B0E090964C9150E08F70DA0102C0E9
:10495000B595A7958A95E2F7A0FD08C0C501022E7E
:1049600002C0880F991F0A94E2F702C080E090E02D
:10497000882A992A2F5F3F4F2B303105E1F6F80145
:1049800080818F3F11F00E946721F0EAFA95F1F7DC
:10499000D6018D929C920F5F1F4FB2E0CB0ED11CBF
:1049A000E1E001321E0709F0A4CF48E050E0B70172
:1049B0008CE192E00E94233311E0009709F410E0AB
:1049C000892B89F088E0F701ACE1B2E001900D920B
:1049D0008A95E1F781E08093C3030E94912690932A
:1049E000C2038093C1038091C303882351F1809156
:1049F000C1039091C2030E947626059710F1809121
:104A00001C0290911D0290932803809327038091AC
:104A10001E0290911F0290932A0380932903809194
:104A200020029091210290932C0380932B0380917C
:104A300022029091230290932E0380932D031092D3
:104A4000C30380911001882341F18091C1049091AA
:104A5000C204009711F10E94762620911B04309128
:104A60001C0428173907C8F49091BF048091C00432
:104A7000981759F00E94D12710921C0410921B0421
:104A80001092C2041092C10408C00E9453271092D1
:104A9000C2041092C1040E94B227812F28960FB63B
:104AA000F894DEBF0FBECDBFDF91CF911F910F9164
:104AB000FF90EF90DF90CF90BF90AF909F908F903E
:104AC00008959091BC038091BB03892B9091BA0308
:104AD000892B809364038091BF03882311F10E9486
:104AE00091262091BD033091BE03821B930B883821
:104AF000934110F00E948D23909164038091BF0335
:104B0000892B80936403E6E6F3E097E080E0915020
:104B100029F021912223D9F38F5FF9CF81110E94CF
:104B20008D23E091C504F091C604309731F00280E6
:104B3000F381E02D84E693E00994089590911B029F
:104B400092FD10C098E0899F90011124262B20939C
:104B5000B9030E94621F0E9491269093B80380932C
:104B6000B70308950C94621F80913203089524E0E6
:104B70002093E9002FEF3091E800215035FD06C069
:104B800035ED3A95F1F700002111F5CF2091E800BD
:104B900025FF0BC040E050E066E070E00E94661C1C
:104BA0008091E8008E778093E8000895CF93DF939B
:104BB00021E02093E9002FEF3091E800215035FDEE
:104BC00006C035ED3A95F1F700002111F5CF20919F
:104BD000E80025FF14C0EC0140E050E068E070E020
:104BE0000E94661C8091E8008E778093E80088E040
:104BF000FE01A3E3B3E001900D928A95E1F7DF9106
:104C0000CF91089590914603943029F58093CE0476
:104C10007093D0046093CF049093E9008FEF90914C
:104C2000E800815095FD06C095ED9A95F1F70000DA
:104C30008111F5CF8091E80085FF0DC040E050E084
:104C400063E070E08EEC94E00E94661C8091E800C6
:104C50008E778093E800089581E08093E00080E201
:104C60008093D8001092C9008FE19EE40197F1F77C
:104C700000C0000087E090EBDC0180934A05909330
:104C80004B05A0934C05B0934D059CE088E10FB611
:104C9000F894A895809360000FBE90936000FFCFBA
:104CA00078941F920F920FB60F9211248F939F93B7
:104CB000AF93BF938091CA049091CB04A091CC0490
:104CC000B091CD040196A11DB11D8093CA049093AB
:104CD000CB04A093CC04B093CD04BF91AF919F912E
:104CE0008F910F900FBE0F901F9018959C014FB79A
:104CF000F8948091CA049091CB04A091CC04B09117
:104D0000CD044FBF821B930B08952FB7F894609189
:104D1000CA047091CB048091CC049091CD042FBF34
:104D200008952FB7F8948091CA049091CB04A09174
:104D3000CC04B091CD042FBF08951F920F920FB6EF
:104D40000F9211248F939F93AF93BF938091C904C7
:104D5000811113C08091CA049091CB04A091CC041E
:104D6000B091CD044196A11DB11D8093CA049093CA
:104D7000CB04A093CC04B093CD04BF91AF919F918D
:104D80008F910F900FBE0F901F9018959C012A5F76
:104D90003F4FFC014281461301C0128201968217E7
:104DA0009307B9F708959C01FC0132969FEF80E0CC
:104DB0004191461789F09F3F19F4411101C0982F86
:104DC0008F5F8630A9F79F3F39F0F901E90FF11D98
:104DD00097FDFA956283089508952091C704309154
:104DE000C8042817390771F09093C8048093C7044A
:104DF000E091C504F091C604309721F00084F1855C
:104E0000E02D099408952091C3043091C40428171B
:104E1000390771F09093C4048093C304E091C504F2
:104E2000F091C604309721F00680F781E02D0994B7
:104E30000895E091C504F091C604309721F00190E7
:104E4000F081E02D099480E00895BC014091BF04F9
:104E50008091C004942F981729F1292F30E0F9018F
:104E6000EE0FFF1FE954FB4F0190F081E02DE61794
:104E7000F70799F487E0869FF001879FF00D1124D2
:104E8000E158FB4F81E0848394130CC02F5F3F4FA8
:104E9000237033272093BF0408952F5F3F4F922F35
:104EA0009370D9CF08950F931F93CF93DF93809181
:104EB0001E04882309F451C0C0911D041CE0809198
:104EC0001E04C81708F045C001E00C0F00931D0434
:104ED000D0E01C9FF0011D9FF00D1124E15EFB4FFF
:104EE0009081818123813481232B31F08F3F31F4F4
:104EF00081E09F3F19F403C081E001C080E080FDA4
:104F000026C01C9FD0011D9FB00D1124A15EBB4F78
:104F100016968D919C911797892B31F418968D9147
:104F20009C911997019651F42081318142815381DE
:104F300064817581868197810E947C1F1C9FF0018E
:104F40001D9FF00D1124E15EFB4F14821382C02FD0
:104F5000B6CF10921E0410921D04DF91CF911F91C5
:104F60000F91089510921C0410921B04EFE7F4E0D7
:104F70008581811102C014821682379684E0E73B56
:104F8000F807B1F708951092C2041092C10410926C
:104F900010018091C0048093BF040E94B2270C943A
:104FA00053273F924F925F926F927F928F929F9280
:104FB000AF92BF92CF92DF92EF92FF920F931F9327
:104FC000CF93DF93C091BF0497E0892E01E010E0FA
:104FD0002CE0322E3EEF932E442443948091C00463
:104FE000C81709F478C0D0E0FE01EE0FFF1FE954A6
:104FF000FB4F80819181889ED001899EB00D112444
:10500000A158BB4F14962C911497211161C0509058
:105010001E04EFE1F4E020E030E0712C5D01251585
:1050200008F054C0E284F384D501CD90DC906FEF9A
:105030007FEF612C462D50E0DA01AA0FBB1FAC0DAB
:10504000BD1D0D90BC91A02D109731F0EA16FB0606
:1050500009F4BA016394EECF6F3FBFEF7B0791F184
:10506000D80102C0AA0FBB1F6A95E2F77A2AB801DD
:1050700002C0660F771F6A94E2F7AB0141505109F5
:10508000672D70E046175707D9F4329EF001339E22
:10509000F00D1124E15EFB4F889ED001899EB00D7A
:1050A0001124A158BB4F12962D913C911397378331
:1050B0002683908291829187808715964C9206C0B4
:1050C000148213822F5F3F4F3C96A9CF0E94252761
:1050D0002196C37083CF0E945327DF91CF911F91F8
:1050E0000F91FF90EF90DF90CF90BF90AF909F9087
:1050F0008F907F906F905F904F903F900C94B2276D
:105100000F931F93CF93DF93C42FD22FFC01828183
:105110008823C9F040931A040E94912690931904A1
:105120008093180480E28C0F883008F057C0C77055
:1051300081E001C0880FCA95EAF7DF91CF911F91F6
:105140000F910C94092080911A04481330C080916B
:105150001804909119040E947626883C910538F530
:1051600010E21D0FCD17B9F080E28C0F883040F4AB
:10517000C77081E001C0880FCA95EAF70E9402203B
:10518000183028F581E09D2F977001C0880F9A95FF
:10519000EAF70E940920802F0E9406211830F0F4BF
:1051A000D77081E001C0880FDA95EAF70AC080E283
:1051B0008C0F883098F4C77081E001C0880FCA95C1
:1051C000EAF7DF91CF911F910F910C940220802F6D
:1051D000DF91CF911F910F910C940621DF91CF9118
:1051E0001F910F910895CF93DF93C7E5D2E060E060
:1051F000CE010E94DA322196C11584E0D807B9F7B2
:10520000DF91CF9108950F931F93CF93DF93853054
:1052100068F5623058F5423048F521159CE53907AC
:1052200031F4E0911404F0911504EF2BF9F08901A9
:10523000282F34E0639FC001112438E0239F800DA4
:10524000911D1124840F911D840F911DEC01C152F9
:10525000DE4F612FCE010E94DA32602FCE0101961F
:10526000DF91CF911F910F910C94DA32DF91CF91A2
:105270001F910F9108950F931F93CF93DF93853064
:1052800018F5623008F54230F8F4282F34E0639FB7
:10529000C001112438E0239F800D911D1124840F3B
:1052A000911D840F911DEC01C152DE4FCE010E9471
:1052B000BC3290E0182F0027CE0101960E94BC322C
:1052C0009801282BC90102C080E090E0DF91CF91C6
:1052D0001F910F9108950F931F93CF93DF93853004
:1052E00058F5643048F54B3038F521159CE5390701
:1052F00031F4E0911404F0911504EF2BE9F08901E9
:10530000C42FD0E0CC0FDD1F96E1699FC00DD11DE9
:10531000112498E5899FC00DD11D1124612FCE0164
:1053200087960E94DA32602FCE018896DF91CF9166
:105330001F910F910C94DA32DF91CF911F910F9151
:1053400008956F927F928F929F92AF92BF92CF9269
:10535000DF92EF92FF920F931F93CF93DF93CDB71E
:10536000DEB72A970FB6F894DEBF0FBECDBFA09070
:105370001404B090150481E090E09093150480939C
:105380001404C12CD12C712C612CE12CF12C00E0E7
:1053900010E046018E0C9F1CF801EE0FFF1FE80D78
:1053A000F91DE857FA4F25913491402F662D872D2E
:1053B0000E946B290F5F1F4F0B30110569F786E1C3
:1053C000E80EF11C639494E06912E1CF21E030E033
:1053D00040E060E0872D0E94032921E030E041E0B9
:1053E00060E0872D0E94032921E030E040E061E089
:1053F000872D0E94032921E030E041E061E0872D04
:105400000E9403297394E8E5CE0ED11CF5E07F12CB
:10541000BBCFCE0101967C018AE0F70111928A95FB
:10542000E9F707E012E04AE050E0B801C7010E9446
:10543000FE32065F1F4F0735F2E01F07A1F7B0925B
:105440001504A09214042A960FB6F894DEBF0FBE7E
:10545000CDBFDF91CF911F910F91FF90EF90DF9023
:10546000CF90BF90AF909F908F907F906F90089556
:105470000F931F93CF93DF93853008F56430F8F4D2
:105480004B30E8F4C42FD0E0CC0FDD1F26E1629F43
:10549000C00DD11D112438E5839FC00DD11D1124ED
:1054A000CE0187960E94BC3290E0182F0027CE01D3
:1054B00088960E94BC329801282BC90102C080E066
:1054C00090E0DF91CF911F910F910895462F209189
:1054D000160430911704232B49F4853038F47430C6
:1054E00028F46B3018F4672F0C94382A80E090E091
:1054F0000895CF92DF92EF92FF920F931F93CF9375
:10550000DF93CDB7DEB72A970FB6F894DEBF0FBE94
:10551000CDBF80E5E4ECF3E0DF011D928A95E9F769
:1055200088E3EFE7F4E0DF011D928A95E9F784EC68
:10553000C82E83E0D82E7F0107E012E0F701D18268
:10554000C0824AE050E0B801CE0101960E94AC3220
:1055500088E0FE013196D60101900D928A95E1F71F
:1055600089859A85D70113969C938E931297BAE0FA
:10557000CB0ED11CE7E0EE0EF11C065F1F4F073586
:10558000F2E01F07D9F62A960FB6F894DEBF0FBED9
:10559000CDBFDF91CF911F910F91FF90EF90DF90E2
:1055A000CF900895982F92959F7019F0892F24E03D
:1055B00001C020E0982F9695969511F02E5F892FC7
:1055C000982F969509F02F5F822F0895AF92BF9282
:1055D000CF92DF92EF92FF920F931F93CF93DF93BF
:1055E000EC018AE0A82E2881222309F497C02130FB
:1055F00009F041C08981813039F48E010E5F1F4F5F
:105600008A810E94062108C0823041F48E010E5F1B
:105610001F4F8A810E946A20E8017EC0833039F4DE
:105620008E010E5F1F4F8A810E941320F5CF8430B8
:1056300011F0219671C02A81229680E090E030E03E
:10564000205331092A30310558F4A89EA001A99EA3
:10565000500D1124C901840F951F21962881EFCF89
:10566000009709F459C0EFE9FFE03197F1F700C066
:1056700000000197F5CFE22FF0E0E059F84FB49029
:10568000822F86958695869590E0FC01E05AF84F2A
:10569000E4902770F12C022E02C0F594E7940A944E
:1056A000E2F7F1E0EF22FF24FC01E05BF84FC49049
:1056B000D12C022E02C0D594C7940A94E2F731E0AF
:1056C000C322DD24FC01E05CF84F049110E002C02D
:1056D000159507952A95E2F701701127E114F10459
:1056E00019F081EE0E946A20C114D10419F086EEEF
:1056F0000E946A208B2D0E940621CD2819F086EE8B
:105700000E941320EF2819F081EE0E941320012B34
:1057100019F08CE20E940621219665CFDF91CF918E
:105720001F910F91FF90EF90DF90CF90BF90AF90BF
:1057300008951F93CF93DF9300D000D01F92CDB771
:10574000DEB7FC0186819781009709F5CF0125E03E
:10575000DE01119601900D922A95E1F7FC0122815C
:1057600089819A81222359F0662349F00E94C61C40
:10577000182F682F89819A810E94231F03C00E94DD
:10578000F31E182F69817A81812F0E94662A0F905B
:105790000F900F900F900F90DF91CF911F91089570
:1057A000CF93C82F0E94D22A813081F020F082301E
:1057B00089F0833091F080912402882319F040E031
:1057C00060E00DC04FEF60E080E00AC04FEF60E0A6
:1057D0008AE706C040E06FEF02C040E060E88FEF6C
:1057E0000E9444178C2FCF910895DC01FB0180812A
:1057F0009181803891053CF08FE78C938081918175
:105800008F5791090AC081382FEF92074CF481E835
:105810008C938081918181589F4F918380830895DB
:105820008C93118210820895681720F4861B682FCC
:1058300021E002C0681B20E0469FA0011124649F64
:10584000C001659F900D11249170222319F091954C
:105850008195910908952F923F924F925F926F9296
:105860007F928F929F92AF92BF92CF92DF92EF92F0
:10587000FF920F931F93CF93DF93CDB7DEB76A9755
:105880000FB6F894DEBF0FBECDBF498B5A8B6B8B22
:105890007C8B8D8B61111092BB038E01075F1F4FB4
:1058A00088E0F80111928A95E9F785E0FE0171968A
:1058B000D80101900D928A95E1F70E9491262091DE
:1058C000B7033091B803821B930B8838934140F0A3
:1058D0008091B90382FB992790F981E0892701C063
:1058E00080E080FF03C082E00E94C0230E949126D6
:1058F0002091BD033091BE03821B930B88389341E6
:1059000010F00E948D2399858A852C853D85232B57
:1059100031F08F3F31F481E09F3F19F403C081E003
:1059200001C080E080FDCAC161E0C8010E94992BDE
:105930006C0187EFC8168CE5D80639F48B8588236F
:10594000B9F081E080931001B9C198EFC9169CE5C8
:10595000D90631F48B85882359F00E94C327AEC144
:10596000E9EFCE16ECE5DE0619F48B85811111C046
:105970000FE714E0712CA12CB12C88248394912C76
:1059800055245394CE0101969F8B8E8BF7E04F2EBA
:1059900049C0809110018823A1F2DFCFC616D70637
:1059A00009F097019F5F7901292F30E0F901EE0F8F
:1059B000FF1FE40FF51F608171816115710571F79B
:1059C000FFEFEF16FF0609F42DC1F80164816111A4
:1059D00031C020911001822F81706B84F8013581D4
:1059E0002681662009F4C6C0882309F4C3C0332386
:1059F00021F1940102C0220F331F9A95E2F7215042
:105A00003109F801868190E02817390759F1762885
:105A1000FFEFAF1ABF0A095F1F4F28E0A216B104BB
:105A200009F402C1F80140815181EE24EA94FE2C70
:105A300090E0BACF20E030E0CECFA40101C0440F07
:105A4000EA94EAF7242B268320911B0430911C044E
:105A50002233310570F622E330E030931C042093AA
:105A60001B04C7CF8091C1049091C204009729F014
:105A70000E947626C39708F01EC18091BF04F09162
:105A8000C004F88FE0E0F0E0288D821709F460C0D0
:105A9000282F30E0F901EE0FFF1FE954FB4F208063
:105AA0003180429CF001439CF00D1124E158FB4FE2
:105AB000F080E18050E090E040E0EF2DFE2DE40F1B
:105AC000F11DE40FF11DA081B1811097D1F0F80113
:105AD000F081F98FF801F181FA8F90E0E98DFA8D6C
