:100000000C940B030C9452030C9452030C94520363
:100010000C9452030C9452030C9452030C9452030C
:100020000C9452030C9452030C94A6280C945B2756
:100030000C944A2A0C9452030C9452030C945203CD
:100040000C9452030C9452030C9452030C945203DC
:100050000C9452030C94FD290C9452030C945203FB
:100060000C9452030C9452030C9452030C945203BC
:100070000C9452030C9452030C9452030C945203AC
:100080000C9452030C9452030C9452030C9452039C
:100090000C9452030C9452030C9452030C9452038C
:1000A0000C9452030C9452030C9452033C083F08E6
:1000B000680875087C089C0832093209320932093F
:1000C00032099F08A108A608CA08EB08EE08F10843
:1000D000130993099E09C809040A490A920AD50A14
:1000E000D80ADD0AE00AE50AE80AED0AF00AF30A8E
:1000F000F60AF90AFC0AFF0A020B050B080B0B0BA8
:10010000100B530B960BDD0BE00BE30B920C290D40
:100110002C0D310D3C0D3F0D4A0D4D0D580D5B0D55
:10012000660D690D740D7B127B12B612B612111397
:100130003614361436142F13A313B413B413EF2448
:100140001625BD261625BD2662258525BD267A26BF
:100150008A269C2B9C2BAF2BAF2BA52BAF2BAF2B29
:10016000AF2B9C2B9C2BAA2BAF2BAF2BAA2B0000C9
:10017000000000000000000000000000000000007F
:10018000000000000000000000000000000000006F
:1001900000007E0F00D4FFFFFFC7000000780000C2
:1001A0000000000000002A2B2800000000000000D2
:1001B00000000000000000000029000000002C1ECC
:1001C0003420212224342627252E362D3738271E89
:1001D0001F202122232425263333362E37381F04AF
:1001E00005060708090A0B0C0D0E0F101112131447
:1001F00015161718191A1B1C1D2F3130232D350405
:1002000005060708090A0B0C0D0E0F101112131426
:1002100015161718191A1B1C1D2F3130354C1400D8
:100220001A000800150017001C0018000C0012002E
:100230001300000004611668076409620A000B00DD
:100240000D720E740F78337100001D001B00060044
:100250001900050011001000360037003800A80012
:10026000010001000151280034002A002C00025135
:10027000010001002A011E021F02200221022202A7
:100280002302240225022602270200002900010081
:1002900001000100010001002D022E022F02300298
:1002A00000003900350201000100010001000100D9
:1002B00001003102340201000100010001000100CF
:1002C00001004C00010001000100010001001E00BE
:1002D0001F0020002100220023002400250026000A
:1002E000270000005000510052004F002B00010079
:1002F0002D002E002F0030000000E0003500E3004C
:10030000E2000100010001000100310034000100A1
:1003100001000100010001000100010001000100D5
:10032000010001000100C25CC45CC35C010010500C
:100330003A003B003C003D003E000000CB5CC55C49
:10034000C75CC95C01003F0040004100420043001F
:100350000000CC5CC65CC85CCA5C0100440045007F
:1003600001000100005C010001000100010001002A
:100370000100010001000100010001000100050170
:100380000902A10185020901A10005091901290835
:100390001500250195087501810205010930093113
:1003A0001581257F95027508810609381581257FFD
:1003B000950175088106050C0A38021581257F957F
:1003C0000175088106C0C005010980A101850319D6
:1003D000012AB700150126B700950175108100C0EC
:1003E000050C0901A101850419012AA002150126A5
:1003F000A002950175108100C00660FF0961A1018E
:100400000962150026FF0095207508810209631511
:100410000026FF00952075089102C005010906A17C
:1004200001050719E029E7150025019508750181E7
:10043000029501750881010507190029FF1500269D
:10044000FF00950675088100050819012905950525
:1004500075019102950175039101C009025B0003CA
:100460000100A0FA090400000103010100092111A3
:100470000100012240000705810308000A09040168
:1004800000020300000009211101000122220007DF
:10049000058203200001070503032000010904026F
:1004A000000103000000092111010001227B000767
:1004B00005840320000A1201000200000008FEFE6D
:1004C00050580100010200012C0373006100640018
:1004D00065006B006200610072006F0075006400CF
:1004E000690020006200610072006F0062006F000E
:1004F0007200640000001A0373006100640065006C
:100500006B006200610072006F007500640069009A
:1005100000000403090400010101010101010101BE
:1005200002020202020202020203030303030303A4
:100530000304040404040404050505050506060671
:100540000606070707070708080808090909090A2E
:100550000A0A0B0B0B0C0C0C0D0D0D0E0E0E0F0FD3
:100560000F10101111111212131314141515161661
:100570001717181819191A1A1B1B1C1D1D1E1E1FD0
:100580002020212222232424252626272829292A1F
:100590002B2C2D2D2E2F3031323233343536373847
:1005A000393A3B3C3D3E3F40414243444546474843
:1005B000494A4C4D4E4F50515354555658595A5B19
:1005C0005D5E5F616264656668696B6C6D6F7072B9
:1005D000737577787A7B7D7E8082838587888A8C25
:1005E0008E8F91939596989A9C9EA0A2A3A5A7A959
:1005F000ABADAFB1B3B5B7BABCBEC0C2C4C6C9CB50
:10060000CDCFD1D4D6D8DBDDDFE2E4E7E9EBEEF005
:10061000F3F5F8FAFDFF11241FBECFEFDAE0DEBFDD
:10062000CDBF04B603FE27C08091E1039091E203A1
:10063000A091E303B091E4038730904BA740B04B07
:10064000D1F41092E1031092E2031092E3031092AE
:10065000E40314BE84B7877F84BF0FB6F894A895CF
:1006600080916000886180936000109260000FBEEE
:10067000E0E0F8E3099512E0A0E0B1E0EEE9F0E691
:1006800002C005900D92A431B107D9F723E0A4E18F
:10069000B2E001C01D92A13EB207E1F70E945403EF
:1006A0000C944D300C940000CF93DF93CDB7DEB7A0
:1006B000C054D1090FB6F894DEBF0FBECDBF84B7CA
:1006C000877F84BF0FB6F894A895809160008861F9
:1006D00080936000109260000FBE90E080E80FB63B
:1006E000F89480936100909361000FBE85B7806895
:1006F00085BF85B7806885BF81EE9AE1909315022A
:10070000809314020E949F270E9445288091E20056
:1007100084608093E2007894809181038823A1F023
:100720001091E9001F709091EC00892F817090FD6D
:1007300080E8182B1092E9008091E80083FD0E9468
:1007400009241F701093E90082E084BD93E095BDF9
:100750009AEF97BD80936E000E940B19811102C021
:100760000E94FC1808E111E06CE1E62E61E0F62E33
:10077000D8018D918D018F3F11F00E94261BE0164C
:10078000F106B1F70CE111E057E2E52E51E0F52E4C
:10079000F80181918F018F3F11F00E94261BE01616
:1007A000F106B1F710921902109218021092A902E4
:1007B0001092A80210921B0210921A021092AB0221
:1007C0001092AA0210921D0210921C021092AD0209
:1007D0001092AC0210921F0210921E021092AF02F1
:1007E0001092AE020E94FB1C811102C00E94061DE5
:1007F00082E090E00E94712F80939F020E94EA1C89
:1008000090931702809316020E94E61F8FE39CE9E3
:100810000197F1F700C000000E94E61F8091A80236
:1008200080FF08C06FEF7FEF80E090E00E94AD2F67
:100830000E94D92983E090E00E94712F0E94832BAF
:100840008091BF030E948B1410928F03E8EAF3E0BB
:1008500088EB93E02FEF3FEF219331938E179F07A3
:10086000D9F710922102EAE3F2E08AE492E02FEF56
:100870003FEF219331938E179F07D9F70E94FB1CFE
:10088000811104C00E94061D0E94AD1946E050E08F
:100890006CE170E089EB93E00E94612F8091B903D5
:1008A0008C7F11F40E94AD190E94772D40E060E02A
:1008B00080E00E94CC20109220024FEF60E080E0A8
:1008C0000E94CC2084E091E09093C3038093C20304
:1008D000DE0111967D0180918103853009F048C0C9
:1008E00040E4D42E00E112E180918103853009F0CB
:1008F0003BC080918103843019F11092C603E8E176
:10090000F0E00FB6F894A895E09360000FBED09287
:10091000600083B7817F846083BF83B7816083BFBA
:100920007894889583B78E7F83BF0FB6F894A89587
:1009300080916000886180936000109260000FBE1B
:1009400080918003882309F4CFCF0E94E61FE8EA54
:10095000F2E081919191892B09F0ACC420EB32E057
:100960002E173F07B1F7C0CF0E94B32B0E94C62AB3
:100970000E94E61F81110E94322AE8EAF2E0A0EA12
:10098000B2E0A12CB12C0A2D819091908D919D9176
:1009900088259925009709F448C110E0CC24C39418
:1009A000D12C9C012C213D21232B09F438C11BABF8
:1009B0000CAB8C209D2081E08114910409F480E02F
:1009C0008DAB0E943E2A8160782F9FAB8EAB4BA9E6
:1009D0005CA96DA98FA90E94960DF501EE0FFF1F6E
:1009E000E056FD4F80819181C826D926D182C082F0
:1009F000892839F0A701612F802F0E949B19782E3A
:100A000001C0712CC72CD12C80912102B601680F36
:100A1000711D693071056CF188E090E04C018C1813
:100A20009D08B6016E5D7D4FA40182E292E00E94B6
:100A30004430B601665D7D4FA4018AE292E00E94D7
:100A40004430A401440F551FB601660F771F665C42
:100A50007D4F8AE392E00E944430B6016E5C7D4F88
:100A6000A40182E392E00E94443088E087198093D9
:100A70002102D0902102B70140E0842F8D0D741621
:100A800011F190E0DB015D91BD01252F30E0FC010B
:100A9000EF5DFD4FD901AA0FBB1FA556BE4FAC910C
:100AA000A183220F331FD901A159BE4F9D962C91CE
:100AB0002187518B880F991FFC01EF5DFD4F128E2E
:100AC000118E4F5FDACF809321028091B9038C7F22
:100AD000803709F0C2C0AFEFA00FDD24D394D00E51
:100AE0003FEF310F21E0210F311780F48BE08A9D19
:100AF000F0018B9DF00D1124EE5AFD4FE30FF11D17
:100B0000408150E1450F08F44FEF4083412F50E002
:100B10007BE07A9DC0017B9D900D11248E5A9D4FE4
:100B2000FC01E40FF51F7081B0E26B2F760F08F423
:100B30007FEF70832B3051F0FC01E20FF11D7081CB
:100B400080E1682F760F08F47FEF708374E0D7168A
:100B500009F431C0CD2CD12C311788F48BE08C9D59
:100B6000F0018D9DF00D1124EE5AFD4FE30FF11DA4
:100B700080819DE0BC01670F08F46FEF6083EBE0BC
:100B8000EC9DC001ED9D900D11248E5A9D4FFC01EE
:100B9000E40FF51F608170E1670F08F46FEF608369
:100BA0002B3049F0FC01E20FF11D60817DE0670F01
:100BB00008F46FEF6083A01708F04FC0B0E0311762
:100BC00080F48BE08A9FF0018B9FF00D1124EE5A88
:100BD000FD4FE30FF11D30816DE0360F08F43FEF5C
:100BE00030838BE08A9FF0018B9FF00D1124CF01A1
:100BF0008E5A9D4FFC01E40FF51F308140E1340F08
:100C000008F43FEF30832B3041F1FC01E20FF11D7E
:100C100020813DE0230F08F42FEF20831EC01F5FCB
:100C2000CC0CDD1C1B3009F0BCCE8FEFA81AB80A23
:100C300094E0A916B10409F0A6CE8FEF88AF89AF72
:100C40001AAE0E943E2A8160782F9CAF8BAF48ADD0
:100C500059AD6AAD8CAD0E94960D80914A0290917B
:100C60004B02A0914C02B0914D022FB7F8948090A6
:100C7000C7039090C803A090C903B090CA032FBFC8
:100C8000881A990AAA0ABB0A0E94322A60934A0269
:100C900070934B0280934C0290934D02A0912102DD
:100CA000E1E2F2E0DA2EB0E044244A94542C612CC4
:100CB000712C481859086A087B08AB1799F0418DC8
:100CC000528D8A0120E030E040165106620673061C
:100CD00010F4DA9404C0480D591D528F418FBF5F44
:100CE0003296EBCFD09221023091B903232F23709B
:100CF00021F0C32EC694C69401C0C12C20911401CA
:100D00002130E1F030F02230E9F1233009F446C01F
:100D100070C01092110160938B0370938C038093C9
:100D20008D0390938E0389E2E1E2F2E0AFE8B3E055
:100D300001900D928A95E1F781E02DC090910F010D
:100D4000C9120DC0832F837090E040910E0150E0D6
:100D500021E08417950709F420E0822F01C081E08B
:100D60008170809313018091BE03909112019817B6
:100D700009F4BFC28093120140E060E080E00E946D
:100D80002A19B7C2C0920F01832F837080930E017E
:100D90000E94EC1783E0809314012BC08091B8036C
:100DA000882341F046E050E06CE170E089EB93E08D
:100DB0000E947F2F1092B80340918B0350918C03B7
:100DC00060918D0370918E032FB7F8948091C703C3
:100DD0009091C803A091C903B091CA032FBF841B8F
:100DE000950BA60BB70B4097A105B10510F010921B
:100DF000140180919D028A3008F0EBC080919B0223
:100E000090919C020E94232A089708F4E2C004E60D
:100E100010E025E030E046E952E064E084E10E9421
:100E2000A52E892B09F06BC010929D0286E0E4E8A4
:100E3000F2E0DE01979601900D928A95E1F786E047
:100E4000FE01B796DE019D9601900D928A95E1F71D
:100E500086E0FE01BD96A0E9B2E001900D928A9570
:100E6000E1F790919A028091910297FD3EC08E7FAA
:100E70008093910280918E0290918F02009799F554
:100E800045E060919602809197020E94D7142091CC
:100E90008C0230918D02281B390B30938D022093E8
:100EA0008C0245E060919802809199020E94D714CB
:100EB00020918A0230918B02820F931F90938B02B4
:100EC00080938A026AE872E082E992E00E94B81494
:100ED0006CE872E083E992E00E94B81410929502E7
:100EE0001092940211C0019705C081608093910215
:100EF00084E190E090938F0280938E0205C08091F0
:100F00009D028F5F80939D0286E0E0E9F2E0DE01C2
:100F1000919601900D928A95E1F786E0FE01B196D7
:100F2000A4E8B2E001900D928A95E1F73091860233
:100F300020918702909188028091890270918002AD
:100F4000609181024091820250918302F0917F0270
:100F5000E0918502FE1312C0332311F037130EC047
:100F6000222311F062130AC0882311F0851306C0F2
:100F7000992331F081E0941304C002C081E001C0E4
:100F800080E080FF0FC0E091C203F091C30330976F
:100F900049F082E0809384020480F581E02D84E8AA
:100FA00092E00995109286021092870210928802B0
:100FB0001092890286E0E4E8F2E0AEE7B2E0019048
:100FC0000D928A95E1F70E943E2A90939C028093AD
:100FD0009B020E94C62A90919E02891721F00E94CE
:100FE000C62A80939E0280918103843009F073CCDD
:100FF00083E08093E9008091E80082FF6CCC8091CF
:10100000E80085FF23C00E94BE2781111DC080E239
:10101000C82ED12C8E010F5F1F4F09C08091F100A7
:10102000D8018D938D01B1E0CB1AD10869F0809180
:10103000E80085FDF3CF8091E8008B778093E8008E
:101040000E94BE27882399F391E001C090E080912F
:10105000E8008B778093E800992309F43CCCE98180
:101060008E2F90E0FC013197E331F10508F0FAC0D2
:10107000EA5AFF4F0C942A301A8289E065C08A81AF
:10108000823009F42DC1833051F0813009F0EAC07B
:101090000E94322A9B838C837D836E83E5C080917E
:1010A000A8029091A9029B838C838091AA029091BF
:1010B000AB029D838E838091AC029091AD029F83A1
:1010C00088878091AE029091AF0299878A87CCC0C1
:1010D0008A81823009F0C6C06B817C818D819E81BE
:1010E0000E94303086E290E024C04C816B818A817E
:1010F0000E94AB189D83FBC00D811E811027012724
:1011000010278C81CB809A81E6E1CE9E600111246C
:10111000F8E59F9FC00CD11C1124C80ED11CC80E2D
:10112000D11C612FC60187960E948F2F602FC601A8
:1011300088960E948F2F98C00E94771895C080E1F2
:101140004EC082E08A8381E28B838EC00A811B813C
:10115000102701271027AC80B12C6701C8018152EC
:101160009E4F96012E193F092A153B0508F07CC0B9
:10117000013222E0120730F40E94712FD60114963A
:101180008C9302C0F60114820F5F1F4FFFEFCF1A3E
:10119000DF0AE4CF0A811B81102701271027AC80CA
:1011A000B12C6701C80181529E4F96012E193F094B
:1011B0002A153B0508F058C0013222E0120728F436
:1011C000D60114966C910E948F2F0F5F1F4FBFEFB7
:1011D000CB1ADB0AE7CF0E94671846C085E08A83F6
:1011E00043C00A811B81102701271027AC80B12C36
:1011F0006701C801879696012E193F092A153B05FC
:1012000098F5083BE1E01E0730F40E94712FD601EB
:1012100014968C9302C0F60114820F5F1F4FFFEFEC
:10122000CF1ADF0AE6CF0A811B811027012710277A
:10123000AC80B12C6701C801879696012E193F0931
:101240002A153B0588F4083B21E0120728F4D60153
:1012500014966C910E948F2F0F5F1F4FBFEFCB1A18
:10126000DB0AE9CF8FEF898380918103843009F015
:1012700032CB1091E9001F709091EC00892F8170A2
:1012800090FD80E8182B82E08093E9008091E800CF
:1012900080FF0CC040E050E060E270E0C7010E94B7
:1012A000CC238091E8008E778093E8001F70109324
:1012B000E90011CB09BD19BD09B400FEFDCF809135
:1012C000D8008F7D8093D8008091E0008260809369
:1012D000E0008091E00081FDFCCF0E94B32B04CBA5
:1012E00086E290E00E94712F1B821C821D828E83F9
:1012F000BBCF8C2D90E08A32910580F08091110156
:101300008F5F8093110182E080931401809113011B
:1013100081116FCDCC2009F43DCD6BCDFC01E75997
:10132000FF4F0C942A3080911301882329F040E06C
:1013300060E080E00E942A1980E0DBC31091110177
:10134000110F110F110F08E0010F093208F008E228
:101350006091BA037091BB038091BC030E94E72C9B
:10136000D62EB72EA82E101708F022C2E12FF0E0DB
:10137000DF01A551BE4F8C9190911201982331F05D
:101380002A2D4D2D6B2DCF010E942C191F5FEBCF05
:1013900010911101110F110F110F08E0010F093207
:1013A00008F008E2B090BB03D090BC03A090BA0351
:1013B000B5018D2D0E94E72C962E872E782E6091F8
:1013C000BD036A0D7B2D8D2D0E94E72CD62EB72EE6
:1013D000A82E101708F0ECC1E12FF0E0DF01A551B5
:1013E000BE4F8C9190911201982361F080FF04C050
:1013F0002A2D4D2D6B2D03C0272D492D682DCF0192
:101400000E942C191F5FE5CFD0901101DD0CDD0C7F
:10141000DD0C58E0B52EBD0C18E21B1510F448E2A7
:10142000B42E9090BB038090BC032091BD0330E4A8
:10143000A32E3A2D329F312D1124A32EDB1418F543
:101440000D2D10E0F801E551FE4F908180911201C1
:101450008923B9F0F801EE0FFF1FE159FE4F85A572
:1014600082958F706091BA038A9D600D1124792D49
:10147000882D0E94E72C462F282F672FC8010E9435
:101480002C19D394DBCF81E047E24B1508F031C330
:1014900053CFD0901101DD0CDD0CDD0C88E0B82EAF
:1014A000BD0C68E26B1510F408E2B02E9090BB03FF
:1014B0008090BC032091BD0310E4A12E7A2D729F71
:1014C000712D1124A72EDB1438F50D2D10E0F80135
:1014D000E551FE4F9081809112018923D9F0F801E6
:1014E000EE0FFF1FE556FE4F6081A69EB00111244E
:1014F000B5E075956795BA95E1F78091BA03680FE5
:10150000792D882D0E94E72C462F282F672FC801A0
:101510000E942C19D394D7CF81E097E29B1508F055
:10152000E8C20ACF10911101110F110F110F08E03D
:10153000010F093208F008E2B090BA03D090BB0363
:10154000A090BC036091BD036695669566958091F9
:101550008B0390918C030E94641A0E94C5198058D5
:1015600087FD8195880F282F3A2D239F212D112447
:10157000822F6B2D7D2D0E94E72CD62EB72EA82E04
:10158000101708F015C1E12FF0E0DF01A551BE4FA3
:101590008C9190911201982331F02A2D4D2D6B2DB5
:1015A000CF010E942C191F5FEBCF85EF96E102C09F
:1015B00089EC96E10E9449229CC28EEC97E102C020
:1015C0008FEA97E10E94712394C284E997E102C0F7
:1015D00088E797E10E94F6228CC287EC96E1EACF79
:1015E0008EEB96E1E7CF85EB96E1E4CF8AE996E1D1
:1015F000E1CF8BE896E1EECF8BE39AE1E3CF87E68C
:1016000097E1E0CF83E597E1E5CF8DE596E105C071
:101610008BE296E102C08DEE95E10E94962269C2AE
:101620008091130181111EC06091BD0320E1620F02
:1016300008F46FEF80918B0390918C030E94641AE1
:101640006AE070E00E94F12E892B09F075CE0E94AD
:10165000512F68E270E00E941630609112010E94E2
:1016600055196ACE00911101000F000F000FF8E02C
:10167000DF2ED00E48E24D1510F4E8E2DE2E10E029
:10168000AD2CB12C0A151B0544F460911201C80160
:101690000E9455190F5F1F4FF5CF81E067E26D156E
:1016A00008F027C249CE8091130181111EC06091BC
:1016B000BD0320E1620F08F46FEF80918B039091DE
:1016C0008C030E94641A65E070E00E94F12E892B61
:1016D00009F032CE0E94512F68E270E00E9416306D
:1016E000609112010E942E1927CE00911101000F66
:1016F000000F000F78E0D72ED00E78E27D1510F4A1
:1017000068E2D62E10E0AD2CB12C0A151B0544F46E
:1017100060911201C8010E942E190F5F1F4FF5CF73
:1017200081E097E29D1508F0E4C106CE1091110109
:10173000110F110F110F08E0010F093208F008E234
:10174000B090BB03D090BC03A090BA036091BD03DE
:1017500066956695669580918B0390918C030E94A7
:10176000641A0E94C519805887FD8195880F682FDB
:101770002CE0629F612D11246A0D7B2D8D2D0E941E
:10178000E72CD62EB72EA82E101790F4E12FF0E0FC
:10179000DF01A551BE4F8C9190911201982331F039
:1017A0002A2D4D2D6B2DCF010E942C191F5FECCFE0
:1017B00081E0083208F49DC1BFCD86EE99E1FACEF2
:1017C0008CED95E1F7CE00911101000F000F000F95
:1017D00018E0100F1DAF1D3210F01CE21DAF8091FC
:1017E0001301882361F040E060E080E00E942A1944
:1017F0008CE2E2E5F2E0DF011D928A95E9F7809143
:101800001101811115C080914F02909150020E94E8
:10181000232A21E08931910508F420E020934E022B
:10182000499730F00E943E2A9093500280934F02D5
:1018300010E0BDAD6B2E712C5AEA552E061517051A
:101840000CF06AC04801E3E08E2299241801359417
:101850002794359427942BE0289DF001299DF00DC5
:101860001124EE5AFD4FE20DF31DD080A701622D29
:10187000882D0E949B19482E57018A2D8E19841598
:1018800008F032C0D501EC91F0E0E551FE4F9081B7
:1018900080911201892321F13D2D25E5321B08F4A9
:1018A00030E07091BB03252D4D2D240F08F42FEF50
:1018B0004091BC0362E0269F200D11242E5F249FDF
:1018C000212D1124652D631B822F0E94E72C462FAA
:1018D000D5019C91282F672F892F90E00E942C1909
:1018E000BFEFAB1ABB0AC9CF80914E02882389F0A3
:1018F0002D2D31E0231B08F420E04BE0489DC00172
:10190000499D900D11248E5A9D4FFC01E20DF31D4F
:1019100020830F5F1F4F92CF81E00DAD0C3208F492
:10192000E8C00ACD80911301882371F040E060E0A7
:1019300080E00E942A198CE2E2E5F2E0DF011D92CC
:101940008A95E9F71092510292E5892E92E0992E3C
:1019500000E0DD24DA9420EC522E3FE2632E712C5D
:10196000540110E011110CC080915102811108C086
:101970000E94512F853595401CF4F401D08206C099
:10198000D5018C9181508E3F08F48C93A701602F74
:10199000812F0E949B19882311F1F5014081398123
:1019A000413D70F050E0405D5109549EC001559E8C
:1019B000900D1124B3010E94F12E262F4FEF0BC082
:1019C000FFEF4F9FC001112460ED70E00E94F12EE7
:1019D000462F20E060E0832F90E00E942C191F5FCB
:1019E0002BE0A20EB11C143009F0BCCF0F5F3FEF0B
:1019F000831A930A0B3009F0B3CF809151028F5FA5
:101A00008D3118F48093510297CC1092510228E640
:101A100032E083E04EEFA2E5B2E0F9019BE08330D3
:101A200041F491965C9191975F3F19F491964C9394
:101A3000919750815F3F11F44083538791503196C5
:101A400011969111ECCF81502B5031098111E3CFC8
:101A500073CC85ED95E102C08FEC95E10E94D52114
:101A600048C080918F0321E0482F421B08F440E0DA
:101A7000842F66EB75E13BC066EB75E137C0809162
:101A80008F0321E0682F621B08F460E0862F6EE769
:101A900075E12DC06EE775E129C080918F0321E0CB
:101AA000782F721B08F470E0872F6CE475E11FC07B
:101AB0006CE475E11BC080918F0321E0082F021BAD
:101AC00008F400E0802F64E375E111C064E375E180
:101AD0000DC080918F0321E0182F121B08F410E035
:101AE000812F6EE175E103C06EE175E180E00E9437
:101AF0000E21909111019F5F90931101882309F4A9
:101B000002CC77C9982F92959F7019F0892F24E005
:101B100001C020E0982F9695969511F02E5F892FA1
:101B2000982F969509F02F5F822F08951F93CF93DA
:101B3000DF93CDB7DEB767970FB6F894DEBF0FBE61
:101B4000CDBF4B8B5C8B6D8B7E8B8F8B611110921D
:101B50006E0386E09E01235F3F4FD901E82F1D925F
:101B6000EA95E9F795E0FE017396D90101900D928F
:101B70009A95E1F79C894E895F897B897D879E874D
:101B80006F87598B488BF901DE01179601900D92F2
:101B90008A95E1F7CE0107960E945D1E81113EC035
:101BA00086E0FE013796DE01119601900D928A952E
:101BB000E1F7FF81E8856A857B856115710531F064
:101BC000EF3F31F481E0FF3F19F403C081E001C031
:101BD00080E080FD23C020913A0330E0C9010196E6
:101BE0008770992740916B0350E08417950779F12E
:101BF000F983EA837D836C8396E0929FD001939F63
:101C0000B00D1124A55CBC4FFE01319601900D92E0
:101C10009A95E1F780933A030E94DA1D16E08091CD
:101C20006B0390913A038917F9F0189FC0011124B2
:101C3000855C9C4F0E945D1E8823B1F080916B03F0
:101C400090E001968770992780936B03E8CF0E94FC
:101C5000B32B10923A0310926B03E4E3F3E086E0B7
:101C6000DF011D928A95E9F767960FB6F894DEBFFB
:101C70000FBECDBFDF91CF911F9108953F924F923C
:101C80005F926F927F928F929F92AF92BF92CF920C
:101C9000DF92EF92FF920F931F93CF93DF93CDB715
:101CA000DEB729970FB6F894DEBF0FBECDBFFC019B
:101CB0008081918123813481232B31F09F3F31F446
:101CC00091E08F3F19F403C091E001C090E090FDD6
:101CD0000AC67F0185E0DE01119601900D928A957A
:101CE000E1F7F701228189819A81222349F00E943C
:101CF000E02A182F682F89819A810E943B2B03C00C
:101D00000E940F2B182F69817A81812F0E94D11890
:101D10008C01F7019281992309F4F2C098012251B4
:101D20003F452031310508F019C18FEF93E00E9443
:101D3000712F8111EFC002513FED832E99249394AE
:101D4000002379F08114F4E09F0609F4E3C0C40194
:101D50000E94712F811101C001502FEF821A920A47
:101D6000EFCF1E821F8218861986442443942AE0EE
:101D7000322E84010F5F1F4FC4010E94712F8E838A
:101D80001F82882309F4C6C09FEF980F933060F438
:101D90008F834E8232E0830E911CC8010E94712F06
:101DA0008887811102C0B6C048018E010A5F1F4FAB
:101DB000F80120812223E9F2213009F04CC0818111
:101DC000813049F46801F2E0CF0ED11CF801828124
:101DD0000E94CB2C0AC0823051F46801F2E0CF0E91
:101DE000D11CF80182810E942F2C860186C083308D
:101DF00049F46801F2E0CF0ED11CF80182810E9403
:101E0000D32BF3CF843019F00F5F1F4F76C0F8014A
:101E100022810E5F1F4F80E090E030E020533109B7
:101E20002A30310568F4389EA001399E500D1124E6
:101E3000C901840F951F0F5F1F4FF8012081EDCF5F
:101E4000009709F45AC0EFE9FFE03197F1F700C0BD
:101E500000000197F5CFE22FF0E0E256FE4F5490DC
:101E6000822F86958695869590E0FC01E257FE4F7D
:101E700064902770712C022E02C0759467940A94A6
:101E8000E2F7F1E06F227724FC01E258FE4FA490C4
:101E9000B12C022E02C0B594A7940A94E2F731E067
:101EA000A322BB24FC01E259FE4FC490D12C02C0F6
:101EB000D594C7942A95E2F781E0C822DD24611405
:101EC000710419F081EE0E942F2CA114B10419F0B5
:101ED00086EE0E942F2C852D0E94CB2CAB2819F06A
:101EE00086EE0E94D32B672819F081EE0E94D32B37
:101EF000CD2819F08CE20E94CB2C0F5F1F4F58CFDA
:101F000000313FE5130709F0E5C481E00E946C2B26
:101F10000E94EC2080916C03877009F4E4C4F701FF
:101F20008281882309F4DFC482E029960FB6F894F1
:101F3000DEBF0FBECDBFDF91CF911F910F91FF90FC
:101F4000EF90DF90CF90BF90AF909F908F907F9059
:101F50006F905F904F903F900C94BD1D0031FFE556
:101F60001F0711F481E005C001312FE5120721F4AC
:101F700082E00E94782BCCCF0933110571F49923AC
:101F800009F494C180912002882319F01092200254
:101F90004EC081E0809320024AC0033FECE51E075B
:101FA00059F190F4083D2CE51207E9F0093D3CE5B4
:101FB0001307A1F1073D8CE51807B1F506E221EE04
:101FC00041EE67ED7CE514C0053FECE51E0701F12D
:101FD000C8F0063F2CE5120739F507E225EE46EE7C
:101FE00066EF7CE505C007E225EE45EE68ED7CE591
:101FF000C7010E946E1A8ECF06E221EE40EE63EF1B
:102000007CE5F6CF07E225EE44EE64EF7CE5F0CF09
:1020100006E221EE42EE65EF7CE5EACF08E221E040
:1020200045EE69ED7CE5E4CF992309F43FC11092B8
:102030002B0302303CE5130708F422C106318CE57E
:10204000180738F098012A5F3C452930310508F01F
:1020500017C10E94EA1C9093170280931602003168
:102060009CE5190709F4C3C008F041C00830FCE53D
:102070001F0709F49AC0F0F404303CE5130709F493
:1020800087C068F402309CE5190709F477C0033073
:102090001C4509F0E5C080911602826076C00630CA
:1020A000FCE51F0709F46EC008F07BC080911602A2
:1020B00088606BC00C303CE5130709F485C068F4F8
:1020C0000A309CE5190709F474C008F079C00E9431
:1020D000B32B80911602806858C00E30FCE51F07B4
:1020E00009F476C008F07FC0809116028BC00B3FC8
:1020F0003CE5130709F44FC018F503319CE51907B7
:1021000009F47DC078F40131FCE51F0709F473C0C0
:1021100002311C4509F0A4C00E94B32B8091160225
:102120008F7733C005313CE5130709F472C008F41A
:1021300086C00A3F1C4509F093C0809117023EC03B
:102140000F3FECE51E0709F45FC058F40D3F2CE586
:10215000120709F444C008F43FC08091170282605E
:102160002DC001308DE5180709F475C008F45DC075
:1021700002301D4509F074C060E06EC08091160207
:10218000816003C08091160280618093160268C04E
:102190008091160211C0809117028260809317020D
:1021A0005FC0809116028062F0CF80911602806439
:1021B000ECCF8091160288608460E7CF8160EECF1B
:1021C000809116028E7FE1CF809116028D7FDDCF48
:1021D00080911602877FD9CF8091170218C0809115
:1021E00017028D7FDBCF809116028F7ECECF80913C
:1021F00016028F7DCACF809116028F7BC6CF809149
:102200001602877F8B7FC1CF809117028D7F8E7FD3
:10221000C5CF8091160282FB222720F991E09227F8
:1022200090FB82F990FB83F9B0CF80911702982F31
:10223000909591708E7F892B90FB81F9AFCF0E9492
:10224000B32B8091160287FB222720F991E0922779
:1022500090FB87F99ACF61E08EE090E00E948F2F8B
:10226000609116021091170284E090E00E948F2F77
:10227000612F82E290E00E948F2F0E94B32B4ACE02
:1022800080916F030631FCE51F0709F58A7A91E01A
:1022900009F490E09093B002882311F065E301C047
:1022A00069E28CE293E00E94802A0EC006311C4550
:1022B00009F0D8C08091B002882309F412C365E305
:1022C0008CE293E00E94732A0E94761D23CE8272D4
:1022D0000A3CFCE51F0709F47BC098F5053C3CE58A
:1022E000130709F461C0B8F4033CFCE51F0709F4C7
:1022F00051C008F054C0023C3CE5130709F07FC010
:102300008091B90391E089278093B9031092140159
:102310009093B803FFCD073CECE51E0709F44EC0CF
:1023200008F447C0083C2CE5120709F44CC0093CEE
:102330003CE5130709F063C042E158E16EE178E142
:1023400055C00F3CECE51E0709F455C098F40C3C51
:102350002CE5120709F446C008F43FC00D3C8CE59B
:10236000180709F446C00E3CECE51E0709F047C00B
:1023700085E042C0063DFCE51F0730F4013D1C45E9
:1023800008F0C8CD82E138C00D353DE5130709F4EA
:10239000C1CD35C044E558E16DE578E127C04DE594
:1023A00058E164E578E122C042E458E16BE478E169
:1023B0001DC04BE458E162E478E118C04AE258E1FC
:1023C00066E378E113C046E358E16AE278E10EC0C3
:1023D0004EE158E162E178E109C046E055E162E191
:1023E00075E104C042E155E166E075E10E942419FF
:1023F00091CD81E001C08DE00E94F7208BCD992323
:1024000089F10A358DE5180741F150F40115ECE525
:102410001E07A9F00E3D1C4529F50E94061D7ACD28
:102420000B352DE51207D9F00C351D45D9F48091F7
:10243000170282FB882780F991E0892711C00E944A
:10244000B32B8FEF94E3ECE081509040E040E1F754
:1024500000C000000E94D9295DCD81E001C080E06C
:102460000E94A31DF701828100811181882349F018
:10247000C8010E94E02AD82E682FC8010E943B2B79
:1024800004C0C8010E940F2BD82EB8018D2D0E94C8
:10249000D1180E943D1BB82E192F982EF7010281EA
:1024A000A580A2949FE0A92280916C03877099F087
:1024B000002389F0812F807F803421F080E28B0D12
:1024C000883048F082E00E94BD1D80916C038770C7
:1024D000DD24D3948111D12CC12EC2948FE0C82267
:1024E0008C2D90E08C30910508F0C0C1FC01ED56B8
:1024F000FF4F0C942A30812F807F1F70882311F0AA
:102500001295107F0023B9F0112309F493C180E2E2
:102510008B0D883010F0911006C080916F03182B3E
:1025200010936F0305C080916E03182B10936E03F8
:102530000E94761D7FC18B2D0E94D32B112309F49D
:1025400095C180E28B0D1095883010F0911006C077
:1025500080916F03182310936F0305C080916E0361
:10256000182310936E030E94761D80C1812F807FF7
:102570001F70803211F01295107F8B2D992021F061
:10258000F1E09F1611F130C00023B1F0AA2081F0D4
:1025900021E0A2120DC08091170282FD67C18091D7
:1025A0007003182B181709F461C1109370035EC1F2
:1025B00080917003812B10C0AA2021F031E0A31676
:1025C00009F454C10E94701D28C0002341F085E029
:1025D0008A1508F44BC1812F0E94C92B47C194E092
:1025E0009A1508F443C119C0002319F0AA2099F3E1
:1025F00021C1AA2091F0893341F4EFEFF7EE23E0F7
:10260000E150F0402040E1F72CC13FE788E391E042
:10261000315080409040E1F724C1812F0E94BE2BB1
:1026200025C1812F86958695837019F0813061F0E0
:102630001DC1002321F08B2D912F937002C080E0EB
:1026400090E00E94B02A18C1002321F08B2D912F19
:10265000937002C080E090E00E949A2A0DC1812F01
:102660008370A9F5011106C14B2D4295469547701F
:10267000440F440F8B2D8F7090E09C01042E01C0FD
:10268000220F0A94EAF7B4FE08C08FE090E001C080
:10269000880F4A95EAF7809501C080E01695169557
:1026A0001370123069F088F490917103113019F0B1
:1026B000822B892302C0922B892B0E94832BDAC0A4
:1026C000822B909171038927F8CF822BF6CF0023BC
:1026D00019F0812F817001C08695882309F4CAC042
:1026E0004B2D429546954770440F440F8B2D8F70AC
:1026F00090E09C01042E01C0220F0A94EAF7B4FE78
:1027000008C08FE090E001C0880F4A95EAF78095F5
:1027100001C080E0169516951370123059F078F4C8
:102720009091BF03113019F0822B892309C0922B9D
:10273000892B06C0822B9091BF03892701C0822B71
:102740000E94662B97C01F70002339F0812F0E94D2
:10275000782B8B2D0E94C92B8DC08B2D0E94BE2BF8
:10276000812F0E946C2B86C08B2DE2EF9E1659F1B3
:10277000E91538F0F0EF9F1659F021EF9216F1F0BD
:1027800055C033EF931631F194EF991681F14EC095
:10279000002379F0E4E0EA1508F468C01F7181E0D5
:1027A00090E001C0880F1A95EAF79091BF0389273E
:1027B0001BC0F5E0FA1508F459C0F0CF002329F04A
:1027C000812F8F7126C00023D9F3812F8F710E9432
:1027D0006C2B4CC0002339F01F7181E001C0880FC1
:1027E0001A95EAF701C080E00E94662B3FC00023E3
:1027F00099F01F71812F0E94782B8091170282FD22
:1028000007C028E0129FC0011124836080936C03ED
:10281000812F0E94782B2AC081E00E94BD1D31E0EB
:102820003A1520F582E00E94BD1D20C0002331F042
:10283000AA2031F28B2D0E942F2C18C0AA2029F239
:10284000893341F48FEF97EEE3E081509040E04010
:10285000E1F707C0FFE728E331E0F15020403040C6
:10286000E1F700C000008B2D0E94D32B88EF8C0D68
:10287000843010F40E94C62ADD20A9F180916C03F7
:1028800080FD31C0F70112828595859585950E945E
:10289000782BC7010E943E0E80916C03859585952B
:1028A000859529960FB6F894DEBF0FBECDBFDF9198
:1028B000CF911F910F91FF90EF90DF90CF90BF903D
:1028C000AF909F908F907F906F905F904F903F90D0
:1028D0000C946C2B01318FE5180709F04DCB82E089
:1028E00015CB69E2EDCC29960FB6F894DEBF0FBE8A
:1028F000CDBFDF91CF911F910F91FF90EF90DF90AF
:10290000CF90BF90AF909F908F907F906F905F908F
:102910004F903F900895CF93C82F0E94820D813031
:1029200081F020F0823089F0833091F08091200294
:10293000882319F040E060E00DC04FEF60E080E0D8
:102940000AC04FEF60E08AE706C040E06FEF02C0C8
:1029500040E060E88FEF0E94CC208C2F867086309C
:1029600019F48C2F886002C08C2F877FCF91089537
:10297000DC01FB0180819181803891053CF08FE77B
:102980008C93808191818F5791090AC081382FEFF4
:1029900092074CF481E88C938081918181589F4FFC
:1029A0009183808308958C93118210820895681713
:1029B00020F4861B682F21E002C0681B20E0469FA0
:1029C000A0011124649FC001659F900D1124917096
:1029D000222319F09195819591090895E1EBF2E098
:1029E00093E0E932F90729F08183608342833396CB
:1029F000F7CF0895FC01EE0FFF1F8E0F9F1FFC0104
:102A0000EF54FD4F6183408322830895E9EBF3E0A7
:102A1000248130E1231B08F420E0248381E08093AB
:102A2000B8030895E9EBF3E0248130E1230F08F4C3
:102A30002FEF248381E08093B8030895EF92FF92F3
:102A40000F939701201B31092F3F310519F010F02A
:102A50002FEF30E02095382F320F08F43FEF832F0F
:102A60000F91FF90EF900895EF92FF920F939701CF
:102A7000201B31092F3F310519F010F02FEF30E006
:102A8000322F3095482F430F08F44FEF842F620FF9
:102A90000F91FF90EF900895EF92FF920F93972F71
:102AA000093438F4B701601B71096F3F710519F0E3
:102AB00010F06FEF70E0485F5F4F4131510540F01B
:102AC000A901485F5F4F4131510510F06FEF70E091
:102AD0006095482F460F08F44FEF842F37FF02C050
:102AE0002D5F3F4F35952795359527956091BA0312
:102AF000620F792F0F91FF90EF900895EF92FF9260
:102B00000F93E00EF11CF90137FF03C0F195E19539
:102B1000F10924E0EE0FFF1F2A95E1F7EF3FF105E1
:102B200019F014F0EFEFF0E09A0157FF03C0319570
:102B30002195310994E0220F331F9A95E1F72E1762
:102B40003F070CF4F901EE0DFF1DEF3FF10519F001
:102B500010F0EFEFF0E02E2F2095382F320F08F411
:102B60003FEF832F0F91FF90EF900895EF92FF9228
:102B70000F93970195E0099F200D311D11242F3FE0
:102B8000310519F010F02FEF30E02095382F320F7B
:102B900008F43FEF832F0F91FF90EF90089522E804
:102BA000241B08F420E0620F08954095282F429FCF
:102BB000412D1124842F0895E42FF0E0EE0FFF1F24
:102BC000E556FE4F9081921B97FD9195292F38E194
:102BD000239F212D1124620F08950F931F9310E05E
:102BE000F801EE0FFF1FE556FE4F9081945697FDBA
:102BF0009195000F111FF801E159FE4FE5A5F0E096
:102C0000B097DF01AA0FBB1F8D010E0F1F1F2003FE
:102C1000D001219FB00D1124E8E3F0E0E91BF10998
:102C200097FDF3959F01220F331F89010E0F1F1F80
:102C300040039001419F300D11242A0F3B1F37FFA5
:102C400002C021583F4F220F232F221F330B620F48
:102C50001F910F9108950F931F93522F10E0F801C9
:102C6000EE0FFF1FE159FE4FE5A5F0E0B097EE0F24
:102C7000FF1F9F015203D001539FB00D1124000F7D
:102C8000111FF801E556FE4F008110E004561109AE
:102C9000000F111F40039001419F300D11242A0F96
:102CA0003B1F37FF02C021583F4F220F232F221F07
:102CB000330B620F1F910F9108950F931F93522FA3
:102CC00010E0F801EE0FFF1FE159FE4FE5A5F0E01F
:102CD000B0979F015203D001539FB00D1124000FF4
:102CE000111FF801E556FE4F008110E0045611094E
:102CF00040039001419F300D11242A0F3B1F37FFE5
:102D000002C021583F4F220F232F221F330B620F87
:102D10001F910F910895EF920F931F9393E0099FD6
:102D200080011124159507956E2D600F1F910F914D
:102D3000EF900895A22F50E0FA01EE0FFF1FE15926
:102D4000FE4F95A5905297FD9195440F551FFA019E
:102D5000E556FE4F3081232F30E02A1B3109290F21
:102D6000311D97FD3A95620F0895E42FF0E0EE0FC4
:102D7000FF1FE159FE4F65A5621B0895E42FF0E0A7
:102D8000EE0FFF1FE556FE4F6081621B0895622F14
:102D90000895E42FF0E0EE0FFF1FE556FE4F40814F
:102DA00034EE439F412D1124E82FF0E050E0445EC3
:102DB0005F4FDA01A21BB1099D01B7FF03C0319536
:102DC0002195310993E0220F331F9A95E1F7AF0166
:102DD000421B530B9A0157FF02C020E030E0582FEE
:102DE000259F212D1124822F0895E42FF0E0EE0F6E
:102DF000FF1FE556FE4F408134EE439F412D1124C5
:102E0000E72FF0E050E0445E5F4FDA01A21BB1090A
:102E10009D01B7FF03C031952195310993E0220F41
:102E2000331F9A95E1F7AF01421B530B9A0157FFED
:102E300002C020E030E0279F212D1124722F089539
:102E4000FC019B01009721F477FF2BC080E80895D7
:102E5000AC0197FF04C044275527481B590BB90103
:102E6000640F751F37FD0CC0241B350BC901A5E08D
:102E7000880F991FAA95E1F70E94163080E20CC0D6
:102E8000CB0165E0880F991F6A95E1F7BA01621BD3
:102E9000730B0E94163080E6861BF7FF03C08195F6
:102EA000089580E00895EF920F93CF93DF93D72F8B
:102EB000C82FC9010E19BA010E942017602F681B84
:102EC0007D2F8C2FDF91CF910F91EF9008950F936D
:102ED000CF93DF93D72FC82FC901BA010E942017C3
:102EE000682F600F7D2F8C2FDF91CF910F91089568
:102EF000EF920F931F93CF93DF93D62FC72F182FE7
:102F0000C9010E19010FBA010E942017081B202FBA
:102F1000219F212D1124822F6D2F7C2FDF91CF91A6
:102F20001F910F91EF900895EF920F931F93CF93FE
:102F3000DF93D62F172FC82FC9010E19070FBA011B
:102F40000E942017702F781B719F712D11246D2FF7
:102F50008C2FDF91CF911F910F91EF900895FF92E9
:102F60000F931F93CF93DF93F62ED72F182FC901FE
:102F7000C12FC01BBA010E942017982F990F890FEB
:102F8000C81B2C2F219F212D1124822F6F2D7D2FC7
:102F9000DF91CF911F910F91FF900895FF920F93B2
:102FA0001F93CF93DF93F62E172FD82FC901C72F6A
:102FB000C01BBA010E942017982F990F890F7C2FF0
:102FC000781B719F712D11246F2D8D2FDF91CF9163
:102FD0001F910F91FF900895809A81B38E7F91B3D6
:102FE00091602FB7F894E1EBF2E033E0E932F307B8
:102FF00089F0319148E091BB000000C037FF81BBF0
:10300000330F000000C000C000C081BB00C04A9563
:1030100091F7EBCF2FBF8FE594E00197F1F700C058
:1030200000000895E9EBF3E0438120E1421B08F43E
:1030300040E08181628190E00C94F823E9EBF3E0B9
:10304000438120E1420F08F44FEF8181628190E0DB
:103050000C94F823E9EBF3E0628120E1621B08F4B1
:1030600060E08181438190E00C94F823E9EBF3E088
:10307000628120E1620F08F46FEF8181438190E06B
:103080000C94F823E9EBF3E0818190E043816281C5
:1030900008970C94F823E9EBF3E0818190E04381F9
:1030A000628108960C94F8238091B90386958695E1
:1030B000815009F489E20C94F7208091B903869538
:1030C00086958F5F8A3208F081E00C94F720CF93C9
:1030D000DF93CFEDD1E060E0CE010E948F2F2196EB
:1030E000C11584E0D807B9F7DF91CF910895CF9249
:1030F000DF92EF92FF920F931F93CF93DF93C0E085
:10310000D0E08E01085A1F4F6E0186E1C80ED11C17
:10311000FE01E25EFD4FE590F4906F2DCE018796A3
:103120000E948F2F6E2DCE0188960E948F2F22969F
:10313000CC15DD0569F70C171D0731F7E801083BD1
:103140001140F9F6DF91CF911F910F91FF90EF9011
:10315000DF90CF9008950F931F93CF93DF93C42FE9
:10316000D0E0CC0FDD1F26E1629FC00DD11D1124E0
:1031700038E5839FC00DD11D1124CE0187960E9492
:10318000712F082F10E0102F0027CE0188960E9483
:10319000712F9801282BC901DF91CF911F910F91B9
:1031A0000895462F853038F4743028F46B3018F4C5
:1031B000672F0C94AB1880E090E00895CF93C82F50
:1031C000811102C06FEF01C061E283E290E00E94D2
:1031D0008F2FC11102C06FEF01C061E184E290E066
:1031E0000E948F2FC11102C06FEF01C064E185E220
:1031F00090E0CF910C948F2F80E00E94DE1860E069
:1032000086E290E00E948F2F0E9477180E94671834
:1032100081E00C94DE1883E290E00E94712F8132ED
:1032200081F484E290E00E94712F813151F485E2B3
:1032300090E00E94712F91E0843109F090E0892F95
:1032400001C080E081700895882311F0FA0101C067
:10325000FB0109940C94EE140C94FA141F93CF9371
:10326000DF93FC01E551FE4F20816223D1F0EC0198
:103270000E94512F182F0E94512F8F77782F20E80E
:10328000720F08F47FEF612F8091BC030E94E72C3E
:10329000462F282F672FCE01DF91CF911F910C94DD
:1032A0002C19DF91CF911F910895DF92EF92FF9239
:1032B0000F931F93CF93DF93EC01FC01E551FE4F79
:1032C0009081692381F1D090BB030091BC031091E0
:1032D000BA03E12EF12C0E94512F282FC7018C54E4
:1032E0009F4F68E671E00E9416308E199F0997FD86
:1032F000039695958795959587952370612F289FBF
:10330000600D11247D2D802F0E94E72C462F282F41
:10331000672FCE01DF91CF911F910F91FF90EF901A
:10332000DF900C942C19DF91CF911F910F91FF909A
:10333000EF90DF9008952BE0829FC0011124FC01E3
:10334000E159FE4FE60FF11D80818F3F21F0FA0118
:10335000808381E0089580E00895E9EBF3E085E360
:1033600080838091150190911601A09117018183AE
:103370009283A3838FE784838FEF858346E050E0B9
:103380006CE170E0CF010C947F2F482F982F46FD01
:103390009095E92FEF739F7046FD9F5FE295EF7068
:1033A000EE0FF0E0E95DFE4F2181299F802D212D58
:1033B000112482958F702295207F822B3081982F47
:1033C000930F892F47FD8195805808950F931F9380
:1033D000CF93DF93D62F072F182FC42F822F0E9451
:1033E000C519EC2FF0E0EE0FFF1FE556FE4F908160
:1033F0009058890F87FD8195880F682F2CE0629F78
:10340000612D11246D0F702F812FDF91CF911F91AE
:103410000F910895BC018230910508F40895613E32
:103420008EE1780748F49B0195E0369527959A95AB
:10343000E1F748E0420F01C04FEF91E0242F30E068
:10344000290F311D35952795229FF001239FF00DFF
:10345000F00D11246E177F0718F44FEF420F04C0D0
:103460002F3F39F091E0920F491740F78FEF890F06
:1034700008958FEF08950F93CF93DF93D72FC82F21
:1034800047FD4195E2E3F0E0CF01841B910947FD40
:103490009395889FB001899F700D700D1124229F14
:1034A000C001239F900D900D1124860F971F0E943D
:1034B0000A1A682F660F860F682F600F7D2F8C2FDA
:1034C000DF91CF910F91089520E030E0869F212D6C
:1034D000969F200D311D1124C90108950F931F934C
:1034E000CF93DF93C42FD22FFC0182818823C9F0B0
:1034F00040932B030E943E2A90932A038093290332
:1035000080E28C0F883008F057C0C77081E001C09E
:10351000880FCA95EAF7DF91CF911F910F910C9414
:10352000C92B80912B03481330C0809129039091BF
:103530002A030E94232A883C910538F510E21D0FCA
:10354000CD17B9F080E28C0F883040F4C77081E06D
:1035500001C0880FCA95EAF70E94BE2B183028F5E3
:1035600081E09D2F977001C0880F9A95EAF70E941D
:10357000C92B802F0E94CB2C1830F0F4D77081E03B
:1035800001C0880FDA95EAF70AC080E28C0F883014
:1035900098F4C77081E001C0880FCA95EAF7DF91FF
:1035A000CF911F910F910C94BE2B802FDF91CF9163
:1035B0001F910F910C94CB2CDF91CF911F910F9104
:1035C000089580E008959091160292FF0DC0282F73
:1035D0002871283019F4877F846006C0282F247151
:1035E000243011F48B7F886093FF0DC0282F287141
:1035F000283119F4877E846106C0282F2471243174
:1036000011F48B7E88612091170220FF0DC0382FA6
:103610003871383019F4877F816006C0382F3171D6
:10362000313011F48E7F886021FF0DC0282F287162
:10363000283119F4877E816106C0282F217121313C
:1036400011F48E7E886194FD877E0895F894E82FAA
:10365000E295EF70F0E031A1282F2F7081E090E02B
:1036600001C0880F2A95EAF7982F9095932391A38C
:1036700092A1892B82A378940895CF93DF93823807
:10368000910569F1B0F48133910509F46FC048F4F4
:103690008932910509F465C08A32910509F46BC03D
:1036A0008AC08533910509F457C089339105B9F073
:1036B00082C0833E910571F138F4803E9105B1F0EE
:1036C000823E910511F177C0863E9105B9F1873EA2
:1036D0009105C9F1843E910509F06DC024C0209187
:1036E000160220FD53C021FD51C065C08091160215
:1036F00080FD46C08091170280FF48C0809116026D
:1037000084FD63C183EE90E062C18091160282FF66
:103710003AC0F4CF8091160282FD35C08091170225
:1037200080FD34C0EBCF8091170281FF35C08091BE
:10373000160284FD4AC187EE90E049C180911602CD
:1037400083FF27C0F4CF8091160283FD22C08091B1
:10375000170281FD21C0EBCF8091160285FD1FC0AD
:1037600021C08091160285FD1DC019C080911602EE
:1037700086FD1BC01DC08091160286FD19C015C0B4
:1037800089E390E024C182EE90E021C180EE90E0D8
:103790001EC186EE90E01BC184EE90E018C189E264
:1037A00090E015C185E390E012C18AE290E00FC17C
:1037B00081E390E00CC1811530E5930708F062C009
:1037C000811520E4920718F09F70906A00C1803E36
:1037D000910548F4803C9105C0F0FC01EE0FFF1FFD
:1037E000E250FE4F0FC0811530E29307B8F181150A
:1037F00030E3930708F03CC0FC01FF70EE0FFF1FA1
:10380000E258FC4F85919491E2C0883A9105B8F452
:10381000853A910548F0855AE82FF0E0E15DFE4FCA
:10382000808190E09064D3C08130910509F4CAC0D2
:1038300008F4CBC08430910508F4C7C0C8C08F3BE2
:10384000910508F0C2C0885AE82FF0E0EE0FFF1F84
:10385000EE5CFE4F808191819464B9C0811521E0B6
:10386000920708F0B4C0883E910508F0AEC0AFC022
:10387000EC01DD2793FF03C0CE01986CA8C0CE01F8
:10388000906CA5C0811525E5920708F05BC08115F5
:1038900034E5930728F0982F8827846F906A97C0A3
:1038A000811522E5920738F5811531E59307F0F48B
:1038B0009C0174E0369527957A95E1F72370982F4F
:1038C0009370C1E0D0E002C0CC0FDD1F9A95E2F703
:1038D000DC68D22BE82FEF70E695E69520E2E29FB8
:1038E000F0011124CE018E2B9F2B71C0982F8827B9
:1038F000816F906A6CC0AC0143705527282F2695C4
:1039000026958115934578F481E090E002C0880FF8
:10391000991F4A95E2F730E2239FE00111248C2B96
:103920009D2B9C6854C081E090E002C0880F991FD5
:103930004A95E2F730E2239FE00111248C2B9D2B66
:103940009A6845C0EC01C11589E5D807B0F4C115E6
:1039500028E5D20728F09C2F8827806F906A37C00F
:10396000C11536E5D30788F58C2F0E94E31A8F71B5
:1039700090E0982F882790622AC0C1158AE5D80761
:1039800088F48C2F8F700E94E31A94E0D695C79527
:103990009A95E1F7CF70D0E0DC2FCC27D0699E015B
:1039A000282B0EC0CE0190568115904270F48D2FB9
:1039B0008F710E94E31A8F71DD27D0629E01382B30
:1039C000C90105C081E090E002C080E090E0DF9195
:1039D000CF910895CF9384E090E00E94712FC82F7B
:1039E00082E290E00E94712F2C2F30E0A901582B29
:1039F000CA01CF91089580E090E00E94792F893E1E
:103A00009E4F11F40C940B1980E0089569EE7EEF3F
:103A100080E090E00E94AD2F60E082E090E00E94A4
:103A20008F2F60E083E090E00E948F2F109271034F
:103A300060E084E090E00E948F2F60E082E290E0FE
:103A40000E948F2F60E085E090E00E948F2F60E061
:103A500086E090E00E948F2F6FEF87E090E00E9459
:103A60008F2F40E050E0BA0188E090E00E94A12F43
:103A700060E08DE090E00E948F2F40E050E0BA01BE
:103A800088E190E00E94A12F60E087E190E00E9431
:103A90008F2F40E050E0BA018CE190E00E94A12F0E
:103AA00060E070E080E290E00E94AD2F40E050E0E6
:103AB000BA0188E190E00E94A12F80E00E94DE1808
:103AC0000E94FC1840E050E0BA018FE090E00E94B4
:103AD000A12F40E050E0BA0183E190E00C94A12FC7
:103AE00080917003811110927003089590916F037B
:103AF00080916E03892B20916D03982F922B9093C8
:103B00002C0380917003882389F0892B80932C03E8
:103B1000EEE2F3E097E080E0915029F0219122233A
:103B2000D9F38F5FF9CF81110E94701DE091C2031C
:103B3000F091C303309731F00280F381E02D8CE2E5
:103B400093E009940895CF93C0911702C2FB99277F
:103B500090F9981781F080FBC2F9C0931702609129
:103B6000160284E090E00E948F2F6C2F82E290E09A
:103B7000CF910C948F2FCF91089520916C03809555
:103B8000822380936C03982F977041F430E0482F84
:103B9000082E000C550B2417350721F490911702BD
:103BA00092FF07C08595859585950E946C2B109294
:103BB0006C03089580916B0390913A03891719F073
:103BC0008F5F8770FBCF08950F931F93CF93DF9381
:103BD0008091390382958F7009F05DC08091360322
:103BE000882309F458C080916B0310913A036091C7
:103BF000340370913503C0913703D091380391E0BD
:103C00006F3F09F090E0292F06E0811709F443C0C7
:103C1000209721F07F3F21F030E003C031E001C068
:103C2000322F90E030FD34C0089FF001099FF00D65
:103C30001124DF01A55CBC4F11963C9111973713FD
:103C400027C03C91361324C012963C911297311133
:103C50001FC013964D915C9114974C1B5D0B483C13
:103C60005105B0F4809139038F70806180933903DE
:103C7000E05CFC4F80818F708061808384E393E0FF
:103C80000E943E0EDF91CF911F910F910C94DA1D8F
:103C900001968770BACFDF91CF911F910F91089550
:103CA000CF93DF93EC010E94E02ABE010E94D1185D
:103CB0000E943D1BDF91CF9108959F92AF92BF92DA
:103CC000CF92DF92EF92FF920F931F93CF93DF93E8
:103CD000CDB7DEB761970FB6F894DEBF0FBECDBF8C
:103CE0008C0185E0F801DE011D9601900D928A9508
:103CF000E1F7F801E280909134036091350340913F
:103D00003703509138034115510531F06F3F31F4BD
:103D100081E09F3F19F403C081E001C080E0F82FEB
:103D2000F1709F2E80FD02C1F80130812181C38096
:103D3000D48084E3A82E83E0B82EF0903603F601F9
:103D4000E41BF50BFF2009F4CAC080913903E83C5D
:103D5000F10508F095C0482F407F09F050C062136C
:103D600011C093130FC0FE2CE1100CC08F70806146
:103D700080933903C5010E943E0E80913903F801FA
:103D8000858311C1CD2831F02F3F31F481E03F3FD1
:103D900019F403C081E001C080E080FD03C081E030
:103DA0008E2502C080E090E0F82FF170FF2E80FF9A
:103DB0001CC080916B0340913A0356E0841709F4CC
:103DC000D0C090E0589FF001599FF00D1124E55CA0
:103DD000FC4F6181261306C06081631303C06281BA
:103DE000E61203C001968770E9CFFE2CEE2009F49D
:103DF000DAC0809139038160809339034DC062132A
:103E00000AC0931308C0E11006C0F8018583C801F9
:103E10000E943E0E6EC0C8010E94872B882351F17C
:103E2000EE2041F120913903822F82958F7090E02E
:103E3000029774F0809134039091350398878F83B3
:103E40001986DB86CA862C87CE0107960E943E0E15
:103E500086E0F801A4E3B3E001900D928A95E1F7C2
:103E60000E94E41D0AC06217C9F0C8010E94872B96
:103E700081111EC0C8010E943E0EFF24F39493C01E
:103E8000482F407F81F784E393E00E943E0E86E056
:103E9000F50111928A95E9F7F12C85C09313E5CFCE
:103EA000E110E3CFF8018583C8010E943E0E38C0BF
:103EB000EE2001F320913903822F82958F7090E0DC
:103EC000029734F280913403909135039A83898369
:103ED0001B82DD82CC822E83CE010196B7CFE83CD7
:103EE000F105F0F4FE2CEE2029F262130BC09313BF
:103EF00009C086E0F801A4E3B3E001900D928A9531
:103F0000E1F751C0C8010E94872B8111A1CF809198
:103F10003903816080933903C8010E943E0E43C07B
:103F200086E0F50111928A95E9F73DC0EE2009F48B
:103F3000A1CFC8010E94872BF82E882309F49ACFBD
:103F400086E0F801A4E3B3E001900D928A95E1F7D1
:103F500080913403909135030E94501E0E94E41D0D
:103F600022C03D872E878D859E850E94501E292F59
:103F700022952F70223028F49F7039F0811105C0EE
:103F80000BC0243028F49F7049F4805E883020F004
:103F9000C8010E943E0E9F2CF92C05C0F8019581A6
:103FA000907F99F7F9CF8F2D61960FB6F894DEBF09
:103FB0000FBECDBFDF91CF911F910F91FF90EF907A
:103FC000DF90CF90BF90AF909F9008956F927F92B7
:103FD0008F929F92AF92BF92CF92DF92EF92FF9219
:103FE0000F931F93CF93DF93CDB7DEB728970FB60C
:103FF000F894DEBF0FBECDBFAE014F5F5F4F7A01B9
:1040000088E0DA011D928A95E9F708E111E06A017A
:104010008CE1682E81E0782E88248394912CF8011D
:1040200080818F3F09F44DC0F894E82FE295EF703E
:10403000F0E021A18F70A40102C0440F551F8A95A2
:10404000E2F7CA01922F982B91A392A18095892320
:1040500082A3789400C0ECE1F1E020E030E0A12CF4
:10406000B12C81918F3FC1F0A82FA295AF70B0E025
:1040700090964C9150E08F70DA0102C0B595A795EB
:104080008A95E2F7A0FD08C0C401022E02C0880F85
:10409000991F0A94E2F702C080E090E0A82AB92AAA
:1040A0002F5F3F4F2B303105E1F6F80180818F3FC4
:1040B00011F00E94261BF0EAFA95F1F7D601AD92B5
:1040C000BC920F5F1F4FB2E0CB0ED11C6016710681
:1040D00009F0A5CF48E050E0B70188E192E00E94E6
:1040E000373011E0009709F410E0892B89F088E05F
:1040F000F701A8E1B2E001900D928A95E1F781E025
:10410000809374030E943E2A9093730380937203FA
:1041100080917403882351F180917203909173030D
:104120000E94232A059710F180911802909119029C
:104130009093A9028093A80280911A0290911B0289
:104140009093AB028093AA0280911C0290911D0271
:104150009093AD028093AC0280911E0290911F0259
:104160009093AF028093AE0210927403812F289631
:104170000FB6F894DEBF0FBECDBFDF91CF911F9178
:104180000F91FF90EF90DF90CF90BF90AF909F90F6
:104190008F907F906F9008950F931F93CF93DF932D
:1041A00000D000D0CDB7DEB789836A834B831C82F1
:1041B00004E610E024E030E0AE014F5F5F4F60E0C6
:1041C00084E10E94782E0F900F900F900F90DF9156
:1041D000CF911F910F9108958091BF03982F9670F2
:1041E000963011F4886001C0877F0C94662B909103
:1041F000B903937091F0811102C0946007C08A32B4
:1042000010F0946A03C0880F880F982B9093B9031D
:104210001092140181E08093B80308952F923F9289
:104220004F925F926F927F928F929F92AF92BF92C6
:10423000CF92DF92EF92FF920F931F93CF93DF9372
:10424000CDB7DEB727970FB6F894DEBF0FBECDBF50
:10425000282E4B0120911101220F220F220F2E83B5
:10426000122F185F193208F018E230918F0339834A
:10427000AE81A11708F07CC08E81682E712CF301ED
:10428000E551FE4F908180911201892309F46CC0A1
:104290003090BA034090BB03522C1F82C301880F99
:1042A000991FDC01A556BE4FBB83AA83C301880FAB
:1042B000991FFC01E456FE4FFD83EC83F9815F16E4
:1042C00008F040C0E52CF12CAA81BB81CC90D12C08
:1042D000F701E157FC4F8181C81AD108AC81BD813B
:1042E000AC90B12C8185A81AB108CC9C9001CD9CD2
:1042F000300D300D1124AA9CC001AB9C900D900D87
:104300001124820F931F0E940A1A082F6091BD0387
:1043100021E0620F08F46FEFF701EE0FFF1FE15786
:10432000FC4F818D928D0E94641A7C019501A6013B
:10433000632D742D8F81F4010995362E472E8F83BE
:104340005394BCCF2091BC038F81382F329F312DE5
:104350001124832F632D742D0E94E72C462F282FC4
:10436000672FC3010E942C198E818F5F8E8380CFAF
:1043700081E0183208F080E027960FB6F894DEBF8F
:104380000FBECDBFDF91CF911F910F91FF90EF90A6
:10439000DF90CF90BF90AF909F908F907F906F9065
:1043A0005F904F903F902F900895CF92DF92EF92C1
:1043B000FF920F931F93CF93DF938C01C091110154
:1043C000CC0FCC0FCC0FD8E0DC0FD93208F0D8E2FC
:1043D0002091BD0331E0230F08F42FEF30E040E0DF
:1043E00050E06FEF7FEF80E090E00E94B32F790103
:1043F000CD1708F041C0CC2ED12CF601E551FE4F6F
:104400009081809112018923A9F190918F0391509D
:1044100097FD15C0492F092E000C550BFA01E157E5
:10442000FC4F8189C813F3CF440F551FFA01E157A0
:10443000FC4F218D328D2E153F0548F701C09701A5
:104440006091BD0341E0640F08F46FEFC9010E9461
:10445000641AAC016091BA037091BB038091BC03F4
:10446000F80109950E94E72C462F282F672FC601D7
:104470000E942C19CF5FBCCF81E0D83208F080E0D9
:10448000DF91CF911F910F91FF90EF90DF90CF9030
:104490000895DF92EF92FF920F931F93CF93DF93D4
:1044A0008C01C0911101CC0FCC0FCC0FD8E0DC0FE8
:1044B000D93208F0D8E26091BD036695669521E097
:1044C000620F08F46FEF80918B0390918C030E9430
:1044D000641AD82ECD17F0F4EC2EF12CF701E5512B
:1044E000FE4F908180911201892391F06091BA036F
:1044F0007091BB038091BC032D2D4C2FF8010995C1
:104500000E94E72C462F282F672FC7010E942C19E5
:10451000CF5FE0CF81E0D83208F080E0DF91CF912B
:104520001F910F91FF90EF90DF9008959F92AF92AF
:10453000BF92CF92DF92EF92FF920F931F93CF9390
:10454000DF936C01C0911101CC0FCC0FCC0FD8E0E0
:10455000DC0FD93208F0D8E26091BD03669566950C
:1045600080918B0390918C030E94641A182F80E431
:10457000810F0E94C51990E8F92EF80E812F0E9434
:10458000C51920E8922E980ECD1700F5AC2EB12C4F
:10459000F501E551FE4F9081809112018923A1F030
:1045A0006091BA037091BB038091BC03E12E0C2F84
:1045B000292D4F2DF60109950E94E72C462F282F13
:1045C000672FC5010E942C19CF5FDECF81E0D83262
:1045D00008F080E0DF91CF911F910F91FF90EF9055
:1045E000DF90CF90BF90AF909F9008956F927F9291
:1045F0008F929F92AF92BF92CF92DF92EF920F93E2
:104600001F93CF93DF933C01C0911101CC0FCC0FCE
:10461000CC0FD8E0DC0FD93208F0D8E26091BD03AE
:10462000669580918B0390918C030E94641A182FD9
:10463000CD1708F044C08C2E912CF401E551FE4FAB
:104640009081809112018923C1F1F401EE0FFF1FC7
:10465000E556FE4FC080D12C84E6C81AD108F4017B
:10466000EE0FFF1FE159FE4FA5A4B12CE0E2AE1AF8
:10467000B108CC9C9001CD9C300D300D1124AA9C2A
:10468000C001AB9C900D900D1124820F931F0E94CE
:104690000A1A082F6091BA037091BB038091BC0382
:1046A000E12E9501A601F30109950E94E72C462F02
:1046B000282F672FC4010E942C19CF5FB9CF81E04A
:1046C000D83208F080E0DF91CF911F910F91EF90E9
:1046D000DF90CF90BF90AF909F908F907F906F9022
:1046E0000895CF92DF92EF92FF920F931F93CF9393
:1046F000DF936C01C0911101CC0FCC0FCC0FD8E02F
:10470000DC0FD93208F0D8E26091BD036695809144
:104710008B0390918C030E94641A182FCD1778F5A3
:10472000EC2EF12CF701E551FE4F908180911201A2
:10473000892319F1F701EE0FFF1FE159FE4F25A55F
:1047400030E020523109F701EE0FFF1FE556FE4F12
:10475000408150E0445651096091BA037091BB0307
:104760008091BC03012FF60109950E94E72C462F8A
:10477000282F672FC7010E942C19CF5FCFCF81E070
:10478000D83208F080E0DF91CF911F910F91FF9018
:10479000EF90DF90CF900895EF92FF920F931F93C9
:1047A000CF93DF937C018B010E94BE27811119C03A
:1047B000E70101151105A1F08091E80085FD0AC00F
:1047C0008091E8008E778093E8000E94BE278823BE
:1047D00081F307C089918093F10001501109E9CF5D
:1047E00080E0DF91CF911F910F91FF90EF9008959E
:1047F0009091B903937061F08093BA036093BB0307
:104800004D3308F04CE34093BC0381E08093B80340
:1048100008951F93CF93DF93CDB7DEB7AA970FB656
:10482000F894DEBF0FBECDBFE3E8F3E08091F10066
:10483000819343E0EB38F407C9F780918403833018
:1048400009F462C030F4813071F0823009F49CC008
:10485000B3C08A3009F488C08B3009F46DC0893048
:1048600009F0AAC020C080918303813A09F0A4C056
:104870008091E800877F8093E80080918703909182
:104880008803892B21F468E087E793E003C060E0A8
:1048900080E090E070E00E947B298091E8008B77B7
:1048A0008093E80089C080918303813209F084C03D
:1048B0008091870390918803009719F0029709F07F
:1048C0007BC08091E800877F8093E8008091E800BA
:1048D00082FD05C0809181038111F8CF6DC02091C8
:1048E000F3008091F20090E0922B029729F48091DE
:1048F000F1008B7F813021F48091F1008093760369
:104900008091E8008B7754C080918303813A09F04D
:1049100053C08091870390918803892B09F04CC084
:104920008091E800877F8093E8008091E80080FF15
:10493000FCCF8091100137C0809183038132E1F573
:104940008091870390918803892BB1F58091E800CD
:10495000877F8093E8000E94F127809185038093F0
:1049600010010E94B32B28C080918303813221F56E
:104970008091E800877F8093E8000E94F127809172
:1049800086038093750318C080918303813AA1F454
:104990008091E800877F8093E8008091E80080FFA5
:1049A000FCCF809175038093F1008091E8008E77B1
:1049B0008093E8000E94F1278091E80083FFDDC129
:1049C0008091830390918403492F50E04A30510530
:1049D00008F0D3C1FA01E156FF4F0C942A30803819
:1049E00021F0823809F0C9C108C080917F039091FD
:1049F0008003992389F082600FC0809187038F70B4
:104A0000873008F0BAC18093E9008091EB0085FB04
:104A1000882780F91092E9009091E800977F9093A1
:104A2000E8008093F1001092F10070C1282F2D7FD3
:104A300009F0A3C1882319F0823061F09EC18091F2
:104A40008503813009F099C1933009F080E08093AB
:104A500080032EC08091850381112AC08091870335
:104A60008F702FEF280F263008F087C18093E90060
:104A70002091EB0020FF1CC0933021F48091EB00CB
:104A8000806214C09091EB0090619093EB0021E064
:104A900030E0A90102C0440F551F8A95E2F7409308
:104AA000EA001092EA008091EB0088608093EB00AE
:104AB0001092E9008091E800877F8093E8000E94CF
:104AC000F1275BC1811159C1109185031F77809136
:104AD000E3008078812B8093E3008091E800877F5A
:104AE0008093E8000E94F1278091E80080FFFCCFCE
:104AF0008091E30080688093E300111102C082E09E
:104B000001C083E08093810338C18058823008F06F
:104B100034C120918503309186032C3D53E0350745
:104B200079F583E08A838AE289834FB7F894DE01BE
:104B3000139620E03EE051E2E32FF0E0509357005F
:104B4000E49120FF03C0E295EF703F5FEF708E2F7E
:104B500090E0EA3010F0C79601C0C0968D939D9307
:104B60002F5F243149F74FBF8091E800877F809302
:104B7000E8006AE270E0CE0101960E947B29B4C091
:104B80008091870390918803432F55274330510527
:104B9000A9F068F44130510509F4FEC042305105D6
:104BA00009F0EBC08BE590E0EBE5F4E04BC041325F
:104BB000510529F14232510589F1DFC0C901992718
:104BC00081309105A1F058F0029709F0D6C0E8ECC9
:104BD000F4E0E4918E2F90E0E8ECF4E030C0E2E104
:104BE000F5E0E4918E2F90E0E2E1F5E028C0E6EFF9
:104BF000F4E0E4918E2F90E0E6EFF4E020C0833003
:104C0000910508F0BAC0880F991FFC01E759FE4FC3
:104C10000190F081E02D89E090E014C0833091058F
:104C200008F0ABC0FC01EE0FFF1FED59FE4F0190E5
:104C3000F081E02DDC01A05ABE4F8C9190E00097EE
:104C400009F49BC02091E800277F2093E800209181
:104C5000890330918A032817390708F4C90140E015
:104C6000009789F120918103222309F43DC025306A
:104C7000D9F12091E80023FD37C02091E80022FD02
:104C80002FC02091E80020FFEBCF4091F30020914E
:104C9000F20030E0342B009759F02830310540F411
:104CA00044914093F100319601972F5F3F4FF3CF2E
:104CB00041E02830310509F040E02091E8002E77EE
:104CC0002093E800CDCF4111CDCF0AC08091810360
:104CD000882351F0853041F08091E80083FD04C0C5
:104CE0008091E80082FFF2CF8091E8008B7780937B
:104CF000E80043C0803809F040C08091E800877F19
:104D00008093E800809182038093F1008091E80015
:104D10008E77D3CE811131C0809185039091860327
:104D20009927029754F58091E800877F8093E800E7
:104D300010918503109382030E94F127111106C080
:104D40008091E30087FD02C081E001C084E0809390
:104D5000810342E061EC81E00E94102842E261ECB4
:104D600084E00E94102842E261EC82E00E94102858
:104D700042E260EC83E00E9410288091E80083FF0B
:104D800010C08091E800877F8093E8008091EB005D
:104D900080628093EB0005C082E190E0E6EBF4E0F6
:104DA00051CFAA960FB6F894DEBF0FBECDBFDF91EC
:104DB000CF911F910895809176030895909181037A
:104DC000943029F58093CB037093CD036093CC038B
:104DD0009093E9008FEF9091E800815095FD06C017
:104DE00095ED9A95F1F700008111F5CF8091E800DB
:104DF00085FF0DC040E050E063E070E08BEC93E095
:104E00000E94CC238091E8008E778093E80008957B
:104E1000BC0184E00C94DE26BC0183E00C94DE2609
:104E200024E02093E9002FEF3091E800215035FD78
:104E300006C035ED3A95F1F700002111F5CF20912C
:104E4000E80025FF0BC040E050E066E070E00E9403
:104E5000CC238091E8008E778093E8000895CF936B
:104E6000DF9321E02093E9002FEF3091E8002150FB
:104E700035FD06C035ED3A95F1F700002111F5CF6B
:104E80002091E80025FF14C0EC0140E050E068E00C
:104E900070E00E94CC238091E8008E778093E80038
:104EA00088E0FE01A7E7B3E001900D928A95E1F753
:104EB000DF91CF9108951F920F920FB60F92112498
:104EC0002F933F934F935F936F937F938F939F9312
:104ED000AF93BF93CF93DF93EF93FF93C091E9001C
:104EE000CF708091EC00D82FD17080FDD0E8109267
:104EF000E9008091F000877F8093F00078940E9411
:104F000009241092E9008091F00088608093F000FD
:104F1000CD2BCF70C093E900FF91EF91DF91CF913E
:104F2000BF91AF919F918F917F916F915F914F91C1
:104F30003F912F910F900FBE0F901F901895E8EDA5
:104F4000F0E080818E7F80831092E2001092DA0080
:104F50001092E100A0EEB0E08C9181608C93808192
:104F60008F77808319BCA7EDB0E08C918E7F8C93F6
:104F700080818F7E80831092CE0308952091E4007B
:104F80003091E50095E64091EC00842F817040FF60
:104F900023C08091E80080FD1DC08091810388239B
:104FA00099F0853099F08091EB0085FD11C040911A
:104FB000E4005091E5002417350729F3915011F0D2
:104FC0009A01E1CF84E0089582E0089583E0089596
:104FD00081E0089580E008954091E80042FFDDCF30
:104FE00008958091830387FF11C08091E80082FDBE
:104FF00005C0809181038111F8CF11C08091E80034
:105000008B770BC080918103882349F08091E80061
:1050100080FFF8CF8091E8008E778093E8000895B4
:10502000982F973068F59093E900981739F07091B0
:10503000EC002091ED005091F00003C0242F762F5A
:1050400050E021FD02C09F5FECCF3091EB003E7F2E
:105050003093EB003091ED003D7F3093ED003091C7
:10506000EB0031603093EB007093EC002093ED0087
:105070005093F0002091EE0027FDE5CF80E00895E9
:105080008F708093E90081E00895CF92DF92EF92D4
:10509000FF920F931F93CF93DF93C8EDD0E08881E9
:1050A0008F7E8883E7EDF0E080818160808384E0FB
:1050B00082BF81E08093CE0388818E7F888302EE59
:1050C00010E0F80110821092DA0081EEC82ED12C87
:1050D000F601108288818F77888388818068888331
:1050E00088818F7D888319BC10928103109282037E
:1050F0001092800310927F0390EEE92EF12CF701BD
:1051000080818B7F808388818160888342E060E03A
:1051100080E00E941028F60180818E7F8083F80154
:10512000808181608083808188608083F7018081B5
:105130008E7F8083888180618883DF91CF911F91EA
:105140000F91FF90EF90DF90CF9008951F920F92F4
:105150000FB60F9211242F933F934F935F936F934A
:105160007F938F939F93AF93BF93EF93FF93809120
:10517000E10082FF09C08091E20082FF05C08091BA
:10518000E1008B7F8093E1008091DA0080FF2AC0EC
:105190008091D80080FF26C08091DA008E7F8093B6
:1051A000DA008091D90080FF18C080E189BD82E1DA
:1051B00089BD09B400FEFDCF81E080938103809119
:1051C000CE0381110FC00E949F270E944528809125
:1051D000E20084608093E20005C019BC1092810354
:1051E0001092CE038091E10080FF17C08091E20011
:1051F00080FF13C08091E2008E7F8093E200809157
:10520000E20080618093E2008091D8008062809308
:10521000D80019BC85E0809381038091E10084FF70
:105220002EC08091E20084FF2AC080E189BD82E126
:1052300089BD09B400FEFDCF8091D8008F7D809399
:10524000D8008091E1008F7E8093E1008091E200A0
:105250008F7E8093E2008091E20081608093E20083
:1052600080918203882311F084E007C08091E300DD
:1052700087FD02C081E001C083E0809381038091BB
:10528000E10083FF27C08091E20083FF23C080916B
:10529000E100877F8093E10082E080938103109298
:1052A00082038091E1008E7F8093E1008091E20093
:1052B0008E7F8093E2008091E20080618093E20023
:1052C00042E060E080E00E9410288091F000886059
:1052D0008093F000FF91EF91BF91AF919F918F91DB
:1052E0007F916F915F914F913F912F910F900FBEE2
:1052F0000F901F9018952091890330918A032617EB
:10530000370748F06115710539F42091E8002E77D0
:105310002093E80001C0B901FC0120E0611571058E
:1053200079F1809181038823F1F18530F1F1809149
:10533000E80083FD3CC08091E80082FD2EC0809192
:10534000E80080FFEBCF2091F3008091F20090E025
:10535000922B6115710551F08830910538F4219137
:105360002093F100615071090196F3CF21E0089775
:1053700009F020E08091E8008E778093E800CECF9E
:105380002111CFCF0AC080918103882361F085303D
:1053900061F08091E80083FD0AC08091E80082FFFF
:1053A000F2CF80E0089582E0089583E0089581E0DF
:1053B000089581E08093E00080E28093D80010920D
:1053C000C9008FE19EE40197F1F700C0000087E07B
:1053D00090EBDC018093E1039093E203A093E3035D
:1053E000B093E4039CE088E10FB6F894A89580930D
:1053F00060000FBE90936000FFCF78941F920F92D1
:105400000FB60F9211248F939F93AF93BF93809108
:10541000C7039091C803A091C903B091CA03019634
:10542000A11DB11D8093C7039093C803A093C90326
:10543000B093CA03BF91AF919F918F910F900FBE10
:105440000F901F9018959C014FB7F8948091C70357
:105450009091C803A091C903B091CA034FBF821BAA
:10546000930B08952FB7F8946091C7037091C80308
:105470008091C9039091CA032FBF08952FB7F89464
:105480008091C7039091C803A091C903B091CA034A
:105490002FBF08951F920F920FB60F9211248F9372
:1054A0009F93AF93BF938091C603811113C08091E6
:1054B000C7039091C803A091C903B091CA03419654
:1054C000A11DB11D8093C7039093C803A093C90386
:1054D000B093CA03BF91AF919F918F910F900FBE70
:1054E0000F901F9018959C012A5F3F4FFC0142814D
:1054F000461301C01282019682179307B9F70895E7
:105500009C01FC0132969FEF80E04191461789F0A3
:105510009F3F19F4411101C0982F8F5F8630A9F782
:105520009F3F39F0F901E90FF11D97FDFA9562836C
:10553000089508952091C4033091C50328173907B1
:1055400071F09093C5038093C403E091C203F0917E
:10555000C303309721F00084F185E02D099408956C
:105560002091C0033091C1032817390771F090933F
:10557000C1038093C003E091C203F091C30330974D
:1055800021F00680F781E02D09940895E091C2038F
:10559000F091C303309721F00190F081E02D099440
:1055A00080E0089580E090E00E94B02A80E090E0E2
:1055B0000E949A2A10926E0310926D030C94761D2D
:1055C000CF92DF92FF920F931F93CF93DF936C01E3
:1055D0000091BF0380917103082BC7E0D0E010E079
:1055E000C8010C2E02C0959587950A94E2F780FDBC
:1055F00004C02197A8F7F12C09C0FC2EB6018C2F0E
:105600000E94D1180E943D1B019799F38F2DDF91C5
:10561000CF911F910F91FF90DF90CF9008952BE0D5
:10562000929F800D1124682F669566956695982F38
:10563000977083E0689FB001112440E050E080E063
:10564000FB01E40FF51FE153FC4F208130E0092EF0
:1056500002C0369527950A94E2F721703327042E6D
:1056600001C0220F0A94EAF7822B4F5F5F4F43304D
:10567000510531F708952BE0929F800D1124E82FFA
:10568000E695E695E695877051E001C0550F8A953D
:10569000EAF783E0E89FF0011124E153FC4F20E09A
:1056A00030E070E04081CB01022E02C096958795D4
:1056B0000A94E2F78170819584278523842781935A
:1056C0002F5F3F4F2330310569F708950E948B14F7
:1056D0008093BF030C94D22A21E030E001C0220F56
:1056E0008A95EAF720958091BF0382230C94662B5C
:1056F00021E030E001C0220F8A95EAF78091BF03D4
:10570000822B0C94662B809371030C94D22AFC019B
:10571000808191810E94501E292F2F70E92FE295E0
:10572000EF704E2F50E0FA013297EE30F105B8F4E9
:10573000E755FF4F0C942A30803F99F018F4883ECB
:1057400070F40FC0843F59F40CC0883E50F0813F84
:1057500031F407C0822F869586958695089580E05E
:10576000089581E0089510926F0386E0EEE2F3E081
:10577000DF011D928A95E9F70C94D22A882341F023
:10578000809590916F03892380936F030C94761D0D
:105790000895882339F090916F03892B80936F03CC
:1057A0000C94761D0895882309F458C0682F823818
:1057B00069F40E94C62A81FF51C069E38CE293E03C
:1057C0000E94802A0E94761D69E30EC0833891F4FE
:1057D0000E94C62A80FF42C063E58CE293E00E94EB
:1057E000802A0E94761D63E58CE293E00E94732A72
:1057F0000C94761D843869F40E94C62A82FF2EC05C
:1058000067E48CE293E00E94802A0E94761D67E4A0
:10581000EBCF8CEF860F813A38F380E2860F883029
:1058200070F4677081E090E001C0880F6A95EAF734
:10583000809590916F03892380936F03D9CF8BE577
:10584000860F833020F480E090E00C94B02A685AF0
:10585000673120F480E090E00C949A2A0895CF9369
:10586000882309F496C0C82F8238B1F40E94C62A52
:1058700081FD8FC069E38CE293E00E94802A0E9440
:10588000761D2FEF81EE94E0215080409040E1F7AB
:1058900000C0000069E317C08338E1F40E94C62A03
:1058A00080FD77C063E58CE293E00E94802A0E942D
:1058B000761D2FEF81EE94E0215080409040E1F77B
:1058C00000C0000063E58CE293E00E94732ACF9150
:1058D0000C94761D8438B1F40E94C62A82FD59C00A
:1058E00067E48CE293E00E94802A0E94761D2FEFED
:1058F00081EE94E0215080409040E1F700C000002C
:1059000067E4E1CF8CEF8C0F813A80F4EEE2F3E0B4
:1059100084E393E02191C217A1F18E179F07D1F77D
:105920006C2F8CE293E00E94802AD1CF80E28C0F12
:10593000883068F4C77081E090E001C0880FCA9594
:10594000EAF790916F03892B80936F03C0CFEBE54B
:10595000EC0FE33040F4F0E0E15DFE4F808190E039
:10596000CF910C94B02AC85AC73198F4EC2FF0E0CC
:10597000EE0FFF1FEE5CFE4F80819181CF910C9462
:105980009A2A6C2F8CE293E00E94732A0E94761D63
:10599000C7CFCF9108951F93CF93DF93182F8933EB
:1059A00019F0C9E1D0E002C0C0E5D0E0812F0E942B
:1059B0002F2C8FE99FE00197F1F700C0000021979D
:1059C000C1F7812FDF91CF911F910C94D32BCF92F0
:1059D000DF92EF92FF920F931F93CF93DF93F62EF8
:1059E000472FE82FF0E0711106C0EA5EFA4F84916C
:1059F000782F682F73C0272F30E0EA5EFA4FE491CA
:105A0000FE2F0E2F10E056E0659FC0011124CFEF4E
:105A1000D0E0BE010E94F12E5BEA5603C001579F01
:105A2000900D11248F0D911D8F0D911D982F990FA1
:105A3000980F7E01E21AF30AE09ED001E19EB00DBC
:105A4000F09EB00D11248B2F499FA0011124452FEA
:105A500055277E01E41AF50AE09EA001E19E500D53
:105A6000F09E500D11246E01C91AD108C29E70011A
:105A7000C39EF00CD29EF00C11242F2D3327C21B95
:105A8000D30BC09F9001C19F300DD09F300D1124CA
:105A9000932F6230710591F048F461157105E1F0C2
:105AA00061307105B9F49E2FE52F16C06430710581
:105AB00069F040F06630710579F00CC09E2FEB2F35
:105AC000832F0AC0EB2F8F2F952F06C09B2F8E2F71
:105AD000E32F02C09B2F852F7E2F692FDF91CF915F
