:100000000C948C040C94D3040C94D3040C94D3045B
:100010000C94D3040C94D3040C94D3040C94D30404
:100020000C94D3040C94D3040C94861C0C94C21B23
:100030000C94DA270C94D3040C94D3040C94D304BA
:100040000C94D3040C94D3040C94D3040C94D304D4
:100050000C94D3040C948D270C94D3040C94D304E7
:100060000C94D3040C94D3040C94D3040C94D304B4
:100070000C94D3040C94D3040C94D3040C94D304A4
:100080000C94D3040C94D3040C94D3040C94D30494
:100090000C94D3040C94D3040C94D3040C94D30484
:1000A0000C94D3040C94D3040C94D304F60D120EC8
:1000B000190E510E620E6D0E7D0E900ED30ED80EDF
:1000C000320F320F320FE00E680F730F9D0FBC0816
:1000D000FC0F4510A710F6103E1141114711ED110C
:1000E00087158715C015C01531166C176C176C175E
:1000F0004F16C316D416D416CA19F119A41BF11938
:10010000A41B3D1A601AA41B611B711B461E461ED0
:10011000591E591E4F1E591E591E591E461E461E57
:10012000541E591E591E541EFD377A585A00000499
:10013000E6D6B4460200210116000000742FE5A3A4
:10014000E008B702345D003D8889C65436C3174FB6
:10015000E4EF0A3F668DD105C145CE66B4E8DF8580
:100160001F2CF59EBB41D912F17F204F73672F9A48
:10017000C243D74C5B65441319B1B3BC75E3462940
:10018000A966D74C1C5E426C60D242D95195BCFA2C
:10019000C18D306CE69EB06A07247A2A185A1E97E1
:1001A000B8B8BD867F7AF01870DA96B443ED587A05
:1001B000EC6A0B878BEDFA95780E765F4E2AA533A5
:1001C0008B5DD40D26AF083CC7D5E70FE2EA1912C4
:1001D0000D3CC71BA71FAC2689FF7AEF27CA33EB5C
:1001E0001C21F25EB5CB1694238A31ED1D7BF3E41E
:1001F000F3548C444210856E2AE1D8EA96D8984090
:100200000115CDB6D67011324DF096860BC39DEB1D
:10021000D6EBC17DAFBDAD937EE94F54E7243D538E
:100220003F0F2C6F7B8345B464F988D54290A72A91
:10023000ABDFDBE297962B7037BC3656183392F85B
:10024000CE549EBC27539E6FF8F4E693F45C490AA3
:10025000F54C0E5C5CBEC160E9ADCA7D60575124AF
:1002600074DA670F0BD857EA73654DAC39168211F3
:10027000082B47836CB2DC0CA2C097DFD23AFBECB0
:10028000B019794F0559222BB7610C74AB05C8D052
:10029000FE6A8831BFEBC1628675671CDAB08CD903
:1002A0006563969F05BE616DC4EA9EC5159B85AFCB
:1002B0009B7BEAC86D2FD079CB89B50A018C60464B
:1002C0000BD37FA52855C199979A1386EFCA8B78CF
:1002D000BC897A627DE6A1457AEE310AC52F0737DF
:1002E00087707068CDE23F421674B43A45E9062D36
:1002F0000BE0838014FF4310DE7EDE9EE8200409BD
:10030000179C4A2D520C009FCBCA5CB848D94F6D40
:10031000A3B910890D5191671ED18338F520AB6FB9
:1003200028675354D4A8ED0AC1A91D859D29878249
:10033000115CD69778124E9376D3DF4D2D4F778C84
:1003400099955E5840D46967E94FEC2E64D54F1FEC
:10035000B4D999C31328B5D8177646799AC95921C3
:10036000DD823E6EFF837F088F6C0C64A22E553DAC
:1003700007F961D05DD7D178A5411E00F205D97B80
:1003800082CB68AF0001D004B811000000C1C9E100
:10039000B1C467FB020000000004595A00000000CD
:1003A00001000B0002000100030002000400030032
:1003B0000500040011000500120006001A000700E5
:1003C0001B0008001C0009001D000A0005010902AD
:1003D000A10185020901A1000509190129051500DE
:1003E00025019505750181029501750381010501BE
:1003F000093009311581257F950275088106093874
:100400001581257F950175088106050C0A380215AE
:1004100081257F950175088106C0C005010980A16D
:1004200001850319012AB700150126B7009501754A
:10043000108100C0050C0901A101850419012AA041
:1004400002150126A002950175108100C00660FF0B
:100450000961A1010962150026FF00952075088138
:10046000020963150026FF00952075089102C0055A
:10047000010906A101050719E029E71500250195E5
:100480000875018102950175088101050719002988
:10049000FF150026FF009506750881000508190163
:1004A0002905950575019102950175039101C00912
:1004B000025B00030100A0FA09040000010301012E
:1004C00000092111010001224000070581030800F5
:1004D0000A090401000203000000092111010001C2
:1004E00022220007058203200001070503032000E4
:1004F00001090402000103000000092111010001AB
:100500002281000705840320000A12010002000076
:100510000008FEFE50580100010203011C03760092
:10052000690061006C003A00660036003400630028
:10053000320062003300630000002C03730061008E
:10054000640065006B006200610072006F0075005E
:100550006400690020006200610072006F006200A8
:100560006F007200640000001A03730061006400F1
:1005700065006B006200610072006F00750064002E
:100580006900000004030904AA00A9004F015001FA
:100590000100010001000100010001000100010053
:1005A0000100010001000100010001000100010043
:1005B00014001A000800150017001C0018000C0099
:1005C00012001300000004611668076409620A0043
:1005D0000B000D720E740F78337100001D001B00AC
:1005E0000600190005001100100036003700380021
:1005F000A800015302530151280034002A002C00A6
:100600000251035304532A011E021F022002210239
:1006100022022302240225022602270200002900CA
:10062000010001000100010001002D022E022F0235
:100630003002000039003502010001000100010014
:10064000010001003102340201000100010001003B
:10065000010001004C0001000351010001000100F4
:100660001E001F002000210022002300240025007E
:100670002600270000005000510052004F002B00C0
:1006800001002D002E002F0030000000E00035009A
:10069000E300E2000100010001000100310034002C
:1006A00001000100010003510100010001000100EF
:1006B0000100010001000100C25CC45CC35C0100D8
:1006C00010503A003B003C003D003E000000CB5C77
:1006D000C55CC75CC95C01003F00400041004200AE
:1006E00043000000CC5CC65CC85CCA5C01004400EE
:1006F000450001000100005C010001000100010053
:1007000001000100010001000100010001000100E1
:1007100001000100010001000100010001000100D1
:1007200001000100000001000100010001000100C2
:1007300001000100010001000100000001000100B2
:1007400001000100010001000100010001000100A1
:100750000100010001000100010001000100010091
:10076000010001000100010000010101010101017E
:100770000101020202020202020202030303030356
:100780000303030404040404040405050505050625
:1007900006060606070707070708080808090909E3
:1007A000090A0A0A0B0B0B0C0C0C0D0D0D0E0E0E8C
:1007B0000F0F0F101011111112121313141415151D
:1007C00016161717181819191A1A1B1B1C1D1D1E8F
:1007D0001E1F2020212222232424252626272829E3
:1007E000292A2B2C2D2D2E2F303132323334353611
:1007F0003738393A3B3C3D3E3F4041424344454611
:100800004748494A4C4D4E4F5051535455565859EC
:100810005A5B5D5E5F616264656668696B6C6D6F93
:100820007072737577787A7B7D7E80828385878806
:100830008A8C8E8F91939596989A9C9EA0A2A3A540
:10084000A7A9ABADAFB1B3B5B7BABCBEC0C2C4C641
:10085000C9CBCDCFD1D4D6D8DBDDDFE2E4E7E9EBFD
:10086000EEF0F3F5F8FAFDFF0000000000000000D4
:100870000000000000000000000000000000000078
:100880000000000000000000000000007E0F00D407
:10089000FFFFFFC70000007800000000000000001C
:1008A0002A2B2800000000000000000000000000CB
:1008B00000000029000000002C1E342021222434D6
:1008C0002627252E362D3738271E1F2021222324A8
:1008D00025263333362E37381F0405060708090A44
:1008E0000B0C0D0E0F101112131415161718191AE0
:1008F0001B1C1D2F3130232D350405060708090A5E
:100900000B0C0D0E0F101112131415161718191ABF
:100910001B1C1D2F3130354C11241FBECFEFDAE0E8
:10092000DEBFCDBF04B603FE27C08091660590915F
:100930006705A0916805B09169058730904BA74085
:10094000B04BD1F4109266051092670510926805BD
:100950001092690514BE84B7877F84BF0FB6F894E0
:10096000A89580916000886180936000109260007B
:100970000FBEE0E0F8E3099512E0A0E0B1E0E6E8A0
:10098000FBE602C005900D92AC32B107D9F725E025
:10099000ACE2B2E001C01D92A636B207E1F70E94B8
:1009A000D5040C94C1350C940000CF93DF93CDB7E0
:1009B000DEB7C255D1090FB6F894DEBF0FBECDBF6A
:1009C00084B7877F84BF0FB6F894A89580916000A4
:1009D000886180936000109260000FBE90E080E814
:1009E0000FB6F89480936100909361000FBE85B7B5
:1009F000806885BF85B7806885BF8FE592E2909358
:100A00002D0280932C020E94C62B0E94061C0E947D
:100A1000251C8091E20084608093E20078948091AC
:100A200060038823A1F01091E9001F709091EC0001
:100A3000892F817090FD80E8182B1092E900809139
:100A4000E80083FD0E94E4181F701093E90082E023
:100A500084BD93E095BD9AEF97BD80936E000E9490
:100A6000B32C811102C00E94A42C0DE111E0E1E23F
:100A7000EE2EE1E0FE2ED8018D918D018F3F11F019
:100A80000E94A422E016F106B1F701E211E07CE237
:100A9000E72E71E0F72EF80181918F018F3F11F061
:100AA0000E94A422E016F106B1F7109231021092D2
:100AB00030021092420310924103109233021092BE
:100AC00032021092440310924303109235021092A6
:100AD000340210924603109245031092370210928E
:100AE000360210924803109247030E945524811148
:100AF00002C00E94602482E090E00E942935809329
:100B0000BC020E94442490932F0280932E020E94E4
:100B100093258FE39CE90197F1F700C000000E9444
:100B200093258091410380FF08C06FEF7FEF80E045
:100B300090E00E9465350E94692783E090E00E9462
:100B400029350E94952080916B030E94D13010922C
:100B50003902E2E5F2E082E692E02FEF3FEF2193E7
:100B600031938E179F07D9F70E945524811104C035
:100B70000E9460240E94672D46E050E06CE170E026
:100B800085E693E00E941935809165038C7F11F40E
:100B90000E94672D5BE9852E52E0952E4CE351E0D3
:100BA0002EE331E069E9662E62E0762E61E070E0C6
:100BB0008614970409F44EC0F901A1919F018A2F70
:100BC00082958F7090E0FC01F1A0AF70BA2E8B017E
:100BD00001C0000FAA95EAF7F02FF095FF22DC0183
:100BE0009196FC9291979296AC91A02BFC01A2A3B6
:100BF000DA01ED90AD01EE2DE295EF70F0E0F1A09D
:100C0000BE2DBF70EB2E6B0101C0CC0CBA95EAF77C
:100C1000DC2CD094FD20F1A2F2A0FC28F2A2DC0191
:100C200090968C9190E002C095958795BA94E2F7E2
:100C30008170E0A1F0E002C0F595E795EA94E2F753
:100C4000E0FF02C092E001C090E0892BF3018193A4
:100C50003F01AECF0E94823340E060E080E00E941E
:100C60006C18109238024FEF60E080E00E946C1820
:100C700080E091E09093E1048093E0048091600330
:100C8000853009F049C040E4F42E00E112E1809182
:100C90006003853009F03CC080916003843019F115
:100CA0001092E40428E130E00FB6F894A895209360
:100CB00060000FBEF092600083B7817F846083BFC5
:100CC00083B7816083BF7894889583B78E7F83BF15
:100CD0000FB6F894A89580916000886180936000B9
:100CE000109260000FBE80915603882309F4CFCF85
:100CF0000E949325E1E4F3E081919191892B11F019
:100D00000C94380F69E473E06E177F07A9F7BFCF23
:100D10000E9499200E9456280E94932581110E94CA
:100D2000C227E1E4F3E0ADEBB2E0C12CD12C8C2C76
:100D3000A190B1908D919D918A259B25009709F4F2
:100D400066C110E0EE24E394F12C9C012E213F219A
:100D5000232B09F456C12A961FAF2A972B968FAEE4
:100D60002B97AE20BF2081E0A114B10409F480E0EC
:100D70002C968FAF2C970E94CE278160782F2E96CD
:100D80009FAF8EAF2E972A964FAD2A972B965FADC9
:100D90002B972C966FAD2C972E968FAD2E970E9489
:100DA0002C31F601EE0FFF1FE354FD4F808191813E
:100DB000E826F926F182E082AB2889F08BE08C9D51
:100DC000F0018D9DF00D1124E15BFE4FE10FF11D4F
:100DD00080818F3F21F0282E9924939401C0912C7B
:100DE000E92CF12C80913902D701A80FB11D199778
:100DF000ACF188E090E05C01AE18BF08B7016F5F0E
:100E00007F4F675C7D4FA5018AE392E00E94B13578
:100E1000B701675F7F4F675C7D4FA50182E492E079
:100E20000E94B135A501440F551FB701660F771F0A
:100E3000675E7F4F675C7D4F82E592E00E94B1352F
:100E4000B7016F5E7F4F675C7D4FA5018AE492E03A
:100E50000E94B13588E08919809339028091390266
:100E600090E0A22DB0E09D01220F331F25583E4F88
:100E7000AA0FBB1FBD0164587E4F41E0480F991572
:100E8000A8F490E0FC01E75CFD4FD9015C9151832F
:100E9000DB015C915187218A880F991FFC01E75C77
:100EA000FD4F128E118E91E0842FE7CF809339028F
:100EB000809165038C7F883209F0D1C0AFEFA80D17
:100EC00001E0080D5FEF510F41E0410F511780F431
:100ED0008BE08C9DF0018D9DF00D1124E759FD4FA5
:100EE000E50FF11D208130E1230F08F42FEF20835F
:100EF000212F30E07BE07C9DC0017D9D900D112471
:100F000087599D4FFC01E20FF31F7081B0E26B2FF8
:100F1000760F08F47FEF70834B3051F0FC01E40F43
:100F2000F11D708180E1682F760F08F47FEF7083E8
:100F3000043009F432C0E02EF12C511790F48BE00C
:100F40008E9DF0018F9DF00D1124E759FD4FE50FA7
:100F5000F11D80819DE0782F092F700F08F47FEF3D
:100F60007083EBE0EE9DC001EF9D900D1124875939
:100F70009D4FFC01E20FF31F608170E1670F08F4E1
:100F80006FEF60834B3049F0FC01E40FF11D60818D
:100F90007DE0670F08F46FEF6083A81508F05FC06D
:100FA000B0E0511780F48BE08A9FF0018B9FF00D29
:100FB0001124E759FD4FE50FF11D50816DE0560FEB
:100FC00008F45FEF50838BE08A9FF0018B9FF00D58
:100FD0001124CF0187599D4FFC01E20FF31F20819F
:100FE00030E1230F08F42FEF20834B30C1F1FC01D7
:100FF000E40FF11D20813DE0230F08F42FEF208343
:101000002EC01F5FEE0CFF1C1B3009F09ECE1FEFA1
:10101000C11AD10A24E0C216D10409F088CE8FEF9C
:101020002F968FAF2F9760968FAF609761961FAE08
:1010300061970E94CE278160782F63969FAF8EAF15
:1010400063972F964FAD2F9760965FAD609761962F
:101050006FAD619763968FAD63970E942C3180913D
:10106000620290916302A0916402B09165022FB771
:10107000F894C090E504D090E604E090E704F09086
:10108000E8042FBFC81AD90AEA0AFB0A0E94C2273D
:10109000609362027093630280936402909365028E
:1010A000A0913902E9E3F2E02A2F30E088248A9403
:1010B000982CA12CB12C8C189D08AE08BF08A31742
:1010C00099F0418D528D2A01612C712C8414950464
:1010D000A604B70410F4215004C04C0D5D1D528FBE
:1010E000418F3F5F3296EBCF2093390230916503F9
:1010F000232F237021F0E32EE694E69401C0E12C27
:10110000209111012130A1F038F0223009F46BC098
:10111000233009F471C094C010920D0160936103F3
:1011200070936203809363039093640381E058C0DB
:1011300090910B01E9120DC0832F837090E04091D4
:101140000A0150E021E08417950709F420E0822F7E
:1011500001C081E0817080930F0180916A039091BA
:101160000E01981709F4A4C680930E0140E060E0D8
:1011700080E00E945B2D9CC6F0900D01FF0CFF0CDF
:10118000FF0C38E0D32EDF0C38E23D1510F428E2D6
:10119000D22EB0906703A09068032091690390E479
:1011A000C92E4C2D429F412D1124C42EFD1408F44C
:1011B00000C781E067E26D1510F40C94181290914D
:1011C0000D019F5F90930D0181113AC082E08093E1
:1011D000110180910F01811133C0E11031C083E012
:1011E000809311012DC0E0920B01832F83708093B7
:1011F0000A010E94602CF3CF8091EC0481110E94BF
:101200005F2D1092EC044091610350916203609154
:101210006303709164032FB7F8948091E504909173
:10122000E604A091E704B091E8042FBF841B950B5E
:10123000A60BB70B4097A105B10510F01092110154
:1012400007E9E02E02E0F02E05E912E089E9482ED8
:1012500082E0582E9CE3692E91E0792E2EE3C22E77
:1012600021E0D22E5201812C912CF50181915F0158
:10127000E82FEE0FEE0FD6012D916D01A22FA29552
:10128000AF70B0E090968C9190E02F7002C0959571
:1012900087952A95E2F79C0121703327D3018D9120
:1012A0003D01A82FA295AF70B0E090964C9150E010
:1012B0008F7002C0559547958A95E2F7CA018170F3
:1012C000992740FF02C082E090E0822B932B8E2B67
:1012D000F20181932F018F70E82FF0E0E45DFE4F63
:1012E0009081D7018C91890F8C93843054F0F80150
:1012F00080818F5F808360E0892D0E94522F21E0E2
:1013000001C020E0D7018C918D3F4CF4F801808121
:101310008150808361E0892D0E94522F21E0D70106
:101320008C91082E000C990B64E070E00E948335CC
:10133000F70181937F01822A93940F5F1F4FF2E0A0
:101340009F1293CF81100E94C2278091BA028A30E7
:1013500008F0FFC08091B8029091B9020E94B327B3
:10136000089708F4F6C004E610E025E030E043EB0F
:1013700052E064E084E10E94B034892B09F06DC032
:101380001092BA0286E0E1EAF2E0DE01DD96019019
:101390000D928A95E1F786E0FE01FD96DE01AD5BD8
:1013A000BF4F01900D928A95E1F786E0FE01ED5B5B
:1013B000FF4FADEAB2E001900D928A95E1F790916E
:1013C000B7028091AE0297FD3EC08E7F8093AE0241
:1013D0008091AB029091AC02009799F545E0609145
:1013E000B3028091B4020E9415312091A90230917C
:1013F000AA02281B390B3093AA022093A90245E0C8
:101400006091B5028091B6020E9415312091A70229
:101410003091A802820F931F9093A8028093A70295
:1014200067EA72E08FEA92E00E94F63069EA72E0C1
:1014300080EB92E00E94F6301092B2021092B1025C
:1014400011C0019705C081608093AE0284E190E0F5
:101450009093AC028093AB0205C08091BA028F5F7B
:101460008093BA0286E0EDEAF2E0DE01D7960190C1
:101470000D928A95E1F786E0FE01F796A1EAB2E0C7
:1014800001900D928A95E1F786E0E1EAF2E0DE0153
:10149000D19601900D928A95E1F71091A2023091B8
:1014A000A3022091A4029091A5028091A60246E099
:1014B000EBE9F2E0DE019B9601900D924A95E1F78F
:1014C00070919D0260919E0240919F025091A002F6
:1014D000E0919C021E1312C0332311F037130EC08B
:1014E000222311F026130AC0882311F0581306C0D6
:1014F000992331F081E0941304C002C081E001C05F
:1015000080E080FF0FC0E091E004F091E1043097AB
:1015100049F082E08093A1020480F581E02D81EA08
:1015200092E009951092A3021092A4021092A502D3
:101530001092A60286E0E1EAF2E0ABE9B2E00190A7
:101540000D928A95E1F70E94CE279093B90280937D
:10155000B8020E9456289091BB02891721F00E9480
:1015600056288093BB0280916003843009F086CBBB
:1015700083E08093E9008091E80082FF7FCB809137
:10158000E80085FF22C00E945B1D81111CC000E2A3
:1015900010E09E012F5F3F4F790108C08091F1005C
:1015A000D7018D937D010150110969F08091E80008
:1015B00085FDF4CF8091E8008B778093E8000E944E
:1015C0005B1D882399F391E001C090E08091E800D1
:1015D0008B778093E800992309F450CBE090310495
:1015E000F09032048981E114F10459F08E3F09F042
:1015F00039C49A819330A8F19550933008F032C4E1
:1016000030C08B3009F4CFC248F5853009F485C06D
:10161000B8F4823009F442C030F4813009F020C4BB
:101620001A8289E0BEC3833009F468C0843009F0AF
:1016300017C44C816B818A810E947C2B9D8336C4A8
:10164000873009F478C008F473C0883009F4EAC020
:10165000893009F005C40E945F2D04C4803109F46B
:10166000E4C18E010F5F1F4F813160F48D3009F4AA
:101670007EC108F47AC18E3009F47DC18F3009F43F
:10168000A5C1EEC3823109F4D5C108F4D1C18331BB
:1016900009F4FAC18E3F09F49DC2E2C38A81823007
:1016A00009F4FDC3833051F0813009F0D9C30E94A1
:1016B000C2279B838C837D836E83D4C380912D044A
:1016C00090912E04892B09F4CDC380914103909110
:1016D00042039B838C8380914303909144039D83B9
:1016E0008E8380914503909146039F8388878091E4
:1016F00047039091480399878A87B4C38A818230CF
:1017000009F0AEC36B817C818D819E810E949D35E5
:1017100086E290E00E944735A5C32D813E813227A5
:10172000232732274C816B818A810E94A82A9AC381
:101730000E94DE2A97C38A81813421F0823409F421
:101740003BC090C34B815C8180916503982F93705F
:101750004115510539F49111109211018C7F80933C
:1017600065031FC0911102C0109211018C7F81602E
:10177000809365032CE933E06CEC73E0F901329659
:1017800085919491F901A591B4914A175B0731F0C5
:101790002C5F3F4F6217730789F780E060E00E947B
:1017A0002D2D8D81809369038E8120E048856F8186
:1017B00090E00E94D22C56C34B815C818D81B3E0B6
:1017C0008B9F900111242E3131050CF04BC3DE01AB
:1017D0001196FA01EE0FFF1FE40FF51FE753FD4FBF
:1017E00020E030E090E02817390708F03BC313965B
:1017F000BA01620F731F6832710508F033C3129685
:101800006C911297608313966C9113976183149671
:101810006C9114976D3308F06CE362832F5F3F4F38
:101820003396E1CF8A81823409F442C028F48034AF
:1018300051F0813471F016C3833409F459C08434F3
:1018400009F459C00FC381E08B831C828CE38D8324
:1018500009C380916503982F9370B1F086958695A2
:1018600090E02CE933E06CEC73E0F9013296A5913D
:10187000B491F901459154918A179B0741F02C5F6F
:101880003F4F6217730789F790E080E002C0942F02
:10189000852F9B838C83809169038D838091660360
:1018A0008E83809167038F83809168038887DAC273
:1018B0000B811C814EE150E06FEF70E0CE0103968A
:1018C0000E94BA358CE993E0DE0113962EE1FC010B
:1018D000459154910417150728F4223018F04D93C0
:1018E0005D9322500496E3E08C3C9E0781F7BAC2D8
:1018F00088E28B839CC18B8190E0883291050CF04B
:10190000B1C2FC01EE0FFF1FE558FE4F20812B8373
:10191000FC01EE0FFF1FE15BFE4F25A52C83FC01B0
:10192000E553FE4F20812D832FEF2F832E836FE40D
:1019300071E040E050E020E030E0FB01E20FF31FF7
:10194000E081F0E08E179F0719F44E832F838AC23F
:101950002F5F3F4F2B30310581F74F5F5F4F655F42
:101960007F4F4430510539F77DC280E136C281E0B6
:101970008A8389EA16C2EA80FB80FE24EF24FE24D3
:10198000AC80B12CFDE1AF16B10408F06BC2680168
:10199000C701895A9D4F9601201B310B2A153B0523
:1019A00008F060C229EAE21621E0F20630F40E9453
:1019B0002935D60114968C9302C0F6011482FFEFEC
:1019C000EF1AFF0A2FEFC21AD20AE2CF80912D043C
:1019D00090912E04892B09F445C2EA80FB80FE24F5
:1019E000EF24FE24CC80D12C3DE1C316D10408F0B5
:1019F00039C25801C701895A9D4F9501201B310BEF
:101A00002C153D0508F02EC249EAE41641E0F40623
:101A100028F4D50114966C910E944735BFEFEB1A5C
:101A2000FB0AEFEFAE1ABE0AE5CF0E94302A1AC2B7
:101A300085E0D3C1EA80FB80FE24EF24FE24AC8045
:101A4000B12CFDE1AF16B10408F00CC26801C7016A
:101A500087969601201B310B2A153B0508F002C220
:101A600028EBE21621E0F20630F40E942935D60177
:101A700014968C9302C0F6011482FFEFEF1AFF0A4E
:101A80002FEFC21AD20AE3CFEA80FB80FE24EF24B4
:101A9000FE24AC80B12C3DE1A316B10408F0E2C1F4
:101AA00048EBE41641E0F40608F0DCC188EB91E075
:101AB0008E199F098A159B0508F4D4C1370167E286
:101AC000660E711C80912D0490912E04892B11F0CB
:101AD000680160C0E0FE0FC0C70186960E942935EC
:101AE00090E0982F88272D81822B81159C4531F419
:101AF0008FEF8D8303C0C12CD12C03C0CC24C394A1
:101B0000D12CC7018A0D9B1D450180FF1BC081E0C0
:101B1000881A910855E0452E512C4C0E5D1E480C3C
:101B2000591CC3018A0D9B1D0E942935D2012C919D
:101B300030E0322F2227282B21153C4519F48FEF56
:101B4000F2018083F801EC0DFD1D2FEFCF01801B0A
:101B5000910B8815990508F0BBCF848190E0982FF0
:101B600088273581832B81159C4511F42483258397
:101B70003296ECCF48EBE41641E0F40628F4D601A7
:101B800014966C910E944735BFEFEB1AFB0AEFEFFA
:101B9000CE1ADE0AC70187969601201B310B2A1543
:101BA0003B0540F35FC180912D0490912E04892B59
:101BB00009F458C1CE0101960E94BA1DFFEF01EE53
:101BC00014E0F15000401040E1F700C000000E9416
:101BD000692748C1EA818E2F90E08E30910508F088
:101BE00041C1FC01EA5AFF4F0C94973588E0E2E1CD
:101BF000F1E0DE01919601900D928A95E1F780E285
:101C0000D8011D928A95E9F784E0898388E0FE0176
:101C1000B196DE01159601900D928A95E1F781E06B
:101C20008D8720C184E7898382E08A831B821C829E
:101C300019C18C8190E0982F88272B81820F911DEC
:101C4000092E000CAA0BBB0B35E0880F991FAA1FA9
:101C5000BB1F3A95D1F7AC01BD01405E5F4F6F4F9E
:101C60007F4F481759076A077B0708F4FBC0843782
:101C7000E2E09E07A105B10508F0F4C04537F2E0A7
:101C80005F076105710520F044E752E060E070E015
:101C9000481B590BBC01685D7E4FC8010E9410357E
:101CA000E1C01B810C8140E0602F812F0E94782AC7
:101CB00099838A8341E0602F812F0E94782A9B8339
:101CC0008C83D0C02E813F813227232732274D813C
:101CD0006C818B810E94402AC5C040E250E06FEFCA
:101CE00070E0C8010E94BA3580912D048983EA8290
:101CF0001B821C821D8281E0D9C081E090E090931C
:101D000032048093310482E390E09093C802809380
:101D1000C7020E94CE279093C6028093C502A2C03C
:101D2000EF28B9F180914103909142039C013695CF
:101D300027958170182F12238091C5029091C602B9
:101D40000E94B32785369105F0F01123E1F00E943F
:101D5000CE279093C6028093C5028091C7029091CE
:101D6000C80201979093C8028093C702892B89F417
:101D7000109232041092310481E090E090932E048E
:101D800080932D0406C082E390E09093C802809374
:101D9000C70280912D048983809131048A838091C8
:101DA000C7028B835FC010922E0410922D045AC07C
:101DB00040E250E06FEF70E0C8010E94BA3552C0B7
:101DC0008B81833061F0843061F181114BC080E2FE
:101DD000D8011D928A95E9F788E08A8343C06C8117
:101DE000CE0181962AE0FC0111922A95E9F768302C
:101DF00060F4FAE06F9FB0011124695F7D4F4AE003
:101E000050E00E94193580E001C08FEF89838AE09D
:101E1000FE01B196DE01129601900D928A95E1F7CE
:101E200021C06C818AE0FE013596DE019196019019
:101E30000D928A95E1F7683070F40AE0609FB00176
:101E40001124695F7D4F4AE050E0CE0181960E94E7
:101E50006B3580E001C08FEF89830E94C62B02C0E2
:101E60008FEF8983CE0101960E94BA1D0C943E0625
:101E700009BD19BD09B400FEFDCF8091D8008F7D4A
:101E80008093D8008091E00082608093E000809190
:101E9000E00081FDFCCF0E9499200C94470686E269
:101EA00090E00E9429351B821C821D828E83DACF2E
:101EB0008E2D90E08C30910530F080910D018F5F78
:101EC00080930D0183C9FC01EC59FF4F0C949735A9
:101ED00080910F01882309F4ABC240E060E080E00C
:101EE0000E945B2DA5C210910D01110F110F110F52
:101EF00008E0010F093208F008E260916603709172
:101F00006703809168030E94232EF62ED72EC82ED9
:101F1000101708F0ADC1E12FF0E0DF01A553BE4F6F
:101F20008C9190910E01982331F02C2D4F2D6D2D19
:101F3000CF010E945D2D1F5FEBCF10910D01110F9E
:101F4000110F110F08E0010F093208F008E2D090DC
:101F50006703F0906803C0906603B6018F2D0E945E
:101F6000232EB62EA72E982E609169036C0D7D2D21
:101F70008F2D0E94232EF62ED72EC82E101708F074
:101F800077C1E12FF0E0DF01A553BE4F8C91909116
:101F90000E01982361F080FF04C02C2D4F2D6D2D74
:101FA00003C0292D4B2D6A2DCF010E945D2D1F5F8F
:101FB000E5CF0F2D10E0F801E553FE4F90818091A1
:101FC0000E018923B9F0F801EE0FFF1FE15BFE4F10
:101FD00085A582958F70609166038C9D600D11249C
:101FE0007B2D8A2D0E94232E462F282F672FC80174
:101FF0000E945D2DF394DAC8F0900D01FF0CFF0CE8
:10200000FF0CB8E0DB2EDF0C78E27D1510F4A8E2BF
:10201000DA2EB0906703A090680320916903F0E482
:10202000CF2E0C2D029F012D1124C02EFD1438F54A
:102030000F2D10E0F801E553FE4F908180910E01C5
:102040008923D9F0F801EE0FFF1FE558FE4F60819C
:10205000C69EB0011124E5E075956795EA95E1F714
:1020600080916603680F7B2D8A2D0E94232E462FB8
:10207000282F672FC8010E945D2DF394D7CF81E0F0
:1020800017E21D1508F09BC8D3C1F0900D01FF0C9D
:10209000FF0CFF0C68E0D62EDF0C28E22D1510F4A3
:1020A00058E2D52E60916903669580916103909105
:1020B00062030E94192EC82EFD1408F042C00F2D95
:1020C00010E0F801E553FE4F908180910E018923C5
:1020D000B1F1F801EE0FFF1FE558FE4F408150E0CF
:1020E00044565109F801EE0FFF1FE15BFE4F25A595
:1020F00030E020523109449FB001459F700D700DB2
:102100001124229FC001239F900D900D1124860F52
:10211000971F0E94BF2D9091670333E0839FB0010A
:102120001124759567956C0D792F809168030E9435
:10213000232E462F282F672FC8010E945D2DF39470
:10214000BBCF81E047E24D1508F039C871C110914D
:102150000D01110F110F110F98E0F92EF10E68E229
:102160006F1510F488E2F82E6091690366958091EE
:102170006103909162030E94192EB82E1F1578F505
:10218000C12ED12CF601E553FE4F908180910E01B6
:10219000892319F1F601EE0FFF1FE15BFE4F25A524
:1021A00030E020523109F601EE0FFF1FE558FE4FD7
:1021B000408150E044565109609166037091670375
:1021C000809168030B2D0E94F02D0E94232E462F34
:1021D000282F672FC6010E945D2D1F5FCFCF81E0A2
:1021E00077E27F1510F00C94DF0822C110910D01E9
:1021F000110F110F110F08E0010F093208F008E26A
:10220000D0906703F0906803C09066036091690303
:1022100066956695669580916103909162030E9430
:10222000192E0E947A2D805887FD8195880F682F7E
:102230002CE0629F612D11246C0D7D2D8F2D0E944D
:10224000232EF62ED72EC82E101790F4E12FF0E093
:10225000DF01A553BE4F8C9190910E01982331F070
:102260002C2D4F2D6D2DCF010E945D2D1F5FECCFCA
:1022700081E0083210F40C94DF08DAC08BE99DE2AB
:1022800002C08FE49CE20E9497180C94DF08009132
:102290000D01000F000F000FA8E05A2E500E8CE227
:1022A000851510F4FCE25F2E80910F01882361F008
:1022B00040E060E080E00E945B2D8CE2E9E6F2E025
:1022C000DF011D928A95E9F780910D01811115C0FA
:1022D00080916702909168020E94B32721E08931C2
:1022E000910508F420E020936602499730F00E949F
:1022F000CE27909368028093670210E0652C712CC2
:102300007BE0472EEAEA3E2E061517050CF05EC06C
:102310004801B3E08B2299246801D594C794D594E1
:10232000C794489CC001499C900D1124FC01E759B9
:10233000FD4FEC0DFD1DF080815B9E4FFC01EC0D0F
:10234000FD1D80818F3F59F1A82EB12CF501E55379
:10235000FE4F908180910E01892309F13F2D25E5E3
:10236000321B08F430E070916703232D4F2D240FAA
:1023700008F42FEF4091680362E0269F200D11249E
:102380002E5F249F212D1124632D631B822F0E9419
:10239000232E462F282F672FC5010E945D2D809187
:1023A0006602882381F02F2D71E0271B08F420E0BE
:1023B000489CC001499C900D112487599D4FFC01F8
:1023C000EC0DFD1D20830F5F1F4F9ECF81E09BE230
:1023D000951510F00C94DF082BC0F0900D01FF0C48
:1023E000FF0CFF0C58E0D52EDF0CA8E2AD1510F461
:1023F00048E2D42EFD14B0F40F2D10E0F801EE0FDA
:10240000FF1FE00FF11FE753FD4F60817181828153
:102410000E94232E462F282F672FC8010E945D2D72
:10242000F394E8CF81E0B7E2BD1510F00C94DF081B
:1024300080E00C94DF088F929F92AF92BF92CF9270
:10244000DF92EF92FF920F931F93CF93DF9300D011
:1024500000D0CDB7DEB7FC0180819181238134812A
:10246000232B31F09F3F31F491E08F3F19F403C0EB
:1024700091E001C090E090FD64C57F0161E0CF0173
:102480000E946D308C01F7019281992309F482C07A
:10249000980122513F452031310508F041C58FEFA9
:1024A00093E00E94293581117EC09EEED92ED00E78
:1024B00007E512E0DD2071F00115F4E01F0709F4D3
:1024C00072C0C8010E942935811101C0DA940F5FE2
:1024D0001F4FF0CF19821A821B821C82AA24AA9451
:1024E00068012FEFC21AD20AC8010E9429358983D8
:1024F0001A82882309F457C0813009F046C0480188
:1025000082E0880E911CC6010E9429358A838823A7
:1025100009F449C09FEF980F933060F4680193E08D
:10252000C90ED11CC4010E9429358B8381112DC095
:102530008601D6CF843011F06401FACFC4010E9425
:102540002935B82E6801E4E0CE0ED11CC8010396EF
:102550000E942935BB2039F1882329F1282F30E04A
:1025600021503109A29EA001A39E500D11248B2D54
:1025700090E00197840F951F0197D0F2EFE9FFE0FB
:102580003197F1F700C00000F7CFCE0101960E940D
:10259000BA2FCECF0031FFE51F0799F481E00E94EA
:1025A0007E200E948C188091D303877009F4C9C4DF
:1025B000F7018281882309F4C4C482E00E94FD24CB
:1025C000C0C401312FE5120711F482E0E8CF0933CE
:1025D000110571F4992309F494C18091380288237C
:1025E00019F0109238024EC081E0809338024AC040
:1025F000033F2CE5120759F190F4083DECE51E0766
:10260000E9F0093DFCE51F07A1F1073D2CE51207A4
:10261000B1F506E221EE41EE67ED7CE514C0053F21
:102620008CE5180701F1C8F0063FFCE51F0739F5F6
:1026300007E225EE46EE66EF7CE505C007E225EEF3
:1026400045EE68ED7CE5C7010E94BD29ACCF06E2EE
:1026500021EE40EE63EF7CE5F6CF07E225EE44EE97
:1026600064EF7CE5F0CF06E221EE42EE65EF7CE51B
:10267000EACF08E221E045EE69ED7CE5E4CF99235D
:1026800009F43FC11092350402302CE5120708F41A
:1026900022C106318CE5180738F098012A5F3C45C5
:1026A0002930310508F017C10E94442490932F026D
:1026B00080932E0200319CE5190709F4C3C008F08D
:1026C00041C00830FCE51F0709F49AC0F0F404305B
:1026D0008CE5180709F487C068F40230ECE51E07A2
:1026E00009F477C003301C4509F0E5C080912E0243
:1026F000826076C006302CE5120709F46EC008F03F
:102700007BC080912E0288606BC00C309CE519075D
:1027100009F485C068F40A30FCE51F0709F474C0A9
:1027200008F079C00E94992080912E02806858C0DC
:102730000E308CE5180709F476C008F07FC0809150
:102740002E028BC00B3FECE51E0709F44FC018F5B5
:1027500003312CE5120709F47DC078F401319CE5C2
:10276000190709F473C002311C4509F0A4C00E9486
:10277000992080912E028F7733C00531FCE51F0729
:1027800009F472C008F486C00A3F1C4509F093C0E2
:1027900080912F023EC00F3F9CE5190709F45FC0EE
:1027A00058F40D3FFCE51F0709F444C008F43FC08E
:1027B00080912F0282602DC001308DE5180709F449
:1027C00075C008F45DC002301D4509F074C060E0BA
:1027D0006EC080912E02816003C080912E028061C4
:1027E00080932E0268C080912E0211C080912F022A
:1027F000826080932F025FC080912E028062F0CFB2
:1028000080912E028064ECCF80912E0288608460DB
:10281000E7CF8160EECF80912E028E7FE1CF809155
:102820002E028D7FDDCF80912E02877FD9CF8091C0
:102830002F0218C080912F028D7FDBCF80912E0256
:102840008F7ECECF80912E028F7DCACF80912E02B7
:102850008F7BC6CF80912E02877F8B7FC1CF8091E7
:102860002F028D7F8E7FC5CF80912E0282FB222783
:1028700020F991E0922790FB82F990FB83F9B0CF89
:1028800080912F02982F909591708E7F892B90FBCD
:1028900081F9AFCF0E94992080912E0287FB2227D9
:1028A00020F991E0922790FB87F99ACF61E08EE0C2
:1028B00090E00E94473560912E0210912F0284E033
:1028C00090E00E944735612F82E290E00E944735F8
:1028D0000E94992068CE8091D6030631FCE51F073F
:1028E00009F58A7A91E009F490E0909349038823EE
:1028F00011F065E301C069E28EE793E00E941028C1
:102900000EC006311C4509F0B6C0809149038823EA
:1029100009F415C365E38EE793E00E9403280E9443
:102920009E2641CE8272093CFCE51F0709F45AC07D
:1029300028F5053CECE51E0709F445C0A8F4033C66
:102940002CE51207B1F1D0F5023CFCE51F0709F0B8
:102950005FC08091650391E08927809365031092A1
:1029600011019093EC041FCE073C2CE5120781F176
:10297000A0F543E25DE269E17DE242C00D3CECE599
:102980001E0709F440C050F40B3C2CE5120779F106
:1029900098F542EF5CE265EE7CE232C0063DECE584
:1029A0001E0708F400CE0D35FDE51F0709F4FBCD29
:1029B0002FC046E45DE260E57DE222C040E55DE2D5
:1029C00066E47DE21DC049E15DE263E27DE218C09C
:1029D0004FEF5CE26CE07DE213C04CE05DE26FEF34
:1029E0007CE20EC045EE5CE262EF7CE209C047E3A8
:1029F0005CE263E47CE204C043E45CE267E37CE223
:102A00000E94CC2CD0CD61E081E00E942D2DCBCD59
:102A1000992389F10A352DE5120741F150F401158A
:102A20009CE51907A9F00E3D1C4529F50E9460247C
:102A3000BACD0B35FDE51F07D9F00C351D45D9F48E
:102A400080912F0282FB882780F991E0892711C0AD
:102A50000E9499208FEF94E3ECE081509040E04099
:102A6000E1F700C000000E9469279DCD81E001C010
:102A700080E00E94DC24F701868197810097B9F4F9
:102A8000F701828100811181882349F0C8010E94E9
:102A9000EE1DD82E682FC8010E944B2004C0C8012B
:102AA0000E941B20D82EB8018D2D0E94AA2B0E94B7
:102AB000BB22D82E192FF701A280058102950F7035
:102AC0008091D303877099F0AA2089F0892F807FA5
:102AD000803421F080E28D0D883048F082E00E9441
:102AE000FD248091D3038770CC24C3948111C12C21
:102AF000B12EB2948FE0B8228B2D90E08C309105EE
:102B000008F0EAC1FC01E059FF4F0C949735812F82
:102B1000807F1F70882311F01295107FAA20B9F0D2
:102B2000112309F4BBC180E28D0D883010F0D11063
:102B300006C09091D603192B1093D60305C090912F
:102B4000D503192B1093D5030E949E26A7C18D2D66
:102B50000E945021112309F4BFC180E28D0D8830FD
:102B600010F0D11004C0812F0E94D52406C010950A
:102B70009091D50319231093D5030E949E26ACC1D2
:102B8000812F807F1F70803211F01295107FDD2021
:102B900029F0F1E0DF1609F43FC048C0AA2041F156
:102BA000002301F1013099F480912F0282FD94C13C
:102BB0008091D903182B181709F48EC10E94CE27D3
:102BC0009093D8038093D7031093D90385C1053020
:102BD00049F40E94CA248091D003181759F1109328
:102BE000D00328C08091D903812B0E94462174C153
:102BF000002349F0013069F48091D603812309F460
:102C00006BC10E941A250E94CA24812F0E943F2175
:102C100063C10530C1F760C1AA2021F0063008F079
:102C20005BC108C0053008F057C1EFCFAA2021F0E2
:102C3000011134C1812FD9CF002339F329E3D212F6
:102C400008C08FEF97EEE3E081509040E040E1F75D
:102C50003EC1FFE728E381E0F15020408040E1F7EA
:102C600036C1812F86958695837019F0813061F089
:102C700033C1AA2021F08D2D912F937002C080E0E6
:102C800090E00E9440282EC1AA2021F08D2D912F86
:102C9000937002C080E090E00E942A2823C1812F17
:102CA0008370A9F5A1101CC14D2D42954695477022
:102CB000440F440F8D2D8F7090E09C01042E01C0B5
:102CC000220F0A94EAF7D4FE08C08FE090E001C01A
:102CD000880F4A95EAF7809501C080E01695169511
:102CE0001370123069F088F490916505113019F075
:102CF000822B892302C0922B892B0E949520F0C041
:102D0000822B909165058927F8CF822BF6CFAA20D8
:102D100019F0812F817001C08695882309F4E0C0E5
:102D20004D2D429546954770440F440F8D2D8F7061
:102D300090E09C01042E01C0220F0A94EAF7D4FE11
:102D400008C08FE090E001C0880F4A95EAF78095AF
:102D500001C080E0169516951370123059F078F482
:102D600090916B03113019F0822B892309C0922BAB
:102D7000892B06C0822B90916B03892701C0822B7F
:102D80000E947820ADC01F70AA2039F0812F0E94C8
:102D90008A208D2D0E944621A3C08D2D0E943F21A7
:102DA000812F0E947E209CC092EFD91659F19D156B
:102DB00038F0E0EFDE1659F0F1EFDF16E1F069C010
:102DC00023EFD21631F184EFD81681F162C0AA2028
:102DD00071F0053008F080C01F7181E090E001C003
:102DE000880F1A95EAF790916B0389271CC006306B
:102DF00008F072C0F1CFAA2039F0812F8F710E94A4
:102E00008A206AC0AA20C9F3812F8F710E947E2078
:102E100063C0AA2039F01F7181E001C0880F1A95A4
:102E2000EAF701C080E00E94782056C0AA20D1F0C5
:102E30008091D0030E94D5248091D3038770843081
:102E400039F40E94F624812F8F710E947E2066C083
:102E5000053008F063C01F71812F0E948A2063E053
:102E6000812F10C09091D6038091D003892B80933D
:102E7000D603053050F00E94F6240E941A2564E023
:102E8000812F8F710E94DB2649C081E00E94FD24C2
:102E900045C0AA2039F0002309F4AFCF8D2D0E9440
:102EA000A7211AC0002309F4AFCF99E3D91208C0B3
:102EB000EFEFF7EE23E0E150F0402040E1F707C0EC
:102EC0008FE798E3E1E081509040E040E1F700C0F7
:102ED00000008D2D0E94502188EF8B0D843010F45E
:102EE0000E945628CC20A9F08091D30380FD11C008
:102EF000F70112828595859585950E948A20C701E4
:102F00000E941B128091D3038595859585950E941B
:102F10007E2060E0C7010E946D3013C0C12CE0CF5D
:102F200000318FE5180711F481E006C00131EFE5AB
:102F30001E0709F04CCB82E00E948A2032CB69E266
:102F4000EACC0F900F900F900F90DF91CF911F91CF
:102F50000F91FF90EF90DF90CF90BF90AF909F9038
:102F60008F9008958091580387FF11C08091E800E9
:102F700082FD05C0809160038111F8CF11C080915E
:102F8000E8008B770BC080916003882349F0809123
:102F9000E80080FFF8CF8091E8008E778093E8000A
:102FA0000895982F973068F59093E900981739F0B5
:102FB0007091EC002091ED005091F00003C0242F9F
:102FC000762F50E021FD02C09F5FECCF3091EB00E7
:102FD0003E7F3093EB003091ED003D7F3093ED006C
:102FE0003091EB0031603093EB007093EC00209354
:102FF000ED005093F0002091EE0027FDE5CF80E03A
:1030000008958F708093E90081E0089520915E0318
:1030100030915F032617370748F06115710539F4C1
:103020002091E8002E772093E80001C0B901FC014F
:1030300020E06115710579F1809160038823F1F139
:103040008530F1F18091E80083FD3CC08091E8007B
:1030500082FD2EC08091E80080FFEBCF2091F3002D
:103060008091F20090E0922B6115710551F088304B
:10307000910538F421912093F10061507109019676
:10308000F3CF21E0089709F020E08091E8008E77E7
:103090008093E800CECF2111CFCF0AC0809160038A
:1030A000882361F0853061F08091E80083FD0AC0DB
:1030B0008091E80082FFF2CF80E0089582E00895D9
:1030C00083E0089581E00895BC0184E00C943F27DB
:1030D000BC0183E00C943F270F931F93CF93DF93A2
:1030E00000D000D0CDB7DEB789836A834B831C82C2
:1030F00004E610E024E030E0AE014F5F5F4F60E097
:1031000084E10E9483340F900F900F900F90DF9115
:10311000CF911F910F91089580916B03982F967016
:10312000963011F4886001C0877F0C947820DF927C
:10313000EF92FF920F931F93CF93DF938C01C09177
:103140000D01CC0FCC0FCC0FD8E0DC0FD93208F03A
:10315000D8E2609169036695669521E0620F08F4F4
:103160006FEF80916103909162030E94192ED82E17
:10317000CD17F0F4EC2EF12CF701E553FE4F9081C2
:1031800080910E01892391F060916603709167032D
:10319000809168032D2D4C2FF80109950E94232E54
:1031A000462F282F672FC7010E945D2DCF5FE0CFEC
:1031B00081E0D83208F080E0DF91CF911F910F912C
:1031C000FF90EF90DF9008951F93CF93DF93CDB7DB
:1031D000DEB7AA970FB6F894DEBF0FBECDBFE8E505
:1031E000F3E08091F100819343E0E036F407C9F702
:1031F00080915903833009F462C030F4813071F05A
:10320000823009F49CC0B3C08A3009F488C08B3086
:1032100009F46DC0893009F0AAC020C0809158031C
:10322000813A09F0A4C08091E800877F8093E8008C
:1032300080915C0390915D03892B21F468E08DE41B
:1032400093E003C060E080E090E070E00E94061828
:103250008091E8008B778093E80089C080915803C3
:10326000813209F084C080915C0390915D030097E6
:1032700019F0029709F07BC08091E800877F809366
:10328000E8008091E80082FD05C080916003811113
:10329000F8CF6DC02091F3008091F20090E0922B66
:1032A000029729F48091F1008B7F813021F4809185
:1032B000F10080934C038091E8008B7754C080919B
:1032C0005803813A09F053C080915C0390915D03EB
:1032D000892B09F04CC08091E800877F8093E8003B
:1032E0008091E80080FFFCCF80910C0137C0809175
:1032F00058038132E1F580915C0390915D03892B45
:10330000B1F58091E800877F8093E8000E94B217B2
:1033100080915A0380930C010E94992028C08091CB
:103320005803813221F58091E800877F8093E8007F
:103330000E94B21780915B0380934B0318C0809169
:103340005803813AA1F48091E800877F8093E800D8
:103350008091E80080FFFCCF80914B038093F100C7
:103360008091E8008E778093E8000E94B2178091E8
:10337000E80083FFE9C18091580390915903492FD8
:1033800050E04A30510508F0DFC1FA01E458FF4F20
:103390000C949735803821F0823809F0D5C108C0E7
:1033A0008091550390915603992389F082600FC054
:1033B00080915C038F70873008F0C6C18093E9006C
:1033C0008091EB0085FB882780F91092E9009091AD
:1033D000E800977F9093E8008093F1001092F1004D
:1033E0007CC1282F2D7F09F0AFC1882319F08230CE
:1033F00061F0AAC180915A03813009F0A5C19330D0
:1034000009F080E0809356032EC080915A03811109
:103410002AC080915C038F702FEF280F263008F0B0
:1034200093C18093E9002091EB0020FF1CC09330F2
:1034300021F48091EB00806214C09091EB009061C8
:103440009093EB0021E030E0A90102C0440F551F2A
:103450008A95E2F74093EA001092EA008091EB002F
:1034600088608093EB001092E9008091E800877FEC
:103470008093E8000E94B21767C1811165C1109165
:103480005A031F778091E3008078812B8093E300BB
:103490008091E800877F8093E8000E94B2178091B6
:1034A000E80080FFFCCF8091E30080688093E30018
:1034B000111102C082E001C083E08093600344C127
:1034C0008058823008F040C120915A0330915B034C
:1034D0002C3D53E0350779F583E08A838AE28983BE
:1034E0004FB7F894DE01139620E03EE051E2E32F5F
:1034F000F0E050935700E49120FF03C0E295EF7095
:103500003F5FEF708E2F90E0EA3010F0C79601C059
:10351000C0968D939D932F5F243149F74FBF8091C3
:10352000E800877F8093E8006AE270E0CE010196B0
:103530000E940618C0C080915C0390915D03432FE8
:10354000552743305105B1F068F44130510509F475
:103550000AC14230510509F0F7C08BE590E0EFEA6F
:10356000F4E057C04132510589F14232510509F466
:103570003CC0EAC0C901992781309105B9F070F0CB
:1035800082309105D9F0039709F0DEC0ECE1F5E057
:10359000E4918E2F90E0ECE1F5E038C0E4E8F5E04E
:1035A000E4918E2F90E0E4E8F5E030C0E8E6F5E045
:1035B000E4918E2F90E0E8E6F5E028C0EAE3F5E03C
:1035C000E4918E2F90E0EAE3F5E020C0833091058E
:1035D00008F0BAC0880F991FFC01E75BFE4F01900D
:1035E000F081E02D89E090E014C08330910508F06F
:1035F000ABC0FC01EE0FFF1FED5BFE4F0190F081B1
:10360000E02DDC01A05CBE4F8C9190E0009709F4A6
:103610009BC02091E800277F2093E80020915E0363
:1036200030915F032817390708F4C90140E000977B
:1036300089F120916003222309F43DC02530D9F19E
:103640002091E80023FD37C02091E80022FD2FC023
:103650002091E80020FFEBCF4091F3002091F20091
:1036600030E0342B009759F02830310540F4449174
:103670004093F100319601972F5F3F4FF3CF41E028
:103680002830310509F040E02091E8002E772093A2
:10369000E800CDCF4111CDCF0AC0809160038823CF
:1036A00051F0853041F08091E80083FD04C08091A5
:1036B000E80082FFF2CF8091E8008B778093E800EA
:1036C00043C0803809F040C08091E800877F809334
:1036D000E800809157038093F1008091E8008E7795
:1036E000C7CE811131C080915A0390915B03992715
:1036F000029754F58091E800877F8093E80010914D
:103700005A03109357030E94B217111106C08091FB
:10371000E30087FD02C081E001C084E08093600384
:1037200042E061EC81E00E94D11742E261EC84E06A
:103730000E94D11742E261EC82E00E94D11742E27E
:1037400060EC83E00E94D1178091E80083FF10C0F5
:103750008091E800877F8093E8008091EB00806291
:103760008093EB0005C082E190E0EAE0F5E051CF04
:10377000AA960FB6F894DEBF0FBECDBFDF91CF91F2
:103780001F9108951F920F920FB60F9211242F933D
:103790003F934F935F936F937F938F939F93AF93D9
:1037A000BF93CF93DF93EF93FF93C091E900CF7066
:1037B0008091EC00D82FD17080FDD0E81092E90004
:1037C0008091F000877F8093F00078940E94E41845
:1037D0001092E9008091F00088608093F000CD2B7A
:1037E000CF70C093E900FF91EF91DF91CF91BF912E
:1037F000AF919F918F917F916F915F914F913F9189
:103800002F910F900FBE0F901F901895E8EDF0E0EC
:1038100080818E7F80831092E2001092DA001092F5
:10382000E100A0EEB0E08C9181608C9380818F7775
:10383000808319BCA7EDB0E08C918E7F8C93808142
:103840008F7E808310924A030895CF92DF92EF9289
:10385000FF920F931F93CF93DF93C8EDD0E0888141
:103860008F7E8883E7EDF0E080818160808384E053
:1038700082BF81E080934A0388818E7F888302EE35
:1038800010E0F80110821092DA0081EEC82ED12CDF
:10389000F601108288818F77888388818068888389
:1038A00088818F7D888319BC109260031092570322
:1038B000109256031092550390EEE92EF12CF70169
:1038C00080818B7F808388818160888342E060E093
:1038D00080E00E94D117F60180818E7F8083F801FD
:1038E000808181608083808188608083F70180810E
:1038F0008E7F8083888180618883DF91CF911F9143
:103900000F91FF90EF90DF90CF9008951F920F924C
:103910000FB60F9211242F933F934F935F936F93A2
:103920007F938F939F93AF93BF93EF93FF93809178
:10393000E10082FF09C08091E20082FF05C0809112
:10394000E1008B7F8093E1008091DA0080FF2AC044
:103950008091D80080FF26C08091DA008E7F80930E
:10396000DA008091D90080FF18C080E189BD82E132
:1039700089BD09B400FEFDCF81E080936003809192
:103980004A0381110FC00E94061C0E94251C8091D1
:10399000E20084608093E20005C019BC10926003CD
:1039A00010924A038091E10080FF17C08091E200ED
:1039B00080FF13C08091E2008E7F8093E2008091AF
:1039C000E20080618093E2008091D8008062809361
:1039D000D80019BC85E0809360038091E10084FFEA
:1039E0002EC08091E20084FF2AC080E189BD82E17F
:1039F00089BD09B400FEFDCF8091D8008F7D8093F2
:103A0000D8008091E1008F7E8093E1008091E200F8
:103A10008F7E8093E2008091E20081608093E200DB
:103A200080915703882311F084E007C08091E30060
:103A300087FD02C081E001C083E080936003809134
:103A4000E10083FF27C08091E20083FF23C08091C3
:103A5000E100877F8093E10082E080936003109211
:103A600057038091E1008E7F8093E1008091E20016
:103A70008E7F8093E2008091E20080618093E2007B
:103A800042E060E080E00E94D1178091F000886001
:103A90008093F000FF91EF91BF91AF919F918F9133
:103AA0007F916F915F914F913F912F910F900FBE3A
:103AB0000F901F9018952091E4003091E50095E655
:103AC0004091EC00842F817040FF23C08091E8007A
:103AD00080FD1DC080916003882399F0853099F0A6
:103AE0008091EB0085FD11C04091E4005091E5000C
:103AF0002417350729F3915011F09A01E1CF84E0A2
:103B0000089582E0089583E0089581E0089580E0BB
:103B100008954091E80042FFDDCF0895EF92FF92B3
:103B20000F931F93CF93DF937C018B010E945B1D4A
:103B3000811119C0E70101151105A1F08091E8007C
:103B400085FD0AC08091E8008E778093E8000E948E
:103B50005B1D882381F307C089918093F100015098
:103B60001109E9CF80E0DF91CF911F910F91FF9074
:103B7000EF900895CF93209160032430F9F4C09121
:103B8000E900CF703091EC00232F217030FD20E848
:103B9000C22B22E02093E9002091E80020FF0BC017
:103BA00040E050E060E270E00E948E1D8091E800ED
:103BB0008E778093E800CF70C093E900CF9108958D
:103BC00080E090E00E94402880E090E00E942A2857
:103BD0001092D5031092D4030C949E26CF92DF92BC
:103BE000FF920F931F93CF93DF936C0100916B03B0
:103BF00080916505082BC7E0D0E010E0C8010C2ECD
:103C000002C0959587950A94E2F780FD04C021973C
:103C1000A8F7F12C09C0FC2EB6018C2F0E94AA2B0C
:103C20000E94BB22019799F38F2DDF91CF911F91B5
:103C30000F91FF90DF90CF900895CF93DF93EC0129
:103C40000E94EE1DBE010E94AA2B0E94BB22DF91A2
:103C5000CF910895FC0186819781009719F00E9409
:103C6000BB2204C0808191810E941D1E292F2F70CC
:103C7000E92FE295EF704E2F50E0FA013297EE30C7
:103C8000F105B8F4EA57FF4F0C949735803F99F04F
:103C900018F4883E70F40FC0843F59F40CC0883E7D
:103CA00050F0813F31F407C0822F86958695869526
:103CB000089580E0089581E008959F92AF92BF92A9
:103CC000CF92DF92EF92FF920F931F93CF93DF93E8
:103CD000CDB7DEB765970FB6F894DEBF0FBECDBF88
:103CE0008C0185E0F801DE01519601900D928A95D4
:103CF000E1F7F801E280909186036091870340919B
:103D0000890350918A034115510531F06F3F31F419
:103D100081E09F3F19F403C081E001C080E0F82FEB
:103D2000F1709F2E80FD37C1F80130812181C38061
:103D3000D48076E8A72E73E0B72EF0908803F601C2
:103D4000E41BF50BFF2009F4F5C080918B03E83CE0
:103D5000F10508F0B0C0482F407F09F05AC0621347
:103D60001BC0931319C060918C0370918D03F801EF
:103D7000468157816417750779F4FE2CE1100CC059
:103D80008F70806180938B03C5010E941B1280910C
:103D90008B03F80185833CC1CD2831F02F3F31F4EE
:103DA00081E03F3F19F403C081E001C080E080FD65
:103DB00003C081E08E2502C080E090E0F82FF17012
:103DC000FF2E80FF1CC08091CF0340918E0384178B
:103DD00009F4FCC090E0FC0153E0EE0FFF1F5A9580
:103DE000E1F7E157FC4F5181251306C05081531371
:103DF00003C05281E51203C001968770E8CFFE2C04
:103E0000EE2009F405C180918B03816080938B03C0
:103E10005EC0621315C0931313C040918C03509180
:103E20008D03F801268137814217530749F4E110C9
:103E300007C08583C8010E941B1288E0F80190C06A
:103E4000C8010E942A1E882381F1EE2071F1209181
:103E50008B03822F82958F7090E00297A4F080915F
:103E60008603909187039A8789871B86DD86CC8697
:103E70002E8780918C0390918D03988B8F87CE0134
:103E800009960E941B1288E0F801A6E8B3E00190B1
:103E90000D928A95E1F70E942A250AC06217C9F09F
:103EA000C8010E942A1E811127C0C8010E941B124E
:103EB000FF24F394ADC0482F407F81F786E893E05C
:103EC0000E941B1288E0F50111928A95E9F7F12C06
:103ED0009FC09313E5CF40918C0350918D03F8015F
:103EE0002681378142175307D9F6E110D9CF858350
:103EF000C8010E941B1249C0EE20B9F220918B0329
:103F0000822F82958F7090E002970CF4BCCF809145
:103F10008603909187039A8389831B82DD82CC82FA
:103F20002E8380918C0390918D0398878F83CE018F
:103F30000196A7CFE83CF10540F5FE2CEE2009F4F0
:103F4000B4CF621314C0931312C020918C0330912C
:103F50008D03F801868197812817390741F488E09D
:103F6000A6E8B3E001900D928A95E1F751C0C8012F
:103F70000E942A1E811187CF80918B0381608093DC
:103F80008B03C8010E941B1243C088E0F501119207
:103F90008A95E9F73DC0EE2009F487CFC8010E9459
:103FA0002A1EF82E882309F480CF88E0F801A6E8BD
:103FB000B3E001900D928A95E1F78091860390918C
:103FC00087030E941D1E0E942A2522C0398B2A8B3E
:103FD00089899A890E941D1E292F22952F702230CF
:103FE00028F49F7039F0811105C00BC0243028F4EB
:103FF0009F7049F4805E883020F0C8010E941B1237
:104000009F2CF92C05C0F8019581907F99F7F9CF85
:104010008F2D65960FB6F894DEBF0FBECDBFDF9132
:10402000CF911F910F91FF90EF90DF90CF90BF90B5
:10403000AF909F9008959E3F61F12BE0929F800D7D
:104040001124682F669566956695982F977083E082
:10405000689FB001112440E050E080E0FB01E40FD4
:10406000F51FE459FC4F208130E0092E02C036953F
:1040700027950A94E2F721703327042E01C0220FFE
:104080000A94EAF7822B4F5F5F4F4330510531F7B7
:10409000089580E008959E3F51F12BE0929F800D9E
:1040A0001124E82FE695E695E695877051E001C06A
:1040B000550F8A95EAF783E0E89FF0011124E4594F
:1040C000FC4F20E030E070E04081CB01022E02C0C6
:1040D000969587950A94E2F78170819584278523C8
:1040E000842781932F5F3F4F2330310569F708956F
:1040F0000E94D13080936B030C94E01D21E030E0EE
:1041000001C0220F8A95EAF7209580916B038223E4
:104110000C94782021E030E001C0220F8A95EAF764
:1041200080916B03822B0C947820809365050C940E
:10413000E01D1092D60386E0E0E8F3E0DF011D9277
:104140008A95E9F70C94E01DCF93DF93CDB7DEB7E6
:1041500060970FB6F894DEBF0FBECDBF29873A87B0
:104160004B875C876D877E878F87988BCE010996FA
:104170000E945D1E811151C088E0FE013996DE016A
:10418000119601900D928A95E1F779856A854C85A3
:104190005D854115510531F06F3F31F481E07F3F7E
:1041A00019F403C081E001C080E080FD36C0A09119
:1041B0008E03B0E0CD010196877099272091CF033F
:1041C00030E08217930781F179836A835D834C83A2
:1041D00093E0AA0FBB1F9A95E1F7A157BC4F98E057
:1041E000FE01319601900D929A95E1F780938E032E
:1041F0000E94202512C028E0829FC001112481570F
:104200009C4F0E945D1E8823E1F08091CF0390E0D7
:104210000196877099278093CF038091CF03909167
:104220008E038913E8CF0DC00E94992010928E034F
:104230001092CF03E6E8F3E088E0DF011D928A9553
:10424000E9F760960FB6F894DEBF0FBECDBFDF91E1
:10425000CF910895882341F080959091D5038923CB
:104260008093D5030C949E260895882339F090916D
:10427000D503892B8093D5030C949E26089588231B
:1042800021F00E94D5240C949E260895882339F0AD
:104290009091D603892B8093D6030C949E26089583
:1042A000882309F453C0682F823869F40E94562885
:1042B00081FF4CC069E38EE793E00E9410280E94C2
:1042C0009E2669E30EC0833891F40E94562880FF31
:1042D0003DC063E58EE793E00E9410280E949E2671
:1042E00063E58EE793E00E9403280C949E268438B1
:1042F00069F40E94562882FF29C067E48EE793E0A4
:104300000E9410280E949E2667E4EBCF8CEF860F58
:10431000813A38F380E2860F883048F4677081E094
:1043200001C0880F6A95EAF70E94D524DECF8BE59D
:10433000860F833020F480E090E00C944028685A87
:10434000673120F480E090E00C942A280895CF9300
:10435000882309F496C0C82F8238B1F40E945628E9
:1043600081FD8FC069E38EE793E00E9410280E94D0
:104370009E262FEF81EE94E0215080409040E1F79F
:1043800000C0000069E317C08338E1F40E9456289A
:1043900080FD77C063E58EE793E00E9410280E94BD
:1043A0009E262FEF81EE94E0215080409040E1F76F
:1043B00000C0000063E58EE793E00E940328CF91E0
:1043C0000C949E268438B1F40E94562882FD59C070
:1043D00067E48EE793E00E9410280E949E262FEF4C
:1043E00081EE94E0215080409040E1F700C0000051
:1043F00067E4E1CF8CEF8C0F813A80F4E0E8F3E0E2
:1044000086E893E02191C217A1F18E179F07D1F79B
:104410006C2F8EE793E00E941028D1CF80E28C0FA2
:10442000883068F4C77081E090E001C0880FCA95B9
:10443000EAF79091D603892B8093D603C0CFEBE5A2
:10444000EC0FE33040F4F0E0ED50FE4F808190E05F
:10445000CF910C944028C85AC73198F4EC2FF0E063
:10446000EE0FFF1FEA50FE4F80819181CF910C9497
:104470002A286C2F8EE793E00E9403280E949E2634
:10448000C7CFCF9108951F93CF93DF93182F893310
:1044900019F0C9E1D0E002C0C0E5D0E0812F0E9450
:1044A000A7218FE99FE00197F1F700C00000219755
:1044B000C1F7812FDF91CF911F910C94502180E0A3
:1044C000089590912E0292FF0DC0282F2871283058
:1044D00019F4877F846006C0282F2471243011F4DA
:1044E0008B7F886093FF0DC0282F2871283119F425
:1044F000877E846106C0282F2471243111F48B7EBD
:10450000886120912F0220FF0DC0382F387138307C
:1045100019F4877F816006C0382F3171313011F472
:104520008E7F886021FF0DC0282F2871283119F453
:10453000877E816106C0282F2171213111F48E7E82
:10454000886194FD877E0895F894E82FE295EF70D6
:10455000F0E031A1282F2F7081E090E001C0880F9A
:104560002A95EAF7982F9095932391A392A1892BEE
:1045700082A378940895CF93DF938238910569F1EF
:10458000B0F48133910509F46FC048F48932910584
:1045900009F465C08A32910509F46BC08AC085337D
:1045A000910509F457C089339105B9F082C0833E63
:1045B000910571F138F4803E9105B1F0823E91058C
:1045C00011F177C0863E9105B9F1873E9105C9F199
:1045D000843E910509F06DC024C020912E0220FD7B
:1045E00053C021FD51C065C080912E0280FD46C0A0
:1045F00080912F0280FF48C080912E0284FD3FC130
:1046000083EE90E03EC180912E0282FF3AC0F4CF4B
:1046100080912E0282FD35C080912F0280FD34C032
:10462000EBCF80912F0281FF35C080912E0284FD57
:1046300026C187EE90E025C180912E0283FF27C01E
:10464000F4CF80912E0283FD22C080912F0281FD44
:1046500021C0EBCF80912E0285FD1FC021C080912B
:104660002E0285FD1DC019C080912E0286FD1BC043
:104670001DC080912E0286FD19C015C089E390E00F
:1046800000C182EE90E0FDC080EE90E0FAC086EEC0
:1046900090E0F7C084EE90E0F4C089E290E0F1C0D1
:1046A00085E390E0EEC08AE290E0EBC081E390E029
:1046B000E8C0811532E5930708F069C0811541E52E
:1046C000940728F0982F8827816F906ADAC0883E77
:1046D000910568F5803E910508F0D3C0883A9105B0
:1046E000B8F4853A910548F0855AE82FF0E0ED508E
:1046F000FE4F808190E09064C4C08130910509F440
:10470000BBC008F4BCC08430910508F4B8C0B9C07F
:104710008F3B910508F0B3C0885AE82FF0E0EE0F08
:10472000FF1FEA50FE4F808191819464AAC08115D9
:1047300020E59207F0F09C0174E0369527957A9574
:10474000E1F7922F9370482F437021E030E002C0D0
:10475000220F331F4A95E2F73C68392B8F70982F50
:104760009695969540E2949FC0011124822B932B3D
:1047700088C0811530E4930718F09F70906A81C05B
:104780009C013A9521153F4108F47BC078C0EC01AB
:10479000C11586E5D807E8F5C11525E5D20748F02B
:1047A0008C2F0E9461228F7190E0982F8827906251
:1047B00068C0C11534E5D30728F09C2F8827846F83
:1047C000906A5FC0AE01437055272C2F2695269521
:1047D000C115D34578F481E090E002C0880F991F9D
:1047E0004A95E2F740E2249F90011124822B932BFB
:1047F0009C6847C081E090E002C0880F991F4A95ED
:10480000E2F740E2249F90011124822B932B9A68B7
:1048100038C0C1152AE5D207F8F4C11539E5D30728
:1048200090F08C2F8F700E94612294E0D695C795EE
:104830009A95E1F7CF70D0E0DC2FCC27D0699E01AC
:10484000282BC9011EC0C11548E5D407C0F09C2F14
:104850008827806F906A15C0CE01905681159042CE
:1048600070F48D2F8F710E946122282F2F71CE013D
:1048700099279062922B05C081E090E002C080E011
:1048800090E0DF91CF910895CF9384E090E00E9473
:104890002935C82F82E290E00E9429352C2F30E084
:1048A000A901582BCA01CF91089580E090E00E94A1
:1048B00031358A3E9E4F11F40C94B32C80E008955C
:1048C0006AEE7EEF80E090E00E94653560E082E075
:1048D00090E00E94473560E083E090E00E94473519
:1048E0001092650560E084E090E00E94473560E04A
:1048F00082E290E00E94473560E085E090E00E940F
:10490000473560E086E090E00E9447356FEF87E032
:1049100090E00E94473540E050E0BA0188E090E026
:104920000E94593560E08DE090E00E94473540E0FC
:1049300050E0BA0188E190E00E94593560E087E1DB
:1049400090E00E94473540E050E0BA018CE190E0F1
:104950000E94593560E070E080E290E00E94653589
:1049600040E050E0BA0188E190E00E94593580E0D3
:104970000E94862C0E94A42C40E050E0BA018FE0F7
:1049800090E00E94593540E050E0BA0183E190E0A8
:104990000C9459358091D903882331F01092D903B2
:1049A0001092D8031092D703089580959091D60362
:1049B00089238093D6030895CF93C0912F02C2FB21
:1049C000992790F9981781F080FBC2F9C0932F02C4
:1049D00060912E0284E090E00E9447356C2F82E2C5
:1049E00090E0CF910C944735CF9108951092D30366
:1049F0001092D2031092D10308952091D303809591
:104A000082238093D303982F977041F430E0482F8E
:104A1000082E000C550B2417350721F490912F0216
:104A200092FF07C08595859585950E947E200C9400
:104A3000F62408958091D00381111092D003089537
:104A40008091CF0390918E03891719F08F5F877043
:104A5000FBCF08951F93CF93DF9380918B038295B3
:104A60008F7009F05CC080918803882309F457C0D7
:104A70008091CF0310918E0360918603709187031C
:104A8000C0918903D0918A0391E06F3F09F090E0D3
:104A9000292F811709F443C0209721F07F3F21F08F
:104AA00030E003C031E001C0322F90E030FD34C06F
:104AB000FC0133E0EE0FFF1F3A95E1F7DF01A1574C
:104AC000BC4F11963C911197371326C03C91361379
:104AD00023C012963C91129731111EC013964D912E
:104AE0005C9114974C1B5D0B483C5105A8F48091D8
:104AF0008B038F70806180938B03EC56FC4F808119
:104B00008F708061808386E893E00E941B12DF91A2
:104B1000CF911F910C94202501968770BACFDF9119
:104B2000CF911F9108958F929F92AF92BF92CF9293
:104B3000DF92EF92FF920F931F93CF93DF93CDB746
:104B4000DEB728970FB6F894DEBF0FBECDBFAE011B
:104B50004F5F5F4F7A0188E0DA011D928A95E9F78D
:104B60000DE111E06A01AA24A394B12CF80180811F
:104B70008F3F09F44DC0F894E82FE295EF70F0E014
:104B800021A18F70A50102C0440F551F8A95E2F73D
:104B9000CA01922F982B91A392A18095892382A379
:104BA000789400C0E1E2F1E020E030E0812C912C2B
:104BB00081918F3FC1F0A82FA295AF70B0E0909681
:104BC0004C9150E08F70DA0102C0B595A7958A9597
:104BD000E2F7A0FD08C0C501022E02C0880F991F90
:104BE0000A94E2F702C080E090E0882A992A2F5FB9
:104BF0003F4F2B303105E1F6F80180818F3F11F0F6
:104C00000E94A422F0EAFA95F1F7D6018D929C92C7
:104C10000F5F1F4FB2E0CB0ED11CE1E001321E0747
:104C200009F0A4CF48E050E0B70180E392E00E9491
:104C3000A43511E0009709F410E0892B89F088E091
:104C4000F701A0E3B2E001900D928A95E1F781E0CF
:104C50008093DC030E94CE279093DB038093DA03DA
:104C60008091DC03882351F18091DA039091DB037A
:104C70000E94B327059710F1809130029091310284
:104C800090934203809341038091320290913302CA
:104C900090934403809343038091340290913502B2
:104CA000909346038093450380913602909137029A
:104CB00090934803809347031092DC038091100186
:104CC000882341F18091DC049091DD04009711F17B
:104CD0000E94B327209136043091370428173907F2
:104CE000C8F49091DA048091DB04981759F00E947F
:104CF0000E2910923704109236041092DD0410929F
:104D0000DC0408C00E9490281092DD041092DC049C
:104D10000E94EF28812F28960FB6F894DEBF0FBEB1
:104D2000CDBFDF91CF911F910F91FF90EF90DF905A
:104D3000CF90BF90AF909F908F9008959091D603A1
:104D40008091D503892B9091D403892B80937E0386
:104D50008091D903882311F10E94CE272091D70397
:104D60003091D803821B930B8838934110F00E9436
:104D7000CA2490917E038091D903892B80937E036E
:104D8000E0E8F3E097E080E0915029F021912223C0
:104D9000D9F38F5FF9CF81110E94CA24E091E0041A
:104DA000F091E104309731F00280F381E02D8EE73D
:104DB00093E00994089590912F0292FD10C098E01D
:104DC000899F90011124262B2093D3030E948A20CF
:104DD0000E94CE279093D2038093D10308950C9420
:104DE0008A2080914C03089524E02093E9002FEF5E
:104DF0003091E800215035FD06C035ED3A95F1F7C8
:104E000000002111F5CF2091E80025FF0BC040E004
:104E100050E066E070E00E948E1D8091E8008E7781
:104E20008093E8000895CF93DF9321E02093E90079
:104E30002FEF3091E800215035FD06C035ED3A9551
:104E4000F1F700002111F5CF2091E80025FF14C0F3
:104E5000EC0140E050E068E070E00E948E1D80911F
:104E6000E8008E778093E80088E0FE01ADE4B3E0CF
:104E700001900D928A95E1F7DF91CF91089590917D
:104E80006003943029F58093E9047093EB046093F8
:104E9000EA049093E9008FEF9091E800815095FD2E
:104EA00006C095ED9A95F1F700008111F5CF80913C
:104EB000E80085FF0DC040E050E063E070E089EE5F
:104EC00094E00E948E1D8091E8008E778093E80028
:104ED000089581E08093E00080E28093D8001092F2
:104EE000C9008FE19EE40197F1F700C0000087E060
:104EF00090EBDC018093660590936705A0936805AD
:104F0000B09369059CE088E10FB6F894A89580936A
:104F100060000FBE90936000FFCF78941F920F92B5
:104F20000FB60F9211248F939F93AF93BF938091ED
:104F3000E5049091E604A091E704B091E80401969D
:104F4000A11DB11D8093E5049093E604A093E704AE
:104F5000B093E804BF91AF919F918F910F900FBED6
:104F60000F901F9018959C014FB7F8948091E5041D
:104F70009091E604A091E704B091E8044FBF821B32
:104F8000930B08952FB7F8946091E5047091E604AF
:104F90008091E7049091E8042FBF08952FB7F8940B
:104FA0008091E5049091E604A091E704B091E804B3
:104FB0002FBF08951F920F920FB60F9211248F9357
:104FC0009F93AF93BF938091E404811113C08091AC
:104FD000E5049091E604A091E704B091E8044196BD
:104FE000A11DB11D8093E5049093E604A093E7040E
:104FF000B093E804BF91AF919F918F910F900FBE36
:105000000F901F9018959C012A5F3F4FFC01428131
:10501000461301C01282019682179307B9F70895CB
:105020009C01FC0132969FEF80E04191461789F088
:105030009F3F19F4411101C0982F8F5F8630A9F767
:105040009F3F39F0F901E90FF11D97FDFA95628351
:10505000089508952091E2043091E3042817390758
:1050600071F09093E3048093E204E091E004F09106
:10507000E104309721F00084F185E02D0994089532
:105080002091DE043091DF042817390771F09093E6
:10509000DF048093DE04E091E004F091E1043097B6
:1050A00021F00680F781E02D09940895E091E00455
:1050B000F091E104309721F00190F081E02D099406
:1050C00080E00895BC014091DA048091DB04942FC4
:1050D000981729F1292F30E0F901EE0FFF1FEE524A
:1050E000FB4F0190F081E02DE617F70799F487E078
:1050F000869FF001879FF00D1124E656FB4F81E05B
:10510000848394130CC02F5F3F4F23703327209369
:10511000DA0408952F5F3F4F922F9370D9CF0895EF
:105120000F931F93CF93DF9380913904882309F461
:1051300051C0C09138041CE080913904C81708F0B0
:1051400045C001E00C0F00933804D0E01C9FF00133
:105150001D9FF00D1124E65CFB4F9081818123811E
:105160003481232B31F08F3F31F481E09F3F19F4DC
:1051700003C081E001C080E080FD26C01C9FD001FB
:105180001D9FB00D1124A65CBB4F16968D919C916E
:105190001797892B31F418968D919C911997019648
:1051A00051F42081318142815381648175818681EE
:1051B00097810E94A4201C9FF0011D9FF00D1124D7
:1051C000E65CFB4F14821382C02FB6CF10923904D5
:1051D00010923804DF91CF911F910F910895109292
:1051E000370410923604EAE9F4E08581811102C0A7
:1051F00014821682379684E0E23DF807B1F70895ED
:105200001092DD041092DC04109210018091DB04F6
:105210008093DA040E94EF280C9490283F924F92DA
:105220005F926F927F928F929F92AF92BF92CF9236
:10523000DF92EF92FF920F931F93CF93DF93C09172
:10524000DA0497E0892E01E010E02CE0322E3EEFE8
:10525000932E442443948091DB04C81709F478C04A
:10526000D0E0FE01EE0FFF1FEE52FB4F80819181D7
:10527000889ED001899EB00D1124A656BB4F14966E
:105280002C911497211161C050903904EAE3F4E0A5
:1052900020E030E0712C5D01251508F054C0E28457
:1052A000F384D501CD90DC906FEF7FEF612C462D1C
:1052B00050E0DA01AA0FBB1FAC0DBD1D0D90BC91D3
:1052C000A02D109731F0EA16FB0609F4BA01639499
:1052D000EECF6F3FBFEF7B0791F1D80102C0AA0F5D
:1052E000BB1F6A95E2F77A2AB80102C0660F771FE2
:1052F0006A94E2F7AB0141505109672D70E04617FF
:105300005707D9F4329EF001339EF00D1124E65C6C
:10531000FB4F889ED001899EB00D1124A656BB4F2D
:1053200012962D913C911397378326839082918218
:105330009187808715964C9206C0148213822F5F46
:105340003F4F3C96A9CF0E9462282196C37083CF1D
:105350000E949028DF91CF911F910F91FF90EF90C5
:10536000DF90CF90BF90AF909F908F907F906F9085
:105370005F904F903F900C94EF280F931F93CF9323
:10538000DF93C42FD22FFC0182818823C9F0409380
:1053900035040E94CE27909334048093330480E236
:1053A0008C0F883008F057C0C77081E001C0880FAB
:1053B000CA95EAF7DF91CF911F910F910C94462186
:1053C00080913504481330C08091330490913404A7
:1053D0000E94B327883C910538F510E21D0FCD17C8
:1053E000B9F080E28C0F883040F4C77081E001C0D2
:1053F000880FCA95EAF70E943F21183028F581E00E
:105400009D2F977001C0880F9A95EAF70E94462158
:10541000802F0E9443221830F0F4D77081E001C041
:10542000880FDA95EAF70AC080E28C0F883098F48A
:10543000C77081E001C0880FCA95EAF7DF91CF916C
:105440001F910F910C943F21802FDF91CF911F91DD
:105450000F910C944322DF91CF911F910F910895EA
:10546000CF93DF93C7E5D2E060E0CE010E944735DD
:105470002196C11584E0D807B9F7DF91CF9108953F
:105480000F931F93CF93DF93853068F5623058F503
:10549000423048F521159CE5390731F4E0912D049F
:1054A000F0912E04EF2BF9F08901282F34E0639F4F
:1054B000C001112438E0239F800D911D1124840F19
:1054C000911D840F911DEC01C152DE4F612FCE0161
:1054D0000E944735602FCE010196DF91CF911F9139
:1054E0000F910C944735DF91CF911F910F91089543
:1054F0000F931F93CF93DF93853018F5623008F533
:105500004230F8F4282F34E0639FC001112438E0C2
:10551000239F800D911D1124840F911D840F911DD7
:10552000EC01C152DE4FCE010E94293590E0182FC8
:105530000027CE0101960E9429359801282BC90128
:1055400002C080E090E0DF91CF911F910F9108950C
:105550000F931F93CF93DF93853058F5643048F550
:105560004B3038F521159CE5390731F4E0912D04D5
:10557000F0912E04EF2BE9F08901C42FD0E0CC0F7D
:10558000DD1F96E1699FC00DD11D112498E5899F0B
:10559000C00DD11D1124612FCE0187960E94473581
:1055A000602FCE018896DF91CF911F910F910C94BF
:1055B0004735DF91CF911F910F9108954F925F92E0
:1055C0006F927F928F929F92AF92BF92CF92DF9213
:1055D000EF92FF920F931F93CF93DF93CDB7DEB778
:1055E0002A970FB6F894DEBF0FBECDBF60902D0492
:1055F00070902E0481E090E090932E0480932D040F
:1056000098E8C92E95E0D92EA12CB12C512C412C13
:10561000E12CF12C00E010E047018A0C9B1CF80102
:10562000EE0FFF1FE80DF91DE055FA4F259134915B
:10563000402F642D852D0E94A82A0F5F1F4F0B302D
:10564000110569F786E1E80EF11C439494E04912D4
:10565000E1CF760110E0F7012591349140E0612F10
:10566000852D0E94402AF70132962591349141E020
:10567000612F852D0E94402AE4E0EE0EF11C1F5F91
:10568000123049F7F8E0CF0ED11C539488E5A80EEC
:10569000B11C95E05912BBCFFE0131967F018AE023
:1056A00011928A95E9F707E012E04AE050E0B8016C
:1056B000C7010E946B35065F1F4F0735F2E01F07D9
:1056C000A1F770922E0460922D042A960FB6F894DA
:1056D000DEBF0FBECDBFDF91CF911F910F91FF9025
:1056E000EF90DF90CF90BF90AF909F908F907F9082
:1056F0006F905F904F9008950F931F93CF93DF9318
:10570000853008F56430F8F44B30E8F4C42FD0E06D
:10571000CC0FDD1F26E1629FC00DD11D112438E59D
:10572000839FC00DD11D1124CE0187960E9429357B
:1057300090E0182F0027CE0188960E942935980105
:10574000282BC90102C080E090E0DF91CF911F912A
:105750000F910895462F2091310430913204232B6C
:1057600091F47E3F39F46E3F71F480912F04909153
:1057700030040895853038F4743028F46B3018F410
:10578000672F0C947C2B80E090E00895CF92DF92FD
:10579000EF92FF920F931F93CF93DF93CDB7DEB7B6
:1057A0002A970FB6F894DEBF0FBECDBF80E5EDEDB2
:1057B000F3E0DF011D928A95E9F788E3EAE9F4E076
:1057C000DF011D928A95E9F78DEDC82E83E0D82E72
:1057D0007F0107E012E0F701D182C0824AE050E089
:1057E000B801CE0101960E94193588E0FE0131967C
:1057F000D60101900D928A95E1F789859A85D701A6
:1058000013969C938E931297BAE0CB0ED11CE7E0CF
:10581000EE0EF11C065F1F4F0735F2E01F07D9F6A9
:105820002A960FB6F894DEBF0FBECDBFDF91CF91A1
:105830001F910F91FF90EF90DF90CF900895EDEEC4
:10584000F4E095E0E536F90729F08183608342832F
:105850003396F7CF0895FC01EE0FFF1F8E0F9F1FA9
:10586000FC01E351FB4F6183408322830895E5E609
:10587000F3E0248130E1231B08F420E0248381E05D
:105880008093EC040895E5E6F3E0248130E1230FF2
:1058900008F42FEF248381E08093EC040895E42F33
:1058A000F0E0EE0FFF1FE558FE4F9081921B97FD31
:1058B0009195292F38E1239F212D1124620F0895FE
:1058C000809A81B38E7F91B391602FB7F894EDEEFB
:1058D000F4E035E0E536F30789F0319148E091BB1B
:1058E000000000C037FF81BB330F000000C000C0C4
:1058F00000C081BB00C04A9591F7EBCF2FBF8FE569
:1059000094E00197F1F700C000000895CF93C82FED
:10591000811102C06FEF01C069EF83E290E00E9445
:105920004735C11102C06FEF01C064E584E290E029
:105930000E944735C11102C06FEF01C064E285E2E9
:1059400090E0CF910C94473580E00E94862C60E077
:1059500086E290E00E9447350E94DE2A0E94302AAB
:1059600081E00C94862C83E290E00E942935893FE7
:1059700081F484E290E00E942935843551F485E277
:1059800090E00E94293591E0843209F090E0892F5F
:1059900001C080E081700895882311F0FA0101C0F0
:1059A000FB01099490916503937071F080936603F5
:1059B000609367034D3308F04CE340936803809194
:1059C000EC04282B2093EC040895E5E6F3E04381F2
:1059D00020E1421B08F440E0818121E0628190E0F7
:1059E0000C94D22CE5E6F3E0438120E1420F08F469
:1059F0004FEF818121E0628190E00C94D22CE5E6AA
:105A0000F3E0628120E1621B08F460E0818121E023
:105A1000438190E00C94D22CE5E6F3E0628120E132
:105A2000620F08F46FEF818121E0438190E00C94D4
:105A3000D22CE5E6F3E0818190E021E043816281B0
:105A400008970C94D22CE5E6F3E0818190E021E008
:105A50004381628108960C94D22C909165039370D7
:105A6000A1F0811102C0946007C08C3010F09C62DC
:105A700003C0880F880F982B909365031092110133
:105A80008091EC04682B6093EC0408958091650389
:105A900086958695815009F48BE061E00C942D2D5C
:105AA00080916503869586958F5F8C3008F081E044
:105AB00061E00C942D2D0C941F2C0C942B2C46E0A3
:105AC00050E06CE170E085E693E00C943735E5E654
:105AD000F3E085E0808380911A0190911B01A091F1
