:100000000C9464040C94AB040C94AB040C94AB04FB
:100010000C94AB040C94AB040C94AB040C94AB04A4
:100020000C94AB040C94AB040C940F250C944B244F
:100030000C94F11A0C94AB040C94AB040C94AB0428
:100040000C94AB040C94AB040C94AB040C94AB0474
:100050000C94AB040C94A41A0C94AB040C94AB0455
:100060000C94AB040C94AB040C94AB040C94AB0454
:100070000C94AB040C94AB040C94AB040C94AB0444
:100080000C94AB040C94AB040C94AB040C94AB0434
:100090000C94AB040C94AB040C94AB040C94AB0424
:1000A0000C94AB040C94AB040C94AB04900BAC0B11
:1000B000B30BEB0BFC0B070C170C2A0C6D0C720C22
:1000C000CC0CCC0CCC0C7A0C0A0D150D3F0D7B0D15
:1000D000C00D090E6B0EB90E000F030F080FBB0FFA
:1000E0005310BB10B216BD16C216C716CC16D116C9
:1000F000D616DB16E016E516EA1670177017A91764
:10010000A9171A185519551955193818AC18BD18CA
:10011000BD1853227A222D247A222D24C622E922C8
:100120002D24EA23FA23CF26CF26E226E226D8265C
:10013000E226E226E226CF26CF26DD26E226E226AA
:10014000DD26FD377A585A000004E6D6B446020090
:10015000210116000000742FE5A3E008BA02385D03
:10016000003D8889C65436C3174FE4EF0A3F668DB9
:10017000D105C145CE66B4E8DF851F2CF59EBB4195
:10018000D912F17F204F73672F9AC243D74C5B651A
:10019000441319B1B3BC75E34629A966D74C1C5E5C
:1001A000426C60D242D95195BCFAC18D306CE69E4A
:1001B000B06A07247A2A185A1E9B96F1D7C773FB98
:1001C00008189FE9E151A0F5BBC6642ADE77E386F3
:1001D0002382C220049FD4A629BD9E7F2A24653C89
:1001E000396A42E0B4E0B2F0E3A53B49E7214AD5E1
:1001F0008BC2A4926DE8E977E9287FBBF9591258C0
:10020000A5D7DA898EB25E865164DFF07CDF9AFE74
:100210003A6FAB0686ABB537157AD471F220C3A31B
:10022000E22C35551E4F75FF6930DF598A10F4995D
:100230001195BA89E5CE8D1D9CA14BFCC7CC2A87B0
:100240007A0C49CAA2FE744A34F9E6110848C0FC87
:1002500049AA1F1C760E2CF67806B533C6DB3C097E
:10026000F74E6055D9C3AB5E505EBE825594872D64
:1002700041987240AA937EBD325B7FF063EE6103CA
:100280001939C5B8659BE404D372C17114A1762CE9
:10029000E14E80B545BB1BD8902CDE0A998E73FCCD
:1002A0006A2426F8F5281B86C40C8926B0EE7E51F8
:1002B000191FB3707D56BD46F6D5B5754B46EC0596
:1002C0001DFC5882A9510BCF8E62BD47D8A29B78E6
:1002D000CE6FAF61A4874EFEB6C955F1992D5EB7BA
:1002E0004774905DE2F3A887DEA97EA9756BB2E042
:1002F0004F3FA86C2BF2185C84AE393011BC88B427
:100300001E6CF1CC664F0A1BFAA75CB59205D0991A
:1003100053A3E27333E397211A3701F0EBB8D4BC4F
:1003200071C43737F8A7CE1B13949E23C25F7D4359
:1003300092E0E7FF3283CBEFB74EB455BEA4B4F3DF
:10034000838FE16777DD8B4B26DAA5DF8D39535339
:1003500092C9A38DC15CF9E5EEC6D302A272C6694B
:1003600009EEB6E80EE4F12C09013DE24E6F178963
:1003700011C4D70ED7BD570B73AB7FFC76D1D59F79
:1003800002F83AF5C936B0FD658C11FB9AF7755D38
:10039000C7217C7FFE7B59550600AEF9057FEBF542
:1003A0002ACB0001D404BB110000F82CED68B1C4C5
:1003B00067FB020000000004595A00000000010021
:1003C0000D0002000100030002000400030005000C
:1003D000040011000500120006001A0007001B00AF
:1003E00008001C0009001D000A001E000B00200070
:1003F0000C000000000000000000000000000000F1
:1004000000000000000000000000000000000000EC
:100410000000000000007E0F00D4FFFFFFC70000B7
:10042000007800000000000000002A2B28000000D7
:100430000000000000000000000000000029000093
:1004400000002C1E3420212224342627252E362D70
:100450003738271E1F202122232425263333362E0A
:1004600037381F0405060708090A0B0C0D0E0F107C
:100470001112131415161718191A1B1C1D2F3130C1
:10048000232D350405060708090A0B0C0D0E0F1065
:100490001112131415161718191A1B1C1D2F3130A1
:1004A000354C14001A000800150017001C00180035
:1004B0000C00120013000000046116680764096252
:1004C0000A000B000D720E740F78337100001D00CE
:1004D0001B0006001900050011001000360037004F
:1004E0003800A800015302530151280034002A00AB
:1004F0002C000251035304532A011E021F02200242
:1005000021022202230224022502260227020000E1
:100510002900010001000100010001002D022E024E
:100520002F023002000039003502010001000100F5
:10053000010001000100310234020100010001004C
:100540000100010001004C00010003510100010005
:1005500001001E001F0020002100220023002400B3
:1005600025002600270000005000510052004F00D7
:100570002B0001002D002E002F0030000000E000B5
:100580003500E300E200010001000100010031003C
:1005900034000100010001000351010001000100CD
:1005A00001000100010001000100C25CC45CC35CE9
:1005B000010010503A003B003C003D003E000000AE
:1005C000CB5CC55CC75CC95C01003F0040004100DA
:1005D000420043000000CC5CC65CC85CCA5C010001
:1005E0004400450001000100005C01000100010021
:1005F00001000100010001000100010001000100F3
:1006000001000100010001000100010001000100E2
:1006100001000100010000000100010001000100D3
:1006200001000100010001000100010000000100C3
:1006300001000100010001000100010001000100B2
:1006400001000100010001000100010001000100A2
:100650000100010001000100010005010980A10164
:10066000850319012AB700150126B70095017510F9
:100670008100C0050C0901A101850419012AA0020D
:10068000150126A002950175108100C00660FF09C2
:1006900061A1010962150026FF00952075088102FD
:1006A0000963150026FF00952075089102C0050119
:1006B0000906A101050719E029E71500250195089C
:1006C000750181029501750881010507190029FF4F
:1006D000150026FF009506750881000508190129F7
:1006E00005950575019102950175039101C00902F7
:1006F0005B00030100A0FA090400000103010100EE
:100700000921110100012240000705810308000AA8
:100710000904010002030000000921110100012267
:1007200022000705820320000107050303200001C2
:100730000904020001030000000921110100012247
:1007400032000705840320000A12010002000000A5
:1007500008FEFE50580100010203011C03760069E7
:100760000061006C003A006600360034006300321D
:100770000062003300630000002C0373006100641A
:100780000065006B006200610072006F007500641C
:1007900000690020006200610072006F0062006F5B
:1007A000007200640000001A0373006100640065B9
:1007B000006B006200610072006F007500640069E8
:1007C000000000040309040001010101010101010D
:1007D00001020202020202020202030303030303F4
:1007E00003030404040404040405050505050606C2
:1007F0000606060707070707080808080909090980
:100800000A0A0A0B0B0B0C0C0C0D0D0D0E0E0E0F25
:100810000F0F1010111111121213131414151516B5
:10082000161717181819191A1A1B1B1C1D1D1E1E26
:100830001F20202122222324242526262728292977
:100840002A2B2C2D2D2E2F303132323334353637A2
:1008500038393A3B3C3D3E3F4041424344454647A0
:1008600048494A4C4D4E4F50515354555658595A79
:100870005B5D5E5F616264656668696B6C6D6F701D
:1008800072737577787A7B7D7E8082838587888A8C
:100890008C8E8F91939596989A9C9EA0A2A3A5A7C3
:1008A000A9ABADAFB1B3B5B7BABCBEC0C2C4C6C9BF
:1008B000CBCDCFD1D4D6D8DBDDDFE2E4E7E9EBEE78
:1008C000F0F3F5F8FAFDFF0011241FBECFEFDAE0D8
:1008D000DEBFCDBF04B603FE27C0809158059091BE
:1008E0005905A0915A05B0915B058730904BA74000
:1008F000B04BD1F4109258051092590510925A0538
:1009000010925B0514BE84B7877F84BF0FB6F8943E
:10091000A8958091600088618093600010926000CB
:100920000FBEE0E0F8E3099512E0A0E0B1E0E2E8F4
:10093000F3E602C005900D92AC31B107D9F725E07E
:10094000ACE1B2E001C01D92A835B207E1F70E9408
:10095000AD040C94BF310C940000CF93DF93CDB75E
:10096000DEB7E6970FB6F894DEBF0FBECDBF84B7F3
:10097000877F84BF0FB6F894A89580916000886146
:1009800080936000109260000FBE90E080E80FB688
:10099000F89480936100909361000FBE85B78068E2
:1009A00085BF85B7806885BF81ED9AE290931D026F
:1009B00080931C020E94CD1E0E948F240E94AE24B0
:1009C0008091E20084608093E20078948091DA0460
:1009D0008823A1F01091E9001F709091EC00892FFD
:1009E000817090FD80E8182B1092E9008091E8005A
:1009F00083FD0E946D211F701093E90082E084BD89
:100A000093E095BD9AEF97BD80936E000E94531FAF
:100A1000811102C00E94441F01E211E055E2E52E5F
:100A200051E0F52ED8018D918D018F3F11F00E947C
:100A3000162BE016F106B1F705E211E040E3E42ED3
:100A400041E0F42EF80181918F018F3F11F00E9457
:100A5000162BE016F106B1F7109221021092200237
:100A60001092360310923503109223021092220244
:100A7000109238031092370310922502109224022C
:100A800010923A0310923903109227021092260214
:100A900010923C0310923B030E94D22D811102C0A0
:100AA0000E94DD2D82E090E00E94C4308093B0026D
:100AB0000E94C12D90931F0280931E020E942D2B35
:100AC0008FE39CE90197F1F700C000000E942D2BF5
:100AD0008091350380FF08C06FEF7FEF80E090E0EA
:100AE0000E9400310E94801A83E090E00E94C4308E
:100AF0000E941C2910928602EFE9F2E08FEA92E050
:100B00002FEF3FEF219331938E179F07D9F7109264
:100B10002902E2E4F2E082E592E02FEF3FEF219339
:100B200031938E179F07D9F70E94D22D811104C0EF
:100B30000E94DD2D0E94192046E050E06CE170E03B
:100B40008FED94E00E94B4308091DF048C7F11F42B
:100B50000E9419201092280284E091E09093B90439
:100B60008093B8048091DA04853009F048C030E4FD
:100B7000F32E00E112E18091DA04853009F03BC0E8
:100B80008091DA04843019F11092BC04A8E1B0E03D
:100B90000FB6F894A895A09360000FBEF092600085
:100BA00083B7817F846083BF83B7816083BF78947C
:100BB000889583B78E7F83BF0FB6F894A8958091F0
:100BC0006000886180936000109260000FBE809189
:100BD000D004882309F4CFCF0E942D2BE5E3F3E066
:100BE00081919191892B09F0DCC62DE333E02E171A
:100BF0003F07B1F7C0CF0E9420290E946D1B0E94C1
:100C00002D2B81110E94D91AE5E3F3E0A1EBB2E0AC
:100C1000C12CD12C0C2DA190B1908D919D918A2544
:100C20009B25009709F451C110E0EE24E394F12CC8
:100C30009C012E213F21232B09F441C11BA70CA7A6
:100C4000AE20BF2081E0A114B10409F480E08DA79B
:100C50000E94E51A8160782F9FA78EA74BA55CA5FF
:100C60006DA58FA50E94D911F601EE0FFF1FEF545D
:100C7000FD4F80819181E826F926F182E082AB2840
:100C800049F0AE014F5F5F4F612F802F0E94FF1F21
:100C9000982E01C0912CE92CF12C80912902B701EA
:100CA000680F711D693071056CF188E090E05C019E
:100CB000AE18BF08B701665D7D4FA5018AE292E0DC
:100CC0000E94AF31B7016E5C7D4FA50182E392E0D7
:100CD0000E94AF31A501440F551FB701660F771F62
:100CE0006E5B7D4F82E492E00E94AF31B701665C9B
:100CF0007D4FA5018AE392E00E94AF3188E0891917
:100D000080932902F0902902CE0101965C0160E0F7
:100D1000862F8F0D961649F190E0D5017D915D01EA
:100D2000272F30E0DC01A75DBD4FA901440F551FFF
:100D300045595E4FFA01408111964C931197220F4D
:100D4000331F215C3E4FF90125A519962C93199765
:100D500051967C93880F991FDC01A75DBD4F5A9671
:100D60001C921E9259976F5FD3CF80932902809176
:100D7000DF048C7F883209F0C0C0AFEFA00FFF24E2
:100D8000F394F00E3FEF310F21E0210F311780F483
:100D90008BE08C9DF0018D9DF00D1124E65AFD4FE6
:100DA000E30FF11D408150E1450F08F44FEF408300
:100DB000412F50E07BE07C9DC0017D9D900D112472
:100DC000865A9D4FFC01E40FF51F7081B0E26B2F36
:100DD000760F08F47FEF70832B3051F0FC01E20FA7
:100DE000F11D708180E1682F760F08F47FEF70832A
:100DF00074E0F71609F431C0EF2CF12C311788F4A8
:100E00008BE08E9DF0018F9DF00D1124E65AFD4F71
:100E1000E30FF11D80819DE0BC01670F08F46FEFC7
:100E20006083EBE0EE9DC001EF9D900D1124865A8A
:100E30009D4FFC01E40FF51F608170E1670F08F41E
:100E40006FEF60832B3049F0FC01E20FF11D6081F0
:100E50007DE0670F08F46FEF6083A01708F04DC0C6
:100E6000B0E0311780F48BE08A9FF0018B9FF00D8A
:100E70001124E65AFD4FE30FF11D30816DE0360F6E
:100E800008F43FEF30838BE08A9FF0018B9FF00DD9
:100E90001124E65AFD4FDF01A40FB51F3C9140E13C
:100EA000340F08F43FEF3C932B3039F1E20FF11D82
:100EB00020813DE0230F08F42FEF20831EC01F5F29
:100EC000EE0CFF1C1B3009F0B3CE8FEFC81AD80A06
:100ED00094E0C916D10409F09DCE8FEF88AB89ABA1
:100EE0001AAA0E94E51A8160782F9CAB8BAB48A9A7
:100EF00059A96AA98CA90E94D91180915202909196
:100F00005302A0915402B09155022FB7F894C090AB
:100F1000BD04D090BE04E090BF04F090C0042FBF89
:100F2000C81AD90AEA0AFB0A0E94D91A6093520227
:100F3000709353028093540290935502A09129021A
:100F4000E9E2F2E02A2F30E088248A94982CA12C40
:100F5000B12C8C189D08AE08BF08A31799F0418DDD
:100F6000528D2A01612C712C84149504A604B704B7
:100F700010F4215004C04C0D5D1D528F418F3F5F16
:100F80003296EBCF209329023091DF04232F237078
:100F900021F0B32EB694B69401C0B12C209110016B
:100FA0002130E1F030F02230E9F1233009F446C07D
:100FB00069C0109213016093DB047093DC0480938A
:100FC000DD049093DE0489E2E9E2F2E0A6E8B2E013
:100FD00001900D928A95E1F781E02DC090910F016B
:100FE000B9120DC0832F837090E040910E0150E044
:100FF00021E08417950709F420E0822F01C081E0E9
:101000008170809315018091E404909114019817E8
:1010100009F4E6C48093140140E060E080E00E949F
:10102000FB1FDEC4B0920F01832F837080930E01EB
:101030000E940C1A83E08093100124C080913E032B
:1010400081110E94112010923E034091DB045091C7
:10105000DC046091DD047091DE042FB7F894809178
:10106000BD049091BE04A091BF04B091C0042FBFF5
:10107000841B950BA60BB70B4097A105B10510F08B
:10108000109210010E946D1B9091AF02891721F000
:101090000E946D1B8093AF028091DA04843009F0C6
:1010A00061CD83E08093E9008091E80082FF5ACD12
:1010B0008091E80085FF23C00E94E42581111DC0B6
:1010C00000E2E02EF12C8E010F5F1F4F09C08091CE
:1010D000F100F80181938F01F1E0EF1AF10869F056
:1010E0008091E80085FDF3CF8091E8008B778093B5
:1010F000E8000E94E425882399F391E001C090E084
:101100008091E8008B778093E800992309F42ACD39
:10111000E0900904F0900A048981E114F10459F087
:101120008E3F09F039C49A819330A8F195509330DD
:1011300008F032C430C08B3009F4CFC248F5853096
:1011400009F485C0B8F4823009F442C030F481302B
:1011500009F020C41A8289E0BEC3833009F468C054
:10116000843009F017C44C816B818A810E948C1EE7
:101170009D8334C4873009F478C008F473C0883084
:1011800009F4EAC0893009F005C40E94112004C4A2
:10119000803109F4E4C18E010F5F1F4F813160F48B
:1011A0008D3009F47EC108F47AC18E3009F47DC116
:1011B0008F3009F4A5C1EEC3823109F4D5C108F41A
:1011C000D1C1833109F4FAC18E3F09F49DC2E2C353
:1011D0008A81823009F4FBC3833051F0813009F0F9
:1011E000D9C30E94D91A9B838C837D836E83D4C319
:1011F0008091070490910804892B09F4CDC3809154
:101200003503909136039B838C83809137039091B3
:1012100038039D838E838091390390913A039F8395
:10122000888780913B0390913C0399878A87B4C358
:101230008A81823009F0AEC36B817C818D819E8171
:101240000E949B3186E290E00E94E230A5C32D818E
:101250003E813227232732274C816B818A810E946D
:10126000BF1D9AC30E94F51D97C38A81813421F066
:10127000823409F43BC090C34B815C818091DF04D0
:10128000982F93704115510539F491111092100166
:101290008C7F8093DF041FC0911102C01092100157
:1012A0008C7F81608093DF042AEB33E062EF73E090
:1012B000F901329685919491F901A591B4914A175B
:1012C0005B0731F02C5F3F4F6217730789F780E0AF
:1012D00060E00E94CD1F8D818093E3048E8120E029
:1012E00048856F8190E00E94721F56C34B815C81DC
:1012F0008D8163E0869F900111242E3131050CF021
:101300004BC3DE011196FA01EE0FFF1FE40FF51F2C
:10131000E354FD4F20E030E090E02817390708F053
:101320003BC31396BA01620F731F6832710508F050
:1013300033C312966C911297608313966C91139736
:10134000618314966C9114976D3308F06CE362839B
:101350002F5F3F4F3396E1CF8A81823409F442C038
:1013600028F4803451F0813471F016C3833409F4C9
:1013700059C0843409F459C00FC381E08B831C82A7
:101380008CE38D8309C38091DF04982F9370B1F0B3
:101390008695869590E02AEB33E062EF73E0F901E1
:1013A0003296A591B491F901459154918A179B0702
:1013B00041F02C5F3F4F6217730789F790E080E0A0
:1013C00002C0942F852F9B838C838091E3048D83AF
:1013D0008091E0048E838091E1048F838091E20408
:1013E0008887DAC20B811C814EE150E06FEF70E01C
:1013F000CE0103960E94B8318AEB93E0DE0113968A
:101400002EE1FC01459154910417150728F4223070
:1014100018F04D935D932250049673E0823F970736
:1014200081F7BAC288E28B839CC18B8190E08832BD
:1014300091050CF0B1C2FC01EE0FFF1FE559FE4F04
:1014400020812B83FC01EE0FFF1FE15CFE4F25A5E1
:101450002C83FC01E554FE4F20812D832FEF2F8339
:101460002E836FE371E040E050E020E030E0FB01CC
:10147000E20FF31FE081F0E08E179F0719F44E830F
:101480002F838AC22F5F3F4F2B30310581F74F5F8B
:101490005F4F655F7F4F4430510539F77DC280E172
:1014A00036C281E08A8389EA16C2EA80FB80FE2484
:1014B000EF24FE24AC80B12C8DE1A816B10408F015
:1014C0006BC26801C701895A9D4F9601201B310BE1
:1014D0002A153B0508F060C2A9EAEA16A1E0FA065F
:1014E00028F40E94C430F601848303C0D601149608
:1014F0001C92BFEFEB1AFB0AEFEFCE1ADE0AE2CF27
:101500008091070490910804892B09F445C2EA8070
:10151000FB80FE24EF24FE24CC80D12CFDE1CF16ED
:10152000D10408F039C25801C701895A9D4F95016D
:10153000201B310B2C153D0508F02EC229EAE216BE
:1015400021E0F20628F4D50114966C910E94E23055
:10155000BFEFEB1AFB0AEFEFAE1ABE0AE5CF0E940F
:10156000471D1AC285E0D3C1EA80FB80FE24EF2428
:10157000FE24AC80B12CFDE1AF16B10408F00CC222
:101580006801C70187969601201B310B2A153B0580
:1015900008F002C228EBE21621E0F20630F40E94C5
:1015A000C430D60114968C9302C0F6011482FFEF6A
:1015B000EF1AFF0A2FEFC21AD20AE3CFEA80FB80AC
:1015C000FE24EF24FE24AC80B12C3DE1A316B1042F
:1015D00008F0E2C148EBE41641E0F40608F0DCC193
:1015E00088EB91E08E199F098A159B0508F4D4C1F8
:1015F000370167E2660E711C809107049091080420
:10160000892B11F0680160C0E0FE0FC0C70186960B
:101610000E94C43090E0982F88272D81822B81155D
:101620009C4531F48FEF8D8303C0C12CD12C03C0B6
:10163000CC24C394D12CC5018E0D9F1D450180FF84
:101640001BC081E0881A910855E0452E512C4C0EA4
:101650005D1E480C591CC3018A0D9B1D0E94C4309D
:10166000D2012C9130E0322F2227282B21153C4526
:1016700019F48FEFF2018083F801EC0DFD1D2FEFBF
:10168000CF01801B910B8815990508F0BBCF848191
:1016900090E0982F88273581832B81159C4511F484
:1016A000248325833296ECCF48EBE41641E0F40620
:1016B00028F4D60114966C910E94E230BFEFEB1A29
:1016C000FB0AEFEFCE1ADE0AC70187969601201BB0
:1016D000310B2A153B0540F35FC1809107049091BF
:1016E0000804892B09F458C1CE0101960E944326B3
:1016F000FFEF21EE34E0F15020403040E1F700C030
:1017000000000E94801A48C1EA818E2F90E08E303E
:10171000910508F041C1FC01EA5AFF4F0C94953144
:1017200088E0E6E1F1E0DE01919601900D928A9564
:10173000E1F780E2D8011D928A95E9F784E0898378
:1017400088E0FE01B196DE01159601900D928A9512
:10175000E1F781E08D8720C188E7898382E08A8371
:101760001B821C8219C18C8190E0982F88272B81C5
:10177000820F911D092E000CAA0BBB0B35E0880FC0
:10178000991FAA1FBB1F3A95D1F7AC01BD01405E5E
:101790005F4F6F4F7F4F481759076A077B0708F461
:1017A000FBC08837E2E09E07A105B10508F0F4C050
:1017B0004937F2E05F076105710520F048E752E024
:1017C00060E070E0481B590BBC016E5B7E4FC801A6
:1017D0000E94AB30E1C01B810C8140E0602F812F63
:1017E0000E948F1D99838A8341E0602F812F0E9480
:1017F0008F1D9B838C83D0C02E813F81322723276E
:1018000032274D816C818B810E94571DC5C040E2FB
:1018100050E06FEF70E0C8010E94B831809107047A
:101820008983EA821B821C821D8281E0D7C081E00D
:1018300090E090930A048093090482E390E09093EF
:10184000BC028093BB020E94E51A9093BA02809377
:10185000B902A2C0EF28B9F1809135039091360307
:101860009C01369527958170182F12238091B9021B
:101870009091BA020E94CA1A85369105F0F01123A0
:10188000E1F00E94E51A9093BA028093B902809128
:10189000BB029091BC0201979093BC028093BB0263
:1018A000892B89F410920A041092090481E090E0D7
:1018B000909308048093070406C082E390E090931D
:1018C000BC028093BB028091070489838091090444
:1018D0008A838091BB028B835FC0109208041092B0
:1018E00007045AC040E250E06FEF70E0C8010E9468
:1018F000B83152C08B81833061F0843061F1811145
:101900004BC080E2D8011D928A95E9F788E08A836E
:1019100043C06C81CE0181962AE0FC0111922A9588
:10192000E9F7683060F4FAE06F9FB0011124695F55
:101930007D4F4AE050E00E94B43080E001C08FEF5C
:1019400089838AE0FE01B196DE01129601900D9224
:101950008A95E1F721C06C818AE0FE013596DE01AF
:10196000919601900D928A95E1F7683070F42AE023
:10197000629FB0011124695F7D4F4AE050E0CE01C3
:1019800081960E94063180E001C08FEF89830E941A
:10199000CD1E02C08FEF8983CE0101960E9443269F
:1019A000E1C809BD19BD09B400FEFDCF8091D80082
:1019B0008F7D8093D8008091E00082608093E0006A
:1019C0008091E00081FDFCCF0E942029D4C886E2EE
:1019D00090E00E94C4301B821C821D828E83DCCF6B
:1019E0008B2D90E08E30910580F0809113018F5FF8
:1019F0008093130182E08093100180911501811181
:101A000041CBBB2009F416CB3DCBFC01EC59FF4F79
:101A10000C94953180911501882309F4D5C340E0D9
:101A200060E080E00E94FB1FCFC310911301110FF3
:101A3000110F110F08E0010F093208F008E2609160
:101A4000E0047091E1048091E2040E94BF2FF62E21
:101A5000E72ED82E101708F0CEC1E12FF0E0DF01FD
:101A6000A554BE4F8C9190911401982331F02D2DE7
:101A70004F2D6E2DCF010E94FD1F1F5FEBCF1091E8
:101A80001301110F110F110F08E0010F093208F0B7
:101A900008E2E090E104F090E204D090E0046D2DC3
:101AA0007E2D8F2D0E94BF2FC62EA72E982E6091BF
:101AB000E3046D0D7E2D8F2D0E94BF2FF62EE72E95
:101AC000D82E101708F097C1812F90E0FC01E55443
:101AD000FE4F308120911401232359F030FF04C0C0
:101AE0002D2D4F2D6E2D03C0292D4C2D6A2D0E94BA
:101AF000FD1F1F5FE6CFF0901301FF0CFF0CFF0CE2
:101B0000F8E0EF2EEF0CA8E2AE1510F4E8E2EE2EAE
:101B1000C090E104A090E2042091E30470E4D72E89
:101B20003D2D329F312D1124D32EFE1418F50F2D8B
:101B300010E0F801E554FE4F908180911401892353
:101B4000B9F0F801EE0FFF1FE15CFE4F85A582950D
:101B50008F706091E0048D9D600D11247C2D8A2D85
:101B60000E94BF2F462F282F672FC8010E94FD1FFC
:101B7000F394DBCF81E047E24E1508F026C324C37F
:101B8000F0901301FF0CFF0CFF0C58E0E52EEF0C5A
:101B900068E26E1510F448E2E42EC090E104A090D3
:101BA000E2042091E30430E4D32E7D2D729F712D49
:101BB0001124D72EFE1438F50F2D10E0F801E5544E
:101BC000FE4F9081809114018923D9F0F801EE0F26
:101BD000FF1FE559FE4F6081D69EB001112495E0AC
:101BE000759567959A95E1F78091E004680F7C2DD3
:101BF0008A2D0E94BF2F462F282F672FC8010E94D1
:101C0000FD1FF394D7CF81E097E29E1508F0DDC267
:101C1000DBC2F0901301FF0CFF0CFF0C08E0E02E7C
:101C2000EF0CA8E2AE1510F418E2E12E6091E30487
:101C300066958091DB049091DC040E94B52FD82E2C
:101C4000FE1408F042C00F2D10E0F801E554FE4FDD
:101C50009081809114018923B1F1F801EE0FFF1FEB
:101C6000E559FE4F408150E044565109F801EE0F0E
:101C7000FF1FE15CFE4F25A530E020523109449F53
:101C8000B001459F700D700D1124229FC001239F4C
:101C9000900D900D1124860F971F0E94842F909114
:101CA000E104B3E08B9FB0011124759567956D0D2C
:101CB000792F8091E2040E94BF2F462F282F672F93
:101CC000C8010E94FD1FF394BBCF81E0E7E2EE154F
:101CD00008F07BC279C210911301110F110F110F7F
:101CE00068E0D62ED10EF8E2FD1510F458E2D52E9C
:101CF0006091E30466958091DB049091DC040E947E
:101D0000B52FC82E1D1578F5E12EF12CF701E554FD
:101D1000FE4F908180911401892319F1F701EE0F94
:101D2000FF1FE15CFE4F25A530E020523109F7018D
:101D3000EE0FFF1FE559FE4F408150E04456510918
:101D40006091E0047091E1048091E2040C2D0E9406
:101D500032200E94BF2F462F282F672FC7010E94D5
:101D6000FD1F1F5FCFCF81E027E22D1508F02DC2A8
:101D70002BC210911301110F110F110F08E0010F69
:101D8000093208F008E2E090E104F090E204D0901B
:101D9000E0046091E3046695669566958091DB04A6
:101DA0009091DC040E94B52F0E94632F805887FD1C
:101DB0008195880F682F2CE0629F612D11246D0D95
:101DC0007E2D8F2D0E94BF2FF62EE72ED82E1017B6
:101DD00090F4E12FF0E0DF01A554BE4F8C9190917B
:101DE0001401982331F02D2D4F2D6E2DCF010E941F
:101DF000FD1F1F5FECCF81E0083208F4E6C1E4C1AB
:101E000082E39AE102C08FEC99E10E942021DDC1BA
:101E100000911301000F000F000F38E0300F3DABB1
:101E20003D3210F04CE24DAB80911501882361F0FA
:101E300040E060E080E00E94FB1F8CE2EAE5F2E017
:101E4000DF011D928A95E9F780911301811115C078
:101E500080915702909158020E94CA1A21E089315C
:101E6000910508F420E020935602499730F00E9433
:101E7000E51A909358028093570210E0BDA98B2E6B
:101E8000912CBBE0AB2EFE0131963F018AEAC82EB1
:101E9000081519050CF069C02801F3E04F225524FC
:101EA00018013594279435942794A49CF001A59C9F
:101EB000F00D1124E65AFD4FE20DF31DD080A30171
:101EC000622D842D0E94FF1F8EAB73018E2D86190B
:101ED000EEA98E1708F032C0D701EC91F0E0E5547E
:101EE000FE4F908180911401892321F13D2D25E53C
:101EF000321B08F430E07091E1042C2D4D2D240F9D
:101F000008F42FEF4091E20462E0269F200D112497
:101F10002E5F249F212D11246C2D631B822F0E9484
:101F2000BF2F462FD7019C91282F672F892F90E034
:101F30000E94FD1FBFEFEB1AFB0AC8CF809156022B
:101F4000882381F02D2D31E0231B08F420E0A49C90
:101F5000C001A59C900D1124865A9D4FFC01E20DF5
:101F6000F31D20830F5F1F4F93CF81E04DA94C32AB
:101F700008F42BC129C180911501882371F040E03C
:101F800060E080E00E94FB1F8CE2EAE5F2E0DF0106
:101F90001D928A95E9F7109259027AE5E72E72E0D0
:101FA000F72E912C88248A94E0EC7E2EFFE2CF2E2F
:101FB000D12C8701A12CA1100CC080915902811154
:101FC00008C00E949B30853595401CF4F701808243
:101FD00006C0D8018C9181508E3F08F48C93AE01DD
:101FE0004F5F5F4F692D8A2D0E94FF1F882311F1DB
:101FF000F80140813981413D70F050E0405D510968
:10200000749EC001759E900D1124B6010E9481310D
:10201000262F4FEF0BC0FFEF4F9FC001112460ED43
:1020200070E00E948131462F20E060E0832F90E035
:102030000E94FD1FA394055F1F4F24E0A212BBCF97
:1020400093943FEFE31AF30A4BE09412B2CF8091DE
:1020500059028F5F8D3118F480935902B5C01092E8
:10206000590220E732E083E04EEFAAE5B2E0F90141
:102070009BE0833041F491965C9191975F3F19F416
:1020800091964C93919750815F3F11F44083538711
:102090009150319611969111ECCF81502B5031090E
:1020A0008111E3CF91C0D0901301DD0CDD0CDD0C6C
:1020B00068E0C62ECD0C68E26C1510F458E2C52E0F
:1020C0002091E30431E0230F08F42FEF30E040E0EB
:1020D00050E06FEF7FEF80E090E00E941E318901B9
:1020E000AA24A394DC1408F041C0ED2CF12CF701D4
:1020F000E554FE4F9081809114018923A9F19091BC
:102100008602915097FD15C0292F092E000C330B24
:10211000F901EA57FD4F8189D812F3CF220F331FFF
:10212000F901EA57FD4F218D328D2017310748F70D
:1021300001C098016091E3047A2D670F08F46FEFF6
:10214000C9010E94B52FAC016091E0047091E104D7
:102150008091E2040E942C200E94BF2F462F282F3E
:10216000672FC7010E94FD1FD394BCCF81E097E287
:102170009C1558F529C0F0901301FF0CFF0CFF0CC3
:1021800028E0E22EEF0CA8E2AE1510F498E2E92E5A
:10219000FE14B0F40F2D10E0F801EE0FFF1FE00F5A
:1021A000F11FE354FD4F6081718182810E94BF2F36
:1021B000462F282F672FC8010E94FD1FF394E8CFF8
:1021C00081E0B7E2BE1508F480E0909113019F5FB3
:1021D00090931301882309F40DCC0C9442081F93AB
:1021E000CF93DF9300D000D01F92CDB7DEB7FC01B4
:1021F00086819781009709F5CF0125E0DE011196D0
:1022000001900D922A95E1F7FC01228189819A8142
:10221000222359F0662349F00E947726182F682F51
:1022200089819A810E94D42803C00E94A428182F73
:1022300069817A81812F0E94BA1E0F900F900F90B2
:102240000F900F90DF91CF911F910895AF92BF92A1
:10225000CF92DF92EF92FF920F931F93CF93DF9372
:10226000EC018AE0A82E2881222309F497C02130AE
:1022700009F041C08981813039F48E010E5F1F4F12
:102280008A810E94B52A08C0823041F48E010E5F17
:102290001F4F8A810E94192AE8017EC0833039F4D9
:1022A0008E010E5F1F4F8A810E94C229F5CF8430B4
:1022B00011F0219671C02A81229680E090E030E0F2
:1022C000205331092A30310558F4A89EA001A99E57
:1022D000500D1124C901840F951F21962881EFCF3D
:1022E000009709F459C0EFE9FFE03197F1F700C01A
:1022F00000000197F5CFE22FF0E0EE5DFB4FB490C8
:10230000822F86958695869590E0FC01EE5EFB4FC8
:10231000E4902770F12C022E02C0F594E7940A9401
:10232000E2F7F1E0EF22FF24FC01EE5FFB4FC490E7
:10233000D12C022E02C0D594C7940A94E2F731E062
:10234000C322DD24FC01EE50FC4F049110E002C0DA
:10235000159507952A95E2F701701127E114F1040C
:1023600019F081EE0E94192AC114D10419F086EEE9
:102370000E94192A8B2D0E94B52ACD2819F086EECD
:102380000E94C229EF2819F081EE0E94C229012B78
:1023900019F08CE20E94B52A219665CFDF91CF918A
:1023A0001F910F91FF90EF90DF90CF90BF90AF9073
:1023B00008952F923F924F925F926F927F928F92E9
:1023C0009F92AF92BF92CF92DF92EF92FF920F93C4
:1023D0001F93CF93DF93CDB7DEB76A970FB6F8940C
:1023E000DEBF0FBECDBF498B5A8B6B8B7C8B8D8B29
:1023F000611110924F058E01075F1F4F88E0F801B1
:1024000011928A95E9F785E0FE017196D801019055
:102410000D928A95E1F70E94E51A20914B053091C3
:102420004C05821B930B8838934140F080914D05F9
:1024300082FB992790F981E0892701C080E080FF25
:1024400003C082E00E94B72E0E94E51A2091510538
:1024500030915205821B930B8838934110F00E94F3
:10246000472E99858A852C853D85232B31F08F3F1A
:1024700031F481E09F3F19F403C081E001C080E0A6
:1024800080FDCAC161E0C8010E94EF106C0187EFB6
:10249000C8168CE5D80639F48B858823B9F081E01D
:1024A00080931101B9C198EFC9169CE5D90631F4A2
:1024B0008B85882359F00E94171CAEC1E9EFCE1618
:1024C000ECE5DE0619F48B85811111C002E714E0FA
:1024D000712CA12CB12C88248394912C55245394D5
:1024E000CE0101969F8B8E8BF7E04F2E49C08091D5
:1024F00011018823A1F2DFCFC616D70609F0970194
:102500009F5F7901292F30E0F901EE0FFF1FE40FE3
:10251000F51F608171816115710571F7FFEFEF168D
:10252000FF0609F42DC1F8016481611131C02091C9
:102530001101822F81706B84F8013581268166201C
:1025400009F4C6C0882309F4C3C0332321F19401E0
:1025500002C0220F331F9A95E2F721503109F8018A
:10256000868190E02817390759F17628FFEFAF1AD6
:10257000BF0A095F1F4F28E0A216B10409F402C187
:10258000F80140815181EE24EA94FE2C90E0BACF0C
:1025900020E030E0CECFA40101C0440FEA94EAF776
:1025A000242B268320910E0430910F042233310511
:1025B00070F622E330E030930F0420930E04C7CF6F
:1025C0008091B4049091B504009729F00E94CA1A32
:1025D000C39708F01EC18091B204F091B304F88F44
:1025E000E0E0F0E0288D821709F460C0282F30E089
:1025F000F901EE0FFF1FE655FB4F20803180429C12
:10260000F001439CF00D1124EE58FB4FF080E18067
:1026100050E090E040E0EF2DFE2DE40FF11DE40FBF
:10262000F11DA081B1811097D1F0F801F081F98FEF
:10263000F801F181FA8F90E0E98DFA8DE90FF11D33
:10264000E90FF11D608171816115710531F0A617E7
:10265000B70709F451E09F5FEFCF4F5FDCCF552301
:10266000F9F09417C8F0429CF001439CF00D11243E
:10267000EE58FB4F3097B1F054820E171F0709F444
:1026800074CF9091B20489130DC0C9010196837073
:1026900099278093B20406C00115110509F0B9C04D
:1026A000E0E0F0E0C901019683709CCF0E171F0790
:1026B00009F45BCF90E0FC01EE0FFF1FE655FB4FE6
:1026C000B182A0820196837099278093B3044DCF85
:1026D000311112C0A40102C0440F551F9A95E2F7B0
:1026E0004150510930E042175307E9F56623E1F103
:1026F000C5010E94791B37C0822F90E09C012150B8
:102700003109282339230E2C02C0959587950A9408
:10271000E2F7232B31F580FF24C0F80182819381F9
:10272000892BD9F088E0EE89FF8911928A95E9F723
:102730008EEF89838A830E94E51A8160582F9D83DA
:102740008C83F801828193818F83988729813A81D4
:102750004B816D817E810E942B29F801158281E0D9
:1027600003C0817001C080E0940101C0220FEA948F
:10277000EAF72095F801968129232683682EF5CE65
:10278000612CF3CE8B85882381F1772071F10E9433
:10279000E51A9093B5048093B404809111048830B5
:1027A00008F044C091E0980F9093110498E0FE0166
:1027B0003996DE01119601900D929A95E1F7ECE0C1
:1027C0008E9FC00111248E5E9B4F28E0FE01319642
:1027D000DC0101900D922A95E1F72FEF3FEFFC010C
:1027E00031872087D386C28621C09091B204809120
:1027F000B304981719F00E94251C08C00E94A71B5B
:102800001092B5041092B4040E94061C772021F0A7
:102810000DC0F8015482A9CE29853A854B855C8587
:102820006D857E858F8598890E942B296A960FB6C3
:10283000F894DEBF0FBECDBFDF91CF911F910F91F6
:10284000FF90EF90DF90CF90BF90AF909F908F90D0
:102850007F906F905F904F903F902F9008958F9250
:102860009F92AF92BF92CF92DF92EF92FF920F931F
:102870001F93CF93DF9300D000D0CDB7DEB7FC011C
:102880008081918123813481232B31F09F3F31F46A
:1028900091E08F3F19F403C091E001C090E090FDFA
:1028A00039C57F0161E0CF010E94EF108C01F70173
:1028B0009281992309F482C0980122513F45203129
:1028C000310508F016C58FEF93E00E94C4308111E6
:1028D0007EC09EEED92ED00E07E512E0DD2071F00D
:1028E0000115F4E01F0709F472C0C8010E94C4304A
:1028F000811101C0DA940F5F1F4FF0CF19821A8245
:102900001B821C82AA24AA9468012FEFC21AD20A41
:10291000C8010E94C43089831A82882309F457C0F1
:10292000813009F046C0480182E0880E911CC60142
:102930000E94C4308A83882309F449C09FEF980F0E
:10294000933060F4680193E0C90ED11CC4010E9469
:10295000C4308B8381112DC08601D6CF843011F015
:102960006401FACFC4010E94C430B82E6801E4E0CB
:10297000CE0ED11CC80103960E94C430BB2039F191
:10298000882329F1282F30E021503109A29EA0018F
:10299000A39E500D11248B2D90E00197840F951F5D
:1029A0000197D0F2EFE9FFE03197F1F700C00000A6
:1029B000F7CFCE0101960E942611CECF0031FFE560
:1029C0001F0799F481E00E9405290E94152180913A
:1029D0004D05877009F49EC4F7018281882309F4AC
:1029E00099C482E00E94B72E95C401312FE51207E9
:1029F00011F482E0E8CF0933110571F4992309F449
:102A000094C180912802882319F0109228024EC0A8
:102A100081E0809328024AC0033F2CE5120741F170
:102A200090F4083DECE51E07E9F0093DFCE51F07C1
:102A300089F1073D2CE51207B1F506E221EE41EEE2
:102A400067ED7CE52CC0053F8CE51807E9F0B0F098
:102A5000063FFCE51F0739F507E225EE46EE66EF77
:102A60007CE51DC007E225EE45EE68ED7CE517C06C
:102A700006E221EE40EE63EF7CE511C007E225EEB1
:102A800044EE64EF7CE50BC006E221EE42EE65EF1A
:102A90007CE505C008E221E045EE69ED7CE5C70173
:102AA0000E94D41C94CF992309F43FC110920D04C5
:102AB00002302CE5120708F422C106318CE5180714
:102AC00038F098012A5F3C452930310508F017C1DC
:102AD0000E94C12D90931F0280931E0200319CE53D
:102AE000190709F4C3C008F041C00830FCE51F070E
:102AF00009F49AC0F0F404308CE5180709F487C093
:102B000068F40230ECE51E0709F477C003301C4579
:102B100009F0E5C080911E02826076C006302CE587
:102B2000120709F46EC008F07BC080911E02886015
:102B30006BC00C309CE5190709F485C068F40A30B5
:102B4000FCE51F0709F474C008F079C00E94202931
:102B500080911E02806858C00E308CE5180709F479
:102B600076C008F07FC080911E028BC00B3FECE561
:102B70001E0709F44FC018F503312CE5120709F4BC
:102B80007DC078F401319CE5190709F473C0023166
:102B90001C4509F0A4C00E94202980911E028F7755
:102BA00033C00531FCE51F0709F472C008F486C084
:102BB0000A3F1C4509F093C080911F023EC00F3FA1
:102BC0009CE5190709F45FC058F40D3FFCE51F07A9
:102BD00009F444C008F43FC080911F0282602DC0F8
:102BE00001308DE5180709F475C008F45DC00230A6
:102BF0001D4509F074C060E06EC080911E028160C6
:102C000003C080911E02806180931E0268C0809183
:102C10001E0211C080911F02826080931F025FC05C
:102C200080911E028062F0CF80911E028064ECCF02
:102C300080911E0288608460E7CF8160EECF809132
:102C40001E028E7FE1CF80911E028D7FDDCF8091AD
:102C50001E02877FD9CF80911F0218C080911F026A
:102C60008D7FDBCF80911E028F7ECECF80911E02A2
:102C70008F7DCACF80911E028F7BC6CF80911E02AE
:102C8000877F8B7FC1CF80911F028D7F8E7FC5CFC5
:102C900080911E0282FB222720F991E0922790FB6F
:102CA00082F990FB83F9B0CF80911F02982F909505
:102CB00091708E7F892B90FB81F9AFCF0E942029E4
:102CC00080911E0287FB222720F991E0922790FB3A
:102CD00087F99ACF61E08EE090E00E94E230609147
:102CE0001E0210911F0284E090E00E94E230612FEA
:102CF00082E290E00E94E2300E94202968CE80911A
:102D000050050631FCE51F0709F58A7A91E009F4C0
:102D100090E090933D03882311F065E301C069E2E0
:102D200088EF94E00E94271B0EC006311C4509F075
:102D30008BC080913D03882309F4EAC265E388EFE4
:102D400094E00E941A1B0E94592E41CE8272F80113
:102D5000E25CFC45EB30F10508F043C0EE58FF4F54
:102D60000C9495318091DF0491E089278093DF04F2
:102D70001092100190933E032ACE46EE5FE160EF81
:102D80007FE12CC040EF5FE166EE7FE127C049EBB9
:102D90005FE163EC7FE122C043EC5FE169EB7FE13F
:102DA0001DC04FE95FE16CEA7FE118C04CEA5FE1CA
:102DB0006FE97FE113C045E85FE162E97FE10EC0A2
:102DC00042E95FE165E87FE109C047EB59E163EC67
:102DD00079E104C043EC59E167EB79E10E946C1F93
:102DE000F6CD992389F10A35FDE51F0741F150F42D
:102DF00001158CE51807A9F00E3D1C4529F50E9428
:102E0000DD2DE5CD0B35EDE51E07D9F00C351D4563
:102E1000D9F480911F0282FB882780F991E08927ED
:102E200011C00E9420292FEF84E39CE021508040B4
:102E30009040E1F700C000000E94801AC8CD81E0F8
:102E400001C080E00E94962EF7018681978100974D
:102E5000B9F4F701828100811181882349F0C8010A
:102E60000E947726D82E682FC8010E94D42804C05B
:102E7000C8010E94A428D82EB8018D2D0E94BA1E28
:102E80000E94382CD82E192FF701A28005810295B7
:102E90000F7080914D05877099F0AA2089F0892FD5
:102EA000807F803421F080E28D0D883048F082E010
:102EB0000E94B72E80914D058770CC24C394811158
:102EC000C12CB12EB2948FE0B8228B2D90E08C30C3
:102ED000910508F0EAC1FC01E358FF4F0C949531CD
:102EE000812F807F1F70882311F01295107FAA20F8
:102EF000B9F0112309F4BBC180E28D0D883010F0C8
:102F0000D11006C090915005192B1093500505C0A3
:102F100090914F05192B10934F050E94592EA7C170
:102F20008D2D0E94C229112309F4BFC180E28D0DAD
:102F3000883010F0D11004C0812F0E94522E06C09C
:102F4000109590914F05192310934F050E94592E0B
:102F5000ACC1812F807F1F70803211F01295107FDD
:102F6000DD2029F0F1E0DF1609F43FC048C0AA20B7
:102F700041F1002301F1013099F480911F0282FD9B
:102F800094C180915305182B181709F48EC10E9423
:102F9000E51A90935205809351051093530585C10E
:102FA000053049F40E94472E80914A05181759F1BF
:102FB00010934A0528C080915305812B0E94B8299F
:102FC00074C1002349F0013069F4809150058123D8
:102FD00009F46BC10E94EA2E0E94472E812F0E94A5
:102FE000B12963C10530C1F760C1AA2021F00630C4
:102FF00008F05BC108C0053008F057C1EFCFAA2028
:1030000021F0011134C1812FD9CF002339F329E3F5
:10301000D21208C08FEF97EEE3E081509040E0407D
:10302000E1F73EC1FFE728E381E0F1502040804016
:10303000E1F736C1812F86958695837019F081302E
:1030400061F033C1AA2021F08D2D912F937002C021
:1030500080E090E00E94571B2EC1AA2021F08D2D08
:10306000912F937002C080E090E00E94411B23C129
:10307000812F8370A9F5A1101CC14D2D4295469555
:103080004770440F440F8D2D8F7090E09C01042EEB
:1030900001C0220F0A94EAF7D4FE08C08FE090E046
:1030A00001C0880F4A95EAF7809501C080E0169527
:1030B00016951370123069F088F490915405113010
:1030C00019F0822B892302C0922B892B0E941C2984
:1030D000F0C0822B909154058927F8CF822BF6CF30
:1030E000AA2019F0812F817001C08695882309F4E8
:1030F000E0C04D2D429546954770440F440F8D2DED
:103100008F7090E09C01042E01C0220F0A94EAF710
:10311000D4FE08C08FE090E001C0880F4A95EAF71E
:10312000809501C080E0169516951370123059F005
:1031300078F49091E504113019F0822B892309C0AD
:10314000922B892B06C0822B9091E504892701C020
:10315000822B0E940129ADC01F70AA2039F0812F57
:103160000E9411298D2D0E94B829A3C08D2D0E9487
:10317000B129812F0E9405299CC092EFD91659F1DF
:103180009D1538F0E0EFDE1659F0F1EFDF16E1F0B3
:1031900069C023EFD21631F184EFD81681F162C0F5
:1031A000AA2071F0053008F080C01F7181E090E026
:1031B00001C0880F1A95EAF79091E50489271CC091
:1031C000063008F072C0F1CFAA2039F0812F8F713C
:1031D0000E9411296AC0AA20C9F3812F8F710E9411
:1031E000052963C0AA2039F01F7181E001C0880F52
:1031F0001A95EAF701C080E00E94012956C0AA2072
:10320000D1F080914A050E94522E80914D05877021
:10321000843039F40E94B02E812F8F710E940529CD
:1032200066C0053008F063C01F71812F0E9411290C
:1032300063E0812F10C09091500580914A05892B41
:1032400080935005053050F00E94B02E0E94EA2E67
:1032500064E0812F8F710E94D42E49C081E00E94CA
:10326000B72E45C0AA2039F0002309F4AFCF8D2D29
:103270000E94192A1AC0002309F4AFCF99E3D9128A
:1032800008C0EFEFF7EE23E0E150F0402040E1F717
:1032900007C08FE798E3E1E081509040E040E1F71C
:1032A00000C000008D2D0E94C22988EF8B0D843054
:1032B00010F40E946D1BCC20A9F080914D0580FD7B
:1032C00011C0F70112828595859585950E94112977
:1032D000C7010E942F1480914D0585958595859590
:1032E0000E94052960E0C7010E94EF1013C0C12CA5
:1032F000E0CF00318FE5180711F481E006C00131FD
:10330000EFE51E0709F077CB82E00E9411295DCB23
:1033100069E215CD0F900F900F900F90DF91CF9134
:103320001F910F91FF90EF90DF90CF90BF90AF90E3
:103330009F908F90089508958091C6040895EFE3BB
:10334000F3E093E0E73BF90729F081836083428350
:103350003396F7CF0895FC01EE0FFF1F8E0F9F1FCE
:10336000FC01E15CFC4F6183408322830895EFED13
:10337000F4E0248130E1231B08F420E0248381E081
:1033800080933E030895EFEDF4E0248130E1230FB4
:1033900008F42FEF248381E080933E030895E42F07
:1033A000F0E0EE0FFF1FE559FE4F9081921B97FD55
:1033B0009195292F38E1239F212D1124620F089523
:1033C000CF93DF9321E02093E9002FEF3091E800C5
:1033D000215035FD06C035ED3A95F1F70000211179
:1033E000F5CF2091E80025FF14C0EC0140E050E04B
:1033F00068E070E00E9417268091E8008E77809345
:10340000E80088E0FE01A7ECB4E001900D928A95F7
:10341000E1F7DF91CF910895809A81B38E7F91B3C8
:1034200091602FB7F894EFE3F3E033E0E73BF30765
:1034300089F0319148E091BB000000C037FF81BBAB
:10344000330F000000C000C000C081BB00C04A951F
:1034500091F7EBCF2FBF8FE594E00197F1F700C014
:10346000000008950F931F93CF93DF93D62F072F5C
:10347000182FC42F822F0E94632FEC2FF0E0EE0F45
:10348000FF1FE559FE4F90819058890F87FD819568
:10349000880F682F2CE0629F612D11246D0F702F13
:1034A000812FDF91CF911F910F9108959091DA04B0
:1034B000943029F58093C1047093C3046093C204CF
:1034C0009093E9008FEF9091E800815095FD06C040
:1034D00095ED9A95F1F700008111F5CF8091E80004
:1034E00085FF0DC040E050E063E070E081EC94E0C7
:1034F0000E9417268091E8008E778093E800089557
:1035000081E08093E00080E28093D8001092C900AF
:103510008FE19EE40197F1F700C0000087E090EB97
:10352000DC018093580590935905A0935A05B093F8
:103530005B059CE088E10FB6F894A8958093600045
:103540000FBE90936000FFCF78941F920F920FB63A
:103550000F9211248F939F93AF93BF938091BD04DB
:103560009091BE04A091BF04B091C0040196A11D2A
:10357000B11D8093BD049093BE04A093BF04B0938B
:10358000C004BF91AF919F918F910F900FBE0F908C
:103590001F9018959C014FB7F8948091BD049091AD
:1035A000BE04A091BF04B091C0044FBF821B930B17
:1035B00008952FB7F8946091BD047091BE04809176
:1035C000BF049091C0042FBF08952FB7F894809145
:1035D000BD049091BE04A091BF04B091C0042FBF60
:1035E00008951F920F920FB60F9211248F939F93FD
:1035F000AF93BF938091BC04811113C08091BD042F
:103600009091BE04A091BF04B091C0044196A11D49
:10361000B11D8093BD049093BE04A093BF04B093EA
:10362000C004BF91AF919F918F910F900FBE0F90EB
:103630001F9018959C012A5F3F4FFC014281461361
:1036400001C01282019682179307B9F708959C0171
:10365000FC0132969FEF80E04191461789F09F3F31
:1036600019F4411101C0982F8F5F8630A9F79F3F51
:1036700039F0F901E90FF11D97FDFA95628308957C
:1036800008952091BA043091BB042817390771F0CE
:103690009093BB048093BA04E091B804F091B9040C
:1036A000309721F00084F185E02D09940895209150
:1036B000B6043091B7042817390771F09093B70416
:1036C0008093B604E091B804F091B904309721F0EA
:1036D0000680F781E02D09940895E091B804F091F7
:1036E000B904309721F00190F081E02D099480E039
:1036F0000895BC014091B2048091B304942F9817AF
:1037000029F1292F30E0F901EE0FFF1FE655FB4F9D
:103710000190F081E02DE617F70799F487E0869F86
:10372000F001879FF00D1124EE58FB4F81E0848358
:1037300094130CC02F5F3F4F237033272093B204A4
:1037400008952F5F3F4F922F9370D9CF08950F9315
:103750001F93CF93DF9380911104882309F451C004
:10376000C09110041CE080911104C81708F045C0F6
:1037700001E00C0F00931004D0E01C9FF0011D9F8E
:10378000F00D1124EE5EFB4F908181812381348105
:10379000232B31F08F3F31F481E09F3F19F403C0B8
:1037A00081E001C080E080FD26C01C9FD0011D9FEC
:1037B000B00D1124AE5EBB4F16968D919C9117975C
:1037C000892B31F418968D919C911997019651F49B
:1037D0002081318142815381648175818681978105
:1037E0000E942B291C9FF0011D9FF00D1124EE5EFD
:1037F000FB4F14821382C02FB6CF10921104109287
:103800001004DF91CF911F910F91089510920F0432
:1038100010920E04E2E7F4E08581811102C0148267
:103820001682379684E0EA3AF807B1F708951092C5
:10383000B5041092B404109211018091B3048093E6
:10384000B2040E94061C0C94A71B3F924F925F92F9
:103850006F927F928F929F92AF92BF92CF92DF92A0
:10386000EF92FF920F931F93CF93DF93C091B20417
:1038700097E0892E01E010E02CE0322E3EEF932EEF
:10388000442443948091B304C81709F478C0D0E06D
:10389000FE01EE0FFF1FE655FB4F80819181889E50
:1038A000D001899EB00D1124AE58BB4F14962C91B7
:1038B0001497211161C050901104E2E1F4E020E07E
:1038C00030E0712C5D01251508F054C0E284F384CA
:1038D000D501CD90DC906FEF7FEF612C462D50E04D
:1038E000DA01AA0FBB1FAC0DBD1D0D90BC91A02D20
:1038F000109731F0EA16FB0609F4BA016394EECF93
:103900006F3FBFEF7B0791F1D80102C0AA0FBB1F29
:103910006A95E2F77A2AB80102C0660F771F6A94A7
:10392000E2F7AB0141505109672D70E04617570788
:10393000D9F4329EF001339EF00D1124EE5EFB4F60
:10394000889ED001899EB00D1124AE58BB4F1296AF
:103950002D913C9113973783268390829182918792
:10396000808715964C9206C0148213822F5F3F4FBA
:103970003C96A9CF0E94791B2196C37083CF0E94E9
:10398000A71BDF91CF911F910F91FF90EF90DF90D8
:10399000CF90BF90AF909F908F907F906F905F90EF
:1039A0004F903F900C94061C0F931F93CF93DF937F
:1039B000C42FD22FFC0182818823C9F040930D04CB
:1039C0000E94E51A90930C0480930B0480E28C0F04
:1039D000883008F057C0C77081E001C0880FCA95D1
:1039E000EAF7DF91CF911F910F910C94B829809144
:1039F0000D04481330C080910B0490910C040E9478
:103A0000CA1A883C910538F510E21D0FCD17B9F0A0
:103A100080E28C0F883040F4C77081E001C0880FCD
:103A2000CA95EAF70E94B129183028F581E09D2F48
:103A3000977001C0880F9A95EAF70E94B829802FE5
:103A40000E94B52A1830F0F4D77081E001C0880FC9
:103A5000DA95EAF70AC080E28C0F883098F4C770D4
:103A600081E001C0880FCA95EAF7DF91CF911F91DD
:103A70000F910C94B129802FDF91CF911F910F915D
:103A80000C94B52ADF91CF911F910F910895CF9398
:103A9000DF93C7E5D2E060E0CE010E94E2302196DC
:103AA000C11584E0D807B9F7DF91CF9108950F933E
:103AB0001F93CF93DF93853068F5623058F542301D
:103AC00048F521159CE5390731F4E0910704F091A0
:103AD0000804EF2BF9F08901282F34E0639FC0011F
:103AE000112438E0239F800D911D1124840F911D16
:103AF000840F911DEC01C152DE4F612FCE010E9457
:103B0000E230602FCE010196DF91CF911F910F918E
:103B10000C94E230DF91CF911F910F9108950F9394
:103B20001F93CF93DF93853018F5623008F542304C
:103B3000F8F4282F34E0639FC001112438E0239F5C
:103B4000800D911D1124840F911D840F911DEC0196
:103B5000C152DE4FCE010E94C43090E0182F0027E2
:103B6000CE0101960E94C4309801282BC90102C0E1
:103B700080E090E0DF91CF911F910F9108950F9316
:103B80001F93CF93DF93853058F5643048F54B3061
:103B900038F521159CE5390731F4E0910704F091DF
:103BA0000804EF2BE9F08901C42FD0E0CC0FDD1F12
:103BB00096E1699FC00DD11D112498E5899FC00D24
:103BC000D11D1124612FCE0187960E94E230602F13
:103BD000CE018896DF91CF911F910F910C94E23026
:103BE000DF91CF911F910F9108956F927F928F92E5
:103BF0009F92AF92BF92CF92DF92EF92FF920F937C
:103C00001F93CF93DF93CDB7DEB72A970FB6F89403
:103C1000DEBF0FBECDBFA0900704B090080481E0C6
:103C200090E09093080480930704C12CD12C712C50
:103C3000612CE12CF12C00E010E046018E0C9F1C61
:103C4000F801EE0FFF1FE80DF91DEE55FB4F259112
:103C50003491402F662D872D0E94BF1D0F5F1F4F8F
:103C60000B30110569F786E1E80EF11C639494E0CE
:103C70006912E1CF21E030E040E060E0872D0E9452
:103C8000571D21E030E041E060E0872D0E94571D84
:103C900021E030E040E061E0872D0E94571D21E0E7
:103CA00030E041E061E0872D0E94571D7394E8E504
:103CB000CE0ED11CF5E07F12BBCFCE0101967C0168
:103CC0008AE0F70111928A95E9F707E012E04AE0ED
:103CD00050E0B801C7010E940631065F1F4F07354B
:103CE000F2E01F07A1F7B0920804A09207042A96F9
:103CF0000FB6F894DEBF0FBECDBFDF91CF911F91FD
:103D00000F91FF90EF90DF90CF90BF90AF909F907A
:103D10008F907F906F9008950F931F93CF93DF93B1
:103D2000853008F56430F8F44B30E8F4C42FD0E067
:103D3000CC0FDD1F26E1629FC00DD11D112438E597
:103D4000839FC00DD11D1124CE0187960E94C430DF
:103D500090E0182F0027CE0188960E94C430980169
:103D6000282BC90102C080E090E0DF91CF911F9124
:103D70000F910895462F2091090430910A04232BB6
:103D800049F4853038F4743028F46B3018F4672F18
:103D90000C948C1E80E090E00895CF92DF92EF9219
:103DA000FF920F931F93CF93DF93CDB7DEB72A9780
:103DB0000FB6F894DEBF0FBECDBF80E5E7EBF3E0B2
:103DC000DF011D928A95E9F788E3E2E7F4E0DF017D
:103DD0001D928A95E9F787EBC82E83E0D82E7F01E4
:103DE00007E012E0F701D182C0824AE050E0B8015A
:103DF000CE0101960E94B43088E0FE013196D601D2
:103E000001900D928A95E1F789859A85D7011396DD
:103E10009C938E931297BAE0CB0ED11CE7E0EE0E86
:103E2000F11C065F1F4F0735F2E01F07D9F62A96EF
:103E30000FB6F894DEBF0FBECDBFDF91CF911F91BB
:103E40000F91FF90EF90DF90CF900895CF93C82F00
:103E5000811102C06FEF01C068E883E290E00E9428
:103E6000E230C11102C06FEF01C061EC84E290E06A
:103E70000E94E230C11102C06FEF01C068E485E228
:103E800090E0CF910C94E23080E00E94261F60E029
:103E900086E290E00E94E2300E94F51D0E94471DDC
:103EA00081E00C94261F83E290E00E94C4308838A1
:103EB00081F484E290E00E94C430813C51F485E2B8
:103EC00090E00E94C43091E0883409F090E0892F9E
:103ED00001C080E081700895882311F0FA0101C0CB
:103EE000FB0109949091DF04937071F08093E004DA
:103EF0006093E1044D3308F04CE34093E204809179
:103F00003E03282B20933E030895EFEDF4E0438118
:103F100020E1421B08F440E0818121E0628190E0D1
:103F20000C94721FEFEDF4E0438120E1420F08F49E
:103F30004FEF818121E0628190E00C94721FEFEDE0
:103F4000F4E0628120E1621B08F460E0818121E0FD
:103F5000438190E00C94721FEFEDF4E0628120E168
:103F6000620F08F46FEF818121E0438190E00C94AF
:103F7000721FEFEDF4E0818190E021E043816281E6
:103F800008970C94721FEFEDF4E0818190E021E03E
:103F90004381628108960C94721F9091DF049370A4
:103FA000A1F0811102C0946007C08E3010F09463BC
:103FB00003C0880F880F982B9093DF041092100194
:103FC00080913E03682B60933E0308958091DF0447
:103FD00086958695815009F48DE061E00C94CD1FA3
:103FE0008091DF04869586958F5F8E3008F081E0A2
:103FF00061E00C94CD1F0C949F190C94AB192BE02D
:10400000829FC0011124FC01E15CFE4FE60FF11D0F
:1040100080818F3F21F0FA01808381E0089580E064
:10402000089546E050E06CE170E08FED94E00C9470
:10403000D230EFEDF4E085E0808380911E01909115
:104040001F01A091200181839283A3838FE7848342
:104050008FEF85830C94112022E8241B08F420E0C4
:10406000620F08950F93CF93DF93D72FC82F47FD8B
:104070004195E2E3F0E0CF01841B910947FD939560
:10408000889FB001899F700D700D1124229FC0017F
:10409000239F900D900D1124860F971F0E94842F4F
:1040A000682F660F860F682F600F7D2F8C2FDF9192
:1040B000CF910F9108958091D20487FF11C0809114
:1040C000E80082FD05C08091DA048111F8CF11C0AB
:1040D0008091E8008B770BC08091DA04882349F047
:1040E0008091E80080FFF8CF8091E8008E77809380
:1040F000E8000895982F973068F59093E900981795
:1041000039F07091EC002091ED005091F00003C067
:10411000242F762F50E021FD02C09F5FECCF30911D
:10412000EB003E7F3093EB003091ED003D7F30930C
:10413000ED003091EB0031603093EB007093EC00B8
:104140002093ED005093F0002091EE0027FDE5CF85
:1041500080E008958F708093E90081E008952091B8
:10416000D8043091D9042617370748F06115710536
:1041700039F42091E8002E772093E80001C0B901BE
:10418000FC0120E06115710579F18091DA04882342
:10419000F1F18530F1F18091E80083FD3CC0809120
:1041A000E80082FD2EC08091E80080FFEBCF2091D7
:1041B000F3008091F20090E0922B6115710551F0AF
:1041C0008830910538F421912093F10061507109F4
:1041D0000196F3CF21E0089709F020E08091E800F4
:1041E0008E778093E800CECF2111CFCF0AC0809187
:1041F000DA04882361F0853061F08091E80083FD66
:104200000AC08091E80082FFF2CF80E0089582E04A
:10421000089583E0089581E00895BC0184E00C9442
:10422000561ABC0183E00C94561A8091E504982F2D
:104230009670963011F4886001C0877F0C94012934
:10424000DF92EF92FF920F931F93CF93DF938C0136
:10425000C0911301CC0FCC0FCC0FD8E0DC0FD932BA
:1042600008F0D8E26091E3046695669521E0620F5C
:1042700008F46FEF8091DB049091DC040E94B52F6D
:10428000D82ECD17F0F4EC2EF12CF701E554FE4FAB
:10429000908180911401892391F06091E0047091E4
:1042A000E1048091E2042D2D4C2FF80109950E9424
:1042B000BF2F462F282F672FC7010E94FD1FCF5FFA
:1042C000E0CF81E0D83208F080E0DF91CF911F91FC
:1042D0000F91FF90EF90DF9008951F93CF93DF939E
:1042E000CDB7DEB7AA970FB6F894DEBF0FBECDBF2D
:1042F000E2EDF4E08091F100819344E0EA3DF407BF
:10430000C9F78091D304833009F462C030F481305E
:1043100071F0823009F49CC0B3C08A3009F488C0BF
:104320008B3009F46DC0893009F0AAC020C080919B
:10433000D204813A09F0A4C08091E800877F80937D
:10434000E8008091D6049091D704892B21F468E08D
:1043500087EC94E003C060E080E090E070E00E94B1
:10436000AF208091E8008B778093E80089C080912E
:10437000D204813209F084C08091D6049091D70490
:10438000009719F0029709F07BC08091E800877FC1
:104390008093E8008091E80082FD05C08091DA04F6
:1043A0008111F8CF6DC02091F3008091F20090E070
:1043B000922B029729F48091F1008B7F813021F4B8
:1043C0008091F1008093C6048091E8008B7754C0FF
:1043D0008091D204813A09F053C08091D604909123
:1043E000D704892B09F04CC08091E800877F809327
:1043F000E8008091E80080FFFCCF8091120137C077
:104400008091D2048132E1F58091D6049091D70455
:10441000892BB1F58091E800877F8093E8000E94A6
:104420005B208091D404809312010E94202928C02F
:104430008091D204813221F58091E800877F8093BA
:10444000E8000E945B208091D5048093C50418C0C9
:104450008091D204813AA1F48091E800877F809313
:10446000E8008091E80080FFFCCF8091C504809334
:10447000F1008091E8008E778093E8000E945B2035
:104480008091E80083FFE9C18091D2049091D30428
:10449000492F50E04A30510508F0DFC1FA01E757D3
:1044A000FF4F0C949531803821F0823809F0D5C146
:1044B00008C08091CF049091D004992389F0826044
:1044C0000FC08091D6048F70873008F0C6C18093EA
:1044D000E9008091EB0085FB882780F91092E900C4
:1044E0009091E800977F9093E8008093F1001092FC
:1044F000F1007CC1282F2D7F09F0AFC1882319F06E
:10450000823061F0AAC18091D404813009F0A5C144
:10451000933009F080E08093D0042EC08091D404C1
:1045200081112AC08091D6048F702FEF280F26307A
:1045300008F093C18093E9002091EB0020FF1CC09C
:10454000933021F48091EB00806214C09091EB00D5
:1045500090619093EB0021E030E0A90102C0440F8C
:10456000551F8A95E2F74093EA001092EA00809185
:10457000EB0088608093EB001092E9008091E800E6
:10458000877F8093E8000E945B2067C1811165C12D
:104590001091D4041F778091E3008078812B809361
:1045A000E3008091E800877F8093E8000E945B2011
:1045B0008091E80080FFFCCF8091E30080688093C9
:1045C000E300111102C082E001C083E08093DA04AD
:1045D00044C18058823008F040C12091D404309109
:1045E000D5042C3D53E0350779F583E08A838AE2D0
:1045F00089834FB7F894DE01139620E03EE051E244
:10460000E32FF0E050935700E49120FF03C0E295C0
:10461000EF703F5FEF708E2F90E0EA3010F0C7969A
:1046200001C0C0968D939D932F5F243149F74FBFF2
:104630008091E800877F8093E8006AE270E0CE0115
:1046400001960E94AF20C0C08091D6049091D704FB
:10465000432F552743305105B1F068F441305105DF
:1046600009F40AC14230510509F0F7C08BE590E02A
:10467000EEEEF6E057C04132510589F14232510564
:1046800009F43CC0EAC0C901992781309105B9F00D
:1046900070F082309105D9F0039709F0DEC0EBE5A8
:1046A000F7E0E4918E2F90E0EBE5F7E038C0E3EC23
:1046B000F7E0E4918E2F90E0E3ECF7E030C0E7EA1A
:1046C000F7E0E4918E2F90E0E7EAF7E028C0E9E711
:1046D000F7E0E4918E2F90E0E9E7F7E020C0833027
:1046E000910508F0BAC0880F991FFC01E75CFE4FE6
:1046F0000190F081E02D89E090E014C083309105B5
:1047000008F0ABC0FC01EE0FFF1FED5CFE4F019007
:10471000F081E02DDC01A05DBE4F8C9190E0009710
:1047200009F49BC02091E800277F2093E8002091A6
:10473000D8043091D9042817390708F4C90140E09A
:10474000009789F12091DA04222309F43DC0253035
:10475000D9F12091E80023FD37C02091E80022FD27
:104760002FC02091E80020FFEBCF4091F300209173
:10477000F20030E0342B009759F02830310540F436
:1047800044914093F100319601972F5F3F4FF3CF53
:1047900041E02830310509F040E02091E8002E7713
:1047A0002093E800CDCF4111CDCF0AC08091DA042B
:1047B000882351F0853041F08091E80083FD04C0EA
:1047C0008091E80082FFF2CF8091E8008B778093A0
:1047D000E80043C0803809F040C08091E800877F3E
:1047E0008093E8008091D1048093F1008091E800EB
:1047F0008E77C7CE811131C08091D4049091D504B9
:104800009927029754F58091E800877F8093E8000C
:104810001091D4041093D1040E945B20111106C0A2
:104820008091E30087FD02C081E001C084E08093B5
:10483000DA0442E061EC81E00E947A2042E261EC1D
:1048400084E00E947A2042E261EC82E00E947A20B9
:1048500042E260EC83E00E947A208091E80083FFCE
:1048600010C08091E800877F8093E8008091EB0082
:1048700080628093EB0005C082E190E0E9E4F7E01C
:1048800051CFAA960FB6F894DEBF0FBECDBFDF9111
:10489000CF911F9108951F920F920FB60F9211247E
:1048A0002F933F934F935F936F937F938F939F9338
:1048B000AF93BF93CF93DF93EF93FF93C091E90042
:1048C000CF708091EC00D82FD17080FDD0E810928D
:1048D000E9008091F000877F8093F00078940E9437
:1048E0006D211092E9008091F00088608093F000C3
:1048F000CD2BCF70C093E900FF91EF91DF91CF9165
:10490000BF91AF919F918F917F916F915F914F91E7
:104910003F912F910F900FBE0F901F901895E8EDCB
:10492000F0E080818E7F80831092E2001092DA00A6
:104930001092E100A0EEB0E08C9181608C938081B8
:104940008F77808319BCA7EDB0E08C918E7F8C931C
:1049500080818F7E80831092C4040895CF92DF926D
:10496000EF92FF920F931F93CF93DF93C8EDD0E0A8
:1049700088818F7E8883E7EDF0E08081816080838D
:1049800084E082BF81E08093C40488818E7F888325
:1049900002EE10E0F80110821092DA0081EEC82ECB
:1049A000D12CF601108288818F7788838881806876
:1049B000888388818F7D888319BC1092DA041092D5
:1049C000D1041092D0041092CF0490EEE92EF12C75
:1049D000F70180818B7F808388818160888342E0BA
:1049E00060E080E00E947A20F60180818E7F8083E3
:1049F000F801808181608083808188608083F701F5
:104A000080818E7F8083888180618883DF91CF91D0
:104A10001F910F91FF90EF90DF90CF9008951F921C
:104A20000F920FB60F9211242F933F934F935F93E2
:104A30006F937F938F939F93AF93BF93EF93FF9366
:104A40008091E10082FF09C08091E20082FF05C0F1
:104A50008091E1008B7F8093E1008091DA0080FFFC
:104A60002AC08091D80080FF26C08091DA008E7F16
:104A70008093DA008091D90080FF18C080E189BD61
:104A800082E189BD09B400FEFDCF81E08093DA04A4
:104A90008091C40481110FC00E948F240E94AE2413
:104AA0008091E20084608093E20005C019BC1092FE
:104AB000DA041092C4048091E10080FF17C0809155
:104AC000E20080FF13C08091E2008E7F8093E200BD
:104AD0008091E20080618093E2008091D800806242
:104AE0008093D80019BC85E08093DA048091E100BE
:104AF00084FF2EC08091E20084FF2AC080E189BD3E
:104B000082E189BD09B400FEFDCF8091D8008F7D80
:104B10008093D8008091E1008F7E8093E1008091A6
:104B2000E2008F7E8093E2008091E20081608093BA
:104B3000E2008091D104882311F084E007C08091C5
:104B4000E30087FD02C081E001C083E08093DA04C6
:104B50008091E10083FF27C08091E20083FF23C0A2
:104B60008091E100877F8093E10082E08093DA0406
:104B70001092D1048091E1008E7F8093E1008091BA
:104B8000E2008E7F8093E2008091E200806180935A
:104B9000E20042E060E080E00E947A208091F00034
:104BA00088608093F000FF91EF91BF91AF919F914A
:104BB0008F917F916F915F914F913F912F910F90C6
:104BC0000FBE0F901F9018952091E4003091E500E2
:104BD00095E64091EC00842F817040FF23C08091C6
:104BE000E80080FD1DC08091DA04882399F08530AB
:104BF00099F08091EB0085FD11C04091E400509147
:104C0000E5002417350729F3915011F09A01E1CFFF
:104C100084E0089582E0089583E0089581E0089596
:104C200080E008954091E80042FFDDCF0895EF92C3
:104C3000FF920F931F93CF93DF937C018B010E9410
:104C4000E425811119C0E70101151105A1F080913A
:104C5000E80085FD0AC08091E8008E778093E80027
:104C60000E94E425882381F307C089918093F10095
:104C700001501109E9CF80E0DF91CF911F910F9191
:104C8000FF90EF900895CF932091DA042430F9F447
:104C9000C091E900CF703091EC00232F217030FDDE
:104CA00020E8C22B22E02093E9002091E80020FFB9
:104CB0000BC040E050E060E270E00E941726809157
:104CC000E8008E778093E800CF70C093E900CF9121
:104CD000089580E090E00E94571B80E090E00E94E1
:104CE000411B10924F0510924E050C94592ECF92F5
:104CF000DF92FF920F931F93CF93DF936C0100918C
:104D0000E50480915405082BC7E0D0E010E0C8010D
:104D10000C2E02C0959587950A94E2F780FD04C099
:104D20002197A8F7F12C09C0FC2EB6018C2F0E9408
:104D3000BA1E0E94382C019799F38F2DDF91CF91E5
:104D40001F910F91FF90DF90CF900895CF93DF9345
:104D5000EC010E947726BE010E94BA1E0E94382CE8
:104D6000DF91CF910895FC0186819781009719F01A
:104D70000E94382C04C0808191810E94A626292F90
:104D80002F70E92FE295EF704E2F50E0FA01329725
:104D9000EE30F105B8F4ED56FF4F0C949531803F9D
:104DA00099F018F4883E70F40FC0843F59F40CC099
:104DB000883E50F0813F31F407C0822F869586955A
:104DC0008695089580E0089581E008959F92AF92BE
:104DD000BF92CF92DF92EF92FF920F931F93CF93E8
:104DE000DF93CDB7DEB765970FB6F894DEBF0FBE81
:104DF000CDBF8C0185E0F801DE01519601900D9246
:104E00008A95E1F7F801E280909100056091010533
:104E100040910305509104054115510531F06F3F54
:104E200031F481E09F3F19F403C081E001C080E0CC
:104E3000F82FF1709F2E80FD37C1F801308121815C
:104E4000C380D48070E0A72E75E0B72EF0900205E5
:104E5000F601E41BF50BFF2009F4F5C08091050570
:104E6000E83CF10508F0B0C0482F407F09F05AC077
:104E700062131BC0931319C060910605709107055A
:104E8000F801468157816417750779F4FE2CE1100B
:104E90000CC08F70806180930505C5010E942F149E
:104EA00080910505F80185833CC1CD2831F02F3F65
:104EB00031F481E03F3F19F403C081E001C080E09C
:104EC00080FD03C081E08E2502C080E090E0F82FD5
:104ED000F170FF2E80FF1CC08091490540910805AC
:104EE000841709F4FCC090E0FC0153E0EE0FFF1FB3
:104EF0005A95E1F7E75FFA4F5181251306C05081BB
:104F0000531303C05281E51203C001968770E8CFA6
:104F1000FE2CEE2009F405C1809105058160809387
:104F200005055EC0621315C0931313C040910605BA
:104F300050910705F801268137814217530749F43C
:104F4000E11007C08583C8010E942F1488E0F80192
:104F500090C0C8010E94B326882381F1EE2071F130
:104F600020910505822F82958F7090E00297A4F022
:104F700080910005909101059A8789871B86DD86BF
:104F8000CC862E878091060590910705988B8F8798
:104F9000CE0109960E942F1488E0F801A0E0B5E048
:104FA00001900D928A95E1F70E94FA2E0AC06217CD
:104FB000C9F0C8010E94B326811127C0C8010E9410
:104FC0002F14FF24F394ADC0482F407F81F780E079
:104FD00095E00E942F1488E0F50111928A95E9F777
:104FE000F12C9FC09313E5CF409106055091070522
:104FF000F8012681378142175307D9F6E110D9CF3E
:105000008583C8010E942F1449C0EE20B9F2209177
:105010000505822F82958F7090E002970CF4BCCF2B
:1050200080910005909101059A8389831B82DD821E
:10503000CC822E83809106059091070598878F83F7
:10504000CE010196A7CFE83CF10540F5FE2CEE20FD
:1050500009F4B4CF621314C0931312C02091060553
:1050600030910705F801868197812817390741F4A7
:1050700088E0A0E0B5E001900D928A95E1F751C07B
:10508000C8010E94B326811187CF809105058160F8
:1050900080930505C8010E942F1443C088E0F501E4
:1050A00011928A95E9F73DC0EE2009F487CFC80137
:1050B0000E94B326F82E882309F480CF88E0F801F7
:1050C000A0E0B5E001900D928A95E1F7809100058E
:1050D000909101050E94A6260E94FA2E22C0398BCB
:1050E0002A8B89899A890E94A626292F22952F70BA
:1050F000223028F49F7039F0811105C00BC0243094
:1051000028F49F7049F4805E883020F0C8010E9426
:105110002F149F2CF92C05C0F8019581907F99F7E9
:10512000F9CF8F2D65960FB6F894DEBF0FBECDBFB9
:10513000DF91CF911F910F91FF90EF90DF90CF9073
:10514000BF90AF909F9008959E3F61F12BE0929F9A
:10515000800D1124682F669566956695982F977037
:1051600083E0689FB001112440E050E080E0FB0143
:10517000E40FF51FEA51FB4F208130E0092E02C0F9
:10518000369527950A94E2F721703327042E01C043
:10519000220F0A94EAF7822B4F5F5F4F433051058D
:1051A00031F7089580E008959E3F51F12BE0929FE2
:1051B000800D1124E82FE695E695E695877051E07D
:1051C00001C0550F8A95EAF783E0E89FF0011124AA
:1051D000EA51FB4F20E030E070E04081CB01022E2D
:1051E00002C0969587950A94E2F78170819584278D
:1051F0008523842781932F5F3F4F2330310569F743
:1052000008958093E5040C94692621E030E001C004
:10521000220F8A95EAF720958091E50482230C9469
:10522000012921E030E001C0220F8A95EAF7809140
:10523000E504822B0C940129809354050C94692673
:105240001092500586E0EAEFF4E0DF011D928A95A6
:10525000E9F70C946926CF93DF93CDB7DEB760975B
:105260000FB6F894DEBF0FBECDBF29873A874B87B4
:105270005C876D877E878F87988BCE0109960E9409
:10528000E626811151C088E0FE013996DE011196B3
:1052900001900D928A95E1F779856A854C855D8547
:1052A0004115510531F06F3F31F481E07F3F19F432
:1052B00003C081E001C080E080FD36C0A0910805F8
:1052C000B0E0CD010196877099272091490530E023
:1052D0008217930781F179836A835D834C8393E01E
:1052E000AA0FBB1F9A95E1F7A75FBA4F98E0FE019E
:1052F000319601900D929A95E1F7809308050E94EE
:10530000F02E12C028E0829FC0011124875F9A4FBF
:105310000E94E6268823E1F08091490590E00196FD
:1053200087709927809349058091490590910805D8
:105330008913E8CF0DC00E94202910920805109211
:105340004905E0E0F5E088E0DF011D928A95E9F784
:1053500060960FB6F894DEBF0FBECDBFDF91CF9140
:105360000895882321F00E94522E0C94592E0895FE
:10537000882339F090915005892B809350050C9427
:10538000592E0895882309F453C0682F823869F490
:105390000E946D1B81FF4CC069E388EF94E00E947E
:1053A000271B0E94592E69E30EC0833891F40E9496
:1053B0006D1B80FF3DC063E588EF94E00E94271BD2
:1053C0000E94592E63E588EF94E00E941A1B0C940A
:1053D000592E843869F40E946D1B82FF29C067E44E
:1053E00088EF94E00E94271B0E94592E67E4EBCFC0
:1053F0008CEF860F813A38F380E2860F883048F4CC
:10540000677081E001C0880F6A95EAF70E94522E0A
:10541000DECF8BE5860F833020F480E090E00C94A3
:10542000571B685A673120F480E090E00C94411BD0
:105430000895CF93882309F496C0C82F8238B1F419
:105440000E946D1B81FD8FC069E388EF94E00E948C
:10545000271B0E94592E2FEF81EE94E021508040AF
:105460009040E1F700C0000069E317C08338E1F421
:105470000E946D1B80FD77C063E588EF94E00E9479
:10548000271B0E94592E2FEF81EE94E0215080407F
:105490009040E1F700C0000063E588EF94E00E94CF
:1054A0001A1BCF910C94592E8438B1F40E946D1BB5
:1054B00082FD59C067E488EF94E00E94271B0E9498
:1054C000592E2FEF81EE94E0215080409040E1F77B
:1054D00000C0000067E4E1CF8CEF8C0F813A80F4CC
:1054E000EAEFF4E080E095E02191C217A1F18E1778
:1054F0009F07D1F76C2F88EF94E00E94271BD1CF34
:1055000080E28C0F883068F4C77081E090E001C0C1
:10551000880FCA95EAF790915005892B8093500522
:10552000C0CFEBE5EC0FE33040F4F0E0ED51FE4F7F
:10553000808190E0CF910C94571BC85AC73198F4E2
:10554000EC2FF0E0EE0FFF1FEA51FE4F80819181BA
:10555000CF910C94411B6C2F88EF94E00E941A1B92
:105560000E94592EC7CFCF9108951F93CF93DF93F9
:10557000182F893319F0C9E1D0E002C0C0E5D0E0AE
:10558000812F0E94192A8FE99FE00197F1F700C04F
:1055900000002197C1F7812FDF91CF911F910C94CB
:1055A000C22980E0089590911E0292FF0DC0282F1D
:1055B0002871283019F4877F846006C0282F247151
:1055C000243011F48B7F886093FF0DC0282F287141
:1055D000283119F4877E846106C0282F2471243174
:1055E00011F48B7E886120911F0220FF0DC0382F9F
:1055F0003871383019F4877F816006C0382F3171D7
:10560000313011F48E7F886021FF0DC0282F287162
:10561000283119F4877E816106C0282F217121313C
:1056200011F48E7E886194FD877E0895F894E82FAA
:10563000E295EF70F0E031A1282F2F7081E090E02B
:1056400001C0880F2A95EAF7982F9095932391A38C
:1056500092A1892B82A3789408958F929F92AF9202
:10566000BF92CF92DF92EF92FF920F931F93CF934F
:10567000DF93CDB7DEB728970FB6F894DEBF0FBE25
:10568000CDBFAE014F5F5F4F7A0188E0DA011D9216
:105690008A95E9F701E211E06A01AA24A394B12CEA
:1056A000F80180818F3F09F44DC0F894E82FE2950E
:1056B000EF70F0E021A18F70A50102C0440F551FCB
:1056C0008A95E2F7CA01922F982B91A392A1809517
:1056D000892382A3789400C0E5E2F1E020E030E085
:1056E000812C912C81918F3FC1F0A82FA295AF7092
:1056F000B0E090964C9150E08F70DA0102C0B59501
:10570000A7958A95E2F7A0FD08C0C501022E02C048
:10571000880F991F0A94E2F702C080E090E0882A7F
:10572000992A2F5F3F4F2B303105E1F6F801808138
:105730008F3F11F00E94162BF0EAFA95F1F7D6018F
:105740008D929C920F5F1F4FB2E0CB0ED11CE1E017
:1057500005321E0709F0A4CF48E050E0B70180E20F
:1057600092E00E94A23111E0009709F410E0892B29
:1057700089F088E0F701A0E2B2E001900D928A95ED
:10578000E1F781E0809357050E94E51A9093560552
:105790008093550580915705882351F180915505D7
:1057A000909156050E94CA1A059710F18091200227
:1057B00090912102909336038093350380912202C9
:1057C00090912302909338038093370380912402B1
:1057D0009091250290933A03809339038091260299
:1057E0009091270290933C0380933B0310925705BE
:1057F00080911101882341F18091B4049091B50406
:10580000009711F10E94CA1A20910E0430910F04E2
:1058100028173907C8F49091B2048091B3049817FF
:1058200059F00E94251C10920F0410920E04109241
:10583000B5041092B40408C00E94A71B1092B504CE
:105840001092B4040E94061C812F28960FB6F8947B
:10585000DEBF0FBECDBFDF91CF911F910F91FF90A3
:10586000EF90DF90CF90BF90AF909F908F90089572
:10587000CF93DF938238910569F1B0F481339105BC
:1058800009F46FC048F48932910509F465C08A3281
:10589000910509F46BC08AC08533910509F457C09E
:1058A00089339105B9F082C0833E910571F138F4D6
:1058B000803E9105B1F0823E910511F177C0863EA0
:1058C0009105B9F1873E9105C9F1843E910509F032
:1058D0006DC024C020911E0220FD53C021FD51C087
:1058E00065C080911E0280FD46C080911F0280FF2E
:1058F00048C080911E0284FD3FC183EE90E03EC10E
:1059000080911E0282FF3AC0F4CF80911E0282FD78
:1059100035C080911F0280FD34C0EBCF80911F0203
:1059200081FF35C080911E0284FD26C187EE90E084
:1059300025C180911E0283FF27C0F4CF80911E02F3
:1059400083FD22C080911F0281FD21C0EBCF809199
:105950001E0285FD1FC021C080911E0285FD1DC055
:1059600019C080911E0286FD1BC01DC080911E02C1
:1059700086FD19C015C089E390E000C182EE90E079
:10598000FDC080EE90E0FAC086EE90E0F7C084EEB5
:1059900090E0F4C089E290E0F1C085E390E0EEC0D1
:1059A0008AE290E0EBC081E390E0E8C0811532E547
:1059B000930708F069C0811541E5940728F0982FF6
:1059C0008827816F906ADAC0883E910568F5803E2D
:1059D000910508F0D3C0883A9105B8F4853A91054D
:1059E00048F0855AE82FF0E0ED51FE4F808190E0BD
:1059F0009064C4C08130910509F4BBC008F4BCC0F8
:105A00008430910508F4B8C0B9C08F3B910508F007
:105A1000B3C0885AE82FF0E0EE0FFF1FEA51FE4FA7
:105A2000808191819464AAC0811520E59207F0F0ED
:105A30009C0174E0369527957A95E1F7922F937043
:105A4000482F437021E030E002C0220F331F4A95F7
:105A5000E2F73C68392B8F70982F9695969540E227
:105A6000949FC0011124822B932B88C0811530E4B0
:105A7000930718F09F70906A81C09C013A95211598
:105A80003F4108F47BC078C0EC01C11586E5D8071A
:105A9000E8F5C11525E5D20748F08C2F0E94D32ADE
:105AA0008F7190E0982F8827906268C0C11534E507
:105AB000D30728F09C2F8827846F906A5FC0AE01BF
:105AC000437055272C2F26952695C115D34578F47C
:105AD00081E090E002C0880F991F4A95E2F740E20A
