:100000000C9478040C94BF040C94BF040C94BF04AB
:100010000C94BF040C94BF040C94BF040C94BF0454
:100020000C94BF040C94BF040C94761F0C94B21E65
:100030000C94602E0C94BF040C94BF040C94BF0469
:100040000C94BF040C94BF040C94BF040C94BF0424
:100050000C94BF040C94132E0C94BF040C94BF0496
:100060000C94BF040C94BF040C94BF040C94BF0404
:100070000C94BF040C94BF040C94BF040C94BF04F4
:100080000C94BF040C94BF040C94BF040C94BF04E4
:100090000C94BF040C94BF040C94BF040C94BF04D4
:1000A0000C94BF040C94BF040C94BF04BD0CD90C79
:1000B000E00C180D290D340D440D570D9A0D9F0DB0
:1000C000F90DF90DF90DA70D2F0E3A0E640E8508E6
:1000D000C30E0C0F680FB60FFD0F00100510B910FE
:1000E0005111BB11AC17B717BC17C117C617CB17E7
:1000F000D017D517DA17DF17E4176A186A18A3188C
:10010000A31814194F1A4F1A4F1A3219A619B719F2
:10011000B719BA1CE11C941EE11C941E2D1D501D24
:10012000941E511E611E36213621492149213F214D
:10013000492149214921362136214421492149219A
:100140004421FD377A585A000004E6D6B44602002E
:10015000210116000000742FE5A3E008BA02385D03
:10016000003D8889C65436C3174FE4EF0A3F668DB9
:10017000D105C145CE66B4E8DF851F2CF59EBB4195
:10018000D912F17F204F73672F9AC243D74C5B651A
:10019000441319B1B3BC75E34629A966D74C1C5E5C
:1001A000426C60D242D95195BCFAC18D306CE69E4A
:1001B000B06A07247A2A185A1E9B96F1D7C773FB98
:1001C00008189FE9E151A0F5BBC6642ADE77E386F3
:1001D0002382C220049FD4A629BD9E7F2A24653C89
:1001E000396A42E0B4E0B2F0E3A53B49E7214AD5E1
:1001F0008BC2A4926DE8E977E9287FBBF9591258C0
:10020000A5D7DA898EB25E865164DFF07CDF9AFE74
:100210003A6FAB0686ABB537157AD471F220C3A31B
:10022000E22C35551E4F75FF6930DF598A10F4995D
:100230001195BA89E5CE8D1D9CA14BFCC7CC2A87B0
:100240007A0C49CAA2FE744A34F9E6110848C0FC87
:1002500049AA1F1C760E2CF67806B533C6DB3C097E
:10026000F74E6055D9C3AB5E505EBE825594872D64
:1002700041987240AA937EBD325B7FF063EE6103CA
:100280001939C5B8659BE404D372C17114A1762CE9
:10029000E14E80B545BB1BD8902CDE0A998E73FCCD
:1002A0006A2426F8F5281B86C40C8926B0EE7E51F8
:1002B000191FB3707D56BD46F6D5B5754B46EC0596
:1002C0001DFC5882A9510BCF8E62BD47D8A29B78E6
:1002D000CE6FAF61A4874EFEB6C955F1992D5EB7BA
:1002E0004774905DE2F3A887DEA97EA9756BB2E042
:1002F0004F3FA86C2BF2185C84AE393011BC88B427
:100300001E6CF1CC664F0A1BFAA75CB59205D0991A
:1003100053A3E27333E397211A3701F0EBB8D4BC4F
:1003200071C43737F8A7CE1B13949E23C25F7D4359
:1003300092E0E7FF3283CBEFB74EB455BEA4B4F3DF
:10034000838FE16777DD8B4B26DAA5DF8D39535339
:1003500092C9A38DC15CF9E5EEC6D302A272C6694B
:1003600009EEB6E80EE4F12C09013DE24E6F178963
:1003700011C4D70ED7BD570B73AB7FFC76D1D59F79
:1003800002F83AF5C936B0FD658C11FB9AF7755D38
:10039000C7217C7FFE7B59550600AEF9057FEBF542
:1003A0002ACB0001D404BB110000F82CED68B1C4C5
:1003B00067FB020000000004595A00000000010021
:1003C0000D0002000100030002000400030005000C
:1003D000040011000500120006001A0007001B00AF
:1003E00008001C0009001D000A001E000B00200070
:1003F0000C000000000000000000000000000000F1
:1004000000000000000000000000000000000000EC
:100410000000000000007E0F00D4FFFFFFC70000B7
:10042000007800000000000000002A2B28000000D7
:100430000000000000000000000000000029000093
:1004400000002C1E3420212224342627252E362D70
:100450003738271E1F202122232425263333362E0A
:1004600037381F0405060708090A0B0C0D0E0F107C
:100470001112131415161718191A1B1C1D2F3130C1
:10048000232D350405060708090A0B0C0D0E0F1065
:100490001112131415161718191A1B1C1D2F3130A1
:1004A000354C05010980A101850319012AB7001502
:1004B0000126B700950175108100C0050C0901A146
:1004C00001850419012AA002150126A002950175D3
:1004D000108100C00660FF0961A1010962150026B4
:1004E000FF009520750881020963150026FF00951D
:1004F0002075089102C005010906A101050719E050
:1005000029E71500250195087501810295017508F7
:1005100081010507190029FF150026FF00950675C2
:1005200008810005081901290595057501910295B5
:100530000175039101C009025B00030100A0FA09E3
:100540000400000103010100092111010001224002
:10055000000705810308000A0904010002030000E6
:100560000009211101000122220007058203200059
:100570000107050303200001090402000103000034
:100580000009211101000122320007058403200027
:100590000A1201000200000008FEFE50580100018E
:1005A0000203011C037600690061006C003A0066DA
:1005B0000036003400630032006200330063000044
:1005C000002C0373006100640065006B0062006131
:1005D0000072006F00750064006900200062006115
:1005E0000072006F0062006F007200640000001A69
:1005F0000373006100640065006B006200610072BB
:10060000006F007500640069000000040309040025
:1006100001010101010101010102020202020202C3
:100620000202030303030303030304040404040496
:10063000040505050505060606060607070707075C
:1006400008080808090909090A0A0A0B0B0B0C0C0F
:100650000C0D0D0D0E0E0E0F0F0F101011111112AB
:100660001213131414151516161717181819191A2A
:100670001A1B1B1C1D1D1E1E1F202021222223248D
:1006800024252626272829292A2B2C2D2D2E2F30CC
:10069000313232333435363738393A3B3C3D3E3FE0
:1006A000404142434445464748494A4C4D4E4F50CD
:1006B000515354555658595A5B5D5E5F616264658B
:1006C0006668696B6C6D6F7072737577787A7B7D15
:1006D0007E8082838587888A8C8E8F919395969869
:1006E0009A9C9EA0A2A3A5A7A9ABADAFB1B3B5B785
:1006F000BABCBEC0C2C4C6C9CBCDCFD1D4D6D8DB5C
:10070000DDDFE2E4E7E9EBEEF0F3F5F8FAFDFFAA4E
:1007100000A9004F0150010100010001000100018A
:1007200000010001000100010001000100010001C1
:100730000001000100010014001A00080015001754
:10074000001C0018000C00120013000000046116C9
:1007500068076409620A000B000D720E740F78338B
:100760007100001D001B000600190005001100109B
:1007700000360037003800A8000153025301512809
:100780000034002A002C000251035304532A011E96
:10079000021F022002210222022302240225022635
:1007A00002270200002900010001000100010001F0
:1007B000002D022E022F0230020000390035020106
:1007C00000010001000100010001003102340201BA
:1007D00000010001000100010001004C00010003C4
:1007E000510100010001001E001F00200021002215
:1007F000002300240025002600270000005000519F
:100800000052004F002B0001002D002E002F003061
:10081000000000E0003500E300E2000100010001FB
:10082000000100310034000100010001000351010A
:10083000000100010001000100010001000100C2EF
:100840005CC45CC35C010010503A003B003C003DBE
:10085000003E000000CB5CC55CC75CC95C01003F8A
:100860000040004100420043000000CC5CC65CC870
:100870005CCA5C01004400450001000100005C010D
:100880000001000100010001000100010001000160
:100890000001000100010001000100010001000150
:1008A0000001000100010001000100000001000141
:1008B0000001000100010001000100010001000130
:1008C0000000000100010001000100010001000121
:1008D0000001000100010001000100010001000110
:1008E0000001000100010001000100010001000001
:1008F00011241FBECFEFDAE0DEBFCDBF04B603FE8A
:1009000027C08091740590917505A0917605B091EE
:1009100077058730904BA740B04BD1F41092740507
:1009200010927505109276051092770514BE84B763
:10093000877F84BF0FB6F894A89580916000886186
:1009400080936000109260000FBEE0E0F8E309952C
:1009500012E0A0E0B1E0E6E5F8E602C005900D92F5
:10096000A033B107D9F725E0A0E3B2E001C01D92A2
:10097000A437B207E1F70E94C1040C9429340C9407
:100980000000CF93DF93CDB7DEB7E6970FB6F894AC
:10099000DEBF0FBECDBF84B7877F84BF0FB6F8948C
:1009A000A89580916000886180936000109260003B
:1009B0000FBE90E080E80FB6F894809361009093AA
:1009C00061000FBE85B7806885BF85B7806885BF29
:1009D00084E695E290933102809330020E944C327B
:1009E0000E94F61E0E94151F8091E2008460809391
:1009F000E200789480916E038823A1F01091E900C1
:100A00001F709091EC00892F817090FD80E8182B69
:100A10001092E9008091E80083FD0E94D41B1F70B2
:100A20001093E90082E084BD93E095BD9AEF97BDF5
:100A300080936E000E947D2B811102C00E946E2B5C
:100A400001E211E0E5E2EE2EE1E0FE2ED8018D910B
:100A50008D018F3F11F00E94A925E016F106B1F734
:100A600005E211E070E3E72E71E0F72EF8018191C5
:100A70008F018F3F11F00E94A925E016F106B1F712
:100A800010923502109234021092500310924F03CC
:100A900010923702109236021092520310925103B4
:100AA000109239021092380210925403109253039C
:100AB00010923B0210923A02109256031092550384
:100AC0000E946528811102C00E94702882E090E097
:100AD0000E941A338093CA020E94542890933302D2
:100AE000809332020E94C0258FE39CE90197F1F7C1
:100AF00000C000000E94C02580914F0380FF08C005
:100B00006FEF7FEF80E090E00E9456330E94EF2D60
:100B100083E090E00E941A330E949A2310929A0276
:100B2000E3EBF2E083EC92E02FEF3FEF2193319380
:100B30008E179F07D9F710923D02E6E5F2E08FEF9E
:100B40009FEF81939193A2E0E636FA07D1F70E94D6
:100B50006528811104C00E9470280E94432C46E041
:100B600050E06CE170E083E793E00E940A338091EB
:100B700073038C7F11F40E94432C49EC842E42E0D5
:100B8000942E20E431E042E451E067EC662E62E00E
:100B9000762E61E070E08614970409F44EC0FA01E5
:100BA000A191AF018A2F82958F7090E0FC01F1A096
:100BB000AF70DA2E8B0101C0000FAA95EAF7F02F73
:100BC000F095FF22DC019196FC9291979296AC9160
:100BD000A02BFC01A2A3D901ED909D01EE2DE29581
:100BE000EF70F0E0F1A0BE2DBF70EB2E5B0101C0F5
:100BF000AA0CBA95EAF7CA2CC094FC20F1A2F2A084
:100C0000FA28F2A2DC0190968C9190E002C09595B2
:100C10008795DA94E2F78170E0A1F0E002C0F595E3
:100C2000E795EA94E2F7E0FF02C092E001C090E0AD
:100C3000892BF30181933F01AECF10923C0284E0F7
:100C400091E0909369058093680580916E038530EB
:100C500009F048C030E4F32E00E112E180916E0308
:100C6000853009F03BC080916E03843019F11092F9
:100C70006C0528E130E00FB6F894A8952093600049
:100C80000FBEF092600083B7817F846083BF83B71B
:100C9000816083BF7894889583B78E7F83BF0FB6BA
:100CA000F894A8958091600088618093600010920C
:100CB00060000FBE80916403882309F4CFCF0E94A7
:100CC000C025EFE4F3E081919191892B09F097C75A
:100CD00067E573E06E177F07B1F7C0CF0E949E23D0
:100CE0000E94DC2E0E94C02581110E94482EEFE454
:100CF000F3E0ABECB2E0C12CD12C0C2DA190B19063
:100D00008D919D918A259B25009709F450C110E093
:100D1000EE24E394F12C9C012E213F21232B09F496
:100D200040C11BA70CA7AE20BF2081E0A114B104D5
:100D300009F480E08DA70E94542E8160782F9FA730
:100D40008EA74BA55CA56DA58FA50E94D312F601B9
:100D5000EE0FFF1FE553FD4F80819181E826F926B4
:100D6000F182E082AB2849F0AE014F5F5F4F612F07
:100D7000802F0E94292C982E01C0912CE92CF12C57
:100D800080913D02D701A80FB11D19976CF188E041
:100D900090E05C01AE18BF08B701625C7D4FA50111
:100DA0008EE392E00E941934B7016A5B7D4FA50182
:100DB00086E492E00E941934A501440F551FB70143
:100DC000660F771F6A5A7D4F86E592E00E941934BC
:100DD000B701625B7D4FA5018EE492E00E94193459
:100DE00088E0891980933D02F0903D02FE01319622
:100DF0005F0160E0862F8F0D961649F190E0D501D6
:100E00007D915D01272F30E0DC01A35CBD4FA9017E
:100E1000440F551F41585E4FFA01408111964C9383
:100E20001197220F331F2D5A3E4FF90125A5199610
:100E30002C93199751967C93880F991FDC01A35C22
:100E4000BD4F5A961C921E9259976F5FD3CF8093D5
:100E50003D02809173038C7F883209F0C0C0AFEFF0
:100E6000A00FFF24F394F00E3FEF310F21E0210F8C
:100E7000311780F48BE08C9DF0018D9DF00D1124D5
:100E8000E259FD4FE30FF11D408150E1450F08F499
:100E90004FEF4083412F50E07BE07C9DC0017D9D62
:100EA000900D112482599D4FFC01E40FF51F7081B4
:100EB000B0E26B2F760F08F47FEF70832B3051F088
:100EC000FC01E20FF11D708180E1682F760F08F4BC
:100ED0007FEF708374E0F71609F431C0EF2CF12C2A
:100EE000311788F48BE08E9DF0018F9DF00D112459
:100EF000E259FD4FE30FF11D80819DE0BC01670FBA
:100F000008F46FEF6083EBE0EE9DC001EF9D900D64
:100F1000112482599D4FFC01E40FF51F608170E19F
:100F2000670F08F46FEF60832B3049F0FC01E20F8C
:100F3000F11D60817DE0670F08F46FEF6083A017FB
:100F400008F04DC0B0E0311780F48BE08A9FF001CB
:100F50008B9FF00D1124E259FD4FE30FF11D3081FD
:100F60006DE0360F08F43FEF30838BE08A9FF0018D
:100F70008B9FF00D1124E259FD4FDF01A40FB51F27
:100F80003C9140E1340F08F43FEF3C932B3039F1B2
:100F9000E20FF11D20813DE0230F08F42FEF2083A5
:100FA0001EC01F5FEE0CFF1C1B3009F0B4CE8FEF8C
:100FB000C81AD80A94E0C916D10409F09ECE8FEF62
:100FC00088AB89AB1AAA0E94542E8160782F9CAB03
:100FD0008BAB48A959A96AA98CA90E94D312809108
:100FE000660290916702A0916802B09169022FB7E2
:100FF000F894C0906D05D0906E05E0906F05F0906C
:1010000070052FBFC81AD90AEA0AFB0A0E94482EA7
:1010100060936602709367028093680290936902FE
:10102000A0913D02EDE3F2E02A2F30E088248A947B
:10103000982CA12CB12C8C189D08AE08BF08A317C2
:1010400099F0418D528D2A01612C712C84149504E4
:10105000A604B70410F4215004C04C0D5D1D528F3E
:10106000418F3F5F3296EBCF20933D023091730367
:10107000232F237021F0B32EB694B69401C0B12C67
:10108000209114012130E9F038F0223009F474C0C5
:10109000233009F47AC09DC01092110160936F0350
:1010A00070937003809371039093720389E2EDE370
:1010B000F2E0AAE9B2E001900D928A95E1F781E0B1
:1010C00058C090910F01B9120DC0832F837090E02A
:1010D00040910E0150E021E08417950709F420E0CB
:1010E000822F01C081E08170809313018091780389
:1010F00090911201981709F4A2C58093120140E063
:1011000060E080E00E94252C9AC5F0901101FF0C50
:10111000FF0CFF0CF8E0EF2EEF0CA8E2AE1510F478
:10112000E8E2EE2EC0907503A0907603209177033D
:1011300070E4D72E1D2D129F112D1124D12EFE14D7
:1011400008F4FEC581E027E22E1510F40C94E61198
:10115000909111019F5F9093110181113AC082E03B
:101160008093140180911301811133C0B11031C0FB
:1011700083E0809314012DC0B0920F01832F837000
:1011800080930E010E94372AF3CF8091EB038111E7
:101190000E943B2C1092EB0340916F03509170031F
:1011A00060917103709172032FB7F89480916D056F
:1011B00090916E05A0916F05B09170052FBF841BB3
:1011C000950BA60BB70B4097A105B10510F0109237
:1011D000140185ECE82E82E0F82E03EC12E097EC87
:1011E000692E92E0792E20E4C22E21E0D22E32E444
:1011F000832E31E0932E5301212C312C44E0442ED8
:10120000512CF50181915F01E82FEE0FEE0FD40113
:101210002D914D01A22FA295AF70B0E090968C91C8
:1012200090E02F7002C0959587952A95E2F79C0172
:1012300021703327D6018D916D01A82FA295AF7033
:10124000B0E090964C9150E08F7002C05595479554
:101250008A95E2F7CA018170992740FF02C082E0B7
:1012600090E0822B932B8E2BF30181933F018F70A3
:10127000E82FF0E0E05DFE4F9081D7018C91890F5F
:101280008C93843054F0F80180818F5F808360E01C
:10129000832D0E94FC2A21E001C020E0D7018C911F
:1012A0008D3F4CF4F80180818150808361E0832D73
:1012B0000E94FC2A21E0D7018C91082E000C990B8A
:1012C000B2010E94EB33F70181937F01222A33940C
:1012D0000F5F1F4FF2E03F1294CF21100E94482E63
:1012E0000E94DC2E9091C902891721F00E94DC2E09
:1012F0008093C90280916E03843009F0A6CC83E00C
:101300008093E9008091E80082FF9FCC8091E80003
:1013100085FF23C00E944B2081111DC000E2E02EFA
:10132000F12C8E010F5F1F4F09C08091F100D80191
:101330008D938D01B1E0EB1AF10869F08091E8001E
:1013400085FDF3CF8091E8008B778093E8000E94C1
:101350004B20882399F391E001C090E08091E80050
:101360008B778093E800992309F46FCCE090B9045F
:10137000F090BA048981E114F10459F08E3F09F02C
:1013800038C49A819330A8F19550933008F031C455
:1013900030C08B3009F4CEC248F5853009F485C0E1
:1013A000B8F4823009F442C030F4813009F01FC42F
:1013B0001A8289E0BDC3833009F468C0843009F023
:1013C00016C44C816B818A810E9402329D8335C490
:1013D000873009F478C008F473C0883009F4E9C094
:1013E000893009F004C40E943B2C03C4803109F405
:1013F000E3C18E010F5F1F4F813160F48D3009F41E
:101400007DC108F479C18E3009F47CC18F3009F4B4
:10141000A4C1EDC3823109F4D4C108F4D0C1833131
:1014200009F4F9C18E3F09F49CC2E1C38A8182307C
:1014300009F4FCC3833051F0813009F0D8C30E9415
:10144000482E9B838C837D836E83D3C38091B504A8
:101450009091B604892B09F4CCC380914F039091ED
:1014600050039B838C8380915103909152039D8301
:101470008E8380915303909154039F83888780913A
:1014800055039091560399878A87B3C38A81823026
:1014900009F0ADC36B817C818D819E810E940534F2
:1014A00086E290E00E943833A4C32D813E8132272A
:1014B000232732274C816B818A810E942E3199C368
:1014C0000E94643196C38A81813421F0823409F408
:1014D0003AC08FC34B815C8180917303982F9370C6
:1014E0004115510539F49111109214018C7F8093AC
:1014F00073031EC0911102C0109214018C7F816091
:10150000809373032AEB33E0F9013296859194912D
:10151000F901659174914617570739F02C5F3F4FD9
:10152000E3E0223F3E0781F780E060E00E94F72B76
:101530008D81809377038E8120E048856F8190E0D4
:101540000E949C2B56C34B815C818D81F3E08F9F61
:10155000900111242E3131050CF04BC3DE011196A0
:10156000FA01EE0FFF1FE40FF51FE952FD4F20E0D7
:1015700030E090E02817390708F03BC31396BA0112
:10158000620F731F6832710508F033C312966C91B5
:101590001297608313966C911397618314966C91E4
:1015A00014976D3308F06CE362832F5F3F4F3396DF
:1015B000E1CF8A81823409F442C028F4803451F0AA
:1015C000813471F016C3833409F459C0843409F4AA
:1015D00059C00FC381E08B831C828CE38D8309C3C8
:1015E00080917303982F9370B1F08695869590E063
:1015F0002AEB33E062EF73E0F9013296A591B491E2
:10160000F901459154918A179B0741F02C5F3F4F98
:101610006217730789F790E080E002C0942F852F4E
:101620009B838C83809177038D83809174038E8359
:10163000809175038F83809176038887DAC20B814E
:101640001C814EE150E06FEF70E0CE0103960E94E6
:1016500022348AEB93E0DE0113962EE1FC014591E2
:1016600054910417150728F4223018F04D935D9318
:101670002250049633E0823F930781F7BAC288E292
:101680008B839CC18B8190E0883291050CF0B1C2B4
:10169000FC01EE0FFF1FE158FE4F20812B83FC0160
:1016A000EE0FFF1FED5AFE4F25A52C83FC01E153E1
:1016B000FE4F20812D832FEF2F832E8363E571E072
:1016C00040E050E020E030E0FB01E20FF31FE0815A
:1016D000F0E08E179F0719F44E832F838AC22F5F85
:1016E0003F4F2B30310581F74F5F5F4F655F7F4F75
:1016F0004430510539F77DC280E136C281E08A83EA
:1017000089EA16C2EA80FB80FE24EF24FE24AC8026
:10171000B12C4DE1A416B10408F06BC26801C701F9
:10172000895A9D4F9601201B310B2A153B0508F065
:1017300060C269EAE61661E0F60630F40E941A33E8
:10174000D60114968C9302C0F6011482FFEFEF1AB3
:10175000FF0A2FEFC21AD20AE2CF8091B50490910E
:10176000B604892B09F445C2EA80FB80FE24EF24ED
:10177000FE24CC80D12C3DE1C316D10408F039C23F
:101780005801C701895A9D4F9501201B310B2C151B
:101790003D0508F02EC249EAE41641E0F40628F4BB
:1017A000D50114966C910E943833BFEFEB1AFB0AF7
:1017B000EFEFAE1ABE0AE5CF0E94B6301AC285E03E
:1017C000D3C1EA80FB80FE24EF24FE24AC80B12C40
:1017D000FDE1AF16B10408F00CC26801C70187969D
:1017E0009601201B310B2A153B0508F002C228EB9D
:1017F000E21621E0F20630F40E941A33D601149664
:101800008C9302C0F6011482FFEFEF1AFF0A2FEF4C
:10181000C21AD20AE3CFEA80FB80FE24EF24FE2422
:10182000AC80B12C3DE1A316B10408F0E2C148EB55
:10183000E41641E0F40608F0DCC188EB91E08E1973
:101840009F098A159B0508F4D4C1370167E2660E2B
:10185000711C8091B5049091B604892B11F0680138
:1018600060C0E0FE0FC0C70186960E941A3390E068
:10187000982F88272D81822B81159C4531F48FEF7D
:101880008D8303C0C12CD12C03C0CC24C394D12C94
:10189000C5018E0D9F1D450180FF1BC081E0881A88
:1018A000910855E0452E512C4C0E5D1E480C591CDC
:1018B000C3018A0D9B1D0E941A33D2012C9130E086
:1018C000322F2227282B21153C4519F48FEFF201E6
:1018D0008083F801EC0DFD1D2FEFCF01801B910BD4
:1018E0008815990508F0BBCF848190E0982F882750
:1018F0003581832B81159C4511F4248325833296F1
:10190000ECCF48EBE41641E0F40628F4D601149637
:101910006C910E943833BFEFEB1AFB0AEFEFCE1A3F
:10192000DE0AC70187969601201B310B2A153B055D
:1019300040F35FC18091B5049091B604892B09F4FE
:1019400058C1CE0101960E94AA20FFEF11EE24E0BB
:10195000F15010402040E1F700C000000E94EF2D40
:1019600048C1EA818E2F90E08E30910508F041C188
:10197000FC01EA5AFF4F0C94FF3388E0E6E1F1E006
:10198000DE01919601900D928A95E1F780E2D801EF
:101990001D928A95E9F784E0898388E0FE01B1967B
:1019A000DE01159601900D928A95E1F781E08D8711
:1019B00020C188E7898382E08A831B821C8219C147
:1019C0008C8190E0982F88272B81820F911D092E02
:1019D000000CAA0BBB0B35E0880F991FAA1FBB1F79
:1019E0003A95D1F7AC01BD01405E5F4F6F4F7F4F1D
:1019F000481759076A077B0708F4FBC08837E2E0FD
:101A00009E07A105B10508F0F4C04937F2E05F0771
:101A10006105710520F048E752E060E070E0481B86
:101A2000590BBC016E5B7E4FC8010E940133E1C0BF
:101A30001B810C8140E0602F812F0E94FE30998332
:101A40008A8341E0602F812F0E94FE309B838C832C
:101A5000D0C02E813F813227232732274D816C81D0
:101A60008B810E94C630C5C040E250E06FEF70E04D
:101A7000C8010E9422348091B5048983EA821B82C6
:101A80001C821D8281E0D9C081E090E09093BA046D
:101A90008093B90482E390E09093D6028093D502BC
:101AA0000E94542E9093D4028093D302A2C0EF28B8
:101AB000B9F180914F03909150039C013695279581
:101AC0008170182F12238091D3029091D4020E942A
:101AD000392E85369105F0F01123E1F00E94542E45
:101AE0009093D4028093D3028091D5029091D60234
:101AF00001979093D6028093D502892B89F4109296
:101B0000BA041092B90481E090E09093B6048093F7
:101B1000B50406C082E390E09093D6028093D5028C
:101B20008091B50489838091B9048A838091D5021C
:101B30008B835FC01092B6041092B5045AC040E285
:101B400050E06FEF70E0C8010E94223452C08B81D8
:101B5000833061F0843061F181114BC080E2D801A3
:101B60001D928A95E9F788E08A8343C06C81CE0193
:101B700081962AE0FC0111922A95E9F7683060F419
:101B8000FAE06F9FB0011124695F7D4F4AE050E099
:101B90000E940A3380E001C08FEF89838AE0FE0152
:101BA000B196DE01129601900D928A95E1F721C05F
:101BB0006C818AE0FE013596DE01919601900D92CE
:101BC0008A95E1F7683070F41AE0619FB001112442
:101BD000695F7D4F4AE050E0CE0181960E945C3300
:101BE00080E001C08FEF89830E944C3202C08FEFEA
:101BF0008983CE0101960E94AA200C94250609BD76
:101C000019BD09B400FEFDCF8091D8008F7D80936F
:101C1000D8008091E00082608093E0008091E00035
:101C200081FDFCCF0E949E230C942E0686E290E05C
:101C30000E941A331B821C821D828E83DACF8B2D69
:101C400090E08E30910530F0809111018F5F80938C
:101C5000110185CAFC01EC59FF4F0C94FF338091B0
:101C60001301882309F4B2C340E060E080E00E94E1
:101C7000252CACC310911101110F110F110F08E0A9
:101C8000010F093208F008E2609174037091750346
:101C9000809176030E94052DF62EE72ED82E101780
:101CA00008F0A6C1E12FF0E0DF01A153BE4F8C91F7
:101CB00090911201982331F02D2D4F2D6E2DCF01D3
:101CC0000E94272C1F5FEBCF10911101110F110FF4
:101CD000110F08E0010F093208F008E2E0907503E7
:101CE000F0907603D09074036D2D7E2D8F2D0E9481
:101CF000052DC62EA72E982E609177036D0D7E2D93
:101D00008F2D0E94052DF62EE72ED82E101708F0E5
:101D10006FC1812F90E0FC01E153FE4F3081209193
:101D20001201232359F030FF04C02D2D4F2D6E2DAD
:101D300003C0292D4C2D6A2D0E94272C1F5FE6CF52
:101D40000F2D10E0F801E153FE4F908180911201B8
:101D50008923B9F0F801EE0FFF1FED5AFE4F85A55C
:101D600082958F70609174038D9D600D11247C2D80
:101D70008A2D0E94052D462F282F672FC8010E940B
:101D8000272CF394DCC9F0901101FF0CFF0CFF0C21
:101D900058E0E52EEF0C38E23E1510F448E2E42E50
:101DA000C0907503A09076032091770330E4D32E82
:101DB0004D2D429F412D1124D42EFE1438F50F2DA8
:101DC00010E0F801E153FE4F9081809112018923C8
:101DD000D9F0F801EE0FFF1FE158FE4F6081D69E4B
:101DE000B001112495E0759567959A95E1F780917A
:101DF0007403680F7C2D8A2D0E94052D462F282FF5
:101E0000672FC8010E94272CF394D7CF81E067E2A7
:101E10006E1508F09DC9DAC2F0901101FF0CFF0C9D
:101E2000FF0C08E0E02EEF0C78E27E1510F418E2CB
:101E3000E12E60917703669580916F039091700316
:101E40000E94FB2CD82EFE1408F0BAC20F2D10E011
:101E5000F801E153FE4F9081809112018923B1F185
:101E6000F801EE0FFF1FE158FE4F408150E044564D
:101E70005109F801EE0FFF1FED5AFE4F25A530E086
:101E800020523109449FB001459F700D700D1124FF
:101E9000229FC001239F900D900D1124860F971F44
:101EA0000E94A12C90917503A3E08A9FB001112498
:101EB000759567956D0D792F809176030E94052D9C
:101EC000462F282F672FC8010E94272CF394BBCFE1
:101ED00010911101110F110F110F68E0D62ED10EC4
:101EE000E8E2ED1510F458E2D52E6091770366957F
:101EF00080916F03909170030E94FB2CC82E1D15DA
:101F000078F5E12EF12CF701E153FE4F908180919D
:101F10001201892319F1F701EE0FFF1FED5AFE4F51
:101F200025A530E020523109F701EE0FFF1FE158DF
:101F3000FE4F408150E04456510960917403709106
:101F40007503809176030C2D0E94D22C0E94052DE2
:101F5000462F282F672FC7010E94272C1F5FCFCF46
:101F600081E0F7E2FD1508F0F3C830C210911101CD
:101F7000110F110F110F08E0010F093208F008E2EC
:101F8000E0907503F0907603D0907403609177032E
:101F900066956695669580916F03909170030E9497
:101FA000FB2C0E945C2C805887FD8195880F682F40
:101FB0002CE0629F612D11246D0D7E2D8F2D0E94CE
:101FC000052DF62EE72ED82E101790F4E12FF0E015
:101FD000DF01A153BE4F8C9190911201982331F0F3
:101FE0002D2D4F2D6E2DCF010E94272C1F5FECCF82
:101FF00081E0083208F4ACC8E9C18DE79CE202C078
:1020000086E29AE20E94871BA3C800911101000F8B
:10201000000F000F18E0100F1DAB1D3210F01CE276
:102020001DAB80911301882361F040E060E080E007
:102030000E94252C8CE2EEE6F2E0DF011D928A95EB
:10204000E9F780911101811115C080916B02909187
:102050006C020E94392E21E08931910508F420E0BC
:1020600020936A02499730F00E94542E90936C029C
:1020700080936B0210E0BDA98B2E912C9BE0A92EC2
:10208000FE0131963F012AEAC22E081519050CF00F
:1020900069C02801F3E04F22552418013594279494
:1020A00035942794A49CF001A59CF00D1124E259CD
:1020B000FD4FE20DF31DD080A301622D842D0E94FF
:1020C000292C8EAB73018E2D8619EEA98E1708F080
:1020D00032C0D701EC91F0E0E153FE4F9081809146
:1020E0001201892321F13D2D25E5321B08F430E052
:1020F000709175032C2D4D2D240F08F42FEF409176
:10210000760362E0269F200D11242E5F249F212D4F
:1021100011246C2D631B822F0E94052D462FD701A1
:102120009C91282F672F892F90E00E94272CBFEFCA
:10213000EB1AFB0AC8CF80916A02882381F02D2D0B
:1021400031E0231B08F420E0A49CC001A59C900D65
:10215000112482599D4FFC01E20DF31D20830F5F76
:102160001F4F93CF81E01DA91C3210F40C94A808D6
:102170002DC180911301882371F040E060E080E080
:102180000E94252C8CE2EEE6F2E0DF011D928A959A
:10219000E9F710926D02BEE6EB2EB2E0FB2E912C19
:1021A00088248A9410EC712E0FE2C02ED12C870166
:1021B000A12CA1100CC080916D02811108C00E9459
:1021C000F132853595401CF4F701808206C0D801B4
:1021D0008C9181508E3F08F48C93AE014F5F5F4F1E
:1021E000692D8A2D0E94292C882311F1F801408144
:1021F0003981413D70F050E0405D5109749EC0014D
:10220000759E900D1124B6010E94D733262F4FEFF3
:102210000BC0FFEF4F9FC001112460ED70E00E94E2
:10222000D733462F20E060E0832F90E00E94272CD8
:10223000A394055F1F4F24E0A212BBCF93943FEFFE
:10224000E31AF30A4BE09412B2CF80916D028F5FD4
:102250008D3118F480936D02B9C010926D0224E89C
:1022600032E083E04EEFAEE6B2E0F9019BE083306E
:1022700041F491965C9191975F3F19F491964C933C
:10228000919750815F3F11F440835387915031966D
:1022900011969111ECCF81502B5031098111E3CF70
:1022A00095C0D0901101DD0CDD0CDD0CA8E0CA2E2C
:1022B000CD0C68E26C1510F4F8E2CF2E2091770374
:1022C00031E0230F08F42FEF30E040E050E06FEFF3
:1022D0007FEF80E090E00E9474338901AA24A394E8
:1022E000DC1408F041C0ED2CF12CF701E153FE4F56
:1022F0009081809112018923A9F190919A029150C5
:1023000097FD15C0292F092E000C330BF901E65655
:10231000FD4F8189D812F3CF220F331FF901E65602
:10232000FD4F218D328D2017310748F701C09801EC
:10233000609177037A2D670F08F46FEFC9010E944F
:10234000FB2CAC016091740370917503809176034E
:102350000E94562C0E94052D462F282F672FC7015B
:102360000E94272CD394BCCF81E097E29C1510F0FB
:102370000C94A8082BC0F0901101FF0CFF0CFF0C6F
:1023800078E0E72EEF0CA8E2AE1510F468E2E62E36
:10239000FE14B0F40F2D10E0F801EE0FFF1FE00F58
:1023A000F11FE952FD4F6081718182810E94052DEC
:1023B000462F282F672FC8010E94272CF394E8CFBF
:1023C00081E0B7E2BE1510F00C94A80880E00C94F0
:1023D000A8081F93CF93DF9300D000D01F92CDB7F2
:1023E000DEB7FC0186819781009709F5CF0125E0D2
:1023F000DE01119601900D922A95E1F7FC012281F0
:1024000089819A81222359F0662349F00E94DE20B7
:10241000182F682F89819A810E94522303C00E943D
:102420002223182F69817A81812F0E9430320F90E8
:102430000F900F900F900F90DF91CF911F91089503
:10244000AF92BF92CF92DF92EF92FF920F931F93C2
:10245000CF93DF93EC018AE0A82E2881222309F490
:1024600097C0213009F041C08981813039F48E0153
:102470000E5F1F4F8A810E94482508C0823041F4B8
:102480008E010E5F1F4F8A810E94AC24E8017EC03E
:10249000833039F48E010E5F1F4F8A810E945524CC
:1024A000F5CF843011F0219671C02A81229680E008
:1024B00090E030E0205331092A30310558F4A89ECD
:1024C000A001A99E500D1124C901840F951F2196CA
:1024D0002881EFCF009709F459C0EFE9FFE0319769
:1024E000F1F700C000000197F5CFE22FF0E0EE5DBC
:1024F000FB4FB490822F86958695869590E0FC01DF
:10250000EE5EFB4FE4902770F12C022E02C0F59492
:10251000E7940A94E2F7F1E0EF22FF24FC01EE5F7A
:10252000FB4FC490D12C022E02C0D594C7940A94BC
:10253000E2F731E0C322DD24FC01EE50FC4F0491B0
:1025400010E002C0159507952A95E2F70170112752
:10255000E114F10419F081EE0E94AC24C114D104FD
:1025600019F086EE0E94AC248B2D0E944825CD28C0
:1025700019F086EE0E945524EF2819F081EE0E9492
:102580005524012B19F08CE20E944825219665CF35
:10259000DF91CF911F910F91FF90EF90DF90CF903F
:1025A000BF90AF9008952F923F924F925F926F929B
:1025B0007F928F929F92AF92BF92CF92DF92EF92D3
:1025C000FF920F931F93CF93DF93CDB7DEB76A9738
:1025D0000FB6F894DEBF0FBECDBF498B5A8B6B8B05
:1025E0007C8B8D8B61111092E3038E01075F1F4F6F
:1025F00088E0F80111928A95E9F785E0FE0171966D
:10260000D80101900D928A95E1F70E94542E2091F5
:10261000DF033091E003821B930B8838934140F035
:102620008091E10382FB992790F981E0892701C01D
:1026300080E080FF03C082E00E944A290E94542E5D
:102640002091E5033091E603821B930B8838934178
:1026500010F00E94DA2899858A852C853D85232BE8
:1026600031F08F3F31F481E09F3F19F403C081E0E6
:1026700001C080E080FDCAC161E0C8010E94E9118B
:102680006C0187EFC8168CE5D80639F48B85882352
:10269000B9F081E080931501B9C198EFC9169CE5A6
:1026A000D90631F48B85882359F00E94862FAEC15C
:1026B000E9EFCE16ECE5DE0619F48B85811111C029
:1026C00002E215E0712CA12CB12C88248394912C6A
:1026D00055245394CE0101969F8B8E8BF7E04F2E9D
:1026E00049C0809115018823A1F2DFCFC616D70615
:1026F00009F097019F5F7901292F30E0F901EE0F72
:10270000FF1FE40FF51F608171816115710571F77D
:10271000FFEFEF16FF0609F42DC1F8016481611186
:1027200031C020911501822F81706B84F8013581B1
:102730002681662009F4C6C0882309F4C3C0332368
:1027400021F1940102C0220F331F9A95E2F7215024
:102750003109F801868190E02817390759F1762868
:10276000FFEFAF1ABF0A095F1F4F28E0A216B1049E
:1027700009F402C1F80140815181EE24EA94FE2C53
:1027800090E0BACF20E030E0CECFA40101C0440FEA
:10279000EA94EAF7242B26832091BE043091BF04EB
:1027A0002233310570F622E330E03093BF042093EA
:1027B000BE04C7CF8091640590916505009729F00C
:1027C0000E94392EC39708F01EC180916205F091D6
:1027D0006305F88FE0E0F0E0288D821709F460C00F
:1027E000282F30E0F901EE0FFF1FE65AFA4F208044
:1027F0003180429CF001439CF00D1124EE5DFA4FB4
:10280000F080E18050E090E040E0EF2DFE2DE40FFD
:10281000F11DE40FF11DA081B1811097D1F0F801F5
:10282000F081F98FF801F181FA8F90E0E98DFA8D4E
:10283000E90FF11DE90FF11D6081718161157105CD
:1028400031F0A617B70709F451E09F5FEFCF4F5F54
:10285000DCCF5523F9F09417C8F0429CF001439C5B
:10286000F00D1124EE5DFA4F3097B1F054820E173F
:102870001F0709F474CF9091620589130DC0C90137
:102880000196837099278093620506C00115110592
:1028900009F0B9C0E0E0F0E0C901019683709CCF77
:1028A0000E171F0709F45BCF90E0FC01EE0FFF1F2E
:1028B000E65AFA4FB182A0820196837099278093DD
:1028C00063054DCF311112C0A40102C0440F551F42
:1028D0009A95E2F74150510930E042175307E9F564
:1028E0006623E1F1C5010E94E82E37C0822F90E0F7
:1028F0009C0121503109282339230E2C02C09595C3
:1029000087950A94E2F7232B31F580FF24C0F80164
:1029100082819381892BD9F088E0EE89FF89119219
:102920008A95E9F78EEF89838A830E94542E81600D
:10293000582F9D838C83F801828193818F839887A0
:1029400029813A814B816D817E810E94A923F80102
:10295000158281E003C0817001C080E0940101C054
:10296000220FEA94EAF72095F8019681292326831D
:10297000682EF5CE612CF3CE8B85882381F17720EC
:1029800071F10E94542E90936505809364058091A7
:10299000C104883008F044C091E0980F9093C104BE
:1029A00098E0FE013996DE01119601900D929A95FC
:1029B000E1F7ECE08E9FC00111248E539B4F28E07D
:1029C000FE013196DC0101900D922A95E1F72FEF7F
:1029D0003FEFFC0131872087D386C28621C09091CA
:1029E000620580916305981719F00E94942F08C022
:1029F0000E94162F10926505109264050E94752F93
:102A0000772021F00DC0F8015482A9CE29853A859E
:102A10004B855C856D857E858F8598890E94A9236D
:102A20006A960FB6F894DEBF0FBECDBFDF91CF918F
:102A30001F910F91FF90EF90DF90CF90BF90AF90DC
:102A40009F908F907F906F905F904F903F902F90CE
:102A500008958F929F92AF92BF92CF92DF92EF92A2
:102A6000FF920F931F93CF93DF9300D000D0CDB789
:102A7000DEB7FC018081918123813481232B31F0E9
:102A80009F3F31F491E08F3F19F403C091E001C002
:102A900090E090FD39C57F0161E0CF010E94E9110E
:102AA0008C01F7019281992309F482C09801225187
:102AB0003F452031310508F016C58FEF93E00E94A5
:102AC0001A3381117EC09EEED92ED00E07E512E09A
:102AD000DD2071F00115F4E01F0709F472C0C80190
:102AE0000E941A33811101C0DA940F5F1F4FF0CF9B
:102AF00019821A821B821C82AA24AA9468012FEFD1
:102B0000C21AD20AC8010E941A3389831A82882302
:102B100009F457C0813009F046C0480182E0880EB0
:102B2000911CC6010E941A338A83882309F449C084
:102B30009FEF980F933060F4680193E0C90ED11CA9
:102B4000C4010E941A338B8381112DC08601D6CF18
:102B5000843011F06401FACFC4010E941A33B82EF8
:102B60006801E4E0CE0ED11CC80103960E941A331E
:102B7000BB2039F1882329F1282F30E02150310979
:102B8000A29EA001A39E500D11248B2D90E00197D1
:102B9000840F951F0197D0F2EFE9FFE03197F1F72D
:102BA00000C00000F7CFCE0101960E942012CECFC8
:102BB0000031FFE51F0799F481E00E9483230E9402
:102BC0007C1B8091E103877009F49EC4F701828128
:102BD000882309F499C482E00E944A2995C40131EE
:102BE0002FE5120711F482E0E8CF0933110571F4E3
:102BF000992309F494C180913C02882319F0109222
:102C00003C024EC081E080933C024AC0033F2CE569
:102C1000120741F190F4083DECE51E07E9F0093D8B
:102C2000FCE51F0789F1073D2CE51207B1F506E227
:102C300021EE41EE67ED7CE52CC0053F8CE51807E1
:102C4000E9F0B0F0063FFCE51F0739F507E225EE95
:102C500046EE66EF7CE51DC007E225EE45EE68ED29
:102C60007CE517C006E221EE40EE63EF7CE511C083
:102C700007E225EE44EE64EF7CE50BC006E221EEB0
:102C800042EE65EF7CE505C008E221E045EE69ED26
:102C90007CE5C7010E94433094CF992309F43FC1DA
:102CA0001092BD0402302CE5120708F422C106314F
:102CB0008CE5180738F098012A5F3C45293031052A
:102CC00008F017C10E945428909333028093320277
:102CD00000319CE5190709F4C3C008F041C0083071
:102CE000FCE51F0709F49AC0F0F404308CE51807DE
:102CF00009F487C068F40230ECE51E0709F477C0D8
:102D000003301C4509F0E5C080913202826076C034
:102D100006302CE5120709F46EC008F07BC08091E4
:102D2000320288606BC00C309CE5190709F485C03D
:102D300068F40A30FCE51F0709F474C008F079C094
:102D40000E949E2380913202806858C00E308CE52C
:102D5000180709F476C008F07FC0809132028BC05A
:102D60000B3FECE51E0709F44FC018F503312CE5C5
:102D7000120709F47DC078F401319CE5190709F4C4
:102D800073C002311C4509F0A4C00E949E238091AB
:102D900032028F7733C00531FCE51F0709F472C09A
:102DA00008F486C00A3F1C4509F093C080913302A5
:102DB0003EC00F3F9CE5190709F45FC058F40D3F72
:102DC000FCE51F0709F444C008F43FC080913302BA
:102DD00082602DC001308DE5180709F475C008F434
:102DE0005DC002301D4509F074C060E06EC0809186
:102DF0003202816003C0809132028061809332028E
:102E000068C08091320211C0809133028260809349
:102E100033025FC0809132028062F0CF8091320233
:102E20008064ECCF8091320288608460E7CF81605B
:102E3000EECF809132028E7FE1CF809132028D7F82
:102E4000DDCF80913202877FD9CF8091330218C0C5
:102E5000809133028D7FDBCF809132028F7ECECF87
:102E6000809132028F7DCACF809132028F7BC6CF94
:102E700080913202877F8B7FC1CF809133028D7F1B
:102E80008E7FC5CF8091320282FB222720F991E00C
:102E9000922790FB82F990FB83F9B0CF80913302A7
:102EA000982F909591708E7F892B90FB81F9AFCFF1
:102EB0000E949E238091320287FB222720F991E015
:102EC000922790FB87F99ACF61E08EE090E00E9414
:102ED0003833609132021091330284E090E00E9416
:102EE0003833612F82E290E00E9438330E949E23A3
:102EF00068CE8091E4030631FCE51F0709F58A7A64
:102F000091E009F490E090935703882311F065E372
:102F100001C069E28CE893E00E94962E0EC0063153
:102F20001C4509F08BC080915703882309F4EAC23D
:102F300065E38CE893E00E94892E0E94EC2841CE44
:102F40008272F801E25CFC45EB30F10508F043C009
:102F5000EE58FF4F0C94FF338091730391E0892763
:102F600080937303109214019093EB032ACE40E1F7
:102F70005CE26AE17CE22CC04AE15CE260E17CE276
:102F800027C043EE5BE26DEE7BE222C04DEE5BE2DA
:102F900063EE7BE21DC049EC5BE266ED7BE218C0AC
:102FA00046ED5BE269EC7BE213C04FEA5BE26CEB5F
:102FB0007BE20EC04CEB5BE26FEA7BE209C04EE0C5
:102FC0005AE26AE17AE204C04AE15AE26EE07AE249
:102FD0000E94962BF6CD992389F10A35FDE51F074E
:102FE00041F150F401158CE51807A9F00E3D1C4580
:102FF00029F50E947028E5CD0B35EDE51E07D9F0C7
:103000000C351D45D9F48091330282FB882780F965
:1030100091E0892711C00E949E232FEF84E39CE05A
:10302000215080409040E1F700C000000E94EF2D49
:10303000C8CD81E001C080E00E942929F701868186
:1030400097810097B9F4F70182810081118188236B
:1030500049F0C8010E94DE20D82E682FC8010E94C6
:10306000522304C0C8010E942223D82EB8018D2DFE
:103070000E9430320E94CB26D82E192FF701A28051
:10308000058102950F708091E103877099F0AA2065
:1030900089F0892F807F803421F080E28D0D883087
:1030A00048F082E00E944A298091E1038770CC2495
:1030B000C3948111C12CB12EB2948FE0B8228B2D14
:1030C00090E08C30910508F0EAC1FC01E358FF4F15
:1030D0000C94FF33812F807F1F70882311F012958D
:1030E000107FAA20B9F0112309F4BBC180E28D0D35
:1030F000883010F0D11006C09091E403192B109382
:10310000E40305C09091E303192B1093E3030E949D
:10311000EC28A7C18D2D0E945524112309F4BFC1AD
:1031200080E28D0D883010F0D11004C0812F0E94F4
:10313000E52806C010959091E30319231093E3034B
:103140000E94EC28ACC1812F807F1F70803211F06B
:103150001295107FDD2029F0F1E0DF1609F43FC061
:1031600048C0AA2041F1002301F1013099F4809177
:10317000330282FD94C18091E703182B181709F4DC
:103180008EC10E94542E9093E6038093E503109322
:10319000E70385C1053049F40E94DA288091DE03F7
:1031A000181759F11093DE0328C08091E703812B93
:1031B0000E944B2474C1002349F0013069F48091CE
:1031C000E403812309F46BC10E947D290E94DA285F
:1031D000812F0E94442463C10530C1F760C1AA2039
:1031E00021F0063008F05BC108C0053008F057C177
:1031F000EFCFAA2021F0011134C1812FD9CF0023B4
:1032000039F329E3D21208C08FEF97EEE3E0815043
:103210009040E040E1F73EC1FFE728E381E0F15054
:1032200020408040E1F736C1812F869586958370D6
:1032300019F0813061F033C1AA2021F08D2D912F3A
:10324000937002C080E090E00E94C62E2EC1AA209A
:1032500021F08D2D912F937002C080E090E00E94AC
:10326000B02E23C1812F8370A9F5A1101CC14D2D53
:10327000429546954770440F440F8D2D8F7090E016
:103280009C01042E01C0220F0A94EAF7D4FE08C064
:103290008FE090E001C0880F4A95EAF7809501C061
:1032A00080E0169516951370123069F088F49091AD
:1032B0006404113019F0822B892302C0922B892BD0
:1032C0000E949A23F0C0822B909164048927F8CF42
:1032D000822BF6CFAA2019F0812F817001C086952C
:1032E000882309F4E0C04D2D429546954770440F60
:1032F000440F8D2D8F7090E09C01042E01C0220F91
:103300000A94EAF7D4FE08C08FE090E001C0880F6D
:103310004A95EAF7809501C080E0169516951370DE
:10332000123059F078F490917903113019F0822B12
:10333000892309C0922B892B06C0822B9091790397
:10334000892701C0822B0E947F23ADC01F70AA2055
:1033500039F0812F0E948F238D2D0E944B24A3C012
:103360008D2D0E944424812F0E9483239CC092EFC4
:10337000D91659F19D1538F0E0EFDE1659F0F1EF4E
:10338000DF16E1F069C023EFD21631F184EFD816D1
:1033900081F162C0AA2071F0053008F080C01F7171
:1033A00081E090E001C0880F1A95EAF790917903C7
:1033B00089271CC0063008F072C0F1CFAA2039F06E
:1033C000812F8F710E948F236AC0AA20C9F3812F99
:1033D0008F710E94832363C0AA2039F01F7181E09E
:1033E00001C0880F1A95EAF701C080E00E947F2390
:1033F00056C0AA20D1F08091DE030E94E52880917A
:10340000E1038770843039F40E944329812F8F7142
:103410000E94832366C0053008F063C01F71812FAE
:103420000E948F2363E0812F10C09091E40380916C
:10343000DE03892B8093E403053050F00E9443297A
:103440000E947D2964E0812F8F710E94672949C005
:1034500081E00E944A2945C0AA2039F0002309F4DE
:10346000AFCF8D2D0E94AC241AC0002309F4AFCF3A
:1034700099E3D91208C0EFEFF7EE23E0E150F040F6
:103480002040E1F707C08FE798E3E1E081509040EA
:10349000E040E1F700C000008D2D0E94552488EF28
:1034A0008B0D843010F40E94DC2ECC20A9F080918A
:1034B000E10380FD11C0F701128285958595859500
:1034C0000E948F23C7010E9429158091E1038595F1
:1034D000859585950E94832360E0C7010E94E911CC
:1034E00013C0C12CE0CF00318FE5180711F481E043
:1034F00006C00131EFE51E0709F077CB82E00E949C
:103500008F235DCB69E215CD0F900F900F900F9038
:10351000DF91CF911F910F91FF90EF90DF90CF90AF
:10352000BF90AF909F908F9008959C013A95211580
:103530003F4130F5BC0166277270AC0144275470DE
:103540009C012227387094FF0FC090FF02C080E1D9
:1035500001C080E0672B09F08062452B09F0806490
:10356000232B79F080680895892F8170672B09F0EB
:103570008260452B09F08460232B19F08860089540
:1035800080E008958091660387FF11C08091E80074
:1035900082FD05C080916E038111F8CF11C080912A
:1035A000E8008B770BC080916E03882349F08091EF
:1035B000E80080FFF8CF8091E8008E778093E800E4
:1035C0000895982F973068F59093E900981739F08F
:1035D0007091EC002091ED005091F00003C0242F79
:1035E000762F50E021FD02C09F5FECCF3091EB00C1
:1035F0003E7F3093EB003091ED003D7F3093ED0046
:103600003091EB0031603093EB007093EC0020932D
:10361000ED005093F0002091EE0027FDE5CF80E013
:1036200008958F708093E90081E0089520916C03E4
:1036300030916D032617370748F06115710539F48D
:103640002091E8002E772093E80001C0B901FC0129
:1036500020E06115710579F180916E038823F1F105
:103660008530F1F18091E80083FD3CC08091E80055
:1036700082FD2EC08091E80080FFEBCF2091F30007
:103680008091F20090E0922B6115710551F0883025
:10369000910538F421912093F10061507109019650
:1036A000F3CF21E0089709F020E08091E8008E77C1
:1036B0008093E800CECF2111CFCF0AC080916E0356
:1036C000882361F0853061F08091E80083FD0AC0B5
:1036D0008091E80082FFF2CF80E0089582E00895B3
:1036E00083E0089581E00895BC0184E00C94C52D29
:1036F000BC0183E00C94C52D80917903982F9670BE
:10370000963011F4886001C0877F0C947F23DF928C
:10371000EF92FF920F931F93CF93DF938C01C09191
:103720001101CC0FCC0FCC0FD8E0DC0FD93208F050
:10373000D8E2609177036695669521E0620F08F400
:103740006FEF80916F03909170030E94FB2CD82E35
:10375000CD17F0F4EC2EF12CF701E153FE4F9081E0
:1037600080911201892391F0609174037091750327
:10377000809176032D2D4C2FF80109950E94052D7F
:10378000462F282F672FC7010E94272CCF5FE0CF3D
:1037900081E0D83208F080E0DF91CF911F910F9146
:1037A000FF90EF90DF9008951F93CF93DF93CDB7F5
:1037B000DEB7AA970FB6F894DEBF0FBECDBFE6E620
:1037C000F3E08091F100819343E0EE36F407C9F70E
:1037D00080916703833009F462C030F4813071F066
:1037E000823009F49CC0B3C08A3009F488C08B30A1
:1037F00009F46DC0893009F0AAC020C08091660329
:10380000813A09F0A4C08091E800877F8093E800A6
:1038100080916A0390916B03892B21F468E08BE51A
:1038200093E003C060E080E090E070E00E94161B2F
:103830008091E8008B778093E80089C080916603CF
:10384000813209F084C080916A0390916B030097E4
:1038500019F0029709F07BC08091E800877F809380
:10386000E8008091E80082FD05C080916E0381111F
:10387000F8CF6DC02091F3008091F20090E0922B80
:10388000029729F48091F1008B7F813021F480919F
:10389000F10080935A038091E8008B7754C08091A7
:1038A0006603813A09F053C080916A0390916B03DB
:1038B000892B09F04CC08091E800877F8093E80055
:1038C0008091E80080FFFCCF8091100137C080918B
:1038D00066038132E1F580916A0390916B03892B35
:1038E000B1F58091E800877F8093E8000E94C21ABA
:1038F00080916803809310010E949E2328C08091CC
:103900006603813221F58091E800877F8093E8008B
:103910000E94C21A809169038093590318C0809154
:103920006603813AA1F48091E800877F8093E800E4
:103930008091E80080FFFCCF809159038093F100D3
:103940008091E8008E778093E8000E94C21A8091EF
:10395000E80083FFE9C18091660390916703492FD6
:1039600050E04A30510508F0DFC1FA01E757FF4F38
:103970000C94FF33803821F0823809F0D5C108C09B
:103980008091630390916403992389F082600FC052
:1039900080916A038F70873008F0C6C18093E90078
:1039A0008091EB0085FB882780F91092E9009091C7
:1039B000E800977F9093E8008093F1001092F10067
:1039C0007CC1282F2D7F09F0AFC1882319F08230E8
:1039D00061F0AAC180916803813009F0A5C19330DC
:1039E00009F080E0809364032EC080916803811108
:1039F0002AC080916A038F702FEF280F263008F0BD
:103A000093C18093E9002091EB0020FF1CC093300C
:103A100021F48091EB00806214C09091EB009061E2
:103A20009093EB0021E030E0A90102C0440F551F44
:103A30008A95E2F74093EA001092EA008091EB0049
:103A400088608093EB001092E9008091E800877F06
:103A50008093E8000E94C21A67C1811165C110916C
:103A600068031F778091E3008078812B8093E300C7
:103A70008091E800877F8093E8000E94C21A8091BD
:103A8000E80080FFFCCF8091E30080688093E30032
:103A9000111102C082E001C083E080936E0344C133
:103AA0008058823008F040C120916803309169034A
:103AB0002C3D53E0350779F583E08A838AE28983D8
:103AC0004FB7F894DE01139620E03EE051E2E32F79
:103AD000F0E050935700E49120FF03C0E295EF70AF
:103AE0003F5FEF708E2F90E0EA3010F0C79601C074
:103AF000C0968D939D932F5F243149F74FBF8091DE
:103B0000E800877F8093E8006AE270E0CE010196CA
:103B10000E94161BC0C080916A0390916B03432FD3
:103B2000552743305105B1F068F44130510509F48F
:103B30000AC14230510509F0F7C08BE590E0E6E399
:103B4000F5E057C04132510589F14232510509F47F
:103B50003CC0EAC0C901992781309105B9F070F0E5
:103B600082309105D9F0039709F0DEC0E3EAF5E071
:103B7000E4918E2F90E0E3EAF5E038C0EBE0F6E068
:103B8000E4918E2F90E0EBE0F6E030C0EFEEF5E050
:103B9000E4918E2F90E0EFEEF5E028C0E1ECF5E047
:103BA000E4918E2F90E0E1ECF5E020C083309105A8
:103BB00008F0BAC0880F991FFC01E35BFE4F01902B
:103BC000F081E02D89E090E014C08330910508F089
:103BD000ABC0FC01EE0FFF1FE95BFE4F0190F081CF
:103BE000E02DDC01AC5BBE4F8C9190E0009709F4B6
:103BF0009BC02091E800277F2093E80020916C0370
:103C000030916D032817390708F4C90140E0009787
:103C100089F120916E03222309F43DC02530D9F1AA
:103C20002091E80023FD37C02091E80022FD2FC03D
:103C30002091E80020FFEBCF4091F3002091F200AB
:103C400030E0342B009759F02830310540F444918E
:103C50004093F100319601972F5F3F4FF3CF41E042
:103C60002830310509F040E02091E8002E772093BC
:103C7000E800CDCF4111CDCF0AC080916E038823DB
:103C800051F0853041F08091E80083FD04C08091BF
:103C9000E80082FFF2CF8091E8008B778093E80004
:103CA00043C0803809F040C08091E800877F80934E
:103CB000E800809165038093F1008091E8008E77A1
:103CC000C7CE811131C08091680390916903992713
:103CD000029754F58091E800877F8093E800109167
:103CE0006803109365030E94C21A111106C08091E7
:103CF000E30087FD02C081E001C084E080936E0391
:103D000042E061EC81E00E94E11A42E261EC84E071
:103D10000E94E11A42E261EC82E00E94E11A42E272
:103D200060EC83E00E94E11A8091E80083FF10C0FC
:103D30008091E800877F8093E8008091EB008062AB
:103D40008093EB0005C082E190E0E1E9F5E051CF1E
:103D5000AA960FB6F894DEBF0FBECDBFDF91CF910C
:103D60001F9108951F920F920FB60F9211242F9357
:103D70003F934F935F936F937F938F939F93AF93F3
:103D8000BF93CF93DF93EF93FF93C091E900CF7080
:103D90008091EC00D82FD17080FDD0E81092E9001E
:103DA0008091F000877F8093F00078940E94D41B6C
:103DB0001092E9008091F00088608093F000CD2B94
:103DC000CF70C093E900FF91EF91DF91CF91BF9148
:103DD000AF919F918F917F916F915F914F913F91A3
:103DE0002F910F900FBE0F901F901895E8EDF0E007
:103DF00080818E7F80831092E2001092DA00109210
:103E0000E100A0EEB0E08C9181608C9380818F778F
:103E1000808319BCA7EDB0E08C918E7F8C9380815C
:103E20008F7E8083109258030895CF92DF92EF9295
:103E3000FF920F931F93CF93DF93C8EDD0E088815B
:103E40008F7E8883E7EDF0E080818160808384E06D
:103E500082BF81E08093580388818E7F888302EE41
:103E600010E0F80110821092DA0081EEC82ED12CF9
:103E7000F601108288818F778883888180688883A3
:103E800088818F7D888319BC10926E031092650320
:103E9000109264031092630390EEE92EF12CF70167
:103EA00080818B7F808388818160888342E060E0AD
:103EB00080E00E94E11AF60180818E7F8083F80104
:103EC000808181608083808188608083F701808128
:103ED0008E7F8083888180618883DF91CF911F915D
:103EE0000F91FF90EF90DF90CF9008951F920F9267
:103EF0000FB60F9211242F933F934F935F936F93BD
:103F00007F938F939F93AF93BF93EF93FF93809192
:103F1000E10082FF09C08091E20082FF05C080912C
:103F2000E1008B7F8093E1008091DA0080FF2AC05E
:103F30008091D80080FF26C08091DA008E7F809328
:103F4000DA008091D90080FF18C080E189BD82E14C
:103F500089BD09B400FEFDCF81E080936E0380919E
:103F6000580381110FC00E94F61E0E94151F8091F8
:103F7000E20084608093E20005C019BC10926E03D9
:103F8000109258038091E10080FF17C08091E200F9
:103F900080FF13C08091E2008E7F8093E2008091C9
:103FA000E20080618093E2008091D800806280937B
:103FB000D80019BC85E080936E038091E10084FFF6
:103FC0002EC08091E20084FF2AC080E189BD82E199
:103FD00089BD09B400FEFDCF8091D8008F7D80930C
:103FE000D8008091E1008F7E8093E1008091E20013
:103FF0008F7E8093E2008091E20081608093E200F6
:1040000080916503882311F084E007C08091E3006C
:1040100087FD02C081E001C083E080936E03809140
:10402000E10083FF27C08091E20083FF23C08091DD
:10403000E100877F8093E10082E080936E0310921D
:1040400065038091E1008E7F8093E1008091E20022
:104050008E7F8093E2008091E20080618093E20095
:1040600042E060E080E00E94E11A8091F000886008
:104070008093F000FF91EF91BF91AF919F918F914D
:104080007F916F915F914F913F912F910F900FBE54
:104090000F901F9018952091E4003091E50095E66F
:1040A0004091EC00842F817040FF23C08091E80094
:1040B00080FD1DC080916E03882399F0853099F0B2
:1040C0008091EB0085FD11C04091E4005091E50026
:1040D0002417350729F3915011F09A01E1CF84E0BC
:1040E000089582E0089583E0089581E0089580E0D6
:1040F00008954091E80042FFDDCF0895EF92FF92CE
:104100000F931F93CF93DF937C018B010E944B2071
:10411000811119C0E70101151105A1F08091E80096
:1041200085FD0AC08091E8008E778093E8000E94A8
:104130004B20882381F307C089918093F1000150BF
:104140001109E9CF80E0DF91CF911F910F91FF908E
:10415000EF900895CF9320916E032430F9F4C0912D
:10416000E900CF703091EC00232F217030FD20E862
:10417000C22B22E02093E9002091E80020FF0BC031
:1041800040E050E060E270E00E947E208091E80014
:104190008E778093E800CF70C093E900CF910895A7
:1041A00080E090E00E94C62E80E090E00E94B02E59
:1041B0001092E3031092E2030C94EC28CF92DF926A
:1041C000FF920F931F93CF93DF936C0100917903BC
:1041D00080916404082BC7E0D0E010E0C8010C2EE9
:1041E00002C0959587950A94E2F780FD04C0219757
:1041F000A8F7F12C09C0FC2EB6018C2F0E9430329A
:104200000E94CB26019799F38F2DDF91CF911F91BB
:104210000F91FF90DF90CF900895CF93DF93EC0143
:104220000E94DE20BE010E9430320E94CB26DF9128
:10423000CF910895FC0186819781009719F00E9423
:10424000CB2604C0808191810E940D21292F2F70DF
:10425000E92FE295EF704E2F50E0FA013297EE30E1
:10426000F105B8F4ED56FF4F0C94FF33803F99F001
:1042700018F4883E70F40FC0843F59F40CC0883E97
:1042800050F0813F31F407C0822F86958695869540
:10429000089580E0089581E008959F92AF92BF92C3
:1042A000CF92DF92EF92FF920F931F93CF93DF9302
:1042B000CDB7DEB765970FB6F894DEBF0FBECDBFA2
:1042C0008C0185E0F801DE01519601900D928A95EE
:1042D000E1F7F801E2809091940360919503409199
:1042E0009703509198034115510531F06F3F31F418
:1042F00081E09F3F19F403C081E001C080E0F82F06
:10430000F1709F2E80FD4EC1F80130812181C38064
:10431000D48074E9A72E73E0B72EF0909603F601CF
:10432000E41BF50BFF2009F4EFC080919903E83CF2
:10433000F10508F0AAC0482F407F09F05AC0621367
:104340001BC0931319C060919A0370919B03F801ED
:10435000468157816417750779F4FE2CE1100CC073
:104360008F70806180939903C5010E942915809107
:104370009903F801858353C1CD2831F02F3F31F4E3
:1043800081E03F3F19F403C081E001C080E080FD7F
:1043900003C081E08E2502C080E090E0F82FF1702C
:1043A000FF2E80FF1CC08091DD0340919C03841789
:1043B00009F413C190E0FC0153E0EE0FFF1F5A9582
:1043C000E1F7E356FC4F5181251306C0508153138A
:1043D00003C05281E51203C001968770E8CFFE2C1E
:1043E000EE2009F41CC180919903816080939903A8
:1043F00058C062130FC093130DC040919A0350919F
:104400009B03F801268137814217530719F4EE20E8
:1044100009F4A7C0C8010E941A21882381F1EE2067
:1044200071F120919903822F82958F7090E002970D
:10443000A4F080919403909195039A8789871B86B5
:10444000DD86CC862E8780919A0390919B03988B72
:104450008F87CE0109960E94291588E0F801A4E90A
:10446000B3E001900D928A95E1F70E948D290AC070
:104470006217C9F0C8010E941A21811127C0C80122
:104480000E942915FF24F394CAC0482F407F81F76A
:1044900084E993E00E94291588E0F50111928A953C
:1044A000E9F7F12CBCC09313E5CF40919A035091EA
:1044B0009B03F8012681378142175307D9F6E11093
:1044C000D9CF8583C8010E94291566C0EE20B9F2B4
:1044D00020919903822F82958F7090E002970CF4BF
:1044E000BCCF80919403909195039A8389831B821A
:1044F000DD82CC822E8380919A0390919B039887D2
:104500008F83CE010196A7CFE83CF10508F044C0A7
:10451000FE2CEE2009F4B3CF621330C093132EC0EB
:1045200020919A0330919B03F80186819781281787
:10453000390721F59091990390FD17C0892F829535
:104540008F70282F30E02115310579F095832F30B9
:10455000310541F08F5F982F9295907F85818F7004
:10456000892B8583C8010E94291588E0F801A4E9F8
:10457000B3E001900D928A95E1F751C0C8010E9405
:104580001A2181116ACF80919903816080939903E8
:10459000C8010E94291543C088E0F50111928A954F
:1045A000E9F73DC0EE2009F46ACFC8010E941A2144
:1045B000F82E882309F463CF88E0F801A4E9B3E07A
:1045C00001900D928A95E1F7809194039091950363
:1045D0000E940D210E948D2922C0398B2A8B898946
:1045E0009A890E940D21292F22952F70223028F4BC
:1045F0009F7039F0811105C00BC0243028F49F70E2
:1046000049F4805E883020F0C8010E9429159F2C53
:10461000F92C05C0F8019581907F99F7F9CF8F2D7E
:1046200065960FB6F894DEBF0FBECDBFDF91CF9178
:104630001F910F91FF90EF90DF90CF90BF90AF90C0
:104640009F9008959E3F61F12BE0929F800D112471
:10465000682F669566956695982F977083E0689F9A
:10466000B001112440E050E080E0FB01E40FF51FB1
:10467000E658FC4F208130E0092E02C03695279580
:104680000A94E2F721703327042E01C0220F0A9406
:10469000EAF7822B4F5F5F4F4330510531F70895A2
:1046A00080E008959E3F51F12BE0929F800D1124F0
:1046B000E82FE695E695E695877051E001C0550F25
:1046C0008A95EAF783E0E89FF0011124E658FC4F51
:1046D00020E030E070E04081CB01022E02C09695D0
:1046E00087950A94E2F78170819584278523842732
:1046F00081932F5F3F4F2330310569F708958093F1
:1047000079030C94D02021E030E001C0220F8A957B
:10471000EAF720958091790382230C947F2321E08E
:1047200030E001C0220F8A95EAF780917903822B4D
:104730000C947F23809364040C94D0201092E403A3
:1047400086E0EEE8F3E0DF011D928A95E9F70C942C
:10475000D020CF93DF93CDB7DEB760970FB6F89434
:10476000DEBF0FBECDBF29873A874B875C876D8739
:104770007E878F87988BCE0109960E944D218111EB
:1047800051C088E0FE013996DE01119601900D922C
:104790008A95E1F779856A854C855D8541155105D6
:1047A00031F06F3F31F481E07F3F19F403C081E0C5
:1047B00001C080E080FD36C0A0919C03B0E0CD0137
:1047C0000196877099272091DD0330E082179307C7
:1047D00081F179836A835D834C8393E0AA0FBB1FC9
:1047E0009A95E1F7A356BC4F98E0FE0131960190EF
:1047F0000D929A95E1F780939C030E94832912C041
:1048000028E0829FC001112483569C4F0E944D21B5
:104810008823E1F08091DD0390E00196877099276D
:104820008093DD038091DD0390919C038913E8CF91
:104830000DC00E949E2310929C031092DD03E4E9B8
:10484000F3E088E0DF011D928A95E9F760960FB6E4
:10485000F894DEBF0FBECDBFDF91CF9108958823BE
:1048600041F080959091E30389238093E3030C94B6
:10487000EC280895882339F09091E303892B8093E5
:10488000E3030C94EC280895882321F00E94E52886
:104890000C94EC280895882339F09091E403892B37
:1048A0008093E4030C94EC280895882309F453C002
:1048B000682F823869F40E94DC2E81FF4CC069E3C6
:1048C0008CE893E00E94962E0E94EC2869E30EC0CB
:1048D000833891F40E94DC2E80FF3DC063E58CE8B4
:1048E00093E00E94962E0E94EC2863E58CE893E00A
:1048F0000E94892E0C94EC28843869F40E94DC2EE6
:1049000082FF29C067E48CE893E00E94962E0E9403
:10491000EC2867E4EBCF8CEF860F813A38F380E226
:10492000860F883048F4677081E001C0880F6A956F
:10493000EAF70E94E528DECF8BE5860F833020F46E
:1049400080E090E00C94C62E685A673120F480E035
:1049500090E00C94B02E0895CF93882309F496C06C
:10496000C82F8238B1F40E94DC2E81FD8FC069E32C
:104970008CE893E00E94962E0E94EC282FEF81EEA7
:1049800094E0215080409040E1F700C0000069E3CE
:1049900017C08338E1F40E94DC2E80FD77C063E508
:1049A0008CE893E00E94962E0E94EC282FEF81EE77
:1049B00094E0215080409040E1F700C0000063E5A2
:1049C0008CE893E00E94892ECF910C94EC288438D7
:1049D000B1F40E94DC2E82FD59C067E48CE893E0BC
:1049E0000E94962E0E94EC282FEF81EE94E0215039
:1049F00080409040E1F700C0000067E4E1CF8CEF19
:104A00008C0F813A80F4EEE8F3E084E993E02191A1
:104A1000C217A1F18E179F07D1F76C2F8CE893E096
:104A20000E94962ED1CF80E28C0F883068F4C77038
:104A300081E090E001C0880FCA95EAF79091E40305
:104A4000892B8093E403C0CFEBE5EC0FE33040F417
:104A5000F0E0E950FE4F808190E0CF910C94C62E9B
:104A6000C85AC73198F4EC2FF0E0EE0FFF1FE65064
:104A7000FE4F80819181CF910C94B02E6C2F8CE8E9
:104A800093E00E94892E0E94EC28C7CFCF91089511
:104A90001F93CF93DF93182F893319F0C9E1D0E02A
:104AA00002C0C0E5D0E0812F0E94AC248FE99FE0D6
:104AB0000197F1F700C000002197C1F7812FDF9126
:104AC000CF911F910C94552480E00895909132026B
:104AD00092FF0DC0282F2871283019F4877F846039
:104AE00006C0282F2471243011F48B7F886093FF37
:104AF0000DC0282F2871283119F4877E846106C0E3
:104B0000282F2471243111F48B7E88612091330287
:104B100020FF0DC0382F3871383019F4877F81603D
:104B200006C0382F3171313011F48E7F886021FF3B
:104B30000DC0282F2871283119F4877E816106C0A5
:104B4000282F2171213111F48E7E886194FD877E9A
:104B50000895F894E82FE295EF70F0E031A1282F46
:104B60002F7081E090E001C0880F2A95EAF7982F16
:104B70009095932391A392A1892B82A37894089571
:104B80008F929F92AF92BF92CF92DF92EF92FF925D
:104B90000F931F93CF93DF93CDB7DEB728970FB650
:104BA000F894DEBF0FBECDBFAE014F5F5F4F7A01FD
:104BB00088E0DA011D928A95E9F701E211E06A01C5
:104BC000AA24A394B12CF80180818F3F09F44DC031
:104BD000F894E82FE295EF70F0E021A18F70A50125
:104BE00002C0440F551F8A95E2F7CA01922F982BF5
:104BF00091A392A18095892382A3789400C0E5E2D5
:104C0000F1E020E030E0812C912C81918F3FC1F0C8
:104C1000A82FA295AF70B0E090964C9150E08F70A5
:104C2000DA0102C0B595A7958A95E2F7A0FD08C004
:104C3000C501022E02C0880F991F0A94E2F702C034
:104C400080E090E0882A992A2F5F3F4F2B30310572
:104C5000E1F6F80180818F3F11F00E94A925F0EA6A
:104C6000FA95F1F7D6018D929C920F5F1F4FB2E03B
:104C7000CB0ED11CE1E005321E0709F0A4CF48E0BD
:104C800050E0B70184E392E00E940C3411E00097F9
:104C900009F410E0892B89F088E0F701A4E3B2E081
:104CA00001900D928A95E1F781E08093EA030E94DA
:104CB000542E9093E9038093E8038091EA038823BC
:104CC00051F18091E8039091E9030E94392E0597F4
:104CD00010F18091340290913502909350038093AB
:104CE0004F03809136029091370290935203809344
:104CF000510380913802909139029093540380932C
:104D0000530380913A0290913B0290935603809313
:104D100055031092EA0380911501882341F1809197
:104D2000640590916505009711F10E94392E20913C
:104D3000BE043091BF0428173907C8F4909162056A
:104D400080916305981759F00E94942F1092BF0428
:104D50001092BE04109265051092640508C00E946E
:104D6000162F10926505109264050E94752F812FF1
:104D700028960FB6F894DEBF0FBECDBFDF91CF915E
:104D80001F910F91FF90EF90DF90CF90BF90AF9069
:104D90009F908F900895CF93DF938238910569F1AA
:104DA000B0F48133910509F46FC048F4893291055C
:104DB00009F465C08A32910509F46BC08AC0853355
:104DC000910509F457C089339105B9F082C0833E3B
:104DD000910571F138F4803E9105B1F0823E910564
:104DE00011F177C0863E9105B9F1873E9105C9F171
:104DF000843E910509F06DC024C02091320220FD4F
:104E000053C021FD51C065C08091320280FD46C073
:104E10008091330280FF48C08091320284FD3FC1FF
:104E200083EE90E03EC18091320282FF3AC0F4CF1F
:104E30008091320282FD35C08091330280FD34C002
:104E4000EBCF8091330281FF35C08091320284FD27
:104E500026C187EE90E025C18091320283FF27C0F2
:104E6000F4CF8091320283FD22C08091330281FD14
:104E700021C0EBCF8091320285FD1FC021C08091FF
:104E8000320285FD1DC019C08091320286FD1BC013
:104E90001DC08091320286FD19C015C089E390E0E3
:104EA00000C182EE90E0FDC080EE90E0FAC086EE98
:104EB00090E0F7C084EE90E0F4C089E290E0F1C0A9
:104EC00085E390E0EEC08AE290E0EBC081E390E001
:104ED000E8C0811532E5930708F069C0811541E506
:104EE000940728F0982F8827816F906ADAC0883E4F
:104EF000910568F5803E910508F0D3C0883A910588
:104F0000B8F4853A910548F0855AE82FF0E0E95069
:104F1000FE4F808190E09064C4C08130910509F417
:104F2000BBC008F4BCC08430910508F4B8C0B9C057
:104F30008F3B910508F0B3C0885AE82FF0E0EE0FE0
:104F4000FF1FE650FE4F808191819464AAC08115B5
:104F500020E59207F0F09C0174E0369527957A954C
:104F6000E1F7922F9370482F437021E030E002C0A8
:104F7000220F331F4A95E2F73C68392B8F70982F28
:104F80009695969540E2949FC0011124822B932B15
:104F900088C0811530E4930718F09F70906A81C033
:104FA0009C013A9521153F4108F47BC078C0EC0183
:104FB000C11586E5D807E8F5C11525E5D20748F003
:104FC0008C2F0E9466258F7190E0982F8827906221
:104FD00068C0C11534E5D30728F09C2F8827846F5B
:104FE000906A5FC0AE01437055272C2F26952695F9
:104FF000C115D34578F481E090E002C0880F991F75
:105000004A95E2F740E2249F90011124822B932BD2
:105010009C6847C081E090E002C0880F991F4A95C4
:10502000E2F740E2249F90011124822B932B9A688F
:1050300038C0C1152AE5D207F8F4C11539E5D30700
:1050400090F08C2F8F700E94662594E0D695C795BE
:105050009A95E1F7CF70D0E0DC2FCC27D0699E0184
:10506000282BC9011EC0C11548E5D407C0F09C2FEC
:105070008827806F906A15C0CE01905681159042A6
:1050800070F48D2F8F710E946625282F2F71CE010D
:1050900099279062922B05C081E090E002C080E0E9
:1050A00090E0DF91CF910895CF9384E090E00E944B
:1050B0001A33C82F82E290E00E941A332C2F30E07E
:1050C000A901582BCA01CF91089580E090E00E9479
:1050D00022338A3E9E4F11F40C947D2B80E008957C
:1050E0006AEE7EEF80E090E00E94563360E082E05E
:1050F00090E00E94383360E083E090E00E94383313
:105100001092640460E084E090E00E94383360E034
:1051100082E290E00E94383360E085E090E00E94F7
:10512000383360E086E090E00E9438336FEF87E02C
:1051300090E00E94383340E050E0BA0188E090E00F
:105140000E944A3360E08DE090E00E94383340E0F6
:1051500050E0BA0188E190E00E944A3360E087E1C4
:1051600090E00E94383340E050E0BA018CE190E0DA
:105170000E944A3360E070E080E290E00E94563383
:1051800040E050E0BA0188E190E00E944A3380E0BC
:105190000E94502B0E946E2B40E050E0BA018FE03D
:1051A00090E00E944A3340E050E0BA0183E190E091
:1051B0000C944A338091E703882331F01092E7037F
:1051C0001092E6031092E503089580959091E40310
:1051D00089238093E40308959091E4038091E3038D
:1051E000892B9091E203892B80938C038091E703B4
:1051F000882311F10E94542E2091E5033091E6039B
:10520000821B930B8838934110F00E94DA2890910A
:105210008C038091E703892B80938C03EEE8F3E005
:1052200097E080E0915029F021912223D9F38F5FFC
:10523000F9CF81110E94DA28E0916805F0916905A3
:10524000309731F00280F381E02D8CE893E00994EF
:105250000895CF93C0913302C2FB992790F9981714
:1052600081F080FBC2F9C09333026091320284E086
:1052700090E00E9438336C2F82E290E0CF910C9442
:105280003833CF9108951092E1031092E003109209
:10529000DF0308952091E103809582238093E10349
:1052A000982F977041F430E0482F082E000C550BD2
:1052B0002417350721F49091330292FF07C085959A
:1052C000859585950E9483230C9443290895909198
:1052D000330292FD10C098E0899F90011124262B83
:1052E0002093E1030E948F230E94542E9093E003A9
:1052F0008093DF0308950C948F238091DE03811146
:105300001092DE0308958091DD0390919C0389172C
:1053100019F08F5F8770FBCF08951F93CF93DF93B2
:105320008091990382958F7009F05CC080919603FB
:10533000882309F457C08091DD0310919C0360918C
:10534000940370919503C0919703D091980391E0D5
:105350006F3F09F090E0292F811709F443C020978F
:1053600021F07F3F21F030E003C031E001C0322F57
:1053700090E030FD34C0FC0133E0EE0FFF1F3A95A2
:10538000E1F7DF01A356BC4F11963C9111973713FB
:1053900026C03C91361323C012963C9112973111CE
:1053A0001EC013964D915C9114974C1B5D0B483CAD
:1053B0005105A8F4809199038F70806180939903BF
:1053C000EE55FC4F80818F708061808384E993E08B
:1053D0000E942915DF91CF911F910C94832901968A
:1053E0008770BACFDF91CF911F910895ECEEF3E073
:1053F00094E0E436F90729F0818360834283339691
:10540000F7CF0895FC01EE0FFF1F8E0F9F1FFC01C9
:10541000E451FC4F6183408322830895E3E7F3E086
:10542000248130E1231B08F420E0248381E0809371
:10543000EB030895E3E7F3E0248130E1230F08F460
:105440002FEF248381E08093EB030895E42FF0E0B5
:10545000EE0FFF1FE158FE4F9081921B97FD919533
:10546000292F38E1239F212D1124620F0895809A5E
:1054700081B38E7F91B391602FB7F894ECEEF3E097
:1054800034E0E436F30789F0319148E091BB000045
:1054900000C037FF81BB330F000000C000C000C058
:1054A00081BB00C04A9591F7EBCF2FBF8FE594E009
:1054B0000197F1F700C0000008950F931F93CF9359
:1054C000DF9300D000D01F92CDB7DEB78C01909350
:1054D000B8048093B704011580E2180738F5802FCF
:1054E0000E945524C801805E9109089718F00115A3
:1054F000110571F4C8010E94951A0F900F900F903A
:105500000F900F90DF91CF911F910F910C94442435
:10551000C8010E94951A0F900F900F900F900F9056
:10552000DF91CF911F910F910C942F248EEF8983DF
:105530008A831B820E94542E8160782F9D838C83E6
:1055400049815A816B818D810E94D3120F900F90F7
:105550000F900F900F90DF91CF911F910F910895B1
:105560000F931F93CF93DF9300D000D01F92CDB73E
:10557000DEB78C019093B8048093B704011580E2E4
:105580001807F8F4C801805E9109089718F0011512
:10559000110531F4C8010E94951A0E944B2405C0E0
:1055A000C8010E94951A0E943A24802F0F900F90F4
:1055B0000F900F900F90DF91CF911F910F910C944E
:1055C000AC248EEF89838A8381E08B830E94542EE2
:1055D0008160782F9D838C8349815A816B818D8175
:1055E0000E94D3120F900F900F900F900F90DF91A9
:1055F000CF911F910F910895AF92BF92CF92DF92FA
:10560000EF92FF920F931F93CF93DF93B82EA62EA6
:10561000C090790380916404C82AC7E0D0E0D12CFF
:10562000E12CF12CD701C6010C2E04C0B695A7952C
:10563000979587950A94D2F780FF13C04A2D6B2D5A
:105640008C2F0E94FE308C018130910551F00E9418
:10565000B02A8FE39CE90197F1F700C00000C80170
:1056600011C02197F8F64A2D6B2D80E00E94FE3084
:10567000EC010E94B02A8FE39CE90197F1F700C08A
:105680000000CE010E945D2A81E0DF91CF911F9141
:105690000F91FF90EF90DF90CF90BF90AF90089563
:1056A000CF93C82F811102C06FEF01C065E983E27B
:1056B00090E00E943833C11102C06FEF01C066E76D
:1056C00084E290E00E943833C11102C06FEF01C044
:1056D00063E185E290E0CF910C94383380E00E9442
:1056E000502B60E086E290E00E9438330E946431E3
:1056F0000E94B63081E00C94502B83E290E00E942F
:105700001A33853981F484E290E00E941A33863797
:1057100051F485E290E00E941A3391E0833109F060
:1057200090E0892F01C080E081700895882311F0F6
:10573000FA0101C0FB01099490917303937071F019
:1057400080937403609375034D3308F04CE34093EA
:1057500076038091EB03282B2093EB030895E3E776
:10576000F3E0438120E1421B08F440E0818121E025
:10577000628190E00C949C2BE3E7F3E0438120E10D
:10578000420F08F44FEF818121E0628190E00C9498
:105790009C2BE3E7F3E0628120E1621B08F460E008
:1057A000818121E0438190E00C949C2BE3E7F3E0BE
:1057B000628120E1620F08F46FEF818121E0438173
:1057C00090E00C949C2BE3E7F3E0818190E021E0F2
:1057D0004381628108970C949C2BE3E7F3E081817D
:1057E00090E021E04381628108960C949C2B90917B
:1057F00073039370A1F0811102C0946007C08E30D2
:1058000010F0946303C0880F880F982B9093730354
:10581000109214018091EB03682B6093EB030895C1
:105820008091730386958695815009F48DE061E03F
:105830000C94F72B80917303869586958F5F8E303D
:1058400008F081E061E00C94F72B0C94F6290C949D
:10585000022A2BE0829FC0011124FC01ED5AFE4F69
:10586000E60FF11D80818F3F21F0FA01808381E0F6
:10587000089580E0089546E050E06CE170E083E731
:1058800093E00C942833E3E7F3E085E08083809194
:105890001E0190911F01A091200181839283A38317
:1058A0008FE784838FEF85830C943B2C22E8241BA5
:1058B00008F420E0620F0895482F982F46FD909538
:1058C000E92FEF739F7046FD9F5FE295EF70EE0F3B
:1058D000F0E0E85DFD4F2181299F802D212D1124CD
:1058E00082958F702295207F822B3081982F930F85
:1058F000892F47FD8195805808950F931F93CF936B
:10590000DF93D62F072F182FC42F822F0E945C2CD5
:10591000EC2FF0E0EE0FFF1FE158FE4F9081905802
:10592000890F87FD8195880F682F2CE0629F612D7C
:1059300011246D0F702F812FDF91CF911F910F9147
:105940000895BC018230910508F40895613E8EE10E
:10595000780748F49B0195E0369527959A95E1F7ED
:1059600048E0420F01C04FEF91E0242F30E0290FB3
:10597000311D35952795229FF001239FF00DF00DE5
:1059800011246E177F0718F44FEF420F04C02F3F0A
:1059900039F091E0920F491740F78FEF890F089582
:1059A0008FEF08950F93CF93DF93D72FC82F47FD25
:1059B0004195E2E3F0E0CF01841B910947FD939507
:1059C000889FB001899F700D700D1124229FC00126
:1059D000239F900D900D1124860F971F0E94A12CDC
:1059E000682F660F860F682F600F7D2F8C2FDF9139
:1059F000CF910F91089520E030E0869F212D969F52
:105A0000200D311D1124C9010895CF92DF92EF922C
:105A1000FF920F931F93CF93DF93F62E472FE82F1C
:105A2000F0E0711106C0E15FF94F8491782F682F83
:105A300073C0272F30E0E15FF94FE491FE2F0E2F66
:105A400010E056E0659FC0011124CFEFD0E0BE0109
:105A50000E94D7335BEA5603C001579F900D112473
:105A60008F0D911D8F0D911D982F990F980F7E010D
:105A7000E21AF30AE09ED001E19EB00DF09EB00D57
:105A800011248B2F499FA0011124452F55277E01FA
:105A9000E41AF50AE09EA001E19E500DF09E500D23
:105AA00011246E01C91AD108C29E7001C39EF00C68
:105AB000D29EF00C11242F2D3327C21BD30BC09F75
:105AC0009001C19F300DD09F300D1124932F623073
:105AD000710591F048F461157105E1F061307105CF
