:100000000C944C040C9493040C9493040C9493045B
:100010000C9493040C9493040C9493040C94930404
:100020000C9493040C9493040C94B4210C94F0203D
:100030000C9492170C9493040C9493040C949304D2
:100040000C9493040C9493040C9493040C949304D4
:100050000C9493040C9445170C9493040C949304FF
:100060000C9493040C9493040C9493040C949304B4
:100070000C9493040C9493040C9493040C949304A4
:100080000C9493040C9493040C9493040C94930494
:100090000C9493040C9493040C9493040C94930484
:1000A0000C9493040C9493040C9493047B0C970C81
:1000B0009E0C9B0D9B0DD60CE60CF90C3C0D410DD6
:1000C0009B0D9B0D9B0D490DDB0DE60D100E4C0E8F
:1000D0008F0ED60E380F860FCD0FD00FD50F77109D
:1000E0001714171450145014C114FC15FC15FC15EA
:1000F000DF14531564156415F81E1F1FD2201F1F2F
:10010000D2206B1F8E1FD2208F209F207423742338
:10011000872387237D2387238723872374237423BF
:100120008223872387238223FD377A585A000004CD
:10013000E6D6B4460200210116000000742FE5A3A4
:10014000E008B702345D003D8889C65436C3174FB6
:10015000E4EF0A3F668DD105C145CE66B4E8DF8580
:100160001F2CF59EBB41D912F17F204F73672F9A48
:10017000C243D74C5B65441319B1B3BC75E3462940
:10018000A966D74C1C5E426C60D242D95195BCFA2C
:10019000C18D306CE69EB06A07247A2A185A1E97E1
:1001A000B8B8BD867F7AF01870DA96B443ED587A05
:1001B000EC6A0B878BEDFA95780E765F4E2AA533A5
:1001C0008B5DD40D26AF083CC7D5E70FE2EA1912C4
:1001D0000D3CC71BA71FAC2689FF7AEF27CA33EB5C
:1001E0001C21F25EB5CB1694238A31ED1D7BF3E41E
:1001F000F3548C444210856E2AE1D8EA96D8984090
:100200000115CDB6D67011324DF096860BC39DEB1D
:10021000D6EBC17DAFBDAD937EE94F54E7243D538E
:100220003F0F2C6F7B8345B464F988D54290A72A91
:10023000ABDFDBE297962B7037BC3656183392F85B
:10024000CE549EBC27539E6FF8F4E693F45C490AA3
:10025000F54C0E5C5CBEC160E9ADCA7D60575124AF
:1002600074DA670F0BD857EA73654DAC39168211F3
:10027000082B47836CB2DC0CA2C097DFD23AFBECB0
:10028000B019794F0559222BB7610C74AB05C8D052
:10029000FE6A8831BFEBC1628675671CDAB08CD903
:1002A0006563969F05BE616DC4EA9EC5159B85AFCB
:1002B0009B7BEAC86D2FD079CB89B50A018C60464B
:1002C0000BD37FA52855C199979A1386EFCA8B78CF
:1002D000BC897A627DE6A1457AEE310AC52F0737DF
:1002E00087707068CDE23F421674B43A45E9062D36
:1002F0000BE0838014FF4310DE7EDE9EE8200409BD
:10030000179C4A2D520C009FCBCA5CB848D94F6D40
:10031000A3B910890D5191671ED18338F520AB6FB9
:1003200028675354D4A8ED0AC1A91D859D29878249
:10033000115CD69778124E9376D3DF4D2D4F778C84
:1003400099955E5840D46967E94FEC2E64D54F1FEC
:10035000B4D999C31328B5D8177646799AC95921C3
:10036000DD823E6EFF837F088F6C0C64A22E553DAC
:1003700007F961D05DD7D178A5411E00F205D97B80
:1003800082CB68AF0001D004B811000000C1C9E100
:10039000B1C467FB020000000004595A00000000CD
:1003A00001000B0002000100030002000400030032
:1003B0000500040011000500120006001A000700E5
:1003C0001B0008001C0009001D000A0014001A0090
:1003D0000800150017001C0018000C001200130084
:1003E000000004611668076409620A000B000D72C0
:1003F0000E740F78337100001D001B0006001900F9
:10040000050011001000360037003800A800010078
:1004100001000151280034002A002C000251010083
:1004200001002A011E021F022002210222022302D1
:1004300024022502260227020000290001000100F3
:100440000100010001002D022E022F0230020000E7
:100450003900350201000100010001000100010026
:10046000310234020100010001000100010001001D
:100470004C00010001000100010001001E001F00EE
:100480002000210022002300240025002600270050
:1004900000005000510052004F002B0001002D00C1
:1004A0002E002F0030000000E0003500E300E200E5
:1004B00001000100010001003100340001000100D1
:1004C0000100010001000100010001000100010024
:1004D00001000100C25CC45CC35C010010503A0022
:1004E0003B003C003D003E000000CB5CC55CC75CAF
:1004F000C95C01003F004000410042004300000091
:10050000CC5CC65CC85CCA5C0100440045000100CC
:100510000100005C01000100010001000100010078
:1005200001000100010001000100010005010902B4
:10053000A10185020901A10005091901290515007C
:10054000250195057501810295017503810105015C
:10055000093009311581257F950275088106093812
:100560001581257F950175088106050C0A3802154D
:1005700081257F950175088106C0C005010980A10C
:1005800001850319012AB700150126B700950175E9
:10059000108100C0050C0901A101850419012AA0E0
:1005A00002150126A002950175108100C00660FFAA
:1005B0000961A1010962150026FF009520750881D7
:1005C000020963150026FF00952075089102C005F9
:1005D000010906A101050719E029E7150025019584
:1005E0000875018102950175088101050719002927
:1005F000FF150026FF009506750881000508190102
:100600002905950575019102950175039101C009B0
:10061000025B00030100A0FA0904000001030101CC
:100620000009211101000122400007058103080093
:100630000A09040100020300000009211101000160
:100640002222000705820320000107050303200082
:100650000109040200010300000009211101000149
:100660002281000705840320000A12010002000015
:100670000008FEFE50580100010203011C03760031
:10068000690061006C003A006600360034006300C7
:10069000320062003300630000002C03730061002D
:1006A000640065006B006200610072006F007500FD
:1006B0006400690020006200610072006F00620047
:1006C0006F007200640000001A0373006100640090
:1006D00065006B006200610072006F0075006400CD
:1006E000690000000403090400000000000000008D
:1006F00000000000000000000000000000000000FA
:100700000000000000000000000000007E0F00D488
:10071000FFFFFFC70000007800000000000000009D
:100720002A2B28000000000000000000000000004C
:1007300000000029000000002C1E34202122243457
:100740002627252E362D3738271E1F202122232429
:1007500025263333362E37381F0405060708090AC5
:100760000B0C0D0E0F101112131415161718191A61
:100770001B1C1D2F3130232D350405060708090ADF
:100780000B0C0D0E0F101112131415161718191A41
:100790001B1C1D2F3130354C0001010101010101ED
:1007A0000101020202020202020202030303030326
:1007B00003030304040404040404050505050506F5
:1007C00006060606070707070708080808090909B3
:1007D000090A0A0A0B0B0B0C0C0C0D0D0D0E0E0E5C
:1007E0000F0F0F10101111111212131314141515ED
:1007F00016161717181819191A1A1B1B1C1D1D1E5F
:100800001E1F2020212222232424252626272829B2
:10081000292A2B2C2D2D2E2F3031323233343536E0
:100820003738393A3B3C3D3E3F40414243444546E0
:100830004748494A4C4D4E4F5051535455565859BC
:100840005A5B5D5E5F616264656668696B6C6D6F63
:100850007072737577787A7B7D7E808283858788D6
:100860008A8C8E8F91939596989A9C9EA0A2A3A510
:10087000A7A9ABADAFB1B3B5B7BABCBEC0C2C4C611
:10088000C9CBCDCFD1D4D6D8DBDDDFE2E4E7E9EBCD
:10089000EEF0F3F5F8FAFDFF11241FBECFEFDAE01A
:1008A000DEBFCDBF04B603FE27C080914A059091FC
:1008B0004B05A0914C05B0914D058730904BA7405A
:1008C000B04BD1F410924A0510924B0510924C0592
:1008D00010924D0514BE84B7877F84BF0FB6F8947D
:1008E000A8958091600088618093600010926000FC
:1008F0000FBEE0E0F8E3099512E0A0E0B1E0ECEF14
:10090000F4E602C005900D92A831B107D9F725E0B1
:10091000A8E1B2E001C01D92AA34B207E1F70E943B
:1009200095040C947C320C940000CF93DF93CDB7E8
:10093000DEB7C654D1090FB6F894DEBF0FBECDBFE7
:1009400084B7877F84BF0FB6F894A8958091600024
:10095000886180936000109260000FBE90E080E894
:100960000FB6F89480936100909361000FBE85B735
:10097000806885BF85B7806885BF88E797E29093D8
:100980001902809318020E94EA1A0E9434210E94E0
:1009900053218091E20084608093E20078948091FA
:1009A000CC048823A1F01091E9001F709091EC0015
:1009B000892F817090FD80E8182B1092E9008091BA
:1009C000E80083FD0E94121E1F701093E90082E070
:1009D00084BD93E095BD9AEF97BD80936E000E9411
:1009E000701B811102C00E94611B0DE111E061E2E8
:1009F000E62E61E0F62ED8018D918D018F3F11F02A
:100A00000E94BD27E016F106B1F701E211E05CE2B9
:100A1000E52E51E0F52EF80181918F018F3F11F005
:100A20000E94BD27E016F106B1F710921D02109248
:100A30001C02109228031092270310921F0210929A
:100A40001E0210922A031092290310922102109282
:100A5000200210922C0310922B031092230210926A
:100A6000220210922E0310922D030E946E298111F2
:100A700002C00E94792982E090E00E94F8318093C0
:100A8000A2020E945D2990931B0280931A020E9489
:100A9000AC2A8FE39CE90197F1F700C000000E94A7
:100AA000AC2A8091270380FF08C06FEF7FEF80E0C2
:100AB00090E00E9434320E94211783E090E00E946F
:100AC000F8310E94C3258091D7040E94082D10920E
:100AD0002502EEE3F2E08EE492E02FEF3FEF219368
:100AE00031938E179F07D9F70E946E29811104C098
:100AF0000E9479290E94241C46E050E06CE170E0DD
:100B000081ED94E00E94E8318091D1048C7F11F452
:100B10000E94241C0E94513040E060E080E00E946E
:100B20009A1D109224024FEF60E080E00E949A1D0F
:100B300080E091E09093AB048093AA0440E4342ECB
:100B40008091CC04853009F047C000E112E180912A
:100B5000CC04853009F03CC08091CC04843019F17C
:100B60001092AE04A8E1B0E00FB6F894A895A09357
:100B700060000FBE3092600083B7817F846083BFC6
:100B800083B7816083BF7894889583B78E7F83BF56
:100B90000FB6F894A89580916000886180936000FA
:100BA000109260000FBE8091C204882309F4CFCF59
:100BB0000E94AC2AE7E2F3E081919191892B11F038
:100BC0000C94A10D2FE233E02E173F07A9F7BFCFFA
:100BD0000E94C7250E940E180E94AC2A81110E9413
:100BE0007A17E7E2F3E0A3EAB2E0C12CD12C8C2C17
:100BF000A190B1908D919D918A259B25009709F434
:100C00005BC110E0EE24E394F12C9C012E213F21E6
:100C1000232B09F44BC11DAF8EAEAE20BF2081E067
:100C2000A114B10409F480E08FAF0E94861781609F
:100C3000782F22969FAF8EAF22974DAD5EAD6FADF0
:100C400022968FAD22970E946B2DF601EE0FFF1FAB
:100C5000ED55FD4F80819181E826F926F182E082F1
:100C6000AB2889F08BE08C9DF0018D9DF00D112457
:100C7000ED5BFE4FE10FF11D80818F3F21F0282EAB
:100C80009924939401C0912CE92CF12C8091250298
:100C9000B701680F711D69307105ACF188E090E013
:100CA0005C01AE18BF08B7016F5F7F4F6B5D7D4F72
:100CB000A50186E292E00E946C32B701675F7F4F28
:100CC0006B5D7D4FA5018EE292E00E946C32A50122
:100CD000440F551FB701660F771F675E7F4F6B5D2F
:100CE0007D4F8EE392E00E946C32B7016F5E7F4FC2
:100CF0006B5D7D4FA50186E392E00E946C3288E037
:100D00008919809325028091250290E0A22DB0E000
:100D10009D01220F331F21593E4FAA0FBB1FBD015A
:100D200060597E4F41E0480F9915A8F490E0FC010E
:100D3000EB5DFD4FD9015C915183DB015C915187E3
:100D4000218A880F991FFC01EB5DFD4F128E118ED9
:100D500091E0842FE7CF809325028091D1048C7F8E
:100D6000883209F0D1C0AFEFA80D01E0080D3FEFC8
:100D7000310F21E0210F311780F48BE08C9DF001C1
:100D80008D9DF00D1124EB5AFD4FE30FF11D4081B5
:100D900050E1450F08F44FEF4083412F50E07BE0D6
:100DA0007C9DC0017D9D900D11248B5A9D4FFC01AF
:100DB000E40FF51F7081B0E26B2F760F08F47FEF20
:100DC00070832B3051F0FC01E20FF11D708180E146
:100DD000682F760F08F47FEF7083043009F432C077
:100DE000E02EF12C311790F48BE08E9DF0018F9D59
:100DF000F00D1124EB5AFD4FE30FF11D80819DE0B2
:100E0000782F092F700F08F47FEF7083EBE0EE9DD1
:100E1000C001EF9D900D11248B5A9D4FFC01E40FF2
:100E2000F51F608170E1670F08F46FEF60832B306E
:100E300049F0FC01E20FF11D60817DE0670F08F4CD
:100E40006FEF6083A81508F05FC0B0E0311780F441
:100E50008BE08A9FF0018B9FF00D1124EB5AFD4F20
:100E6000E30FF11D30816DE0360F08F43FEF308362
:100E70008BE08A9FF0018B9FF00D1124CF018B5ADC
:100E80009D4FFC01E40FF51F308140E1340F08F461
:100E90003FEF30832B30C1F1FC01E20FF11D2081C7
:100EA0003DE0230F08F42FEF20832EC01F5FEE0CD0
:100EB000FF1C1B3009F0A9CE2FEFC21AD20A34E072
:100EC000C316D10409F093CE8FEF23968FAF2397EB
:100ED00024968FAF249725961FAE25970E948617DC
:100EE0008160782F27969FAF8EAF279723964FADBF
:100EF000239724965FAD249725966FAD2597279667
:100F00008FAD27970E946B2D80914E0290914F02DA
:100F1000A0915002B09151022FB7F894C090AF0445
:100F2000D090B004E090B104F090B2042FBFC81A82
:100F3000D90AEA0AFB0A0E947A1760934E0270935C
:100F40004F028093500290935102A0912502E5E256
:100F5000F2E02A2F30E088248A94982CA12CB12C1E
:100F60008C189D08AE08BF08A31799F0418D528DCB
:100F70002A01612C712C84149504A604B70410F482
:100F8000215004C04C0D5D1D528F418F3F5F329642
:100F9000EBCF209325023091D104232F237021F031
:100FA000E32EE694E69401C0E12C20910C0121305F
:100FB00091F028F0223099F12330E9F160C01092CD
:100FC0000F016093CD047093CE048093CF0490936F
:100FD000D00481E02DC090910B01E9120DC0832F48
:100FE000837090E040910A0150E021E0841795075A
:100FF00009F420E0822F01C081E08170809311010B
:101000008091D60490911001981709F4BAC5809385
:10101000100140E060E080E00E94181CB2C5E09240
:101020000B01832F837080930A010E94D11683E005
:1010300080930C0124C08091300381110E941C1CFC
:10104000109230034091CD045091CE046091CF04B2
:101050007091D0042FB7F8948091AF049091B004B0
:10106000A091B104B091B2042FBF841B950BA60BC5
:10107000B70B4097A105B10510F010920C018091BB
:10108000A0028A3008F0EBC080919E0290919F02EE
:101090000E946B17089708F4E2C004E610E025E010
:1010A00030E049E952E064E084E10E947F31892B1D
:1010B00009F06BC01092A00286E0E7E8F2E0DE01E2
:1010C000D19601900D928A95E1F786E0FE01F196A6
:1010D000DE01D79601900D928A95E1F786E0FE0138
:1010E000F796A3E9B2E001900D928A95E1F790910D
:1010F0009D028091940297FD3EC08E7F8093940262
:101100008091910290919202009799F545E060914B
:10111000990280919A020E94542D20918F02309161
:101120009002281B390B3093900220938F0245E0E8
:1011300060919B0280919C020E94542D20918D020F
:1011400030918E02820F931F90938E0280938D02B6
:101150006DE872E085E992E00E94352D6FE872E05B
:1011600086E992E00E94352D109298021092970223
:1011700011C0019705C081608093940284E190E0E2
:10118000909392028093910205C08091A0028F5F9C
:101190008093A00286E0E3E9F2E0DE019B960190F5
:1011A0000D928A95E1F786E0FE01BB96A7E8B2E0D2
:1011B00001900D928A95E1F73091890220918A027F
:1011C00090918B0280918C027091830260918402D5
:1011D0004091850250918602F0918202E09188024E
:1011E000FE1312C0332311F037130EC0222311F067
:1011F00026130AC0882311F0851306C0992331F005
:1012000081E0491304C002C081E001C080E080FF9A
:101210000FC0E091AA04F091AB04309749F082E04E
:10122000809387020480F581E02D87E892E009959C
:101230001092890210928A0210928B0210928C02F4
:1012400086E0E7E8F2E0A1E8B2E001900D928A952D
:10125000E1F70E94861790939F0280939E020E945E
:101260000E189091A102891721F00E940E18809308
:10127000A1028091CC04843009F062CC83E0809399
:10128000E9008091E80082FF5BCC8091E80085FF57
:1012900021C00E94892281111BC000E210E0FE01E2
:1012A00031967F0108C08091F100D7018D937D01B7
:1012B0000150110969F08091E80085FDF4CF80911B
:1012C000E8008B778093E8000E948922882399F3B5
:1012D00091E001C090E08091E8008B778093E80076
:1012E000992309F42DCCE090FB03F090FC03898155
:1012F000E114F10459F08E3F09F01DC49A81933036
:10130000A8F19550933008F016C430C08B3009F422
:10131000CFC248F5853009F485C0B8F4823009F4AD
:1013200042C030F4813009F004C41A8289E0A2C3BB
:10133000833009F468C0843009F0FBC34C816B81B1
:101340008A810E94A91A9D831AC4873009F478C043
:1013500008F473C0883009F4EAC0893009F0E9C3A1
:101360000E941C1CE8C3803109F4E4C18E010F5FA8
:101370001F4F813160F48D3009F47EC108F47AC1C9
:101380008E3009F47DC18F3009F4A5C1D2C38231FA
:1013900009F4D5C108F4D1C1833109F4FAC18E3FF3
:1013A00009F49DC2C6C38A81823009F4E1C3833047
:1013B00051F0813009F0BDC30E947A179B838C8362
:1013C0007D836E83B8C38091F9039091FA03892BD2
:1013D00009F4B1C380912703909128039B838C83E8
:1013E0008091290390912A039D838E8380912B0302
:1013F00090912C039F83888780912D0390912E03D9
:1014000099878A8798C38A81823009F092C36B8159
:101410007C818D819E810E94583286E290E00E94FC
:10142000163289C32D813E813227232732274C81F2
:101430006B818A810E94F8197EC30E942E1A7BC399
:101440008A81813421F0823409F43BC074C34B811A
:101450005C818091D104982F93704115510539F426
:10146000911110920C018C7F8093D1041FC09111B7
:1014700002C010920C018C7F81608093D1042CE912
:1014800033E06CEC73E0F901329685919491F901A7
:10149000A591B4914A175B0731F02C5F3F4F62175B
:1014A000730789F780E060E00E94EA1B8D818093DA
:1014B000D5048E8120E048856F8190E00E948F1BCB
:1014C0003AC34B815C818D81B3E08B9F90011124E5
:1014D0002E3131050CF02FC3DE011196FA01EE0F0B
:1014E000FF1FE40FF51FE155FD4F20E030E090E0D5
:1014F0002817390708F01FC31396B901640F751F29
:101500006832710508F017C312966C9112976083C8
:1015100013966C911397618314966C9114976D33A5
:1015200008F06CE362832F5F3F4F3396E1CF8A81EF
:10153000823409F442C028F4803451F0813471F0CF
:10154000FAC2833409F459C0843409F459C0F3C28F
:1015500081E08B831C828CE38D83EDC28091D1046A
:10156000982F9370B1F08695869590E02CE933E042
:101570006CEC73E0F9013296A591B491F9014591B3
:1015800054918A179B0741F02C5F3F4F62177307F6
:1015900089F790E080E002C0942F852F9B838C8395
:1015A0008091D5048D838091D2048E838091D30461
:1015B0008F838091D4048887BEC20B811C814EE149
:1015C00050E06FEF70E0CE0103960E9475328CE917
:1015D00093E0DE0113962EE1FC014591549104172E
:1015E000150728F4223018F04D935D93225004968D
:1015F000E3E08C3C9E0781F79EC288E28B839CC10E
:101600008B8190E0883291050CF095C2FC01EE0FC1
:10161000FF1FE159FE4F20812B83FC01EE0FFF1FBE
:10162000ED5BFE4F25A52C83FC01E154FE4F20818C
:101630002D832FEF2F832E8363E471E040E050E091
:1016400020E030E0FB01E20FF31FE081F0E08E17B5
:101650009F0719F44E832F836EC22F5F3F4F2B30AD
:10166000310581F74F5F5F4F655F7F4F4430510514
:1016700039F761C280E11AC281E08A8381EDFAC143
:10168000EA80FB80FE24EF24FE24AC80B12CFDE137
:10169000AF16B10408F04FC26801C701815D9D4FCC
:1016A0009601201B310B2A153B0508F044C221EDA1
:1016B000E21621E0F20630F40E94F831D6011496C9
:1016C0008C9302C0F6011482FFEFEF1AFF0A2FEF8E
:1016D000C21AD20AE2CF8091F9039091FA03892BC2
:1016E00009F429C2EA80FB80FE24EF24FE24CC808A
:1016F000D12C3DE1C316D10408F01DC25801C70129
:10170000815D9D4F9501201B310B2C153D0508F087
:1017100012C241EDE41641E0F40628F4D501149616
:101720006C910E941632BFEFEB1AFB0AEFEFAE1A74
:10173000BE0AE5CF0E94E819FEC185E0B7C1EA8084
:10174000FB80FE24EF24FE24AC80B12CFDE1AF161B
:10175000B10408F0F0C16801C70187969601201B0B
:10176000310B2A153B0508F0E6C128EBE21621E013
:10177000F20630F40E94F831D60114968C9302C020
:10178000F6011482FFEFEF1AFF0A2FEFC21AD20AF6
:10179000E3CFEA80FB80FE24EF24FE24AC80B12C52
:1017A0003DE1A316B10408F0C6C148EBE41641E0E0
:1017B000F40608F0C0C188EB91E08E199F098A15E4
:1017C0009B0508F4B8C1370167E2660E711C809171
:1017D000F9039091FA03892B11F0680160C0E0FED3
:1017E0000FC0C70186960E94F83190E0982F882795
:1017F0002D81822B81159C4531F48FEF8D8303C0A1
:10180000C12CD12C03C0CC24C394D12CC5018E0D86
:101810009F1D450180FF1BC081E0881A910855E09B
:10182000452E512C4C0E5D1E480C591CC3018A0DCF
:101830009B1D0E94F831D2012C9130E0322F2227DB
:10184000282B21153C4519F48FEFF2018083F80114
:10185000EC0DFD1D2FEFCF01801B910B8815990515
:1018600008F0BBCF848190E0982F88273581832BA7
:1018700081159C4511F4248325833296ECCF48EBE7
:10188000E41641E0F40628F4D60114966C910E9407
:101890001632BFEFEB1AFB0AEFEFCE1ADE0AC701D2
:1018A00087969601201B310B2A153B0540F343C157
:1018B0008091F9039091FA03892B09F43CC1CE0180
:1018C00001960E94E822FFEF01EE24E0F150004073
:1018D0002040E1F700C000000E9421172CC1EA81DE
:1018E0008E2F90E08E30910508F025C1FC01EA5A58
:1018F000FF4F0C94523288E0E2E1F1E0DE01919674
:1019000001900D928A95E1F780E2D8011D928A95A7
:10191000E9F784E0898388E0FE01B196DE0115963F
:1019200001900D928A95E1F781E08D8704C184E7EB
:10193000898382E08A831B821C82FDC08C8190E0B7
:10194000982F88272B81820F911D092E000CAA0B3E
:10195000BB0B35E0880F991FAA1FBB1F3A95D1F723
:10196000AC01BD01405E5F4F6F4F7F4F4817590775
:101970006A077B0708F4DFC08437E2E09E07A10511
:10198000B10508F0D8C04537F2E05F076105710581
:1019900020F044E752E060E070E0481B590BBC01C6
:1019A000685D7E4FC8010E94DF31C5C040E250E053
:1019B0006FEF70E0C8010E9475328091F90389834E
:1019C000EA821B821C821D8281E0D9C081E090E006
:1019D0009093FC038093FB0382E390E09093AE022C
:1019E0008093AD020E9486179093AC028093AB0265
:1019F000A2C0EF28B9F180912703909128039C01A0
:101A0000369527958170182F12238091AB02909103
:101A1000AC020E946B1785369105F0F01123E1F0BE
:101A20000E9486179093AC028093AB028091AD0226
:101A30009091AE0201979093AE028093AD02892BF4
:101A400089F41092FC031092FB0381E090E09093E4
:101A5000FA038093F90306C082E390E09093AE020C
:101A60008093AD028091F90389838091FB038A837F
:101A70008091AD028B835FC01092FA031092F9033C
:101A80005AC040E250E06FEF70E0C8010E9475322A
:101A900052C08B81833061F0843061F181114BC081
:101AA00080E2D8011D928A95E9F788E08A8343C0D5
:101AB0006C81CE0181962AE0FC0111922A95E9F70A
:101AC000683060F4FAE06F9FB001112461527E4FDC
:101AD0004AE050E00E94E83180E001C08FEF898346
:101AE0008AE0FE01B196DE01129601900D928A9570
:101AF000E1F721C06C818AE0FE013596DE01919606
:101B000001900D928A95E1F7683070F40AE0609FC9
:101B1000B001112461527E4F4AE050E0CE0181961F
:101B20000E943A3280E001C08FEF89830E94EA1A56
:101B300002C08FEF8983CE0101960E94E8220C94A7
:101B4000A00509BD19BD09B400FEFDCF8091D800E4
:101B50008F7D8093D8008091E00082608093E000C8
:101B60008091E00081FDFCCF0E94C7250C94A70561
:101B700086E290E00E94F8311B821C821D828E83D7
:101B8000DACF8E2D90E08C30910580F080910F019E
:101B90008F5F80930F0182E080930C01809111018F
:101BA00081116DCAEE2009F442CA69CAFC01EC59E0
:101BB000FF4F0C94523280911101882309F4C0C266
:101BC00040E060E080E00E94181CBAC210910F0152
:101BD000110F110F110F08E0010F093208F008E290
:101BE0006091D2047091D3048091D4040E94C12FDB
:101BF000F62ED72EC82E101708F0CAC1E12FF0E03C
:101C0000DF01A154BE4F8C9190911001982331F0C7
:101C10002C2D4F2D6D2DCF010E941A1C1F5FEBCF75
:101C200010910F01110F110F110F08E0010F093270
:101C300008F008E2D090D304F090D404C090D2040D
:101C4000B6018F2D0E94C12FB62EA72E982E60911F
:101C5000D5046C0D7D2D8F2D0E94C12FF62ED72E11
:101C6000C82E101708F094C1E12FF0E0DF01A15455
:101C7000BE4F8C9190911001982361F080FF04C0B9
:101C80002C2D4F2D6D2D03C0292D4B2D6A2DCF01ED
:101C90000E941A1C1F5FE5CFF0900F01FF0CFF0C94
:101CA000FF0C08E0D02EDF0C48E24D1510F418E2CE
:101CB000D12EB090D304A090D4042091D504632DEC
:101CC000629F612D1124C62EFD1418F50F2D10E012
:101CD000F801E154FE4F9081809110018923B9F001
:101CE000F801EE0FFF1FED5BFE4F85A582958F700B
:101CF0006091D2048C9D600D11247B2D8A2D0E9451
:101D0000C12F462F282F672FC8010E941A1CF39459
:101D1000DBCF81E077E27D1508F013C211C2F090AD
:101D20000F01FF0CFF0CFF0CA8E0DA2EDF0C88E29D
:101D30008D1510F4F8E2DF2EB090D304A090D404F7
:101D40002091D504032D029F012D1124C02EFD14D6
:101D500038F50F2D10E0F801E154FE4F908180918D
:101D600010018923D9F0F801EE0FFF1FE159FE4F52
:101D70006081C69EB0011124E5E075956795EA95EE
:101D8000E1F78091D204680F7B2D8A2D0E94C12F2C
:101D9000462F282F672FC8010E941A1CF394D7CF13
:101DA00081E027E22D1508F0CCC1CAC1F0900F01E7
:101DB000FF0CFF0CFF0C48E0D42EDF0C38E23D1581
:101DC00010F438E2D32E6091D50466958091CD044D
:101DD0009091CE040E94D61CC82EFD1408F042C07B
:101DE0000F2D10E0F801E154FE4F90818091100119
:101DF0008923B1F1F801EE0FFF1FE159FE4F408139
:101E000050E044565109F801EE0FFF1FED5BFE4F05
:101E100025A530E020523109449FB001459F700D47
:101E2000700D1124229FC001239F900D900D11244D
:101E3000860F971F0E947C1C9091D30443E0849FDF
:101E4000B0011124759567956C0D792F8091D4049C
:101E50000E94C12F462F282F672FC8010E941A1CED
:101E6000F394BBCF81E067E26D1508F06AC168C1E9
:101E700010910F01110F110F110F08E0F02EF10E4C
:101E800078E27F1510F4B8E2FB2E6091D5046695D8
:101E90008091CD049091CE040E94D61CB82E1F15BF
:101EA00078F5C12ED12CF601E154FE4F908180913E
:101EB0001001892319F1F601EE0FFF1FED5BFE4FB4
:101EC00025A530E020523109F601EE0FFF1FE15940
:101ED000FE4F408150E0445651096091D204709108
:101EE000D3048091D4040B2D0E94AD1C0E94C12FFD
:101EF000462F282F672FC6010E941A1C1F5FCFCFC5
:101F000081E097E29F1508F01CC11AC110910F01E2
:101F1000110F110F110F08E0010F093208F008E24C
:101F2000D090D304F090D404C090D2046091D50432
:101F30006695669566958091CD049091CE040E9439
:101F4000D61C0E94371C805887FD8195880F682F0A
:101F50002CE0629F612D11246C0D7D2D8F2D0E9430
:101F6000C12FF62ED72EC82E101790F4E12FF0E0D7
:101F7000DF01A154BE4F8C9190911001982331F054
:101F80002C2D4F2D6D2DCF010E941A1C1F5FECCF01
:101F900081E0083208F4D5C0D3C088E59CE102C0D6
:101FA00085E796E10E94C51DCCC000910F01000F8E
:101FB000000F000F68E0962E900EACE2A91510F409
:101FC0005CE2952E80911101882361F040E060E091
:101FD00080E00E94181C8CE2E5E5F2E0DF011D9232
:101FE0008A95E9F780910F01811115C08091530204
:101FF000909154020E946B1721E08931910508F4F9
:1020000020E020935202499730F00E948617909367
:1020100054028093530210E0492C512C4BE0842E43
:10202000041515050CF05EC03801B3E06B2277246F
:102030006801D594C794D594C794869CC001879CA9
:10204000900D1124FC01EB5AFD4FEC0DFD1DF080AD
:102050008D5B9E4FFC01EC0DFD1D80818F3F59F182
:10206000A82EB12CF501E154FE4F90818091100112
:10207000892309F13F2D25E5321B08F430E07091EA
:10208000D3042AEA4F2D240F08F42FEF4091D404F3
:1020900062E0269F200D11242E5F249F212D112404
:1020A0006AEA631B822F0E94C12F462F282F672FB9
:1020B000C5010E941A1C80915202882381F02F2DA5
:1020C00071E0271B08F420E0869CC001879C900DDE
:1020D00011248B5A9D4FFC01EC0DFD1D20830F5FD9
:1020E0001F4F9ECF81E09BE2991558F529C0F090D3
:1020F0000F01FF0CFF0CFF0C28E0D22EDF0CA8E232
:10210000AD1510F498E2D92EFD14B0F40F2D10E0A7
:10211000F801EE0FFF1FE00FF11FE155FD4F608149
:10212000718182810E94C12F462F282F672FC801FD
:102130000E941A1CF394E8CF81E0B7E2BD1508F4C1
:1021400080E090910F019F5F90930F01882309F425
:1021500022CD0C943F088F929F92AF92BF92CF9264
:10216000DF92EF92FF920F931F93CF93DF9300D0F4
:1021700000D0CDB7DEB7FC0180819181238134810D
:10218000232B31F09F3F31F491E08F3F19F403C0CE
:1021900091E001C090E090FD64C57F0161E0CF0156
:1021A0000E94D12C8C01F7019281992309F482C0FD
:1021B000980122513F452031310508F041C58FEF8C
:1021C00093E00E94F83181117EC09EEED92ED00E90
:1021D0000FE212E0DD2071F00115F4E01F0709F4B1
:1021E00072C0C8010E94F831811101C0DA940F5FFA
:1021F0001F4FF0CF19821A821B821C82AA24AA9434
:1022000068012FEFC21AD20AC8010E94F8318983EF
:102210001A82882309F457C0813009F046C048016A
:1022200082E0880E911CC6010E94F8318A838823BF
:1022300009F449C09FEF980F933060F4680193E070
:10224000C90ED11CC4010E94F8318B8381112DC0AD
:102250008601D6CF843011F06401FACFC4010E9408
:10226000F831B82E6801E4E0CE0ED11CC801039607
:102270000E94F831BB2039F1882329F1282F30E062
:1022800021503109A29EA001A39E500D11248B2D37
:1022900090E00197840F951F0197D0F2EFE9FFE0DE
:1022A0003197F1F700C00000F7CFCE0101960E94F0
:1022B0001E2CCECF0031FFE51F0799F481E00E946C
:1022C000AC250E94BA1D80913F05877009F4C9C4EE
:1022D000F7018281882309F4C4C482E00E94162A8F
:1022E000C0C401312FE5120711F482E0E8CF0933B1
:1022F000110571F4992309F494C180912402882373
:1023000019F0109224024EC081E0809324024AC04A
:10231000033F2CE5120759F190F4083DECE51E0748
:10232000E9F0093DFCE51F07A1F1073D2CE5120787
:10233000B1F506E221EE41EE67ED7CE514C0053F04
:102340008CE5180701F1C8F0063FFCE51F0739F5D9
:1023500007E225EE46EE66EF7CE505C007E225EED6
:1023600045EE68ED7CE5C7010E947519ACCF06E229
:1023700021EE40EE63EF7CE5F6CF07E225EE44EE7A
:1023800064EF7CE5F0CF06E221EE42EE65EF7CE5FE
:10239000EACF08E221E045EE69ED7CE5E4CF992340
:1023A00009F43FC11092FF0302302CE5120708F434
:1023B00022C106318CE5180738F098012A5F3C45A8
:1023C0002930310508F017C10E945D2990931B0246
:1023D00080931A0200319CE5190709F4C3C008F084
:1023E00041C00830FCE51F0709F49AC0F0F404303E
:1023F0008CE5180709F487C068F40230ECE51E0785
:1024000009F477C003301C4509F0E5C080911A0239
:10241000826076C006302CE5120709F46EC008F021
:102420007BC080911A0288606BC00C309CE5190754
:1024300009F485C068F40A30FCE51F0709F474C08C
:1024400008F079C00E94C72580911A02806858C0A0
:102450000E308CE5180709F476C008F07FC0809133
:102460001A028BC00B3FECE51E0709F44FC018F5AC
:1024700003312CE5120709F47DC078F401319CE5A5
:10248000190709F473C002311C4509F0A4C00E9469
:10249000C72580911A028F7733C00531FCE51F07ED
:1024A00009F472C008F486C00A3F1C4509F093C0C5
:1024B00080911B023EC00F3F9CE5190709F45FC0E5
:1024C00058F40D3FFCE51F0709F444C008F43FC071
:1024D00080911B0282602DC001308DE5180709F440
:1024E00075C008F45DC002301D4509F074C060E09D
:1024F0006EC080911A02816003C080911A028061CF
:1025000080931A0268C080911A0211C080911B0248
:10251000826080931B025FC080911A028062F0CFBC
:1025200080911A028064ECCF80911A0288608460E6
:10253000E7CF8160EECF80911A028E7FE1CF80914C
:102540001A028D7FDDCF80911A02877FD9CF8091CB
:102550001B0218C080911B028D7FDBCF80911A0275
:102560008F7ECECF80911A028F7DCACF80911A02C2
:102570008F7BC6CF80911A02877F8B7FC1CF8091DE
:102580001B028D7F8E7FC5CF80911A0282FB22278E
:1025900020F991E0922790FB82F990FB83F9B0CF6C
:1025A00080911B02982F909591708E7F892B90FBC4
:1025B00081F9AFCF0E94C72580911A0287FB22279D
:1025C00020F991E0922790FB87F99ACF61E08EE0A5
:1025D00090E00E94163260911A0210911B0284E072
:1025E00090E00E941632612F82E290E00E94163243
:1025F0000E94C72568CE809142050631FCE51F0781
:1026000009F58A7A91E009F490E090932F038823EA
:1026100011F065E301C069E28AEE94E00E94C817F8
:102620000EC006311C4509F0B6C080912F038823E7
:1026300009F415C365E38AEE94E00E94BB170E947B
:10264000B72B41CE8272093CFCE51F0709F45AC042
:1026500028F5053CECE51E0709F445C0A8F4033C49
:102660002CE51207B1F1D0F5023CFCE51F0709F09B
:102670005FC08091D10491E089278093D1041092AA
:102680000C01909330031FCE073C2CE5120781F11B
:10269000A0F540EE5BE166ED7BE142C00D3CECE570
:1026A0001E0709F440C050F40B3C2CE5120779F1E9
:1026B00098F54FEA5BE162EA7BE132C0063DECE56A
:1026C0001E0708F400CE0D35FDE51F0709F4FBCD0C
:1026D0002FC043E05CE16DE07CE122C04DE05CE1B5
:1026E00063E07CE11DC046ED5BE160EE7BE118C07C
:1026F0004CEB5BE169EC7BE113C049EC5BE16CEB1B
:102700007BE10EC042EA5BE16FEA7BE109C04DE587
:1027100056E169E676E104C049E656E16DE576E109
:102720000E94891BD0CD61E081E00E94EA1BCBCDE5
:10273000992389F10A352DE5120741F150F401156D
:102740009CE51907A9F00E3D1C4529F50E94792941
:10275000BACD0B35FDE51F07D9F00C351D45D9F471
:1027600080911B0282FB882780F991E0892711C0A4
:102770000E94C7258FEF94E3ECE081509040E04049
:10278000E1F700C000000E9421179DCD81E001C04B
:1027900080E00E94F529F701868197810097B9F4BE
:1027A000F701828100811181882349F0C8010E94CC
:1027B0001C23D82E682FC8010E94792504C0C801A7
:1027C0000E944925D82EB8018D2D0E94D71A0E944B
:1027D000D427D82E192FF701A280058102950F70FA
:1027E00080913F05877099F0AA2089F0892F807F1A
:1027F000803421F080E28D0D883048F082E00E9424
:10280000162A80913F058770CC24C3948111C12C76
:10281000B12EB2948FE0B8228B2D90E08C309105D0
:1028200008F0EAC1FC01E059FF4F0C945232812FAD
:10283000807F1F70882311F01295107FAA20B9F0B5
:10284000112309F4BBC180E28D0D883010F0D11046
:1028500006C090914205192B1093420505C0909136
:102860004105192B109341050E94B72BA7C18D2D4F
:102870000E946926112309F4BFC180E28D0D8830C2
:1028800010F0D11004C0812F0E94EE2906C01095CF
:10289000909141051923109341050E94B72BACC1BB
:1028A000812F807F1F70803211F01295107FDD2004
:1028B00029F0F1E0DF1609F43FC048C0AA2041F139
:1028C000002301F1013099F480911B0282FD94C133
:1028D00080914505182B181709F48EC10E948617A0
:1028E00090934405809343051093450585C10530B9
:1028F00049F40E94E32980913C05181759F110937F
:102900003C0528C080914505812B0E945F2674C13B
:10291000002349F0013069F480914205812309F4D4
:102920006BC10E94332A0E94E329812F0E945826FE
:1029300063C10530C1F760C1AA2021F0063008F05C
:102940005BC108C0053008F057C1EFCFAA2021F0C5
:10295000011134C1812FD9CF002339F329E3D212D9
:1029600008C08FEF97EEE3E081509040E040E1F740
:102970003EC1FFE728E381E0F15020408040E1F7CD
:1029800036C1812F86958695837019F0813061F06C
:1029900033C1AA2021F08D2D912F937002C080E0C9
:1029A00090E00E94F8172EC1AA2021F08D2D912FC2
:1029B000937002C080E090E00E94E21723C1812F53
:1029C0008370A9F5A1101CC14D2D42954695477005
:1029D000440F440F8D2D8F7090E09C01042E01C098
:1029E000220F0A94EAF7D4FE08C08FE090E001C0FD
:1029F000880F4A95EAF7809501C080E016951695F4
:102A00001370123069F088F490914605113019F076
:102A1000822B892302C0922B892B0E94C325F0C0F0
:102A2000822B909146058927F8CF822BF6CFAA20DA
:102A300019F0812F817001C08695882309F4E0C0C8
:102A40004D2D429546954770440F440F8D2D8F7044
:102A500090E09C01042E01C0220F0A94EAF7D4FEF4
:102A600008C08FE090E001C0880F4A95EAF7809592
:102A700001C080E0169516951370123059F078F465
:102A80009091D704113019F0822B892309C0922B21
:102A9000892B06C0822B9091D704892701C0822BF5
:102AA0000E94A625ADC01F70AA2039F0812F0E9478
:102AB000B8258D2D0E945F26A3C08D2D0E9458261B
:102AC000812F0E94AC259CC092EFD91659F19D151B
:102AD00038F0E0EFDE1659F0F1EFDF16E1F069C0F3
:102AE00023EFD21631F184EFD81681F162C0AA200B
:102AF00071F0053008F080C01F7181E090E001C0E6
:102B0000880F1A95EAF79091D70489271CC00630E0
:102B100008F072C0F1CFAA2039F0812F8F710E9486
:102B2000B8256AC0AA20C9F3812F8F710E94AC25F5
:102B300063C0AA2039F01F7181E001C0880F1A9587
:102B4000EAF701C080E00E94A62556C0AA20D1F075
:102B500080913C050E94EE2980913F05877084306A
:102B600039F40E940F2A812F8F710E94AC2566C014
:102B7000053008F063C01F71812F0E94B82563E003
:102B8000812F10C09091420580913C05892B809344
:102B90004205053050F00E940F2A0E94332A64E05B
:102BA000812F8F710E94F42B49C081E00E94162A68
:102BB00045C0AA2039F0002309F4AFCF8D2D0E9423
:102BC000C0261AC0002309F4AFCF99E3D91208C078
:102BD000EFEFF7EE23E0E150F0402040E1F707C0CF
:102BE0008FE798E3E1E081509040E040E1F700C0DA
:102BF00000008D2D0E94692688EF8B0D843010F423
:102C00000E940E18CC20A9F080913F0580FD11C0D4
:102C1000F70112828595859585950E94B825C70193
:102C20000E94AB1080913F058595859585950E9402
:102C3000AC2560E0C7010E94D12C13C0C12CE0CFAD
:102C400000318FE5180711F481E006C00131EFE58E
:102C50001E0709F04CCB82E00E94B82532CB69E216
:102C6000EACC0F900F900F900F90DF91CF911F91B2
:102C70000F91FF90EF90DF90CF90BF90AF909F901B
:102C80008F9008958091B8040895E1E3F3E093E014
:102C9000E93AF90729F08183608342833396F7CFBD
:102CA0000895FC01EE0FFF1F8E0F9F1FFC01EF5CCC
:102CB000FC4F6183408322830895E1EDF4E0248199
:102CC00030E1231B08F420E0248381E0809330036B
:102CD0000895E1EDF4E0248130E1230F08F42FEFB3
:102CE000248381E0809330030895E42FF0E0EE0F19
:102CF000FF1FE159FE4F9081921B97FD9195292F5F
:102D000038E1239F212D1124620F089524E02093A0
:102D1000E9002FEF3091E800215035FD06C035ED78
:102D20003A95F1F700002111F5CF2091E80025FF39
:102D30000BC040E050E066E070E00E94BC22809151
:102D4000E8008E778093E8000895CF93DF9321E029
:102D50002093E9002FEF3091E800215035FD06C0A7
:102D600035ED3A95F1F700002111F5CF2091E800FB
:102D700025FF14C0EC0140E050E068E070E00E94E4
:102D8000BC228091E8008E778093E80088E0FE0105
:102D9000A9EBB4E001900D928A95E1F7DF91CF9114
:102DA0000895809A81B38E7F91B391602FB7F89484
:102DB000E1E3F3E033E0E93AF30789F0319148E0E9
:102DC00091BB000000C037FF81BB330F000000C083
:102DD00000C000C081BB00C04A9591F7EBCF2FBF68
:102DE0008FE594E00197F1F700C0000008959091FD
:102DF000CC04943029F58093B3047093B5046093A8
:102E0000B4049093E9008FEF9091E800815095FD14
:102E100006C095ED9A95F1F700008111F5CF8091EC
:102E2000E80085FF0DC040E050E063E070E083EB18
:102E300094E00E94BC228091E8008E778093E800A5
:102E4000089581E08093E00080E28093D8001092A2
:102E5000C9008FE19EE40197F1F700C0000087E010
:102E600090EBDC0180934A0590934B05A0934C05B1
:102E7000B0934D059CE088E10FB6F894A895809337
:102E800060000FBE90936000FFCF78941F920F9266
:102E90000FB60F9211248F939F93AF93BF9380919E
:102EA000AF049091B004A091B104B091B204019626
:102EB000A11DB11D8093AF049093B004A093B10401
:102EC000B093B204BF91AF919F918F910F900FBEBD
:102ED0000F901F9018959C014FB7F8948091AF0404
:102EE0009091B004A091B104B091B2044FBF821B85
:102EF000930B08952FB7F8946091AF047091B004CC
:102F00008091B1049091B2042FBF08952FB7F89427
:102F10008091AF049091B004A091B104B091B2043B
:102F20002FBF08951F920F920FB60F9211248F9307
:102F30009F93AF93BF938091AE04811113C0809192
:102F4000AF049091B004A091B104B091B204419645
:102F5000A11DB11D8093AF049093B004A093B10460
:102F6000B093B204BF91AF919F918F910F900FBE1C
:102F70000F901F9018959C012A5F3F4FFC014281E2
:102F8000461301C01282019682179307B9F708957C
:102F90009C01FC0132969FEF80E04191461789F039
:102FA0009F3F19F4411101C0982F8F5F8630A9F718
:102FB0009F3F39F0F901E90FF11D97FDFA95628302
:102FC000089508952091AC043091AD042817390775
:102FD00071F09093AD048093AC04E091AA04F09159
:102FE000AB04309721F00084F185E02D0994089519
:102FF0002091A8043091A9042817390771F0909303
:10300000A9048093A804E091AA04F091AB0430973E
:1030100021F00680F781E02D09940895E091AA043B
:10302000F091AB04309721F00190F081E02D0994EC
:1030300080E00895BC014091A4048091A504942FE0
:10304000981729F1292F30E0F901EE0FFF1FE45600
:10305000FB4F0190F081E02DE617F70799F487E028
:10306000869FF001879FF00D1124EC59FB4F81E002
:10307000848394130CC02F5F3F4F2370332720931A
:10308000A40408952F5F3F4F922F9370D9CF0895D6
:103090000F931F93CF93DF9380910304882309F448
:1030A00051C0C09102041CE080910304C81708F0CD
:1030B00045C001E00C0F00930204D0E01C9FF0011A
:1030C0001D9FF00D1124EC5FFB4F908181812381C6
:1030D0003481232B31F08F3F31F481E09F3F19F48D
:1030E00003C081E001C080E080FD26C01C9FD001AC
:1030F0001D9FB00D1124AC5FBB4F16968D919C9116
:103100001797892B31F418968D919C9119970196F8
:1031100051F420813181428153816481758186819E
:1031200097810E94D2251C9FF0011D9FF00D112454
:10313000EC5FFB4F14821382C02FB6CF10920304B2
:1031400010920204DF91CF911F910F910895109278
:10315000010410920004E4E6F4E08581811102C0CC
:1031600014821682379684E0EC39F807B1F7089597
:103170001092A7041092A60410920D018091A5044C
:103180008093A4040E94A7180C9448183F924F9271
:103190005F926F927F928F929F92AF92BF92CF92E7
:1031A000DF92EF92FF920F931F93CF93DF93C09123
:1031B000A40497E0892E01E010E02CE0322E3EEFCF
:1031C000932E442443948091A504C81709F478C031
:1031D000D0E0FE01EE0FFF1FE456FB4F808191818E
:1031E000889ED001899EB00D1124AC59BB4F149616
:1031F0002C911497211161C050900304E4E0F4E095
:1032000020E030E0712C5D01251508F054C0E28407
:10321000F384D501CD90DC906FEF7FEF612C462DCC
:1032200050E0DA01AA0FBB1FAC0DBD1D0D90BC9183
:10323000A02D109731F0EA16FB0609F4BA01639449
:10324000EECF6F3FBFEF7B0791F1D80102C0AA0F0D
:10325000BB1F6A95E2F77A2AB80102C0660F771F92
:103260006A94E2F7AB0141505109672D70E04617AF
:103270005707D9F4329EF001339EF00D1124EC5F14
:10328000FB4F889ED001899EB00D1124AC59BB4FD5
:1032900012962D913C9113973783268390829182C9
:1032A0009187808715964C9206C0148213822F5FF7
:1032B0003F4F3C96A9CF0E941A182196C37083CF26
:1032C0000E944818DF91CF911F910F91FF90EF90CE
:1032D000DF90CF90BF90AF909F908F907F906F9036
:1032E0005F904F903F900C94A7180F931F93CF932C
:1032F000DF93C42FD22FFC0182818823C9F0409331
:10330000FF030E9486179093FE038093FD0380E2E3
:103310008C0F883008F057C0C77081E001C0880F5B
:10332000CA95EAF7DF91CF911F910F910C945F2618
:103330008091FF03481330C08091FD039091FE03FC
:103340000E946B17883C910538F510E21D0FCD17D0
:10335000B9F080E28C0F883040F4C77081E001C082
:10336000880FCA95EAF70E945826183028F581E0A0
:103370009D2F977001C0880F9A95EAF70E945F26EB
:10338000802F0E945C271830F0F4D77081E001C0D4
:10339000880FDA95EAF70AC080E28C0F883098F43B
:1033A000C77081E001C0880FCA95EAF7DF91CF911D
:1033B0001F910F910C945826802FDF91CF911F9170
:1033C0000F910C945C27DF91CF911F910F9108957D
:1033D000CF93DF93CFE2D2E060E0CE010E941632BD
:1033E0002196C11584E0D807B9F7DF91CF910895F0
:1033F0000F931F93CF93DF93853058F5643048F5D2
:103400004B3038F521159CE5390731F4E091F9038B
:10341000F091FA03EF2BE9F08901C42FD0E0CC0F33
:10342000DD1F96E1699FC00DD11D112498E5899F8C
:10343000C00DD11D1124612FCE0187960E94163236
:10344000602FCE018896DF91CF911F910F910C9440
:103450001632DF91CF911F910F9108956F927F9255
:103460008F929F92AF92BF92CF92DF92EF92FF9294
:103470000F931F93CF93DF93CDB7DEB72A970FB685
:10348000F894DEBF0FBECDBFA090F903B090FA0351
:1034900081E090E09093FA038093F903612CC12CB2
:1034A000D12C712CE12CF12C00E010E046018E0CA7
:1034B0009F1CF801EE0FFF1FE80DF91DE453FC4FB0
:1034C00025913491402F672D862D0E94F8190F5FAA
:1034D0001F4F0B30110569F786E1E80EF11C73945C
:1034E00094E07912E1CFE8E5CE0ED11C6394F5E0CB
:1034F0006F12D7CFCE0101967C018AE0F7011192BD
:103500008A95E9F70FED11E04AE050E0B801C701F4
:103510000E943A32065F1F4F0F32F2E01F07A1F7F9
:10352000B092FA03A092F9032A960FB6F894DEBF80
:103530000FBECDBFDF91CF911F910F91FF90EF9004
:10354000DF90CF90BF90AF909F908F907F906F90C3
:1035500008950F931F93CF93DF93853008F5643060
:10356000F8F44B30E8F4C42FD0E0CC0FDD1F26E197
:10357000629FC00DD11D112438E5839FC00DD11D60
:103580001124CE0187960E94F83190E0182F002771
:10359000CE0188960E94F8319801282BC90102C0FB
:1035A00080E090E0DF91CF911F910F910895462F19
:1035B0002091FB033091FC03232B49F4853038F430
:1035C000743028F46B3018F4672F0C94A91A80E03B
:1035D00090E00895CF92DF92EF92FF920F931F93A6
:1035E000CF93DF93CDB7DEB72A970FB6F894DEBF3F
:1035F0000FBECDBF80E5E9EAF3E0DF011D928A95B9
:10360000E9F788E3E4E6F4E0DF011D928A95E9F743
:1036100089EAC82E83E0D82E7F010FED11E0F70173
:10362000D182C0824AE050E0B801CE0101960E94EA
:10363000E83188E0FE013196D60101900D928A951D
:10364000E1F789859A85D70113969C938E931297FB
:10365000BAE0CB0ED11CE7E0EE0EF11C065F1F4F67
:103660000F32F2E01F07D9F62A960FB6F894DEBFA4
:103670000FBECDBFDF91CF911F910F91FF90EF90C3
:10368000DF90CF900895CF93C82F811102C06FEFC4
:1036900001C061EA83E290E00E941632C11102C0CB
:1036A0006FEF01C066E384E290E00E941632C11120
:1036B00002C06FEF01C067EE85E290E0CF910C94FD
:1036C000163280E00E94431B60E086E290E00E9498
:1036D00016320E942E1A0E94E81981E00C94431BB6
:1036E00083E290E00E94F831813A81F484E290E034
:1036F0000E94F831863351F485E290E00E94F8315F
:1037000091E0873E09F090E0892F01C080E0817050
:103710000895882311F0FA0101C0FB0109949091EA
:10372000D104937071F08093D2046093D3044D332D
:1037300008F04CE34093D40480913003282B20936D
:1037400030030895E1EDF4E0438120E1421B08F4E9
:1037500040E0818121E0628190E00C948F1BE1EDDB
:10376000F4E0438120E1420F08F44FEF818121E032
:10377000628190E00C948F1BE1EDF4E0628120E126
:10378000621B08F460E0818121E0438190E00C94A9
:103790008F1BE1EDF4E0628120E1620F08F46FEF2E
:1037A000818121E0438190E00C948F1BE1EDF4E0F6
:1037B000818190E021E04381628108970C948F1B06
:1037C000E1EDF4E0818190E021E04381628108969F
:1037D0000C948F1B9091D1049370A1F0811102C0C1
:1037E000946007C08C3010F09C6203C0880F880F73
:1037F000982B9093D10410920C0180913003682B88
:103800006093300308958091D10486958695815008
:1038100009F48BE061E00C94EA1B8091D104869559
:1038200086958F5F8C3008F081E061E00C94EA1B94
:103830000C9445160C94511646E050E06CE170E093
:1038400081ED94E00C940632E1EDF4E085E08083B4
:1038500080911A0190911B01A0911C018183928398
:10386000A3838FE784838FEF85830C941C1C482FE0
:10387000982F46FD9095E92FEF739F7046FD9F5F4F
:10388000E295EF70EE0FF0E0E45DFE4F2181299F9D
:10389000802D212D112482958F702295207F822BDF
:1038A0003081982F930F892F47FD81958058089577
:1038B0000F931F93CF93DF93D62F072F182FC42F6B
:1038C000822F0E94371CEC2FF0E0EE0FFF1FE15912
:1038D000FE4F90819058890F87FD8195880F682F42
:1038E0002CE0629F612D11246D0F702F812FDF91CD
:1038F000CF911F910F910895BC018230910508F47A
:103900000895613E8EE1780748F49B0195E0369575
:1039100027959A95E1F748E0420F01C04FEF91E0FB
:10392000242F30E0290F311D35952795229FF00176
:10393000239FF00DF00D11246E177F0718F44FEF41
:10394000420F04C02F3F39F091E0920F491740F722
:103950008FEF890F08958FEF08950F93CF93DF9323
:10396000D72FC82F47FD4195E2E3F0E0CF01841B3C
:10397000910947FD9395889FB001899F700D700D47
:103980001124229FC001239F900D900D1124860FBA
:10399000971F0E947C1C682F660F860F682F600F90
:1039A0007D2F8C2FDF91CF910F91089520E030E093
:1039B000869F212D969F200D311D1124C901089548
:1039C0008091C40487FF11C08091E80082FD05C08A
:1039D0008091CC048111F8CF11C08091E8008B77E1
:1039E0000BC08091CC04882349F08091E80080FFCF
:1039F000F8CF8091E8008E778093E8000895982FA3
:103A0000973068F59093E900981739F07091EC00C1
:103A10002091ED005091F00003C0242F762F50E04C
:103A200021FD02C09F5FECCF3091EB003E7F3093D1
:103A3000EB003091ED003D7F3093ED003091EB00D5
:103A400031603093EB007093EC002093ED005093C5
:103A5000F0002091EE0027FDE5CF80E008958F7003
:103A60008093E90081E008952091CA043091CB044D
:103A70002617370748F06115710539F42091E800E1
:103A80002E772093E80001C0B901FC0120E0611508
:103A9000710579F18091CC048823F1F18530F1F141
:103AA0008091E80083FD3CC08091E80082FD2EC03B
:103AB0008091E80080FFEBCF2091F3008091F2002D
:103AC00090E0922B6115710551F08830910538F422
:103AD00021912093F100615071090196F3CF21E00B
:103AE000089709F020E08091E8008E778093E80045
:103AF000CECF2111CFCF0AC08091CC04882361F0B2
:103B0000853061F08091E80083FD0AC08091E80073
:103B100082FFF2CF80E0089582E0089583E0089567
:103B200081E00895BC0184E00C94F716BC0183E0A9
:103B30000C94F7160F931F93CF93DF9300D000D010
:103B4000CDB7DEB789836A834B831C8204E610E01D
:103B500024E030E0AE014F5F5F4F60E084E10E94FF
:103B600052310F900F900F900F90DF91CF911F91D6
:103B70000F9108958091D704982F9670963011F484
:103B8000886001C0877F0C94A625DF92EF92FF9298
:103B90000F931F93CF93DF938C01C0910F01CC0F34
:103BA000CC0FCC0FD8E0DC0FD93208F0D8E260910E
:103BB000D5046695669521E0620F08F46FEF809159
:103BC000CD049091CE040E94D61CD82ECD17F0F4CF
:103BD000EC2EF12CF701E154FE4F90818091100101
:103BE000892391F06091D2047091D3048091D40420
:103BF0002D2D4C2FF80109950E94C12F462F282FFB
:103C0000672FC7010E941A1CCF5FE0CF81E0D83236
:103C100008F080E0DF91CF911F910F91FF90EF901E
:103C2000DF9008951F93CF93DF93CDB7DEB7AA97A8
:103C30000FB6F894DEBF0FBECDBFE4ECF4E0809188
:103C4000F100819344E0EC3CF407C9F78091C5048E
:103C5000833009F462C030F4813071F0823009F4AD
:103C60009CC0B3C08A3009F488C08B3009F46DC0A1
:103C7000893009F0AAC020C08091C404813A09F0BB
:103C8000A4C08091E800877F8093E8008091C804F9
:103C90009091C904892B21F468E089EB94E003C07A
:103CA00060E080E090E070E00E94341D8091E800C8
:103CB0008B778093E80089C08091C404813209F039
:103CC00084C08091C8049091C904009719F00297AC
:103CD00009F07BC08091E800877F8093E8008091A5
:103CE000E80082FD05C08091CC048111F8CF6DC041
:103CF0002091F3008091F20090E0922B029729F43A
:103D00008091F1008B7F813021F48091F1008093CC
:103D1000B8048091E8008B7754C08091C404813A44
:103D200009F053C08091C8049091C904892B09F00F
:103D30004CC08091E800877F8093E8008091E80084
:103D400080FFFCCF80910E0137C08091C404813286
:103D5000E1F58091C8049091C904892BB1F5809157
:103D6000E800877F8093E8000E94E01C8091C604F1
:103D700080930E010E94C72528C08091C40481321F
:103D800021F58091E800877F8093E8000E94E01C85
:103D90008091C7048093B70418C08091C404813A0D
:103DA000A1F48091E800877F8093E8008091E8008B
:103DB00080FFFCCF8091B7048093F1008091E800F0
:103DC0008E778093E8000E94E01C8091E80083FFDA
:103DD000E9C18091C4049091C504492F50E04A3054
:103DE000510508F0DFC1FA01E458FF4F0C9452323C
:103DF000803821F0823809F0D5C108C08091C10413
:103E00009091C204992389F082600FC08091C80408
:103E10008F70873008F0C6C18093E9008091EB0075
:103E200085FB882780F91092E9009091E800977F40
:103E30009093E8008093F1001092F1007CC1282F4C
:103E40002D7F09F0AFC1882319F0823061F0AAC13B
:103E50008091C604813009F0A5C1933009F080E05B
:103E60008093C2042EC08091C60481112AC0809123
:103E7000C8048F702FEF280F263008F093C180936D
:103E8000E9002091EB0020FF1CC0933021F48091C9
:103E9000EB00806214C09091EB0090619093EB0076
:103EA00021E030E0A90102C0440F551F8A95E2F7D6
:103EB0004093EA001092EA008091EB0088608093C2
:103EC000EB001092E9008091E800877F8093E80082
:103ED0000E94E01C67C1811165C11091C6041F7763
:103EE0008091E3008078812B8093E3008091E8004B
:103EF000877F8093E8000E94E01C8091E80080FFAB
:103F0000FCCF8091E30080688093E300111102C030
:103F100082E001C083E08093CC0444C180588230A9
:103F200008F040C12091C6043091C7042C3D53E0F5
:103F3000350779F583E08A838AE289834FB7F8945D
:103F4000DE01139620E03EE051E2E32FF0E05093D3
:103F50005700E49120FF03C0E295EF703F5FEF70E0
:103F60008E2F90E0EA3010F0C79601C0C0968D9376
:103F70009D932F5F243149F74FBF8091E800877FE1
:103F80008093E8006AE270E0CE0101960E94341D41
:103F9000C0C08091C8049091C904432F5527433075
:103FA0005105B1F068F44130510509F40AC14230BD
:103FB000510509F0F7C08BE590E0EFE0F6E057C05F
:103FC0004132510589F14232510509F43CC0EAC041
:103FD000C901992781309105B9F070F082309105BF
:103FE000D9F0039709F0DEC0ECE7F6E0E4918E2FFC
:103FF00090E0ECE7F6E038C0E4EEF6E0E4918E2FD6
:1040000090E0E4EEF6E030C0E8ECF6E0E4918E2FCC
:1040100090E0E8ECF6E028C0EAE9F6E0E4918E2FC3
:1040200090E0EAE9F6E020C08330910508F0BAC0DC
:10403000880F991FFC01E35CFE4F0190F081E02D99
:1040400089E090E014C08330910508F0ABC0FC011A
:10405000EE0FFF1FE95CFE4F0190F081E02DDC01C7
:10406000AC5CBE4F8C9190E0009709F49BC020910E
:10407000E800277F2093E8002091CA043091CB0408
:104080002817390708F4C90140E0009789F1209109
:10409000CC04222309F43DC02530D9F12091E80059
:1040A00023FD37C02091E80022FD2FC02091E800B9
:1040B00020FFEBCF4091F3002091F20030E0342B51
:1040C000009759F02830310540F444914093F100B5
:1040D000319601972F5F3F4FF3CF41E028303105F4
:1040E00009F040E02091E8002E772093E800CDCF42
:1040F0004111CDCF0AC08091CC04882351F0853086
:1041000041F08091E80083FD04C08091E80082FFC7
:10411000F2CF8091E8008B778093E80043C080382D
:1041200009F040C08091E800877F8093E80080918B
:10413000C3048093F1008091E8008E77C7CE81118F
:1041400031C08091C6049091C7049927029754F515
:104150008091E800877F8093E8001091C604109357
:10416000C3040E94E01C111106C08091E30087FD8A
:1041700002C081E001C084E08093CC0442E061ECA5
:1041800081E00E94FF1C42E261EC84E00E94FF1C7F
:1041900042E261EC82E00E94FF1C42E260EC83E0BC
:1041A0000E94FF1C8091E80083FF10C08091E8000E
:1041B000877F8093E8008091EB0080628093EB0022
:1041C00005C082E190E0EAE6F6E051CFAA960FB68C
:1041D000F894DEBF0FBECDBFDF91CF911F91089540
:1041E0001F920F920FB60F9211242F933F934F936C
:1041F0005F936F937F938F939F93AF93BF93CF936F
:10420000DF93EF93FF93C091E900CF708091EC00B2
:10421000D82FD17080FDD0E81092E9008091F00095
:10422000877F8093F00078940E94121E1092E9001C
:104230008091F00088608093F000CD2BCF70C09308
:10424000E900FF91EF91DF91CF91BF91AF919F91E5
:104250008F917F916F915F914F913F912F910F902F
:104260000FBE0F901F901895E8EDF0E080818E7FD3
:1042700080831092E2001092DA001092E100A0EE2A
:10428000B0E08C9181608C9380818F77808319BCA2
:10429000A7EDB0E08C918E7F8C9380818F7E8083A0
:1042A0001092B6040895CF92DF92EF92FF920F938F
:1042B0001F93CF93DF93C8EDD0E088818F7E8883F2
:1042C000E7EDF0E080818160808384E082BF81E05F
:1042D0008093B60488818E7F888302EE10E0F80117
:1042E00010821092DA0081EEC82ED12CF6011082D5
:1042F00088818F77888388818068888388818F7D93
:10430000888319BC1092CC041092C3041092C2048A
:104310001092C10490EEE92EF12CF70180818B7F81
:10432000808388818160888342E060E080E00E9431
:10433000FF1CF60180818E7F8083F801808181607F
:104340008083808188608083F70180818E7F808375
:10435000888180618883DF91CF911F910F91FF90B9
:10436000EF90DF90CF9008951F920F920FB60F92AB
:1043700011242F933F934F935F936F937F938F936A
:104380009F93AF93BF93EF93FF938091E10082FFE0
:1043900009C08091E20082FF05C08091E1008B7F1F
:1043A0008093E1008091DA0080FF2AC08091D800DC
:1043B00080FF26C08091DA008E7F8093DA008091A2
:1043C000D90080FF18C080E189BD82E189BD09B4B0
:1043D00000FEFDCF81E08093CC048091B604811172
:1043E0000FC00E9434210E9453218091E20084601A
:1043F0008093E20005C019BC1092CC041092B60460
:104400008091E10080FF17C08091E20080FF13C01F
:104410008091E2008E7F8093E2008091E2008061D3
:104420008093E2008091D80080628093D80019BC0C
:1044300085E08093CC048091E10084FF2EC08091C0
:10444000E20084FF2AC080E189BD82E189BD09B410
:1044500000FEFDCF8091D8008F7D8093D8008091A1
:10446000E1008F7E8093E1008091E2008F7E809357
:10447000E2008091E20081608093E2008091C304B9
:10448000882311F084E007C08091E30087FD02C01B
:1044900081E001C083E08093CC048091E10083FF40
:1044A00027C08091E20083FF23C08091E100877FD5
:1044B0008093E10082E08093CC041092C304809149
:1044C000E1008E7F8093E1008091E2008E7F8093F7
:1044D000E2008091E20080618093E20042E060E0CF
:1044E00080E00E94FF1C8091F00088608093F000C3
:1044F000FF91EF91BF91AF919F918F917F916F91BC
:104500005F914F913F912F910F900FBE0F901F9091
:1045100018952091E4003091E50095E64091EC007B
:10452000842F817040FF23C08091E80080FD1DC072
:104530008091CC04882399F0853099F08091EB002C
:1045400085FD11C04091E4005091E5002417350726
:1045500029F3915011F09A01E1CF84E0089582E0AF
:10456000089583E0089581E0089580E008954091E2
:10457000E80042FFDDCF0895EF92FF920F931F9363
:10458000CF93DF937C018B010E948922811119C096
:10459000E70101151105A1F08091E80085FD0AC031
:1045A0008091E8008E778093E8000E94892288231A
:1045B00081F307C089918093F10001501109E9CF7F
:1045C00080E0DF91CF911F910F91FF90EF900895C0
:1045D000CF932091CC042430F9F4C091E900CF703E
:1045E0003091EC00232F217030FD20E8C22B22E017
:1045F0002093E9002091E80020FF0BC040E050E04C
:1046000060E270E00E94BC228091E8008E77809387
:10461000E800CF70C093E900CF91089580E090E06A
:104620000E94F81780E090E00E94E2171092410586
:10463000109240050C94B72BCF92DF92FF920F930C
:104640001F93CF93DF936C010091D70480914605AF
:10465000082BC7E0D0E010E0C8010C2E02C09595F1
:1046600087950A94E2F780FD04C02197A8F7F12C02
:1046700009C0FC2EB6018C2F0E94D71A0E94D427A5
:10468000019799F38F2DDF91CF911F910F91FF909B
:10469000DF90CF900895CF93DF93EC010E941C230D
:1046A000BE010E94D71A0E94D427DF91CF910895AE
:1046B000FC0186819781009719F00E94D42704C0DD
:1046C000808191810E944B23292F2F70E92FE29541
:1046D000EF704E2F50E0FA013297EE30F105B8F44A
:1046E000EA57FF4F0C945232803F99F018F4883EFD
:1046F00070F40FC0843F59F40CC0883E50F0813FE5
:1047000031F407C0822F869586958695089580E0BE
:10471000089581E008959F92AF92BF92CF92DF9269
:10472000EF92FF920F931F93CF93DF93CDB7DEB736
:1047300065970FB6F894DEBF0FBECDBF8C0185E044
:10474000F801DE01519601900D928A95E1F7F8018A
:10475000E2809091F2046091F3044091F50450914D
:10476000F6044115510531F06F3F31F481E09F3F70
:1047700019F403C081E001C080E0F82FF1709F2E92
:1047800080FD37C1F80130812181C380D48072EF70
:10479000A72E74E0B72EF090F404F601E41BF50B9D
:1047A000FF2009F4F5C08091F704E83CF10508F01A
:1047B000B0C0482F407F09F05AC062131BC093134A
:1047C00019C06091F8047091F904F801468157818D
:1047D0006417750779F4FE2CE1100CC08F708061AE
:1047E0008093F704C5010E94AB108091F704F80193
:1047F00085833CC1CD2831F02F3F31F481E03F3F2C
:1048000019F403C081E001C080E080FD03C081E0B5
:104810008E2502C080E090E0F82FF170FF2E80FF1F
:104820001CC080913B054091FA04841709F4FCC038
:1048300090E0FC0153E0EE0FFF1F5A95E1F7E550C1
:10484000FB4F5181251306C05081531303C0528181
:10485000E51203C001968770E8CFFE2CEE2009F424
:1048600005C18091F70481608093F7045EC06213F4
:1048700015C0931313C04091F8045091F904F80146
:10488000268137814217530749F4E11007C0858319
:10489000C8010E94AB1088E0F80190C0C8010E94D6
:1048A0005823882381F1EE2071F12091F704822FA3
:1048B00082958F7090E00297A4F08091F20490911D
:1048C000F3049A8789871B86DD86CC862E878091A4
:1048D000F8049091F904988B8F87CE0109960E9475
:1048E000AB1088E0F801A2EFB4E001900D928A9538
:1048F000E1F70E94432A0AC06217C9F0C8010E946A
:104900005823811127C0C8010E94AB10FF24F394E3
:10491000ADC0482F407F81F782EF94E00E94AB103A
:1049200088E0F50111928A95E9F7F12C9FC0931365
:10493000E5CF4091F8045091F904F80126813781C0
:1049400042175307D9F6E110D9CF8583C8010E94D9
:10495000AB1049C0EE20B9F22091F704822F829566
:104960008F7090E002970CF4BCCF8091F20490918C
:10497000F3049A8389831B82DD82CC822E8380910B
:10498000F8049091F90498878F83CE010196A7CF00
:10499000E83CF10540F5FE2CEE2009F4B4CF62139B
:1049A00014C0931312C02091F8043091F904F80157
:1049B000868197812817390741F488E0A2EFB4E097
:1049C00001900D928A95E1F751C0C8010E945823C9
:1049D000811187CF8091F70481608093F704C8012B
:1049E0000E94AB1043C088E0F50111928A95E9F767
:1049F0003DC0EE2009F487CFC8010E945823F82E4D
:104A0000882309F480CF88E0F801A2EFB4E0019098
:104A10000D928A95E1F78091F2049091F3040E943F
:104A20004B230E94432A22C0398B2A8B89899A8979
:104A30000E944B23292F22952F70223028F49F703B
:104A400039F0811105C00BC0243028F49F7049F45F
:104A5000805E883020F0C8010E94AB109F2CF92C9A
:104A600005C0F8019581907F99F7F9CF8F2D659654
:104A70000FB6F894DEBF0FBECDBFDF91CF911F916F
:104A80000F91FF90EF90DF90CF90BF90AF909F90ED
:104A900008959E3F61F12BE0929F800D1124682FB5
:104AA000669566956695982F977083E0689FB0012C
:104AB000112440E050E080E0FB01E40FF51FE852D4
:104AC000FB4F208130E0092E02C0369527950A94CD
:104AD000E2F721703327042E01C0220F0A94EAF76F
:104AE000822B4F5F5F4F4330510531F7089580E0CF
:104AF00008959E3F51F12BE0929F800D1124E82FE5
:104B0000E695E695E695877051E001C0550F8A95C8
:104B1000EAF783E0E89FF0011124E852FB4F20E020
:104B200030E070E04081CB01022E02C0969587955F
:104B30000A94E2F7817081958427852384278193E5
:104B40002F5F3F4F2330310569F708950E94082DEC
:104B50008093D7040C940E2321E030E001C0220F93
:104B60008A95EAF720958091D70482230C94A62594
:104B700021E030E001C0220F8A95EAF78091D70446
:104B8000822B0C94A625809346050C940E2310923C
:104B9000420586E0ECEEF4E0DF011D928A95E9F72C
:104BA0000C940E23CF93DF93CDB7DEB760970FB68B
:104BB000F894DEBF0FBECDBF29873A874B875C874D
:104BC0006D877E878F87988BCE0109960E948B23F5
:104BD000811151C088E0FE013996DE0111960190E5
:104BE0000D928A95E1F779856A854C855D85411539
:104BF000510531F06F3F31F481E07F3F19F403C07C
:104C000081E001C080E080FD36C0A091FA04B0E0F0
:104C1000CD0101968770992720913B0530E08217DE
:104C2000930781F179836A835D834C8393E0AA0FB4
:104C3000BB1F9A95E1F7A550BB4F98E0FE01319656
:104C400001900D929A95E1F78093FA040E94392A17
:104C500012C028E0829FC001112485509B4F0E9402
:104C60008B238823E1F080913B0590E001968770CB
:104C7000992780933B0580913B059091FA04891315
:104C8000E8CF0DC00E94C7251092FA0410923B0590
:104C9000E2EFF4E088E0DF011D928A95E9F7609683
:104CA0000FB6F894DEBF0FBECDBFDF91CF91089550
:104CB000882321F00E94EE290C94B72B08958823B5
:104CC00039F090914205892B809342050C94B72BC3
:104CD0000895882309F453C0682F823869F40E942C
:104CE0000E1881FF4CC069E38AEE94E00E94C81759
:104CF0000E94B72B69E30EC0833891F40E940E180E
:104D000080FF3DC063E58AEE94E00E94C8170E94D0
:104D1000B72B63E58AEE94E00E94BB170C94B72B87
:104D2000843869F40E940E1882FF29C067E48AEE75
:104D300094E00E94C8170E94B72B67E4EBCF8CEF7A
:104D4000860F813A38F380E2860F883048F4677026
:104D500081E001C0880F6A95EAF70E94EE29DECF54
:104D60008BE5860F833020F480E090E00C94F817F8
:104D7000685A673120F480E090E00C94E2170895BF
:104D8000CF93882309F496C0C82F8238B1F40E94CB
:104D90000E1881FD8FC069E38AEE94E00E94C81767
:104DA0000E94B72B2FEF81EE94E02150804090407D
:104DB000E1F700C0000069E317C08338E1F40E9406
:104DC0000E1880FD77C063E58AEE94E00E94C81754
:104DD0000E94B72B2FEF81EE94E02150804090404D
:104DE000E1F700C0000063E58AEE94E00E94BB1783
:104DF000CF910C94B72B8438B1F40E940E1882FD29
:104E000059C067E48AEE94E00E94C8170E94B72B4D
:104E10002FEF81EE94E0215080409040E1F700C0F8
:104E2000000067E4E1CF8CEF8C0F813A80F4ECEE68
:104E3000F4E082EF94E02191C217A1F18E179F0751
:104E4000D1F76C2F8AEE94E00E94C817D1CF80E290
:104E50008C0F883068F4C77081E090E001C0880F43
:104E6000CA95EAF790914205892B80934205C0CFFD
:104E7000EBE5EC0FE33040F4F0E0E951FE4F8081C8
:104E800090E0CF910C94F817C85AC73198F4EC2FE2
:104E9000F0E0EE0FFF1FE651FE4F80819181CF9130
:104EA0000C94E2176C2F8AEE94E00E94BB170E94CC
:104EB000B72BC7CFCF9108951F93CF93DF93182FB0
:104EC000893319F0C9E1D0E002C0C0E5D0E0812FFC
:104ED0000E94C0268FE99FE00197F1F700C0000013
:104EE0002197C1F7812FDF91CF911F910C946926F3
:104EF00080E0089590911A0292FF0DC0282F28712A
:104F0000283019F4877F846006C0282F247124304C
:104F100011F48B7F886093FF0DC0282F28712831F2
:104F200019F4877E846106C0282F2471243111F47E
:104F30008B7E886120911B0220FF0DC0382F3871B5
:104F4000383019F4877F816006C0382F31713130D5
:104F500011F48E7F886021FF0DC0282F2871283121
:104F600019F4877E816106C0282F2171213111F447
:104F70008E7E886194FD877E0895F894E82FE295EF
:104F8000EF70F0E031A1282F2F7081E090E001C098
:104F9000880F2A95EAF7982F9095932391A392A1D1
:104FA000892B82A378940895CF93DF93823891055B
:104FB00069F1B0F48133910509F46FC048F4893286
:104FC000910509F465C08A32910509F46BC08AC065
:104FD0008533910509F457C089339105B9F082C032
:104FE000833E910571F138F4803E9105B1F0823E27
:104FF000910511F177C0863E9105B9F1873E910583
:10500000C9F1843E910509F06DC024C020911A02B7
:1050100020FD53C021FD51C065C080911A0280FD62
:1050200046C080911B0280FF48C080911A0284FD17
:105030003FC183EE90E03EC180911A0282FF3AC0E8
:10504000F4CF80911A0282FD35C080911B0280FD51
:1050500034C0EBCF80911B0281FF35C080911A02D2
:1050600084FD26C187EE90E025C180911A0283FF5E
:1050700027C0F4CF80911A0283FD22C080911B02C9
:1050800081FD21C0EBCF80911A0285FD1FC021C098
:1050900080911A0285FD1DC019C080911A0286FDFB
:1050A0001BC01DC080911A0286FD19C015C089E37E
:1050B00090E000C182EE90E0FDC080EE90E0FAC08A
:1050C00086EE90E0F7C084EE90E0F4C089E290E0D4
:1050D000F1C085E390E0EEC08AE290E0EBC081E3AE
:1050E00090E0E8C0811532E5930708F069C08115AA
:1050F00041E5940728F0982F8827816F906ADAC0DD
:10510000883E910568F5803E910508F0D3C0883A45
:105110009105B8F4853A910548F0855AE82FF0E0FA
:10512000E951FE4F808190E09064C4C081309105C8
:1051300009F4BBC008F4BCC08430910508F4B8C0C1
:10514000B9C08F3B910508F0B3C0885AE82FF0E052
:10515000EE0FFF1FE651FE4F808191819464AAC03B
:10516000811520E59207F0F09C0174E036952795B3
:105170007A95E1F7922F9370482F437021E030E049
:1051800002C0220F331F4A95E2F73C68392B8F701B
:10519000982F9695969540E2949FC0011124822BFA
:1051A000932B88C0811530E4930718F09F70906AA4
:1051B00081C09C013A9521153F4108F47BC078C01D
:1051C000EC01C11586E5D807E8F5C11525E5D2073C
:1051D00048F08C2F0E947A278F7190E0982F8827B3
:1051E000906268C0C11534E5D30728F09C2F88274A
:1051F000846F906A5FC0AE01437055272C2F2695AF
:105200002695C115D34578F481E090E002C0880F5F
:10521000991F4A95E2F740E2249F90011124822BC6
:10522000932B9C6847C081E090E002C0880F991FD3
:105230004A95E2F740E2249F90011124822B932BA0
:105240009A6838C0C1152AE5D207F8F4C11539E5C6
:10525000D30790F08C2F8F700E947A2794E0D69518
:10526000C7959A95E1F7CF70D0E0DC2FCC27D069B5
:105270009E01282BC9011EC0C11548E5D407C0F006
:105280009C2F8827806F906A15C0CE01905681159B
:10529000904270F48D2F8F710E947A27282F2F71E2
:1052A000CE0199279062922B05C081E090E002C068
:1052B00080E090E0DF91CF910895CF9384E090E07B
:1052C0000E94F831C82F82E290E00E94F8312C2F22
:1052D00030E0A901582BCA01CF91089580E090E0F9
:1052E0000E9400328A3E9E4F11F40C94701B80E0A5
:1052F00008956AEE7EEF80E090E00E94343260E034
:1053000082E090E00E94163260E083E090E00E942C
:1053100016321092460560E084E090E00E9416325A
:1053200060E082E290E00E94163260E085E090E06A
:105330000E94163260E086E090E00E9416326FEF25
:1053400087E090E00E94163240E050E0BA0188E029
:1053500090E00E94283260E08DE090E00E941632DA
:1053600040E050E0BA0188E190E00E94283260E01D
:1053700087E190E00E94163240E050E0BA018CE1F3
:1053800090E00E94283260E070E080E290E00E94AD
:10539000343240E050E0BA0188E190E00E942832C7
:1053A00080E00E94431B0E94611B40E050E0BA0174
:1053B0008FE090E00E94283240E050E0BA0183E1A3
:1053C00090E00C94283280914505882331F01092AA
:1053D00045051092440510924305089580959091DB
:1053E00042058923809342050895CF93C0911B0203
:1053F000C2FB992790F9981781F080FBC2F9C093FE
:105400001B0260911A0284E090E00E9416326C2F19
:1054100082E290E0CF910C941632CF9108951092D1
:105420003F0510923E0510923D05089520913F05DD
:105430008095822380933F05982F977041F430E048
:10544000482F082E000C550B2417350721F4909196
:105450001B0292FF07C08595859585950E94AC2516
:105460000C940F2A089580913C05811110923C05FF
:10547000089580913B059091FA04891719F08F5F88
:105480008770FBCF08951F93CF93DF938091F7042C
:1054900082958F7009F05CC08091F404882309F430
:1054A00057C080913B051091FA046091F20470910D
:1054B000F304C091F504D091F60491E06F3F09F038
:1054C00090E0292F811709F443C0209721F07F3FF6
:1054D00021F030E003C031E001C0322F90E030FD18
:1054E00034C0FC0133E0EE0FFF1F3A95E1F7DF0116
:1054F000A550BB4F11963C911197371326C03C9194
:10550000361323C012963C91129731111EC0139688
:105510004D915C9114974C1B5D0B483C5105A8F4D0
:105520008091F7048F7080618093F704E050FB4F07
:1055300080818F708061808382EF94E00E94AB1045
:10554000DF91CF911F910C94392A01968770BACFC1
:10555000DF91CF911F9108958F929F92AF92BF924A
:10556000CF92DF92EF92FF920F931F93CF93DF932F
:10557000CDB7DEB728970FB6F894DEBF0FBECDBF0C
:10558000AE014F5F5F4F7A0188E0DA011D928A9584
:10559000E9F70DE111E06A01AA24A394B12CF80106
:1055A00080818F3F09F44DC0F894E82FE295EF70A9
:1055B000F0E021A18F70A50102C0440F551F8A950C
:1055C000E2F7CA01922F982B91A392A1809589238B
:1055D00082A3789400C0E1E2F1E020E030E0812C89
:1055E000912C81918F3FC1F0A82FA295AF70B0E0B0
:1055F00090964C9150E08F70DA0102C0B595A79556
:105600008A95E2F7A0FD08C0C501022E02C0880FEE
:10561000991F0A94E2F702C080E090E0882A992A54
:105620002F5F3F4F2B303105E1F6F80180818F3F2E
:1056300011F00E94BD27F0EAFA95F1F7D6018D929C
:105640009C920F5F1F4FB2E0CB0ED11CE1E0013204
:105650001E0709F0A4CF48E050E0B7018CE192E0CA
:105660000E945F3211E0009709F410E0892B89F065
:1056700088E0F701ACE1B2E001900D928A95E1F784
:1056800081E0809349050E94861790934805809396
:10569000470580914905882351F1809147059091F4
:1056A00048050E946B17059710F180911C0290919C
:1056B0001D02909328038093270380911E029091EE
:1056C0001F0290932A0380932903809120029091D6
:1056D000210290932C0380932B03809122029091BE
:1056E000230290932E0380932D03109249058091FD
:1056F0000D01882341F18091A6049091A7040097A1
:1057000011F10E946B1720910004309101042817B9
:105710003907C8F49091A4048091A504981759F012
:105720000E94C61810920104109200041092A7045F
:105730001092A60408C00E9448181092A704109264
:10574000A6040E94A718812F28960FB6F894DEBFF2
:105750000FBECDBFDF91CF911F910F91FF90EF90C2
:10576000DF90CF90BF90AF909F908F9008959091D1
:10577000420580914105892B90914005892B8093AA
:10578000EA0480914505882311F10E948617209133
:10579000430530914405821B930B8838934110F0E8
:1057A0000E94E3299091EA0480914505892B80931A
:1057B000EA04ECEEF4E097E080E0915029F02191CA
:1057C0002223D9F38F5FF9CF81110E94E329E09161
:1057D000AA04F091AB04309731F00280F381E02D00
:1057E0008AEE94E00994089590911B0292FD10C0F6
:1057F00098E0899F90011124262B20933F050E9459
:10580000B8250E94861790933E0580933D05089524
:105810000C94B825982F92959F7019F0892F24E049
:1058200001C020E0982F9695969511F02E5F892F54
:10583000982F969509F02F5F822F0895AF92BF920F
:10584000CF92DF92EF92FF920F931F93CF93DF934C
:10585000EC018AE0A82E2881222309F497C0213088
:1058600009F041C08981813039F48E010E5F1F4FEC
:105870008A810E945C2708C0823041F48E010E5F4D
:105880001F4F8A810E94C026E8017EC0833039F410
:105890008E010E5F1F4F8A810E946926F5CF8430EA
:1058A00011F0219671C02A81229680E090E030E0CC
:1058B000205331092A30310558F4A89EA001A99E31
:1058C000500D1124C901840F951F21962881EFCF17
:1058D000009709F459C0EFE9FFE03197F1F700C0F4
:1058E00000000197F5CFE22FF0E0E85EF84FB490AA
:1058F000822F86958695869590E0FC01E85FF84FAB
:10590000E4902770F12C022E02C0F594E7940A94DB
:10591000E2F7F1E0EF22FF24FC01E850F94FC490D8
:10592000D12C022E02C0D594C7940A94E2F731E03C
:10593000C322DD24FC01E851F94F049110E002C0BC
:10594000159507952A95E2F701701127E114F104E6
:1059500019F081EE0E94C026C114D10419F086EE20
:105960000E94C0268B2D0E945C27CD2819F086EE60
:105970000E946926EF2819F081EE0E946926012B0A
:1059800019F08CE20E945C27219665CFDF91CF91C0
:105990001F910F91FF90EF90DF90CF90BF90AF904D
:1059A00008951F93CF93DF9300D000D01F92CDB7FF
:1059B000DEB7FC0186819781009709F5CF0125E0CC
:1059C000DE01119601900D922A95E1F7FC012281EA
:1059D00089819A81222359F0662349F00E941C2371
:1059E000182F682F89819A810E94792503C00E940F
:1059F0004925182F69817A81812F0E94D71A0F902B
:105A00000F900F900F900F90DF91CF911F910895FD
:105A1000CF93C82F0E940A2C813081F020F0823071
:105A200089F0833091F080912402882319F040E0BE
:105A300060E00DC04FEF60E080E00AC04FEF60E033
:105A40008AE706C040E06FEF02C040E060E88FEFF9
:105A50000E949A1D8C2F8670863019F48C2F8860D6
:105A600002C08C2F877FCF910895DC01FB018081DC
:105A70009181803891053CF08FE78C9380819181F2
:105A80008F5791090AC081382FEF92074CF481E8B3
:105A90008C938081918181589F4F91838083089559
:105AA0008C93118210820895681720F4861B682F4A
:105AB00021E002C0681B20E0469FA0011124649FE2
:105AC000C001659F900D11249170222319F09195CA
:105AD0008195910908952F923F924F925F926F9214
