:100000000C9479040C94C0040C94C0040C94C004A7
:100010000C94C0040C94C0040C94C0040C94C00450
:100020000C94C0040C94C0040C94E9240C94252472
:100030000C94961A0C94C0040C94C0040C94C00444
:100040000C94C0040C94C0040C94C0040C94C00420
:100050000C94C0040C94E8190C94C0040C94C004D3
:100060000C94C0040C94C0040C94C0040C94C00400
:100070000C94C0040C94C0040C94C0040C94C004F0
:100080000C94C0040C94C0040C94C0040C94C004E0
:100090000C94C0040C94C0040C94C0040C94C004D0
:1000A0000C94C0040C94C0040C94C004BE0CDA0C74
:1000B000E10C190D2A0D350D450D580D9B0DA00DA8
:1000C000FA0DFA0DFA0DA80D300E3B0E650E8608DE
:1000D000C40E0D0F690FB70FFE0F01100610BA10F6
:1000E0005211BC111615211526152B153015351575
:1000F0003A153F15441549154E15D415D4150D164E
:100100000D166F16AA17AA17AA178D160117121720
:1001100012172D225422072454220724A022C3227E
:100120000724C423D423A926A926BC26BC26B2268C
:10013000BC26BC26BC26A926A926B726BC26BC26DA
:10014000B726FD377A585A000004E6D6B4460200B6
:10015000210116000000742FE5A3E008BA02385D03
:10016000003D8889C65436C3174FE4EF0A3F668DB9
:10017000D105C145CE66B4E8DF851F2CF59EBB4195
:10018000D912F17F204F73672F9AC243D74C5B651A
:10019000441319B1B3BC75E34629A966D74C1C5E5C
:1001A000426C60D242D95195BCFAC18D306CE69E4A
:1001B000B06A07247A2A185A1E9B96F1D7C773FB98
:1001C00008189FE9E151A0F5BBC6642ADE77E386F3
:1001D0002382C220049FD4A629BD9E7F2A24653C89
:1001E000396A42E0B4E0B2F0E3A53B49E7214AD5E1
:1001F0008BC2A4926DE8E977E9287FBBF9591258C0
:10020000A5D7DA898EB25E865164DFF07CDF9AFE74
:100210003A6FAB0686ABB537157AD471F220C3A31B
:10022000E22C35551E4F75FF6930DF598A10F4995D
:100230001195BA89E5CE8D1D9CA14BFCC7CC2A87B0
:100240007A0C49CAA2FE744A34F9E6110848C0FC87
:1002500049AA1F1C760E2CF67806B533C6DB3C097E
:10026000F74E6055D9C3AB5E505EBE825594872D64
:1002700041987240AA937EBD325B7FF063EE6103CA
:100280001939C5B8659BE404D372C17114A1762CE9
:10029000E14E80B545BB1BD8902CDE0A998E73FCCD
:1002A0006A2426F8F5281B86C40C8926B0EE7E51F8
:1002B000191FB3707D56BD46F6D5B5754B46EC0596
:1002C0001DFC5882A9510BCF8E62BD47D8A29B78E6
:1002D000CE6FAF61A4874EFEB6C955F1992D5EB7BA
:1002E0004774905DE2F3A887DEA97EA9756BB2E042
:1002F0004F3FA86C2BF2185C84AE393011BC88B427
:100300001E6CF1CC664F0A1BFAA75CB59205D0991A
:1003100053A3E27333E397211A3701F0EBB8D4BC4F
:1003200071C43737F8A7CE1B13949E23C25F7D4359
:1003300092E0E7FF3283CBEFB74EB455BEA4B4F3DF
:10034000838FE16777DD8B4B26DAA5DF8D39535339
:1003500092C9A38DC15CF9E5EEC6D302A272C6694B
:1003600009EEB6E80EE4F12C09013DE24E6F178963
:1003700011C4D70ED7BD570B73AB7FFC76D1D59F79
:1003800002F83AF5C936B0FD658C11FB9AF7755D38
:10039000C7217C7FFE7B59550600AEF9057FEBF542
:1003A0002ACB0001D404BB110000F82CED68B1C4C5
:1003B00067FB020000000004595A00000000010021
:1003C0000D0002000100030002000400030005000C
:1003D000040011000500120006001A0007001B00AF
:1003E00008001C0009001D000A001E000B00200070
:1003F0000C002E2000AA00A9004F015001010001AD
:1004000000010001000100010001000100010001E4
:100410000001000100010001000100010014001AA8
:10042000000800150017001C0018000C0012001333
:1004300000000004611668076409620A000B000DE1
:10044000720E740F78337100001D001B0006001936
:1004500000050011001000360037003800A8000128
:100460005302530151280034002A002C000251038A
:100470005304532A011E021F0220022102220223DA
:1004800002240225022602270200002900010001A1
:10049000000100010001002D022E022F0230020097
:1004A00000390035020100010001000100010001D6
:1004B00000310234020100010001000100010001CD
:1004C000004C00010003510100010001001E001F4B
:1004D0000020002100220023002400250026002700
:1004E0000000005000510052004F002B0001002D71
:1004F000002E002F0030000000E0003500E300E295
:1005000000815F845F825F835F31003400010001FE
:100510000001000351010001000100010001000180
:100520000001000100C25CC45CC35C010010503AD1
:10053000003B003C003D003E000000CB5CC55CC7BA
:100540005CC95C01003F00400041004200430000E4
:1005500000CC5CC65CC85CCA5C010044004500017C
:10056000000100005C010001000100010001000128
:100570000001000100010001000100010001000173
:100580000001000100010001000100010001000163
:100590000000000100010001000100010001000154
:1005A0000001000100010000000100010001000144
:1005B0000001000100010001000100010001000133
:1005C0000001000100010001000100010001000123
:1005D000000100010005010980A101850319012A1C
:1005E000B700150126B700950175108100C0050CF4
:1005F0000901A101850419012AA002150126A00202
:10060000950175108100C00660FF0961A1010962B2
:10061000150026FF00952075088102096315002644
:10062000FF00952075089102C005010906A101058A
:100630000719E029E7150025019508750181029544
:1006400001750881010507190029FF150026FF0023
:10065000950675088100050819012905950575019C
:100660009102950175039101C009025B000301002D
:10067000A0FA090400000103010100092111010091
:10068000012240000705810308000A090401000255
:100690000300000009211101000122220007058248
:1006A00003200001070503032000010904020001E3
:1006B0000300000009211101000122320007058416
:1006C0000320000A1201000200000008FEFE50583C
:1006D0000100010203011C037600690061006C0047
:1006E0003A006600360034006300320062003300D6
:1006F000630000002C0373006100640065006B0060
:100700006200610072006F007500640069002000E3
:100710006200610072006F0062006F00720064008E
:1007200000001A0373006100640065006B00620042
:10073000610072006F00750064006900000004032E
:10074000090400000000000000000000000000009C
:100750000000000000000000000000000000000099
:100760000000000000007E0F00D4FFFFFFC7000064
:10077000007800000000000000002A2B2800000084
:100780000000000000000000000000000029000040
:1007900000002C1E3420212224342627252E362D1D
:1007A0003738271E1F202122232425263333362EB7
:1007B00037381F0405060708090A0B0C0D0E0F1029
:1007C0001112131415161718191A1B1C1D2F31306E
:1007D000232D350405060708090A0B0C0D0E0F1012
:1007E0001112131415161718191A1B1C1D2F31304E
:1007F000354C000101010101010101010202020267
:1008000002020202020303030303030303040404BA
:100810000404040405050505050606060606070783
:1008200007070708080808090909090A0A0A0B0B3B
:100830000B0C0C0C0D0D0D0E0E0E0F0F0F101011DA
:100840001111121213131414151516161717181860
:1008500019191A1A1B1B1C1D1D1E1E1F20202122C8
:1008600022232424252626272829292A2B2C2D2D0E
:100870002E2F30313232333435363738393A3B3C2B
:100880003D3E3F404142434445464748494A4C4D1E
:100890004E4F50515354555658595A5B5D5E5F61E7
:1008A0006264656668696B6C6D6F7072737577787A
:1008B0007A7B7D7E8082838587888A8C8E8F9193D8
:1008C0009596989A9C9EA0A2A3A5A7A9ABADAFB1FF
:1008D000B3B5B7BABCBEC0C2C4C6C9CBCDCFD1D4E4
:1008E000D6D8DBDDDFE2E4E7E9EBEEF0F3F5F8FA8A
:1008F000FDFF11241FBECFEFDAE0DEBFCDBF04B68F
:1009000003FE27C080917A0590917B05A0917C051C
:10091000B0917D058730904BA740B04BD1F4109239
:100920007A0510927B0510927C0510927D0514BE0D
:1009300084B7877F84BF0FB6F894A8958091600034
:10094000886180936000109260000FBEE0E0F8E3E1
:10095000099512E0A0E0B1E0E2E6FCE602C00590F5
:100960000D92A233B107D9F725E0A2E3B2E001C0AE
:100970001D92AA37B207E1F70E94C2040C942F36E9
:100980000C940000CF93DF93CDB7DEB7E6970FB698
:10099000F894DEBF0FBECDBF84B7877F84BF0FB68C
:1009A000F894A8958091600088618093600010920F
:1009B00060000FBE90E080E80FB6F894809361006D
:1009C000909361000FBE85B7806885BF85B780684A
:1009D00085BF87ED9AE290933302809332020E94A2
:1009E000821E0E9469240E9488248091E200846013
:1009F0008093E20078948091FD048823A1F0109107
:100A0000E9001F709091EC00892F817090FD80E8C3
:100A1000182B1092E9008091E80083FD0E94472185
:100A20001F701093E90082E084BD93E095BD9AEFBA
:100A300097BD80936E000E945C1F811102C00E94CE
:100A40004D1F02E211E0E6E2EE2EE1E0FE2ED801BB
:100A50008D918D018F3F11F00E941C2BE016F10645
:100A6000B1F706E211E071E3E72E71E0F72EF8012D
:100A700081918F018F3F11F00E941C2BE016F1062F
:100A8000B1F7109237021092360210925203109270
:100A900051031092390210923802109254031092AE
:100AA000530310923B0210923A0210925603109296
:100AB000550310923D0210923C021092580310927E
:100AC00057030E94D82D811102C00E94E32D82E0BD
:100AD00090E00E9420358093CC020E94C72D909315
:100AE0003502809334020E94332B8FE39CE90197F7
:100AF000F1F700C000000E94332B8091510380FF6A
:100B000008C06FEF7FEF80E090E00E945C350E94AC
:100B1000C41983E090E00E9420350E940D291092B4
:100B20009C02E5EBF2E085EC92E02FEF3FEF2193A2
:100B300031938E179F07D9F710923F02E8E5F2E054
:100B40008FEF9FEF81939193A2E0E836FA07D1F7F8
:100B50000E94D82D811104C00E94E32D0E94222002
:100B600046E050E06CE170E082E095E00E941035D4
:100B7000809102058C7F11F40E9422204BEC842E80
:100B800042E0942E21E431E043E451E069EC662E2A
:100B900062E0762E61E070E08614970409F44EC09E
:100BA000FA01A191AF018A2F82958F7090E0FC012C
:100BB000F1A0AF70DA2E8B0101C0000FAA95EAF701
:100BC000F02FF095FF22DC019196FC92919792967E
:100BD000AC91A02BFC01A2A3D901ED909D01EE2DBB
:100BE000E295EF70F0E0F1A0BE2DBF70EB2E5B013F
:100BF00001C0AA0CBA95EAF7CA2CC094FC20F1A255
:100C0000F2A0FA28F2A2DC0190968C9190E002C04A
:100C100095958795DA94E2F78170E0A1F0E002C043
:100C2000F595E795EA94E2F7E0FF02C092E001C093
:100C300090E0892BF30181933F01AECF10923E02E9
:100C400084E091E09093DC048093DB048091FD04C8
:100C5000853009F048C030E4F32E00E112E18091C4
:100C6000FD04853009F03BC08091FD04843019F10A
:100C70001092DF0428E130E00FB6F894A895209395
:100C800060000FBEF092600083B7817F846083BFF5
:100C900083B7816083BF7894889583B78E7F83BF45
:100CA0000FB6F894A89580916000886180936000E9
:100CB000109260000FBE8091F304882309F4CFCF17
:100CC0000E94332BE1E5F3E081919191892B09F0AA
:100CD00097C769E573E06E177F07B1F7C0CF0E9431
:100CE00011290E94121B0E94332B81110E941D1A90
:100CF000E1E5F3E0ADECB2E0C12CD12C0C2DA190DC
:100D0000B1908D919D918A259B25009709F450C142
:100D100010E0EE24E394F12C9C012E213F21232BA3
:100D200009F440C11BA70CA7AE20BF2081E0A1148D
:100D3000B10409F480E08DA70E94291A8160782F00
:100D40009FA78EA74BA55CA56DA58FA50E94A2307D
:100D5000F601EE0FFF1FE353FD4F80819181E826DE
:100D6000F926F182E082AB2849F0AE014F5F5F4F78
:100D7000612F802F0E940820982E01C0912CE92C11
:100D8000F12C80913F02D701A80FB11D19976CF18A
:100D900088E090E05C01AE18BF08B701605C7D4F51
:100DA000A50180E492E00E941F36B701685B7D4F89
:100DB000A50188E492E00E941F36A501440F551F4B
:100DC000B701660F771F685A7D4F88E592E00E9451
:100DD0001F36B701605B7D4FA50180E592E00E9460
:100DE0001F3688E0891980933F02F0903F02FE0190
:100DF00031965F0160E0862F8F0D961649F190E0E5
:100E0000D5017D915D01272F30E0DC01A15CBD4F54
:100E1000A901440F551F40585E4FFA0140811196B9
:100E20004C931197220F331F2C5A3E4FF90125A5E1
:100E300019962C93199751967C93880F991FDC0172
:100E4000A15CBD4F5A961C921E9259976F5FD3CFEB
:100E500080933F02809102058C7F883209F0C0C0E8
:100E6000AFEFA00FFF24F394F00E3FEF310F21E01E
:100E7000210F311780F48BE08C9DF0018D9DF00DDA
:100E80001124E059FD4FE30FF11D408150E1450F62
:100E900008F44FEF4083412F50E07BE07C9DC00180
:100EA0007D9D900D112480599D4FFC01E40FF51F8D
:100EB0007081B0E26B2F760F08F47FEF70832B30D8
:100EC00051F0FC01E20FF11D708180E1682F760F77
:100ED00008F47FEF708374E0F71609F431C0EF2C4B
:100EE000F12C311788F48BE08E9DF0018F9DF00D71
:100EF0001124E059FD4FE30FF11D80819DE0BC01FD
:100F0000670F08F46FEF6083EBE0EE9DC001EF9D8B
:100F1000900D112480599D4FFC01E40FF51F608155
:100F200070E1670F08F46FEF60832B3049F0FC012C
:100F3000E20FF11D60817DE0670F08F46FEF6083C1
:100F4000A01708F04DC0B0E0311780F48BE08A9F05
:100F5000F0018B9FF00D1124E059FD4FE30FF11DBF
:100F600030816DE0360F08F43FEF30838BE08A9FCD
:100F7000F0018B9FF00D1124E059FD4FDF01A40F0C
:100F8000B51F3C9140E1340F08F43FEF3C932B3008
:100F900039F1E20FF11D20813DE0230F08F42FEF1E
:100FA00020831EC01F5FEE0CFF1C1B3009F0B4CE67
:100FB0008FEFC81AD80A94E0C916D10409F09ECE62
:100FC0008FEF88AB89AB1AAA0E94291A8160782F0B
:100FD0009CAB8BAB48A959A96AA98CA90E94A230E5
:100FE0008091680290916902A0916A02B0916B02AF
:100FF0002FB7F894C090E004D090E104E090E204B0
:10100000F090E3042FBFC81AD90AEA0AFB0A0E942B
:101010001D1A609368027093690280936A0290932C
:101020006B02A0913F02EFE3F2E02A2F30E0882428
:101030008A94982CA12CB12C8C189D08AE08BF085E
:10104000A31799F0418D528D2A01612C712C8414C3
:101050009504A604B70410F4215004C04C0D5D1D86
:10106000528F418F3F5F3296EBCF20933F023091FA
:101070000205232F237021F0B32EB694B69401C03D
:10108000B12C209111012130E9F038F0223009F41F
:1010900074C0233009F47AC09DC01092140160938B
:1010A000FE047093FF04809300059093010589E28C
:1010B000EFE3F2E0ACE9B2E001900D928A95E1F73E
:1010C00081E058C090910F01B9120DC0832F837039
:1010D00090E040910E0150E021E08417950709F45B
:1010E00020E0822F01C081E0817080931601809101
:1010F000070590911501981709F4A2C58093150171
:1011000040E060E080E00E9404209AC5F090140165
:10111000FF0CFF0CFF0CF8E0EF2EEF0CA8E2AE1571
:1011200010F4E8E2EE2EC0900405A0900505209191
:10113000060570E4D72E1D2D129F112D1124D12EDE
:10114000FE1408F4FEC581E027E22E1510F40C947D
:10115000E711909114019F5F9093140181113AC09F
:1011600082E08093110180911601811133C0B1108A
:1011700031C083E0809311012DC0B0920F01832F05
:10118000837080930E010E947419F3CF80915E03E7
:1011900081110E941A2010925E034091FE0450912A
:1011A000FF0460910005709101052FB7F8948091BC
:1011B000E0049091E104A091E204B091E3042FBF18
:1011C000841B950BA60BB70B4097A105B10510F03A
:1011D0001092110187ECE82E82E0F82E05EC12E067
:1011E00099EC692E92E0792E21E4C22E21E0D22ED4
:1011F00033E4832E31E0932E5301212C312C44E033
:10120000442E512CF50181915F01E82FEE0FEE0F76
:10121000D4012D914D01A22FA295AF70B0E0909610
:101220008C9190E02F7002C0959587952A95E2F7F2
:101230009C0121703327D6018D916D01A82FA295B5
:10124000AF70B0E090964C9150E08F7002C0559511
:1012500047958A95E2F7CA018170992740FF02C03D
:1012600082E090E0822B932B8E2BF30181933F0140
:101270008F70E82FF0E0EF5CFE4F9081D7018C91EA
:10128000890F8C93843054F0F80180818F5F8083C4
:1012900060E0832D0E94DB1E21E001C020E0D70129
:1012A0008C918D3F4CF4F80180818150808361E006
:1012B000832D0E94DB1E21E0D7018C91082E000CAB
:1012C000990BB2010E94F135F70181937F01222A27
:1012D00033940F5F1F4FF2E03F1294CF21100E9412
:1012E0001D1A0E94121B9091CB02891721F00E94B7
:1012F000121B8093CB028091FD04843009F0A6CCB0
:1013000083E08093E9008091E80082FF9FCC809188
:10131000E80085FF23C00E94BE2581111DC000E2A8
:10132000E02EF12C8E010F5F1F4F09C08091F1005C
:10133000D8018D938D01B1E0EB1AF10869F080912D
:10134000E80085FDF3CF8091E8008B778093E8007B
:101350000E94BE25882399F391E001C090E080911E
:10136000E8008B778093E800992309F46FCCE09034
:101370002C04F0902D048981E114F10459F08E3F82
:1013800009F038C49A819330A8F19550933008F051
:1013900031C430C08B3009F4CEC248F5853009F431
:1013A00085C0B8F4823009F442C030F4813009F0CD
:1013B0001FC41A8289E0BDC3833009F468C0843039
:1013C00009F016C44C816B818A810E94381E9D836E
:1013D00035C4873009F478C008F473C0883009F444
:1013E000E9C0893009F004C40E941A2003C4803186
:1013F00009F4E3C18E010F5F1F4F813160F48D301E
:1014000009F47DC108F479C18E3009F47CC18F30B4
:1014100009F4A4C1EDC3823109F4D4C108F4D0C1E8
:10142000833109F4F9C18E3F09F49CC2E1C38A817A
:10143000823009F4FCC3833051F0813009F0D8C305
:101440000E941D1A9B838C837D836E83D3C38091FE
:10145000280490912904892B09F4CCC3809151036D
:10146000909152039B838C838091530390915403FA
:101470009D838E8380915503909156039F83888727
:10148000809157039091580399878A87B3C38A81C3
:10149000823009F0ADC36B817C818D819E810E9479
:1014A0000B3686E290E00E943E35A4C32D813E813A
:1014B0003227232732274C816B818A810E94641D49
:1014C00099C30E949A1D96C38A81813421F0823487
:1014D00009F43AC08FC34B815C8180910205982F3B
:1014E00093704115510539F49111109211018C7FBF
:1014F000809302051EC0911102C0109211018C7FD1
:101500008160809302052AEB33E0F90132968591E0
:101510009491F901659174914617570739F02C5F42
:101520003F4FE3E0223F3E0781F780E060E00E940A
:10153000D61F8D81809306058E8120E048856F81BE
:1015400090E00E947B1F56C34B815C818D81F3E04C
:101550008F9F900111242E3131050CF04BC3DE0119
:101560001196FA01EE0FFF1FE40FF51FE752FD4F32
:1015700020E030E090E02817390708F03BC31396CD
:10158000BA01620F731F6832710508F033C31296F7
:101590006C911297608313966C91139761831496E4
:1015A0006C9114976D3308F06CE362832F5F3F4FAB
:1015B0003396E1CF8A81823409F442C028F4803422
:1015C00051F0813471F016C3833409F459C0843466
:1015D00009F459C00FC381E08B831C828CE38D8397
:1015E00009C380910205982F9370B1F08695869576
:1015F00090E02AEB33E062EF73E0F9013296A591B7
:10160000B491F901459154918A179B0741F02C5FE1
:101610003F4F6217730789F790E080E002C0942F74
:10162000852F9B838C83809106058D838091030594
:101630008E83809104058F83809105058887DAC2A7
:101640000B811C814EE150E06FEF70E0CE010396FC
:101650000E9428368AEB93E0DE0113962EE1FC010E
:10166000459154910417150728F4223018F04D9332
:101670005D932250049633E0823F930781F7BAC20C
:1016800088E28B839CC18B8190E0883291050CF0BD
:10169000B1C2FC01EE0FFF1FE058FE4F20812B83EB
:1016A000FC01EE0FFF1FEC5AFE4F25A52C83FC0119
:1016B000E053FE4F20812D832FEF2F832E8364E58F
:1016C00071E040E050E020E030E0FB01E20FF31F6A
:1016D000E081F0E08E179F0719F44E832F838AC2B2
:1016E0002F5F3F4F2B30310581F74F5F5F4F655FB5
:1016F0007F4F4430510539F77DC280E136C281E029
:101700008A8389EA16C2EA80FB80FE24EF24FE2445
:10171000AC80B12C4DE1A416B10408F06BC2680195
:10172000C701895A9D4F9601201B310B2A153B0595
:1017300008F060C269EAE61661E0F60630F40E943D
:101740002035D60114968C9302C0F6011482FFEF67
:10175000EF1AFF0A2FEFC21AD20AE2CF80912804B3
:1017600090912904892B09F445C2EA80FB80FE246C
:10177000EF24FE24CC80D12C3DE1C316D10408F027
:1017800039C25801C701895A9D4F9501201B310B61
:101790002C153D0508F02EC249EAE41641E0F40696
:1017A00028F4D50114966C910E943E35BFEFEB1AD8
:1017B000FB0AEFEFAE1ABE0AE5CF0E94EC1C1AC27C
:1017C00085E0D3C1EA80FB80FE24EF24FE24AC80B8
:1017D000B12CFDE1AF16B10408F00CC26801C701DD
:1017E00087969601201B310B2A153B0508F002C293
:1017F00028EBE21621E0F20630F40E942035D601F3
:1018000014968C9302C0F6011482FFEFEF1AFF0AC0
:101810002FEFC21AD20AE3CFEA80FB80FE24EF2426
:10182000FE24AC80B12C3DE1A316B10408F0E2C166
:1018300048EBE41641E0F40608F0DCC188EB91E0E7
:101840008E199F098A159B0508F4D4C1370167E2F8
:10185000660E711C8091280490912904892B11F047
:10186000680160C0E0FE0FC0C70186960E94203567
:1018700090E0982F88272D81822B81159C4531F48B
:101880008FEF8D8303C0C12CD12C03C0CC24C39413
:10189000D12CC5018E0D9F1D450180FF1BC081E02D
:1018A000881A910855E0452E512C4C0E5D1E480CAF
:1018B000591CC3018A0D9B1D0E942035D2012C9119
:1018C00030E0322F2227282B21153C4519F48FEFC9
:1018D000F2018083F801EC0DFD1D2FEFCF01801B7D
:1018E000910B8815990508F0BBCF848190E0982F63
:1018F00088273581832B81159C4511F4248325830A
:101900003296ECCF48EBE41641E0F40628F4D60119
:1019100014966C910E943E35BFEFEB1AFB0AEFEF75
:10192000CE1ADE0AC70187969601201B310B2A15B5
:101930003B0540F35FC18091280490912904892BD5
:1019400009F458C1CE0101960E941D26FFEF11EE49
:1019500024E0F15010402040E1F700C000000E9458
:10196000C41948C1EA818E2F90E08E30910508F0AD
:1019700041C1FC01EA5AFF4F0C94053688E0E7E1CB
:10198000F1E0DE01919601900D928A95E1F780E2F7
:10199000D8011D928A95E9F784E0898388E0FE01E9
:1019A000B196DE01159601900D928A95E1F781E0DE
:1019B0008D8720C188E7898382E08A831B821C820D
:1019C00019C18C8190E0982F88272B81820F911D5F
:1019D000092E000CAA0BBB0B35E0880F991FAA1F1C
:1019E000BB1F3A95D1F7AC01BD01405E5F4F6F4F11
:1019F0007F4F481759076A077B0708F4FBC08837F1
:101A0000E2E09E07A105B10508F0F4C04937F2E015
:101A10005F076105710520F048E752E060E070E083
:101A2000481B590BBC016E5B7E4FC8010E940735F5
:101A3000E1C01B810C8140E0602F812F0E94341D8A
:101A400099838A8341E0602F812F0E94341D9B83FC
:101A50008C83D0C02E813F813227232732274D81AE
:101A60006C818B810E94FC1CC5C040E250E06FEF8E
:101A700070E0C8010E942836809128048983EA8298
:101A80001B821C821D8281E0D9C081E090E090938E
:101A90002D0480932C0482E390E09093D8028093ED
:101AA000D7020E94291A9093D6028093D502A2C031
:101AB000EF28B9F180915103909152039C01369522
:101AC00027958170182F12238091D5029091D6020C
:101AD0000E940E1A85369105F0F01123E1F00E9464
:101AE000291A9093D6028093D5028091D7029091C3
:101AF000D80201979093D8028093D702892B89F45A
:101B000010922D0410922C0481E090E0909329040F
:101B10008093280406C082E390E09093D8028093DB
:101B2000D70280912804898380912C048A83809134
:101B3000D7028B835FC010922904109228045AC0E8
:101B400040E250E06FEF70E0C8010E94283652C0BA
:101B50008B81833061F0843061F181114BC080E270
:101B6000D8011D928A95E9F788E08A8343C06C8189
:101B7000CE0181962AE0FC0111922A95E9F768309E
:101B800060F4FAE06F9FB0011124695F7D4F4AE075
:101B900050E00E94103580E001C08FEF89838AE019
:101BA000FE01B196DE01129601900D928A95E1F741
:101BB00021C06C818AE0FE013596DE01919601908C
:101BC0000D928A95E1F7683070F41AE0619FB001D8
:101BD0001124695F7D4F4AE050E0CE0181960E945A
:101BE000623580E001C08FEF89830E94821E02C0AF
:101BF0008FEF8983CE0101960E941D260C94260644
:101C000009BD19BD09B400FEFDCF8091D8008F7DBC
:101C10008093D8008091E00082608093E000809102
:101C2000E00081FDFCCF0E9411290C942F0686E272
:101C300090E00E9420351B821C821D828E83DACFA9
:101C40008B2D90E08E30910530F0809114018F5FE4
:101C50008093140185CAFC01EC59FF4F0C940536A2
:101C600080911601882309F4B2C340E060E080E06F
:101C70000E940420ACC310911401110F110F110F19
:101C800008E0010F093208F008E260910305709145
:101C90000405809105050E941B34F62EE72ED82EF0
:101CA000101708F0A6C1E12FF0E0DF01A053BE4FEE
:101CB0008C9190911501982331F02D2D4F2D6E2D83
:101CC000CF010E9406201F5FEBCF10911401110F6E
:101CD000110F110F08E0010F093208F008E2E0903F
:101CE0000405F0900505D09003056D2D7E2D8F2DF8
:101CF0000E941B34C62EA72E982E609106056D0DEE
:101D00007E2D8F2D0E941B34F62EE72ED82E101715
:101D100008F06FC1812F90E0FC01E053FE4F30814D
:101D200020911501232359F030FF04C02D2D4F2D94
:101D30006E2D03C0292D4C2D6A2D0E9406201F5F99
:101D4000E6CF0F2D10E0F801E053FE4F9081809117
:101D500015018923B9F0F801EE0FFF1FEC5AFE4F71
:101D600085A582958F70609103058D9D600D11246E
:101D70007C2D8A2D0E941B34462F282F672FC801E7
:101D80000E940620F394DCC9F0901401FF0CFF0CB4
:101D9000FF0C58E0E52EEF0C38E23E1510F448E257
:101DA000E42EC0900405A09005052091060530E4BE
:101DB000D32E4D2D429F412D1124D42EFE1438F5E3
:101DC0000F2D10E0F801E053FE4F90818091150136
:101DD0008923D9F0F801EE0FFF1FE058FE4F608114
:101DE000D69EB001112495E0759567959A95E1F717
:101DF00080910305680F7C2D8A2D0E941B34462F8D
:101E0000282F672FC8010E940620F394D7CF81E0C6
:101E100067E26E1508F09DC9DAC2F0901401FF0C5C
:101E2000FF0CFF0C08E0E02EEF0C78E27E1510F4BA
:101E300018E2E12E6091060566958091FE0490916E
:101E4000FF040E941134D82EFE1408F0BAC20F2DE0
:101E500010E0F801E053FE4F908180911501892335
:101E6000B1F1F801EE0FFF1FE058FE4F408150E046
:101E700044565109F801EE0FFF1FEC5AFE4F25A5FD
:101E800030E020523109449FB001459F700D700D24
:101E90001124229FC001239F900D900D1124860FC5
:101EA000971F0E94B73390910405A3E08A9FB00169
:101EB0001124759567956D0D792F809105050E9408
:101EC0001B34462F282F672FC8010E940620F39449
:101ED000BBCF10911401110F110F110F68E0D62E16
:101EE000D10EE8E2ED1510F458E2D52E609106050A
:101EF00066958091FE049091FF040E941134C82ED3
:101F00001D1578F5E12EF12CF701E053FE4F90817D
:101F100080911501892319F1F701EE0FFF1FEC5A8B
:101F2000FE4F25A530E020523109F701EE0FFF1FCB
:101F3000E058FE4F408150E044565109609103053E
:101F400070910405809105050C2D0E94E8330E94D4
:101F50001B34462F282F672FC7010E9406201F5FC2
:101F6000CFCF81E0F7E2FD1508F0F3C830C2109141
:101F70001401110F110F110F08E0010F093208F0C1
:101F800008E2E0900405F0900505D090030560910B
:101F900006056695669566958091FE049091FF040E
:101FA0000E9411340E947233805887FD8195880FFA
:101FB000682F2CE0629F612D11246D0D7E2D8F2DD9
:101FC0000E941B34F62EE72ED82E101790F4E12F26
:101FD000F0E0DF01A053BE4F8C9190911501982342
:101FE00031F02D2D4F2D6E2DCF010E9406201F5F49
:101FF000ECCF81E0083208F4ACC8E9C183E993E38F
:1020000002C08BE593E30E94FA20A3C8009114015B
:10201000000F000F000F18E0100F1DAB1D3210F065
:102020001CE21DAB80911601882361F040E060E066
:1020300080E00E9404208CE2E0E7F2E0DF011D92E4
:102040008A95E9F780911401811115C080916D0284
:1020500090916E020E940E1A21E08931910508F4D8
:1020600020E020936C02499730F00E94291A909347
:102070006E0280936D0210E0BDA98B2E912C9BE027
:10208000A92EFE0131963F012AEAC22E0815190534
:102090000CF069C02801F3E04F2255241801359453
:1020A000279435942794A49CF001A59CF00D11244D
:1020B000E059FD4FE20DF31DD080A301622D842D68
:1020C0000E9408208EAB73018E2D8619EEA98E1703
:1020D00008F032C0D701EC91F0E0E053FE4F908160
:1020E00080911501892321F13D2D25E5321B08F44E
:1020F00030E0709104052C2D4D2D240F08F42FEFA6
:102100004091050562E0269F200D11242E5F249F3B
:10211000212D11246C2D631B822F0E941B34462F0E
:10212000D7019C91282F672F892F90E00E940620CD
:10213000BFEFEB1AFB0AC8CF80916C02882381F0B5
:102140002D2D31E0231B08F420E0A49CC001A59CA8
:10215000900D112480599D4FFC01E20DF31D208349
:102160000F5F1F4F93CF81E01DA91C3210F40C9418
:10217000A9082DC180911601882371F040E060E02C
:1021800080E00E9404208CE2E0E7F2E0DF011D9293
:102190008A95E9F710926F02B0E7EB2EB2E0FB2EC2
:1021A000912C88248A9410EC712E0FE2C02ED12C31
:1021B0008701A12CA1100CC080916F02811108C071
:1021C0000E94F734853595401CF4F701808206C0E3
:1021D000D8018C9181508E3F08F48C93AE014F5FF3
:1021E0005F4F692D8A2D0E940820882311F1F80184
:1021F00040813981413D70F050E0405D5109749E4D
:10220000C001759E900D1124B6010E94DD35262F68
:102210004FEF0BC0FFEF4F9FC001112460ED70E046
:102220000E94DD35462F20E060E0832F90E00E9481
:102230000620A394055F1F4F24E0A212BBCF939406
:102240003FEFE31AF30A4BE09412B2CF80916F0292
:102250008F5F8D3118F480936F02B9C010926F02B6
:1022600026E832E083E04EEFA0E7B2E0F9019BE020
:10227000833041F491965C9191975F3F19F4919668
:102280004C93919750815F3F11F440835387915055
:10229000319611969111ECCF81502B50310981115B
:1022A000E3CF95C0D0901401DD0CDD0CDD0CA8E06F
:1022B000CA2ECD0C68E26C1510F4F8E2CF2E2091F6
:1022C000060531E0230F08F42FEF30E040E050E046
:1022D0006FEF7FEF80E090E00E947A358901AA24B9
:1022E000A394DC1408F041C0ED2CF12CF701E0536D
:1022F000FE4F9081809115018923A9F190919C0254
:10230000915097FD15C0292F092E000C330BF901B0
:10231000E456FD4F8189D812F3CF220F331FF90104
:10232000E456FD4F218D328D2017310748F701C04B
:102330009801609106057A2D670F08F46FEFC901C7
:102340000E941134AC0160910305709104058091E5
:1023500005050E946C330E941B34462F282F672FDF
:10236000C7010E940620D394BCCF81E097E29C1560
:1023700010F00C94A9082BC0F0901401FF0CFF0C76
:10238000FF0C78E0E72EEF0CA8E2AE1510F468E23F
:10239000E62EFE14B0F40F2D10E0F801EE0FFF1F33
:1023A000E00FF11FE752FD4F6081718182810E9431
:1023B0001B34462F282F672FC8010E940620F39454
:1023C000E8CF81E0B7E2BE1510F00C94A90880E0D8
:1023D0000C94A9088F929F92AF92BF92CF92DF92F6
:1023E000EF92FF920F931F93CF93DF9300D000D013
:1023F000CDB7DEB7FC018081918123813481232B0D
:1024000031F09F3F31F491E08F3F19F403C091E028
:1024100001C090E090FDF7C66F0161E0CF010E941E
:102420006B308C01F6018281882309F49AC09801EF
:1024300022513F452031310508F07BC08FEF93E0FA
:102440000E94203581117FC03EEEF32EF00E07E58D
:1024500012E0FF2071F00115F4E01F0709F473C0CA
:10246000C8010E942035811101C0FA940F5F1F4FEF
:10247000F0CF19821A821B821C82AA24AA947801A6
:102480002FEFE21AF20AC8010E94203589831A82CE
:10249000882309F458C0813009F046C0480182E021
:1024A000880E911CC7010E9420358A83882309F475
:1024B0004AC09FEF980F933060F4780193E0E90EE3
:1024C000F11CC4010E9420358B8381112DC087012E
:1024D000D6CF843011F07401FACFC4010E942035A8
:1024E000B82E7801E4E0EE0EF11CC80103960E94BC
:1024F0002035BB2041F1882331F1282F30E02150D5
:102500003109A29EA001A39E500D11248B2D90E0B5
:102510000197840F951F0197D0F2EFE9FFE0319703
:10252000F1F700C00000F7CFCE0101960E941030F5
:10253000CECF00319FE5190709F030C581E00E9438
:1025400002290E94EF2080917005877009F45BC614
:10255000F6018281882309F456C682E00E94D12EBA
:1025600052C60031FFE51F0711F481E005C00131BB
:102570002FE5120721F482E00E94F628E2CF909125
:102580005903911105C090915C03992309F4B7C0D8
:1025900098013056211590E2390720F0305E211560
:1025A000304140F4F6019581907F09F4A8C078018C
:1025B000FF2401C07801970130542115354108F4FA
:1025C0009EC090915C03923021F5882369F0809140
:1025D0007305982F927219F06894F1F80FC086FF76
:1025E0000DC024E1F22A0AC0C70195558F3F91051D
:1025F00011F008F0B4C580E00E94582E81E080936D
:102600005C03F0925B03E0925A038FEF809310011A
:102610009ACF882309F4A3C5913009F05FC0809157
:1026200010019CE2E916F104D9F4882329F00E94F4
:102630002B331092100187CF80915A0390915B0346
:1026400095558F3F910509F018F40E944D2E03C057
:102650008AE20E94BB2A10925C030E9451334FC051
:10266000EAE2EE16F10421F481508093100126C0B5
:1026700087FD34C081110BC080915A0390915B0398
:1026800095558F3F910509F010F40E942B338091EE
:1026900010018F5F80931001FDE2EF16F10471F0DD
:1026A00040F484E0E81AF10894E2E916F10480F4B9
:1026B00005C0EDE2EE16E2E0FE0651F4F60182817D
:1026C000882309F44CC580917305811114C065C13C
:1026D000F6018281882309F442C50DC09AE2E91609
:1026E000F10489F308F080C5F4E0EF1AF10824E260
:1026F000E216F10440F30E94513310925C0301385A
:10270000FFE51F0779F4F60182818823C1F081E09B
:10271000809359030E94121B81FD11C089E30E941E
:10272000BB2A0DC002382FE5120708F0BDC40933DB
:10273000110509F03AC4F6018281811139C1F6010F
:102740009281992309F455C1109230040230FCE5BE
:102750001F0708F438C106312CE5120738F098013C
:102760002A5F3C452930310508F02DC10E94C72D54
:10277000909335028093340200318CE5180709F4F8
:10278000C3C008F041C00830ECE51E0709F49AC048
:10279000F0F404302CE5120709F487C068F4023025
:1027A0009CE5190709F477C003301C4509F0E5C022
:1027B00080913402826076C00630FCE51F0709F480
:1027C0006EC008F07BC08091340288606BC00C3012
:1027D0008CE5180709F485C068F40A30ECE51E079B
:1027E00009F474C008F079C00E9411298091340264
:1027F000806858C00E302CE5120709F476C008F046
:102800007FC0809134028BC00B3F9CE5190709F40F
:102810004FC018F50331FCE51F0709F47DC078F4BB
:1028200001318CE5180709F473C002311C4509F029
:10283000A4C00E941129809134028F7733C00531E2
:10284000ECE51E0709F472C008F486C00A3F1C4577
:1028500009F093C0809135023EC00F3F8CE5180708
:1028600009F45FC058F40D3FECE51E0709F444C0BD
:1028700008F43FC08091350282602DC001302DE503
:10288000120709F475C008F45DC002301D4509F057
:1028900074C060E06EC080913402816003C080919A
:1028A000340280618093340268C08091340211C088
:1028B000809135028260809335025FC0809134023E
:1028C0008062F0CF809134028064ECCF809134023A
:1028D00088608460E7CF8160EECF809134028E7F84
:1028E000E1CF809134028D7FDDCF80913402877FEC
:1028F000D9CF8091350218C0809135028D7FDBCF12
:10290000809134028F7ECECF809134028F7DCACFEA
:10291000809134028F7BC6CF80913402877F8B7F7A
:10292000C1CF809135028D7F8E7FC5CF80913402DB
:1029300082FB222720F991E0922790FB82F990FBFD
:1029400083F9B0CF80913502982F909591708E7F4A
:10295000892B90FB81F9AFCF0E941129809134021D
:1029600087FB222720F991E0922790FB87F99ACFE5
:1029700061E08EE090E00E943E356091340210915B
:10298000350284E090E00E943E35612F82E290E0C3
:102990000E943E350E941129D6CD0138FFE51F0760
:1029A00009F4B1CE08F080C30933110509F0FDC266
:1029B00080913E02882319F010923E02C0CE81E041
:1029C00080933E02BCCE809173050631ECE51E0774
:1029D00009F58A7A91E009F490E090935D038823E9
:1029E00011F065E301C069E28BE195E00E94CC1A29
:1029F0000EC006311C4509F08BC080915D03882311
:102A000009F4F0C365E38BE195E00E94BF1A0E94D0
:102A1000732E99CD8272F801E25CFC45EB30F10532
:102A200008F043C0EE58FF4F0C9405368091020524
:102A300091E08927809302051092110190935E0323
:102A400082CD4FEE5FE169EF7FE12CC049EF5FE19E
:102A50006FEE7FE127C042EC5FE16CEC7FE122C0CA
:102A60004CEC5FE162EC7FE11DC048EA5FE165EBA1
:102A70007FE118C045EB5FE168EA7FE113C04EE8F3
:102A80005FE16BE97FE10EC04BE95FE16EE87FE15A
:102A900009C040E359E16CE379E104C04CE359E13A
:102AA00060E379E10E94751F4ECD992389F10A35C3
:102AB000EDE51E0741F150F401152CE51207A9F0D0
:102AC0000E3D1C4529F50E94E32D3DCD0B359DE5BE
:102AD0001907D9F00C351D45D9F48091350282FBD8
:102AE000882780F991E0892711C00E941129FFEF02
:102AF00024E38CE0F15020408040E1F700C000006A
:102B00000E94C41920CD81E001C080E00E94B02E57
:102B1000F601868197810097B9F4F60182810081E0
:102B20001181882349F0C8010E945126F82E682F90
:102B3000C8010E94C52804C0C8010E949528F82E2B
:102B4000B8018F2D0E94661E0E943E2CF82E192F70
:102B5000F601E280058102950F7080917005877003
:102B600099F0EE2089F0892F807F803421F080E277
:102B70008F0D883048F082E00E94D12E8091700540
:102B80008770BB24B3948111B12CA12EA2948FE045
:102B9000A8228A2D90E08C30910508F0DBC1FC0161
:102BA000E358FF4F0C940536812F807F1F708823D8
:102BB00011F01295107FEE20B9F0112309F4ACC189
:102BC00080E28F0D883010F0F11006C090917305EF
:102BD000192B1093730505C090917205192B109352
:102BE00072050E94732E98C18F2D0E94C82911234F
:102BF00009F4B0C180E28F0D883010F0F11004C0EC
:102C0000812F0E946C2E06C0109590917205192399
:102C1000109372050E94732E9DC1812F807F1F70BB
:102C2000803211F01295107FFF2021F0F1E0FF16A5
:102C300091F13BC0EE20D9F00023A9F0013031F42E
:102C400080917605812B0E94582E84C1053059F45D
:102C50000E944D2E80916D05181310936D05812FE4
:102C60000E94BE2977C180917605812BF9CF002380
:102C700049F0013069F480917305812309F46AC138
:102C80000E94042F0E944D2E812F0E94B72962C1FD
:102C90000530C1F75FC1EE2021F0063008F05AC1BF
:102CA000DECF053008F056C1EFCFEE2019F000233B
:102CB000B1F232C1002341F329E3F21208C08FEFD1
:102CC00097EEE3E081509040E040E1F73EC1FFE73E
:102CD00028E381E0F15020408040E1F736C1812FA8
:102CE00086958695837019F0813061F033C1EE20AE
:102CF00021F08F2D912F937002C080E090E00E9410
:102D0000FC1A2EC1EE2021F08F2D912F937002C05E
:102D100080E090E00E94E61A23C1812F8370A9F51C
:102D2000E1101CC14F2D429546954770440F440F4A
:102D30008F2D8F7090E09C01042E01C0220F0A9409
:102D4000EAF7F4FE08C08FE090E001C0880F4A95D2
:102D5000EAF7809501C080E0169516951370123041
:102D600069F088F49091D703113019F0822B8923F0
:102D700002C0922B892B0E940D29F0C0822B9091CA
:102D8000D7038927F8CF822BF6CFEE2019F0812FB9
:102D9000817001C08695882309F4E0C04F2D4295CB
:102DA00046954770440F440F8F2D8F7090E09C0123
:102DB000042E01C0220F0A94EAF7F4FE08C08FE047
:102DC00090E001C0880F4A95EAF7809501C080E045
:102DD000169516951370123059F078F490910805F5
:102DE000113019F0822B892309C0922B892B06C040
:102DF000822B90910805892701C0822B0E94F2281E
:102E0000ADC01F70EE2039F0812F0E9402298F2D56
:102E10000E94BE29A3C08F2D0E94B729812F0E9436
:102E2000F6289CC092EFF91659F19F1538F0E0EFA3
:102E3000FE1659F0F1EFFF16E1F069C023EFF2162C
:102E400031F184EFF81681F162C0EE2071F00530A7
:102E500008F080C01F7181E090E001C0880F1A95D2
:102E6000EAF79091080589271CC0063008F072C067
:102E7000F1CFEE2039F0812F8F710E9402296AC0B4
:102E8000EE20C9F3812F8F710E94F62863C0EE20D7
:102E900039F01F7181E001C0880F1A95EAF701C06F
:102EA00080E00E94F22856C0EE20D1F080916D059E
:102EB0000E946C2E809170058770843039F40E94D6
:102EC000CA2E812F8F710E94F62866C0053008F047
:102ED00063C01F71812F0E94022963E0812F10C0FF
:102EE0009091730580916D05892B80937305053052
:102EF00050F00E94CA2E0E94042F64E0812F8F712F
:102F00000E94EE2E49C081E00E94D12E45C0EE20E5
:102F100039F0002309F4AFCF8F2D0E941F2A1AC069
:102F2000002309F4AFCF99E3F91208C0EFEFF7EEF1
:102F300023E0E150F0402040E1F707C08FE798E33D
:102F4000E1E081509040E040E1F700C000008F2DAB
:102F50000E94C82988EF8A0D843010F40E94121B49
:102F6000BB20A9F08091700580FD11C0F60112828E
:102F70008595859585950E940229C6010E94EA11D2
:102F8000809170058595859585950E94F62860E06D
:102F9000C6010E946B3037C1B12CE0CF0131EFE5A3
:102FA0001E0709F0ECCA82E0CACA00388FE518078C
:102FB00009F086C0F6018281882309F4C0CB92EF24
:102FC000A92E93E0B92E2AE0922EF5018491882350
:102FD00009F45AC0813009F04FC07501FFEFEF1AB4
:102FE000FF0AF7018491813049F47501F2E0EF0E98
:102FF000F11CF70184910E94BB2A41C0823049F440
:103000007501F2E0EF0EF11CF70184910E941F2A76
:1030100036C0833049F47501F2E0EF0EF11CF70180
:1030200084910E94C8292BC0843049F57501F2E0D3
:10303000EF0EF11CF701249180E090E030E0205386
:1030400031092A30310570F4989EA001999E500DE7
:103050001124C901840F951FFFEFEF1AFF0AF70132
:103060002491ECCF009759F0EFE9FFE03197F1F7A9
:1030700000C000000197F6CF0E94AA2F75015701EA
:10308000FFEFAF1ABF0AA1CF8091760581FD57CB24
:103090000E94291A90937505809374058091760596
:1030A0008260809376054BCB03389FE5190709F4BE
:1030B00060C008F46BC00438FFE51F0709F476C050
:1030C000033F2CE51207A1F406E221EE40EE63EF88
:1030D0007CE50AC0073DFCE51F0709F030CB06E29E
:1030E00021EE41EE67ED7CE5C6010E94791C2BCAFA
:1030F000043F8CE51807A0F4083D9CE5190731F45E
:1031000007E225EE45EE68ED7CE5EECF093DECE506
:103110001E0701F708E221E045EE69ED7CE5E4CF0A
:10312000053F2CE5120731F406E221EE42EE65EF91
:103130007CE5DACF053F8CE5180730F407E225EE91
:1031400044EE64EF7CE5D0CF063F9CE5190709F01B
:10315000F6CA07E225EE46EE66EF7CE5C5CF0138FC
:103160002FE5120709F4CFCA98F10338EFE51E07DF
:1031700049F4F6018281882309F4E1CA82E0809350
:103180005C033EC00338FFE51F0758F4F601828157
:10319000882309F4D4CA81E080935C038DE290E037
:1031A0000FC004382FE5120709F08ACFF60182819B
:1031B000882309F4C4CA81E080935C038DE292E025
:1031C00090935B0380935A038FEF8093100118C094
:1031D0000933110509F4B3CA00389FE5190709F44A
:1031E000E9CE6ECF69E20FCC8DE2E816F10409F466
:1031F0006ACA9DE2E91692E0F90609F07CCA63CA40
:10320000F6019281A1CA0F900F900F900F90DF915D
:10321000CF911F910F91FF90EF90DF90CF90BF90D3
:10322000AF909F908F90089508958091E90408953C
:10323000EFE5F3E093E0E73DF90729F08183608350
:1032400042833396F7CF0895FC01EE0FFF1F8E0FD8
:103250009F1FFC01E15AFC4F618340832283089544
:10326000E2E0F5E0248130E1231B08F420E0248330
:1032700081E080935E030895E2E0F5E0248130E18F
:10328000230F08F42FEF248381E080935E030895D9
:10329000CF93DF9321E02093E9002FEF3091E800F6
:1032A000215035FD06C035ED3A95F1F700002111AA
:1032B000F5CF2091E80025FF14C0EC0140E050E07C
:1032C00068E070E00E94F1258091E8008E7780939D
:1032D000E80088E0FE01AAEEB4E001900D928A9524
:1032E000E1F7DF91CF910895809A81B38E7F91B3FA
:1032F00091602FB7F894EFE5F3E033E0E73DF30793
:1033000089F0319148E091BB000000C037FF81BBDC
:10331000330F000000C000C000C081BB00C04A9550
:1033200091F7EBCF2FBF8FE594E00197F1F700C045
:10333000000008959091FD04943029F58093E404F1
:103340007093E6046093E5049093E9008FEF909109
:10335000E800815095FD06C095ED9A95F1F70000C3
:103360008111F5CF8091E80085FF0DC040E050E06D
:1033700063E070E084EE94E00E94F1258091E80023
:103380008E778093E800089581E08093E00080E2EA
:103390008093D8001092C9008FE19EE40197F1F765
:1033A00000C0000087E090EBDC0180937A059093E9
:1033B0007B05A0937C05B0937D059CE088E10FB66A
:1033C000F894A895809360000FBE90936000FFCFA3
:1033D00078941F920F920FB60F9211248F939F93A0
:1033E000AF93BF938091E0049091E104A091E20437
:1033F000B091E3040196A11DB11D8093E004909368
:10340000E104A093E204B093E304BF91AF919F91D4
:103410008F910F900FBE0F901F9018959C014FB782
:10342000F8948091E0049091E104A091E204B091BD
:10343000E3044FBF821B930B08952FB7F89460915C
:10344000E0047091E1048091E2049091E3042FBFC5
:1034500008952FB7F8948091E0049091E104A09131
:10346000E204B091E3042FBF0895CF93DF9300D01F
:1034700000D01F92CDB7DEB790932B0480932A041F
:10348000811520E2920748F40F900F900F900F9053
:103490000F90DF91CF910C94F8328EEF89838A835D
:1034A0001B820E94291A8160782F9D838C83498119
:1034B0005A816B818D810E94A2300F900F900F90E6
:1034C0000F900F90DF91CF910895CF93DF9300D0AD
:1034D00000D01F92CDB7DEB790932B0480932A04BF
:1034E000811520E2920748F40F900F900F900F90F3
:1034F0000F90DF91CF910C9412338EEF89838A83E2
:1035000081E08B830E94291A8160782F9D838C83B0
:1035100049815A816B818D810E94A2300F900F905A
:103520000F900F900F90DF91CF9108951F920F92FF
:103530000FB60F9211248F939F93AF93BF938091F7
:10354000DF04811113C08091E0049091E104A09107
:10355000E204B091E3044196A11DB11D8093E00403
:103560009093E104A093E204B093E304BF91AF9180
:103570009F918F910F900FBE0F901F9018959C01F7
:103580002A5F3F4FFC014281461301C0128201961F
:1035900082179307B9F708959C01FC0132969FEFBB
:1035A00080E04191461789F09F3F19F4411101C015
:1035B000982F8F5F8630A9F79F3F39F0F901E90F07
:1035C000F11D97FDFA956283089508952091DD0419
:1035D0003091DE042817390771F09093DE04809350
:1035E000DD04E091DB04F091DC04309721F00084ED
:1035F000F185E02D099408952091D9043091DA04E1
:103600002817390771F09093DA048093D904E09178
:10361000DB04F091DC04309721F00680F781E02D87
:1036200009940895E091DB04F091DC04309721F0D7
:103630000190F081E02D099480E00895BC01409153
:10364000D5048091D604942F981729F1292F30E0C2
:10365000F901EE0FFF1FE353FB4F0190F081E02DC6
:10366000E617F70799F487E0869FF001879FF00D32
:103670001124EB56FB4F81E0848394130CC02F5F21
:103680003F4F237033272093D50408952F5F3F4F7A
:10369000922F9370D9CF08950F931F93CF93DF93F9
:1036A00080913404882309F451C0C09133041CE094
:1036B00080913404C81708F045C001E00C0F009356
:1036C0003304D0E01C9FF0011D9FF00D1124EB5C32
:1036D000FB4F9081818123813481232B31F08F3FF7
:1036E00031F481E09F3F19F403C081E001C080E024
:1036F00080FD26C01C9FD0011D9FB00D1124AB5C26
:10370000BB4F16968D919C911797892B31F4189683
:103710008D919C911997019651F4208131814281BC
:10372000538164817581868197810E941C291C9F29
:10373000F0011D9FF00D1124EB5CFB4F14821382EE
:10374000C02FB6CF1092340410923304DF91CF9182
:103750001F910F9108951092320410923104E5E9FF
:10376000F4E08581811102C014821682379684E0CC
:10377000ED3CF807B1F708951092D8041092D704E1
:10378000109212018091D6048093D5040E94AB1B45
:103790000C944C1B3F924F925F926F927F928F924C
:1037A0009F92AF92BF92CF92DF92EF92FF920F93D0
:1037B0001F93CF93DF93C091D50497E0892E01E04A
:1037C00010E02CE0322E3EEF932E4424439480915F
:1037D000D604C81709F478C0D0E0FE01EE0FFF1F31
:1037E000E353FB4F80819181889ED001899EB00D6B
:1037F0001124AB56BB4F14962C911497211161C024
:1038000050903404E5E3F4E020E030E0712C5D01F9
:10381000251508F054C0E284F384D501CD90DC90E6
:103820006FEF7FEF612C462D50E0DA01AA0FBB1F2E
:10383000AC0DBD1D0D90BC91A02D109731F0EA1676
:10384000FB0609F4BA016394EECF6F3FBFEF7B072D
:1038500091F1D80102C0AA0FBB1F6A95E2F77A2A3C
:10386000B80102C0660F771F6A94E2F7AB014150BE
:103870005109672D70E046175707D9F4329EF001C1
:10388000339EF00D1124EB5CFB4F889ED001899E86
:10389000B00D1124AB56BB4F12962D913C9113974E
:1038A00037832683908291829187808715964C92E8
:1038B00006C0148213822F5F3F4F3C96A9CF0E940F
:1038C0001E1B2196C37083CF0E944C1BDF91CF91AA
:1038D0001F910F91FF90EF90DF90CF90BF90AF902E
:1038E0009F908F907F906F905F904F903F900C943F
:1038F000AB1B0F931F93CF93DF93C42FD22FFC01E9
:1039000082818823C9F0409330040E94291A909341
:103910002F0480932E0480E28C0F883008F057C06B
:10392000C77081E001C0880FCA95EAF7DF91CF9197
:103930001F910F910C94BE2980913004481330C020
:1039400080912E0490912F040E940E1A883C9105BC
:1039500038F510E21D0FCD17B9F080E28C0F8830DA
:1039600040F4C77081E001C0880FCA95EAF70E9451
:10397000B729183028F581E09D2F977001C0880F76
:103980009A95EAF70E94BE29802F0E94BB2A183020
:10399000F0F4D77081E001C0880FDA95EAF70AC029
:1039A00080E28C0F883098F4C77081E001C0880FE6
:1039B000CA95EAF7DF91CF911F910F910C94B72927
:1039C000802FDF91CF911F910F910C94BB2ADF9133
:1039D000CF911F910F910895CF93DF93C7E5D2E068
:1039E00060E0CE010E943E352196C11584E0D807E3
:1039F000B9F7DF91CF9108950F931F93CF93DF9382
:103A0000853068F5623058F5423048F521159CE55F
:103A1000390731F4E0912804F0912904EF2BF9F0F3
:103A20008901282F34E0639FC001112438E0239FCF
:103A3000800D911D1124840F911D840F911DEC01A7
:103A4000C152DE4F612FCE010E943E35602FCE0164
:103A50000196DF91CF911F910F910C943E35DF912C
:103A6000CF911F910F9108950F931F93CF93DF93E1
:103A7000853018F5623008F54230F8F4282F34E02C
:103A8000639FC001112438E0239F800D911D1124F4
:103A9000840F911D840F911DEC01C152DE4FCE01A8
:103AA0000E94203590E0182F0027CE0101960E9439
:103AB00020359801282BC90102C080E090E0DF91F9
:103AC000CF911F910F9108950F931F93CF93DF9381
:103AD000853058F5643048F54B3038F521159CE5B4
:103AE000390731F4E0912804F0912904EF2BE9F033
:103AF0008901C42FD0E0CC0FDD1F96E1699FC00D76
:103B0000D11D112498E5899FC00DD11D1124612F6D
:103B1000CE0187960E943E35602FCE018896DF91B8
:103B2000CF911F910F910C943E35DF91CF911F9152
:103B30000F9108954F925F926F927F928F929F9212
:103B4000AF92BF92CF92DF92EF92FF920F931F93AB
:103B5000CF93DF93CDB7DEB72A970FB6F894DEBFC9
:103B60000FBECDBF609028047090290481E090E0E2
:103B7000909329048093280495EFC92E93E0D92EC1
:103B8000A12CB12C512C412CE12CF12C00E010E0A7
:103B900047018A0C9B1CF801EE0FFF1FE80DF91D71
:103BA000E35EFB4F25913491402F642D852D0E94BB
:103BB000641D0F5F1F4F0B30110569F786E1E80E9A
:103BC000F11C439494E04912E1CF760110E0F70133
:103BD0002591349140E0612F852D0E94FC1CF70156
:103BE00032962591349141E0612F852D0E94FC1C75
:103BF000E4E0EE0EF11C1F5F123049F7F8E0CF0E43
:103C0000D11C539488E5A80EB11C95E05912BBCF86
:103C1000FE0131967F018AE011928A95E9F707E06B
:103C200012E04AE050E0B801C7010E946235065F29
:103C30001F4F0735F2E01F07A1F770922904609229
:103C400028042A960FB6F894DEBF0FBECDBFDF91D1
:103C5000CF911F910F91FF90EF90DF90CF90BF9089
:103C6000AF909F908F907F906F905F904F9008954E
:103C70000F931F93CF93DF93853008F56430F8F4EA
:103C80004B30E8F4C42FD0E0CC0FDD1F26E1629F5B
:103C9000C00DD11D112438E5839FC00DD11D112405
:103CA000CE0187960E94203590E0182F0027CE0184
:103CB00088960E9420359801282BC90102C080E017
:103CC00090E0DF91CF911F910F910895462F2091A1
:103CD0002C0430912D04232B91F47E3F39F46E3F58
:103CE00071F480912A0490912B040895853038F462
:103CF000743028F46B3018F4672F0C94381E80E071
:103D000090E00895CF92DF92EF92FF920F931F936E
:103D1000CF93DF93CDB7DEB72A970FB6F894DEBF07
:103D20000FBECDBF80E5E8EDF3E0DF011D928A957F
:103D3000E9F788E3E5E9F4E0DF011D928A95E9F708
:103D400088EDC82E83E0D82E7F0107E012E0F7014E
:103D5000D182C0824AE050E0B801CE0101960E94B3
:103D6000103588E0FE013196D60101900D928A95BA
:103D7000E1F789859A85D70113969C938E931297C4
:103D8000BAE0CB0ED11CE7E0EE0EF11C065F1F4F30
:103D90000735F2E01F07D9F62A960FB6F894DEBF72
:103DA0000FBECDBFDF91CF911F910F91FF90EF908C
:103DB000DF90CF900895AF92BF92CF92DF92EF92B3
:103DC000FF920F931F93CF93DF93B82EA62EC09030
:103DD00008058091D703C82AC7E0D0E0D12CE12C98
:103DE000F12CD701C6010C2E04C0B695A795979566
:103DF00087950A94D2F780FF13C04A2D6B2D8C2F24
:103E00000E94341D8C018130910551F00E94651A89
:103E10008FE39CE90197F1F700C00000C80111C0D1
:103E20002197F8F64A2D6B2D80E00E94341DEC019D
:103E30000E94651A8FE39CE90197F1F700C000002A
:103E4000CE010E94351A81E0DF91CF911F910F9131
:103E5000FF90EF90DF90CF90BF90AF900895CF93F9
:103E6000C82F811102C06FEF01C068E583E290E0C6
:103E70000E943E35C11102C06FEF01C06EEE84E2B8
:103E800090E00E943E35C11102C06FEF01C067E7AC
:103E900085E290E0CF910C943E3580E00E942F1F88
:103EA00060E086E290E00E943E350E949A1D0E94EA
:103EB000EC1C81E00C942F1F83E290E00E942035DF
:103EC000883581F484E290E00E9420358E3E51F4E2
:103ED00085E290E00E94203591E0873709F090E07C
:103EE000892F01C080E081700895882311F0FA01C4
:103EF00001C0FB01099490910205937071F08093C9
:103F00000305609304054D3308F04CE34093050529
:103F100080915E03282B20935E030895E2E0F5E094
:103F2000438120E1421B08F440E0818121E062816D
:103F300090E00C947B1FE2E0F5E0438120E1420F2A
:103F400008F44FEF818121E0628190E00C947B1FA7
:103F5000E2E0F5E0628120E1621B08F460E081812B
:103F600021E0438190E00C947B1FE2E0F5E0628168
:103F700020E1620F08F46FEF818121E0438190E03E
:103F80000C947B1FE2E0F5E0818190E021E0438129
:103F9000628108970C947B1FE2E0F5E0818190E05C
:103FA00021E04381628108960C947B1F9091020569
:103FB0009370A1F0811102C0946007C08E3010F0A0
:103FC000946303C0880F880F982B9093020510927A
:103FD000110180915E03682B60935E0308958091C8
:103FE000020586958695815009F48DE061E00C9478
:103FF000D61F80910205869586958F5F8E3008F0DA
:1040000081E061E00C94D61F0C9418190C942419CB
:104010002BE0829FC0011124FC01EC5AFE4FE60FF9
:10402000F11D80818F3F21F0FA01808381E00895A6
:1040300080E0089546E050E06CE170E082E095E0B9
:104040000C942E35E2E0F5E085E0808380911F013D
:1040500090912001A091210181839283A3838FE716
:1040600084838FEF85830C941A208091F50487FF59
:1040700011C08091E80082FD05C08091FD0481118E
:10408000F8CF11C08091E8008B770BC08091FD04C0
:10409000882349F08091E80080FFF8CF8091E80004
:1040A0008E778093E8000895982F973068F5909365
:1040B000E900981739F07091EC002091ED005091D3
:1040C000F00003C0242F762F50E021FD02C09F5F37
:1040D000ECCF3091EB003E7F3093EB003091ED0060
:1040E0003D7F3093ED003091EB0031603093EB0079
:1040F0007093EC002093ED005093F0002091EE00BF
:1041000027FDE5CF80E008958F708093E90081E07E
:1041100008952091FB043091FC042617370748F0DE
:104120006115710539F42091E8002E772093E8009D
:1041300001C0B901FC0120E06115710579F18091A0
:10414000FD048823F1F18530F1F18091E80083FDD1
:104150003CC08091E80082FD2EC08091E80080FF85
:10416000EBCF2091F3008091F20090E0922B61154B
:10417000710551F08830910538F421912093F100B8
:10418000615071090196F3CF21E0089709F020E012
:104190008091E8008E778093E800CECF2111CFCFB9
:1041A0000AC08091FD04882361F0853061F0809120
:1041B000E80083FD0AC08091E80082FFF2CF80E032
:1041C000089582E0089583E0089581E00895BC0198
:1041D00084E00C949A19BC0183E00C949A198091A4
:1041E0000805982F9670963011F4886001C0877F7B
:1041F0000C94F228DF92EF92FF920F931F93CF93CC
:10420000DF938C01C0911401CC0FCC0FCC0FD8E000
:10421000DC0FD93208F0D8E2609106056695669504
:1042200021E0620F08F46FEF8091FE049091FF048B
:104230000E941134D82ECD17F0F4EC2EF12CF7019A
:10424000E053FE4F908180911501892391F0609198
:10425000030570910405809105052D2D4C2FF80163
:1042600009950E941B34462F282F672FC7010E94F3
:104270000620CF5FE0CF81E0D83208F080E0DF9108
:10428000CF911F910F91FF90EF90DF9008951F93B2
:10429000CF93DF93CDB7DEB7AA970FB6F894DEBF02
:1042A0000FBECDBFE5EFF4E08091F100819344E0D3
:1042B000ED3FF407C9F78091F604833009F462C03A
:1042C00030F4813071F0823009F49CC0B3C08A3080
:1042D00009F488C08B3009F46DC0893009F0AAC098
:1042E00020C08091F504813A09F0A4C08091E800D3
:1042F000877F8093E8008091F9049091FA04892BDC
:1043000021F468E08AEE94E003C060E080E090E091
:1043100070E00E9489208091E8008B778093E8000C
:1043200089C08091F504813209F084C08091F9043C
:104330009091FA04009719F0029709F07BC08091E0
:10434000E800877F8093E8008091E80082FD05C047
:104350008091FD048111F8CF6DC02091F300809110
:10436000F20090E0922B029729F48091F1008B7F6C
:10437000813021F48091F1008093E9048091E8007C
:104380008B7754C08091F504813A09F053C0809135
:10439000F9049091FA04892B09F04CC08091E8004F
:1043A000877F8093E8008091E80080FFFCCF8091B8
:1043B000130137C08091F5048132E1F58091F90451
:1043C0009091FA04892BB1F58091E800877F809362
:1043D000E8000E9435208091F704809313010E9429
:1043E000112928C08091F504813221F58091E800DF
:1043F000877F8093E8000E9435208091F8048093A5
:10440000E80418C08091F504813AA1F48091E80095
:10441000877F8093E8008091E80080FFFCCF809147
:10442000E8048093F1008091E8008E778093E800A3
:104430000E9435208091E80083FFE9C18091F50456
:104440009091F604492F50E04A30510508F0DFC141
:10445000FA01E757FF4F0C940536803821F0823877
:1044600009F0D5C108C08091F2049091F30499231A
:1044700089F082600FC08091F9048F70873008F056
:10448000C6C18093E9008091EB0085FB882780F905
:104490001092E9009091E800977F9093E800809354
:1044A000F1001092F1007CC1282F2D7F09F0AFC1DF
:1044B000882319F0823061F0AAC18091F70481301D
:1044C00009F0A5C1933009F080E08093F3042EC079
:1044D0008091F70481112AC08091F9048F702FEF29
:1044E000280F263008F093C18093E9002091EB005B
:1044F00020FF1CC0933021F48091EB00806214C037
:104500009091EB0090619093EB0021E030E0A901E5
:1045100002C0440F551F8A95E2F74093EA001092BB
:10452000EA008091EB0088608093EB001092E90034
:104530008091E800877F8093E8000E94352067C162
:10454000811165C11091F7041F778091E300807895
:10455000812B8093E3008091E800877F8093E800BF
:104560000E9435208091E80080FFFCCF8091E3001D
:1045700080688093E300111102C082E001C083E0F3
:104580008093FD0444C18058823008F040C12091DE
:10459000F7043091F8042C3D53E0350779F583E0BA
:1045A0008A838AE289834FB7F894DE01139620E06C
:1045B0003EE051E2E32FF0E050935700E49120FFFA
:1045C00003C0E295EF703F5FEF708E2F90E0EA300E
:1045D00010F0C79601C0C0968D939D932F5F243134
:1045E00049F74FBF8091E800877F8093E8006AE237
:1045F00070E0CE0101960E948920C0C08091F9042C
:104600009091FA04432F552743305105B1F068F4D7
:104610004130510509F40AC14230510509F0F7C093
:104620008BE590E0E9E6F6E057C04132510589F1AB
:104630004232510509F43CC0EAC0C90199278130D2
:104640009105B9F070F082309105D9F0039709F027
:10465000DEC0E6EDF6E0E4918E2F90E0E6EDF6E0C8
:1046600038C0EEE3F7E0E4918E2F90E0EEE3F7E060
:1046700030C0E2E2F7E0E4918E2F90E0E2E2F7E072
:1046800028C0E4EFF6E0E4918E2F90E0E4EFF6E04E
:1046900020C08330910508F0BAC0880F991FFC0133
:1046A000E25BFE4F0190F081E02D89E090E014C0C4
:1046B0008330910508F0ABC0FC01EE0FFF1FE85BF3
:1046C000FE4F0190F081E02DDC01AB5BBE4F8C9181
:1046D00090E0009709F49BC02091E800277F209389
:1046E000E8002091FB043091FC042817390708F4F6
:1046F000C90140E0009789F12091FD04222309F4CB
:104700003DC02530D9F12091E80023FD37C020912C
:10471000E80022FD2FC02091E80020FFEBCF409160
:10472000F3002091F20030E0342B009759F028304C
:10473000310540F444914093F100319601972F5F89
:104740003F4FF3CF41E02830310509F040E02091A0
:10475000E8002E772093E800CDCF4111CDCF0AC0DD
:104760008091FD04882351F0853041F08091E8006C
:1047700083FD04C08091E80082FFF2CF8091E800C1
:104780008B778093E80043C0803809F040C0809167
:10479000E800877F8093E8008091F4048093F10023
:1047A0008091E8008E77C7CE811131C08091F704E7
:1047B0009091F8049927029754F58091E800877F3B
:1047C0008093E8001091F7041093F4040E943520C0
:1047D000111106C08091E30087FD02C081E001C095
:1047E00084E08093FD0442E061EC81E00E9454206B
:1047F00042E261EC84E00E94542042E261EC82E0FB
:104800000E94542042E260EC83E00E945420809198
:10481000E80083FF10C08091E800877F8093E80064
:104820008091EB0080628093EB0005C082E190E014
:10483000E4ECF6E051CFAA960FB6F894DEBF0FBEB7
:10484000CDBFDF91CF911F9108951F920F920FB6A8
:104850000F9211242F933F934F935F936F937F9306
:104860008F939F93AF93BF93CF93DF93EF93FF9378
:10487000C091E900CF708091EC00D82FD17080FDFD
:10488000D0E81092E9008091F000877F8093F000DB
:1048900078940E9447211092E9008091F00088608E
:1048A0008093F000CD2BCF70C093E900FF91EF9182
:1048B000DF91CF91BF91AF919F918F917F916F9138
:1048C0005F914F913F912F910F900FBE0F901F90CE
:1048D0001895E8EDF0E080818E7F80831092E200F1
:1048E0001092DA001092E100A0EEB0E08C918160AD
:1048F0008C9380818F77808319BCA7EDB0E08C9179
:104900008E7F8C9380818F7E80831092E704089540
:10491000CF92DF92EF92FF920F931F93CF93DF938B
:10492000C8EDD0E088818F7E8883E7EDF0E080815C
:104930008160808384E082BF81E08093E704888186
:104940008E7F888302EE10E0F80110821092DA0068
:1049500081EEC82ED12CF601108288818F77888352
:1049600088818068888388818F7D888319BC1092B4
:10497000FD041092F4041092F3041092F20490EEED
:10498000E92EF12CF70180818B7F80838881816003
:10499000888342E060E080E00E945420F60180813C
:1049A0008E7F8083F8018081816080838081886030
:1049B0008083F70180818E7F8083888180618883F6
:1049C000DF91CF911F910F91FF90EF90DF90CF90EB
:1049D00008951F920F920FB60F9211242F933F93B9
:1049E0004F935F936F937F938F939F93AF93BF93F7
:1049F000EF93FF938091E10082FF09C08091E20074
:104A000082FF05C08091E1008B7F8093E10080915F
:104A1000DA0080FF2AC08091D80080FF26C08091F4
:104A2000DA008E7F8093DA008091D90080FF18C071
:104A300080E189BD82E189BD09B400FEFDCF81E03E
:104A40008093FD048091E70481110FC00E946924C6
:104A50000E9488248091E20084608093E20005C077
:104A600019BC1092FD041092E7048091E10080FFD0
:104A700017C08091E20080FF13C08091E2008E7F1A
:104A80008093E2008091E20080618093E200809157
:104A9000D80080628093D80019BC85E08093FD0423
:104AA0008091E10084FF2EC08091E20084FF2AC043
:104AB00080E189BD82E189BD09B400FEFDCF80910E
:104AC000D8008F7D8093D8008091E1008F7E809305
:104AD000E1008091E2008F7E8093E2008091E2000D
:104AE00081608093E2008091F404882311F084E0D7
:104AF00007C08091E30087FD02C081E001C083E030
:104B00008093FD048091E10083FF27C08091E20043
:104B100083FF23C08091E100877F8093E10082E0E2
:104B20008093FD041092F4048091E1008E7F8093C5
:104B3000E1008091E2008E7F8093E2008091E200AC
:104B400080618093E20042E060E080E00E945420B7
:104B50008091F00088608093F000FF91EF91BF9109
:104B6000AF919F918F917F916F915F914F913F9105
:104B70002F910F900FBE0F901F9018952091E40079
:104B80003091E50095E64091EC00842F817040FF64
:104B900023C08091E80080FD1DC08091FD04882322
:104BA00099F0853099F08091EB0085FD11C040911E
:104BB000E4005091E5002417350729F3915011F0D6
:104BC0009A01E1CF84E0089582E0089583E008959A
:104BD00081E0089580E008954091E80042FFDDCF34
:104BE0000895EF92FF920F931F93CF93DF937C0171
:104BF0008B010E94BE25811119C0E7010115110525
:104C0000A1F08091E80085FD0AC08091E8008E77D0
:104C10008093E8000E94BE25882381F307C0899114
:104C20008093F10001501109E9CF80E0DF91CF912D
:104C30001F910F91FF90EF900895CF932091FD0465
:104C40002430F9F4C091E900CF703091EC00232FAB
:104C5000217030FD20E8C22B22E02093E900209152
:104C6000E80020FF0BC040E050E060E270E00E94EE
:104C7000F1258091E8008E778093E800CF70C09393
:104C8000E900CF91089580E090E00E94FC1A80E056
:104C900090E00E94E61A10927205109271050C9431
:104CA000732ECF92DF92FF920F931F93CF93DF93D8
:104CB0006C01009108058091D703082BC7E0D0E074
:104CC00010E0C8010C2E02C0959587950A94E2F772
:104CD00080FD04C02197A8F7F12C09C0FC2EB60175
:104CE0008C2F0E94661E0E943E2C019799F38F2DF7
:104CF000DF91CF911F910F91FF90DF90CF9008959A
:104D0000CF93DF93EC010E945126BE010E94661EE4
:104D10000E943E2CDF91CF910895FC0186819781FE
:104D2000009719F00E943E2C04C0808191810E945E
:104D30008026292F2F70E92FE295EF704E2F50E03B
:104D4000FA013297EE30F105B8F4ED56FF4F0C94AE
:104D50000536803F99F018F4883E70F40FC0843F08
:104D600059F40CC0883E50F0813F31F407C0822FC7
:104D7000869586958695089580E0089581E008954A
:104D80009F92AF92BF92CF92DF92EF92FF920F93DA
:104D90001F93CF93DF93CDB7DEB765970FB6F89427
:104DA000DEBF0FBECDBF8C0185E0F801DE0151965C
:104DB00001900D928A95E1F7F801E2809091230528
:104DC0006091240540912605509127054115510514
:104DD00031F06F3F31F481E09F3F19F403C081E06F
:104DE00001C080E0F82FF1709F2E80FD4EC1F801C8
:104DF00030812181C380D48073E2A72E75E0B72E65
:104E0000F0902505F601E41BF50BFF2009F4EFC037
:104E100080912805E83CF10508F0AAC0482F407FA2
:104E200009F05AC062131BC0931319C06091290581
:104E300070912A05F801468157816417750779F446
:104E4000FE2CE1100CC08F70806180932805C50195
:104E50000E94EA1180912805F801858353C1CD286D
:104E600031F02F3F31F481E03F3F19F403C081E07E
:104E700001C080E080FD03C081E08E2502C080E09B
:104E800090E0F82FF170FF2E80FF1CC080916C0520
:104E900040912B05841709F413C190E0FC0153E005
:104EA000EE0FFF1F5A95E1F7E45DFA4F518125138C
:104EB00006C05081531303C05281E51203C001960E
:104EC0008770E8CFFE2CEE2009F41CC180912805E4
:104ED00081608093280558C062130FC093130DC0E2
:104EE0004091290550912A05F80126813781421702
:104EF000530719F4EE2009F4A7C0C8010E948D26BB
:104F0000882381F1EE2071F120912805822F82956E
:104F10008F7090E00297A4F0809123059091240572
:104F20009A8789871B86DD86CC862E878091290506
:104F300090912A05988B8F87CE0109960E94EA11DD
:104F400088E0F801A3E2B5E001900D928A95E1F7BF
:104F50000E94142F0AC06217C9F0C8010E948D2652
:104F6000811127C0C8010E94EA11FF24F394CAC02E
:104F7000482F407F81F783E295E00E94EA1188E0A4
:104F8000F50111928A95E9F7F12CBCC09313E5CF96
:104F90004091290550912A05F80126813781421751
:104FA0005307D9F6E110D9CF8583C8010E94EA11D1
:104FB00066C0EE20B9F220912805822F82958F706D
:104FC00090E002970CF4BCCF8091230590912405CA
:104FD0009A8389831B82DD82CC822E83809129056E
:104FE00090912A0598878F83CE010196A7CFE83C40
:104FF000F10508F044C0FE2CEE2009F4B3CF621393
:1050000030C093132EC02091290530912A05F80154
:10501000868197812817390721F59091280590FD01
:1050200017C0892F82958F70282F30E02115310508
:1050300079F095832F30310541F08F5F982F92954D
:10504000907F85818F70892B8583C8010E94EA112A
:1050500088E0F801A3E2B5E001900D928A95E1F7AE
:1050600051C0C8010E948D2681116ACF8091280508
:10507000816080932805C8010E94EA1143C088E03E
:10508000F50111928A95E9F73DC0EE2009F46ACF47
:10509000C8010E948D26F82E882309F463CF88E08A
:1050A000F801A3E2B5E001900D928A95E1F78091B5
:1050B0002305909124050E9480260E94142F22C06F
:1050C000398B2A8B89899A890E948026292F2295DB
:1050D0002F70223028F49F7039F0811105C00BC069
:1050E000243028F49F7049F4805E883020F0C80195
:1050F0000E94EA119F2CF92C05C0F8019581907F40
:1051000099F7F9CF8F2D65960FB6F894DEBF0FBED5
:10511000CDBFDF91CF911F910F91FF90EF90DF9066
:10512000CF90BF90AF909F9008959E3F61F12BE08C
:10513000929F800D1124682F669566956695982F2D
:10514000977083E0689FB001112440E050E080E058
:10515000FB01E40FF51FE75FFA4F208130E0092ED5
:1051600002C0369527950A94E2F721703327042E62
:1051700001C0220F0A94EAF7822B4F5F5F4F433042
:10518000510531F7089580E008959E3F51F12BE0DD
:10519000929F800D1124E82FE695E695E69587709D
:1051A00051E001C0550F8A95EAF783E0E89FF001CE
:1051B0001124E75FFA4F20E030E070E04081CB013E
:1051C000022E02C0969587950A94E2F78170819528
:1051D00084278523842781932F5F3F4F2330310518
:1051E00069F70895809308050C94432621E030E088
:1051F00001C0220F8A95EAF7209580910805822345
:105200000C94F22821E030E001C0220F8A95EAF7E1
:1052100080910805822B0C94F2288093D7030C947C
:1052200043261092730586E0EDE1F5E0DF011D9263
:105230008A95E9F70C944326CF93DF93CDB7DEB779
:1052400060970FB6F894DEBF0FBECDBF29873A87AF
:105250004B875C876D877E878F87988BCE010996F9
:105260000E94C026811151C088E0FE013996DE01FE
:10527000119601900D928A95E1F779856A854C85A2
:105280005D854115510531F06F3F31F481E07F3F7D
:1052900019F403C081E001C080E080FD36C0A09118
:1052A0002B05B0E0CD0101968770992720916C0500
:1052B00030E08217930781F179836A835D834C83A1
:1052C00093E0AA0FBB1F9A95E1F7A45DBA4F98E04F
:1052D000FE01319601900D929A95E1F780932B058E
:1052E0000E940A2F12C028E0829FC0011124845D11
:1052F0009A4F0E94C0268823E1F080916C0590E0CF
:1053000001968770992780936C0580916C05909128
:105310002B058913E8CF0DC00E94112910922B058F
:1053200010926C05E3E2F5E088E0DF011D928A95BA
:10533000E9F760960FB6F894DEBF0FBECDBFDF91E0
:10534000CF910895882341F080959091720589232B
:10535000809372050C94732E0895882339F09091F0
:105360007205892B809372050C94732E08958823FF
:1053700021F00E946C2E0C94732E0895882339F02E
:1053800090917305892B809373050C94732E089567
:10539000882309F453C0682F823869F40E94121BD5
:1053A00081FF4CC069E38BE195E00E94CC1A0E941A
:1053B000732E69E30EC0833891F40E94121B80FFA4
:1053C0003DC063E58BE195E00E94CC1A0E94732EEC
:1053D00063E58BE195E00E94BF1A0C94732E84382C
:1053E00069F40E94121B82FF29C067E48BE195E0FB
:1053F0000E94CC1A0E94732E67E4EBCF8CEF860FCD
:10540000813A38F380E2860F883048F4677081E093
:1054100001C0880F6A95EAF70E946C2EDECF8BE5FB
:10542000860F833020F480E090E00C94FC1A685AD8
:10543000673120F480E090E00C94E61A0895CF9351
:10544000882309F496C0C82F8238B1F40E94121B39
:1054500081FD8FC069E38BE195E00E94CC1A0E9428
:10546000732E2FEF81EE94E0215080409040E1F7C1
:1054700000C0000069E317C08338E1F40E94121BEA
:1054800080FD77C063E58BE195E00E94CC1A0E9415
:10549000732E2FEF81EE94E0215080409040E1F791
:1054A00000C0000063E58BE195E00E94BF1ACF9138
:1054B0000C94732E8438B1F40E94121B82FD59C0E3
:1054C00067E48BE195E00E94CC1A0E94732E2FEFC7
:1054D00081EE94E0215080409040E1F700C0000050
:1054E00067E4E1CF8CEF8C0F813A80F4EDE1F5E0D9
:1054F00083E295E02191C217A1F18E179F07D1F7A2
:105500006C2F8BE195E00E94CC1AD1CF80E28C0FFA
:10551000883068F4C77081E090E001C0880FCA95B8
:10552000EAF790917305892B80937305C0CFEBE563
:10553000EC0FE33040F4F0E0E850FE4F808190E063
:10554000CF910C94FC1AC85AC73198F4EC2FF0E0B4
:10555000EE0FFF1FE550FE4F80819181CF910C949B
:10556000E61A6C2F8BE195E00E94BF1A0E94732E01
:10557000C7CFCF9108951F93CF93DF93182F89330F
:1055800019F0C9E1D0E002C0C0E5D0E0812F0E944F
:105590001F2A8FE99FE00197F1F700C000002197D3
:1055A000C1F7812FDF91CF911F910C94C82980E022
:1055B00008959091340292FF0DC0282F2871283051
:1055C00019F4877F846006C0282F2471243011F4D9
:1055D0008B7F886093FF0DC0282F2871283119F424
:1055E000877E846106C0282F2471243111F48B7EBC
:1055F00088612091350220FF0DC0382F3871383076
:1056000019F4877F816006C0382F3171313011F471
:105610008E7F886021FF0DC0282F2871283119F452
:10562000877E816106C0282F2171213111F48E7E81
:10563000886194FD877E0895F894E82FE295EF70D5
:10564000F0E031A1282F2F7081E090E001C0880F99
:105650002A95EAF7982F9095932391A392A1892BED
:1056600082A3789408958F929F92AF92BF92CF9227
:10567000DF92EF92FF920F931F93CF93DF93CDB7FB
:10568000DEB728970FB6F894DEBF0FBECDBFAE01D0
:105690004F5F5F4F7A0188E0DA011D928A95E9F742
:1056A00002E211E06A01AA24A394B12CF8018081DE
:1056B0008F3F09F44DC0F894E82FE295EF70F0E0C9
:1056C00021A18F70A50102C0440F551F8A95E2F7F2
:1056D000CA01922F982B91A392A18095892382A32E
:1056E000789400C0E6E2F1E020E030E0812C912CDB
:1056F00081918F3FC1F0A82FA295AF70B0E0909636
:105700004C9150E08F70DA0102C0B595A7958A954B
:10571000E2F7A0FD08C0C501022E02C0880F991F44
:105720000A94E2F702C080E090E0882A992A2F5F6D
:105730003F4F2B303105E1F6F80180818F3F11F0AA
:105740000E941C2BF0EAFA95F1F7D6018D929C92FB
:105750000F5F1F4FB2E0CB0ED11CE1E006321E07F7
:1057600009F0A4CF48E050E0B70186E392E00E9440
:10577000123611E0009709F410E0892B89F088E0D7
:10578000F701A6E3B2E001900D928A95E1F781E07E
:10579000809379050E94291A909378058093770564
:1057A00080917905882351F1809177059091780552
:1057B0000E940E1A059710F18091360290913702DF
:1057C0009093520380935103809138029091390253
:1057D000909354038093530380913A0290913B023B
:1057E000909356038093550380913C0290913D0223
:1057F000909358038093570310927905809112017A
:10580000882341F18091D7049091D804009711F139
:105810000E940E1A20913104309132042817390762
:10582000C8F49091D5048091D604981759F00E943D
:10583000CA1B10923204109231041092D8041092B4
:10584000D70408C00E944C1B1092D8041092D704B1
:105850000E94AB1B812F28960FB6F894DEBF0FBEB7
:10586000CDBFDF91CF911F910F91FF90EF90DF900F
:10587000CF90BF90AF909F908F900895CF93DF937C
:105880008238910569F1B0F48133910509F46FC054
:1058900048F48932910509F465C08A32910509F40A
:1058A0006BC08AC08533910509F457C089339105CF
:1058B000B9F082C0833E910571F138F4803E9105C4
:1058C000B1F0823E910511F177C0863E9105B9F1A4
:1058D000873E9105C9F1843E910509F06DC024C051
:1058E0002091340220FD53C021FD51C065C080913C
:1058F000340280FD46C08091350280FF48C080910F
:10590000340284FD3FC183EE90E03EC180913402B9
:1059100082FF3AC0F4CF8091340282FD35C080917D
:10592000350280FD34C0EBCF8091350281FF35C058
:105930008091340284FD26C187EE90E025C18091DC
:10594000340283FF27C0F4CF8091340283FD22C04C
:105950008091350281FD21C0EBCF8091340285FD1D
:105960001FC021C08091340285FD1DC019C08091E7
:10597000340286FD1BC01DC08091340286FD19C013
:1059800015C089E390E000C182EE90E0FDC080EE9A
:1059900090E0FAC086EE90E0F7C084EE90E0F4C0AC
:1059A00089E290E0F1C085E390E0EEC08AE290E009
:1059B000EBC081E390E0E8C0811532E5930708F081
:1059C00069C0811541E5940728F0982F8827816FD9
:1059D000906ADAC0883E910568F5803E910508F02E
:1059E000D3C0883A9105B8F4853A910548F0855AB4
:1059F000E82FF0E0E850FE4F808190E09064C4C052
:105A00008130910509F4BBC008F4BCC08430910515
:105A100008F4B8C0B9C08F3B910508F0B3C0885AEC
:105A2000E82FF0E0EE0FFF1FE550FE4F80819181DF
:105A30009464AAC0811520E59207F0F09C0174E0FF
:105A4000369527957A95E1F7922F9370482F4370FA
:105A500021E030E002C0220F331F4A95E2F73C6894
:105A6000392B8F70982F9695969540E2949FC001A0
:105A70001124822B932B88C0811530E4930718F0F2
:105A80009F70906A81C09C013A9521153F4108F4AE
:105A90007BC078C0EC01C11586E5D807E8F5C115D3
:105AA00025E5D20748F08C2F0E94D92A8F7190E00B
:105AB000982F8827906268C0C11534E5D30728F075
:105AC0009C2F8827846F906A5FC0AE014370552772
:105AD0002C2F26952695C115D34578F481E090E0CA
