:100000000C940B030C9452030C9452030C94520363
:100010000C9452030C9452030C9452030C9452030C
:100020000C9452030C9452030C94EC290C94A128C8
:100030000C94902B0C9452030C9452030C94520386
:100040000C9452030C9452030C9452030C945203DC
:100050000C9452030C94432B0C9452030C945203B3
:100060000C9452030C9452030C9452030C945203BC
:100070000C9452030C9452030C9452030C945203AC
:100080000C9452030C9452030C9452030C9452039C
:100090000C9452030C9452030C9452030C9452038C
:1000A0000C9452030C9452030C945203710974097A
:1000B0009D09AA09B109D109670A670A670A670A8F
:1000C000670AD409D609DB09FF09200A230A260A90
:1000D000480A1D07BE0AE80A240B690BB20BF50B90
:1000E000F80BFD0B000C050C080C0D0C100C130C80
:1000F000160C190C1C0C1F0C220C250C280C2B0C9C
:10010000300C730CB60CFD0C000D030DB20D490E36
:100110004C0E510E5C0E5F0E6A0E6D0E780E7B0E4D
:10012000860E890E940E93139313CE13CE132914B7
:100130004E154E154E154714BB14CC14CC14352651
:100140005C2603285C260328A826CB260328C02784
:10015000D0270C2D0C2D1F2D1F2D152D1F2D1F2DC4
:100160001F2D0C2D0C2D1A2D1F2D1F2D1A2D0000AB
:10017000000000000000000000000000000000007F
:10018000000000000000000000000000000000006F
:1001900000007E0F00D4FFFFFFC7000000780000C2
:1001A0000000000000002A2B2800000000000000D2
:1001B00000000000000000000029000000002C1ECC
:1001C0003420212224342627252E362D3738271E89
:1001D0001F202122232425263333362E37381F04AF
:1001E00005060708090A0B0C0D0E0F101112131447
:1001F00015161718191A1B1C1D2F3130232D350405
:1002000005060708090A0B0C0D0E0F101112131426
:1002100015161718191A1B1C1D2F3130354C1400D8
:100220001A000800150017001C0018000C0012002E
:100230001300000004611668076409620A000B00DD
:100240000D720E740F78337100001D001B00060044
:100250001900050011001000360037003800A80012
:10026000010001000151280034002A002C00025135
:10027000010001002A011E021F02200221022202A7
:100280002302240225022602270200002900010081
:1002900001000100010001002D022E022F02300298
:1002A00000003900350201000100010001000100D9
:1002B00001003102340201000100010001000100CF
:1002C00001004C00010001000100010001001E00BE
:1002D0001F0020002100220023002400250026000A
:1002E000270000005000510052004F002B00010079
:1002F0002D002E002F0030000000E0003500E3004C
:10030000E2000100010001000100310034000100A1
:1003100001000100010001000100010001000100D5
:10032000010001000100C25CC45CC35C010010500C
:100330003A003B003C003D003E000000CB5CC55C49
:10034000C75CC95C01003F0040004100420043001F
:100350000000CC5CC65CC85CCA5C0100440045007F
:1003600001000100005C010001000100010001002A
:100370000100010001000100010001000100050170
:100380000902A10185020901A10005091901290835
:100390001500250195087501810205010930093113
:1003A0001581257F95027508810609381581257FFD
:1003B000950175088106050C0A38021581257F957F
:1003C0000175088106C0C005010980A101850319D6
:1003D000012AB700150126B700950175108100C0EC
:1003E000050C0901A101850419012AA002150126A5
:1003F000A002950175108100C00660FF0961A1018E
:100400000962150026FF0095207508810209631511
:100410000026FF00952075089102C005010906A17C
:1004200001050719E029E7150025019508750181E7
:10043000029501750881010507190029FF1500269D
:10044000FF00950675088100050819012905950525
:1004500075019102950175039101C009025B0003CA
:100460000100A0FA090400000103010100092111A3
:100470000100012240000705810308000A09040168
:1004800000020300000009211101000122220007DF
:10049000058203200001070503032000010904026F
:1004A000000103000000092111010001227B000767
:1004B00005840320000A1201000200000008FEFE6D
:1004C00050580100010200012C0373006100640018
:1004D00065006B006200610072006F0075006400CF
:1004E000690020006200610072006F0062006F000E
:1004F0007200640000001A0373006100640065006C
:100500006B006200610072006F007500640069009A
:1005100000000403090400010101010101010101BE
:1005200002020202020202020203030303030303A4
:100530000304040404040404050505050506060671
:100540000606070707070708080808090909090A2E
:100550000A0A0B0B0B0C0C0C0D0D0D0E0E0E0F0FD3
:100560000F10101111111212131314141515161661
:100570001717181819191A1A1B1B1C1D1D1E1E1FD0
:100580002020212222232424252626272829292A1F
:100590002B2C2D2D2E2F3031323233343536373847
:1005A000393A3B3C3D3E3F40414243444546474843
:1005B000494A4C4D4E4F50515354555658595A5B19
:1005C0005D5E5F616264656668696B6C6D6F7072B9
:1005D000737577787A7B7D7E8082838587888A8C25
:1005E0008E8F91939596989A9C9EA0A2A3A5A7A959
:1005F000ABADAFB1B3B5B7BABCBEC0C2C4C6C9CB50
:10060000CDCFD1D4D6D8DBDDDFE2E4E7E9EBEEF005
:10061000F3F5F8FAFDFF11241FBECFEFDAE0DEBFDD
:10062000CDBF04B603FE27C08091FB039091FC036D
:10063000A091FD03B091FE038730904BA740B04BD3
:10064000D1F41092FB031092FC031092FD03109260
:10065000FE0314BE84B7877F84BF0FB6F894A895B5
:1006600080916000886180936000109260000FBEEE
:10067000E0E0F8E3099512E0A0E0B1E0E4E5F3E69C
:1006800002C005900D92A832B107D9F723E0A8E285
:10069000B2E001C01D92AB3FB207E1F70E945403E4
:1006A0000C94A8310C940000CF93DF93CDB7DEB744
:1006B000C054D1090FB6F894DEBF0FBECDBF84B7CA
:1006C000877F84BF0FB6F894A895809160008861F9
:1006D00080936000109260000FBE90E080E80FB63B
:1006E000F89480936100909361000FBE85B7806895
:1006F00085BF85B7806885BF87E29CE1909329021A
:10070000809328020E94E5280E948B298091E200B4
:1007100084608093E200789480919B038823A1F009
:100720001091E9001F709091EC00892F817090FD6D
:1007300080E8182B1092E9008091E80083FD0E9468
:100740004F251F701093E90082E084BD93E095BDB2
:100750009AEF97BD80936E000E94511A811102C0DA
:100760000E94421A08E111E0BCE1EB2EB1E0FB2E41
:10077000D8018D918D018F3F11F00E946C1CE01605
:10078000F106B1F70CE111E0A7E2EA2EA1E0FA2EA2
:10079000F80181918F018F3F11F00E946C1CE016CF
:1007A000F106B1F710922D0210922C021092C302A2
:1007B0001092C20210922F0210922E021092C502C5
:1007C0001092C40210923102109230021092C702AD
:1007D0001092C60210923302109232021092C90295
:1007E0001092C8020E94411E811102C00E944C1E3C
:1007F00082E090E00E94CC308093B9020E94301ECB
:1008000090932B0280932A020E942C218FE39CE973
:100810000197F1F700C000000E942C218091C202D4
:1008200080FF08C06FEF7FEF80E090E00E9408310A
:100830000E941F2B83E090E00E94CC300E94F32C9A
:100840008091D9030E94D1151092A903E2ECF3E044
:1008500082ED93E02FEF3FEF219331938E179F07A7
:10086000D9F710923502EEE4F2E08FEF9FEF81931B
:100870009193A2E0EE35FA07D1F70E94411E811153
:1008800004C00E944C1E0E94F31A46E050E06CE146
:1008900070E083ED93E00E94BC308091D3038C7FA5
:1008A00011F40E94F31A08E912E047E351E029E34A
:1008B00031E0F6E98F2EF2E09F2E61E070E008153E
:1008C000190509F44BC0F90181919F01E82EE294CA
:1008D000EFE0EE22F12CF701A1A18F70C82ECB0121
:1008E0000C2C01C0880F0A94EAF7982F90959A2350
:1008F00091A392A1892B82A3DA018D91AD01E82FFA
:10090000E295EF70F0E0B1A08F70D82ECB010D2CE6
:1009100001C0880F0A94EAF7982F90959B2191A324
:1009200092A1892B82A3D70190968C9190E002C06E
:1009300095958795CA94E2F78170E0A1F0E002C036
:10094000F595E795DA94E2F7E0FF02C092E001C086
:1009500090E0892BF40181934F01B1CF0E94D22EF8
:1009600040E060E080E00E941222109234024FEFDB
:1009700060E080E00E94122284E091E09093DD0329
:100980008093DC038E010F5F1F4F780180919B03E2
:10099000853009F048C040E4D42E00E112E1809196
:1009A0009B03853009F03BC080919B03843019F193
:1009B0001092E00328E130E00FB6F894A895209358
:1009C00060000FBED092600083B7817F846083BFD8
:1009D00083B7816083BF7894889583B78E7F83BF08
:1009E0000FB6F894A89580916000886180936000AC
:1009F000109260000FBE80919A03882309F4CFCF34
:100A00000E942C21E2ECF2E081919191892B09F076
:100A100086C56AEC72E06E177F07B1F7C0CF0E94FF
:100A2000232D0E940C2C0E942C2181110E94782BD6
:100A3000E2ECF2E0AAEBB2E0A12CB12C0A2D8190FD
:100A400091908D919D9188259925009709F447C132
:100A500010E0CC24C394D12C9C012C213D21232BCC
:100A600009F437C11BAB0CAB8C209D2081E08114B5
:100A7000910409F480E08DAB0E94842B8160782F73
:100A80009FAB8EAB4BA95CA96DA98FA90E94AE0E3E
:100A9000F501EE0FFF1FE654FD4F80819181C826BE
:100AA000D926D182C082892839F0A701612F802FF1
:100AB0000E94E11A782E01C0712CC72CD12C809194
:100AC0003502D601A80FB11D19976CF188E090E0AE
:100AD0004C018C189D08B6016A5C7D4FA40186E329
:100AE00092E00E949F31B601625C7D4FA4018EE3CB
:100AF00092E00E949F31A401440F551FB601660F7A
:100B0000771F625B7D4F8EE492E00E949F31B601B9
:100B10006A5B7D4FA40186E492E00E949F3188E0E9
:100B2000871980933502D0903502B70140E0842FB9
:100B30008D0D741611F190E0FB015191BF01252F2D
:100B400030E0FC01EB5CFD4FD901AA0FBB1FA155A2
:100B5000BE4FAC91A183220F331FD901AD57BE4FB9
:100B60009D962C912187518B880F991FFC01EB5C7E
:100B7000FD4F128E118E4F5FDACF80933502809138
:100B8000D3038C7F803709F0C2C0AFEFA00FDD2404
:100B9000D394D00E3FEF310F21E0210F311780F4B5
:100BA0008BE08A9DF0018B9DF00D1124EA59FD4FD9
:100BB000E30FF11D408150E1450F08F44FEF4083F2
:100BC000412F50E07BE07A9DC0017B9D900D112468
:100BD0008A599D4FFC01E40FF51F7081B0E26B2F25
:100BE000760F08F47FEF70832B3051F0FC01E20F99
:100BF000F11D708180E1682F760F08F47FEF70831C
:100C000074E0D71609F431C0CD2CD12C311788F4FB
:100C10008BE08C9DF0018D9DF00D1124EA59FD4F64
:100C2000E30FF11D80819DE0BC01670F08F46FEFB9
:100C30006083EBE0EC9DC001ED9D900D11248A597D
:100C40009D4FFC01E40FF51F608170E1670F08F410
:100C50006FEF60832B3049F0FC01E20FF11D6081E2
:100C60007DE0670F08F46FEF6083A01708F04FC0B6
:100C7000B0E0311780F48BE08A9FF0018B9FF00D7C
:100C80001124EA59FD4FE30FF11D30816DE0360F5D
:100C900008F43FEF30838BE08A9FF0018B9FF00DCB
:100CA0001124CF018A599D4FFC01E40FF51F3081BB
:100CB00040E1340F08F43FEF30832B3041F1FC0169
:100CC000E20FF11D20813DE0230F08F42FEF208378
:100CD0001EC01F5FCC0CDD1C1B3009F0BDCE8FEF9A
:100CE000A81AB80A94E0A916B10409F0A7CE8FEFAC
:100CF00088AF89AF1AAE0E94842B8160782F9CAF99
:100D00008BAF48AD59AD6AAD8CAD0E94AE0E8091EF
:100D10005E0290915F02A0916002B09161022FB7D4
:100D2000F8948090E1039090E203A090E303B090E8
:100D3000E4032FBF881A990AAA0ABB0A0E94782BDB
:100D400060935E0270935F028093600290936102F1
:100D5000A0913502E5E3F2E0DA2EB0E044244A94B3
:100D6000542C612C712C481859086A087B08AB1761
:100D700099F0418D528D8A0120E030E040165106F5
:100D80006206730610F4DA9404C0480D591D528FA0
:100D9000418FBF5F3296EBCFD09235023091D303B3
:100DA000232F237021F0C32EC694C69401C0C12CFA
:100DB000209114012130E9F038F0223009F45BC0B1
:100DC000233009F461C08BC0109211016093A50318
:100DD0007093A6038093A7039093A80389E2E5E3A9
:100DE000F2E0A9EAB3E001900D928A95E1F781E083
:100DF0003FC090910F01C9120DC0832F837090E006
:100E000040910E0150E021E08417950709F420E09D
:100E1000822F01C081E08170809313018091D803FB
:100E200090911201981709F499C38093120140E040
:100E300060E080E00E94701A91C3809113018823C2
:100E400029F040E060E080E00E94701A80E090911C
:100E500011019F5F90931101811141C082E0809345
:100E600014018091130181113AC0C11038C083E090
:100E70008093140134C0C0920F01832F837080933C
:100E80000E010E943219F3CF8091D203882341F0E2
:100E900046E050E06CE170E083ED93E00E94DA30D0
:100EA0001092D2034091A5035091A6036091A7032D
:100EB0007091A8032FB7F8948091E1039091E20319
:100EC000A091E303B091E4032FBF841B950BA60B05
:100ED000B70B4097A105B10510F01092140194E9E9
:100EE000C92E92E0D92E02E912E026E9422E22E034
:100EF000522E37E3632E31E0732E49E3842E41E016
:100F0000942E5201212C312CD5018D915D01E82FB9
:100F1000EE0FEE0FD4012D914D01A22FA295AF70CF
:100F2000B0E090968C9190E02F7002C095958795D7
:100F30002A95E2F79C0121703327D3018D913D0161
:100F4000A82FA295AF70B0E090964C9150E08F70B2
:100F500002C0559547958A95E2F7CA018170992795
:100F600040FF02C082E090E0822B932B8E2BF20197
:100F700081932F018F70E82FF0E0E95DFE4F9081A3
:100F8000D6018C91890F8C9384303CF1F8018081DB
:100F90008F5F8083311004C08AEA0E94262E1BC016
:100FA00063E27CE280E591E00E94A31580E50E9467
:100FB0008A2DFFE728E331E0F15020403040E1F78F
:100FC00000C0000080E50E942E2D68E17CE280E5F3
:100FD00091E00E94A31521E001C020E0D6018C9190
:100FE0008D3F34F5F801808181508083311004C039
:100FF00089EA0E94262E1BC063E27CE28FE491E026
:101000000E94A3158FE40E948A2DFFE728E331E0B8
:10101000F15020403040E1F700C000008FE40E9412
:101020002E2D68E17CE28FE491E00E94A31521E07F
:10103000D6018C91082E000C990B64E070E00E94A0
:101040007131F60181936F01222A33940F5F1F4F94
:10105000F2E03F1259CF21100E94782B8091B70205
:101060008A3008F0EBC08091B5029091B6020E94E0
:10107000692B089708F4E2C004E610E025E030E0B0
:1010800040EB52E064E084E10E940030892B09F0DB
:101090006BC01092B70286E0EEE9F2E0DE019796AF
:1010A00001900D928A95E1F786E0FE01B796DE0188
:1010B0009D9601900D928A95E1F786E0FE01BD961E
:1010C000AAEAB2E001900D928A95E1F79091B402FC
:1010D0008091AB0297FD3EC08E7F8093AB028091E2
:1010E000A8029091A902009799F545E06091B0029D
:1010F0008091B1020E941D162091A6023091A70294
:10110000281B390B3093A7022093A60245E060917B
:10111000B2028091B3020E941D162091A402309168
:10112000A502820F931F9093A5028093A40264EA04
:1011300072E08CEA92E00E94FE1566EA72E08DEAA7
:1011400092E00E94FE151092AF021092AE0211C002
:10115000019705C081608093AB0284E190E0909399
:10116000A9028093A80205C08091B7028F5F809387
:10117000B70286E0EAEAF2E0DE01919601900D9274
:101180008A95E1F786E0FE01B196AEE9B2E0019002
:101190000D928A95E1F73091A0022091A1029091E1
:1011A000A2028091A30270919A0260919B024091E9
:1011B0009C0250919D02F0919F02E0919902FE13D2
:1011C00012C0332311F037130EC0222311F026135F
:1011D0000AC0882311F0581306C0992331F081E02A
:1011E000941304C002C081E001C080E080FF0FC002
:1011F000E091DC03F091DD03309749F082E08093C9
:101200009E020480F581E02D8EE992E0099510920E
:10121000A0021092A1021092A2021092A30286E0F4
:10122000EEE9F2E0A8E9B2E001900D928A95E1F7CB
:101230000E94842B9093B6028093B5020E940C2CDE
:101240009091B802891721F00E940C2C8093B8026B
:1012500080919B03843009F099CB83E08093E9006F
:101260008091E80082FF92CB8091E80085FF23C047
:101270000E94042981111DC080E2C82ED12C8E014C
:101280000F5F1F4F09C08091F100D8018D938D0130
:10129000B1E0CB1AD10869F08091E80085FDF3CF69
:1012A0008091E8008B778093E8000E9404298823CE
:1012B00099F391E001C090E08091E8008B778093F2
:1012C000E800992309F462CBE9818E2F90E0FC01BC
:1012D0003197E331F10508F0FAC0EA5AFF4F0C9458
:1012E00085311A8289E065C08A81823009F42DC176
:1012F000833051F0813009F0EAC00E94782B9B8343
:101300008C837D836E83E5C08091C2029091C3027D
:101310009B838C838091C4029091C5029D838E83B0
:101320008091C6029091C7029F8388878091C802EE
:101330009091C90299878A87CCC08A81823009F04E
:10134000C6C06B817C818D819E810E948B3186E23B
:1013500090E024C04C816B818A810E94F1199D83A9
:10136000FBC00D811E811027012710278C81CB80A7
:101370009A81E6E1CE9E60011124F8E59F9FC00CA2
:10138000D11C1124C80ED11CC80ED11C612FC6015E
:1013900087960E94EA30602FC60188960E94EA3044
:1013A00098C00E94BD1995C080E14EC082E08A833A
:1013B00081E28B838EC00A811B81102701271027B1
:1013C000AC80B12C6701C80181529E4F96012E1945
:1013D0003F092A153B0508F07CC0013222E01207C4
:1013E00030F40E94CC30D60114968C9302C0F601E2
:1013F00014820F5F1F4FFFEFCF1ADF0AE4CF0A817D
:101400001B81102701271027AC80B12C6701C80170
:1014100081529E4F96012E193F092A153B0508F06F
:1014200058C0013222E0120728F4D60114966C91BC
:101430000E94EA300F5F1F4FBFEFCB1ADB0AE7CFE6
:101440000E94AD1946C085E08A8343C00A811B8192
:10145000102701271027AC80B12C6701C80187969F
:1014600096012E193F092A153B0598F5083BE1E046
:101470001E0730F40E94CC30D60114968C9302C023
:10148000F60114820F5F1F4FFFEFCF1ADF0AE6CF7E
:101490000A811B81102701271027AC80B12C67011E
:1014A000C801879696012E193F092A153B0588F435
:1014B000083B21E0120728F4D60114966C910E9493
:1014C000EA300F5F1F4FBFEFCB1ADB0AE9CF8FEF78
:1014D000898380919B03843009F058CA1091E900F8
:1014E0001F709091EC00892F817090FD80E8182B7F
:1014F00082E08093E9008091E80080FF0CC040E02A
:1015000050E060E270E0C7010E9412258091E8007F
:101510008E778093E8001F701093E90037CA09BDE9
:1015200019BD09B400FEFDCF8091D8008F7D809356
:10153000D8008091E00082608093E0008091E0001C
:1015400081FDFCCF0E94232D2ACA86E290E00E94F2
:10155000CC301B821C821D828E83BBCF8C2D90E0F1
:101560008A32910530F0809111018F5F80931101D3
:1015700075CCFC01E759FF4F0C9485311091110196
:10158000110F110F110F08E0010F093208F008E2E6
:101590006091D4037091D5038091D6030E94422EAE
:1015A000D62EB72EA82E101708F022C2E12FF0E099
:1015B000DF01A150BE4F8C9190911201982331F020
:1015C0002A2D4D2D6B2DCF010E94721A1F5FEBCF7C
:1015D00010911101110F110F110F08E0010F0932C5
:1015E00008F008E2B090D503D090D603A090D403C1
:1015F000B5018D2D0E94422E962E872E782E609159
:10160000D7036A0D7B2D8D2D0E94422ED62EB72E2C
:10161000A82E101708F0ECC1E12FF0E0DF01A15077
:10162000BE4F8C9190911201982361F080FF04C00D
:101630002A2D4D2D6B2D03C0272D492D682DCF014F
:101640000E94721A1F5FE5CFD0901101DD0CDD0CF6
:10165000DD0CF8E0BF2EBD0C18E21B1510F4E8E21B
:10166000BE2E9090D5038090D6032091D70370E4CE
:10167000A72E3A2D329F312D1124A32EDB1418F5FD
:101680000D2D10E0F801E150FE4F90818091120184
:101690008923B9F0F801EE0FFF1FED57FE4F85A526
:1016A00082958F706091D4038A9D600D1124792DED
:1016B000882D0E94422E462F282F672FC8010E9496
:1016C000721AD394DBCF81E047E24B1508F0BFCB11
:1016D000BDCBD0901101DD0CDD0CDD0C58E0B52E3A
:1016E000BD0C68E26B1510F448E2B42E9090D5035F
:1016F0008090D6032091D70330E4A32E7A2D729FD9
:10170000712D1124A72EDB1438F50D2D10E0F801F2
:10171000E150FE4F9081809112018923D9F0F801A8
:10172000EE0FFF1FE155FE4F6081A69EB001112410
:1017300025E0759567952A95E1F78091D403680FA8
:10174000792D882D0E94422E462F282F672FC80101
:101750000E94721AD394D7CF81E097E29B1508F0CC
:1017600076CB74CB10911101110F110F110F08E0FE
:10177000010F093208F008E2B090D403D090D503ED
:10178000A090D6036091D703669566956695809183
:10179000A5039091A6030E94AA1B0E940B1B8058D0
:1017A00087FD8195880F282F3A2D239F212D112405
:1017B000822F6B2D7D2D0E94422ED62EB72EA82E65
:1017C000101708F015C1E12FF0E0DF01A150BE4F66
:1017D0008C9190911201982331F02A2D4D2D6B2D73
:1017E000CF010E94721A1F5FEBCF8BE398E102C01A
:1017F0008FE098E10E948F232ACB84E199E102C017
:1018000085EF98E10E94B72422CB8AED98E102C0CF
:101810008EEB98E10E943C241ACB8DE098E1EACF50
:1018200084E098E1E7CF8BEF97E1E4CF80EE97E19A
:10183000E1CF81ED97E1EECF81E89BE1E3CF8DEA47
:1018400098E1E0CF89E998E1E5CF83EA97E105C027
:1018500081E797E102C083E397E10E94DC23F7CAA6
:101860008091130181111EC06091D70320E1620FA6
:1018700008F46FEF8091A5039091A6030E94AA1B24
:101880006AE070E00E944C30892B09F0DFCA0E94A8
:10189000AC3068E270E00E947131609112010E94E8
:1018A0009B1AD4CA00911101000F000F000F88E0AD
:1018B000D82ED00E48E24D1510F418E2D12E10E0CB
:1018C000AD2CB12C0A151B0544F460911201C8011E
:1018D0000E949B1A0F5F1F4FF5CF81E067E26D15E5
:1018E00008F0B5CAB3CA8091130181111EC060917E
:1018F000D70320E1620F08F46FEF8091A503909168
:10190000A6030E94AA1B65E070E00E944C30892B60
:1019100009F09CCA0E94AC3068E270E00E9471310C
:10192000609112010E94741A91CA00911101000F76
:10193000000F000FB8E0DB2ED00E78E27D1510F41A
:10194000A8E2DA2E10E0AD2CB12C0A151B0544F4E8
:1019500060911201C8010E94741A0F5F1F4FF5CFEA
:1019600081E097E29D1508F072CA70CA10911101CA
:10197000110F110F110F08E0010F093208F008E2F2
:10198000B090D503D090D603A090D4036091D70334
:101990006695669566958091A5039091A6030E9431
:1019A000AA1B0E940B1B805887FD8195880F682F0A
:1019B0002CE0629F612D11246A0D7B2D8D2D0E94DC
:1019C000422ED62EB72EA82E101790F4E12FF0E05D
:1019D000DF01A150BE4F8C9190911201982331F0FC
:1019E0002A2D4D2D6B2DCF010E94721A1F5FECCF57
:1019F00081E0083208F42BCA29CA8CE29BE1FACEB6
:101A000082E297E1F7CE00911101000F000F000F65
:101A100018E0100F1DAF1D3210F01CE21DAF8091B9
:101A20001301882361F040E060E080E00E94701ABA
:101A30008CE2E6E6F2E0DF011D928A95E9F78091FB
:101A40001101811115C080916302909164020E947E
:101A5000692B21E08931910508F420E0209362028E
:101A6000499730F00E94842B909364028093630224
:101A700010E0BDAD6B2E712CFAEA5F2E061517052E
:101A80000CF06AC04801E3E08E22992418013594D5
:101A90002794359427942BE0289DF001299DF00D83
:101AA0001124EA59FD4FE20DF31DD080A701622DEC
:101AB000882D0E94E11A482E57018A2D8E1984150F
:101AC00008F032C0D501EC91F0E0E150FE4F90817A
:101AD00080911201892321F13D2D25E5321B08F467
:101AE00030E07091D503252D4D2D240F08F42FEFF4
:101AF0004091D60362E0269F200D11242E5F249F83
:101B0000212D1124652D631B822F0E94422E462F0A
:101B1000D5019C91282F672F892F90E00E94721A7F
:101B2000BFEFAB1ABB0AC9CF80916202882389F04C
:101B30002D2D31E0231B08F420E04BE0489DC0012F
:101B4000499D900D11248A599D4FFC01E20DF31D12
:101B500020830F5F1F4F92CF81E00DAD0C3208F450
:101B600076C974C980911301882371F040E060E068
:101B700080E00E94701A8CE2E6E6F2E0DF011D923E
:101B80008A95E9F71092650256E6852E52E0952E69
:101B900000E0DD24DA9460EC562E7FE2672E712C93
:101BA000540110E011110CC080916502811108C030
:101BB0000E94AC30853595401CF4F401D08206C0FB
:101BC000D5018C9181508E3F08F48C93A701602F32
:101BD000812F0E94E11A882311F1F501408139819A
:101BE000413D70F050E0405D5109549EC001559E4A
:101BF000900D1124B3010E944C30262F4FEF0BC0E3
:101C0000FFEF4F9FC001112460ED70E00E944C3047
:101C1000462F20E060E0832F90E00E94721A1F5F41
:101C20002BE0A20EB11C143009F0BCCF0F5F3FEFC8
:101C3000831A930A0B3009F0B3CF809165028F5F4E
:101C40008D3118F48093650201C9109265022CE76A
:101C500032E083E04EEFA6E6B2E0F9019BE083308C
:101C600041F491965C9191975F3F19F491964C9352
:101C7000919750815F3F11F4408353879150319683
:101C800011969111ECCF81502B5031098111E3CF86
:101C9000DDC88BE197E102C085E197E10E941B233B
:101CA000D6C88091A90321E0482F421B08F440E0E8
:101CB000842F6CEF76E13BC06CEF76E137C080910A
:101CC000A90321E0682F621B08F460E0862F64EC12
:101CD00076E12DC064EC76E129C08091A90321E072
:101CE000782F721B08F470E0872F62E976E11FC03D
:101CF00062E976E11BC08091A90321E0082F021B55
:101D000008F400E0802F6AE776E111C06AE776E127
:101D10000DC08091A90321E0182F121B08F410E0D8
:101D2000812F64E676E103C064E676E180E00E94FC
:101D300054228DC8982F92959F7019F0892F24E016
:101D400001C020E0982F9695969511F02E5F892F6F
:101D5000982F969509F02F5F822F08951F93CF93A8
:101D6000DF93CDB7DEB767970FB6F894DEBF0FBE2F
:101D7000CDBF4B8B5C8B6D8B7E8B8F8B61111092EB
:101D8000880386E09E01235F3F4FD901E82F1D9213
:101D9000EA95E9F795E0FE017396D90101900D925D
:101DA0009A95E1F79C894E895F897B897D879E871B
:101DB0006F87598B488BF901DE01179601900D92C0
:101DC0008A95E1F7CE0107960E94A31F81113EC0BC
:101DD00086E0FE013796DE01119601900D928A95FC
:101DE000E1F7FF81E8856A857B856115710531F032
:101DF000EF3F31F481E0FF3F19F403C081E001C0FF
:101E000080E080FD23C02091540330E0C901019699
:101E1000877099274091850350E08417950779F1E1
:101E2000F983EA837D836C8396E0929FD001939F30
:101E3000B00D1124AB5ABC4FFE01319601900D92AA
:101E40009A95E1F7809354030E94201F16E0809139
:101E50008503909154038917F9F0189FC00111244C
:101E60008B5A9C4F0E94A31F8823B1F08091850359
:101E700090E001968770992780938503E8CF0E94B0
:101E8000232D1092540310928503EEE4F3E086E0D4
:101E9000DF011D928A95E9F767960FB6F894DEBFC9
:101EA0000FBECDBFDF91CF911F9108953F924F920A
:101EB0005F926F927F928F929F92AF92BF92CF92DA
:101EC000DF92EF92FF920F931F93CF93DF93CDB7E3
:101ED000DEB729970FB6F894DEBF0FBECDBFFC0169
:101EE0008081918123813481232B31F09F3F31F414
:101EF00091E08F3F19F403C091E001C090E090FDA4
:101F00000AC67F0185E0DE01119601900D928A9547
:101F1000E1F7F701228189819A81222349F00E9409
:101F2000502C182F682F89819A810E94AB2C03C0F6
:101F30000E947F2C182F69817A81812F0E94171AA5
:101F40008C01F7019281992309F4F2C09801225182
:101F50003F452031310508F019C18FEF93E00E9411
:101F6000CC308111EFC002513FED832E9924939420
:101F7000002379F08114F4E09F0609F4E3C0C40162
:101F80000E94CC30811101C001502FEF821A920AB9
:101F9000EFCF1E821F8218861986442443942AE0BC
:101FA000322E84010F5F1F4FC4010E94CC308E83FC
:101FB0001F82882309F4C6C09FEF980F933060F406
:101FC0008F834E8232E0830E911CC8010E94CC3078
:101FD0008887811102C0B6C048018E010A5F1F4F79
:101FE000F80120812223E9F2213009F04CC08181DF
:101FF000813049F46801F2E0CF0ED11CF8018281F2
:102000000E94262E0AC0823051F46801F2E0CF0E01
:10201000D11CF80182810E948A2D860186C08330FE
:1020200049F46801F2E0CF0ED11CF80182810E94D0
:102030002E2DF3CF843019F00F5F1F4F76C0F801BB
:1020400022810E5F1F4F80E090E030E02053310985
:102050002A30310568F4389EA001399E500D1124B4
:10206000C901840F951F0F5F1F4FF8012081EDCF2D
:10207000009709F45AC0EFE9FFE03197F1F700C08B
:1020800000000197F5CFE22FF0E0E256FE4F5490AA
:10209000822F86958695869590E0FC01E257FE4F4B
:1020A00064902770712C022E02C0759467940A9474
:1020B000E2F7F1E06F227724FC01E258FE4FA49092
:1020C000B12C022E02C0B594A7940A94E2F731E035
:1020D000A322BB24FC01E259FE4FC490D12C02C0C4
:1020E000D594C7942A95E2F781E0C822DD246114D3
:1020F000710419F081EE0E948A2DA114B10419F027
:1021000086EE0E948A2D852D0E94262EAB2819F07E
:1021100086EE0E942E2D672819F081EE0E942E2D4A
:10212000CD2819F08CE20E94262E0F5F1F4F58CF4A
:1021300000313FE5130709F0E5C481E00E94DC2C83
:102140000E94322280918603877009F4E4C4F7016B
:102150008281882309F4DFC482E029960FB6F894BF
:10216000DEBF0FBECDBFDF91CF911F910F91FF90CA
:10217000EF90DF90CF90BF90AF909F908F907F9027
:102180006F905F904F903F900C94031F0031FFE5DC
:102190001F0711F481E005C001312FE5120721F47A
:1021A00082E00E94E82CCCCF0933110571F4992309
:1021B00009F494C180913402882319F010923402FA
:1021C0004EC081E0809334024AC0033FECE51E0715
:1021D00059F190F4083D2CE51207E9F0093D3CE582
:1021E0001307A1F1073D8CE51807B1F506E221EED2
:1021F00041EE67ED7CE514C0053FECE51E0701F1FB
:10220000C8F0063F2CE5120739F507E225EE46EE49
:1022100066EF7CE505C007E225EE45EE68ED7CE55E
:10222000C7010E94B41B8ECF06E221EE40EE63EFA1
:102230007CE5F6CF07E225EE44EE64EF7CE5F0CFD7
:1022400006E221EE42EE65EF7CE5EACF08E221E00E
:1022500045EE69ED7CE5E4CF992309F43FC1109286
:10226000450302303CE5130708F422C106318CE532
:10227000180738F098012A5F3C452930310508F0ED
:1022800017C10E94301E90932B0280932A020031C6
:102290009CE5190709F4C3C008F041C00830FCE50B
:1022A0001F0709F49AC0F0F404303CE5130709F461
:1022B00087C068F402309CE5190709F477C0033041
:1022C0001C4509F0E5C080912A02826076C0063084
:1022D000FCE51F0709F46EC008F07BC080912A025C
:1022E00088606BC00C303CE5130709F485C068F4C6
:1022F0000A309CE5190709F474C008F079C00E94FF
:10230000232D80912A02806858C00E30FCE51F07FB
:1023100009F476C008F07FC080912A028BC00B3F81
:102320003CE5130709F44FC018F503319CE5190784
:1023300009F47DC078F40131FCE51F0709F473C08E
:1023400002311C4509F0A4C00E94232D80912A026D
:102350008F7733C005313CE5130709F472C008F4E8
:1023600086C00A3F1C4509F093C080912B023EC0F5
:102370000F3FECE51E0709F45FC058F40D3F2CE554
:10238000120709F444C008F43FC080912B02826018
:102390002DC001308DE5180709F475C008F45DC043
:1023A00002301D4509F074C060E06EC080912A02C1
:1023B000816003C080912A02806180932A0268C0F4
:1023C00080912A0211C080912B02826080932B029F
:1023D0005FC080912A028062F0CF80912A028064DF
:1023E000ECCF80912A0288608460E7CF8160EECFD5
:1023F00080912A028E7FE1CF80912A028D7FDDCFEE
:1024000080912A02877FD9CF80912B0218C08091BA
:102410002B028D7FDBCF80912A028F7ECECF8091E1
:102420002A028F7DCACF80912A028F7BC6CF8091EE
:102430002A02877F8B7FC1CF80912B028D7F8E7F79
:10244000C5CF80912A0282FB222720F991E09227B2
:1024500090FB82F990FB83F9B0CF80912B02982FEB
:10246000909591708E7F892B90FB81F9AFCF0E9460
:10247000232D80912A0287FB222720F991E09227C1
:1024800090FB87F99ACF61E08EE090E00E94EA30FD
:1024900060912A0210912B0284E090E00E94EA30C1
:1024A000612F82E290E00E94EA300E94232D4ACE02
:1024B000809189030631FCE51F0709F58A7A91E0CE
:1024C00009F490E09093CA02882311F065E301C0FB
:1024D00069E286E493E00E94C62B0EC006311C45DB
:1024E00009F0D8C08091CA02882309F412C365E3B9
:1024F00086E493E00E94B92B0E94BC1E23CE827218
:102500000A3CFCE51F0709F47BC098F5053C3CE557
:10251000130709F461C0B8F4033CFCE51F0709F494
:1025200051C008F054C0023C3CE5130709F07FC0DD
:102530008091D30391E089278093D30310921401F3
:102540009093D203FFCD073CECE51E0709F44EC083
:1025500008F447C0083C2CE5120709F44CC0093CBC
:102560003CE5130709F063C048E559E164E679E109
:1025700055C00F3CECE51E0709F455C098F40C3C1F
:102580002CE5120709F446C008F43FC00D3C8CE569
:10259000180709F446C00E3CECE51E0709F047C0D9
:1025A00085E042C0063DFCE51F0730F4013D1C45B7
:1025B00008F0C8CD82E138C00D353DE5130709F4B8
:1025C000C1CD35C04AE959E163EA79E127C043EA60
:1025D00059E16AE979E122C048E859E161E979E124
:1025E0001DC041E959E168E879E118C040E759E1C7
:1025F0006CE779E113C04CE759E160E779E10EC07F
:1026000044E659E168E579E109C04CE456E168E542
:1026100076E104C048E556E16CE476E10E946A1A6E
:1026200091CD81E001C08DE00E943D228BCD9923A8
:1026300089F10A358DE5180741F150F40115ECE5F3
:102640001E07A9F00E3D1C4529F50E944C1E7ACDAF
:102650000B352DE51207D9F00C351D45D9F48091C5
:102660002B0282FB882780F991E0892711C00E9404
:10267000232D8FEF94E3ECE081509040E040E1F7B0
:1026800000C000000E941F2B5DCD81E001C080E0F2
:102690000E94E91EF701828100811181882349F09F
:1026A000C8010E94502CD82E682FC8010E94AB2C64
:1026B00004C0C8010E947F2CD82EB8018D2D0E9425
:1026C000171A0E94831CB82E192F982EF701028129
:1026D000A580A2949FE0A92280918603877099F03B
:1026E000002389F0812F807F803421F080E28B0DE0
:1026F000883048F082E00E94031F80918603877033
:10270000DD24D3948111D12CC12EC2948FE0C82234
:102710008C2D90E08C30910508F0C0C1FC01ED5685
:10272000FF4F0C948531812F807F1F70882311F01B
:102730001295107F0023B9F0112309F493C180E2B0
:102740008B0D883010F0911006C080918903182BF2
:102750001093890305C080918803182B1093880378
:102760000E94BC1E7FC18B2D0E942E2D112309F4C7
:1027700095C180E28B0D1095883010F0911006C045
:102780008091890318231093890305C080918803E1
:102790001823109388030E94BC1E80C1812F807F64
:1027A0001F70803211F01295107F8B2D992021F02F
:1027B000F1E09F1611F130C00023B1F0AA2081F0A2
:1027C00021E0A2120DC080912B0282FD67C1809191
:1027D0008A03182B181709F461C110938A035EC18C
:1027E00080918A03812B10C0AA2021F031E0A3162A
:1027F00009F454C10E94B61E28C0002341F085E0B0
:102800008A1508F44BC1812F0E94382C47C194E0EF
:102810009A1508F443C119C0002319F0AA2099F3AE
:1028200021C1AA2091F0893341F4EFEFF7EE23E0C4
:10283000E150F0402040E1F72CC13FE788E391E010
:10284000315080409040E1F724C1812F0E942D2C0F
:1028500025C1812F86958695837019F0813061F0AE
:102860001DC1002321F08B2D912F937002C080E0B9
:1028700090E00E94F62B18C1002321F08B2D912FA0
:10288000937002C080E090E00E94E02B0DC1812F88
:102890008370A9F5011106C14B2D429546954770ED
:1028A000440F440F8B2D8F7090E09C01042E01C0CB
:1028B000220F0A94EAF7B4FE08C08FE090E001C04E
:1028C000880F4A95EAF7809501C080E01695169525
:1028D0001370123069F088F490918B03113019F065
:1028E000822B892302C0922B892B0E94F32CDAC001
:1028F000822B90918B038927F8CF822BF6CF002370
:1029000019F0812F817001C08695882309F4CAC00F
:102910004B2D429546954770440F440F8B2D8F7079
:1029200090E09C01042E01C0220F0A94EAF7B4FE45
:1029300008C08FE090E001C0880F4A95EAF78095C3
:1029400001C080E0169516951370123059F078F496
:102950009091D903113019F0822B892309C0922B51
:10296000892B06C0822B9091D903892701C0822B25
:102970000E94D62C97C01F70002339F0812F0E942F
:10298000E82C8B2D0E94382C8DC08B2D0E942D2C75
:10299000812F0E94DC2C86C08B2DE2EF9E1659F110
:1029A000E91538F0F0EF9F1659F021EF9216F1F08B
:1029B00055C033EF931631F194EF991681F14EC063
:1029C000002379F0E4E0EA1508F468C01F7181E0A3
:1029D00090E001C0880F1A95EAF79091D9038927F2
:1029E0001BC0F5E0FA1508F459C0F0CF002329F018
:1029F000812F8F7126C00023D9F3812F8F710E9400
:102A0000DC2C4CC0002339F01F7181E001C0880F1D
:102A10001A95EAF701C080E00E94D62C3FC000233F
:102A200099F01F71812F0E94E82C80912B0282FD6A
:102A300007C028E0129FC0011124836080938603A1
:102A4000812F0E94E82C2AC081E00E94031F31E000
:102A50003A1520F582E00E94031F20C0002331F0C8
:102A6000AA2031F28B2D0E948A2D18C0AA2029F2AB
:102A7000893341F48FEF97EEE3E081509040E040DE
:102A8000E1F707C0FFE728E331E0F1502040304094
:102A9000E1F700C000008B2D0E942E2D88EF8C0DD9
:102AA000843010F40E940C2CDD20A9F18091860363
:102AB00080FD31C0F70112828595859585950E942C
:102AC000E82CC7010E94560F809186038595859555
:102AD000859529960FB6F894DEBF0FBECDBFDF9166
:102AE000CF911F910F91FF90EF90DF90CF90BF900B
:102AF000AF909F908F907F906F905F904F903F909E
:102B00000C94DC2C01318FE5180709F04DCB82E0E5
:102B100015CB69E2EDCC29960FB6F894DEBF0FBE57
:102B2000CDBFDF91CF911F910F91FF90EF90DF907C
:102B3000CF90BF90AF909F908F907F906F905F905D
:102B40004F903F9008959C013A9521153F4130F5F3
:102B5000DC01AA27B270AC01442754709C012227E3
:102B6000387094FF0FC090FF02C080E101C080E088
:102B7000AB2B09F08062452B09F08064232B79F0A0
:102B800080680DC0892F8170AB2B09F08260452BC6
:102B900009F08460232B19F0886001C080E0FB01FC
:102BA0000994CF93C82F0E949A0E813081F020F0B3
:102BB000823089F0833091F080913402882319F0BB
:102BC00040E060E00DC04FEF60E080E00AC04FEFF2
:102BD00060E08AE706C040E06FEF02C040E060E8D6
:102BE0008FEF0E9412228C2F8670863019F48C2F62
:102BF000886002C08C2F877FCF910895DC01FB0194
:102C000080819181803891053CF08FE78C938081A1
:102C100091818F5791090AC081382FEF92074CF4A8
:102C200081E88C938081918181589F4F918380832B
:102C300008958C93118210820895681720F4861BE2
:102C4000682F21E002C0681B20E0469FA0011124EC
:102C5000649FC001659F900D11249170222319F08B
:102C60009195819591090895EBECF2E093E0E334BE
:102C7000F90729F08183608342833396F7CF089563
:102C8000FC01EE0FFF1F8E0F9F1FFC01E553FD4F50
:102C90006183408322830895E3EDF3E0248130E1F2
:102CA000231B08F420E0248381E08093D20308955D
:102CB000E3EDF3E0248130E1230F08F42FEF2483C8
:102CC00081E08093D2030895EF92FF920F939701D2
:102CD000201B31092F3F310519F010F02FEF30E0A4
:102CE0002095382F320F08F43FEF832F0F91FF907C
:102CF000EF900895EF92FF920F939701201B3109F7
:102D00002F3F310519F010F02FEF30E0322F3095C2
:102D1000482F430F08F44FEF842F620F0F91FF905D
:102D2000EF900895EF92FF920F93972F093438F4A4
:102D3000B701601B71096F3F710519F010F06FEF5B
:102D400070E0485F5F4F4131510540F0A901485F95
:102D50005F4F4131510510F06FEF70E06095482FE3
:102D6000460F08F44FEF842F37FF02C02D5F3F4F0F
:102D700035952795359527956091D403620F792F66
:102D80000F91FF90EF900895EF92FF920F93E00E56
:102D9000F11CF90137FF03C0F195E195F10924E039
:102DA000EE0FFF1F2A95E1F7EF3FF10519F014F040
:102DB000EFEFF0E09A0157FF03C0319521953109FB
:102DC00094E0220F331F9A95E1F72E173F070CF47A
:102DD000F901EE0DFF1DEF3FF10519F010F0EFEFD7
:102DE000F0E02E2F2095382F320F08F43FEF832F7D
:102DF0000F91FF90EF900895EF92FF920F9397013C
:102E000095E0099F200D311D11242F3F310519F048
:102E100010F02FEF30E02095382F320F08F43FEFFD
:102E2000832F0F91FF90EF90089522E8241B08F460
:102E300020E0620F08954095282F429F412D1124D4
:102E4000842F0895E42FF0E0EE0FFF1FE155FE4FB1
:102E50009081921B97FD9195292F38E1239F212D79
:102E60001124620F08950F931F9310E0F801EE0FE5
:102E7000FF1FE155FE4F9081945697FD9195000FED
:102E8000111FF801ED57FE4FE5A5F0E0B097DF0107
:102E9000AA0FBB1F8D010E0F1F1F2003D001219F02
:102EA000B00D1124E8E3F0E0E91BF10997FDF3957B
:102EB0009F01220F331F89010E0F1F1F4003900136
:102EC000419F300D11242A0F3B1F37FF02C02158AC
:102ED0003F4F220F232F221F330B620F1F910F91A1
:102EE00008950F931F93522F10E0F801EE0FFF1F6C
:102EF000ED57FE4FE5A5F0E0B097EE0FFF1F9F01E5
:102F00005203D001539FB00D1124000F111FF8017F
:102F1000E155FE4F008110E004561109000F111F0A
:102F200040039001419F300D11242A0F3B1F37FFB2
:102F300002C021583F4F220F232F221F330B620F55
:102F40001F910F9108950F931F93522F10E0F801D6
:102F5000EE0FFF1FED57FE4FE5A5F0E0B0979F0184
:102F60005203D001539FB00D1124000F111FF8011F
:102F7000E155FE4F008110E0045611094003900115
:102F8000419F300D11242A0F3B1F37FF02C02158EB
:102F90003F4F220F232F221F330B620F1F910F91E0
:102FA0000895EF920F931F9393E0099F80011124DE
:102FB000159507956E2D600F1F910F91EF90089555
:102FC000A22F50E0FA01EE0FFF1FED57FE4F95A51F
:102FD000905297FD9195440F551FFA01E155FE4F10
:102FE0003081232F30E02A1B3109290F311D97FD35
:102FF0003A95620F0895E42FF0E0EE0FFF1FED57B2
:10300000FE4F65A5621B0895E42FF0E0EE0FFF1F51
:10301000E155FE4F6081621B0895622F0895E42FF1
:10302000F0E0EE0FFF1FE155FE4F408134EE439F6D
:10303000412D1124E82FF0E050E0445E5F4FDA01AB
:10304000A21BB1099D01B7FF03C03195219531093C
:1030500093E0220F331F9A95E1F7AF01421B530B08
:103060009A0157FF02C020E030E0582F259F212D04
:103070001124822F0895E42FF0E0EE0FFF1FE15599
:10308000FE4F408134EE439F412D1124E72FF0E0A5
:1030900050E0445E5F4FDA01A21BB1099D01B7FF0A
:1030A00003C031952195310993E0220F331F9A9582
:1030B000E1F7AF01421B530B9A0157FF02C020E01A
:1030C00030E0279F212D1124722F0895FC019B01D0
:1030D000009721F477FF2BC080E80895AC0197FF9B
:1030E00004C044275527481B590BB901640F751FAD
:1030F00037FD0CC0241B350BC901A5E0880F991FB3
:10310000AA95E1F70E94713180E20CC0CB0165E025
:10311000880F991F6A95E1F7BA01621B730B0E9431
:10312000713180E6861BF7FF03C08195089580E02A
:103130000895EF920F93CF93DF93D72FC82FC90134
:103140000E19BA010E946618602F681B7D2F8C2F04
:10315000DF91CF910F91EF9008950F93CF93DF936D
:10316000D72FC82FC901BA010E946618682F600FB7
:103170007D2F8C2FDF91CF910F910895EF920F93B8
:103180001F93CF93DF93D62FC72F182FC9010E1986
:10319000010FBA010E946618081B202F219F212DC4
:1031A0001124822F6D2F7C2FDF91CF911F910F91D2
:1031B000EF900895EF920F931F93CF93DF93D62F45
:1031C000172FC82FC9010E19070FBA010E946618E0
:1031D000702F781B719F712D11246D2F8C2FDF9113
:1031E000CF911F910F91EF900895FF920F931F932E
:1031F000CF93DF93F62ED72F182FC901C12FC01BF5
:10320000BA010E946618982F990F890FC81B2C2F9E
:10321000219F212D1124822F6F2D7D2FDF91CF91A2
:103220001F910F91FF900895FF920F931F93CF93DB
:10323000DF93F62E172FD82FC901C72FC01BBA0155
:103240000E946618982F990F890F7C2F781B719F09
:10325000712D11246F2D8D2FDF91CF911F910F9123
:10326000FF900895809A81B38E7F91B391602FB7BC
:10327000F894EBECF2E033E0E334F30789F03191BA
:1032800048E091BB000000C037FF81BB330F000056
:1032900000C000C000C081BB00C04A9591F7EBCFD1
:1032A0002FBF8FE594E00197F1F700C0000008956B
:1032B000E3EDF3E0438120E1421B08F440E081812B
:1032C000628190E00C943E25E3EDF3E0438120E140
:1032D000420F08F44FEF8181628190E00C943E250B
:1032E000E3EDF3E0628120E1621B08F460E081819C
:1032F000438190E00C943E25E3EDF3E0628120E110
:10330000620F08F46FEF8181438190E00C943E25B9
:10331000E3EDF3E0818190E04381628108970C94B2
:103320003E25E3EDF3E0818190E0438162810896E0
:103330000C943E258091D30386958695815009F49F
:1033400089E20C943D228091D303869586958F5F08
:103350008A3208F081E00C943D22CF93DF93CFEDC9
:10336000D1E060E0CE010E94EA302196C11584E0F0
:10337000D807B9F7DF91CF910895CF92DF92EF92FE
:10338000FF920F931F93CF93DF93C0E0D0E08E01A5
:10339000085A1F4F6E0186E1C80ED11CFE01E25E85
:1033A000FD4FE590F4906F2DCE0187960E94EA3094
:1033B0006E2DCE0188960E94EA302296CC15DD054E
:1033C00069F70C171D0731F7E801083B1140F9F6C2
:1033D000DF91CF911F910F91FF90EF90DF90CF90F1
:1033E00008950F931F93CF93DF93C42FD0E0CC0F9A
:1033F000DD1F26E1629FC00DD11D112438E5839F9A
:10340000C00DD11D1124CE0187960E94CC30082F0B
:1034100010E0102F0027CE0188960E94CC30980132
:10342000282BC901DF91CF911F910F910895462F4D
:10343000853038F4743028F46B3018F4672F0C940E
:10344000F11980E090E00895CF93C82F811102C058
:103450006FEF01C061E283E290E00E94EA30C111A7
:1034600002C06FEF01C061E184E290E00E94EA30A7
:10347000C11102C06FEF01C064E185E290E0CF911D
:103480000C94EA3080E00E94241A60E086E290E02A
:103490000E94EA300E94BD190E94AD1981E00C948F
:1034A000241A83E290E00E94CC30813281F484E2DD
:1034B00090E00E94CC30813151F485E290E00E948E
:1034C000CC3091E0843109F090E0892F01C080E098
:1034D00081700895882311F0FA0101C0FB0109945D
:1034E0000C9434160C9440161F93CF93DF93FC0179
:1034F000E150FE4F20816223D1F0EC010E94AC30FC
:10350000182F0E94AC308F77782F20E8720F08F4C4
:103510007FEF612F8091D6030E94422E462F282FE5
:10352000672FCE01DF91CF911F910C94721ADF911A
:10353000CF911F910895DF92EF92FF920F931F9307
:10354000CF93DF93EC01FC01E150FE4F90816923A2
:1035500081F1D090D5030091D6031091D403E12ED0
:10356000F12C0E94AC30282FC7018C549F4F68E685
:1035700071E00E9471318E199F0997FD0396959510
:103580008795959587952370612F289F600D11244D
:103590007D2D802F0E94422E462F282F672FCE018F
:1035A000DF91CF911F910F91FF90EF90DF900C94DE
:1035B000721ADF91CF911F910F91FF90EF90DF90E2
:1035C00008952BE0829FC0011124FC01ED57FE4FAE
:1035D000E60FF11D80818F3F21F0FA01808381E0A9
:1035E000089580E00895E3EDF3E085E38083809122
:1035F000150190911601A091170181839283A383F5
:103600008FE784838FEF858346E050E06CE170E0C4
:10361000CF010C94DA30482F982F46FD9095E92F72
:10362000EF739F7046FD9F5FE295EF70EE0FF0E045
:10363000E55CFE4F2181299F802D212D112482954B
:103640008F702295207F822B3081982F930F892FA6
:1036500047FD8195805808950F931F93CF93DF9373
:10366000D62F072F182FC42F822F0E940B1BEC2F51
:10367000F0E0EE0FFF1FE155FE4F90819058890F4B
:1036800087FD8195880F682F2CE0629F612D1124A2
:103690006D0F702F812FDF91CF911F910F910895A2
:1036A000BC018230910508F40895613E8EE17807EF
:1036B00048F49B0195E0369527959A95E1F748E007
:1036C000420F01C04FEF91E0242F30E0290F311D50
:1036D00035952795229FF001239FF00DF00D1124C1
:1036E0006E177F0718F44FEF420F04C02F3F39F0D9
:1036F00091E0920F491740F78FEF890F08958FEFF0
:1037000008950F93CF93DF93D72FC82F47FD41958F
:10371000E2E3F0E0CF01841B910947FD9395889F78
:10372000B001899F700D700D1124229FC001239F4D
:10373000900D900D1124860F971F0E94501B682F2B
:10374000660F860F682F600F7D2F8C2FDF91CF9132
:103750000F91089520E030E0869F212D969F200D47
:10376000311D1124C90108950F931F93CF93DF9347
:10377000C42FD22FFC0182818823C9F040934503D6
:103780000E94842B909344038093430380E28C0F28
:10379000883008F057C0C77081E001C0880FCA9513
:1037A000EAF7DF91CF911F910F910C94382C809103
:1037B0004503481330C080914303909144030E9415
:1037C000692B883C910538F510E21D0FCD17B9F033
:1037D00080E28C0F883040F4C77081E001C0880F10
:1037E000CA95EAF70E942D2C183028F581E09D2F0C
:1037F000977001C0880F9A95EAF70E94382C802FA5
:103800000E94262E1830F0F4D77081E001C0880F96
:10381000DA95EAF70AC080E28C0F883098F4C77016
:1038200081E001C0880FCA95EAF7DF91CF911F911F
:103830000F910C942D2C802FDF91CF911F910F9120
:103840000C94262EDF91CF911F910F91089580E067
:10385000089590912A0292FF0DC0282F28712830D8
:1038600019F4877F846006C0282F2471243011F456
:103870008B7F886093FF0DC0282F2871283119F4A1
:10388000877E846106C0282F2471243111F48B7E39
:10389000886120912B0220FF0DC0382F38713830FD
:1038A00019F4877F816006C0382F3171313011F4EF
:1038B0008E7F886021FF0DC0282F2871283119F4D0
:1038C000877E816106C0282F2171213111F48E7EFF
:1038D000886194FD877E0895F894E82FE295EF7053
:1038E000F0E031A1282F2F7081E090E001C0880F17
:1038F0002A95EAF7982F9095932391A392A1892B6B
:1039000082A378940895CF93DF938238910569F16B
:10391000B0F48133910509F46FC048F48932910500
:1039200009F465C08A32910509F46BC08AC08533F9
:10393000910509F457C089339105B9F082C0833EDF
:10394000910571F138F4803E9105B1F0823E910508
:1039500011F177C0863E9105B9F1873E9105C9F115
:10396000843E910509F06DC024C020912A0220FDFB
:1039700053C021FD51C065C080912A0280FD46C020
:1039800080912B0280FF48C080912A0284FD63C190
:1039900083EE90E062C180912A0282FF3AC0F4CFA8
:1039A00080912A0282FD35C080912B0280FD34C0B7
:1039B000EBCF80912B0281FF35C080912A0284FDDC
:1039C0004AC187EE90E049C180912A0283FF27C057
:1039D000F4CF80912A0283FD22C080912B0281FDC9
:1039E00021C0EBCF80912A0285FD1FC021C08091AC
:1039F0002A0285FD1DC019C080912A0286FD1BC0C8
:103A00001DC080912A0286FD19C015C089E390E08F
:103A100024C182EE90E021C180EE90E01EC186EECE
:103A200090E01BC184EE90E018C189E290E015C1DE
:103A300085E390E012C18AE290E00FC181E390E05B
:103A40000CC1811530E5930708F062C0811520E4B0
:103A5000920718F09F70906A00C1803E910548F46B
:103A6000803C9105C0F0FC01EE0FFF1FE250FE4FBD
:103A70000FC0811530E29307B8F1811530E3930749
:103A800008F03CC0FC01FF70EE0FFF1FE258FC4F36
:103A900085919491E2C0883A9105B8F4853A9105F0
:103AA00048F0855AE82FF0E0ED5BFE4F808190E012
:103AB0009064D3C08130910509F4CAC008F4CBC02A
:103AC0008430910508F4C7C0C8C08F3B910508F049
:103AD000C2C0885AE82FF0E0EE0FFF1FEA5BFE4FEE
:103AE000808191819464B9C0811521E0920708F02A
:103AF000B4C0883E910508F0AEC0AFC0EC01DD2730
:103B000093FF03C0CE01986CA8C0CE01906CA5C0F5
:103B1000811525E5920708F05BC0811534E5930710
:103B200028F0982F8827846F906A97C0811522E526
:103B3000920738F5811531E59307F0F49C0174E0A4
:103B4000369527957A95E1F72370982F9370C1E009
:103B5000D0E002C0CC0FDD1F9A95E2F7DC68D22BD3
:103B6000E82FEF70E695E69520E2E29FF001112440
:103B7000CE018E2B9F2B71C0982F8827816F906A62
:103B80006CC0AC0143705527282F269526958115CA
:103B9000934578F481E090E002C0880F991F4A9520
:103BA000E2F730E2239FE00111248C2B9D2B9C68CF
:103BB00054C081E090E002C0880F991F4A95E2F757
:103BC00030E2239FE00111248C2B9D2B9A6845C085
:103BD000EC01C11589E5D807B0F4C11528E5D20775
:103BE00028F09C2F8827806F906A37C0C11536E572
:103BF000D30788F58C2F0E94291C8F7190E0982F95
:103C0000882790622AC0C1158AE5D80788F48C2FCE
:103C10008F700E94291C94E0D695C7959A95E1F77C
:103C2000CF70D0E0DC2FCC27D0699E01282B0EC0AE
:103C3000CE0190568115904270F48D2F8F710E94A5
:103C4000291C8F71DD27D0629E01382BC90105C068
:103C500081E090E002C080E090E0DF91CF91089594
:103C6000CF9384E090E00E94CC30C82F82E290E0B5
:103C70000E94CC302C2F30E0A901582BCA01CF91E3
:103C8000089580E090E00E94D430893E9E4F11F468
:103C90000C94511A80E0089569EE7EEF80E090E088
:103CA0000E94083160E082E090E00E94EA3060E02B
:103CB00083E090E00E94EA3010928B0360E084E0A1
:103CC00090E00E94EA3060E082E290E00E94EA30F8
:103CD00060E085E090E00E94EA3060E086E090E0FD
:103CE0000E94EA306FEF87E090E00E94EA3040E007
:103CF00050E0BA0188E090E00E94FC3060E08DE086
:103D000090E00E94EA3040E050E0BA0188E190E0A3
:103D10000E94FC3060E087E190E00E94EA3040E0E1
:103D200050E0BA018CE190E00E94FC3060E070E06D
:103D300080E290E00E94083140E050E0BA0188E162
:103D400090E00E94FC3080E00E94241A0E94421AF7
:103D500040E050E0BA018FE090E00E94FC3040E08B
:103D600050E0BA0183E190E00C94FC3080918A032A
:103D7000811110928A03089590918903809188039C
:103D8000892B20918703982F922B90934603809143
:103D90008A03882389F0892B80934603E8E4F3E0C3
:103DA00097E080E0915029F021912223D9F38F5F91
:103DB000F9CF81110E94B61EE091DC03F091DD0382
:103DC000309731F00280F381E02D86E493E009948E
:103DD0000895CF93C0912B02C2FB992790F99817B1
:103DE00081F080FBC2F9C0932B0260912A0284E02B
:103DF00090E00E94EA306C2F82E290E0CF910C9428
:103E0000EA30CF9108952091860380958223809394
:103E10008603982F977041F430E0482F082E000C4D
:103E2000550B2417350721F490912B0292FF07C000
:103E30008595859585950E94DC2C109286030895C2
:103E40008091850390915403891719F08F5F8770D3
:103E5000FBCF08950F931F93CF93DF93809153036C
:103E600082958F7009F05DC080915003882309F41A
:103E700058C0809185031091540360914E03709156
:103E80004F03C0915103D091520391E06F3F09F06D
:103E900090E0292F06E0811709F443C0209721F014
:103EA0007F3F21F030E003C031E001C0322F90E0CD
:103EB00030FD34C0089FF001099FF00D1124DF018F
:103EC000AB5ABC4F11963C911197371327C03C91C8
:103ED000361324C012963C91129731111FC01396CD
:103EE0004D915C9114974C1B5D0B483C5105B0F40F
:103EF000809153038F70806180935303E65AFC4F87
:103F000080818F70806180838EE493E00E94560FE1
:103F1000DF91CF911F910F910C94201F0196877014
:103F2000BACFDF91CF911F910F910895CF93DF9377
:103F3000EC010E94502CBE010E94171A0E94831CA3
:103F4000DF91CF9108959F92AF92BF92CF92DF926F
:103F5000EF92FF920F931F93CF93DF93CDB7DEB70E
:103F600061970FB6F894DEBF0FBECDBF8C0185E020
:103F7000F801DE011D9601900D928A95E1F7F80196
:103F8000E28090914E0360914F0340915103509114
:103F900052034115510531F06F3F31F481E09F3FED
:103FA00019F403C081E001C080E0F82FF1709F2E6A
:103FB00080FD02C1F80130812181C380D4808EE46C
:103FC000A82E83E0B82EF0905003F601E41BF50B09
:103FD000FF2009F4CAC080915303E83CF10508F0C2
:103FE00095C0482F407F09F050C0621311C0931351
:103FF0000FC0FE2CE1100CC08F70806180935303C2
:10400000C5010E94560F80915303F801858311C1A9
:10401000CD2831F02F3F31F481E03F3F19F403C048
:1040200081E001C080E080FD03C081E08E2502C0F8
:1040300080E090E0F82FF170FF2E80FF1CC080918F
:1040400085034091540356E0841709F4D0C090E0F2
:10405000589FF001599FF00D1124EB5AFC4F6181DC
:10406000261306C06081631303C06281E61203C099
:1040700001968770E9CFFE2CEE2009F4DAC080911A
:1040800053038160809353034DC062130AC093139E
:1040900008C0E11006C0F8018583C8010E94560FD0
:1040A0006EC0C8010E94F72C882351F1EE2041F127
:1040B00020915303822F82958F7090E0029774F0C5
:1040C00080914E0390914F0398878F831986DB86EA
:1040D000CA862C87CE0107960E94560F86E0F8010B
:1040E000AEE4B3E001900D928A95E1F70E942A1F99
:1040F0000AC06217C9F0C8010E94F72C81111EC0C6
:10410000C8010E94560FFF24F39493C0482F407FAC
:1041100081F78EE493E00E94560F86E0F50111923C
:104120008A95E9F7F12C85C09313E5CFE110E3CF31
:10413000F8018583C8010E94560F38C0EE2001F3B4
:1041400020915303822F82958F7090E0029734F272
:1041500080914E0390914F039A8389831B82DD8265
:10416000CC822E83CE010196B7CFE83CF105F0F466
:10417000FE2CEE2029F262130BC0931309C086E0D7
:10418000F801AEE4B3E001900D928A95E1F751C0D9
:10419000C8010E94F72C8111A1CF80915303816047
:1041A00080935303C8010E94560F43C086E0F50177
:1041B00011928A95E9F73DC0EE2009F4A1CFC8011C
:1041C0000E94F72CF82E882309F49ACF86E0F80194
:1041D000AEE4B3E001900D928A95E1F780914E0331
:1041E00090914F030E94961F0E942A1F22C03D8774
:1041F0002E878D859E850E94961F292F22952F70D0
:10420000223028F49F7039F0811105C00BC0243092
:1042100028F49F7049F4805E883020F0C8010E9425
:10422000560F9F2CF92C05C0F8019581907F99F7C6
:10423000F9CF8F2D61960FB6F894DEBF0FBECDBFBC
:10424000DF91CF911F910F91FF90EF90DF90CF9072
:10425000BF90AF909F9008956F927F928F929F92A0
:10426000AF92BF92CF92DF92EF92FF920F931F9384
:10427000CF93DF93CDB7DEB728970FB6F894DEBFA4
:104280000FBECDBFAE014F5F5F4F7A0188E0DA010C
:104290001D928A95E9F708E111E06A018CE1682E28
:1042A00081E0782E88248394912CF80180818F3FBF
:1042B00009F44DC0F894E82FE295EF70F0E021A1E9
:1042C0008F70A40102C0440F551F8A95E2F7CA01FE
:1042D000922F982B91A392A18095892382A3789401
:1042E00000C0ECE1F1E020E030E0A12CB12C8191A4
:1042F0008F3FC1F0A82FA295AF70B0E090964C917F
:1043000050E08F70DA0102C0B595A7958A95E2F763
:10431000A0FD08C0C401022E02C0880F991F0A9494
:10432000E2F702C080E090E0A82AB92A2F5F3F4F51
:104330002B303105E1F6F80180818F3F11F00E94AA
:104340006C1CF0EAFA95F1F7D601AD92BC920F5FC2
:104350001F4FB2E0CB0ED11C6016710609F0A5CF3D
:1043600048E050E0B7018CE292E00E94923111E007
:10437000009709F410E0892B89F088E0F701ACE29E
:10438000B2E001900D928A95E1F781E080938E036F
:104390000E94842B90938D0380938C0380918E03D5
:1043A000882351F180918C0390918D030E94692B99
:1043B000059710F180912C0290912D029093C302E9
:1043C0008093C20280912E0290912F029093C50299
:1043D0008093C40280913002909131029093C70281
:1043E0008093C60280913202909133029093C90269
:1043F0008093C80210928E03812F28960FB6F894EE
:10440000DEBF0FBECDBFDF91CF911F910F91FF9007
:10441000EF90DF90CF90BF90AF909F908F907F9064
:104420006F9008950F931F93CF93DF9300D000D028
:10443000CDB7DEB789836A834B831C8204E610E024
:1044400024E030E0AE014F5F5F4F60E084E10E9406
:10445000D32F0F900F900F900F90DF91CF911F915E
:104460000F9108958091D903982F9670963011F48A
:10447000886001C0877F0C94D62C9091D3039370F1
:1044800091F0811102C0946007C08A3210F0946AE2
:1044900003C0880F880F982B9093D30310921401B8
:1044A00081E08093D20308952F923F924F925F92C2
:1044B0006F927F928F929F92AF92BF92CF92DF9234
:1044C000EF92FF920F931F93CF93DF93CDB7DEB799
:1044D00027970FB6F894DEBF0FBECDBF282E4B0135
:1044E00020911101220F220F220F2E83122F185F0D
:1044F000193208F018E23091A9033983AE81A1176F
:1045000008F07CC08E81682E712CF301E150FE4FC3
:10451000908180911201892309F46CC03090D403FA
:104520004090D503522C1F82C301880F991FDC01D4
:10453000A155BE4FBB83AA83C301880F991FFC01FD
:10454000E055FE4FFD83EC83F9815F1608F040C013
:10455000E52CF12CAA81BB81CC90D12CF701E75539
:10456000FC4F8181C81AD108AC81BD81AC90B12CBF
:104570008185A81AB108CC9C9001CD9C300D300DDE
:104580001124AA9CC001AB9C900D900D1124820FA8
:10459000931F0E94501B082F6091D70321E0620FE8
:1045A00008F46FEFF701EE0FFF1FE755FC4F818D09
:1045B000928D0E94AA1B7C019501A601632D742D8A
:1045C0008F81F4010995362E472E8F835394BCCFEB
:1045D0002091D6038F81382F329F312D1124832FC4
:1045E000632D742D0E94422E462F282F672FC30162
:1045F0000E94721A8E818F5F8E8380CF81E0183285
:1046000008F080E027960FB6F894DEBF0FBECDBF4E
:10461000DF91CF911F910F91FF90EF90DF90CF909E
:10462000BF90AF909F908F907F906F905F904F90D2
:104630003F902F900895CF92DF92EF92FF920F93C9
:104640001F93CF93DF938C01C0911101CC0FCC0F3E
:10465000CC0FD8E0DC0FD93208F0D8E22091D70394
:1046600031E0230F08F42FEF30E040E050E06FEF2F
:104670007FEF80E090E00E940E317901CD1708F0C5
:1046800041C0CC2ED12CF601E150FE4F908180919B
:1046900012018923A9F19091A903915097FD15C0AA
:1046A000492F092E000C550BFA01E755FC4F818963
:1046B000C813F3CF440F551FFA01E755FC4F218D66
:1046C000328D2E153F0548F701C097016091D70341
:1046D00041E0640F08F46FEFC9010E94AA1BAC010E
:1046E0006091D4037091D5038091D603F8010995A8
:1046F0000E94422E462F282F672FC6010E94721A51
:10470000CF5FBCCF81E0D83208F080E0DF91CF915D
:104710001F910F91FF90EF90DF90CF900895DF925F
:10472000EF92FF920F931F93CF93DF938C01C09171
:104730001101CC0FCC0FCC0FD8E0DC0FD93208F030
:10474000D8E26091D7036695669521E0620F08F480
:104750006FEF8091A5039091A6030E94AA1BD82E0B
:10476000CD17F0F4EC2EF12CF701E150FE4F9081C3
:1047700080911201892391F06091D4037091D50347
:104780008091D6032D2D4C2FF80109950E94422EC1
:10479000462F282F672FC7010E94721ACF5FE0CFE4
:1047A00081E0D83208F080E0DF91CF911F910F9126
:1047B000FF90EF90DF9008959F92AF92BF92CF92BB
:1047C000DF92EF92FF920F931F93CF93DF936C01D1
:1047D000C0911101CC0FCC0FCC0FD8E0DC0FD93237
:1047E00008F0D8E26091D703669566958091A5039D
:1047F0009091A6030E94AA1B182F80E4810F0E94AB
:104800000B1B90E8F92EF80E812F0E940B1B20E85D
:10481000922E980ECD1700F5AC2EB12CF501E1507B
:10482000FE4F9081809112018923A1F06091D40301
:104830007091D5038091D603E12E0C2F292D4F2D99
:10484000F60109950E94422E462F282F672FC50199
:104850000E94721ACF5FDECF81E0D83208F080E08C
:10486000DF91CF911F910F91FF90EF90DF90CF904C
:10487000BF90AF909F9008956F927F928F929F927A
:10488000AF92BF92CF92DF92EF920F931F93CF938D
:10489000DF933C01C0911101CC0FCC0FCC0FD8E0BD
:1048A000DC0FD93208F0D8E26091D7036695809189
:1048B000A5039091A6030E94AA1B182FCD1708F0FC
:1048C00044C08C2E912CF401E150FE4F90818091D8
:1048D00012018923C1F1F401EE0FFF1FE155FE4FD4
:1048E000C080D12C84E6C81AD108F401EE0FFF1F56
:1048F000ED57FE4FA5A4B12CE0E2AE1AB108CC9C56
:104900009001CD9C300D300D1124AA9CC001AB9CB0
:10491000900D900D1124820F931F0E94501B082FA1
:104920006091D4037091D5038091D603E12E950157
:10493000A601F30109950E94422E462F282F672FCA
:10494000C4010E94721ACF5FB9CF81E0D83208F05B
:1049500080E0DF91CF911F910F91EF90DF90CF908A
:10496000BF90AF909F908F907F906F900895CF925F
:10497000DF92EF92FF920F931F93CF93DF936C011F
:10498000C0911101CC0FCC0FCC0FD8E0DC0FD93285
:1049900008F0D8E26091D70366958091A5039091C5
:1049A000A6030E94AA1B182FCD1778F5EC2EF12C28
:1049B000F701E150FE4F908180911201892319F196
:1049C000F701EE0FFF1FED57FE4F25A530E02052F7
:1049D0003109F701EE0FFF1FE155FE4F408150E016
:1049E000445651096091D4037091D5038091D60348
:1049F000012FF60109950E94422E462F282F672F7E
:104A0000C7010E94721ACF5FCFCF81E0D83208F081
:104A100080E0DF91CF911F910F91FF90EF90DF9099
:104A2000CF900895EF92FF920F931F93CF93DF9350
:104A30007C018B010E940429811119C0E701011535
:104A40001105A1F08091E80085FD0AC08091E80081
:104A50008E778093E8000E940429882381F307C0A1
:104A600089918093F10001501109E9CF80E0DF9135
:104A7000CF911F910F91FF90EF9008959091D303E4
:104A8000937061F08093D4036093D5034D3308F0A5
:104A90004CE34093D60381E08093D20308951F93A3
:104AA000CF93DF93CDB7DEB7AA970FB6F894DEBFEA
:104AB0000FBECDBFEDE9F3E08091F100819343E0BB
:104AC000E53AF407C9F780919E03833009F462C088
:104AD00030F4813071F0823009F49CC0B3C08A3068
:104AE00009F488C08B3009F46DC0893009F0AAC080
:104AF00020C080919D03813A09F0A4C08091E80014
:104B0000877F8093E8008091A1039091A203892B75
:104B100021F468E081E993E003C060E080E090E088
:104B200070E00E94C12A8091E8008B778093E800B2
:104B300089C080919D03813209F084C08091A103D6
:104B40009091A203009719F0029709F07BC0809121
:104B5000E800877F8093E8008091E80082FD05C02F
:104B600080919B038111F8CF6DC02091F30080915B
:104B7000F20090E0922B029729F48091F1008B7F54
:104B8000813021F48091F100809390038091E800BE
:104B90008B7754C080919D03813A09F053C0809176
:104BA000A1039091A203892B09F04CC08091E800E9
:104BB000877F8093E8008091E80080FFFCCF8091A0
:104BC000100137C080919D038132E1F58091A103EE
:104BD0009091A203892BB1F58091E800877F8093A3
:104BE000E8000E94372980919F03809310010E9462
:104BF000232D28C080919D03813221F58091E8000A
:104C0000877F8093E8000E9437298091A0038093DA
:104C10008F0318C080919D03813AA1F48091E80030
:104C2000877F8093E8008091E80080FFFCCF80912F
:104C30008F038093F1008091E8008E778093E800E5
:104C40000E9437298091E80083FFDDC180919D0398
:104C500090919E03492F50E04A30510508F0D3C18E
:104C6000FA01E156FF4F0C948531803821F08238EB
:104C700009F0C9C108C08091990390919A039923C2
:104C800089F082600FC08091A1038F70873008F097
:104C9000BAC18093E9008091EB0085FB882780F9F9
:104CA0001092E9009091E800977F9093E80080933C
:104CB000F1001092F10070C1282F2D7F09F0A3C1DF
:104CC000882319F0823061F09EC180919F0381306A
:104CD00009F099C1933009F080E080939A032EC0C7
:104CE00080919F0381112AC08091A1038F702FEFC3
:104CF000280F263008F087C18093E9002091EB004F
:104D000020FF1CC0933021F48091EB00806214C01E
:104D10009091EB0090619093EB0021E030E0A901CD
:104D200002C0440F551F8A95E2F74093EA001092A3
:104D3000EA008091EB0088608093EB001092E9001C
:104D40008091E800877F8093E8000E9437295BC14B
:104D5000811159C110919F031F778091E3008078E2
:104D6000812B8093E3008091E800877F8093E800A7
:104D70000E9437298091E80080FFFCCF8091E300FA
:104D800080688093E300111102C082E001C083E0DB
:104D900080939B0338C18058823008F034C1209141
:104DA0009F033091A0032C3D53E0350779F583E054
:104DB0008A838AE289834FB7F894DE01139620E054
:104DC0003EE051E2E32FF0E050935700E49120FFE2
:104DD00003C0E295EF703F5FEF708E2F90E0EA30F6
:104DE00010F0C79601C0C0968D939D932F5F24311C
:104DF00049F74FBF8091E800877F8093E8006AE21F
:104E000070E0CE0101960E94C12AB4C08091A10336
:104E10009091A203432F552743305105A9F068F420
:104E20004130510509F4FEC04230510509F0EBC094
:104E30008BE590E0EBE5F4E04BC04132510529F100
:104E40004232510589F1DFC0C901992781309105AE
:104E5000A1F058F0029709F0D6C0E8ECF4E0E49134
:104E60008E2F90E0E8ECF4E030C0E2E1F5E0E49170
:104E70008E2F90E0E2E1F5E028C0E6EFF4E0E49167
:104E80008E2F90E0E6EFF4E020C08330910508F02B
:104E9000BAC0880F991FFC01E358FE4F0190F081C2
:104EA000E02D89E090E014C08330910508F0ABC09C
:104EB000FC01EE0FFF1FE958FE4F0190F081E02D3D
:104EC000DC01AC58BE4F8C9190E0009709F49BC078
:104ED0002091E800277F2093E8002091A3033091E0
:104EE000A4032817390708F4C90140E0009789F1A5
:104EF00020919B03222309F43DC02530D9F1209154
:104F0000E80023FD37C02091E80022FD2FC020914A
:104F1000E80020FFEBCF4091F3002091F20030E059
:104F2000342B009759F02830310540F444914093D8
:104F3000F100319601972F5F3F4FF3CF41E02830CA
:104F4000310509F040E02091E8002E772093E80039
:104F5000CDCF4111CDCF0AC080919B03882351F062
:104F6000853041F08091E80083FD04C08091E80025
:104F700082FFF2CF8091E8008B778093E80043C0F6
:104F8000803809F040C08091E800877F8093E80076
:104F900080919C038093F1008091E8008E77D3CEBE
:104FA000811131C080919F039091A00399270297AE
:104FB00054F58091E800877F8093E80010919F036B
:104FC00010939C030E943729111106C08091E300C1
:104FD00087FD02C081E001C084E080939B0342E032
:104FE00061EC81E00E94562942E261EC84E00E947B
:104FF000562942E261EC82E00E94562942E260ECCE
:1050000083E00E9456298091E80083FF10C08091C0
:10501000E800877F8093E8008091EB0080628093B6
:10502000EB0005C082E190E0E6EBF4E051CFAA96F8
:105030000FB6F894DEBF0FBECDBFDF91CF911F91A9
:10504000089580919003089590919B03943029F5E1
:105050008093E5037093E7036093E6039093E90080
:105060008FEF9091E800815095FD06C095ED9A95DF
:10507000F1F700008111F5CF8091E80085FF0DC0A8
:1050800040E050E063E070E085EE93E00E9412257E
:105090008091E8008E778093E8000895BC0184E059
:1050A0000C942428BC0183E00C94242824E0209351
:1050B000E9002FEF3091E800215035FD06C035EDB5
:1050C0003A95F1F700002111F5CF2091E80025FF76
:1050D0000BC040E050E066E070E00E941225809135
:1050E000E8008E778093E8000895CF93DF9321E066
:1050F0002093E9002FEF3091E800215035FD06C0E4
:1051000035ED3A95F1F700002111F5CF2091E80037
:1051100025FF14C0EC0140E050E068E070E00E9420
:1051200012258091E8008E778093E80088E0FE01E8
:10513000A1E9B3E001900D928A95E1F7DF91CF915B
:1051400008951F920F920FB60F9211242F933F9341
:105150004F935F936F937F938F939F93AF93BF937F
:10516000CF93DF93EF93FF93C091E900CF708091CD
:10517000EC00D82FD17080FDD0E81092E90080912A
:10518000F000877F8093F00078940E944F25109262
:10519000E9008091F00088608093F000CD2BCF7003
:1051A000C093E900FF91EF91DF91CF91BF91AF9153
:1051B0009F918F917F916F915F914F913F912F912F
:1051C0000F900FBE0F901F901895E8EDF0E08081D2
:1051D0008E7F80831092E2001092DA001092E1003C
:1051E000A0EEB0E08C9181608C9380818F7780837A
:1051F00019BCA7EDB0E08C918E7F8C9380818F7E5F
:1052000080831092E80308952091E4003091E50036
:1052100095E64091EC00842F817040FF23C080917F
:10522000E80080FD1DC080919B03882399F08530A4
:1052300099F08091EB0085FD11C04091E400509100
:10524000E5002417350729F3915011F09A01E1CFB9
:1052500084E0089582E0089583E0089581E0089550
:1052600080E008954091E80042FFDDCF08958091ED
:105270009D0387FF11C08091E80082FD05C08091E9
:105280009B038111F8CF11C08091E8008B770BC090
:1052900080919B03882349F08091E80080FFF8CF3C
:1052A0008091E8008E778093E8000895982F9730DA
:1052B00068F59093E900981739F07091EC0020910F
:1052C000ED005091F00003C0242F762F50E021FD17
:1052D00002C09F5FECCF3091EB003E7F3093EB003C
:1052E0003091ED003D7F3093ED003091EB00316067
:1052F0003093EB007093EC002093ED005093F0009E
:105300002091EE0027FDE5CF80E008958F70809317
:10531000E90081E00895CF92DF92EF92FF920F9320
:105320001F93CF93DF93C8EDD0E088818F7E888371
:10533000E7EDF0E080818160808384E082BF81E0DE
:105340008093E80388818E7F888302EE10E0F80165
:1053500010821092DA0081EEC82ED12CF601108254
:1053600088818F77888388818068888388818F7D12
:10537000888319BC10929B0310929C0310929A038D
:105380001092990390EEE92EF12CF70180818B7F2A
:10539000808388818160888342E060E080E00E94B1
:1053A0005629F60180818E7F8083F801808181609B
:1053B0008083808188608083F70180818E7F8083F5
:1053C000888180618883DF91CF911F910F91FF9039
:1053D000EF90DF90CF9008951F920F920FB60F922B
:1053E00011242F933F934F935F936F937F938F93EA
:1053F0009F93AF93BF93EF93FF938091E10082FF60
:1054000009C08091E20082FF05C08091E1008B7F9E
:105410008093E1008091DA0080FF2AC08091D8005B
:1054200080FF26C08091DA008E7F8093DA00809121
:10543000D90080FF18C080E189BD82E189BD09B42F
:1054400000FEFDCF81E080939B038091E8038111F2
:105450000FC00E94E5280E948B298091E2008460A1
:105460008093E20005C019BC10929B031092E803E0
:105470008091E10080FF17C08091E20080FF13C09F
:105480008091E2008E7F8093E2008091E200806153
:105490008093E2008091D80080628093D80019BC8C
:1054A00085E080939B038091E10084FF2EC0809172
:1054B000E20084FF2AC080E189BD82E189BD09B490
:1054C00000FEFDCF8091D8008F7D8093D800809121
:1054D000E1008F7E8093E1008091E2008F7E8093D7
:1054E000E2008091E20081608093E20080919C0361
:1054F000882311F084E007C08091E30087FD02C09B
:1055000081E001C083E080939B038091E10083FFF1
:1055100027C08091E20083FF23C08091E100877F54
:105520008093E10082E080939B0310929C03809122
:10553000E1008E7F8093E1008091E2008E7F809376
:10554000E2008091E20080618093E20042E060E04E
:1055500080E00E9456298091F00088608093F000DE
:10556000FF91EF91BF91AF919F918F917F916F913B
:105570005F914F913F912F910F900FBE0F901F9011
:1055800018952091A3033091A4032617370748F0FC
:105590006115710539F42091E8002E772093E80019
:1055A00001C0B901FC0120E06115710579F180911C
:1055B0009B038823F1F18530F1F18091E80083FDB0
:1055C0003CC08091E80082FD2EC08091E80080FF01
:1055D000EBCF2091F3008091F20090E0922B6115C7
:1055E000710551F08830910538F421912093F10034
:1055F000615071090196F3CF21E0089709F020E08E
:105600008091E8008E778093E800CECF2111CFCF34
:105610000AC080919B03882361F0853061F08091FE
:10562000E80083FD0AC08091E80082FFF2CF80E0AD
:10563000089582E0089583E0089581E0089581E06F
:105640008093E00080E28093D8001092C9008FE13F
:105650009EE40197F1F700C0000087E090EBDC01C9
:105660008093FB039093FC03A093FD03B093FE0390
:105670009CE088E10FB6F894A895809360000FBE77
:1056800090936000FFCF78941F920F920FB60F9205
:1056900011248F939F93AF93BF938091E1039091D7
:1056A000E203A091E303B091E4030196A11DB11DB3
:1056B0008093E1039093E203A093E303B093E403A8
:1056C000BF91AF919F918F910F900FBE0F901F9040
:1056D00018959C014FB7F8948091E1039091E203F3
:1056E000A091E303B091E4034FBF821B930B089595
:1056F0002FB7F8946091E1037091E2038091E30386
:105700009091E4032FBF08952FB7F8948091E1039F
:105710009091E203A091E303B091E4032FBF0895B9
:105720001F920F920FB60F9211248F939F93AF93F6
:10573000BF938091E003811113C08091E1039091A8
:10574000E203A091E303B091E4034196A11DB11DD2
:105750008093E1039093E203A093E303B093E40307
:10576000BF91AF919F918F910F900FBE0F901F909F
:1057700018959C012A5F3F4FFC014281461301C0EE
:105780001282019682179307B9F708959C01FC01D4
:1057900032969FEF80E04191461789F09F3F19F4C0
:1057A000411101C0982F8F5F8630A9F79F3F39F0D4
:1057B000F901E90FF11D97FDFA95628308950895A7
:1057C0002091DE033091DF032817390771F09093A1
:1057D000DF038093DE03E091DC03F091DD0330977B
:1057E00021F00084F185E02D099408952091DA03D9
:1057F0003091DB032817390771F09093DB03809316
:10580000DA03E091DC03F091DD03309721F00680AC
:10581000F781E02D09940895E091DC03F091DD0318
:10582000309721F00190F081E02D099480E00895F7
:10583000882341F080959091880389238093880381
:105840000C94BC1E0895882339F090918803892B0D
:10585000809388030C94BC1E0895882341F08095A2
:10586000909189038923809389030C94BC1E089529
:10587000882339F090918903892B809389030C94B4
:10588000BC1E089580E090E00E94F62B80E090E03E
:105890000E94E02B10928803109287030C94BC1E88
:1058A000CF92DF92FF920F931F93CF93DF936C0100
:1058B0000091D90380918B03082BC7E0D0E010E062
:1058C000C8010C2E02C0959587950A94E2F780FDD9
:1058D00004C02197A8F7F12C09C0FC2EB6018C2F2B
:1058E0000E94171A0E94831C019799F38F2DDF9154
:1058F000CF911F910F91FF90DF90CF9008952BE0F3
:10590000929F800D1124682F669566956695982F55
:10591000977083E0689FB001112440E050E080E080
:10592000FB01E40FF51FE751FC4F208130E0092E09
:1059300002C0369527950A94E2F721703327042E8A
:1059400001C0220F0A94EAF7822B4F5F5F4F43306A
:10595000510531F708952BE0929F800D1124E82F17
:10596000E695E695E695877051E001C0550F8A955A
:10597000EAF783E0E89FF0011124E751FC4F20E0B3
:1059800030E070E04081CB01022E02C096958795F1
:105990000A94E2F781708195842785238427819377
:1059A0002F5F3F4F2330310569F708950E94D115CD
:1059B0008093D9030C94422C21E030E001C0220FE7
:1059C0008A95EAF720958091D90382230C94D62CEE
:1059D00021E030E001C0220F8A95EAF78091D903D7
:1059E000822B0C94D62C80938B030C94422CFC01BC
:1059F000808191810E94961F292F2F70E92FE295B7
:105A0000EF704E2F50E0FA013297EE30F105B8F406
:105A1000E755FF4F0C948531803F99F018F4883E8C
:105A200070F40FC0843F59F40CC0883E50F0813FA1
:105A300031F407C0822F869586958695089580E07B
:105A4000089581E008951092890386E0E8E4F3E088
:105A5000DF011D928A95E9F70C94422C882309F402
:105A600058C0682F823869F40E940C2C81FF51C005
:105A700069E386E493E00E94C62B0E94BC1E69E3A2
:105A80000EC0833891F40E940C2C80FF42C063E565
:105A900086E493E00E94C62B0E94BC1E63E586E468
:105AA00093E00E94B92B0C94BC1E843869F40E94C8
:105AB0000C2C82FF2EC067E486E493E00E94C62B84
:105AC0000E94BC1E67E4EBCF8CEF860F813A38F35F
:105AD00080E2860F883070F4677081E090E001C04A
